{"contracts/GamingTournament.sol":{"GamingTournament":{"abi":[{"inputs":[{"internalType":"address","name":"_gdiToken","type":"address"},{"internalType":"address","name":"_gamingCore","type":"address"},{"internalType":"address","name":"_aiOracle","type":"address"}],"stateMutability":"nonpayable","type":"constructor"},{"inputs":[],"name":"AccessControlBadConfirmation","type":"error"},{"inputs":[{"internalType":"address","name":"account","type":"address"},{"internalType":"bytes32","name":"neededRole","type":"bytes32"}],"name":"AccessControlUnauthorizedAccount","type":"error"},{"inputs":[],"name":"EnforcedPause","type":"error"},{"inputs":[],"name":"ExpectedPause","type":"error"},{"inputs":[],"name":"ReentrancyGuardReentrantCall","type":"error"},{"anonymous":false,"inputs":[{"indexed":true,"internalType":"uint256","name":"matchId","type":"uint256"},{"indexed":true,"internalType":"address","name":"winner","type":"address"},{"indexed":false,"internalType":"uint256","name":"player1Score","type":"uint256"},{"indexed":false,"internalType":"uint256","name":"player2Score","type":"uint256"},{"indexed":false,"internalType":"uint256","name":"timestamp","type":"uint256"}],"name":"MatchCompleted","type":"event"},{"anonymous":false,"inputs":[{"indexed":true,"internalType":"uint256","name":"matchId","type":"uint256"},{"indexed":true,"internalType":"uint256","name":"tournamentId","type":"uint256"},{"indexed":false,"internalType":"address","name":"player1","type":"address"},{"indexed":false,"internalType":"address","name":"player2","type":"address"},{"indexed":false,"internalType":"uint256","name":"scheduledTime","type":"uint256"}],"name":"MatchCreated","type":"event"},{"anonymous":false,"inputs":[{"indexed":false,"internalType":"address","name":"account","type":"address"}],"name":"Paused","type":"event"},{"anonymous":false,"inputs":[{"indexed":true,"internalType":"uint256","name":"tournamentId","type":"uint256"},{"indexed":true,"internalType":"address","name":"player","type":"address"},{"indexed":false,"internalType":"uint256","name":"entryFee","type":"uint256"},{"indexed":false,"internalType":"uint256","name":"timestamp","type":"uint256"}],"name":"PlayerRegistered","type":"event"},{"anonymous":false,"inputs":[{"indexed":true,"internalType":"uint256","name":"tournamentId","type":"uint256"},{"indexed":true,"internalType":"address","name":"player","type":"address"},{"indexed":false,"internalType":"uint256","name":"rank","type":"uint256"},{"indexed":false,"internalType":"uint256","name":"prizeAmount","type":"uint256"}],"name":"PrizeDistributed","type":"event"},{"anonymous":false,"inputs":[{"indexed":true,"internalType":"bytes32","name":"role","type":"bytes32"},{"indexed":true,"internalType":"bytes32","name":"previousAdminRole","type":"bytes32"},{"indexed":true,"internalType":"bytes32","name":"newAdminRole","type":"bytes32"}],"name":"RoleAdminChanged","type":"event"},{"anonymous":false,"inputs":[{"indexed":true,"internalType":"bytes32","name":"role","type":"bytes32"},{"indexed":true,"internalType":"address","name":"account","type":"address"},{"indexed":true,"internalType":"address","name":"sender","type":"address"}],"name":"RoleGranted","type":"event"},{"anonymous":false,"inputs":[{"indexed":true,"internalType":"bytes32","name":"role","type":"bytes32"},{"indexed":true,"internalType":"address","name":"account","type":"address"},{"indexed":true,"internalType":"address","name":"sender","type":"address"}],"name":"RoleRevoked","type":"event"},{"anonymous":false,"inputs":[{"indexed":true,"internalType":"uint256","name":"tournamentId","type":"uint256"},{"indexed":false,"internalType":"string","name":"name","type":"string"},{"indexed":false,"internalType":"enum GamingTournament.TournamentType","name":"tournamentType","type":"uint8"},{"indexed":false,"internalType":"uint256","name":"entryFee","type":"uint256"},{"indexed":false,"internalType":"uint256","name":"maxPlayers","type":"uint256"},{"indexed":true,"internalType":"address","name":"organizer","type":"address"}],"name":"TournamentCreated","type":"event"},{"anonymous":false,"inputs":[{"indexed":true,"internalType":"uint256","name":"tournamentId","type":"uint256"},{"indexed":true,"internalType":"address","name":"winner","type":"address"},{"indexed":false,"internalType":"uint256","name":"prizeAmount","type":"uint256"},{"indexed":false,"internalType":"uint256","name":"timestamp","type":"uint256"}],"name":"TournamentFinished","type":"event"},{"anonymous":false,"inputs":[{"indexed":true,"internalType":"uint256","name":"tournamentId","type":"uint256"},{"indexed":false,"internalType":"uint256","name":"startTime","type":"uint256"},{"indexed":false,"internalType":"uint256","name":"totalPlayers","type":"uint256"}],"name":"TournamentStarted","type":"event"},{"anonymous":false,"inputs":[{"indexed":false,"internalType":"address","name":"account","type":"address"}],"name":"Unpaused","type":"event"},{"inputs":[],"name":"DEFAULT_ADMIN_ROLE","outputs":[{"internalType":"bytes32","name":"","type":"bytes32"}],"stateMutability":"view","type":"function"},{"inputs":[],"name":"EMERGENCY_ROLE","outputs":[{"internalType":"bytes32","name":"","type":"bytes32"}],"stateMutability":"view","type":"function"},{"inputs":[],"name":"MATCH_REFEREE_ROLE","outputs":[{"internalType":"bytes32","name":"","type":"bytes32"}],"stateMutability":"view","type":"function"},{"inputs":[],"name":"MAX_TOURNAMENT_DURATION","outputs":[{"internalType":"uint256","name":"","type":"uint256"}],"stateMutability":"view","type":"function"},{"inputs":[],"name":"MAX_TOURNAMENT_PLAYERS","outputs":[{"internalType":"uint256","name":"","type":"uint256"}],"stateMutability":"view","type":"function"},{"inputs":[],"name":"MIN_TOURNAMENT_DURATION","outputs":[{"internalType":"uint256","name":"","type":"uint256"}],"stateMutability":"view","type":"function"},{"inputs":[],"name":"MIN_TOURNAMENT_PLAYERS","outputs":[{"internalType":"uint256","name":"","type":"uint256"}],"stateMutability":"view","type":"function"},{"inputs":[],"name":"TOURNAMENT_ORGANIZER_ROLE","outputs":[{"internalType":"bytes32","name":"","type":"bytes32"}],"stateMutability":"view","type":"function"},{"inputs":[],"name":"aiOracle","outputs":[{"internalType":"address","name":"","type":"address"}],"stateMutability":"view","type":"function"},{"inputs":[{"internalType":"uint256","name":"matchId","type":"uint256"},{"internalType":"address","name":"winner","type":"address"},{"internalType":"uint256","name":"player1Score","type":"uint256"},{"internalType":"uint256","name":"player2Score","type":"uint256"},{"internalType":"string","name":"gameData","type":"string"}],"name":"completeMatch","outputs":[],"stateMutability":"nonpayable","type":"function"},{"inputs":[{"internalType":"uint256","name":"tournamentId","type":"uint256"},{"internalType":"address","name":"player1","type":"address"},{"internalType":"address","name":"player2","type":"address"},{"internalType":"uint256","name":"scheduledTime","type":"uint256"}],"name":"createMatchPublic","outputs":[],"stateMutability":"nonpayable","type":"function"},{"inputs":[{"internalType":"string","name":"name","type":"string"},{"internalType":"string","name":"description","type":"string"},{"internalType":"enum GamingTournament.TournamentType","name":"tournamentType","type":"uint8"},{"internalType":"uint256","name":"entryFee","type":"uint256"},{"internalType":"uint256","name":"maxPlayers","type":"uint256"},{"internalType":"uint256","name":"startTime","type":"uint256"},{"internalType":"uint256","name":"duration","type":"uint256"}],"name":"createTournament","outputs":[],"stateMutability":"nonpayable","type":"function"},{"inputs":[{"internalType":"uint256","name":"amount","type":"uint256"}],"name":"emergencyWithdraw","outputs":[],"stateMutability":"nonpayable","type":"function"},{"inputs":[{"internalType":"uint256","name":"tournamentId","type":"uint256"},{"internalType":"address[]","name":"winners","type":"address[]"}],"name":"finishTournament","outputs":[],"stateMutability":"nonpayable","type":"function"},{"inputs":[],"name":"gamingCore","outputs":[{"internalType":"address","name":"","type":"address"}],"stateMutability":"view","type":"function"},{"inputs":[],"name":"gdiToken","outputs":[{"internalType":"address","name":"","type":"address"}],"stateMutability":"view","type":"function"},{"inputs":[{"internalType":"uint256","name":"matchId","type":"uint256"}],"name":"getMatch","outputs":[{"internalType":"uint256","name":"id","type":"uint256"},{"internalType":"uint256","name":"tournamentId","type":"uint256"},{"internalType":"address","name":"player1","type":"address"},{"internalType":"address","name":"player2","type":"address"},{"internalType":"address","name":"winner","type":"address"},{"internalType":"enum GamingTournament.MatchStatus","name":"status","type":"uint8"},{"internalType":"uint256","name":"startTime","type":"uint256"},{"internalType":"uint256","name":"endTime","type":"uint256"},{"internalType":"uint256","name":"player1Score","type":"uint256"},{"internalType":"uint256","name":"player2Score","type":"uint256"},{"internalType":"string","name":"gameData","type":"string"},{"internalType":"bool","name":"isBye","type":"bool"}],"stateMutability":"view","type":"function"},{"inputs":[{"internalType":"uint256","name":"tournamentId","type":"uint256"},{"internalType":"address","name":"player","type":"address"}],"name":"getPlayerStats","outputs":[{"internalType":"uint256","name":"wins","type":"uint256"},{"internalType":"uint256","name":"losses","type":"uint256"},{"internalType":"uint256","name":"draws","type":"uint256"},{"internalType":"uint256","name":"totalScore","type":"uint256"},{"internalType":"uint256","name":"rank","type":"uint256"},{"internalType":"bool","name":"isEliminated","type":"bool"},{"internalType":"uint256","name":"lastMatchTime","type":"uint256"}],"stateMutability":"view","type":"function"},{"inputs":[{"internalType":"bytes32","name":"role","type":"bytes32"}],"name":"getRoleAdmin","outputs":[{"internalType":"bytes32","name":"","type":"bytes32"}],"stateMutability":"view","type":"function"},{"inputs":[{"internalType":"uint256","name":"tournamentId","type":"uint256"}],"name":"getTournament","outputs":[{"internalType":"uint256","name":"id","type":"uint256"},{"internalType":"string","name":"name","type":"string"},{"internalType":"string","name":"description","type":"string"},{"internalType":"enum GamingTournament.TournamentType","name":"tournamentType","type":"uint8"},{"internalType":"enum GamingTournament.TournamentStatus","name":"status","type":"uint8"},{"internalType":"uint256","name":"entryFee","type":"uint256"},{"internalType":"uint256","name":"prizePool","type":"uint256"},{"internalType":"uint256","name":"maxPlayers","type":"uint256"},{"internalType":"uint256","name":"currentPlayers","type":"uint256"},{"internalType":"uint256","name":"startTime","type":"uint256"},{"internalType":"uint256","name":"endTime","type":"uint256"},{"internalType":"address","name":"organizer","type":"address"}],"stateMutability":"view","type":"function"},{"inputs":[{"internalType":"uint256","name":"tournamentId","type":"uint256"}],"name":"getTournamentPlayers","outputs":[{"internalType":"address[]","name":"","type":"address[]"}],"stateMutability":"view","type":"function"},{"inputs":[{"internalType":"bytes32","name":"role","type":"bytes32"},{"internalType":"address","name":"account","type":"address"}],"name":"grantRole","outputs":[],"stateMutability":"nonpayable","type":"function"},{"inputs":[{"internalType":"bytes32","name":"role","type":"bytes32"},{"internalType":"address","name":"account","type":"address"}],"name":"hasRole","outputs":[{"internalType":"bool","name":"","type":"bool"}],"stateMutability":"view","type":"function"},{"inputs":[{"internalType":"uint256","name":"tournamentId","type":"uint256"},{"internalType":"address","name":"player","type":"address"}],"name":"isPlayerRegistered","outputs":[{"internalType":"bool","name":"","type":"bool"}],"stateMutability":"view","type":"function"},{"inputs":[],"name":"matchCounter","outputs":[{"internalType":"uint256","name":"","type":"uint256"}],"stateMutability":"view","type":"function"},{"inputs":[{"internalType":"uint256","name":"","type":"uint256"}],"name":"matches","outputs":[{"internalType":"uint256","name":"matchId","type":"uint256"},{"internalType":"uint256","name":"tournamentId","type":"uint256"},{"internalType":"address","name":"player1","type":"address"},{"internalType":"address","name":"player2","type":"address"},{"internalType":"address","name":"winner","type":"address"},{"internalType":"enum GamingTournament.MatchStatus","name":"status","type":"uint8"},{"internalType":"uint256","name":"startTime","type":"uint256"},{"internalType":"uint256","name":"endTime","type":"uint256"},{"internalType":"uint256","name":"player1Score","type":"uint256"},{"internalType":"uint256","name":"player2Score","type":"uint256"},{"internalType":"string","name":"gameData","type":"string"},{"internalType":"bool","name":"isBye","type":"bool"}],"stateMutability":"view","type":"function"},{"inputs":[],"name":"organizerFee","outputs":[{"internalType":"uint256","name":"","type":"uint256"}],"stateMutability":"view","type":"function"},{"inputs":[],"name":"pause","outputs":[],"stateMutability":"nonpayable","type":"function"},{"inputs":[],"name":"paused","outputs":[{"internalType":"bool","name":"","type":"bool"}],"stateMutability":"view","type":"function"},{"inputs":[],"name":"platformFee","outputs":[{"internalType":"uint256","name":"","type":"uint256"}],"stateMutability":"view","type":"function"},{"inputs":[{"internalType":"address","name":"","type":"address"},{"internalType":"uint256","name":"","type":"uint256"}],"name":"playerMatches","outputs":[{"internalType":"uint256","name":"","type":"uint256"}],"stateMutability":"view","type":"function"},{"inputs":[{"internalType":"address","name":"","type":"address"},{"internalType":"uint256","name":"","type":"uint256"}],"name":"playerTournaments","outputs":[{"internalType":"uint256","name":"","type":"uint256"}],"stateMutability":"view","type":"function"},{"inputs":[{"internalType":"uint256","name":"tournamentId","type":"uint256"}],"name":"registerForTournament","outputs":[],"stateMutability":"nonpayable","type":"function"},{"inputs":[{"internalType":"bytes32","name":"role","type":"bytes32"},{"internalType":"address","name":"callerConfirmation","type":"address"}],"name":"renounceRole","outputs":[],"stateMutability":"nonpayable","type":"function"},{"inputs":[{"internalType":"bytes32","name":"role","type":"bytes32"},{"internalType":"address","name":"account","type":"address"}],"name":"revokeRole","outputs":[],"stateMutability":"nonpayable","type":"function"},{"inputs":[{"internalType":"uint256","name":"tournamentId","type":"uint256"}],"name":"startTournament","outputs":[],"stateMutability":"nonpayable","type":"function"},{"inputs":[{"internalType":"bytes4","name":"interfaceId","type":"bytes4"}],"name":"supportsInterface","outputs":[{"internalType":"bool","name":"","type":"bool"}],"stateMutability":"view","type":"function"},{"inputs":[],"name":"totalMatches","outputs":[{"internalType":"uint256","name":"","type":"uint256"}],"stateMutability":"view","type":"function"},{"inputs":[],"name":"totalPrizePool","outputs":[{"internalType":"uint256","name":"","type":"uint256"}],"stateMutability":"view","type":"function"},{"inputs":[],"name":"totalTournaments","outputs":[{"internalType":"uint256","name":"","type":"uint256"}],"stateMutability":"view","type":"function"},{"inputs":[],"name":"tournamentCounter","outputs":[{"internalType":"uint256","name":"","type":"uint256"}],"stateMutability":"view","type":"function"},{"inputs":[{"internalType":"uint256","name":"","type":"uint256"}],"name":"tournaments","outputs":[{"internalType":"uint256","name":"tournamentId","type":"uint256"},{"internalType":"string","name":"name","type":"string"},{"internalType":"string","name":"description","type":"string"},{"internalType":"enum GamingTournament.TournamentType","name":"tournamentType","type":"uint8"},{"internalType":"enum GamingTournament.TournamentStatus","name":"status","type":"uint8"},{"internalType":"uint256","name":"entryFee","type":"uint256"},{"internalType":"uint256","name":"prizePool","type":"uint256"},{"internalType":"uint256","name":"maxPlayers","type":"uint256"},{"internalType":"uint256","name":"currentPlayers","type":"uint256"},{"internalType":"uint256","name":"startTime","type":"uint256"},{"internalType":"uint256","name":"endTime","type":"uint256"},{"internalType":"address","name":"organizer","type":"address"}],"stateMutability":"view","type":"function"},{"inputs":[],"name":"unpause","outputs":[],"stateMutability":"nonpayable","type":"function"},{"inputs":[{"internalType":"uint256","name":"newFee","type":"uint256"}],"name":"updateOrganizerFee","outputs":[],"stateMutability":"nonpayable","type":"function"},{"inputs":[{"internalType":"uint256","name":"newFee","type":"uint256"}],"name":"updatePlatformFee","outputs":[],"stateMutability":"nonpayable","type":"function"}],"devdoc":{"details":"Advanced tournament system for GameDin L3 gaming platform Handles tournament creation, player registration, matchmaking, and prize distribution","errors":{"AccessControlBadConfirmation()":[{"details":"The caller of a function is not the expected one. NOTE: Don't confuse with {AccessControlUnauthorizedAccount}."}],"AccessControlUnauthorizedAccount(address,bytes32)":[{"details":"The `account` is missing a role."}],"EnforcedPause()":[{"details":"The operation failed because the contract is paused."}],"ExpectedPause()":[{"details":"The operation failed because the contract is not paused."}],"ReentrancyGuardReentrantCall()":[{"details":"Unauthorized reentrant call."}]},"events":{"Paused(address)":{"details":"Emitted when the pause is triggered by `account`."},"RoleAdminChanged(bytes32,bytes32,bytes32)":{"details":"Emitted when `newAdminRole` is set as ``role``'s admin role, replacing `previousAdminRole` `DEFAULT_ADMIN_ROLE` is the starting admin for all roles, despite {RoleAdminChanged} not being emitted to signal this."},"RoleGranted(bytes32,address,address)":{"details":"Emitted when `account` is granted `role`. `sender` is the account that originated the contract call. This account bears the admin role (for the granted role). Expected in cases where the role was granted using the internal {AccessControl-_grantRole}."},"RoleRevoked(bytes32,address,address)":{"details":"Emitted when `account` is revoked `role`. `sender` is the account that originated the contract call:   - if using `revokeRole`, it is the admin role bearer   - if using `renounceRole`, it is the role bearer (i.e. `account`)"},"Unpaused(address)":{"details":"Emitted when the pause is lifted by `account`."}},"kind":"dev","methods":{"completeMatch(uint256,address,uint256,uint256,string)":{"details":"Complete a match with results","params":{"gameData":"Additional game data","matchId":"Match ID","player1Score":"Player 1 score","player2Score":"Player 2 score","winner":"Winner address"}},"createMatchPublic(uint256,address,address,uint256)":{"details":"Create a match between two players (public interface)","params":{"player1":"First player address","player2":"Second player address","scheduledTime":"Scheduled match time","tournamentId":"Tournament ID"}},"createTournament(string,string,uint8,uint256,uint256,uint256,uint256)":{"details":"Create a new tournament","params":{"description":"Tournament description","duration":"Tournament duration","entryFee":"Entry fee in GDI tokens","maxPlayers":"Maximum number of players","name":"Tournament name","startTime":"Tournament start time","tournamentType":"Type of tournament"}},"emergencyWithdraw(uint256)":{"details":"Emergency withdraw tokens","params":{"amount":"Amount to withdraw"}},"finishTournament(uint256,address[])":{"details":"Finish a tournament and distribute prizes","params":{"tournamentId":"Tournament ID","winners":"Array of winner addresses in order"}},"getMatch(uint256)":{"details":"Get match information","params":{"matchId":"Match ID"}},"getPlayerStats(uint256,address)":{"details":"Get player stats for a tournament","params":{"player":"Player address","tournamentId":"Tournament ID"}},"getRoleAdmin(bytes32)":{"details":"Returns the admin role that controls `role`. See {grantRole} and {revokeRole}. To change a role's admin, use {_setRoleAdmin}."},"getTournament(uint256)":{"details":"Get tournament information","params":{"tournamentId":"Tournament ID"}},"getTournamentPlayers(uint256)":{"details":"Get tournament players","params":{"tournamentId":"Tournament ID"},"returns":{"_0":"players Array of player addresses"}},"grantRole(bytes32,address)":{"details":"Grants `role` to `account`. If `account` had not been already granted `role`, emits a {RoleGranted} event. Requirements: - the caller must have ``role``'s admin role. May emit a {RoleGranted} event."},"hasRole(bytes32,address)":{"details":"Returns `true` if `account` has been granted `role`."},"isPlayerRegistered(uint256,address)":{"details":"Check if a player is registered for a tournament","params":{"player":"Player address","tournamentId":"Tournament ID"},"returns":{"_0":"True if registered"}},"pause()":{"details":"Pause tournament system"},"paused()":{"details":"Returns true if the contract is paused, and false otherwise."},"registerForTournament(uint256)":{"details":"Register for a tournament","params":{"tournamentId":"Tournament ID"}},"renounceRole(bytes32,address)":{"details":"Revokes `role` from the calling account. Roles are often managed via {grantRole} and {revokeRole}: this function's purpose is to provide a mechanism for accounts to lose their privileges if they are compromised (such as when a trusted device is misplaced). If the calling account had been revoked `role`, emits a {RoleRevoked} event. Requirements: - the caller must be `callerConfirmation`. May emit a {RoleRevoked} event."},"revokeRole(bytes32,address)":{"details":"Revokes `role` from `account`. If `account` had been granted `role`, emits a {RoleRevoked} event. Requirements: - the caller must have ``role``'s admin role. May emit a {RoleRevoked} event."},"startTournament(uint256)":{"details":"Start a tournament","params":{"tournamentId":"Tournament ID"}},"supportsInterface(bytes4)":{"details":"See {IERC165-supportsInterface}."},"unpause()":{"details":"Unpause tournament system"},"updateOrganizerFee(uint256)":{"details":"Update organizer fee","params":{"newFee":"New fee percentage (basis points)"}},"updatePlatformFee(uint256)":{"details":"Update platform fee","params":{"newFee":"New fee percentage (basis points)"}}},"title":"GameDin Tournament Contract","version":1},"evm":{"bytecode":{"linkReferences":{},"object":"6080346200010d57601f6200414338819003918201601f19168301916001600160401b0383118484101762000112578084926060946040528339810103126200010d576200004d8162000128565b620000696040620000616020850162000128565b930162000128565b600180556005600e55600a600f5560028054610100600160a81b03191660089390931b610100600160a81b031692909217909155600380546001600160a01b03199081166001600160a01b03948516179091556004805490911692909116919091179055620000d8336200013d565b50620000e433620001bd565b50620000f0336200025f565b50620000fc33620002fc565b50604051613d8990816200039a8239f35b600080fd5b634e487b7160e01b600052604160045260246000fd5b51906001600160a01b03821682036200010d57565b6001600160a01b031660008181527fad3228b676f7d3cd4284a5443f17f1962b36e491b30a40b2405849e597ba5fb5602052604081205490919060ff16620001b957818052816020526040822081835260205260408220600160ff198254161790553391600080516020620041238339815191528180a4600190565b5090565b6001600160a01b031660008181527f938fae1ebe625f23a46c9c067bf25f1fdc5e976aab24e3d0ff1a7bd30da2864460205260408120549091907f65c9916f995116b13da98f2377109ffc8f2ed0372863561a4bf02356bfc80bf69060ff166200025a57808352826020526040832082845260205260408320600160ff1982541617905560008051602062004123833981519152339380a4600190565b505090565b6001600160a01b031660008181527f656e56ab8dd91e8ab3a0bca8fa0441044baf531879b6b21d090de8274db24b3060205260408120549091907ffc2754c3124992c494f261273f660823cff6f38aa3c30f5781021a51340f912d9060ff166200025a57808352826020526040832082845260205260408320600160ff1982541617905560008051602062004123833981519152339380a4600190565b6001600160a01b031660008181527f3c1b1854ab1360abbb06c8d4c6b2672d4b8cedc5eff522ab19e51d5cb8fdbd4660205260408120549091907fbf233dd2aafeb4d50879c4aa5c81e96d92f6e6945c906a58f9f2d1c1631b4b269060ff166200025a57808352826020526040832082845260205260408320600160ff1982541617905560008051602062004123833981519152339380a460019056fe608080604052600436101561001357600080fd5b60003560e01c90816301fd1951146130a65750806301ffc9a714612fe75780631a5bd7fc14612f3057806320df435914612ed757806322106e3414612e7e578063248a9ca314612e3157806326232a2e14612df557806326f7519a14612d02578063281139ef14612cc75780632a5b145114612c8b5780632ae5a31d14612c4f5780632f2ff15d14612bf257806331b221cd14612ba0578063334f7deb146127a957806336568abe1461271f57806338bd1bc1146126ca578063398ab9a71461268e5780633d092b3d146125d75780633f4ba83a146125195780634768d4ef146124615780635312ea8e146123a3578063541133301461233057806354d82b21146122b857806356d47ecb1461226c57806356eafcc014611cce5780635c975abb14611c8d5780635d316c4914611c3f5780635f9f4b9c14611c03578063651ea943146115af5780636577b5c61461157557806366ccf959146114b857806368ff1b9014611466578063697ea0361461142a57806373ed5c1c146113ee57806374642a3114610c8d5780637503e1b714610bd25780638456cb5914610b3c57806391d1485414610ac3578063a217fddf14610a89578063aa0b598814610a3d578063d547741f146109de578063e06612751461095d578063e93e817c14610922578063f0a4e5c61461026c5763fbe7bc891461020e57600080fd5b346102675760007ffffffffffffffffffffffffffffffffffffffffffffffffffffffffffffffffc3601126102675760206040517f65c9916f995116b13da98f2377109ffc8f2ed0372863561a4bf02356bfc80bf68152f35b600080fd5b346102675760a07ffffffffffffffffffffffffffffffffffffffffffffffffffffffffffffffffc360112610267576102a36131df565b67ffffffffffffffff608435818111610267576102c490369060040161341d565b906102cd613525565b6102d56137c2565b600435600052600b6020526040600020918254156108c45760048301805460ff8160a01c16600481101561089557801590811561088a575b501561082c5773ffffffffffffffffffffffffffffffffffffffff60028601541673ffffffffffffffffffffffffffffffffffffffff87161480156107f3575b80156107d5575b15610777577fffffffffffffffffffffff0000000000000000000000000000000000000000001673ffffffffffffffffffffffffffffffffffffffff86161774020000000000000000000000000000000000000000179055604435600784015560643560088401558051918211610748576103d260098401546132ac565b601f81116106fd575b50602090601f831160011461061d5773ffffffffffffffffffffffffffffffffffffffff93929160009183610612575b50507fffffffffffffffffffffffffffffffffffffffffffffffffffffffffffffffff8260011b9260031b1c19161760098201555b4260068201556001810154600052600a602052600d604060002083600284015416808587161460001461057c57508181018460028501541660005280602052604060002061048e8154613788565b90558460038501541660005260205260016040600020016104af8154613788565b90555b01826002830154166000528060205260036040600020016104d660443582546137b5565b905582600260038401938285541660005283602052600360406000200161050060643582546137b5565b90550154166000526020524260066040600020015554166000524260066040600020015573ffffffffffffffffffffffffffffffffffffffff604051916044358352606435602084015242604084015216907f17c8524efa0c839450a898abb8c8e0223f3c38f7995b61e189ed38344772a491606060043592a3005b600384019085825416868816146000146105d65750848383019154166000528060205260406000206105ae8154613788565b90558460028501541660005260205260016040600020016105cf8154613788565b90556104b2565b908590848401926000528260205260026040600020016105f68154613788565b9055541660005260205260026040600020016105cf8154613788565b01519050858061040b565b906009840160005260206000209160005b7fffffffffffffffffffffffffffffffffffffffffffffffffffffffffffffffe0851681106106e55750918391600193837fffffffffffffffffffffffffffffffffffffffffffffffffffffffffffffffe073ffffffffffffffffffffffffffffffffffffffff989716106106ae575b505050811b016009820155610440565b01517fffffffffffffffffffffffffffffffffffffffffffffffffffffffffffffffff60f88460031b161c1916905585808061069e565b9192602060018192868501518155019401920161062e565b600984016000526020600020601f840160051c8101916020851061073e575b601f0160051c01905b81811061073257506103db565b60008155600101610725565b909150819061071c565b7f4e487b7100000000000000000000000000000000000000000000000000000000600052604160045260246000fd5b60646040517f08c379a000000000000000000000000000000000000000000000000000000000815260206004820152600e60248201527f496e76616c69642077696e6e65720000000000000000000000000000000000006044820152fd5b5073ffffffffffffffffffffffffffffffffffffffff861615610354565b5073ffffffffffffffffffffffffffffffffffffffff60038601541673ffffffffffffffffffffffffffffffffffffffff87161461034d565b60646040517f08c379a000000000000000000000000000000000000000000000000000000000815260206004820152601060248201527f4d61746368206e6f7420616374697665000000000000000000000000000000006044820152fd5b60019150148761030d565b7f4e487b7100000000000000000000000000000000000000000000000000000000600052602160045260246000fd5b60646040517f08c379a000000000000000000000000000000000000000000000000000000000815260206004820152601460248201527f4d6174636820646f6573206e6f742065786973740000000000000000000000006044820152fd5b346102675760007ffffffffffffffffffffffffffffffffffffffffffffffffffffffffffffffffc360112610267576020604051610e108152f35b346102675760407ffffffffffffffffffffffffffffffffffffffffffffffffffffffffffffffffc36011261026757610994613202565b73ffffffffffffffffffffffffffffffffffffffff6024359116600052600c60205260406000208054821015610267576020916109d091613405565b90546040519160031b1c8152f35b346102675760407ffffffffffffffffffffffffffffffffffffffffffffffffffffffffffffffffc36011261026757610a3b600435610a1b6131df565b90806000526000602052610a36600160406000200154613617565b6136e7565b005b346102675760207ffffffffffffffffffffffffffffffffffffffffffffffffffffffffffffffffc36011261026757600435610a77613581565b610a846032821115613cee565b600e55005b346102675760007ffffffffffffffffffffffffffffffffffffffffffffffffffffffffffffffffc36011261026757602060405160008152f35b346102675760407ffffffffffffffffffffffffffffffffffffffffffffffffffffffffffffffffc36011261026757610afa6131df565b600435600052600060205273ffffffffffffffffffffffffffffffffffffffff60406000209116600052602052602060ff604060002054166040519015158152f35b346102675760007ffffffffffffffffffffffffffffffffffffffffffffffffffffffffffffffffc36011261026757610b73613492565b610b7b6137c2565b60017fffffffffffffffffffffffffffffffffffffffffffffffffffffffffffffff0060025416176002557f62e78cea01bee320cd4e420270b5ea74000d11b0c9f74754ebdbfc544b05a2586020604051338152a1005b346102675760207ffffffffffffffffffffffffffffffffffffffffffffffffffffffffffffffffc36011261026757600435600052600a60205260406000208054610c89610c2260018401613340565b91610c2f60028501613340565b9360038101546004820154600583015460068401549060078501549260088601549473ffffffffffffffffffffffffffffffffffffffff600a600989015498015416976040519b8c9b60ff808560081c169416928d61314a565b0390f35b346102675760e07ffffffffffffffffffffffffffffffffffffffffffffffffffffffffffffffffc3601126102675760043567ffffffffffffffff811161026757610cdc90369060040161341d565b60243567ffffffffffffffff811161026757610cfc90369060040161341d565b60449160058335101561026757610d116135bb565b610d196137c2565b8051156113905760046084351061133257610400608435116112d4574260a435111561127657610e1060c435106112185762093a8060c435116111ba57610d61600554613788565b918260055582600052600a602052604060002090838255825167ffffffffffffffff811161074857610d9660018401546132ac565b601f8111611173575b50806020601f82116001146110ac576000916110a1575b507fffffffffffffffffffffffffffffffffffffffffffffffffffffffffffffffff8260011b9260031b1c19161760018301555b80519067ffffffffffffffff821161074857610e0960028401546132ac565b601f811161105a575b50602090601f8311600114610f6d577f6cee9b141362bef0916b96422a6c7e1d7dc5f2fffedb1a309647bdbde576ab269493929160009183610f62575b50507fffffffffffffffffffffffffffffffffffffffffffffffffffffffffffffffff8260011b9260031b1c19161760028201555b6003810180547fffffffffffffffffffffffffffffffffffffffffffffffffffffffffffff000060ff8835169116179055600a606435918260048201556000600582015560843560068201556000600782015560a4356008820155610eed60c43560a4356137b5565b600982015501337fffffffffffffffffffffffff0000000000000000000000000000000000000000825416179055610f26600754613788565b600755610f4d610f41604051936080855260808501906130df565b9560208401903561313d565b604082015260843560608201528033940390a3005b015190508780610e4f565b906002840160005260206000209160005b7fffffffffffffffffffffffffffffffffffffffffffffffffffffffffffffffe0851681106110425750918391600193837fffffffffffffffffffffffffffffffffffffffffffffffffffffffffffffffe07f6cee9b141362bef0916b96422a6c7e1d7dc5f2fffedb1a309647bdbde576ab26999897161061100b575b505050811b016002820155610e84565b01517fffffffffffffffffffffffffffffffffffffffffffffffffffffffffffffffff60f88460031b161c19169055878080610ffb565b91926020600181928685015181550194019201610f7e565b600284016000526020600020601f840160051c81016020851061109a575b601f830160051c8201811061108e575050610e12565b60008155600101611078565b5080611078565b905084015187610db6565b91506001840160005260206000206000925b7fffffffffffffffffffffffffffffffffffffffffffffffffffffffffffffffe08316841061115b5760019350827fffffffffffffffffffffffffffffffffffffffffffffffffffffffffffffffe0811610611124575b5050811b016001830155610dea565b8601517fffffffffffffffffffffffffffffffffffffffffffffffffffffffffffffffff60f88460031b161c191690558780611115565b868101518255602093840193600190920191016110be565b600184016000526020600020601f830160051c8101602084106111b3575b601f830160051c820181106111a7575050610d9f565b60008155600101611191565b5080611191565b6064837f4475726174696f6e20746f6f206c6f6e67000000000000000000000000000000604051917f08c379a00000000000000000000000000000000000000000000000000000000083526020600484015260116024840152820152fd5b6064837f4475726174696f6e20746f6f2073686f72740000000000000000000000000000604051917f08c379a00000000000000000000000000000000000000000000000000000000083526020600484015260126024840152820152fd5b6064837f53746172742074696d65206d75737420626520696e2066757475726500000000604051917f08c379a000000000000000000000000000000000000000000000000000000000835260206004840152601c6024840152820152fd5b6064837f546f6f206d616e7920706c617965727300000000000000000000000000000000604051917f08c379a00000000000000000000000000000000000000000000000000000000083526020600484015260106024840152820152fd5b6064837f546f6f2066657720706c61796572730000000000000000000000000000000000604051917f08c379a000000000000000000000000000000000000000000000000000000000835260206004840152600f6024840152820152fd5b6064837f546f75726e616d656e74206e616d652072657175697265640000000000000000604051917f08c379a00000000000000000000000000000000000000000000000000000000083526020600484015260186024840152820152fd5b346102675760007ffffffffffffffffffffffffffffffffffffffffffffffffffffffffffffffffc360112610267576020600554604051908152f35b346102675760007ffffffffffffffffffffffffffffffffffffffffffffffffffffffffffffffffc36011261026757602060405162093a808152f35b346102675760007ffffffffffffffffffffffffffffffffffffffffffffffffffffffffffffffffc36011261026757602073ffffffffffffffffffffffffffffffffffffffff60035416604051908152f35b346102675760407ffffffffffffffffffffffffffffffffffffffffffffffffffffffffffffffffc360112610267576114ef6131df565b600435600052600a60205273ffffffffffffffffffffffffffffffffffffffff600d604060002001911660005260205260e0604060002080549060018101549060028101546003820154600483015491600660ff600586015416940154946040519687526020870152604086015260608501526080840152151560a083015260c0820152f35b346102675760007ffffffffffffffffffffffffffffffffffffffffffffffffffffffffffffffffc36011261026757602060405160048152f35b346102675760207ffffffffffffffffffffffffffffffffffffffffffffffffffffffffffffffffc360112610267576115e66135bb565b6115ee6137c2565b600435600052600a602052604060002061160a815415156137f8565b60038101805460ff8160081c16600681101561089557611ba5576004600784015410611b475760088301544210611ae9577fffffffffffffffffffffffffffffffffffffffffffffffffffffffffffff00ff6103009116179055600435600052600a60205260ff60036040600020015416600581101561089557806119185750600435600052600a602052604060002090600b8201549160005b8381106116ea575050600791505b01546040519042825260208201527f2b4fbc018be75e6ff98b219698828856ce311122193b11596150e17268e2ee31604060043592a2005b600181018111611765578360018201106000146117945761175861171182600b8501613405565b9073ffffffffffffffffffffffffffffffffffffffff918291549060031b1c169061174260018501600b8701613405565b90549060031b1c16600885015491600435613931565b60028101809111156116a4575b7f4e487b7100000000000000000000000000000000000000000000000000000000600052601160045260246000fd5b6119056117a2600654613788565b8060065580600052600b60205260406000208181556004356001820155600a6117ce85600b8801613405565b929073ffffffffffffffffffffffffffffffffffffffff938491549060031b1c16600282017fffffffffffffffffffffffff0000000000000000000000000000000000000000918282541617905560038201908154169055600481018781547fffffffffffffffffffffff000000000000000000000000000000000000000000866118998b600b7402000000000000000000000000000000000000000096877fffffffffffffffffffffff00ffffffffffffffffffffffffffffffffffffffff881617895501613405565b90549060031b1c169116171790550160017fffffffffffffffffffffffffffffffffffffffffffffffffffffffffffffff008254161790556118de82600c8701613875565b6118eb84600b8701613405565b90549060031b1c16600052600d6020526040600020613875565b611910600854613788565b600855611758565b600414611928575b6007906116b2565b600435600052600a602052604060002090611944600654613788565b918260065582600052600b602052604060002083815560019160043583830155600b810190815415611aba578160005273ffffffffffffffffffffffffffffffffffffffff92836020600020541690600281017fffffffffffffffffffffffff000000000000000000000000000000000000000092838254161790558354861015611aba57611a4e92600a600c928a9487600052888a60206000200154166003830191825416179055600481017fffffffffffffffffffffff00ffffffffffffffffffffffffffffffffffffffff815416905560088301546005820155017fffffffffffffffffffffffffffffffffffffffffffffffffffffffffffffff00815416905501613875565b6000835b611a74575b5050505060079150611a6a600854613788565b6008559050611920565b8154811015611ab5578083611a8c611aaf9385613405565b90549060031b1c16600052600d602052611aaa876040600020613875565b613788565b83611a52565b611a57565b7f4e487b7100000000000000000000000000000000000000000000000000000000600052603260045260246000fd5b60646040517f08c379a000000000000000000000000000000000000000000000000000000000815260206004820152601d60248201527f546f75726e616d656e74206e6f7420726561647920746f2073746172740000006044820152fd5b60646040517f08c379a000000000000000000000000000000000000000000000000000000000815260206004820152601260248201527f4e6f7420656e6f75676820706c617965727300000000000000000000000000006044820152fd5b60646040517f08c379a000000000000000000000000000000000000000000000000000000000815260206004820152601a60248201527f546f75726e616d656e7420616c726561647920737461727465640000000000006044820152fd5b346102675760007ffffffffffffffffffffffffffffffffffffffffffffffffffffffffffffffffc360112610267576020600754604051908152f35b346102675760407ffffffffffffffffffffffffffffffffffffffffffffffffffffffffffffffffc360112610267576020611c83611c7b6131df565b600435613c7f565b6040519015158152f35b346102675760007ffffffffffffffffffffffffffffffffffffffffffffffffffffffffffffffffc36011261026757602060ff600254166040519015158152f35b346102675760407ffffffffffffffffffffffffffffffffffffffffffffffffffffffffffffffffc3601126102675767ffffffffffffffff6024358181116102675736602382011215610267578060040135918211610748578160051b9060405192611d3d60208401856132ff565b83526020830190602482938201019036821161026757602401915b81831061223f57505050611d6a6135bb565b611d726137c2565b600435600052600a6020526040600020611d8e815415156137f8565b600381019182549260ff8460081c166006811015610895576003611db291146138cc565b8451156121e1576104007fffffffffffffffffffffffffffffffffffffffffffffffffffffffffffff00ff611e1795161790556005820154611e1c6103e89182611dfe600e5483613c4b565b04958693611e0e600f5484613c4b565b04938492613c5e565b613c5e565b9260005b86518110156120555773ffffffffffffffffffffffffffffffffffffffff90611e5782611e4d838b613c6b565b5116600435613c7f565b15611ff75780611fa75760328087029087820414871517156117655760649004915b82611e8f575b50611e8a9150613788565b611e20565b611f056020848b84611ea9878260025460081c1693613c6b565b511660006040518096819582947fa9059cbb000000000000000000000000000000000000000000000000000000008452600484016020909392919373ffffffffffffffffffffffffffffffffffffffff60408201951681520152565b03925af18015611f9b57611f6c575b50611f1f828a613c6b565b511660018201821161176557611e8a926040519060018401825260208201527fc0d2773dace20252cd0787cdc7c52fe3633eea19eb0f904ecae1b3a38226ab4c604060043592a388611e7f565b611f8d9060203d602011611f94575b611f8581836132ff565b81019061385d565b5089611f14565b503d611f7b565b6040513d6000823e3d90fd5b60018103611fcb57601e808702908782041487151715611765576064900491611e79565b60028103611fef576014808702908782041487151715611765576064900491611e79565b600091611e79565b60646040517f08c379a000000000000000000000000000000000000000000000000000000000815260206004820152601560248201527f57696e6e6572206e6f74207265676973746572656400000000000000000000006044820152fd5b508592939480612156575b50816120be575b50505115611aba5773ffffffffffffffffffffffffffffffffffffffff905116906040519081524260208201527fb23508f522f6895a5c44e106456cb05b61d4e1539cc9c7a0f09e1baff64378ac604060043592a3005b600254600a91909101546040517fa9059cbb00000000000000000000000000000000000000000000000000000000815273ffffffffffffffffffffffffffffffffffffffff918216600482015260248101939093526020918391604491839160009160081c165af18015611f9b57612137575b80612067565b61214f9060203d602011611f9457611f8581836132ff565b5083612131565b6002546040517fa9059cbb0000000000000000000000000000000000000000000000000000000081523060048201526024810192909252602090829060081c73ffffffffffffffffffffffffffffffffffffffff16816000816044810103925af18015611f9b5715612060576121da9060203d602011611f9457611f8581836132ff565b5085612060565b60646040517f08c379a000000000000000000000000000000000000000000000000000000000815260206004820152601460248201527f4e6f2077696e6e657273207370656369666965640000000000000000000000006044820152fd5b823573ffffffffffffffffffffffffffffffffffffffff8116810361026757815260209283019201611d58565b346102675760207ffffffffffffffffffffffffffffffffffffffffffffffffffffffffffffffffc360112610267576004356122a6613581565b6122b36064821115613cee565b600f55005b346102675760807ffffffffffffffffffffffffffffffffffffffffffffffffffffffffffffffffc360112610267576122ef6131df565b6044359073ffffffffffffffffffffffffffffffffffffffff8216820361026757610a3b9161231c613525565b6123246137c2565b60643591600435613931565b346102675760407ffffffffffffffffffffffffffffffffffffffffffffffffffffffffffffffffc36011261026757612367613202565b73ffffffffffffffffffffffffffffffffffffffff6024359116600052600d60205260406000208054821015610267576020916109d091613405565b346102675760207ffffffffffffffffffffffffffffffffffffffffffffffffffffffffffffffffc360112610267576123da613492565b6002546040517fa9059cbb0000000000000000000000000000000000000000000000000000000081523360048083019190915235602482015290602090829060081c73ffffffffffffffffffffffffffffffffffffffff16816000816044810103925af18015611f9b5761244a57005b610a3b9060203d8111611f9457611f8581836132ff565b346102675760207ffffffffffffffffffffffffffffffffffffffffffffffffffffffffffffffffc36011261026757600435600052600b6020526040600020805490610c8960018201549273ffffffffffffffffffffffffffffffffffffffff92836002820154169184600383015416906004830154600584015460068501549160078601549360088701549560ff600a6124fe60098b01613340565b99015416986040519c8d9c60ff8660a01c169516938d613225565b346102675760007ffffffffffffffffffffffffffffffffffffffffffffffffffffffffffffffffc36011261026757612550613492565b60025460ff8116156125ad577fffffffffffffffffffffffffffffffffffffffffffffffffffffffffffffff00166002557f5db9ee0a495bf2e6ff9c91a7834c1ba4fdd244a5e8aa4e537bd38aeae4b073aa6020604051338152a1005b60046040517f8dfc202b000000000000000000000000000000000000000000000000000000008152fd5b346102675760207ffffffffffffffffffffffffffffffffffffffffffffffffffffffffffffffffc36011261026757600435600052600b60205260406000208054610c8960018301549273ffffffffffffffffffffffffffffffffffffffff928360028301541690846003840154169060048401546005850154600686015491600787015493600888015495612677600960ff600a8c0154169a01613340565b976040519c8d9c60ff8660a01c169516938d613225565b346102675760007ffffffffffffffffffffffffffffffffffffffffffffffffffffffffffffffffc360112610267576020600954604051908152f35b346102675760007ffffffffffffffffffffffffffffffffffffffffffffffffffffffffffffffffc36011261026757602073ffffffffffffffffffffffffffffffffffffffff60025460081c16604051908152f35b346102675760407ffffffffffffffffffffffffffffffffffffffffffffffffffffffffffffffffc360112610267576127566131df565b3373ffffffffffffffffffffffffffffffffffffffff82160361277f57610a3b906004356136e7565b60046040517f6697b232000000000000000000000000000000000000000000000000000000008152fd5b34610267576020807ffffffffffffffffffffffffffffffffffffffffffffffffffffffffffffffffc36011261026757600435906127e56137c2565b6001916002835414612b76576002835580600052600a8252604060002061280e815415156137f8565b60ff600382015460081c16600681101561089557612b18576007810190815460068201541115612aba57600b8101918254158015612aa9575b15612a4b57600254600483810180546040517f23b872dd000000000000000000000000000000000000000000000000000000008152339381019390935230602484015260448301529473ffffffffffffffffffffffffffffffffffffffff9290919088908290606490829060009060081c88165af18015611f9b57612a2e575b506128e68554600586016128dc8282546137b5565b90556009546137b5565b6009558054680100000000000000008110156107485761290a918982018155613405565b819291549060031b9133831b921b19161790556129278154613788565b905533600052600c845261293f836040600020613875565b6040519060e082019082821067ffffffffffffffff8311176107485760069160405260008352858301600081526040840160008152606085016000815260808601916000835260a087019360008552600d60c08901966000885233600052018b52604060002097518855518b880155516002870155516003860155516004850155600584019051151560ff7fffffffffffffffffffffffffffffffffffffffffffffffffffffffffffffff00835416911617905551910155549160405192835242908301527f279369079f3ed0a125dda793bfde61237d8d2f679c1345a15ab761c5d7b6135d60403393a38055005b612a4490883d8a11611f9457611f8581836132ff565b50886128c7565b606485604051907f08c379a00000000000000000000000000000000000000000000000000000000082526004820152601260248201527f416c7265616479207265676973746572656400000000000000000000000000006044820152fd5b50612ab43385613c7f565b15612847565b606484604051907f08c379a00000000000000000000000000000000000000000000000000000000082526004820152600f60248201527f546f75726e616d656e742066756c6c00000000000000000000000000000000006044820152fd5b606483604051907f08c379a00000000000000000000000000000000000000000000000000000000082526004820152601560248201527f526567697374726174696f6e206e6f74206f70656e00000000000000000000006044820152fd5b60046040517f3ee5aeb5000000000000000000000000000000000000000000000000000000008152fd5b346102675760007ffffffffffffffffffffffffffffffffffffffffffffffffffffffffffffffffc36011261026757602073ffffffffffffffffffffffffffffffffffffffff60045416604051908152f35b346102675760407ffffffffffffffffffffffffffffffffffffffffffffffffffffffffffffffffc36011261026757610a3b600435612c2f6131df565b90806000526000602052612c4a600160406000200154613617565b61363d565b346102675760007ffffffffffffffffffffffffffffffffffffffffffffffffffffffffffffffffc360112610267576020600f54604051908152f35b346102675760007ffffffffffffffffffffffffffffffffffffffffffffffffffffffffffffffffc360112610267576020600854604051908152f35b346102675760007ffffffffffffffffffffffffffffffffffffffffffffffffffffffffffffffffc3601126102675760206040516104008152f35b34610267576020807ffffffffffffffffffffffffffffffffffffffffffffffffffffffffffffffffc36011261026757600435600052600a8152600b60406000200160405190818382549182815201908192600052846000209060005b86828210612dcb578686612d75828803836132ff565b604051928392818401908285525180915260408401929160005b828110612d9e57505050500390f35b835173ffffffffffffffffffffffffffffffffffffffff1685528695509381019392810192600101612d8f565b835473ffffffffffffffffffffffffffffffffffffffff1685529093019260019283019201612d5f565b346102675760007ffffffffffffffffffffffffffffffffffffffffffffffffffffffffffffffffc360112610267576020600e54604051908152f35b346102675760207ffffffffffffffffffffffffffffffffffffffffffffffffffffffffffffffffc3601126102675760043560005260006020526020600160406000200154604051908152f35b346102675760007ffffffffffffffffffffffffffffffffffffffffffffffffffffffffffffffffc3601126102675760206040517ffc2754c3124992c494f261273f660823cff6f38aa3c30f5781021a51340f912d8152f35b346102675760007ffffffffffffffffffffffffffffffffffffffffffffffffffffffffffffffffc3601126102675760206040517fbf233dd2aafeb4d50879c4aa5c81e96d92f6e6945c906a58f9f2d1c1631b4b268152f35b346102675760207ffffffffffffffffffffffffffffffffffffffffffffffffffffffffffffffffc36011261026757600435600052600a6020526040600020805490610c89600382015460048301546005840154600685015460078601549060088701549260098801549473ffffffffffffffffffffffffffffffffffffffff600a8a01541696612fcf6002612fc860018d01613340565b9b01613340565b9a6040519b8c9b60ff808560081c169416928d61314a565b346102675760207ffffffffffffffffffffffffffffffffffffffffffffffffffffffffffffffffc360112610267576004357fffffffff00000000000000000000000000000000000000000000000000000000811680910361026757807f7965db0b000000000000000000000000000000000000000000000000000000006020921490811561307c575b506040519015158152f35b7f01ffc9a70000000000000000000000000000000000000000000000000000000091501482613071565b346102675760007ffffffffffffffffffffffffffffffffffffffffffffffffffffffffffffffffc360112610267576020906006548152f35b919082519283825260005b8481106131295750507fffffffffffffffffffffffffffffffffffffffffffffffffffffffffffffffe0601f8460006020809697860101520116010190565b6020818301810151848301820152016130ea565b9060058210156108955752565b9a969261317761319093959e9d9995613185938e9d999d9c989c528d6101809081602082015201906130df565b8c810360408e0152906130df565b9b60608b019061313d565b6006871015610895576101609773ffffffffffffffffffffffffffffffffffffffff9760808b015260a08a015260c089015260e088015261010087015261012086015261014085015216910152565b6024359073ffffffffffffffffffffffffffffffffffffffff8216820361026757565b6004359073ffffffffffffffffffffffffffffffffffffffff8216820361026757565b9a97949291909c9b9c9996999895988b5260208b015273ffffffffffffffffffffffffffffffffffffffff928380921660408c01521660608a0152166080880152600485101561089557610160956132a49560a089015260c088015260e0870152610100860152610120850152610180806101408601528401906130df565b931515910152565b90600182811c921680156132f5575b60208310146132c657565b7f4e487b7100000000000000000000000000000000000000000000000000000000600052602260045260246000fd5b91607f16916132bb565b90601f7fffffffffffffffffffffffffffffffffffffffffffffffffffffffffffffffe0910116810190811067ffffffffffffffff82111761074857604052565b9060405191826000825492613354846132ac565b9081845260019485811690816000146133c35750600114613380575b505061337e925003836132ff565b565b9093915060005260209081600020936000915b8183106133ab57505061337e93508201013880613370565b85548884018501529485019487945091830191613393565b905061337e9550602093507fffffffffffffffffffffffffffffffffffffffffffffffffffffffffffffff0091501682840152151560051b8201013880613370565b8054821015611aba5760005260206000200190600090565b81601f820112156102675780359067ffffffffffffffff8211610748576040519261347060207fffffffffffffffffffffffffffffffffffffffffffffffffffffffffffffffe0601f86011601856132ff565b8284526020838301011161026757816000926020809301838601378301015290565b3360009081527f3c1b1854ab1360abbb06c8d4c6b2672d4b8cedc5eff522ab19e51d5cb8fdbd4660205260409020547fbf233dd2aafeb4d50879c4aa5c81e96d92f6e6945c906a58f9f2d1c1631b4b269060ff16156134ee5750565b604490604051907fe2517d3f0000000000000000000000000000000000000000000000000000000082523360048301526024820152fd5b3360009081527f656e56ab8dd91e8ab3a0bca8fa0441044baf531879b6b21d090de8274db24b3060205260409020547ffc2754c3124992c494f261273f660823cff6f38aa3c30f5781021a51340f912d9060ff16156134ee5750565b3360009081527fad3228b676f7d3cd4284a5443f17f1962b36e491b30a40b2405849e597ba5fb5602052604081205460ff16156134ee5750565b3360009081527f938fae1ebe625f23a46c9c067bf25f1fdc5e976aab24e3d0ff1a7bd30da2864460205260409020547f65c9916f995116b13da98f2377109ffc8f2ed0372863561a4bf02356bfc80bf69060ff16156134ee5750565b80600052600060205260406000203360005260205260ff60406000205416156134ee5750565b906000918083528260205273ffffffffffffffffffffffffffffffffffffffff6040842092169182845260205260ff604084205416156000146136e25780835282602052604083208284526020526040832060017fffffffffffffffffffffffffffffffffffffffffffffffffffffffffffffff008254161790557f2f8788117e7eff1d82e926ec794901d17c78024a50270940304540a733656f0d339380a4600190565b505090565b906000918083528260205273ffffffffffffffffffffffffffffffffffffffff6040842092169182845260205260ff6040842054166000146136e2578083528260205260408320828452602052604083207fffffffffffffffffffffffffffffffffffffffffffffffffffffffffffffff0081541690557ff6391f5c32d9c69d2a47ea670b442974b53935d1edc7fd64eb21e047a839171b339380a4600190565b7fffffffffffffffffffffffffffffffffffffffffffffffffffffffffffffffff81146117655760010190565b9190820180921161176557565b60ff600254166137ce57565b60046040517fd93c0665000000000000000000000000000000000000000000000000000000008152fd5b156137ff57565b60646040517f08c379a000000000000000000000000000000000000000000000000000000000815260206004820152601960248201527f546f75726e616d656e7420646f6573206e6f74206578697374000000000000006044820152fd5b90816020910312610267575180151581036102675790565b8054680100000000000000008110156107485761389791600182018155613405565b7fffffffffffffffffffffffffffffffffffffffffffffffffffffffffffffffff829392549160031b92831b921b1916179055565b156138d357565b60646040517f08c379a000000000000000000000000000000000000000000000000000000000815260206004820152601a60248201527f546f75726e616d656e74206e6f7420696e2070726f67726573730000000000006044820152fd5b929091600092848452602093600a855260409081812090613954825415156137f8565b60ff600383015460081c166006811015613c1e57600361397491146138cc565b61397e8489613c7f565b15613bc15761398d8589613c7f565b15613b645773ffffffffffffffffffffffffffffffffffffffff84811697908616888114613b0757908492916006546139c590613788565b998a809681600655818652600b85528d878720908382556001820155600281017fffffffffffffffffffffffff00000000000000000000000000000000000000009085828254161790558560038301918254161790556004810180547fffffffffffffffffffffff00ffffffffffffffffffffffffffffffffffffffff1690558c6005820155600a0180547fffffffffffffffffffffffffffffffffffffffffffffffffffffffffffffff00169055600c0190613a8191613875565b8352600d82528484842090613a9591613875565b8252600d90522090613aa691613875565b600854613ab290613788565b6008555173ffffffffffffffffffffffffffffffffffffffff91821681529116602082015260408101919091527f7dfa3731603a731645c7aa2c72bad6ff6445dd8cd95be0db525efc20ae39027990606090a3565b6064828651907f08c379a00000000000000000000000000000000000000000000000000000000082526004820152601960248201527f506c6179657273206d75737420626520646966666572656e74000000000000006044820152fd5b6064878451907f08c379a00000000000000000000000000000000000000000000000000000000082526004820152601760248201527f506c617965722032206e6f7420726567697374657265640000000000000000006044820152fd5b6064878451907f08c379a00000000000000000000000000000000000000000000000000000000082526004820152601760248201527f506c617965722031206e6f7420726567697374657265640000000000000000006044820152fd5b6024827f4e487b710000000000000000000000000000000000000000000000000000000081526021600452fd5b8181029291811591840414171561176557565b9190820391821161176557565b8051821015611aba5760209160051b010190565b600052600a602052604060002090600b600092018054925b838110613ca75750505050600090565b613cb18183613405565b905473ffffffffffffffffffffffffffffffffffffffff908186169260031b1c1614613ce557613ce090613788565b613c97565b50505050600190565b15613cf557565b60646040517f08c379a000000000000000000000000000000000000000000000000000000000815260206004820152600c60248201527f46656520746f6f206869676800000000000000000000000000000000000000006044820152fdfea264697066735822122052bd9eb7fe2bee9e3225e7ca0c777e824955ebfa896df2766fff468eda4e951d64736f6c634300081400332f8788117e7eff1d82e926ec794901d17c78024a50270940304540a733656f0d","opcodes":"PUSH1 0x80 CALLVALUE PUSH3 0x10D JUMPI PUSH1 0x1F PUSH3 0x4143 CODESIZE DUP2 SWAP1 SUB SWAP2 DUP3 ADD PUSH1 0x1F NOT AND DUP4 ADD SWAP2 PUSH1 0x1 PUSH1 0x1 PUSH1 0x40 SHL SUB DUP4 GT DUP5 DUP5 LT OR PUSH3 0x112 JUMPI DUP1 DUP5 SWAP3 PUSH1 0x60 SWAP5 PUSH1 0x40 MSTORE DUP4 CODECOPY DUP2 ADD SUB SLT PUSH3 0x10D JUMPI PUSH3 0x4D DUP2 PUSH3 0x128 JUMP JUMPDEST PUSH3 0x69 PUSH1 0x40 PUSH3 0x61 PUSH1 0x20 DUP6 ADD PUSH3 0x128 JUMP JUMPDEST SWAP4 ADD PUSH3 0x128 JUMP JUMPDEST PUSH1 0x1 DUP1 SSTORE PUSH1 0x5 PUSH1 0xE SSTORE PUSH1 0xA PUSH1 0xF SSTORE PUSH1 0x2 DUP1 SLOAD PUSH2 0x100 PUSH1 0x1 PUSH1 0xA8 SHL SUB NOT AND PUSH1 0x8 SWAP4 SWAP1 SWAP4 SHL PUSH2 0x100 PUSH1 0x1 PUSH1 0xA8 SHL SUB AND SWAP3 SWAP1 SWAP3 OR SWAP1 SWAP2 SSTORE PUSH1 0x3 DUP1 SLOAD PUSH1 0x1 PUSH1 0x1 PUSH1 0xA0 SHL SUB NOT SWAP1 DUP2 AND PUSH1 0x1 PUSH1 0x1 PUSH1 0xA0 SHL SUB SWAP5 DUP6 AND OR SWAP1 SWAP2 SSTORE PUSH1 0x4 DUP1 SLOAD SWAP1 SWAP2 AND SWAP3 SWAP1 SWAP2 AND SWAP2 SWAP1 SWAP2 OR SWAP1 SSTORE PUSH3 0xD8 CALLER PUSH3 0x13D JUMP JUMPDEST POP PUSH3 0xE4 CALLER PUSH3 0x1BD JUMP JUMPDEST POP PUSH3 0xF0 CALLER PUSH3 0x25F JUMP JUMPDEST POP PUSH3 0xFC CALLER PUSH3 0x2FC JUMP JUMPDEST POP PUSH1 0x40 MLOAD PUSH2 0x3D89 SWAP1 DUP2 PUSH3 0x39A DUP3 CODECOPY RETURN JUMPDEST PUSH1 0x0 DUP1 REVERT JUMPDEST PUSH4 0x4E487B71 PUSH1 0xE0 SHL PUSH1 0x0 MSTORE PUSH1 0x41 PUSH1 0x4 MSTORE PUSH1 0x24 PUSH1 0x0 REVERT JUMPDEST MLOAD SWAP1 PUSH1 0x1 PUSH1 0x1 PUSH1 0xA0 SHL SUB DUP3 AND DUP3 SUB PUSH3 0x10D JUMPI JUMP JUMPDEST PUSH1 0x1 PUSH1 0x1 PUSH1 0xA0 SHL SUB AND PUSH1 0x0 DUP2 DUP2 MSTORE PUSH32 0xAD3228B676F7D3CD4284A5443F17F1962B36E491B30A40B2405849E597BA5FB5 PUSH1 0x20 MSTORE PUSH1 0x40 DUP2 KECCAK256 SLOAD SWAP1 SWAP2 SWAP1 PUSH1 0xFF AND PUSH3 0x1B9 JUMPI DUP2 DUP1 MSTORE DUP2 PUSH1 0x20 MSTORE PUSH1 0x40 DUP3 KECCAK256 DUP2 DUP4 MSTORE PUSH1 0x20 MSTORE PUSH1 0x40 DUP3 KECCAK256 PUSH1 0x1 PUSH1 0xFF NOT DUP3 SLOAD AND OR SWAP1 SSTORE CALLER SWAP2 PUSH1 0x0 DUP1 MLOAD PUSH1 0x20 PUSH3 0x4123 DUP4 CODECOPY DUP2 MLOAD SWAP2 MSTORE DUP2 DUP1 LOG4 PUSH1 0x1 SWAP1 JUMP JUMPDEST POP SWAP1 JUMP JUMPDEST PUSH1 0x1 PUSH1 0x1 PUSH1 0xA0 SHL SUB AND PUSH1 0x0 DUP2 DUP2 MSTORE PUSH32 0x938FAE1EBE625F23A46C9C067BF25F1FDC5E976AAB24E3D0FF1A7BD30DA28644 PUSH1 0x20 MSTORE PUSH1 0x40 DUP2 KECCAK256 SLOAD SWAP1 SWAP2 SWAP1 PUSH32 0x65C9916F995116B13DA98F2377109FFC8F2ED0372863561A4BF02356BFC80BF6 SWAP1 PUSH1 0xFF AND PUSH3 0x25A JUMPI DUP1 DUP4 MSTORE DUP3 PUSH1 0x20 MSTORE PUSH1 0x40 DUP4 KECCAK256 DUP3 DUP5 MSTORE PUSH1 0x20 MSTORE PUSH1 0x40 DUP4 KECCAK256 PUSH1 0x1 PUSH1 0xFF NOT DUP3 SLOAD AND OR SWAP1 SSTORE PUSH1 0x0 DUP1 MLOAD PUSH1 0x20 PUSH3 0x4123 DUP4 CODECOPY DUP2 MLOAD SWAP2 MSTORE CALLER SWAP4 DUP1 LOG4 PUSH1 0x1 SWAP1 JUMP JUMPDEST POP POP SWAP1 JUMP JUMPDEST PUSH1 0x1 PUSH1 0x1 PUSH1 0xA0 SHL SUB AND PUSH1 0x0 DUP2 DUP2 MSTORE PUSH32 0x656E56AB8DD91E8AB3A0BCA8FA0441044BAF531879B6B21D090DE8274DB24B30 PUSH1 0x20 MSTORE PUSH1 0x40 DUP2 KECCAK256 SLOAD SWAP1 SWAP2 SWAP1 PUSH32 0xFC2754C3124992C494F261273F660823CFF6F38AA3C30F5781021A51340F912D SWAP1 PUSH1 0xFF AND PUSH3 0x25A JUMPI DUP1 DUP4 MSTORE DUP3 PUSH1 0x20 MSTORE PUSH1 0x40 DUP4 KECCAK256 DUP3 DUP5 MSTORE PUSH1 0x20 MSTORE PUSH1 0x40 DUP4 KECCAK256 PUSH1 0x1 PUSH1 0xFF NOT DUP3 SLOAD AND OR SWAP1 SSTORE PUSH1 0x0 DUP1 MLOAD PUSH1 0x20 PUSH3 0x4123 DUP4 CODECOPY DUP2 MLOAD SWAP2 MSTORE CALLER SWAP4 DUP1 LOG4 PUSH1 0x1 SWAP1 JUMP JUMPDEST PUSH1 0x1 PUSH1 0x1 PUSH1 0xA0 SHL SUB AND PUSH1 0x0 DUP2 DUP2 MSTORE PUSH32 0x3C1B1854AB1360ABBB06C8D4C6B2672D4B8CEDC5EFF522AB19E51D5CB8FDBD46 PUSH1 0x20 MSTORE PUSH1 0x40 DUP2 KECCAK256 SLOAD SWAP1 SWAP2 SWAP1 PUSH32 0xBF233DD2AAFEB4D50879C4AA5C81E96D92F6E6945C906A58F9F2D1C1631B4B26 SWAP1 PUSH1 0xFF AND PUSH3 0x25A JUMPI DUP1 DUP4 MSTORE DUP3 PUSH1 0x20 MSTORE PUSH1 0x40 DUP4 KECCAK256 DUP3 DUP5 MSTORE PUSH1 0x20 MSTORE PUSH1 0x40 DUP4 KECCAK256 PUSH1 0x1 PUSH1 0xFF NOT DUP3 SLOAD AND OR SWAP1 SSTORE PUSH1 0x0 DUP1 MLOAD PUSH1 0x20 PUSH3 0x4123 DUP4 CODECOPY DUP2 MLOAD SWAP2 MSTORE CALLER SWAP4 DUP1 LOG4 PUSH1 0x1 SWAP1 JUMP INVALID PUSH1 0x80 DUP1 PUSH1 0x40 MSTORE PUSH1 0x4 CALLDATASIZE LT ISZERO PUSH2 0x13 JUMPI PUSH1 0x0 DUP1 REVERT JUMPDEST PUSH1 0x0 CALLDATALOAD PUSH1 0xE0 SHR SWAP1 DUP2 PUSH4 0x1FD1951 EQ PUSH2 0x30A6 JUMPI POP DUP1 PUSH4 0x1FFC9A7 EQ PUSH2 0x2FE7 JUMPI DUP1 PUSH4 0x1A5BD7FC EQ PUSH2 0x2F30 JUMPI DUP1 PUSH4 0x20DF4359 EQ PUSH2 0x2ED7 JUMPI DUP1 PUSH4 0x22106E34 EQ PUSH2 0x2E7E JUMPI DUP1 PUSH4 0x248A9CA3 EQ PUSH2 0x2E31 JUMPI DUP1 PUSH4 0x26232A2E EQ PUSH2 0x2DF5 JUMPI DUP1 PUSH4 0x26F7519A EQ PUSH2 0x2D02 JUMPI DUP1 PUSH4 0x281139EF EQ PUSH2 0x2CC7 JUMPI DUP1 PUSH4 0x2A5B1451 EQ PUSH2 0x2C8B JUMPI DUP1 PUSH4 0x2AE5A31D EQ PUSH2 0x2C4F JUMPI DUP1 PUSH4 0x2F2FF15D EQ PUSH2 0x2BF2 JUMPI DUP1 PUSH4 0x31B221CD EQ PUSH2 0x2BA0 JUMPI DUP1 PUSH4 0x334F7DEB EQ PUSH2 0x27A9 JUMPI DUP1 PUSH4 0x36568ABE EQ PUSH2 0x271F JUMPI DUP1 PUSH4 0x38BD1BC1 EQ PUSH2 0x26CA JUMPI DUP1 PUSH4 0x398AB9A7 EQ PUSH2 0x268E JUMPI DUP1 PUSH4 0x3D092B3D EQ PUSH2 0x25D7 JUMPI DUP1 PUSH4 0x3F4BA83A EQ PUSH2 0x2519 JUMPI DUP1 PUSH4 0x4768D4EF EQ PUSH2 0x2461 JUMPI DUP1 PUSH4 0x5312EA8E EQ PUSH2 0x23A3 JUMPI DUP1 PUSH4 0x54113330 EQ PUSH2 0x2330 JUMPI DUP1 PUSH4 0x54D82B21 EQ PUSH2 0x22B8 JUMPI DUP1 PUSH4 0x56D47ECB EQ PUSH2 0x226C JUMPI DUP1 PUSH4 0x56EAFCC0 EQ PUSH2 0x1CCE JUMPI DUP1 PUSH4 0x5C975ABB EQ PUSH2 0x1C8D JUMPI DUP1 PUSH4 0x5D316C49 EQ PUSH2 0x1C3F JUMPI DUP1 PUSH4 0x5F9F4B9C EQ PUSH2 0x1C03 JUMPI DUP1 PUSH4 0x651EA943 EQ PUSH2 0x15AF JUMPI DUP1 PUSH4 0x6577B5C6 EQ PUSH2 0x1575 JUMPI DUP1 PUSH4 0x66CCF959 EQ PUSH2 0x14B8 JUMPI DUP1 PUSH4 0x68FF1B90 EQ PUSH2 0x1466 JUMPI DUP1 PUSH4 0x697EA036 EQ PUSH2 0x142A JUMPI DUP1 PUSH4 0x73ED5C1C EQ PUSH2 0x13EE JUMPI DUP1 PUSH4 0x74642A31 EQ PUSH2 0xC8D JUMPI DUP1 PUSH4 0x7503E1B7 EQ PUSH2 0xBD2 JUMPI DUP1 PUSH4 0x8456CB59 EQ PUSH2 0xB3C JUMPI DUP1 PUSH4 0x91D14854 EQ PUSH2 0xAC3 JUMPI DUP1 PUSH4 0xA217FDDF EQ PUSH2 0xA89 JUMPI DUP1 PUSH4 0xAA0B5988 EQ PUSH2 0xA3D JUMPI DUP1 PUSH4 0xD547741F EQ PUSH2 0x9DE JUMPI DUP1 PUSH4 0xE0661275 EQ PUSH2 0x95D JUMPI DUP1 PUSH4 0xE93E817C EQ PUSH2 0x922 JUMPI DUP1 PUSH4 0xF0A4E5C6 EQ PUSH2 0x26C JUMPI PUSH4 0xFBE7BC89 EQ PUSH2 0x20E JUMPI PUSH1 0x0 DUP1 REVERT JUMPDEST CALLVALUE PUSH2 0x267 JUMPI PUSH1 0x0 PUSH32 0xFFFFFFFFFFFFFFFFFFFFFFFFFFFFFFFFFFFFFFFFFFFFFFFFFFFFFFFFFFFFFFFC CALLDATASIZE ADD SLT PUSH2 0x267 JUMPI PUSH1 0x20 PUSH1 0x40 MLOAD PUSH32 0x65C9916F995116B13DA98F2377109FFC8F2ED0372863561A4BF02356BFC80BF6 DUP2 MSTORE RETURN JUMPDEST PUSH1 0x0 DUP1 REVERT JUMPDEST CALLVALUE PUSH2 0x267 JUMPI PUSH1 0xA0 PUSH32 0xFFFFFFFFFFFFFFFFFFFFFFFFFFFFFFFFFFFFFFFFFFFFFFFFFFFFFFFFFFFFFFFC CALLDATASIZE ADD SLT PUSH2 0x267 JUMPI PUSH2 0x2A3 PUSH2 0x31DF JUMP JUMPDEST PUSH8 0xFFFFFFFFFFFFFFFF PUSH1 0x84 CALLDATALOAD DUP2 DUP2 GT PUSH2 0x267 JUMPI PUSH2 0x2C4 SWAP1 CALLDATASIZE SWAP1 PUSH1 0x4 ADD PUSH2 0x341D JUMP JUMPDEST SWAP1 PUSH2 0x2CD PUSH2 0x3525 JUMP JUMPDEST PUSH2 0x2D5 PUSH2 0x37C2 JUMP JUMPDEST PUSH1 0x4 CALLDATALOAD PUSH1 0x0 MSTORE PUSH1 0xB PUSH1 0x20 MSTORE PUSH1 0x40 PUSH1 0x0 KECCAK256 SWAP2 DUP3 SLOAD ISZERO PUSH2 0x8C4 JUMPI PUSH1 0x4 DUP4 ADD DUP1 SLOAD PUSH1 0xFF DUP2 PUSH1 0xA0 SHR AND PUSH1 0x4 DUP2 LT ISZERO PUSH2 0x895 JUMPI DUP1 ISZERO SWAP1 DUP2 ISZERO PUSH2 0x88A JUMPI JUMPDEST POP ISZERO PUSH2 0x82C JUMPI PUSH20 0xFFFFFFFFFFFFFFFFFFFFFFFFFFFFFFFFFFFFFFFF PUSH1 0x2 DUP7 ADD SLOAD AND PUSH20 0xFFFFFFFFFFFFFFFFFFFFFFFFFFFFFFFFFFFFFFFF DUP8 AND EQ DUP1 ISZERO PUSH2 0x7F3 JUMPI JUMPDEST DUP1 ISZERO PUSH2 0x7D5 JUMPI JUMPDEST ISZERO PUSH2 0x777 JUMPI PUSH32 0xFFFFFFFFFFFFFFFFFFFFFF000000000000000000000000000000000000000000 AND PUSH20 0xFFFFFFFFFFFFFFFFFFFFFFFFFFFFFFFFFFFFFFFF DUP7 AND OR PUSH21 0x20000000000000000000000000000000000000000 OR SWAP1 SSTORE PUSH1 0x44 CALLDATALOAD PUSH1 0x7 DUP5 ADD SSTORE PUSH1 0x64 CALLDATALOAD PUSH1 0x8 DUP5 ADD SSTORE DUP1 MLOAD SWAP2 DUP3 GT PUSH2 0x748 JUMPI PUSH2 0x3D2 PUSH1 0x9 DUP5 ADD SLOAD PUSH2 0x32AC JUMP JUMPDEST PUSH1 0x1F DUP2 GT PUSH2 0x6FD JUMPI JUMPDEST POP PUSH1 0x20 SWAP1 PUSH1 0x1F DUP4 GT PUSH1 0x1 EQ PUSH2 0x61D JUMPI PUSH20 0xFFFFFFFFFFFFFFFFFFFFFFFFFFFFFFFFFFFFFFFF SWAP4 SWAP3 SWAP2 PUSH1 0x0 SWAP2 DUP4 PUSH2 0x612 JUMPI JUMPDEST POP POP PUSH32 0xFFFFFFFFFFFFFFFFFFFFFFFFFFFFFFFFFFFFFFFFFFFFFFFFFFFFFFFFFFFFFFFF DUP3 PUSH1 0x1 SHL SWAP3 PUSH1 0x3 SHL SHR NOT AND OR PUSH1 0x9 DUP3 ADD SSTORE JUMPDEST TIMESTAMP PUSH1 0x6 DUP3 ADD SSTORE PUSH1 0x1 DUP2 ADD SLOAD PUSH1 0x0 MSTORE PUSH1 0xA PUSH1 0x20 MSTORE PUSH1 0xD PUSH1 0x40 PUSH1 0x0 KECCAK256 DUP4 PUSH1 0x2 DUP5 ADD SLOAD AND DUP1 DUP6 DUP8 AND EQ PUSH1 0x0 EQ PUSH2 0x57C JUMPI POP DUP2 DUP2 ADD DUP5 PUSH1 0x2 DUP6 ADD SLOAD AND PUSH1 0x0 MSTORE DUP1 PUSH1 0x20 MSTORE PUSH1 0x40 PUSH1 0x0 KECCAK256 PUSH2 0x48E DUP2 SLOAD PUSH2 0x3788 JUMP JUMPDEST SWAP1 SSTORE DUP5 PUSH1 0x3 DUP6 ADD SLOAD AND PUSH1 0x0 MSTORE PUSH1 0x20 MSTORE PUSH1 0x1 PUSH1 0x40 PUSH1 0x0 KECCAK256 ADD PUSH2 0x4AF DUP2 SLOAD PUSH2 0x3788 JUMP JUMPDEST SWAP1 SSTORE JUMPDEST ADD DUP3 PUSH1 0x2 DUP4 ADD SLOAD AND PUSH1 0x0 MSTORE DUP1 PUSH1 0x20 MSTORE PUSH1 0x3 PUSH1 0x40 PUSH1 0x0 KECCAK256 ADD PUSH2 0x4D6 PUSH1 0x44 CALLDATALOAD DUP3 SLOAD PUSH2 0x37B5 JUMP JUMPDEST SWAP1 SSTORE DUP3 PUSH1 0x2 PUSH1 0x3 DUP5 ADD SWAP4 DUP3 DUP6 SLOAD AND PUSH1 0x0 MSTORE DUP4 PUSH1 0x20 MSTORE PUSH1 0x3 PUSH1 0x40 PUSH1 0x0 KECCAK256 ADD PUSH2 0x500 PUSH1 0x64 CALLDATALOAD DUP3 SLOAD PUSH2 0x37B5 JUMP JUMPDEST SWAP1 SSTORE ADD SLOAD AND PUSH1 0x0 MSTORE PUSH1 0x20 MSTORE TIMESTAMP PUSH1 0x6 PUSH1 0x40 PUSH1 0x0 KECCAK256 ADD SSTORE SLOAD AND PUSH1 0x0 MSTORE TIMESTAMP PUSH1 0x6 PUSH1 0x40 PUSH1 0x0 KECCAK256 ADD SSTORE PUSH20 0xFFFFFFFFFFFFFFFFFFFFFFFFFFFFFFFFFFFFFFFF PUSH1 0x40 MLOAD SWAP2 PUSH1 0x44 CALLDATALOAD DUP4 MSTORE PUSH1 0x64 CALLDATALOAD PUSH1 0x20 DUP5 ADD MSTORE TIMESTAMP PUSH1 0x40 DUP5 ADD MSTORE AND SWAP1 PUSH32 0x17C8524EFA0C839450A898ABB8C8E0223F3C38F7995B61E189ED38344772A491 PUSH1 0x60 PUSH1 0x4 CALLDATALOAD SWAP3 LOG3 STOP JUMPDEST PUSH1 0x3 DUP5 ADD SWAP1 DUP6 DUP3 SLOAD AND DUP7 DUP9 AND EQ PUSH1 0x0 EQ PUSH2 0x5D6 JUMPI POP DUP5 DUP4 DUP4 ADD SWAP2 SLOAD AND PUSH1 0x0 MSTORE DUP1 PUSH1 0x20 MSTORE PUSH1 0x40 PUSH1 0x0 KECCAK256 PUSH2 0x5AE DUP2 SLOAD PUSH2 0x3788 JUMP JUMPDEST SWAP1 SSTORE DUP5 PUSH1 0x2 DUP6 ADD SLOAD AND PUSH1 0x0 MSTORE PUSH1 0x20 MSTORE PUSH1 0x1 PUSH1 0x40 PUSH1 0x0 KECCAK256 ADD PUSH2 0x5CF DUP2 SLOAD PUSH2 0x3788 JUMP JUMPDEST SWAP1 SSTORE PUSH2 0x4B2 JUMP JUMPDEST SWAP1 DUP6 SWAP1 DUP5 DUP5 ADD SWAP3 PUSH1 0x0 MSTORE DUP3 PUSH1 0x20 MSTORE PUSH1 0x2 PUSH1 0x40 PUSH1 0x0 KECCAK256 ADD PUSH2 0x5F6 DUP2 SLOAD PUSH2 0x3788 JUMP JUMPDEST SWAP1 SSTORE SLOAD AND PUSH1 0x0 MSTORE PUSH1 0x20 MSTORE PUSH1 0x2 PUSH1 0x40 PUSH1 0x0 KECCAK256 ADD PUSH2 0x5CF DUP2 SLOAD PUSH2 0x3788 JUMP JUMPDEST ADD MLOAD SWAP1 POP DUP6 DUP1 PUSH2 0x40B JUMP JUMPDEST SWAP1 PUSH1 0x9 DUP5 ADD PUSH1 0x0 MSTORE PUSH1 0x20 PUSH1 0x0 KECCAK256 SWAP2 PUSH1 0x0 JUMPDEST PUSH32 0xFFFFFFFFFFFFFFFFFFFFFFFFFFFFFFFFFFFFFFFFFFFFFFFFFFFFFFFFFFFFFFE0 DUP6 AND DUP2 LT PUSH2 0x6E5 JUMPI POP SWAP2 DUP4 SWAP2 PUSH1 0x1 SWAP4 DUP4 PUSH32 0xFFFFFFFFFFFFFFFFFFFFFFFFFFFFFFFFFFFFFFFFFFFFFFFFFFFFFFFFFFFFFFE0 PUSH20 0xFFFFFFFFFFFFFFFFFFFFFFFFFFFFFFFFFFFFFFFF SWAP9 SWAP8 AND LT PUSH2 0x6AE JUMPI JUMPDEST POP POP POP DUP2 SHL ADD PUSH1 0x9 DUP3 ADD SSTORE PUSH2 0x440 JUMP JUMPDEST ADD MLOAD PUSH32 0xFFFFFFFFFFFFFFFFFFFFFFFFFFFFFFFFFFFFFFFFFFFFFFFFFFFFFFFFFFFFFFFF PUSH1 0xF8 DUP5 PUSH1 0x3 SHL AND SHR NOT AND SWAP1 SSTORE DUP6 DUP1 DUP1 PUSH2 0x69E JUMP JUMPDEST SWAP2 SWAP3 PUSH1 0x20 PUSH1 0x1 DUP2 SWAP3 DUP7 DUP6 ADD MLOAD DUP2 SSTORE ADD SWAP5 ADD SWAP3 ADD PUSH2 0x62E JUMP JUMPDEST PUSH1 0x9 DUP5 ADD PUSH1 0x0 MSTORE PUSH1 0x20 PUSH1 0x0 KECCAK256 PUSH1 0x1F DUP5 ADD PUSH1 0x5 SHR DUP2 ADD SWAP2 PUSH1 0x20 DUP6 LT PUSH2 0x73E JUMPI JUMPDEST PUSH1 0x1F ADD PUSH1 0x5 SHR ADD SWAP1 JUMPDEST DUP2 DUP2 LT PUSH2 0x732 JUMPI POP PUSH2 0x3DB JUMP JUMPDEST PUSH1 0x0 DUP2 SSTORE PUSH1 0x1 ADD PUSH2 0x725 JUMP JUMPDEST SWAP1 SWAP2 POP DUP2 SWAP1 PUSH2 0x71C JUMP JUMPDEST PUSH32 0x4E487B7100000000000000000000000000000000000000000000000000000000 PUSH1 0x0 MSTORE PUSH1 0x41 PUSH1 0x4 MSTORE PUSH1 0x24 PUSH1 0x0 REVERT JUMPDEST PUSH1 0x64 PUSH1 0x40 MLOAD PUSH32 0x8C379A000000000000000000000000000000000000000000000000000000000 DUP2 MSTORE PUSH1 0x20 PUSH1 0x4 DUP3 ADD MSTORE PUSH1 0xE PUSH1 0x24 DUP3 ADD MSTORE PUSH32 0x496E76616C69642077696E6E6572000000000000000000000000000000000000 PUSH1 0x44 DUP3 ADD MSTORE REVERT JUMPDEST POP PUSH20 0xFFFFFFFFFFFFFFFFFFFFFFFFFFFFFFFFFFFFFFFF DUP7 AND ISZERO PUSH2 0x354 JUMP JUMPDEST POP PUSH20 0xFFFFFFFFFFFFFFFFFFFFFFFFFFFFFFFFFFFFFFFF PUSH1 0x3 DUP7 ADD SLOAD AND PUSH20 0xFFFFFFFFFFFFFFFFFFFFFFFFFFFFFFFFFFFFFFFF DUP8 AND EQ PUSH2 0x34D JUMP JUMPDEST PUSH1 0x64 PUSH1 0x40 MLOAD PUSH32 0x8C379A000000000000000000000000000000000000000000000000000000000 DUP2 MSTORE PUSH1 0x20 PUSH1 0x4 DUP3 ADD MSTORE PUSH1 0x10 PUSH1 0x24 DUP3 ADD MSTORE PUSH32 0x4D61746368206E6F742061637469766500000000000000000000000000000000 PUSH1 0x44 DUP3 ADD MSTORE REVERT JUMPDEST PUSH1 0x1 SWAP2 POP EQ DUP8 PUSH2 0x30D JUMP JUMPDEST PUSH32 0x4E487B7100000000000000000000000000000000000000000000000000000000 PUSH1 0x0 MSTORE PUSH1 0x21 PUSH1 0x4 MSTORE PUSH1 0x24 PUSH1 0x0 REVERT JUMPDEST PUSH1 0x64 PUSH1 0x40 MLOAD PUSH32 0x8C379A000000000000000000000000000000000000000000000000000000000 DUP2 MSTORE PUSH1 0x20 PUSH1 0x4 DUP3 ADD MSTORE PUSH1 0x14 PUSH1 0x24 DUP3 ADD MSTORE PUSH32 0x4D6174636820646F6573206E6F74206578697374000000000000000000000000 PUSH1 0x44 DUP3 ADD MSTORE REVERT JUMPDEST CALLVALUE PUSH2 0x267 JUMPI PUSH1 0x0 PUSH32 0xFFFFFFFFFFFFFFFFFFFFFFFFFFFFFFFFFFFFFFFFFFFFFFFFFFFFFFFFFFFFFFFC CALLDATASIZE ADD SLT PUSH2 0x267 JUMPI PUSH1 0x20 PUSH1 0x40 MLOAD PUSH2 0xE10 DUP2 MSTORE RETURN JUMPDEST CALLVALUE PUSH2 0x267 JUMPI PUSH1 0x40 PUSH32 0xFFFFFFFFFFFFFFFFFFFFFFFFFFFFFFFFFFFFFFFFFFFFFFFFFFFFFFFFFFFFFFFC CALLDATASIZE ADD SLT PUSH2 0x267 JUMPI PUSH2 0x994 PUSH2 0x3202 JUMP JUMPDEST PUSH20 0xFFFFFFFFFFFFFFFFFFFFFFFFFFFFFFFFFFFFFFFF PUSH1 0x24 CALLDATALOAD SWAP2 AND PUSH1 0x0 MSTORE PUSH1 0xC PUSH1 0x20 MSTORE PUSH1 0x40 PUSH1 0x0 KECCAK256 DUP1 SLOAD DUP3 LT ISZERO PUSH2 0x267 JUMPI PUSH1 0x20 SWAP2 PUSH2 0x9D0 SWAP2 PUSH2 0x3405 JUMP JUMPDEST SWAP1 SLOAD PUSH1 0x40 MLOAD SWAP2 PUSH1 0x3 SHL SHR DUP2 MSTORE RETURN JUMPDEST CALLVALUE PUSH2 0x267 JUMPI PUSH1 0x40 PUSH32 0xFFFFFFFFFFFFFFFFFFFFFFFFFFFFFFFFFFFFFFFFFFFFFFFFFFFFFFFFFFFFFFFC CALLDATASIZE ADD SLT PUSH2 0x267 JUMPI PUSH2 0xA3B PUSH1 0x4 CALLDATALOAD PUSH2 0xA1B PUSH2 0x31DF JUMP JUMPDEST SWAP1 DUP1 PUSH1 0x0 MSTORE PUSH1 0x0 PUSH1 0x20 MSTORE PUSH2 0xA36 PUSH1 0x1 PUSH1 0x40 PUSH1 0x0 KECCAK256 ADD SLOAD PUSH2 0x3617 JUMP JUMPDEST PUSH2 0x36E7 JUMP JUMPDEST STOP JUMPDEST CALLVALUE PUSH2 0x267 JUMPI PUSH1 0x20 PUSH32 0xFFFFFFFFFFFFFFFFFFFFFFFFFFFFFFFFFFFFFFFFFFFFFFFFFFFFFFFFFFFFFFFC CALLDATASIZE ADD SLT PUSH2 0x267 JUMPI PUSH1 0x4 CALLDATALOAD PUSH2 0xA77 PUSH2 0x3581 JUMP JUMPDEST PUSH2 0xA84 PUSH1 0x32 DUP3 GT ISZERO PUSH2 0x3CEE JUMP JUMPDEST PUSH1 0xE SSTORE STOP JUMPDEST CALLVALUE PUSH2 0x267 JUMPI PUSH1 0x0 PUSH32 0xFFFFFFFFFFFFFFFFFFFFFFFFFFFFFFFFFFFFFFFFFFFFFFFFFFFFFFFFFFFFFFFC CALLDATASIZE ADD SLT PUSH2 0x267 JUMPI PUSH1 0x20 PUSH1 0x40 MLOAD PUSH1 0x0 DUP2 MSTORE RETURN JUMPDEST CALLVALUE PUSH2 0x267 JUMPI PUSH1 0x40 PUSH32 0xFFFFFFFFFFFFFFFFFFFFFFFFFFFFFFFFFFFFFFFFFFFFFFFFFFFFFFFFFFFFFFFC CALLDATASIZE ADD SLT PUSH2 0x267 JUMPI PUSH2 0xAFA PUSH2 0x31DF JUMP JUMPDEST PUSH1 0x4 CALLDATALOAD PUSH1 0x0 MSTORE PUSH1 0x0 PUSH1 0x20 MSTORE PUSH20 0xFFFFFFFFFFFFFFFFFFFFFFFFFFFFFFFFFFFFFFFF PUSH1 0x40 PUSH1 0x0 KECCAK256 SWAP2 AND PUSH1 0x0 MSTORE PUSH1 0x20 MSTORE PUSH1 0x20 PUSH1 0xFF PUSH1 0x40 PUSH1 0x0 KECCAK256 SLOAD AND PUSH1 0x40 MLOAD SWAP1 ISZERO ISZERO DUP2 MSTORE RETURN JUMPDEST CALLVALUE PUSH2 0x267 JUMPI PUSH1 0x0 PUSH32 0xFFFFFFFFFFFFFFFFFFFFFFFFFFFFFFFFFFFFFFFFFFFFFFFFFFFFFFFFFFFFFFFC CALLDATASIZE ADD SLT PUSH2 0x267 JUMPI PUSH2 0xB73 PUSH2 0x3492 JUMP JUMPDEST PUSH2 0xB7B PUSH2 0x37C2 JUMP JUMPDEST PUSH1 0x1 PUSH32 0xFFFFFFFFFFFFFFFFFFFFFFFFFFFFFFFFFFFFFFFFFFFFFFFFFFFFFFFFFFFFFF00 PUSH1 0x2 SLOAD AND OR PUSH1 0x2 SSTORE PUSH32 0x62E78CEA01BEE320CD4E420270B5EA74000D11B0C9F74754EBDBFC544B05A258 PUSH1 0x20 PUSH1 0x40 MLOAD CALLER DUP2 MSTORE LOG1 STOP JUMPDEST CALLVALUE PUSH2 0x267 JUMPI PUSH1 0x20 PUSH32 0xFFFFFFFFFFFFFFFFFFFFFFFFFFFFFFFFFFFFFFFFFFFFFFFFFFFFFFFFFFFFFFFC CALLDATASIZE ADD SLT PUSH2 0x267 JUMPI PUSH1 0x4 CALLDATALOAD PUSH1 0x0 MSTORE PUSH1 0xA PUSH1 0x20 MSTORE PUSH1 0x40 PUSH1 0x0 KECCAK256 DUP1 SLOAD PUSH2 0xC89 PUSH2 0xC22 PUSH1 0x1 DUP5 ADD PUSH2 0x3340 JUMP JUMPDEST SWAP2 PUSH2 0xC2F PUSH1 0x2 DUP6 ADD PUSH2 0x3340 JUMP JUMPDEST SWAP4 PUSH1 0x3 DUP2 ADD SLOAD PUSH1 0x4 DUP3 ADD SLOAD PUSH1 0x5 DUP4 ADD SLOAD PUSH1 0x6 DUP5 ADD SLOAD SWAP1 PUSH1 0x7 DUP6 ADD SLOAD SWAP3 PUSH1 0x8 DUP7 ADD SLOAD SWAP5 PUSH20 0xFFFFFFFFFFFFFFFFFFFFFFFFFFFFFFFFFFFFFFFF PUSH1 0xA PUSH1 0x9 DUP10 ADD SLOAD SWAP9 ADD SLOAD AND SWAP8 PUSH1 0x40 MLOAD SWAP12 DUP13 SWAP12 PUSH1 0xFF DUP1 DUP6 PUSH1 0x8 SHR AND SWAP5 AND SWAP3 DUP14 PUSH2 0x314A JUMP JUMPDEST SUB SWAP1 RETURN JUMPDEST CALLVALUE PUSH2 0x267 JUMPI PUSH1 0xE0 PUSH32 0xFFFFFFFFFFFFFFFFFFFFFFFFFFFFFFFFFFFFFFFFFFFFFFFFFFFFFFFFFFFFFFFC CALLDATASIZE ADD SLT PUSH2 0x267 JUMPI PUSH1 0x4 CALLDATALOAD PUSH8 0xFFFFFFFFFFFFFFFF DUP2 GT PUSH2 0x267 JUMPI PUSH2 0xCDC SWAP1 CALLDATASIZE SWAP1 PUSH1 0x4 ADD PUSH2 0x341D JUMP JUMPDEST PUSH1 0x24 CALLDATALOAD PUSH8 0xFFFFFFFFFFFFFFFF DUP2 GT PUSH2 0x267 JUMPI PUSH2 0xCFC SWAP1 CALLDATASIZE SWAP1 PUSH1 0x4 ADD PUSH2 0x341D JUMP JUMPDEST PUSH1 0x44 SWAP2 PUSH1 0x5 DUP4 CALLDATALOAD LT ISZERO PUSH2 0x267 JUMPI PUSH2 0xD11 PUSH2 0x35BB JUMP JUMPDEST PUSH2 0xD19 PUSH2 0x37C2 JUMP JUMPDEST DUP1 MLOAD ISZERO PUSH2 0x1390 JUMPI PUSH1 0x4 PUSH1 0x84 CALLDATALOAD LT PUSH2 0x1332 JUMPI PUSH2 0x400 PUSH1 0x84 CALLDATALOAD GT PUSH2 0x12D4 JUMPI TIMESTAMP PUSH1 0xA4 CALLDATALOAD GT ISZERO PUSH2 0x1276 JUMPI PUSH2 0xE10 PUSH1 0xC4 CALLDATALOAD LT PUSH2 0x1218 JUMPI PUSH3 0x93A80 PUSH1 0xC4 CALLDATALOAD GT PUSH2 0x11BA JUMPI PUSH2 0xD61 PUSH1 0x5 SLOAD PUSH2 0x3788 JUMP JUMPDEST SWAP2 DUP3 PUSH1 0x5 SSTORE DUP3 PUSH1 0x0 MSTORE PUSH1 0xA PUSH1 0x20 MSTORE PUSH1 0x40 PUSH1 0x0 KECCAK256 SWAP1 DUP4 DUP3 SSTORE DUP3 MLOAD PUSH8 0xFFFFFFFFFFFFFFFF DUP2 GT PUSH2 0x748 JUMPI PUSH2 0xD96 PUSH1 0x1 DUP5 ADD SLOAD PUSH2 0x32AC JUMP JUMPDEST PUSH1 0x1F DUP2 GT PUSH2 0x1173 JUMPI JUMPDEST POP DUP1 PUSH1 0x20 PUSH1 0x1F DUP3 GT PUSH1 0x1 EQ PUSH2 0x10AC JUMPI PUSH1 0x0 SWAP2 PUSH2 0x10A1 JUMPI JUMPDEST POP PUSH32 0xFFFFFFFFFFFFFFFFFFFFFFFFFFFFFFFFFFFFFFFFFFFFFFFFFFFFFFFFFFFFFFFF DUP3 PUSH1 0x1 SHL SWAP3 PUSH1 0x3 SHL SHR NOT AND OR PUSH1 0x1 DUP4 ADD SSTORE JUMPDEST DUP1 MLOAD SWAP1 PUSH8 0xFFFFFFFFFFFFFFFF DUP3 GT PUSH2 0x748 JUMPI PUSH2 0xE09 PUSH1 0x2 DUP5 ADD SLOAD PUSH2 0x32AC JUMP JUMPDEST PUSH1 0x1F DUP2 GT PUSH2 0x105A JUMPI JUMPDEST POP PUSH1 0x20 SWAP1 PUSH1 0x1F DUP4 GT PUSH1 0x1 EQ PUSH2 0xF6D JUMPI PUSH32 0x6CEE9B141362BEF0916B96422A6C7E1D7DC5F2FFFEDB1A309647BDBDE576AB26 SWAP5 SWAP4 SWAP3 SWAP2 PUSH1 0x0 SWAP2 DUP4 PUSH2 0xF62 JUMPI JUMPDEST POP POP PUSH32 0xFFFFFFFFFFFFFFFFFFFFFFFFFFFFFFFFFFFFFFFFFFFFFFFFFFFFFFFFFFFFFFFF DUP3 PUSH1 0x1 SHL SWAP3 PUSH1 0x3 SHL SHR NOT AND OR PUSH1 0x2 DUP3 ADD SSTORE JUMPDEST PUSH1 0x3 DUP2 ADD DUP1 SLOAD PUSH32 0xFFFFFFFFFFFFFFFFFFFFFFFFFFFFFFFFFFFFFFFFFFFFFFFFFFFFFFFFFFFF0000 PUSH1 0xFF DUP9 CALLDATALOAD AND SWAP2 AND OR SWAP1 SSTORE PUSH1 0xA PUSH1 0x64 CALLDATALOAD SWAP2 DUP3 PUSH1 0x4 DUP3 ADD SSTORE PUSH1 0x0 PUSH1 0x5 DUP3 ADD SSTORE PUSH1 0x84 CALLDATALOAD PUSH1 0x6 DUP3 ADD SSTORE PUSH1 0x0 PUSH1 0x7 DUP3 ADD SSTORE PUSH1 0xA4 CALLDATALOAD PUSH1 0x8 DUP3 ADD SSTORE PUSH2 0xEED PUSH1 0xC4 CALLDATALOAD PUSH1 0xA4 CALLDATALOAD PUSH2 0x37B5 JUMP JUMPDEST PUSH1 0x9 DUP3 ADD SSTORE ADD CALLER PUSH32 0xFFFFFFFFFFFFFFFFFFFFFFFF0000000000000000000000000000000000000000 DUP3 SLOAD AND OR SWAP1 SSTORE PUSH2 0xF26 PUSH1 0x7 SLOAD PUSH2 0x3788 JUMP JUMPDEST PUSH1 0x7 SSTORE PUSH2 0xF4D PUSH2 0xF41 PUSH1 0x40 MLOAD SWAP4 PUSH1 0x80 DUP6 MSTORE PUSH1 0x80 DUP6 ADD SWAP1 PUSH2 0x30DF JUMP JUMPDEST SWAP6 PUSH1 0x20 DUP5 ADD SWAP1 CALLDATALOAD PUSH2 0x313D JUMP JUMPDEST PUSH1 0x40 DUP3 ADD MSTORE PUSH1 0x84 CALLDATALOAD PUSH1 0x60 DUP3 ADD MSTORE DUP1 CALLER SWAP5 SUB SWAP1 LOG3 STOP JUMPDEST ADD MLOAD SWAP1 POP DUP8 DUP1 PUSH2 0xE4F JUMP JUMPDEST SWAP1 PUSH1 0x2 DUP5 ADD PUSH1 0x0 MSTORE PUSH1 0x20 PUSH1 0x0 KECCAK256 SWAP2 PUSH1 0x0 JUMPDEST PUSH32 0xFFFFFFFFFFFFFFFFFFFFFFFFFFFFFFFFFFFFFFFFFFFFFFFFFFFFFFFFFFFFFFE0 DUP6 AND DUP2 LT PUSH2 0x1042 JUMPI POP SWAP2 DUP4 SWAP2 PUSH1 0x1 SWAP4 DUP4 PUSH32 0xFFFFFFFFFFFFFFFFFFFFFFFFFFFFFFFFFFFFFFFFFFFFFFFFFFFFFFFFFFFFFFE0 PUSH32 0x6CEE9B141362BEF0916B96422A6C7E1D7DC5F2FFFEDB1A309647BDBDE576AB26 SWAP10 SWAP9 SWAP8 AND LT PUSH2 0x100B JUMPI JUMPDEST POP POP POP DUP2 SHL ADD PUSH1 0x2 DUP3 ADD SSTORE PUSH2 0xE84 JUMP JUMPDEST ADD MLOAD PUSH32 0xFFFFFFFFFFFFFFFFFFFFFFFFFFFFFFFFFFFFFFFFFFFFFFFFFFFFFFFFFFFFFFFF PUSH1 0xF8 DUP5 PUSH1 0x3 SHL AND SHR NOT AND SWAP1 SSTORE DUP8 DUP1 DUP1 PUSH2 0xFFB JUMP JUMPDEST SWAP2 SWAP3 PUSH1 0x20 PUSH1 0x1 DUP2 SWAP3 DUP7 DUP6 ADD MLOAD DUP2 SSTORE ADD SWAP5 ADD SWAP3 ADD PUSH2 0xF7E JUMP JUMPDEST PUSH1 0x2 DUP5 ADD PUSH1 0x0 MSTORE PUSH1 0x20 PUSH1 0x0 KECCAK256 PUSH1 0x1F DUP5 ADD PUSH1 0x5 SHR DUP2 ADD PUSH1 0x20 DUP6 LT PUSH2 0x109A JUMPI JUMPDEST PUSH1 0x1F DUP4 ADD PUSH1 0x5 SHR DUP3 ADD DUP2 LT PUSH2 0x108E JUMPI POP POP PUSH2 0xE12 JUMP JUMPDEST PUSH1 0x0 DUP2 SSTORE PUSH1 0x1 ADD PUSH2 0x1078 JUMP JUMPDEST POP DUP1 PUSH2 0x1078 JUMP JUMPDEST SWAP1 POP DUP5 ADD MLOAD DUP8 PUSH2 0xDB6 JUMP JUMPDEST SWAP2 POP PUSH1 0x1 DUP5 ADD PUSH1 0x0 MSTORE PUSH1 0x20 PUSH1 0x0 KECCAK256 PUSH1 0x0 SWAP3 JUMPDEST PUSH32 0xFFFFFFFFFFFFFFFFFFFFFFFFFFFFFFFFFFFFFFFFFFFFFFFFFFFFFFFFFFFFFFE0 DUP4 AND DUP5 LT PUSH2 0x115B JUMPI PUSH1 0x1 SWAP4 POP DUP3 PUSH32 0xFFFFFFFFFFFFFFFFFFFFFFFFFFFFFFFFFFFFFFFFFFFFFFFFFFFFFFFFFFFFFFE0 DUP2 AND LT PUSH2 0x1124 JUMPI JUMPDEST POP POP DUP2 SHL ADD PUSH1 0x1 DUP4 ADD SSTORE PUSH2 0xDEA JUMP JUMPDEST DUP7 ADD MLOAD PUSH32 0xFFFFFFFFFFFFFFFFFFFFFFFFFFFFFFFFFFFFFFFFFFFFFFFFFFFFFFFFFFFFFFFF PUSH1 0xF8 DUP5 PUSH1 0x3 SHL AND SHR NOT AND SWAP1 SSTORE DUP8 DUP1 PUSH2 0x1115 JUMP JUMPDEST DUP7 DUP2 ADD MLOAD DUP3 SSTORE PUSH1 0x20 SWAP4 DUP5 ADD SWAP4 PUSH1 0x1 SWAP1 SWAP3 ADD SWAP2 ADD PUSH2 0x10BE JUMP JUMPDEST PUSH1 0x1 DUP5 ADD PUSH1 0x0 MSTORE PUSH1 0x20 PUSH1 0x0 KECCAK256 PUSH1 0x1F DUP4 ADD PUSH1 0x5 SHR DUP2 ADD PUSH1 0x20 DUP5 LT PUSH2 0x11B3 JUMPI JUMPDEST PUSH1 0x1F DUP4 ADD PUSH1 0x5 SHR DUP3 ADD DUP2 LT PUSH2 0x11A7 JUMPI POP POP PUSH2 0xD9F JUMP JUMPDEST PUSH1 0x0 DUP2 SSTORE PUSH1 0x1 ADD PUSH2 0x1191 JUMP JUMPDEST POP DUP1 PUSH2 0x1191 JUMP JUMPDEST PUSH1 0x64 DUP4 PUSH32 0x4475726174696F6E20746F6F206C6F6E67000000000000000000000000000000 PUSH1 0x40 MLOAD SWAP2 PUSH32 0x8C379A000000000000000000000000000000000000000000000000000000000 DUP4 MSTORE PUSH1 0x20 PUSH1 0x4 DUP5 ADD MSTORE PUSH1 0x11 PUSH1 0x24 DUP5 ADD MSTORE DUP3 ADD MSTORE REVERT JUMPDEST PUSH1 0x64 DUP4 PUSH32 0x4475726174696F6E20746F6F2073686F72740000000000000000000000000000 PUSH1 0x40 MLOAD SWAP2 PUSH32 0x8C379A000000000000000000000000000000000000000000000000000000000 DUP4 MSTORE PUSH1 0x20 PUSH1 0x4 DUP5 ADD MSTORE PUSH1 0x12 PUSH1 0x24 DUP5 ADD MSTORE DUP3 ADD MSTORE REVERT JUMPDEST PUSH1 0x64 DUP4 PUSH32 0x53746172742074696D65206D75737420626520696E2066757475726500000000 PUSH1 0x40 MLOAD SWAP2 PUSH32 0x8C379A000000000000000000000000000000000000000000000000000000000 DUP4 MSTORE PUSH1 0x20 PUSH1 0x4 DUP5 ADD MSTORE PUSH1 0x1C PUSH1 0x24 DUP5 ADD MSTORE DUP3 ADD MSTORE REVERT JUMPDEST PUSH1 0x64 DUP4 PUSH32 0x546F6F206D616E7920706C617965727300000000000000000000000000000000 PUSH1 0x40 MLOAD SWAP2 PUSH32 0x8C379A000000000000000000000000000000000000000000000000000000000 DUP4 MSTORE PUSH1 0x20 PUSH1 0x4 DUP5 ADD MSTORE PUSH1 0x10 PUSH1 0x24 DUP5 ADD MSTORE DUP3 ADD MSTORE REVERT JUMPDEST PUSH1 0x64 DUP4 PUSH32 0x546F6F2066657720706C61796572730000000000000000000000000000000000 PUSH1 0x40 MLOAD SWAP2 PUSH32 0x8C379A000000000000000000000000000000000000000000000000000000000 DUP4 MSTORE PUSH1 0x20 PUSH1 0x4 DUP5 ADD MSTORE PUSH1 0xF PUSH1 0x24 DUP5 ADD MSTORE DUP3 ADD MSTORE REVERT JUMPDEST PUSH1 0x64 DUP4 PUSH32 0x546F75726E616D656E74206E616D652072657175697265640000000000000000 PUSH1 0x40 MLOAD SWAP2 PUSH32 0x8C379A000000000000000000000000000000000000000000000000000000000 DUP4 MSTORE PUSH1 0x20 PUSH1 0x4 DUP5 ADD MSTORE PUSH1 0x18 PUSH1 0x24 DUP5 ADD MSTORE DUP3 ADD MSTORE REVERT JUMPDEST CALLVALUE PUSH2 0x267 JUMPI PUSH1 0x0 PUSH32 0xFFFFFFFFFFFFFFFFFFFFFFFFFFFFFFFFFFFFFFFFFFFFFFFFFFFFFFFFFFFFFFFC CALLDATASIZE ADD SLT PUSH2 0x267 JUMPI PUSH1 0x20 PUSH1 0x5 SLOAD PUSH1 0x40 MLOAD SWAP1 DUP2 MSTORE RETURN JUMPDEST CALLVALUE PUSH2 0x267 JUMPI PUSH1 0x0 PUSH32 0xFFFFFFFFFFFFFFFFFFFFFFFFFFFFFFFFFFFFFFFFFFFFFFFFFFFFFFFFFFFFFFFC CALLDATASIZE ADD SLT PUSH2 0x267 JUMPI PUSH1 0x20 PUSH1 0x40 MLOAD PUSH3 0x93A80 DUP2 MSTORE RETURN JUMPDEST CALLVALUE PUSH2 0x267 JUMPI PUSH1 0x0 PUSH32 0xFFFFFFFFFFFFFFFFFFFFFFFFFFFFFFFFFFFFFFFFFFFFFFFFFFFFFFFFFFFFFFFC CALLDATASIZE ADD SLT PUSH2 0x267 JUMPI PUSH1 0x20 PUSH20 0xFFFFFFFFFFFFFFFFFFFFFFFFFFFFFFFFFFFFFFFF PUSH1 0x3 SLOAD AND PUSH1 0x40 MLOAD SWAP1 DUP2 MSTORE RETURN JUMPDEST CALLVALUE PUSH2 0x267 JUMPI PUSH1 0x40 PUSH32 0xFFFFFFFFFFFFFFFFFFFFFFFFFFFFFFFFFFFFFFFFFFFFFFFFFFFFFFFFFFFFFFFC CALLDATASIZE ADD SLT PUSH2 0x267 JUMPI PUSH2 0x14EF PUSH2 0x31DF JUMP JUMPDEST PUSH1 0x4 CALLDATALOAD PUSH1 0x0 MSTORE PUSH1 0xA PUSH1 0x20 MSTORE PUSH20 0xFFFFFFFFFFFFFFFFFFFFFFFFFFFFFFFFFFFFFFFF PUSH1 0xD PUSH1 0x40 PUSH1 0x0 KECCAK256 ADD SWAP2 AND PUSH1 0x0 MSTORE PUSH1 0x20 MSTORE PUSH1 0xE0 PUSH1 0x40 PUSH1 0x0 KECCAK256 DUP1 SLOAD SWAP1 PUSH1 0x1 DUP2 ADD SLOAD SWAP1 PUSH1 0x2 DUP2 ADD SLOAD PUSH1 0x3 DUP3 ADD SLOAD PUSH1 0x4 DUP4 ADD SLOAD SWAP2 PUSH1 0x6 PUSH1 0xFF PUSH1 0x5 DUP7 ADD SLOAD AND SWAP5 ADD SLOAD SWAP5 PUSH1 0x40 MLOAD SWAP7 DUP8 MSTORE PUSH1 0x20 DUP8 ADD MSTORE PUSH1 0x40 DUP7 ADD MSTORE PUSH1 0x60 DUP6 ADD MSTORE PUSH1 0x80 DUP5 ADD MSTORE ISZERO ISZERO PUSH1 0xA0 DUP4 ADD MSTORE PUSH1 0xC0 DUP3 ADD MSTORE RETURN JUMPDEST CALLVALUE PUSH2 0x267 JUMPI PUSH1 0x0 PUSH32 0xFFFFFFFFFFFFFFFFFFFFFFFFFFFFFFFFFFFFFFFFFFFFFFFFFFFFFFFFFFFFFFFC CALLDATASIZE ADD SLT PUSH2 0x267 JUMPI PUSH1 0x20 PUSH1 0x40 MLOAD PUSH1 0x4 DUP2 MSTORE RETURN JUMPDEST CALLVALUE PUSH2 0x267 JUMPI PUSH1 0x20 PUSH32 0xFFFFFFFFFFFFFFFFFFFFFFFFFFFFFFFFFFFFFFFFFFFFFFFFFFFFFFFFFFFFFFFC CALLDATASIZE ADD SLT PUSH2 0x267 JUMPI PUSH2 0x15E6 PUSH2 0x35BB JUMP JUMPDEST PUSH2 0x15EE PUSH2 0x37C2 JUMP JUMPDEST PUSH1 0x4 CALLDATALOAD PUSH1 0x0 MSTORE PUSH1 0xA PUSH1 0x20 MSTORE PUSH1 0x40 PUSH1 0x0 KECCAK256 PUSH2 0x160A DUP2 SLOAD ISZERO ISZERO PUSH2 0x37F8 JUMP JUMPDEST PUSH1 0x3 DUP2 ADD DUP1 SLOAD PUSH1 0xFF DUP2 PUSH1 0x8 SHR AND PUSH1 0x6 DUP2 LT ISZERO PUSH2 0x895 JUMPI PUSH2 0x1BA5 JUMPI PUSH1 0x4 PUSH1 0x7 DUP5 ADD SLOAD LT PUSH2 0x1B47 JUMPI PUSH1 0x8 DUP4 ADD SLOAD TIMESTAMP LT PUSH2 0x1AE9 JUMPI PUSH32 0xFFFFFFFFFFFFFFFFFFFFFFFFFFFFFFFFFFFFFFFFFFFFFFFFFFFFFFFFFFFF00FF PUSH2 0x300 SWAP2 AND OR SWAP1 SSTORE PUSH1 0x4 CALLDATALOAD PUSH1 0x0 MSTORE PUSH1 0xA PUSH1 0x20 MSTORE PUSH1 0xFF PUSH1 0x3 PUSH1 0x40 PUSH1 0x0 KECCAK256 ADD SLOAD AND PUSH1 0x5 DUP2 LT ISZERO PUSH2 0x895 JUMPI DUP1 PUSH2 0x1918 JUMPI POP PUSH1 0x4 CALLDATALOAD PUSH1 0x0 MSTORE PUSH1 0xA PUSH1 0x20 MSTORE PUSH1 0x40 PUSH1 0x0 KECCAK256 SWAP1 PUSH1 0xB DUP3 ADD SLOAD SWAP2 PUSH1 0x0 JUMPDEST DUP4 DUP2 LT PUSH2 0x16EA JUMPI POP POP PUSH1 0x7 SWAP2 POP JUMPDEST ADD SLOAD PUSH1 0x40 MLOAD SWAP1 TIMESTAMP DUP3 MSTORE PUSH1 0x20 DUP3 ADD MSTORE PUSH32 0x2B4FBC018BE75E6FF98B219698828856CE311122193B11596150E17268E2EE31 PUSH1 0x40 PUSH1 0x4 CALLDATALOAD SWAP3 LOG2 STOP JUMPDEST PUSH1 0x1 DUP2 ADD DUP2 GT PUSH2 0x1765 JUMPI DUP4 PUSH1 0x1 DUP3 ADD LT PUSH1 0x0 EQ PUSH2 0x1794 JUMPI PUSH2 0x1758 PUSH2 0x1711 DUP3 PUSH1 0xB DUP6 ADD PUSH2 0x3405 JUMP JUMPDEST SWAP1 PUSH20 0xFFFFFFFFFFFFFFFFFFFFFFFFFFFFFFFFFFFFFFFF SWAP2 DUP3 SWAP2 SLOAD SWAP1 PUSH1 0x3 SHL SHR AND SWAP1 PUSH2 0x1742 PUSH1 0x1 DUP6 ADD PUSH1 0xB DUP8 ADD PUSH2 0x3405 JUMP JUMPDEST SWAP1 SLOAD SWAP1 PUSH1 0x3 SHL SHR AND PUSH1 0x8 DUP6 ADD SLOAD SWAP2 PUSH1 0x4 CALLDATALOAD PUSH2 0x3931 JUMP JUMPDEST PUSH1 0x2 DUP2 ADD DUP1 SWAP2 GT ISZERO PUSH2 0x16A4 JUMPI JUMPDEST PUSH32 0x4E487B7100000000000000000000000000000000000000000000000000000000 PUSH1 0x0 MSTORE PUSH1 0x11 PUSH1 0x4 MSTORE PUSH1 0x24 PUSH1 0x0 REVERT JUMPDEST PUSH2 0x1905 PUSH2 0x17A2 PUSH1 0x6 SLOAD PUSH2 0x3788 JUMP JUMPDEST DUP1 PUSH1 0x6 SSTORE DUP1 PUSH1 0x0 MSTORE PUSH1 0xB PUSH1 0x20 MSTORE PUSH1 0x40 PUSH1 0x0 KECCAK256 DUP2 DUP2 SSTORE PUSH1 0x4 CALLDATALOAD PUSH1 0x1 DUP3 ADD SSTORE PUSH1 0xA PUSH2 0x17CE DUP6 PUSH1 0xB DUP9 ADD PUSH2 0x3405 JUMP JUMPDEST SWAP3 SWAP1 PUSH20 0xFFFFFFFFFFFFFFFFFFFFFFFFFFFFFFFFFFFFFFFF SWAP4 DUP5 SWAP2 SLOAD SWAP1 PUSH1 0x3 SHL SHR AND PUSH1 0x2 DUP3 ADD PUSH32 0xFFFFFFFFFFFFFFFFFFFFFFFF0000000000000000000000000000000000000000 SWAP2 DUP3 DUP3 SLOAD AND OR SWAP1 SSTORE PUSH1 0x3 DUP3 ADD SWAP1 DUP2 SLOAD AND SWAP1 SSTORE PUSH1 0x4 DUP2 ADD DUP8 DUP2 SLOAD PUSH32 0xFFFFFFFFFFFFFFFFFFFFFF000000000000000000000000000000000000000000 DUP7 PUSH2 0x1899 DUP12 PUSH1 0xB PUSH21 0x20000000000000000000000000000000000000000 SWAP7 DUP8 PUSH32 0xFFFFFFFFFFFFFFFFFFFFFF00FFFFFFFFFFFFFFFFFFFFFFFFFFFFFFFFFFFFFFFF DUP9 AND OR DUP10 SSTORE ADD PUSH2 0x3405 JUMP JUMPDEST SWAP1 SLOAD SWAP1 PUSH1 0x3 SHL SHR AND SWAP2 AND OR OR SWAP1 SSTORE ADD PUSH1 0x1 PUSH32 0xFFFFFFFFFFFFFFFFFFFFFFFFFFFFFFFFFFFFFFFFFFFFFFFFFFFFFFFFFFFFFF00 DUP3 SLOAD AND OR SWAP1 SSTORE PUSH2 0x18DE DUP3 PUSH1 0xC DUP8 ADD PUSH2 0x3875 JUMP JUMPDEST PUSH2 0x18EB DUP5 PUSH1 0xB DUP8 ADD PUSH2 0x3405 JUMP JUMPDEST SWAP1 SLOAD SWAP1 PUSH1 0x3 SHL SHR AND PUSH1 0x0 MSTORE PUSH1 0xD PUSH1 0x20 MSTORE PUSH1 0x40 PUSH1 0x0 KECCAK256 PUSH2 0x3875 JUMP JUMPDEST PUSH2 0x1910 PUSH1 0x8 SLOAD PUSH2 0x3788 JUMP JUMPDEST PUSH1 0x8 SSTORE PUSH2 0x1758 JUMP JUMPDEST PUSH1 0x4 EQ PUSH2 0x1928 JUMPI JUMPDEST PUSH1 0x7 SWAP1 PUSH2 0x16B2 JUMP JUMPDEST PUSH1 0x4 CALLDATALOAD PUSH1 0x0 MSTORE PUSH1 0xA PUSH1 0x20 MSTORE PUSH1 0x40 PUSH1 0x0 KECCAK256 SWAP1 PUSH2 0x1944 PUSH1 0x6 SLOAD PUSH2 0x3788 JUMP JUMPDEST SWAP2 DUP3 PUSH1 0x6 SSTORE DUP3 PUSH1 0x0 MSTORE PUSH1 0xB PUSH1 0x20 MSTORE PUSH1 0x40 PUSH1 0x0 KECCAK256 DUP4 DUP2 SSTORE PUSH1 0x1 SWAP2 PUSH1 0x4 CALLDATALOAD DUP4 DUP4 ADD SSTORE PUSH1 0xB DUP2 ADD SWAP1 DUP2 SLOAD ISZERO PUSH2 0x1ABA JUMPI DUP2 PUSH1 0x0 MSTORE PUSH20 0xFFFFFFFFFFFFFFFFFFFFFFFFFFFFFFFFFFFFFFFF SWAP3 DUP4 PUSH1 0x20 PUSH1 0x0 KECCAK256 SLOAD AND SWAP1 PUSH1 0x2 DUP2 ADD PUSH32 0xFFFFFFFFFFFFFFFFFFFFFFFF0000000000000000000000000000000000000000 SWAP3 DUP4 DUP3 SLOAD AND OR SWAP1 SSTORE DUP4 SLOAD DUP7 LT ISZERO PUSH2 0x1ABA JUMPI PUSH2 0x1A4E SWAP3 PUSH1 0xA PUSH1 0xC SWAP3 DUP11 SWAP5 DUP8 PUSH1 0x0 MSTORE DUP9 DUP11 PUSH1 0x20 PUSH1 0x0 KECCAK256 ADD SLOAD AND PUSH1 0x3 DUP4 ADD SWAP2 DUP3 SLOAD AND OR SWAP1 SSTORE PUSH1 0x4 DUP2 ADD PUSH32 0xFFFFFFFFFFFFFFFFFFFFFF00FFFFFFFFFFFFFFFFFFFFFFFFFFFFFFFFFFFFFFFF DUP2 SLOAD AND SWAP1 SSTORE PUSH1 0x8 DUP4 ADD SLOAD PUSH1 0x5 DUP3 ADD SSTORE ADD PUSH32 0xFFFFFFFFFFFFFFFFFFFFFFFFFFFFFFFFFFFFFFFFFFFFFFFFFFFFFFFFFFFFFF00 DUP2 SLOAD AND SWAP1 SSTORE ADD PUSH2 0x3875 JUMP JUMPDEST PUSH1 0x0 DUP4 JUMPDEST PUSH2 0x1A74 JUMPI JUMPDEST POP POP POP POP PUSH1 0x7 SWAP2 POP PUSH2 0x1A6A PUSH1 0x8 SLOAD PUSH2 0x3788 JUMP JUMPDEST PUSH1 0x8 SSTORE SWAP1 POP PUSH2 0x1920 JUMP JUMPDEST DUP2 SLOAD DUP2 LT ISZERO PUSH2 0x1AB5 JUMPI DUP1 DUP4 PUSH2 0x1A8C PUSH2 0x1AAF SWAP4 DUP6 PUSH2 0x3405 JUMP JUMPDEST SWAP1 SLOAD SWAP1 PUSH1 0x3 SHL SHR AND PUSH1 0x0 MSTORE PUSH1 0xD PUSH1 0x20 MSTORE PUSH2 0x1AAA DUP8 PUSH1 0x40 PUSH1 0x0 KECCAK256 PUSH2 0x3875 JUMP JUMPDEST PUSH2 0x3788 JUMP JUMPDEST DUP4 PUSH2 0x1A52 JUMP JUMPDEST PUSH2 0x1A57 JUMP JUMPDEST PUSH32 0x4E487B7100000000000000000000000000000000000000000000000000000000 PUSH1 0x0 MSTORE PUSH1 0x32 PUSH1 0x4 MSTORE PUSH1 0x24 PUSH1 0x0 REVERT JUMPDEST PUSH1 0x64 PUSH1 0x40 MLOAD PUSH32 0x8C379A000000000000000000000000000000000000000000000000000000000 DUP2 MSTORE PUSH1 0x20 PUSH1 0x4 DUP3 ADD MSTORE PUSH1 0x1D PUSH1 0x24 DUP3 ADD MSTORE PUSH32 0x546F75726E616D656E74206E6F7420726561647920746F207374617274000000 PUSH1 0x44 DUP3 ADD MSTORE REVERT JUMPDEST PUSH1 0x64 PUSH1 0x40 MLOAD PUSH32 0x8C379A000000000000000000000000000000000000000000000000000000000 DUP2 MSTORE PUSH1 0x20 PUSH1 0x4 DUP3 ADD MSTORE PUSH1 0x12 PUSH1 0x24 DUP3 ADD MSTORE PUSH32 0x4E6F7420656E6F75676820706C61796572730000000000000000000000000000 PUSH1 0x44 DUP3 ADD MSTORE REVERT JUMPDEST PUSH1 0x64 PUSH1 0x40 MLOAD PUSH32 0x8C379A000000000000000000000000000000000000000000000000000000000 DUP2 MSTORE PUSH1 0x20 PUSH1 0x4 DUP3 ADD MSTORE PUSH1 0x1A PUSH1 0x24 DUP3 ADD MSTORE PUSH32 0x546F75726E616D656E7420616C72656164792073746172746564000000000000 PUSH1 0x44 DUP3 ADD MSTORE REVERT JUMPDEST CALLVALUE PUSH2 0x267 JUMPI PUSH1 0x0 PUSH32 0xFFFFFFFFFFFFFFFFFFFFFFFFFFFFFFFFFFFFFFFFFFFFFFFFFFFFFFFFFFFFFFFC CALLDATASIZE ADD SLT PUSH2 0x267 JUMPI PUSH1 0x20 PUSH1 0x7 SLOAD PUSH1 0x40 MLOAD SWAP1 DUP2 MSTORE RETURN JUMPDEST CALLVALUE PUSH2 0x267 JUMPI PUSH1 0x40 PUSH32 0xFFFFFFFFFFFFFFFFFFFFFFFFFFFFFFFFFFFFFFFFFFFFFFFFFFFFFFFFFFFFFFFC CALLDATASIZE ADD SLT PUSH2 0x267 JUMPI PUSH1 0x20 PUSH2 0x1C83 PUSH2 0x1C7B PUSH2 0x31DF JUMP JUMPDEST PUSH1 0x4 CALLDATALOAD PUSH2 0x3C7F JUMP JUMPDEST PUSH1 0x40 MLOAD SWAP1 ISZERO ISZERO DUP2 MSTORE RETURN JUMPDEST CALLVALUE PUSH2 0x267 JUMPI PUSH1 0x0 PUSH32 0xFFFFFFFFFFFFFFFFFFFFFFFFFFFFFFFFFFFFFFFFFFFFFFFFFFFFFFFFFFFFFFFC CALLDATASIZE ADD SLT PUSH2 0x267 JUMPI PUSH1 0x20 PUSH1 0xFF PUSH1 0x2 SLOAD AND PUSH1 0x40 MLOAD SWAP1 ISZERO ISZERO DUP2 MSTORE RETURN JUMPDEST CALLVALUE PUSH2 0x267 JUMPI PUSH1 0x40 PUSH32 0xFFFFFFFFFFFFFFFFFFFFFFFFFFFFFFFFFFFFFFFFFFFFFFFFFFFFFFFFFFFFFFFC CALLDATASIZE ADD SLT PUSH2 0x267 JUMPI PUSH8 0xFFFFFFFFFFFFFFFF PUSH1 0x24 CALLDATALOAD DUP2 DUP2 GT PUSH2 0x267 JUMPI CALLDATASIZE PUSH1 0x23 DUP3 ADD SLT ISZERO PUSH2 0x267 JUMPI DUP1 PUSH1 0x4 ADD CALLDATALOAD SWAP2 DUP3 GT PUSH2 0x748 JUMPI DUP2 PUSH1 0x5 SHL SWAP1 PUSH1 0x40 MLOAD SWAP3 PUSH2 0x1D3D PUSH1 0x20 DUP5 ADD DUP6 PUSH2 0x32FF JUMP JUMPDEST DUP4 MSTORE PUSH1 0x20 DUP4 ADD SWAP1 PUSH1 0x24 DUP3 SWAP4 DUP3 ADD ADD SWAP1 CALLDATASIZE DUP3 GT PUSH2 0x267 JUMPI PUSH1 0x24 ADD SWAP2 JUMPDEST DUP2 DUP4 LT PUSH2 0x223F JUMPI POP POP POP PUSH2 0x1D6A PUSH2 0x35BB JUMP JUMPDEST PUSH2 0x1D72 PUSH2 0x37C2 JUMP JUMPDEST PUSH1 0x4 CALLDATALOAD PUSH1 0x0 MSTORE PUSH1 0xA PUSH1 0x20 MSTORE PUSH1 0x40 PUSH1 0x0 KECCAK256 PUSH2 0x1D8E DUP2 SLOAD ISZERO ISZERO PUSH2 0x37F8 JUMP JUMPDEST PUSH1 0x3 DUP2 ADD SWAP2 DUP3 SLOAD SWAP3 PUSH1 0xFF DUP5 PUSH1 0x8 SHR AND PUSH1 0x6 DUP2 LT ISZERO PUSH2 0x895 JUMPI PUSH1 0x3 PUSH2 0x1DB2 SWAP2 EQ PUSH2 0x38CC JUMP JUMPDEST DUP5 MLOAD ISZERO PUSH2 0x21E1 JUMPI PUSH2 0x400 PUSH32 0xFFFFFFFFFFFFFFFFFFFFFFFFFFFFFFFFFFFFFFFFFFFFFFFFFFFFFFFFFFFF00FF PUSH2 0x1E17 SWAP6 AND OR SWAP1 SSTORE PUSH1 0x5 DUP3 ADD SLOAD PUSH2 0x1E1C PUSH2 0x3E8 SWAP2 DUP3 PUSH2 0x1DFE PUSH1 0xE SLOAD DUP4 PUSH2 0x3C4B JUMP JUMPDEST DIV SWAP6 DUP7 SWAP4 PUSH2 0x1E0E PUSH1 0xF SLOAD DUP5 PUSH2 0x3C4B JUMP JUMPDEST DIV SWAP4 DUP5 SWAP3 PUSH2 0x3C5E JUMP JUMPDEST PUSH2 0x3C5E JUMP JUMPDEST SWAP3 PUSH1 0x0 JUMPDEST DUP7 MLOAD DUP2 LT ISZERO PUSH2 0x2055 JUMPI PUSH20 0xFFFFFFFFFFFFFFFFFFFFFFFFFFFFFFFFFFFFFFFF SWAP1 PUSH2 0x1E57 DUP3 PUSH2 0x1E4D DUP4 DUP12 PUSH2 0x3C6B JUMP JUMPDEST MLOAD AND PUSH1 0x4 CALLDATALOAD PUSH2 0x3C7F JUMP JUMPDEST ISZERO PUSH2 0x1FF7 JUMPI DUP1 PUSH2 0x1FA7 JUMPI PUSH1 0x32 DUP1 DUP8 MUL SWAP1 DUP8 DUP3 DIV EQ DUP8 ISZERO OR ISZERO PUSH2 0x1765 JUMPI PUSH1 0x64 SWAP1 DIV SWAP2 JUMPDEST DUP3 PUSH2 0x1E8F JUMPI JUMPDEST POP PUSH2 0x1E8A SWAP2 POP PUSH2 0x3788 JUMP JUMPDEST PUSH2 0x1E20 JUMP JUMPDEST PUSH2 0x1F05 PUSH1 0x20 DUP5 DUP12 DUP5 PUSH2 0x1EA9 DUP8 DUP3 PUSH1 0x2 SLOAD PUSH1 0x8 SHR AND SWAP4 PUSH2 0x3C6B JUMP JUMPDEST MLOAD AND PUSH1 0x0 PUSH1 0x40 MLOAD DUP1 SWAP7 DUP2 SWAP6 DUP3 SWAP5 PUSH32 0xA9059CBB00000000000000000000000000000000000000000000000000000000 DUP5 MSTORE PUSH1 0x4 DUP5 ADD PUSH1 0x20 SWAP1 SWAP4 SWAP3 SWAP2 SWAP4 PUSH20 0xFFFFFFFFFFFFFFFFFFFFFFFFFFFFFFFFFFFFFFFF PUSH1 0x40 DUP3 ADD SWAP6 AND DUP2 MSTORE ADD MSTORE JUMP JUMPDEST SUB SWAP3 GAS CALL DUP1 ISZERO PUSH2 0x1F9B JUMPI PUSH2 0x1F6C JUMPI JUMPDEST POP PUSH2 0x1F1F DUP3 DUP11 PUSH2 0x3C6B JUMP JUMPDEST MLOAD AND PUSH1 0x1 DUP3 ADD DUP3 GT PUSH2 0x1765 JUMPI PUSH2 0x1E8A SWAP3 PUSH1 0x40 MLOAD SWAP1 PUSH1 0x1 DUP5 ADD DUP3 MSTORE PUSH1 0x20 DUP3 ADD MSTORE PUSH32 0xC0D2773DACE20252CD0787CDC7C52FE3633EEA19EB0F904ECAE1B3A38226AB4C PUSH1 0x40 PUSH1 0x4 CALLDATALOAD SWAP3 LOG3 DUP9 PUSH2 0x1E7F JUMP JUMPDEST PUSH2 0x1F8D SWAP1 PUSH1 0x20 RETURNDATASIZE PUSH1 0x20 GT PUSH2 0x1F94 JUMPI JUMPDEST PUSH2 0x1F85 DUP2 DUP4 PUSH2 0x32FF JUMP JUMPDEST DUP2 ADD SWAP1 PUSH2 0x385D JUMP JUMPDEST POP DUP10 PUSH2 0x1F14 JUMP JUMPDEST POP RETURNDATASIZE PUSH2 0x1F7B JUMP JUMPDEST PUSH1 0x40 MLOAD RETURNDATASIZE PUSH1 0x0 DUP3 RETURNDATACOPY RETURNDATASIZE SWAP1 REVERT JUMPDEST PUSH1 0x1 DUP2 SUB PUSH2 0x1FCB JUMPI PUSH1 0x1E DUP1 DUP8 MUL SWAP1 DUP8 DUP3 DIV EQ DUP8 ISZERO OR ISZERO PUSH2 0x1765 JUMPI PUSH1 0x64 SWAP1 DIV SWAP2 PUSH2 0x1E79 JUMP JUMPDEST PUSH1 0x2 DUP2 SUB PUSH2 0x1FEF JUMPI PUSH1 0x14 DUP1 DUP8 MUL SWAP1 DUP8 DUP3 DIV EQ DUP8 ISZERO OR ISZERO PUSH2 0x1765 JUMPI PUSH1 0x64 SWAP1 DIV SWAP2 PUSH2 0x1E79 JUMP JUMPDEST PUSH1 0x0 SWAP2 PUSH2 0x1E79 JUMP JUMPDEST PUSH1 0x64 PUSH1 0x40 MLOAD PUSH32 0x8C379A000000000000000000000000000000000000000000000000000000000 DUP2 MSTORE PUSH1 0x20 PUSH1 0x4 DUP3 ADD MSTORE PUSH1 0x15 PUSH1 0x24 DUP3 ADD MSTORE PUSH32 0x57696E6E6572206E6F7420726567697374657265640000000000000000000000 PUSH1 0x44 DUP3 ADD MSTORE REVERT JUMPDEST POP DUP6 SWAP3 SWAP4 SWAP5 DUP1 PUSH2 0x2156 JUMPI JUMPDEST POP DUP2 PUSH2 0x20BE JUMPI JUMPDEST POP POP MLOAD ISZERO PUSH2 0x1ABA JUMPI PUSH20 0xFFFFFFFFFFFFFFFFFFFFFFFFFFFFFFFFFFFFFFFF SWAP1 MLOAD AND SWAP1 PUSH1 0x40 MLOAD SWAP1 DUP2 MSTORE TIMESTAMP PUSH1 0x20 DUP3 ADD MSTORE PUSH32 0xB23508F522F6895A5C44E106456CB05B61D4E1539CC9C7A0F09E1BAFF64378AC PUSH1 0x40 PUSH1 0x4 CALLDATALOAD SWAP3 LOG3 STOP JUMPDEST PUSH1 0x2 SLOAD PUSH1 0xA SWAP2 SWAP1 SWAP2 ADD SLOAD PUSH1 0x40 MLOAD PUSH32 0xA9059CBB00000000000000000000000000000000000000000000000000000000 DUP2 MSTORE PUSH20 0xFFFFFFFFFFFFFFFFFFFFFFFFFFFFFFFFFFFFFFFF SWAP2 DUP3 AND PUSH1 0x4 DUP3 ADD MSTORE PUSH1 0x24 DUP2 ADD SWAP4 SWAP1 SWAP4 MSTORE PUSH1 0x20 SWAP2 DUP4 SWAP2 PUSH1 0x44 SWAP2 DUP4 SWAP2 PUSH1 0x0 SWAP2 PUSH1 0x8 SHR AND GAS CALL DUP1 ISZERO PUSH2 0x1F9B JUMPI PUSH2 0x2137 JUMPI JUMPDEST DUP1 PUSH2 0x2067 JUMP JUMPDEST PUSH2 0x214F SWAP1 PUSH1 0x20 RETURNDATASIZE PUSH1 0x20 GT PUSH2 0x1F94 JUMPI PUSH2 0x1F85 DUP2 DUP4 PUSH2 0x32FF JUMP JUMPDEST POP DUP4 PUSH2 0x2131 JUMP JUMPDEST PUSH1 0x2 SLOAD PUSH1 0x40 MLOAD PUSH32 0xA9059CBB00000000000000000000000000000000000000000000000000000000 DUP2 MSTORE ADDRESS PUSH1 0x4 DUP3 ADD MSTORE PUSH1 0x24 DUP2 ADD SWAP3 SWAP1 SWAP3 MSTORE PUSH1 0x20 SWAP1 DUP3 SWAP1 PUSH1 0x8 SHR PUSH20 0xFFFFFFFFFFFFFFFFFFFFFFFFFFFFFFFFFFFFFFFF AND DUP2 PUSH1 0x0 DUP2 PUSH1 0x44 DUP2 ADD SUB SWAP3 GAS CALL DUP1 ISZERO PUSH2 0x1F9B JUMPI ISZERO PUSH2 0x2060 JUMPI PUSH2 0x21DA SWAP1 PUSH1 0x20 RETURNDATASIZE PUSH1 0x20 GT PUSH2 0x1F94 JUMPI PUSH2 0x1F85 DUP2 DUP4 PUSH2 0x32FF JUMP JUMPDEST POP DUP6 PUSH2 0x2060 JUMP JUMPDEST PUSH1 0x64 PUSH1 0x40 MLOAD PUSH32 0x8C379A000000000000000000000000000000000000000000000000000000000 DUP2 MSTORE PUSH1 0x20 PUSH1 0x4 DUP3 ADD MSTORE PUSH1 0x14 PUSH1 0x24 DUP3 ADD MSTORE PUSH32 0x4E6F2077696E6E65727320737065636966696564000000000000000000000000 PUSH1 0x44 DUP3 ADD MSTORE REVERT JUMPDEST DUP3 CALLDATALOAD PUSH20 0xFFFFFFFFFFFFFFFFFFFFFFFFFFFFFFFFFFFFFFFF DUP2 AND DUP2 SUB PUSH2 0x267 JUMPI DUP2 MSTORE PUSH1 0x20 SWAP3 DUP4 ADD SWAP3 ADD PUSH2 0x1D58 JUMP JUMPDEST CALLVALUE PUSH2 0x267 JUMPI PUSH1 0x20 PUSH32 0xFFFFFFFFFFFFFFFFFFFFFFFFFFFFFFFFFFFFFFFFFFFFFFFFFFFFFFFFFFFFFFFC CALLDATASIZE ADD SLT PUSH2 0x267 JUMPI PUSH1 0x4 CALLDATALOAD PUSH2 0x22A6 PUSH2 0x3581 JUMP JUMPDEST PUSH2 0x22B3 PUSH1 0x64 DUP3 GT ISZERO PUSH2 0x3CEE JUMP JUMPDEST PUSH1 0xF SSTORE STOP JUMPDEST CALLVALUE PUSH2 0x267 JUMPI PUSH1 0x80 PUSH32 0xFFFFFFFFFFFFFFFFFFFFFFFFFFFFFFFFFFFFFFFFFFFFFFFFFFFFFFFFFFFFFFFC CALLDATASIZE ADD SLT PUSH2 0x267 JUMPI PUSH2 0x22EF PUSH2 0x31DF JUMP JUMPDEST PUSH1 0x44 CALLDATALOAD SWAP1 PUSH20 0xFFFFFFFFFFFFFFFFFFFFFFFFFFFFFFFFFFFFFFFF DUP3 AND DUP3 SUB PUSH2 0x267 JUMPI PUSH2 0xA3B SWAP2 PUSH2 0x231C PUSH2 0x3525 JUMP JUMPDEST PUSH2 0x2324 PUSH2 0x37C2 JUMP JUMPDEST PUSH1 0x64 CALLDATALOAD SWAP2 PUSH1 0x4 CALLDATALOAD PUSH2 0x3931 JUMP JUMPDEST CALLVALUE PUSH2 0x267 JUMPI PUSH1 0x40 PUSH32 0xFFFFFFFFFFFFFFFFFFFFFFFFFFFFFFFFFFFFFFFFFFFFFFFFFFFFFFFFFFFFFFFC CALLDATASIZE ADD SLT PUSH2 0x267 JUMPI PUSH2 0x2367 PUSH2 0x3202 JUMP JUMPDEST PUSH20 0xFFFFFFFFFFFFFFFFFFFFFFFFFFFFFFFFFFFFFFFF PUSH1 0x24 CALLDATALOAD SWAP2 AND PUSH1 0x0 MSTORE PUSH1 0xD PUSH1 0x20 MSTORE PUSH1 0x40 PUSH1 0x0 KECCAK256 DUP1 SLOAD DUP3 LT ISZERO PUSH2 0x267 JUMPI PUSH1 0x20 SWAP2 PUSH2 0x9D0 SWAP2 PUSH2 0x3405 JUMP JUMPDEST CALLVALUE PUSH2 0x267 JUMPI PUSH1 0x20 PUSH32 0xFFFFFFFFFFFFFFFFFFFFFFFFFFFFFFFFFFFFFFFFFFFFFFFFFFFFFFFFFFFFFFFC CALLDATASIZE ADD SLT PUSH2 0x267 JUMPI PUSH2 0x23DA PUSH2 0x3492 JUMP JUMPDEST PUSH1 0x2 SLOAD PUSH1 0x40 MLOAD PUSH32 0xA9059CBB00000000000000000000000000000000000000000000000000000000 DUP2 MSTORE CALLER PUSH1 0x4 DUP1 DUP4 ADD SWAP2 SWAP1 SWAP2 MSTORE CALLDATALOAD PUSH1 0x24 DUP3 ADD MSTORE SWAP1 PUSH1 0x20 SWAP1 DUP3 SWAP1 PUSH1 0x8 SHR PUSH20 0xFFFFFFFFFFFFFFFFFFFFFFFFFFFFFFFFFFFFFFFF AND DUP2 PUSH1 0x0 DUP2 PUSH1 0x44 DUP2 ADD SUB SWAP3 GAS CALL DUP1 ISZERO PUSH2 0x1F9B JUMPI PUSH2 0x244A JUMPI STOP JUMPDEST PUSH2 0xA3B SWAP1 PUSH1 0x20 RETURNDATASIZE DUP2 GT PUSH2 0x1F94 JUMPI PUSH2 0x1F85 DUP2 DUP4 PUSH2 0x32FF JUMP JUMPDEST CALLVALUE PUSH2 0x267 JUMPI PUSH1 0x20 PUSH32 0xFFFFFFFFFFFFFFFFFFFFFFFFFFFFFFFFFFFFFFFFFFFFFFFFFFFFFFFFFFFFFFFC CALLDATASIZE ADD SLT PUSH2 0x267 JUMPI PUSH1 0x4 CALLDATALOAD PUSH1 0x0 MSTORE PUSH1 0xB PUSH1 0x20 MSTORE PUSH1 0x40 PUSH1 0x0 KECCAK256 DUP1 SLOAD SWAP1 PUSH2 0xC89 PUSH1 0x1 DUP3 ADD SLOAD SWAP3 PUSH20 0xFFFFFFFFFFFFFFFFFFFFFFFFFFFFFFFFFFFFFFFF SWAP3 DUP4 PUSH1 0x2 DUP3 ADD SLOAD AND SWAP2 DUP5 PUSH1 0x3 DUP4 ADD SLOAD AND SWAP1 PUSH1 0x4 DUP4 ADD SLOAD PUSH1 0x5 DUP5 ADD SLOAD PUSH1 0x6 DUP6 ADD SLOAD SWAP2 PUSH1 0x7 DUP7 ADD SLOAD SWAP4 PUSH1 0x8 DUP8 ADD SLOAD SWAP6 PUSH1 0xFF PUSH1 0xA PUSH2 0x24FE PUSH1 0x9 DUP12 ADD PUSH2 0x3340 JUMP JUMPDEST SWAP10 ADD SLOAD AND SWAP9 PUSH1 0x40 MLOAD SWAP13 DUP14 SWAP13 PUSH1 0xFF DUP7 PUSH1 0xA0 SHR AND SWAP6 AND SWAP4 DUP14 PUSH2 0x3225 JUMP JUMPDEST CALLVALUE PUSH2 0x267 JUMPI PUSH1 0x0 PUSH32 0xFFFFFFFFFFFFFFFFFFFFFFFFFFFFFFFFFFFFFFFFFFFFFFFFFFFFFFFFFFFFFFFC CALLDATASIZE ADD SLT PUSH2 0x267 JUMPI PUSH2 0x2550 PUSH2 0x3492 JUMP JUMPDEST PUSH1 0x2 SLOAD PUSH1 0xFF DUP2 AND ISZERO PUSH2 0x25AD JUMPI PUSH32 0xFFFFFFFFFFFFFFFFFFFFFFFFFFFFFFFFFFFFFFFFFFFFFFFFFFFFFFFFFFFFFF00 AND PUSH1 0x2 SSTORE PUSH32 0x5DB9EE0A495BF2E6FF9C91A7834C1BA4FDD244A5E8AA4E537BD38AEAE4B073AA PUSH1 0x20 PUSH1 0x40 MLOAD CALLER DUP2 MSTORE LOG1 STOP JUMPDEST PUSH1 0x4 PUSH1 0x40 MLOAD PUSH32 0x8DFC202B00000000000000000000000000000000000000000000000000000000 DUP2 MSTORE REVERT JUMPDEST CALLVALUE PUSH2 0x267 JUMPI PUSH1 0x20 PUSH32 0xFFFFFFFFFFFFFFFFFFFFFFFFFFFFFFFFFFFFFFFFFFFFFFFFFFFFFFFFFFFFFFFC CALLDATASIZE ADD SLT PUSH2 0x267 JUMPI PUSH1 0x4 CALLDATALOAD PUSH1 0x0 MSTORE PUSH1 0xB PUSH1 0x20 MSTORE PUSH1 0x40 PUSH1 0x0 KECCAK256 DUP1 SLOAD PUSH2 0xC89 PUSH1 0x1 DUP4 ADD SLOAD SWAP3 PUSH20 0xFFFFFFFFFFFFFFFFFFFFFFFFFFFFFFFFFFFFFFFF SWAP3 DUP4 PUSH1 0x2 DUP4 ADD SLOAD AND SWAP1 DUP5 PUSH1 0x3 DUP5 ADD SLOAD AND SWAP1 PUSH1 0x4 DUP5 ADD SLOAD PUSH1 0x5 DUP6 ADD SLOAD PUSH1 0x6 DUP7 ADD SLOAD SWAP2 PUSH1 0x7 DUP8 ADD SLOAD SWAP4 PUSH1 0x8 DUP9 ADD SLOAD SWAP6 PUSH2 0x2677 PUSH1 0x9 PUSH1 0xFF PUSH1 0xA DUP13 ADD SLOAD AND SWAP11 ADD PUSH2 0x3340 JUMP JUMPDEST SWAP8 PUSH1 0x40 MLOAD SWAP13 DUP14 SWAP13 PUSH1 0xFF DUP7 PUSH1 0xA0 SHR AND SWAP6 AND SWAP4 DUP14 PUSH2 0x3225 JUMP JUMPDEST CALLVALUE PUSH2 0x267 JUMPI PUSH1 0x0 PUSH32 0xFFFFFFFFFFFFFFFFFFFFFFFFFFFFFFFFFFFFFFFFFFFFFFFFFFFFFFFFFFFFFFFC CALLDATASIZE ADD SLT PUSH2 0x267 JUMPI PUSH1 0x20 PUSH1 0x9 SLOAD PUSH1 0x40 MLOAD SWAP1 DUP2 MSTORE RETURN JUMPDEST CALLVALUE PUSH2 0x267 JUMPI PUSH1 0x0 PUSH32 0xFFFFFFFFFFFFFFFFFFFFFFFFFFFFFFFFFFFFFFFFFFFFFFFFFFFFFFFFFFFFFFFC CALLDATASIZE ADD SLT PUSH2 0x267 JUMPI PUSH1 0x20 PUSH20 0xFFFFFFFFFFFFFFFFFFFFFFFFFFFFFFFFFFFFFFFF PUSH1 0x2 SLOAD PUSH1 0x8 SHR AND PUSH1 0x40 MLOAD SWAP1 DUP2 MSTORE RETURN JUMPDEST CALLVALUE PUSH2 0x267 JUMPI PUSH1 0x40 PUSH32 0xFFFFFFFFFFFFFFFFFFFFFFFFFFFFFFFFFFFFFFFFFFFFFFFFFFFFFFFFFFFFFFFC CALLDATASIZE ADD SLT PUSH2 0x267 JUMPI PUSH2 0x2756 PUSH2 0x31DF JUMP JUMPDEST CALLER PUSH20 0xFFFFFFFFFFFFFFFFFFFFFFFFFFFFFFFFFFFFFFFF DUP3 AND SUB PUSH2 0x277F JUMPI PUSH2 0xA3B SWAP1 PUSH1 0x4 CALLDATALOAD PUSH2 0x36E7 JUMP JUMPDEST PUSH1 0x4 PUSH1 0x40 MLOAD PUSH32 0x6697B23200000000000000000000000000000000000000000000000000000000 DUP2 MSTORE REVERT JUMPDEST CALLVALUE PUSH2 0x267 JUMPI PUSH1 0x20 DUP1 PUSH32 0xFFFFFFFFFFFFFFFFFFFFFFFFFFFFFFFFFFFFFFFFFFFFFFFFFFFFFFFFFFFFFFFC CALLDATASIZE ADD SLT PUSH2 0x267 JUMPI PUSH1 0x4 CALLDATALOAD SWAP1 PUSH2 0x27E5 PUSH2 0x37C2 JUMP JUMPDEST PUSH1 0x1 SWAP2 PUSH1 0x2 DUP4 SLOAD EQ PUSH2 0x2B76 JUMPI PUSH1 0x2 DUP4 SSTORE DUP1 PUSH1 0x0 MSTORE PUSH1 0xA DUP3 MSTORE PUSH1 0x40 PUSH1 0x0 KECCAK256 PUSH2 0x280E DUP2 SLOAD ISZERO ISZERO PUSH2 0x37F8 JUMP JUMPDEST PUSH1 0xFF PUSH1 0x3 DUP3 ADD SLOAD PUSH1 0x8 SHR AND PUSH1 0x6 DUP2 LT ISZERO PUSH2 0x895 JUMPI PUSH2 0x2B18 JUMPI PUSH1 0x7 DUP2 ADD SWAP1 DUP2 SLOAD PUSH1 0x6 DUP3 ADD SLOAD GT ISZERO PUSH2 0x2ABA JUMPI PUSH1 0xB DUP2 ADD SWAP2 DUP3 SLOAD ISZERO DUP1 ISZERO PUSH2 0x2AA9 JUMPI JUMPDEST ISZERO PUSH2 0x2A4B JUMPI PUSH1 0x2 SLOAD PUSH1 0x4 DUP4 DUP2 ADD DUP1 SLOAD PUSH1 0x40 MLOAD PUSH32 0x23B872DD00000000000000000000000000000000000000000000000000000000 DUP2 MSTORE CALLER SWAP4 DUP2 ADD SWAP4 SWAP1 SWAP4 MSTORE ADDRESS PUSH1 0x24 DUP5 ADD MSTORE PUSH1 0x44 DUP4 ADD MSTORE SWAP5 PUSH20 0xFFFFFFFFFFFFFFFFFFFFFFFFFFFFFFFFFFFFFFFF SWAP3 SWAP1 SWAP2 SWAP1 DUP9 SWAP1 DUP3 SWAP1 PUSH1 0x64 SWAP1 DUP3 SWAP1 PUSH1 0x0 SWAP1 PUSH1 0x8 SHR DUP9 AND GAS CALL DUP1 ISZERO PUSH2 0x1F9B JUMPI PUSH2 0x2A2E JUMPI JUMPDEST POP PUSH2 0x28E6 DUP6 SLOAD PUSH1 0x5 DUP7 ADD PUSH2 0x28DC DUP3 DUP3 SLOAD PUSH2 0x37B5 JUMP JUMPDEST SWAP1 SSTORE PUSH1 0x9 SLOAD PUSH2 0x37B5 JUMP JUMPDEST PUSH1 0x9 SSTORE DUP1 SLOAD PUSH9 0x10000000000000000 DUP2 LT ISZERO PUSH2 0x748 JUMPI PUSH2 0x290A SWAP2 DUP10 DUP3 ADD DUP2 SSTORE PUSH2 0x3405 JUMP JUMPDEST DUP2 SWAP3 SWAP2 SLOAD SWAP1 PUSH1 0x3 SHL SWAP2 CALLER DUP4 SHL SWAP3 SHL NOT AND OR SWAP1 SSTORE PUSH2 0x2927 DUP2 SLOAD PUSH2 0x3788 JUMP JUMPDEST SWAP1 SSTORE CALLER PUSH1 0x0 MSTORE PUSH1 0xC DUP5 MSTORE PUSH2 0x293F DUP4 PUSH1 0x40 PUSH1 0x0 KECCAK256 PUSH2 0x3875 JUMP JUMPDEST PUSH1 0x40 MLOAD SWAP1 PUSH1 0xE0 DUP3 ADD SWAP1 DUP3 DUP3 LT PUSH8 0xFFFFFFFFFFFFFFFF DUP4 GT OR PUSH2 0x748 JUMPI PUSH1 0x6 SWAP2 PUSH1 0x40 MSTORE PUSH1 0x0 DUP4 MSTORE DUP6 DUP4 ADD PUSH1 0x0 DUP2 MSTORE PUSH1 0x40 DUP5 ADD PUSH1 0x0 DUP2 MSTORE PUSH1 0x60 DUP6 ADD PUSH1 0x0 DUP2 MSTORE PUSH1 0x80 DUP7 ADD SWAP2 PUSH1 0x0 DUP4 MSTORE PUSH1 0xA0 DUP8 ADD SWAP4 PUSH1 0x0 DUP6 MSTORE PUSH1 0xD PUSH1 0xC0 DUP10 ADD SWAP7 PUSH1 0x0 DUP9 MSTORE CALLER PUSH1 0x0 MSTORE ADD DUP12 MSTORE PUSH1 0x40 PUSH1 0x0 KECCAK256 SWAP8 MLOAD DUP9 SSTORE MLOAD DUP12 DUP9 ADD SSTORE MLOAD PUSH1 0x2 DUP8 ADD SSTORE MLOAD PUSH1 0x3 DUP7 ADD SSTORE MLOAD PUSH1 0x4 DUP6 ADD SSTORE PUSH1 0x5 DUP5 ADD SWAP1 MLOAD ISZERO ISZERO PUSH1 0xFF PUSH32 0xFFFFFFFFFFFFFFFFFFFFFFFFFFFFFFFFFFFFFFFFFFFFFFFFFFFFFFFFFFFFFF00 DUP4 SLOAD AND SWAP2 AND OR SWAP1 SSTORE MLOAD SWAP2 ADD SSTORE SLOAD SWAP2 PUSH1 0x40 MLOAD SWAP3 DUP4 MSTORE TIMESTAMP SWAP1 DUP4 ADD MSTORE PUSH32 0x279369079F3ED0A125DDA793BFDE61237D8D2F679C1345A15AB761C5D7B6135D PUSH1 0x40 CALLER SWAP4 LOG3 DUP1 SSTORE STOP JUMPDEST PUSH2 0x2A44 SWAP1 DUP9 RETURNDATASIZE DUP11 GT PUSH2 0x1F94 JUMPI PUSH2 0x1F85 DUP2 DUP4 PUSH2 0x32FF JUMP JUMPDEST POP DUP9 PUSH2 0x28C7 JUMP JUMPDEST PUSH1 0x64 DUP6 PUSH1 0x40 MLOAD SWAP1 PUSH32 0x8C379A000000000000000000000000000000000000000000000000000000000 DUP3 MSTORE PUSH1 0x4 DUP3 ADD MSTORE PUSH1 0x12 PUSH1 0x24 DUP3 ADD MSTORE PUSH32 0x416C726561647920726567697374657265640000000000000000000000000000 PUSH1 0x44 DUP3 ADD MSTORE REVERT JUMPDEST POP PUSH2 0x2AB4 CALLER DUP6 PUSH2 0x3C7F JUMP JUMPDEST ISZERO PUSH2 0x2847 JUMP JUMPDEST PUSH1 0x64 DUP5 PUSH1 0x40 MLOAD SWAP1 PUSH32 0x8C379A000000000000000000000000000000000000000000000000000000000 DUP3 MSTORE PUSH1 0x4 DUP3 ADD MSTORE PUSH1 0xF PUSH1 0x24 DUP3 ADD MSTORE PUSH32 0x546F75726E616D656E742066756C6C0000000000000000000000000000000000 PUSH1 0x44 DUP3 ADD MSTORE REVERT JUMPDEST PUSH1 0x64 DUP4 PUSH1 0x40 MLOAD SWAP1 PUSH32 0x8C379A000000000000000000000000000000000000000000000000000000000 DUP3 MSTORE PUSH1 0x4 DUP3 ADD MSTORE PUSH1 0x15 PUSH1 0x24 DUP3 ADD MSTORE PUSH32 0x526567697374726174696F6E206E6F74206F70656E0000000000000000000000 PUSH1 0x44 DUP3 ADD MSTORE REVERT JUMPDEST PUSH1 0x4 PUSH1 0x40 MLOAD PUSH32 0x3EE5AEB500000000000000000000000000000000000000000000000000000000 DUP2 MSTORE REVERT JUMPDEST CALLVALUE PUSH2 0x267 JUMPI PUSH1 0x0 PUSH32 0xFFFFFFFFFFFFFFFFFFFFFFFFFFFFFFFFFFFFFFFFFFFFFFFFFFFFFFFFFFFFFFFC CALLDATASIZE ADD SLT PUSH2 0x267 JUMPI PUSH1 0x20 PUSH20 0xFFFFFFFFFFFFFFFFFFFFFFFFFFFFFFFFFFFFFFFF PUSH1 0x4 SLOAD AND PUSH1 0x40 MLOAD SWAP1 DUP2 MSTORE RETURN JUMPDEST CALLVALUE PUSH2 0x267 JUMPI PUSH1 0x40 PUSH32 0xFFFFFFFFFFFFFFFFFFFFFFFFFFFFFFFFFFFFFFFFFFFFFFFFFFFFFFFFFFFFFFFC CALLDATASIZE ADD SLT PUSH2 0x267 JUMPI PUSH2 0xA3B PUSH1 0x4 CALLDATALOAD PUSH2 0x2C2F PUSH2 0x31DF JUMP JUMPDEST SWAP1 DUP1 PUSH1 0x0 MSTORE PUSH1 0x0 PUSH1 0x20 MSTORE PUSH2 0x2C4A PUSH1 0x1 PUSH1 0x40 PUSH1 0x0 KECCAK256 ADD SLOAD PUSH2 0x3617 JUMP JUMPDEST PUSH2 0x363D JUMP JUMPDEST CALLVALUE PUSH2 0x267 JUMPI PUSH1 0x0 PUSH32 0xFFFFFFFFFFFFFFFFFFFFFFFFFFFFFFFFFFFFFFFFFFFFFFFFFFFFFFFFFFFFFFFC CALLDATASIZE ADD SLT PUSH2 0x267 JUMPI PUSH1 0x20 PUSH1 0xF SLOAD PUSH1 0x40 MLOAD SWAP1 DUP2 MSTORE RETURN JUMPDEST CALLVALUE PUSH2 0x267 JUMPI PUSH1 0x0 PUSH32 0xFFFFFFFFFFFFFFFFFFFFFFFFFFFFFFFFFFFFFFFFFFFFFFFFFFFFFFFFFFFFFFFC CALLDATASIZE ADD SLT PUSH2 0x267 JUMPI PUSH1 0x20 PUSH1 0x8 SLOAD PUSH1 0x40 MLOAD SWAP1 DUP2 MSTORE RETURN JUMPDEST CALLVALUE PUSH2 0x267 JUMPI PUSH1 0x0 PUSH32 0xFFFFFFFFFFFFFFFFFFFFFFFFFFFFFFFFFFFFFFFFFFFFFFFFFFFFFFFFFFFFFFFC CALLDATASIZE ADD SLT PUSH2 0x267 JUMPI PUSH1 0x20 PUSH1 0x40 MLOAD PUSH2 0x400 DUP2 MSTORE RETURN JUMPDEST CALLVALUE PUSH2 0x267 JUMPI PUSH1 0x20 DUP1 PUSH32 0xFFFFFFFFFFFFFFFFFFFFFFFFFFFFFFFFFFFFFFFFFFFFFFFFFFFFFFFFFFFFFFFC CALLDATASIZE ADD SLT PUSH2 0x267 JUMPI PUSH1 0x4 CALLDATALOAD PUSH1 0x0 MSTORE PUSH1 0xA DUP2 MSTORE PUSH1 0xB PUSH1 0x40 PUSH1 0x0 KECCAK256 ADD PUSH1 0x40 MLOAD SWAP1 DUP2 DUP4 DUP3 SLOAD SWAP2 DUP3 DUP2 MSTORE ADD SWAP1 DUP2 SWAP3 PUSH1 0x0 MSTORE DUP5 PUSH1 0x0 KECCAK256 SWAP1 PUSH1 0x0 JUMPDEST DUP7 DUP3 DUP3 LT PUSH2 0x2DCB JUMPI DUP7 DUP7 PUSH2 0x2D75 DUP3 DUP9 SUB DUP4 PUSH2 0x32FF JUMP JUMPDEST PUSH1 0x40 MLOAD SWAP3 DUP4 SWAP3 DUP2 DUP5 ADD SWAP1 DUP3 DUP6 MSTORE MLOAD DUP1 SWAP2 MSTORE PUSH1 0x40 DUP5 ADD SWAP3 SWAP2 PUSH1 0x0 JUMPDEST DUP3 DUP2 LT PUSH2 0x2D9E JUMPI POP POP POP POP SUB SWAP1 RETURN JUMPDEST DUP4 MLOAD PUSH20 0xFFFFFFFFFFFFFFFFFFFFFFFFFFFFFFFFFFFFFFFF AND DUP6 MSTORE DUP7 SWAP6 POP SWAP4 DUP2 ADD SWAP4 SWAP3 DUP2 ADD SWAP3 PUSH1 0x1 ADD PUSH2 0x2D8F JUMP JUMPDEST DUP4 SLOAD PUSH20 0xFFFFFFFFFFFFFFFFFFFFFFFFFFFFFFFFFFFFFFFF AND DUP6 MSTORE SWAP1 SWAP4 ADD SWAP3 PUSH1 0x1 SWAP3 DUP4 ADD SWAP3 ADD PUSH2 0x2D5F JUMP JUMPDEST CALLVALUE PUSH2 0x267 JUMPI PUSH1 0x0 PUSH32 0xFFFFFFFFFFFFFFFFFFFFFFFFFFFFFFFFFFFFFFFFFFFFFFFFFFFFFFFFFFFFFFFC CALLDATASIZE ADD SLT PUSH2 0x267 JUMPI PUSH1 0x20 PUSH1 0xE SLOAD PUSH1 0x40 MLOAD SWAP1 DUP2 MSTORE RETURN JUMPDEST CALLVALUE PUSH2 0x267 JUMPI PUSH1 0x20 PUSH32 0xFFFFFFFFFFFFFFFFFFFFFFFFFFFFFFFFFFFFFFFFFFFFFFFFFFFFFFFFFFFFFFFC CALLDATASIZE ADD SLT PUSH2 0x267 JUMPI PUSH1 0x4 CALLDATALOAD PUSH1 0x0 MSTORE PUSH1 0x0 PUSH1 0x20 MSTORE PUSH1 0x20 PUSH1 0x1 PUSH1 0x40 PUSH1 0x0 KECCAK256 ADD SLOAD PUSH1 0x40 MLOAD SWAP1 DUP2 MSTORE RETURN JUMPDEST CALLVALUE PUSH2 0x267 JUMPI PUSH1 0x0 PUSH32 0xFFFFFFFFFFFFFFFFFFFFFFFFFFFFFFFFFFFFFFFFFFFFFFFFFFFFFFFFFFFFFFFC CALLDATASIZE ADD SLT PUSH2 0x267 JUMPI PUSH1 0x20 PUSH1 0x40 MLOAD PUSH32 0xFC2754C3124992C494F261273F660823CFF6F38AA3C30F5781021A51340F912D DUP2 MSTORE RETURN JUMPDEST CALLVALUE PUSH2 0x267 JUMPI PUSH1 0x0 PUSH32 0xFFFFFFFFFFFFFFFFFFFFFFFFFFFFFFFFFFFFFFFFFFFFFFFFFFFFFFFFFFFFFFFC CALLDATASIZE ADD SLT PUSH2 0x267 JUMPI PUSH1 0x20 PUSH1 0x40 MLOAD PUSH32 0xBF233DD2AAFEB4D50879C4AA5C81E96D92F6E6945C906A58F9F2D1C1631B4B26 DUP2 MSTORE RETURN JUMPDEST CALLVALUE PUSH2 0x267 JUMPI PUSH1 0x20 PUSH32 0xFFFFFFFFFFFFFFFFFFFFFFFFFFFFFFFFFFFFFFFFFFFFFFFFFFFFFFFFFFFFFFFC CALLDATASIZE ADD SLT PUSH2 0x267 JUMPI PUSH1 0x4 CALLDATALOAD PUSH1 0x0 MSTORE PUSH1 0xA PUSH1 0x20 MSTORE PUSH1 0x40 PUSH1 0x0 KECCAK256 DUP1 SLOAD SWAP1 PUSH2 0xC89 PUSH1 0x3 DUP3 ADD SLOAD PUSH1 0x4 DUP4 ADD SLOAD PUSH1 0x5 DUP5 ADD SLOAD PUSH1 0x6 DUP6 ADD SLOAD PUSH1 0x7 DUP7 ADD SLOAD SWAP1 PUSH1 0x8 DUP8 ADD SLOAD SWAP3 PUSH1 0x9 DUP9 ADD SLOAD SWAP5 PUSH20 0xFFFFFFFFFFFFFFFFFFFFFFFFFFFFFFFFFFFFFFFF PUSH1 0xA DUP11 ADD SLOAD AND SWAP7 PUSH2 0x2FCF PUSH1 0x2 PUSH2 0x2FC8 PUSH1 0x1 DUP14 ADD PUSH2 0x3340 JUMP JUMPDEST SWAP12 ADD PUSH2 0x3340 JUMP JUMPDEST SWAP11 PUSH1 0x40 MLOAD SWAP12 DUP13 SWAP12 PUSH1 0xFF DUP1 DUP6 PUSH1 0x8 SHR AND SWAP5 AND SWAP3 DUP14 PUSH2 0x314A JUMP JUMPDEST CALLVALUE PUSH2 0x267 JUMPI PUSH1 0x20 PUSH32 0xFFFFFFFFFFFFFFFFFFFFFFFFFFFFFFFFFFFFFFFFFFFFFFFFFFFFFFFFFFFFFFFC CALLDATASIZE ADD SLT PUSH2 0x267 JUMPI PUSH1 0x4 CALLDATALOAD PUSH32 0xFFFFFFFF00000000000000000000000000000000000000000000000000000000 DUP2 AND DUP1 SWAP2 SUB PUSH2 0x267 JUMPI DUP1 PUSH32 0x7965DB0B00000000000000000000000000000000000000000000000000000000 PUSH1 0x20 SWAP3 EQ SWAP1 DUP2 ISZERO PUSH2 0x307C JUMPI JUMPDEST POP PUSH1 0x40 MLOAD SWAP1 ISZERO ISZERO DUP2 MSTORE RETURN JUMPDEST PUSH32 0x1FFC9A700000000000000000000000000000000000000000000000000000000 SWAP2 POP EQ DUP3 PUSH2 0x3071 JUMP JUMPDEST CALLVALUE PUSH2 0x267 JUMPI PUSH1 0x0 PUSH32 0xFFFFFFFFFFFFFFFFFFFFFFFFFFFFFFFFFFFFFFFFFFFFFFFFFFFFFFFFFFFFFFFC CALLDATASIZE ADD SLT PUSH2 0x267 JUMPI PUSH1 0x20 SWAP1 PUSH1 0x6 SLOAD DUP2 MSTORE RETURN JUMPDEST SWAP2 SWAP1 DUP3 MLOAD SWAP3 DUP4 DUP3 MSTORE PUSH1 0x0 JUMPDEST DUP5 DUP2 LT PUSH2 0x3129 JUMPI POP POP PUSH32 0xFFFFFFFFFFFFFFFFFFFFFFFFFFFFFFFFFFFFFFFFFFFFFFFFFFFFFFFFFFFFFFE0 PUSH1 0x1F DUP5 PUSH1 0x0 PUSH1 0x20 DUP1 SWAP7 SWAP8 DUP7 ADD ADD MSTORE ADD AND ADD ADD SWAP1 JUMP JUMPDEST PUSH1 0x20 DUP2 DUP4 ADD DUP2 ADD MLOAD DUP5 DUP4 ADD DUP3 ADD MSTORE ADD PUSH2 0x30EA JUMP JUMPDEST SWAP1 PUSH1 0x5 DUP3 LT ISZERO PUSH2 0x895 JUMPI MSTORE JUMP JUMPDEST SWAP11 SWAP7 SWAP3 PUSH2 0x3177 PUSH2 0x3190 SWAP4 SWAP6 SWAP15 SWAP14 SWAP10 SWAP6 PUSH2 0x3185 SWAP4 DUP15 SWAP14 SWAP10 SWAP14 SWAP13 SWAP9 SWAP13 MSTORE DUP14 PUSH2 0x180 SWAP1 DUP2 PUSH1 0x20 DUP3 ADD MSTORE ADD SWAP1 PUSH2 0x30DF JUMP JUMPDEST DUP13 DUP2 SUB PUSH1 0x40 DUP15 ADD MSTORE SWAP1 PUSH2 0x30DF JUMP JUMPDEST SWAP12 PUSH1 0x60 DUP12 ADD SWAP1 PUSH2 0x313D JUMP JUMPDEST PUSH1 0x6 DUP8 LT ISZERO PUSH2 0x895 JUMPI PUSH2 0x160 SWAP8 PUSH20 0xFFFFFFFFFFFFFFFFFFFFFFFFFFFFFFFFFFFFFFFF SWAP8 PUSH1 0x80 DUP12 ADD MSTORE PUSH1 0xA0 DUP11 ADD MSTORE PUSH1 0xC0 DUP10 ADD MSTORE PUSH1 0xE0 DUP9 ADD MSTORE PUSH2 0x100 DUP8 ADD MSTORE PUSH2 0x120 DUP7 ADD MSTORE PUSH2 0x140 DUP6 ADD MSTORE AND SWAP2 ADD MSTORE JUMP JUMPDEST PUSH1 0x24 CALLDATALOAD SWAP1 PUSH20 0xFFFFFFFFFFFFFFFFFFFFFFFFFFFFFFFFFFFFFFFF DUP3 AND DUP3 SUB PUSH2 0x267 JUMPI JUMP JUMPDEST PUSH1 0x4 CALLDATALOAD SWAP1 PUSH20 0xFFFFFFFFFFFFFFFFFFFFFFFFFFFFFFFFFFFFFFFF DUP3 AND DUP3 SUB PUSH2 0x267 JUMPI JUMP JUMPDEST SWAP11 SWAP8 SWAP5 SWAP3 SWAP2 SWAP1 SWAP13 SWAP12 SWAP13 SWAP10 SWAP7 SWAP10 SWAP9 SWAP6 SWAP9 DUP12 MSTORE PUSH1 0x20 DUP12 ADD MSTORE PUSH20 0xFFFFFFFFFFFFFFFFFFFFFFFFFFFFFFFFFFFFFFFF SWAP3 DUP4 DUP1 SWAP3 AND PUSH1 0x40 DUP13 ADD MSTORE AND PUSH1 0x60 DUP11 ADD MSTORE AND PUSH1 0x80 DUP9 ADD MSTORE PUSH1 0x4 DUP6 LT ISZERO PUSH2 0x895 JUMPI PUSH2 0x160 SWAP6 PUSH2 0x32A4 SWAP6 PUSH1 0xA0 DUP10 ADD MSTORE PUSH1 0xC0 DUP9 ADD MSTORE PUSH1 0xE0 DUP8 ADD MSTORE PUSH2 0x100 DUP7 ADD MSTORE PUSH2 0x120 DUP6 ADD MSTORE PUSH2 0x180 DUP1 PUSH2 0x140 DUP7 ADD MSTORE DUP5 ADD SWAP1 PUSH2 0x30DF JUMP JUMPDEST SWAP4 ISZERO ISZERO SWAP2 ADD MSTORE JUMP JUMPDEST SWAP1 PUSH1 0x1 DUP3 DUP2 SHR SWAP3 AND DUP1 ISZERO PUSH2 0x32F5 JUMPI JUMPDEST PUSH1 0x20 DUP4 LT EQ PUSH2 0x32C6 JUMPI JUMP JUMPDEST PUSH32 0x4E487B7100000000000000000000000000000000000000000000000000000000 PUSH1 0x0 MSTORE PUSH1 0x22 PUSH1 0x4 MSTORE PUSH1 0x24 PUSH1 0x0 REVERT JUMPDEST SWAP2 PUSH1 0x7F AND SWAP2 PUSH2 0x32BB JUMP JUMPDEST SWAP1 PUSH1 0x1F PUSH32 0xFFFFFFFFFFFFFFFFFFFFFFFFFFFFFFFFFFFFFFFFFFFFFFFFFFFFFFFFFFFFFFE0 SWAP2 ADD AND DUP2 ADD SWAP1 DUP2 LT PUSH8 0xFFFFFFFFFFFFFFFF DUP3 GT OR PUSH2 0x748 JUMPI PUSH1 0x40 MSTORE JUMP JUMPDEST SWAP1 PUSH1 0x40 MLOAD SWAP2 DUP3 PUSH1 0x0 DUP3 SLOAD SWAP3 PUSH2 0x3354 DUP5 PUSH2 0x32AC JUMP JUMPDEST SWAP1 DUP2 DUP5 MSTORE PUSH1 0x1 SWAP5 DUP6 DUP2 AND SWAP1 DUP2 PUSH1 0x0 EQ PUSH2 0x33C3 JUMPI POP PUSH1 0x1 EQ PUSH2 0x3380 JUMPI JUMPDEST POP POP PUSH2 0x337E SWAP3 POP SUB DUP4 PUSH2 0x32FF JUMP JUMPDEST JUMP JUMPDEST SWAP1 SWAP4 SWAP2 POP PUSH1 0x0 MSTORE PUSH1 0x20 SWAP1 DUP2 PUSH1 0x0 KECCAK256 SWAP4 PUSH1 0x0 SWAP2 JUMPDEST DUP2 DUP4 LT PUSH2 0x33AB JUMPI POP POP PUSH2 0x337E SWAP4 POP DUP3 ADD ADD CODESIZE DUP1 PUSH2 0x3370 JUMP JUMPDEST DUP6 SLOAD DUP9 DUP5 ADD DUP6 ADD MSTORE SWAP5 DUP6 ADD SWAP5 DUP8 SWAP5 POP SWAP2 DUP4 ADD SWAP2 PUSH2 0x3393 JUMP JUMPDEST SWAP1 POP PUSH2 0x337E SWAP6 POP PUSH1 0x20 SWAP4 POP PUSH32 0xFFFFFFFFFFFFFFFFFFFFFFFFFFFFFFFFFFFFFFFFFFFFFFFFFFFFFFFFFFFFFF00 SWAP2 POP AND DUP3 DUP5 ADD MSTORE ISZERO ISZERO PUSH1 0x5 SHL DUP3 ADD ADD CODESIZE DUP1 PUSH2 0x3370 JUMP JUMPDEST DUP1 SLOAD DUP3 LT ISZERO PUSH2 0x1ABA JUMPI PUSH1 0x0 MSTORE PUSH1 0x20 PUSH1 0x0 KECCAK256 ADD SWAP1 PUSH1 0x0 SWAP1 JUMP JUMPDEST DUP2 PUSH1 0x1F DUP3 ADD SLT ISZERO PUSH2 0x267 JUMPI DUP1 CALLDATALOAD SWAP1 PUSH8 0xFFFFFFFFFFFFFFFF DUP3 GT PUSH2 0x748 JUMPI PUSH1 0x40 MLOAD SWAP3 PUSH2 0x3470 PUSH1 0x20 PUSH32 0xFFFFFFFFFFFFFFFFFFFFFFFFFFFFFFFFFFFFFFFFFFFFFFFFFFFFFFFFFFFFFFE0 PUSH1 0x1F DUP7 ADD AND ADD DUP6 PUSH2 0x32FF JUMP JUMPDEST DUP3 DUP5 MSTORE PUSH1 0x20 DUP4 DUP4 ADD ADD GT PUSH2 0x267 JUMPI DUP2 PUSH1 0x0 SWAP3 PUSH1 0x20 DUP1 SWAP4 ADD DUP4 DUP7 ADD CALLDATACOPY DUP4 ADD ADD MSTORE SWAP1 JUMP JUMPDEST CALLER PUSH1 0x0 SWAP1 DUP2 MSTORE PUSH32 0x3C1B1854AB1360ABBB06C8D4C6B2672D4B8CEDC5EFF522AB19E51D5CB8FDBD46 PUSH1 0x20 MSTORE PUSH1 0x40 SWAP1 KECCAK256 SLOAD PUSH32 0xBF233DD2AAFEB4D50879C4AA5C81E96D92F6E6945C906A58F9F2D1C1631B4B26 SWAP1 PUSH1 0xFF AND ISZERO PUSH2 0x34EE JUMPI POP JUMP JUMPDEST PUSH1 0x44 SWAP1 PUSH1 0x40 MLOAD SWAP1 PUSH32 0xE2517D3F00000000000000000000000000000000000000000000000000000000 DUP3 MSTORE CALLER PUSH1 0x4 DUP4 ADD MSTORE PUSH1 0x24 DUP3 ADD MSTORE REVERT JUMPDEST CALLER PUSH1 0x0 SWAP1 DUP2 MSTORE PUSH32 0x656E56AB8DD91E8AB3A0BCA8FA0441044BAF531879B6B21D090DE8274DB24B30 PUSH1 0x20 MSTORE PUSH1 0x40 SWAP1 KECCAK256 SLOAD PUSH32 0xFC2754C3124992C494F261273F660823CFF6F38AA3C30F5781021A51340F912D SWAP1 PUSH1 0xFF AND ISZERO PUSH2 0x34EE JUMPI POP JUMP JUMPDEST CALLER PUSH1 0x0 SWAP1 DUP2 MSTORE PUSH32 0xAD3228B676F7D3CD4284A5443F17F1962B36E491B30A40B2405849E597BA5FB5 PUSH1 0x20 MSTORE PUSH1 0x40 DUP2 KECCAK256 SLOAD PUSH1 0xFF AND ISZERO PUSH2 0x34EE JUMPI POP JUMP JUMPDEST CALLER PUSH1 0x0 SWAP1 DUP2 MSTORE PUSH32 0x938FAE1EBE625F23A46C9C067BF25F1FDC5E976AAB24E3D0FF1A7BD30DA28644 PUSH1 0x20 MSTORE PUSH1 0x40 SWAP1 KECCAK256 SLOAD PUSH32 0x65C9916F995116B13DA98F2377109FFC8F2ED0372863561A4BF02356BFC80BF6 SWAP1 PUSH1 0xFF AND ISZERO PUSH2 0x34EE JUMPI POP JUMP JUMPDEST DUP1 PUSH1 0x0 MSTORE PUSH1 0x0 PUSH1 0x20 MSTORE PUSH1 0x40 PUSH1 0x0 KECCAK256 CALLER PUSH1 0x0 MSTORE PUSH1 0x20 MSTORE PUSH1 0xFF PUSH1 0x40 PUSH1 0x0 KECCAK256 SLOAD AND ISZERO PUSH2 0x34EE JUMPI POP JUMP JUMPDEST SWAP1 PUSH1 0x0 SWAP2 DUP1 DUP4 MSTORE DUP3 PUSH1 0x20 MSTORE PUSH20 0xFFFFFFFFFFFFFFFFFFFFFFFFFFFFFFFFFFFFFFFF PUSH1 0x40 DUP5 KECCAK256 SWAP3 AND SWAP2 DUP3 DUP5 MSTORE PUSH1 0x20 MSTORE PUSH1 0xFF PUSH1 0x40 DUP5 KECCAK256 SLOAD AND ISZERO PUSH1 0x0 EQ PUSH2 0x36E2 JUMPI DUP1 DUP4 MSTORE DUP3 PUSH1 0x20 MSTORE PUSH1 0x40 DUP4 KECCAK256 DUP3 DUP5 MSTORE PUSH1 0x20 MSTORE PUSH1 0x40 DUP4 KECCAK256 PUSH1 0x1 PUSH32 0xFFFFFFFFFFFFFFFFFFFFFFFFFFFFFFFFFFFFFFFFFFFFFFFFFFFFFFFFFFFFFF00 DUP3 SLOAD AND OR SWAP1 SSTORE PUSH32 0x2F8788117E7EFF1D82E926EC794901D17C78024A50270940304540A733656F0D CALLER SWAP4 DUP1 LOG4 PUSH1 0x1 SWAP1 JUMP JUMPDEST POP POP SWAP1 JUMP JUMPDEST SWAP1 PUSH1 0x0 SWAP2 DUP1 DUP4 MSTORE DUP3 PUSH1 0x20 MSTORE PUSH20 0xFFFFFFFFFFFFFFFFFFFFFFFFFFFFFFFFFFFFFFFF PUSH1 0x40 DUP5 KECCAK256 SWAP3 AND SWAP2 DUP3 DUP5 MSTORE PUSH1 0x20 MSTORE PUSH1 0xFF PUSH1 0x40 DUP5 KECCAK256 SLOAD AND PUSH1 0x0 EQ PUSH2 0x36E2 JUMPI DUP1 DUP4 MSTORE DUP3 PUSH1 0x20 MSTORE PUSH1 0x40 DUP4 KECCAK256 DUP3 DUP5 MSTORE PUSH1 0x20 MSTORE PUSH1 0x40 DUP4 KECCAK256 PUSH32 0xFFFFFFFFFFFFFFFFFFFFFFFFFFFFFFFFFFFFFFFFFFFFFFFFFFFFFFFFFFFFFF00 DUP2 SLOAD AND SWAP1 SSTORE PUSH32 0xF6391F5C32D9C69D2A47EA670B442974B53935D1EDC7FD64EB21E047A839171B CALLER SWAP4 DUP1 LOG4 PUSH1 0x1 SWAP1 JUMP JUMPDEST PUSH32 0xFFFFFFFFFFFFFFFFFFFFFFFFFFFFFFFFFFFFFFFFFFFFFFFFFFFFFFFFFFFFFFFF DUP2 EQ PUSH2 0x1765 JUMPI PUSH1 0x1 ADD SWAP1 JUMP JUMPDEST SWAP2 SWAP1 DUP3 ADD DUP1 SWAP3 GT PUSH2 0x1765 JUMPI JUMP JUMPDEST PUSH1 0xFF PUSH1 0x2 SLOAD AND PUSH2 0x37CE JUMPI JUMP JUMPDEST PUSH1 0x4 PUSH1 0x40 MLOAD PUSH32 0xD93C066500000000000000000000000000000000000000000000000000000000 DUP2 MSTORE REVERT JUMPDEST ISZERO PUSH2 0x37FF JUMPI JUMP JUMPDEST PUSH1 0x64 PUSH1 0x40 MLOAD PUSH32 0x8C379A000000000000000000000000000000000000000000000000000000000 DUP2 MSTORE PUSH1 0x20 PUSH1 0x4 DUP3 ADD MSTORE PUSH1 0x19 PUSH1 0x24 DUP3 ADD MSTORE PUSH32 0x546F75726E616D656E7420646F6573206E6F7420657869737400000000000000 PUSH1 0x44 DUP3 ADD MSTORE REVERT JUMPDEST SWAP1 DUP2 PUSH1 0x20 SWAP2 SUB SLT PUSH2 0x267 JUMPI MLOAD DUP1 ISZERO ISZERO DUP2 SUB PUSH2 0x267 JUMPI SWAP1 JUMP JUMPDEST DUP1 SLOAD PUSH9 0x10000000000000000 DUP2 LT ISZERO PUSH2 0x748 JUMPI PUSH2 0x3897 SWAP2 PUSH1 0x1 DUP3 ADD DUP2 SSTORE PUSH2 0x3405 JUMP JUMPDEST PUSH32 0xFFFFFFFFFFFFFFFFFFFFFFFFFFFFFFFFFFFFFFFFFFFFFFFFFFFFFFFFFFFFFFFF DUP3 SWAP4 SWAP3 SLOAD SWAP2 PUSH1 0x3 SHL SWAP3 DUP4 SHL SWAP3 SHL NOT AND OR SWAP1 SSTORE JUMP JUMPDEST ISZERO PUSH2 0x38D3 JUMPI JUMP JUMPDEST PUSH1 0x64 PUSH1 0x40 MLOAD PUSH32 0x8C379A000000000000000000000000000000000000000000000000000000000 DUP2 MSTORE PUSH1 0x20 PUSH1 0x4 DUP3 ADD MSTORE PUSH1 0x1A PUSH1 0x24 DUP3 ADD MSTORE PUSH32 0x546F75726E616D656E74206E6F7420696E2070726F6772657373000000000000 PUSH1 0x44 DUP3 ADD MSTORE REVERT JUMPDEST SWAP3 SWAP1 SWAP2 PUSH1 0x0 SWAP3 DUP5 DUP5 MSTORE PUSH1 0x20 SWAP4 PUSH1 0xA DUP6 MSTORE PUSH1 0x40 SWAP1 DUP2 DUP2 KECCAK256 SWAP1 PUSH2 0x3954 DUP3 SLOAD ISZERO ISZERO PUSH2 0x37F8 JUMP JUMPDEST PUSH1 0xFF PUSH1 0x3 DUP4 ADD SLOAD PUSH1 0x8 SHR AND PUSH1 0x6 DUP2 LT ISZERO PUSH2 0x3C1E JUMPI PUSH1 0x3 PUSH2 0x3974 SWAP2 EQ PUSH2 0x38CC JUMP JUMPDEST PUSH2 0x397E DUP5 DUP10 PUSH2 0x3C7F JUMP JUMPDEST ISZERO PUSH2 0x3BC1 JUMPI PUSH2 0x398D DUP6 DUP10 PUSH2 0x3C7F JUMP JUMPDEST ISZERO PUSH2 0x3B64 JUMPI PUSH20 0xFFFFFFFFFFFFFFFFFFFFFFFFFFFFFFFFFFFFFFFF DUP5 DUP2 AND SWAP8 SWAP1 DUP7 AND DUP9 DUP2 EQ PUSH2 0x3B07 JUMPI SWAP1 DUP5 SWAP3 SWAP2 PUSH1 0x6 SLOAD PUSH2 0x39C5 SWAP1 PUSH2 0x3788 JUMP JUMPDEST SWAP10 DUP11 DUP1 SWAP7 DUP2 PUSH1 0x6 SSTORE DUP2 DUP7 MSTORE PUSH1 0xB DUP6 MSTORE DUP14 DUP8 DUP8 KECCAK256 SWAP1 DUP4 DUP3 SSTORE PUSH1 0x1 DUP3 ADD SSTORE PUSH1 0x2 DUP2 ADD PUSH32 0xFFFFFFFFFFFFFFFFFFFFFFFF0000000000000000000000000000000000000000 SWAP1 DUP6 DUP3 DUP3 SLOAD AND OR SWAP1 SSTORE DUP6 PUSH1 0x3 DUP4 ADD SWAP2 DUP3 SLOAD AND OR SWAP1 SSTORE PUSH1 0x4 DUP2 ADD DUP1 SLOAD PUSH32 0xFFFFFFFFFFFFFFFFFFFFFF00FFFFFFFFFFFFFFFFFFFFFFFFFFFFFFFFFFFFFFFF AND SWAP1 SSTORE DUP13 PUSH1 0x5 DUP3 ADD SSTORE PUSH1 0xA ADD DUP1 SLOAD PUSH32 0xFFFFFFFFFFFFFFFFFFFFFFFFFFFFFFFFFFFFFFFFFFFFFFFFFFFFFFFFFFFFFF00 AND SWAP1 SSTORE PUSH1 0xC ADD SWAP1 PUSH2 0x3A81 SWAP2 PUSH2 0x3875 JUMP JUMPDEST DUP4 MSTORE PUSH1 0xD DUP3 MSTORE DUP5 DUP5 DUP5 KECCAK256 SWAP1 PUSH2 0x3A95 SWAP2 PUSH2 0x3875 JUMP JUMPDEST DUP3 MSTORE PUSH1 0xD SWAP1 MSTORE KECCAK256 SWAP1 PUSH2 0x3AA6 SWAP2 PUSH2 0x3875 JUMP JUMPDEST PUSH1 0x8 SLOAD PUSH2 0x3AB2 SWAP1 PUSH2 0x3788 JUMP JUMPDEST PUSH1 0x8 SSTORE MLOAD PUSH20 0xFFFFFFFFFFFFFFFFFFFFFFFFFFFFFFFFFFFFFFFF SWAP2 DUP3 AND DUP2 MSTORE SWAP2 AND PUSH1 0x20 DUP3 ADD MSTORE PUSH1 0x40 DUP2 ADD SWAP2 SWAP1 SWAP2 MSTORE PUSH32 0x7DFA3731603A731645C7AA2C72BAD6FF6445DD8CD95BE0DB525EFC20AE390279 SWAP1 PUSH1 0x60 SWAP1 LOG3 JUMP JUMPDEST PUSH1 0x64 DUP3 DUP7 MLOAD SWAP1 PUSH32 0x8C379A000000000000000000000000000000000000000000000000000000000 DUP3 MSTORE PUSH1 0x4 DUP3 ADD MSTORE PUSH1 0x19 PUSH1 0x24 DUP3 ADD MSTORE PUSH32 0x506C6179657273206D75737420626520646966666572656E7400000000000000 PUSH1 0x44 DUP3 ADD MSTORE REVERT JUMPDEST PUSH1 0x64 DUP8 DUP5 MLOAD SWAP1 PUSH32 0x8C379A000000000000000000000000000000000000000000000000000000000 DUP3 MSTORE PUSH1 0x4 DUP3 ADD MSTORE PUSH1 0x17 PUSH1 0x24 DUP3 ADD MSTORE PUSH32 0x506C617965722032206E6F742072656769737465726564000000000000000000 PUSH1 0x44 DUP3 ADD MSTORE REVERT JUMPDEST PUSH1 0x64 DUP8 DUP5 MLOAD SWAP1 PUSH32 0x8C379A000000000000000000000000000000000000000000000000000000000 DUP3 MSTORE PUSH1 0x4 DUP3 ADD MSTORE PUSH1 0x17 PUSH1 0x24 DUP3 ADD MSTORE PUSH32 0x506C617965722031206E6F742072656769737465726564000000000000000000 PUSH1 0x44 DUP3 ADD MSTORE REVERT JUMPDEST PUSH1 0x24 DUP3 PUSH32 0x4E487B7100000000000000000000000000000000000000000000000000000000 DUP2 MSTORE PUSH1 0x21 PUSH1 0x4 MSTORE REVERT JUMPDEST DUP2 DUP2 MUL SWAP3 SWAP2 DUP2 ISZERO SWAP2 DUP5 DIV EQ OR ISZERO PUSH2 0x1765 JUMPI JUMP JUMPDEST SWAP2 SWAP1 DUP3 SUB SWAP2 DUP3 GT PUSH2 0x1765 JUMPI JUMP JUMPDEST DUP1 MLOAD DUP3 LT ISZERO PUSH2 0x1ABA JUMPI PUSH1 0x20 SWAP2 PUSH1 0x5 SHL ADD ADD SWAP1 JUMP JUMPDEST PUSH1 0x0 MSTORE PUSH1 0xA PUSH1 0x20 MSTORE PUSH1 0x40 PUSH1 0x0 KECCAK256 SWAP1 PUSH1 0xB PUSH1 0x0 SWAP3 ADD DUP1 SLOAD SWAP3 JUMPDEST DUP4 DUP2 LT PUSH2 0x3CA7 JUMPI POP POP POP POP PUSH1 0x0 SWAP1 JUMP JUMPDEST PUSH2 0x3CB1 DUP2 DUP4 PUSH2 0x3405 JUMP JUMPDEST SWAP1 SLOAD PUSH20 0xFFFFFFFFFFFFFFFFFFFFFFFFFFFFFFFFFFFFFFFF SWAP1 DUP2 DUP7 AND SWAP3 PUSH1 0x3 SHL SHR AND EQ PUSH2 0x3CE5 JUMPI PUSH2 0x3CE0 SWAP1 PUSH2 0x3788 JUMP JUMPDEST PUSH2 0x3C97 JUMP JUMPDEST POP POP POP POP PUSH1 0x1 SWAP1 JUMP JUMPDEST ISZERO PUSH2 0x3CF5 JUMPI JUMP JUMPDEST PUSH1 0x64 PUSH1 0x40 MLOAD PUSH32 0x8C379A000000000000000000000000000000000000000000000000000000000 DUP2 MSTORE PUSH1 0x20 PUSH1 0x4 DUP3 ADD MSTORE PUSH1 0xC PUSH1 0x24 DUP3 ADD MSTORE PUSH32 0x46656520746F6F20686967680000000000000000000000000000000000000000 PUSH1 0x44 DUP3 ADD MSTORE REVERT INVALID LOG2 PUSH5 0x6970667358 0x22 SLT KECCAK256 MSTORE 0xBD SWAP15 0xB7 INVALID 0x2B 0xEE SWAP15 ORIGIN 0x25 0xE7 0xCA 0xC PUSH24 0x7E824955EBFA896DF2766FFF468EDA4E951D64736F6C6343 STOP ADDMOD EQ STOP CALLER 0x2F DUP8 DUP9 GT PUSH31 0x7EFF1D82E926EC794901D17C78024A50270940304540A733656F0D00000000 "},"gasEstimates":{"creation":{"codeDepositCost":"3150600","executionCost":"infinite","totalCost":"infinite"},"external":{"DEFAULT_ADMIN_ROLE()":"988","EMERGENCY_ROLE()":"218","MATCH_REFEREE_ROLE()":"240","MAX_TOURNAMENT_DURATION()":"856","MAX_TOURNAMENT_PLAYERS()":"328","MIN_TOURNAMENT_DURATION()":"1076","MIN_TOURNAMENT_PLAYERS()":"790","TOURNAMENT_ORGANIZER_ROLE()":"1117","aiOracle()":"2525","completeMatch(uint256,address,uint256,uint256,string)":"infinite","createMatchPublic(uint256,address,address,uint256)":"infinite","createTournament(string,string,uint8,uint256,uint256,uint256,uint256)":"infinite","emergencyWithdraw(uint256)":"infinite","finishTournament(uint256,address[])":"infinite","gamingCore()":"2943","gdiToken()":"2597","getMatch(uint256)":"infinite","getPlayerStats(uint256,address)":"15888","getRoleAdmin(bytes32)":"2437","getTournament(uint256)":"infinite","getTournamentPlayers(uint256)":"infinite","grantRole(bytes32,address)":"33429","hasRole(bytes32,address)":"3277","isPlayerRegistered(uint256,address)":"infinite","matchCounter()":"2247","matches(uint256)":"infinite","organizerFee()":"2475","pause()":"30541","paused()":"2817","platformFee()":"2387","playerMatches(address,uint256)":"7205","playerTournaments(address,uint256)":"7645","registerForTournament(uint256)":"infinite","renounceRole(bytes32,address)":"29065","revokeRole(bytes32,address)":"34058","startTournament(uint256)":"infinite","supportsInterface(bytes4)":"280","totalMatches()":"2453","totalPrizePool()":"2607","totalTournaments()":"2849","tournamentCounter()":"2981","tournaments(uint256)":"infinite","unpause()":"28018","updateOrganizerFee(uint256)":"25014","updatePlatformFee(uint256)":"25366"},"internal":{"createMatch(uint256,address,address,uint256)":"infinite","generateBattleRoyaleMatch(uint256)":"infinite","generateInitialMatches(uint256)":"infinite","generateSingleEliminationMatches(uint256)":"infinite"}},"methodIdentifiers":{"DEFAULT_ADMIN_ROLE()":"a217fddf","EMERGENCY_ROLE()":"20df4359","MATCH_REFEREE_ROLE()":"22106e34","MAX_TOURNAMENT_DURATION()":"697ea036","MAX_TOURNAMENT_PLAYERS()":"281139ef","MIN_TOURNAMENT_DURATION()":"e93e817c","MIN_TOURNAMENT_PLAYERS()":"6577b5c6","TOURNAMENT_ORGANIZER_ROLE()":"fbe7bc89","aiOracle()":"31b221cd","completeMatch(uint256,address,uint256,uint256,string)":"f0a4e5c6","createMatchPublic(uint256,address,address,uint256)":"54d82b21","createTournament(string,string,uint8,uint256,uint256,uint256,uint256)":"74642a31","emergencyWithdraw(uint256)":"5312ea8e","finishTournament(uint256,address[])":"56eafcc0","gamingCore()":"68ff1b90","gdiToken()":"38bd1bc1","getMatch(uint256)":"3d092b3d","getPlayerStats(uint256,address)":"66ccf959","getRoleAdmin(bytes32)":"248a9ca3","getTournament(uint256)":"1a5bd7fc","getTournamentPlayers(uint256)":"26f7519a","grantRole(bytes32,address)":"2f2ff15d","hasRole(bytes32,address)":"91d14854","isPlayerRegistered(uint256,address)":"5d316c49","matchCounter()":"01fd1951","matches(uint256)":"4768d4ef","organizerFee()":"2ae5a31d","pause()":"8456cb59","paused()":"5c975abb","platformFee()":"26232a2e","playerMatches(address,uint256)":"54113330","playerTournaments(address,uint256)":"e0661275","registerForTournament(uint256)":"334f7deb","renounceRole(bytes32,address)":"36568abe","revokeRole(bytes32,address)":"d547741f","startTournament(uint256)":"651ea943","supportsInterface(bytes4)":"01ffc9a7","totalMatches()":"2a5b1451","totalPrizePool()":"398ab9a7","totalTournaments()":"5f9f4b9c","tournamentCounter()":"73ed5c1c","tournaments(uint256)":"7503e1b7","unpause()":"3f4ba83a","updateOrganizerFee(uint256)":"56d47ecb","updatePlatformFee(uint256)":"aa0b5988"}},"storageLayout":{"storage":[{"astId":26,"contract":"contracts/GamingTournament.sol:GamingTournament","label":"_roles","offset":0,"slot":"0","type":"t_mapping(t_bytes32,t_struct(RoleData)21_storage)"},{"astId":605,"contract":"contracts/GamingTournament.sol:GamingTournament","label":"_status","offset":0,"slot":"1","type":"t_uint256"},{"astId":495,"contract":"contracts/GamingTournament.sol:GamingTournament","label":"_paused","offset":0,"slot":"2","type":"t_bool"},{"astId":853,"contract":"contracts/GamingTournament.sol:GamingTournament","label":"gdiToken","offset":1,"slot":"2","type":"t_address"},{"astId":855,"contract":"contracts/GamingTournament.sol:GamingTournament","label":"gamingCore","offset":0,"slot":"3","type":"t_address"},{"astId":857,"contract":"contracts/GamingTournament.sol:GamingTournament","label":"aiOracle","offset":0,"slot":"4","type":"t_address"},{"astId":859,"contract":"contracts/GamingTournament.sol:GamingTournament","label":"tournamentCounter","offset":0,"slot":"5","type":"t_uint256"},{"astId":861,"contract":"contracts/GamingTournament.sol:GamingTournament","label":"matchCounter","offset":0,"slot":"6","type":"t_uint256"},{"astId":863,"contract":"contracts/GamingTournament.sol:GamingTournament","label":"totalTournaments","offset":0,"slot":"7","type":"t_uint256"},{"astId":865,"contract":"contracts/GamingTournament.sol:GamingTournament","label":"totalMatches","offset":0,"slot":"8","type":"t_uint256"},{"astId":867,"contract":"contracts/GamingTournament.sol:GamingTournament","label":"totalPrizePool","offset":0,"slot":"9","type":"t_uint256"},{"astId":872,"contract":"contracts/GamingTournament.sol:GamingTournament","label":"tournaments","offset":0,"slot":"10","type":"t_mapping(t_uint256,t_struct(Tournament)800_storage)"},{"astId":877,"contract":"contracts/GamingTournament.sol:GamingTournament","label":"matches","offset":0,"slot":"11","type":"t_mapping(t_uint256,t_struct(Match)841_storage)"},{"astId":882,"contract":"contracts/GamingTournament.sol:GamingTournament","label":"playerTournaments","offset":0,"slot":"12","type":"t_mapping(t_address,t_array(t_uint256)dyn_storage)"},{"astId":887,"contract":"contracts/GamingTournament.sol:GamingTournament","label":"playerMatches","offset":0,"slot":"13","type":"t_mapping(t_address,t_array(t_uint256)dyn_storage)"},{"astId":890,"contract":"contracts/GamingTournament.sol:GamingTournament","label":"platformFee","offset":0,"slot":"14","type":"t_uint256"},{"astId":893,"contract":"contracts/GamingTournament.sol:GamingTournament","label":"organizerFee","offset":0,"slot":"15","type":"t_uint256"}],"types":{"t_address":{"encoding":"inplace","label":"address","numberOfBytes":"20"},"t_array(t_address)dyn_storage":{"base":"t_address","encoding":"dynamic_array","label":"address[]","numberOfBytes":"32"},"t_array(t_uint256)dyn_storage":{"base":"t_uint256","encoding":"dynamic_array","label":"uint256[]","numberOfBytes":"32"},"t_bool":{"encoding":"inplace","label":"bool","numberOfBytes":"1"},"t_bytes32":{"encoding":"inplace","label":"bytes32","numberOfBytes":"32"},"t_enum(MatchStatus)757":{"encoding":"inplace","label":"enum GamingTournament.MatchStatus","numberOfBytes":"1"},"t_enum(TournamentStatus)746":{"encoding":"inplace","label":"enum GamingTournament.TournamentStatus","numberOfBytes":"1"},"t_enum(TournamentType)752":{"encoding":"inplace","label":"enum GamingTournament.TournamentType","numberOfBytes":"1"},"t_mapping(t_address,t_array(t_uint256)dyn_storage)":{"encoding":"mapping","key":"t_address","label":"mapping(address => uint256[])","numberOfBytes":"32","value":"t_array(t_uint256)dyn_storage"},"t_mapping(t_address,t_bool)":{"encoding":"mapping","key":"t_address","label":"mapping(address => bool)","numberOfBytes":"32","value":"t_bool"},"t_mapping(t_address,t_struct(PlayerStats)815_storage)":{"encoding":"mapping","key":"t_address","label":"mapping(address => struct GamingTournament.PlayerStats)","numberOfBytes":"32","value":"t_struct(PlayerStats)815_storage"},"t_mapping(t_bytes32,t_struct(RoleData)21_storage)":{"encoding":"mapping","key":"t_bytes32","label":"mapping(bytes32 => struct AccessControl.RoleData)","numberOfBytes":"32","value":"t_struct(RoleData)21_storage"},"t_mapping(t_uint256,t_struct(Match)841_storage)":{"encoding":"mapping","key":"t_uint256","label":"mapping(uint256 => struct GamingTournament.Match)","numberOfBytes":"32","value":"t_struct(Match)841_storage"},"t_mapping(t_uint256,t_struct(Tournament)800_storage)":{"encoding":"mapping","key":"t_uint256","label":"mapping(uint256 => struct GamingTournament.Tournament)","numberOfBytes":"32","value":"t_struct(Tournament)800_storage"},"t_string_storage":{"encoding":"bytes","label":"string","numberOfBytes":"32"},"t_struct(Match)841_storage":{"encoding":"inplace","label":"struct GamingTournament.Match","members":[{"astId":817,"contract":"contracts/GamingTournament.sol:GamingTournament","label":"matchId","offset":0,"slot":"0","type":"t_uint256"},{"astId":819,"contract":"contracts/GamingTournament.sol:GamingTournament","label":"tournamentId","offset":0,"slot":"1","type":"t_uint256"},{"astId":821,"contract":"contracts/GamingTournament.sol:GamingTournament","label":"player1","offset":0,"slot":"2","type":"t_address"},{"astId":823,"contract":"contracts/GamingTournament.sol:GamingTournament","label":"player2","offset":0,"slot":"3","type":"t_address"},{"astId":825,"contract":"contracts/GamingTournament.sol:GamingTournament","label":"winner","offset":0,"slot":"4","type":"t_address"},{"astId":828,"contract":"contracts/GamingTournament.sol:GamingTournament","label":"status","offset":20,"slot":"4","type":"t_enum(MatchStatus)757"},{"astId":830,"contract":"contracts/GamingTournament.sol:GamingTournament","label":"startTime","offset":0,"slot":"5","type":"t_uint256"},{"astId":832,"contract":"contracts/GamingTournament.sol:GamingTournament","label":"endTime","offset":0,"slot":"6","type":"t_uint256"},{"astId":834,"contract":"contracts/GamingTournament.sol:GamingTournament","label":"player1Score","offset":0,"slot":"7","type":"t_uint256"},{"astId":836,"contract":"contracts/GamingTournament.sol:GamingTournament","label":"player2Score","offset":0,"slot":"8","type":"t_uint256"},{"astId":838,"contract":"contracts/GamingTournament.sol:GamingTournament","label":"gameData","offset":0,"slot":"9","type":"t_string_storage"},{"astId":840,"contract":"contracts/GamingTournament.sol:GamingTournament","label":"isBye","offset":0,"slot":"10","type":"t_bool"}],"numberOfBytes":"352"},"t_struct(PlayerStats)815_storage":{"encoding":"inplace","label":"struct GamingTournament.PlayerStats","members":[{"astId":802,"contract":"contracts/GamingTournament.sol:GamingTournament","label":"wins","offset":0,"slot":"0","type":"t_uint256"},{"astId":804,"contract":"contracts/GamingTournament.sol:GamingTournament","label":"losses","offset":0,"slot":"1","type":"t_uint256"},{"astId":806,"contract":"contracts/GamingTournament.sol:GamingTournament","label":"draws","offset":0,"slot":"2","type":"t_uint256"},{"astId":808,"contract":"contracts/GamingTournament.sol:GamingTournament","label":"totalScore","offset":0,"slot":"3","type":"t_uint256"},{"astId":810,"contract":"contracts/GamingTournament.sol:GamingTournament","label":"rank","offset":0,"slot":"4","type":"t_uint256"},{"astId":812,"contract":"contracts/GamingTournament.sol:GamingTournament","label":"isEliminated","offset":0,"slot":"5","type":"t_bool"},{"astId":814,"contract":"contracts/GamingTournament.sol:GamingTournament","label":"lastMatchTime","offset":0,"slot":"6","type":"t_uint256"}],"numberOfBytes":"224"},"t_struct(RoleData)21_storage":{"encoding":"inplace","label":"struct AccessControl.RoleData","members":[{"astId":18,"contract":"contracts/GamingTournament.sol:GamingTournament","label":"hasRole","offset":0,"slot":"0","type":"t_mapping(t_address,t_bool)"},{"astId":20,"contract":"contracts/GamingTournament.sol:GamingTournament","label":"adminRole","offset":0,"slot":"1","type":"t_bytes32"}],"numberOfBytes":"64"},"t_struct(Tournament)800_storage":{"encoding":"inplace","label":"struct GamingTournament.Tournament","members":[{"astId":759,"contract":"contracts/GamingTournament.sol:GamingTournament","label":"tournamentId","offset":0,"slot":"0","type":"t_uint256"},{"astId":761,"contract":"contracts/GamingTournament.sol:GamingTournament","label":"name","offset":0,"slot":"1","type":"t_string_storage"},{"astId":763,"contract":"contracts/GamingTournament.sol:GamingTournament","label":"description","offset":0,"slot":"2","type":"t_string_storage"},{"astId":766,"contract":"contracts/GamingTournament.sol:GamingTournament","label":"tournamentType","offset":0,"slot":"3","type":"t_enum(TournamentType)752"},{"astId":769,"contract":"contracts/GamingTournament.sol:GamingTournament","label":"status","offset":1,"slot":"3","type":"t_enum(TournamentStatus)746"},{"astId":771,"contract":"contracts/GamingTournament.sol:GamingTournament","label":"entryFee","offset":0,"slot":"4","type":"t_uint256"},{"astId":773,"contract":"contracts/GamingTournament.sol:GamingTournament","label":"prizePool","offset":0,"slot":"5","type":"t_uint256"},{"astId":775,"contract":"contracts/GamingTournament.sol:GamingTournament","label":"maxPlayers","offset":0,"slot":"6","type":"t_uint256"},{"astId":777,"contract":"contracts/GamingTournament.sol:GamingTournament","label":"currentPlayers","offset":0,"slot":"7","type":"t_uint256"},{"astId":779,"contract":"contracts/GamingTournament.sol:GamingTournament","label":"startTime","offset":0,"slot":"8","type":"t_uint256"},{"astId":781,"contract":"contracts/GamingTournament.sol:GamingTournament","label":"endTime","offset":0,"slot":"9","type":"t_uint256"},{"astId":783,"contract":"contracts/GamingTournament.sol:GamingTournament","label":"organizer","offset":0,"slot":"10","type":"t_address"},{"astId":786,"contract":"contracts/GamingTournament.sol:GamingTournament","label":"players","offset":0,"slot":"11","type":"t_array(t_address)dyn_storage"},{"astId":789,"contract":"contracts/GamingTournament.sol:GamingTournament","label":"matchIds","offset":0,"slot":"12","type":"t_array(t_uint256)dyn_storage"},{"astId":794,"contract":"contracts/GamingTournament.sol:GamingTournament","label":"playerStats","offset":0,"slot":"13","type":"t_mapping(t_address,t_struct(PlayerStats)815_storage)"},{"astId":799,"contract":"contracts/GamingTournament.sol:GamingTournament","label":"matches","offset":0,"slot":"14","type":"t_mapping(t_uint256,t_struct(Match)841_storage)"}],"numberOfBytes":"480"},"t_uint256":{"encoding":"inplace","label":"uint256","numberOfBytes":"32"}}},"userdoc":{"kind":"user","methods":{},"version":1}}}}