{"contracts/GameDinL3Bridge.sol":{"GameDinL3Bridge":{"abi":[{"inputs":[{"internalType":"address","name":"_settlementContract","type":"address"}],"stateMutability":"nonpayable","type":"constructor"},{"inputs":[],"name":"AccessControlBadConfirmation","type":"error"},{"inputs":[{"internalType":"address","name":"account","type":"address"},{"internalType":"bytes32","name":"neededRole","type":"bytes32"}],"name":"AccessControlUnauthorizedAccount","type":"error"},{"inputs":[],"name":"EnforcedPause","type":"error"},{"inputs":[],"name":"ExpectedPause","type":"error"},{"inputs":[],"name":"ReentrancyGuardReentrantCall","type":"error"},{"anonymous":false,"inputs":[{"indexed":false,"internalType":"uint256","name":"oldFee","type":"uint256"},{"indexed":false,"internalType":"uint256","name":"newFee","type":"uint256"}],"name":"BridgeFeeUpdated","type":"event"},{"anonymous":false,"inputs":[{"indexed":true,"internalType":"uint256","name":"requestId","type":"uint256"},{"indexed":true,"internalType":"address","name":"recipient","type":"address"},{"indexed":false,"internalType":"uint256","name":"amount","type":"uint256"},{"indexed":false,"internalType":"uint256","name":"timestamp","type":"uint256"}],"name":"BridgeRequestCompleted","type":"event"},{"anonymous":false,"inputs":[{"indexed":true,"internalType":"uint256","name":"requestId","type":"uint256"},{"indexed":true,"internalType":"address","name":"sender","type":"address"},{"indexed":true,"internalType":"address","name":"recipient","type":"address"},{"indexed":false,"internalType":"enum GameDinL3Bridge.AssetType","name":"assetType","type":"uint8"},{"indexed":false,"internalType":"address","name":"assetAddress","type":"address"},{"indexed":false,"internalType":"uint256","name":"amount","type":"uint256"},{"indexed":false,"internalType":"uint256","name":"tokenId","type":"uint256"},{"indexed":false,"internalType":"bool","name":"isL3ToL2","type":"bool"},{"indexed":false,"internalType":"uint256","name":"timestamp","type":"uint256"}],"name":"BridgeRequestCreated","type":"event"},{"anonymous":false,"inputs":[{"indexed":true,"internalType":"uint256","name":"requestId","type":"uint256"},{"indexed":true,"internalType":"address","name":"validator","type":"address"},{"indexed":false,"internalType":"enum GameDinL3Bridge.BridgeStatus","name":"status","type":"uint8"},{"indexed":false,"internalType":"string","name":"l3TransactionHash","type":"string"},{"indexed":false,"internalType":"uint256","name":"timestamp","type":"uint256"}],"name":"BridgeRequestProcessed","type":"event"},{"anonymous":false,"inputs":[{"indexed":false,"internalType":"address","name":"account","type":"address"}],"name":"Paused","type":"event"},{"anonymous":false,"inputs":[{"indexed":true,"internalType":"bytes32","name":"role","type":"bytes32"},{"indexed":true,"internalType":"bytes32","name":"previousAdminRole","type":"bytes32"},{"indexed":true,"internalType":"bytes32","name":"newAdminRole","type":"bytes32"}],"name":"RoleAdminChanged","type":"event"},{"anonymous":false,"inputs":[{"indexed":true,"internalType":"bytes32","name":"role","type":"bytes32"},{"indexed":true,"internalType":"address","name":"account","type":"address"},{"indexed":true,"internalType":"address","name":"sender","type":"address"}],"name":"RoleGranted","type":"event"},{"anonymous":false,"inputs":[{"indexed":true,"internalType":"bytes32","name":"role","type":"bytes32"},{"indexed":true,"internalType":"address","name":"account","type":"address"},{"indexed":true,"internalType":"address","name":"sender","type":"address"}],"name":"RoleRevoked","type":"event"},{"anonymous":false,"inputs":[{"indexed":false,"internalType":"address","name":"account","type":"address"}],"name":"Unpaused","type":"event"},{"anonymous":false,"inputs":[{"indexed":true,"internalType":"address","name":"validator","type":"address"},{"indexed":false,"internalType":"uint256","name":"stake","type":"uint256"},{"indexed":false,"internalType":"uint256","name":"timestamp","type":"uint256"}],"name":"ValidatorRegistered","type":"event"},{"anonymous":false,"inputs":[{"indexed":true,"internalType":"address","name":"validator","type":"address"},{"indexed":false,"internalType":"uint256","name":"oldStake","type":"uint256"},{"indexed":false,"internalType":"uint256","name":"newStake","type":"uint256"}],"name":"ValidatorStakeUpdated","type":"event"},{"anonymous":false,"inputs":[{"indexed":false,"internalType":"uint256","name":"oldStake","type":"uint256"},{"indexed":false,"internalType":"uint256","name":"newStake","type":"uint256"}],"name":"ValidatorStakeUpdated","type":"event"},{"inputs":[],"name":"BRIDGE_OPERATOR_ROLE","outputs":[{"internalType":"bytes32","name":"","type":"bytes32"}],"stateMutability":"view","type":"function"},{"inputs":[],"name":"BRIDGE_TIMEOUT","outputs":[{"internalType":"uint256","name":"","type":"uint256"}],"stateMutability":"view","type":"function"},{"inputs":[],"name":"DEFAULT_ADMIN_ROLE","outputs":[{"internalType":"bytes32","name":"","type":"bytes32"}],"stateMutability":"view","type":"function"},{"inputs":[],"name":"EMERGENCY_ROLE","outputs":[{"internalType":"bytes32","name":"","type":"bytes32"}],"stateMutability":"view","type":"function"},{"inputs":[],"name":"MAX_BRIDGE_AMOUNT","outputs":[{"internalType":"uint256","name":"","type":"uint256"}],"stateMutability":"view","type":"function"},{"inputs":[],"name":"MIN_BRIDGE_AMOUNT","outputs":[{"internalType":"uint256","name":"","type":"uint256"}],"stateMutability":"view","type":"function"},{"inputs":[],"name":"VALIDATOR_ROLE","outputs":[{"internalType":"bytes32","name":"","type":"bytes32"}],"stateMutability":"view","type":"function"},{"inputs":[{"internalType":"address","name":"","type":"address"}],"name":"bridgeConfigs","outputs":[{"internalType":"bool","name":"isActive","type":"bool"},{"internalType":"uint256","name":"minConfirmations","type":"uint256"},{"internalType":"uint256","name":"maxAmount","type":"uint256"},{"internalType":"uint256","name":"fee","type":"uint256"},{"internalType":"uint256","name":"timeout","type":"uint256"}],"stateMutability":"view","type":"function"},{"inputs":[],"name":"bridgeFee","outputs":[{"internalType":"uint256","name":"","type":"uint256"}],"stateMutability":"view","type":"function"},{"inputs":[{"internalType":"uint256","name":"","type":"uint256"}],"name":"bridgeRequests","outputs":[{"internalType":"uint256","name":"requestId","type":"uint256"},{"internalType":"address","name":"sender","type":"address"},{"internalType":"address","name":"recipient","type":"address"},{"internalType":"enum GameDinL3Bridge.AssetType","name":"assetType","type":"uint8"},{"internalType":"address","name":"assetAddress","type":"address"},{"internalType":"uint256","name":"amount","type":"uint256"},{"internalType":"uint256","name":"tokenId","type":"uint256"},{"internalType":"enum GameDinL3Bridge.BridgeStatus","name":"status","type":"uint8"},{"internalType":"uint256","name":"timestamp","type":"uint256"},{"internalType":"uint256","name":"deadline","type":"uint256"},{"internalType":"bytes32","name":"merkleRoot","type":"bytes32"},{"internalType":"string","name":"l3TransactionHash","type":"string"},{"internalType":"address","name":"validator","type":"address"},{"internalType":"bool","name":"isL3ToL2","type":"bool"}],"stateMutability":"view","type":"function"},{"inputs":[{"internalType":"address","name":"recipient","type":"address"},{"internalType":"enum GameDinL3Bridge.AssetType","name":"assetType","type":"uint8"},{"internalType":"address","name":"assetAddress","type":"address"},{"internalType":"uint256","name":"amount","type":"uint256"},{"internalType":"uint256","name":"tokenId","type":"uint256"}],"name":"bridgeToL3","outputs":[],"stateMutability":"payable","type":"function"},{"inputs":[{"internalType":"uint256","name":"requestId","type":"uint256"}],"name":"completeL2ToL3Request","outputs":[],"stateMutability":"nonpayable","type":"function"},{"inputs":[],"name":"emergencyWithdrawETH","outputs":[],"stateMutability":"nonpayable","type":"function"},{"inputs":[{"internalType":"address","name":"token","type":"address"},{"internalType":"uint256","name":"amount","type":"uint256"}],"name":"emergencyWithdrawTokens","outputs":[],"stateMutability":"nonpayable","type":"function"},{"inputs":[{"internalType":"uint256","name":"requestId","type":"uint256"}],"name":"getBridgeRequest","outputs":[{"internalType":"uint256","name":"id","type":"uint256"},{"internalType":"address","name":"sender","type":"address"},{"internalType":"address","name":"recipient","type":"address"},{"internalType":"enum GameDinL3Bridge.AssetType","name":"assetType","type":"uint8"},{"internalType":"address","name":"assetAddress","type":"address"},{"internalType":"uint256","name":"amount","type":"uint256"},{"internalType":"uint256","name":"tokenId","type":"uint256"},{"internalType":"enum GameDinL3Bridge.BridgeStatus","name":"status","type":"uint8"},{"internalType":"uint256","name":"timestamp","type":"uint256"},{"internalType":"uint256","name":"deadline","type":"uint256"},{"internalType":"bytes32","name":"merkleRoot","type":"bytes32"},{"internalType":"string","name":"l3TransactionHash","type":"string"},{"internalType":"address","name":"validator","type":"address"},{"internalType":"bool","name":"isL3ToL2","type":"bool"}],"stateMutability":"view","type":"function"},{"inputs":[{"internalType":"bytes32","name":"role","type":"bytes32"}],"name":"getRoleAdmin","outputs":[{"internalType":"bytes32","name":"","type":"bytes32"}],"stateMutability":"view","type":"function"},{"inputs":[{"internalType":"address","name":"user","type":"address"}],"name":"getUserRequests","outputs":[{"internalType":"uint256[]","name":"","type":"uint256[]"}],"stateMutability":"view","type":"function"},{"inputs":[{"internalType":"address","name":"validator","type":"address"}],"name":"getValidatorInfo","outputs":[{"internalType":"bool","name":"isActive","type":"bool"},{"internalType":"uint256","name":"totalProcessed","type":"uint256"},{"internalType":"uint256","name":"successRate","type":"uint256"},{"internalType":"uint256","name":"lastActivity","type":"uint256"},{"internalType":"uint256","name":"stake","type":"uint256"}],"stateMutability":"view","type":"function"},{"inputs":[{"internalType":"bytes32","name":"role","type":"bytes32"},{"internalType":"address","name":"account","type":"address"}],"name":"grantRole","outputs":[],"stateMutability":"nonpayable","type":"function"},{"inputs":[{"internalType":"bytes32","name":"role","type":"bytes32"},{"internalType":"address","name":"account","type":"address"}],"name":"hasRole","outputs":[{"internalType":"bool","name":"","type":"bool"}],"stateMutability":"view","type":"function"},{"inputs":[],"name":"pause","outputs":[],"stateMutability":"nonpayable","type":"function"},{"inputs":[],"name":"paused","outputs":[{"internalType":"bool","name":"","type":"bool"}],"stateMutability":"view","type":"function"},{"inputs":[{"internalType":"uint256","name":"requestId","type":"uint256"},{"internalType":"string","name":"l3TransactionHash","type":"string"},{"internalType":"bytes32","name":"merkleRoot","type":"bytes32"}],"name":"processL2ToL3Request","outputs":[],"stateMutability":"nonpayable","type":"function"},{"inputs":[{"internalType":"address","name":"sender","type":"address"},{"internalType":"address","name":"recipient","type":"address"},{"internalType":"enum GameDinL3Bridge.AssetType","name":"assetType","type":"uint8"},{"internalType":"address","name":"assetAddress","type":"address"},{"internalType":"uint256","name":"amount","type":"uint256"},{"internalType":"uint256","name":"tokenId","type":"uint256"},{"internalType":"string","name":"l3TransactionHash","type":"string"},{"internalType":"bytes32","name":"merkleRoot","type":"bytes32"}],"name":"processL3ToL2Request","outputs":[],"stateMutability":"nonpayable","type":"function"},{"inputs":[{"internalType":"bytes32","name":"","type":"bytes32"}],"name":"processedTransactions","outputs":[{"internalType":"bool","name":"","type":"bool"}],"stateMutability":"view","type":"function"},{"inputs":[],"name":"registerValidator","outputs":[],"stateMutability":"nonpayable","type":"function"},{"inputs":[{"internalType":"bytes32","name":"role","type":"bytes32"},{"internalType":"address","name":"callerConfirmation","type":"address"}],"name":"renounceRole","outputs":[],"stateMutability":"nonpayable","type":"function"},{"inputs":[],"name":"requestCounter","outputs":[{"internalType":"uint256","name":"","type":"uint256"}],"stateMutability":"view","type":"function"},{"inputs":[{"internalType":"bytes32","name":"role","type":"bytes32"},{"internalType":"address","name":"account","type":"address"}],"name":"revokeRole","outputs":[],"stateMutability":"nonpayable","type":"function"},{"inputs":[],"name":"settlementContract","outputs":[{"internalType":"address","name":"","type":"address"}],"stateMutability":"view","type":"function"},{"inputs":[{"internalType":"bytes4","name":"interfaceId","type":"bytes4"}],"name":"supportsInterface","outputs":[{"internalType":"bool","name":"","type":"bool"}],"stateMutability":"view","type":"function"},{"inputs":[],"name":"totalRequests","outputs":[{"internalType":"uint256","name":"","type":"uint256"}],"stateMutability":"view","type":"function"},{"inputs":[],"name":"totalVolume","outputs":[{"internalType":"uint256","name":"","type":"uint256"}],"stateMutability":"view","type":"function"},{"inputs":[],"name":"unpause","outputs":[],"stateMutability":"nonpayable","type":"function"},{"inputs":[],"name":"unregisterValidator","outputs":[],"stateMutability":"nonpayable","type":"function"},{"inputs":[{"internalType":"uint256","name":"newFee","type":"uint256"}],"name":"updateBridgeFee","outputs":[],"stateMutability":"nonpayable","type":"function"},{"inputs":[{"internalType":"address","name":"newSettlement","type":"address"}],"name":"updateSettlementContract","outputs":[],"stateMutability":"nonpayable","type":"function"},{"inputs":[{"internalType":"uint256","name":"newStake","type":"uint256"}],"name":"updateValidatorStake","outputs":[],"stateMutability":"nonpayable","type":"function"},{"inputs":[{"internalType":"address","name":"","type":"address"},{"internalType":"uint256","name":"","type":"uint256"}],"name":"userRequests","outputs":[{"internalType":"uint256","name":"","type":"uint256"}],"stateMutability":"view","type":"function"},{"inputs":[],"name":"validatorStake","outputs":[{"internalType":"uint256","name":"","type":"uint256"}],"stateMutability":"view","type":"function"},{"inputs":[{"internalType":"address","name":"","type":"address"}],"name":"validators","outputs":[{"internalType":"bool","name":"isActive","type":"bool"},{"internalType":"uint256","name":"totalProcessed","type":"uint256"},{"internalType":"uint256","name":"successRate","type":"uint256"},{"internalType":"uint256","name":"lastActivity","type":"uint256"},{"internalType":"uint256","name":"stake","type":"uint256"}],"stateMutability":"view","type":"function"},{"stateMutability":"payable","type":"receive"}],"devdoc":{"details":"Handles cross-chain transfers between L2 settlement layer and L3 gaming network Manages asset bridging, validation, and cross-chain communication","errors":{"AccessControlBadConfirmation()":[{"details":"The caller of a function is not the expected one. NOTE: Don't confuse with {AccessControlUnauthorizedAccount}."}],"AccessControlUnauthorizedAccount(address,bytes32)":[{"details":"The `account` is missing a role."}],"EnforcedPause()":[{"details":"The operation failed because the contract is paused."}],"ExpectedPause()":[{"details":"The operation failed because the contract is not paused."}],"ReentrancyGuardReentrantCall()":[{"details":"Unauthorized reentrant call."}]},"events":{"Paused(address)":{"details":"Emitted when the pause is triggered by `account`."},"RoleAdminChanged(bytes32,bytes32,bytes32)":{"details":"Emitted when `newAdminRole` is set as ``role``'s admin role, replacing `previousAdminRole` `DEFAULT_ADMIN_ROLE` is the starting admin for all roles, despite {RoleAdminChanged} not being emitted to signal this."},"RoleGranted(bytes32,address,address)":{"details":"Emitted when `account` is granted `role`. `sender` is the account that originated the contract call. This account bears the admin role (for the granted role). Expected in cases where the role was granted using the internal {AccessControl-_grantRole}."},"RoleRevoked(bytes32,address,address)":{"details":"Emitted when `account` is revoked `role`. `sender` is the account that originated the contract call:   - if using `revokeRole`, it is the admin role bearer   - if using `renounceRole`, it is the role bearer (i.e. `account`)"},"Unpaused(address)":{"details":"Emitted when the pause is lifted by `account`."}},"kind":"dev","methods":{"bridgeToL3(address,uint8,address,uint256,uint256)":{"details":"Create a bridge request from L2 to L3","params":{"amount":"Amount to bridge","assetAddress":"Asset contract address","assetType":"Type of asset to bridge","recipient":"Recipient address on L3","tokenId":"Token ID (for NFTs)"}},"completeL2ToL3Request(uint256)":{"details":"Complete bridge request (L2 to L3)","params":{"requestId":"Request ID"}},"emergencyWithdrawETH()":{"details":"Emergency withdraw ETH"},"emergencyWithdrawTokens(address,uint256)":{"details":"Emergency withdraw tokens","params":{"amount":"Amount to withdraw","token":"Token address"}},"getBridgeRequest(uint256)":{"details":"Get bridge request details","params":{"requestId":"Request ID"},"returns":{"amount":"Amount","assetAddress":"Asset address","assetType":"Asset type","deadline":"Deadline","id":"Request ID","isL3ToL2":"Whether L3 to L2","l3TransactionHash":"L3 transaction hash","merkleRoot":"Merkle root","recipient":"Recipient address","sender":"Sender address","status":"Request status","timestamp":"Timestamp","tokenId":"Token ID","validator":"Validator address"}},"getRoleAdmin(bytes32)":{"details":"Returns the admin role that controls `role`. See {grantRole} and {revokeRole}. To change a role's admin, use {_setRoleAdmin}."},"getUserRequests(address)":{"details":"Get user requests","params":{"user":"User address"},"returns":{"_0":"requestIds Array of request IDs"}},"getValidatorInfo(address)":{"details":"Get validator information","params":{"validator":"Validator address"},"returns":{"isActive":"Whether active","lastActivity":"Last activity","stake":"Stake amount","successRate":"Success rate","totalProcessed":"Total processed"}},"grantRole(bytes32,address)":{"details":"Grants `role` to `account`. If `account` had not been already granted `role`, emits a {RoleGranted} event. Requirements: - the caller must have ``role``'s admin role. May emit a {RoleGranted} event."},"hasRole(bytes32,address)":{"details":"Returns `true` if `account` has been granted `role`."},"pause()":{"details":"Pause bridge"},"paused()":{"details":"Returns true if the contract is paused, and false otherwise."},"processL2ToL3Request(uint256,string,bytes32)":{"details":"Process bridge request (L2 to L3)","params":{"l3TransactionHash":"L3 transaction hash","merkleRoot":"Merkle root for verification","requestId":"Request ID"}},"processL3ToL2Request(address,address,uint8,address,uint256,uint256,string,bytes32)":{"details":"Process bridge request from L3 to L2","params":{"amount":"Amount to bridge","assetAddress":"Asset contract address","assetType":"Type of asset","l3TransactionHash":"L3 transaction hash","merkleRoot":"Merkle root for verification","recipient":"Recipient address on L2","sender":"Sender address on L3","tokenId":"Token ID (for NFTs)"}},"registerValidator()":{"details":"Register as a validator"},"renounceRole(bytes32,address)":{"details":"Revokes `role` from the calling account. Roles are often managed via {grantRole} and {revokeRole}: this function's purpose is to provide a mechanism for accounts to lose their privileges if they are compromised (such as when a trusted device is misplaced). If the calling account had been revoked `role`, emits a {RoleRevoked} event. Requirements: - the caller must be `callerConfirmation`. May emit a {RoleRevoked} event."},"revokeRole(bytes32,address)":{"details":"Revokes `role` from `account`. If `account` had been granted `role`, emits a {RoleRevoked} event. Requirements: - the caller must have ``role``'s admin role. May emit a {RoleRevoked} event."},"supportsInterface(bytes4)":{"details":"See {IERC165-supportsInterface}."},"unpause()":{"details":"Unpause bridge"},"unregisterValidator()":{"details":"Unregister as a validator"},"updateBridgeFee(uint256)":{"details":"Update bridge fee","params":{"newFee":"New fee amount"}},"updateSettlementContract(address)":{"details":"Update settlement contract","params":{"newSettlement":"New settlement contract address"}},"updateValidatorStake(uint256)":{"details":"Update validator stake requirement","params":{"newStake":"New stake amount"}}},"title":"GameDin L3 Bridge Contract","version":1},"evm":{"bytecode":{"linkReferences":{},"object":"6080346200012157601f6200381538819003918201601f19168301916001600160401b0383118484101762000126578084926020946040528339810103126200012157516001600160a01b03811680820362000121576001805566038d7ea4c68000600655683635c9adc5dea0000060075515620000dc5760028054610100600160a81b03191660089290921b610100600160a81b0316919091179055620000a7336200013c565b50620000b333620001bc565b50620000bf336200025e565b50620000cb33620002fb565b5060405161345c9081620003998239f35b60405162461bcd60e51b815260206004820152601b60248201527f496e76616c696420736574746c656d656e7420636f6e747261637400000000006044820152606490fd5b600080fd5b634e487b7160e01b600052604160045260246000fd5b6001600160a01b031660008181527fad3228b676f7d3cd4284a5443f17f1962b36e491b30a40b2405849e597ba5fb5602052604081205490919060ff16620001b857818052816020526040822081835260205260408220600160ff198254161790553391600080516020620037f58339815191528180a4600190565b5090565b6001600160a01b031660008181527f0d4654aaffc87c2c9a3fd6a99770bc308fad799420104834ddcca8973d00903960205260408120549091907f7045adfe67d5f94dbfddcdb901e44bef55baacabb398c7cddda1bfd7620b15689060ff166200025957808352826020526040832082845260205260408320600160ff19825416179055600080516020620037f5833981519152339380a4600190565b505090565b6001600160a01b031660008181527f5111aeae4aa79889928e72f88b5872109754de9d419ea9a4e3df5fba21d4d46f60205260408120549091907f21702c8af46127c7fa207f89d0b0a8441bb32959a0ac7df790e9ab1a25c989269060ff166200025957808352826020526040832082845260205260408320600160ff19825416179055600080516020620037f5833981519152339380a4600190565b6001600160a01b031660008181527f3c1b1854ab1360abbb06c8d4c6b2672d4b8cedc5eff522ab19e51d5cb8fdbd4660205260408120549091907fbf233dd2aafeb4d50879c4aa5c81e96d92f6e6945c906a58f9f2d1c1631b4b269060ff166200025957808352826020526040832082845260205260408320600160ff19825416179055600080516020620037f5833981519152339380a460019056fe608080604052600436101561001d575b50361561001b57600080fd5b005b600090813560e01c90816301ffc9a7146127a0575080630f5093d01461255257806320df4359146124f9578063248a9ca3146124af578063263cb6b61461242e5780632f2ff15d146123d35780633008afed1461230b57806336568abe146122805780633de739e714611e595780633f4ba83a14611d9a578063427ac0ca14611cf55780634be40fd114611c9c57806358e312c414611c605780635a1c036614611bec5780635c975abb14611bab5780635f81a57c14611b6f5780636ca56267146119ce5780636fa50dc01461113b5780637fce0002146110f857806382b12dd7146110bc57806384536017146110585780638456cb5914610fc1578063886688c114610f805780638a11d7c914610f305780638aea61dc14610ef4578063917bb99814610e2b57806391d1485414610db4578063973a814e14610d785780639a7c91d914610d3c5780639f89c8a214610c73578063a217fddf14610c39578063ac2e493614610bec578063b337cf7414610b0f578063bcc6587f14610934578063c332226e14610832578063c49baebe146107d9578063c7f18fe514610765578063d547741f14610706578063e91a8b08146102e9578063ea42418b146102945763fa52c7d80361000f57346102915760207ffffffffffffffffffffffffffffffffffffffffffffffffffffffffffffffffc3601126102915760409073ffffffffffffffffffffffffffffffffffffffff61023861285e565b168152600a6020522060ff81541661028d6001830154926002810154906004600382015491015491604051958695869192608093969594919660a0840197151584526020840152604083015260608201520152565b0390f35b80fd5b503461029157807ffffffffffffffffffffffffffffffffffffffffffffffffffffffffffffffffc36011261029157602073ffffffffffffffffffffffffffffffffffffffff60025460081c16604051908152f35b50346102915760607ffffffffffffffffffffffffffffffffffffffffffffffffffffffffffffffffc3601126102915767ffffffffffffffff906004356024358381116107025761033e903690600401612aaf565b610346612c3c565b61034e6132da565b8183526020600881526040842061036781541515613310565b600681019081549660ff881660058110156106d55761067757600b82019261039660ff855460a01c1615613375565b60088301544211610619577fffffffffffffffffffffffffffffffffffffffffffffffffffffffffffffff009798600198899116179055600a82019085519081116105ec576103e58254612b24565b601f81116105a5575b5084601f82116001146104de57926104c39592827f11e030ca8ba35e719c03c56fa4f16240dcc98aa67832e96db65c3538a92126ec9896936060968d916104d3575b507fffffffffffffffffffffffffffffffffffffffffffffffffffffffffffffffff828d1b9260031b1c19161790555b6009604435910155337fffffffffffffffffffffffff0000000000000000000000000000000000000000825416179055338852600a8152604088208781016104a881546131b3565b9055600342910155604051968752860152606085019061294a565b924260408201528033940390a380f35b905087015138610430565b828a52858a208992917fffffffffffffffffffffffffffffffffffffffffffffffffffffffffffffffe083168c5b81811061058e5750926104c39895927f11e030ca8ba35e719c03c56fa4f16240dcc98aa67832e96db65c3538a92126ec9a989592826060999610610557575b5050811b019055610460565b8901517fffffffffffffffffffffffffffffffffffffffffffffffffffffffffffffffff60f88460031b161c19169055388061054b565b8a83015184558c959093019291890191890161050c565b828a52858a20601f830160051c8101918784106105e2575b601f0160051c019089905b8281106105d65750506103ee565b600081550189906105c8565b90915081906105bd565b6024897f4e487b710000000000000000000000000000000000000000000000000000000081526041600452fd5b606485604051907f08c379a00000000000000000000000000000000000000000000000000000000082526004820152600f60248201527f52657175657374206578706972656400000000000000000000000000000000006044820152fd5b606484604051907f08c379a00000000000000000000000000000000000000000000000000000000082526004820152601360248201527f52657175657374206e6f742070656e64696e67000000000000000000000000006044820152fd5b6024887f4e487b710000000000000000000000000000000000000000000000000000000081526021600452fd5b8280fd5b50346102915760407ffffffffffffffffffffffffffffffffffffffffffffffffffffffffffffffffc36011261029157610761600435610744612881565b908084528360205261075c6001604086200154612d65565b612fe3565b5080f35b50346102915760207ffffffffffffffffffffffffffffffffffffffffffffffffffffffffffffffffc360112610291577f1093db028025d2405a1aea589a8652d1f919bd517e7c7e858e0af317584d191360406004356107c3612d2b565b600754908060075582519182526020820152a180f35b503461029157807ffffffffffffffffffffffffffffffffffffffffffffffffffffffffffffffffc3601126102915760206040517f21702c8af46127c7fa207f89d0b0a8441bb32959a0ac7df790e9ab1a25c989268152f35b50346102915760207ffffffffffffffffffffffffffffffffffffffffffffffffffffffffffffffffc3601126102915761086a61285e565b610872612d2b565b73ffffffffffffffffffffffffffffffffffffffff8116156108d6577fffffffffffffffffffffff0000000000000000000000000000000000000000ff74ffffffffffffffffffffffffffffffffffffffff006002549260081b1691161760025580f35b60646040517f08c379a000000000000000000000000000000000000000000000000000000000815260206004820152601b60248201527f496e76616c696420736574746c656d656e7420636f6e747261637400000000006044820152fd5b503461029157807ffffffffffffffffffffffffffffffffffffffffffffffffffffffffffffffffc3601126102915761096b6132da565b3381526020600a815260ff604083205416610ab1576002546007546040517f23b872dd0000000000000000000000000000000000000000000000000000000081523360048201523060248201526044810191909152908290829060081c73ffffffffffffffffffffffffffffffffffffffff168186816064810103925af18015610aa657610a79575b50338252600a81526040822060017fffffffffffffffffffffffffffffffffffffffffffffffffffffffffffffff008254161781556007546004820155600342910155610a4033612d8b565b506007549060405191825242908201527f4fedf9289a156b214915bd5c2db58d3ee16acc185e80df66ee404e4573c821e160403392a280f35b610a9890823d8411610a9f575b610a908183612a6e565b8101906132c2565b50386109f4565b503d610a86565b6040513d85823e3d90fd5b606490604051907f08c379a00000000000000000000000000000000000000000000000000000000082526004820152601260248201527f416c7265616479207265676973746572656400000000000000000000000000006044820152fd5b5034610291576020807ffffffffffffffffffffffffffffffffffffffffffffffffffffffffffffffffc360112610be85773ffffffffffffffffffffffffffffffffffffffff610b5d61285e565b168252600981526040822060405192838383549182815201908193835284832090835b818110610bd45750505084610b96910385612a6e565b60405193838594850191818652518092526040850193925b828110610bbd57505050500390f35b835185528695509381019392810192600101610bae565b825484529286019260019283019201610b80565b5080fd5b50346102915760207ffffffffffffffffffffffffffffffffffffffffffffffffffffffffffffffffc3601126102915760ff60406020926004358152600b84522054166040519015158152f35b503461029157807ffffffffffffffffffffffffffffffffffffffffffffffffffffffffffffffffc36011261029157602090604051908152f35b50346102915760207ffffffffffffffffffffffffffffffffffffffffffffffffffffffffffffffffc360112610291576004358152600860205260409020805473ffffffffffffffffffffffffffffffffffffffff918260018201541690600281015493806003830154169160048101546005820154600683015460ff16600784015490600885015492600986015494600a8701610d1090612b77565b96600b0154986040519c8d9c8d9c8b8d60a01c60ff169d169b8360a01c60ff1693169161028d9e61298d565b503461029157807ffffffffffffffffffffffffffffffffffffffffffffffffffffffffffffffffc360112610291576020604051620151808152f35b503461029157807ffffffffffffffffffffffffffffffffffffffffffffffffffffffffffffffffc360112610291576020600354604051908152f35b50346102915760407ffffffffffffffffffffffffffffffffffffffffffffffffffffffffffffffffc3601126102915773ffffffffffffffffffffffffffffffffffffffff6040610e03612881565b92600435815280602052209116600052602052602060ff604060002054166040519015158152f35b50346102915760407ffffffffffffffffffffffffffffffffffffffffffffffffffffffffffffffffc36011261029157610e6361285e565b610e6b612ccf565b6040517fa9059cbb00000000000000000000000000000000000000000000000000000000815233600482015260248035908201529060209082906044908290869073ffffffffffffffffffffffffffffffffffffffff165af18015610ee957610ed2575080f35b6107619060203d8111610a9f57610a908183612a6e565b6040513d84823e3d90fd5b503461029157807ffffffffffffffffffffffffffffffffffffffffffffffffffffffffffffffffc360112610291576020600454604051908152f35b50346102915760207ffffffffffffffffffffffffffffffffffffffffffffffffffffffffffffffffc3601126102915760409073ffffffffffffffffffffffffffffffffffffffff61023861285e565b503461029157807ffffffffffffffffffffffffffffffffffffffffffffffffffffffffffffffffc360112610291576020604051670de0b6b3a76400008152f35b503461029157807ffffffffffffffffffffffffffffffffffffffffffffffffffffffffffffffffc36011261029157610ff8612ccf565b6110006132da565b60017fffffffffffffffffffffffffffffffffffffffffffffffffffffffffffffff0060025416176002557f62e78cea01bee320cd4e420270b5ea74000d11b0c9f74754ebdbfc544b05a2586020604051338152a180f35b503461029157807ffffffffffffffffffffffffffffffffffffffffffffffffffffffffffffffffc3601126102915761108f612ccf565b80808080478181156110b3575b3390f1156110a75780f35b604051903d90823e3d90fd5b506108fc61109c565b503461029157807ffffffffffffffffffffffffffffffffffffffffffffffffffffffffffffffffc360112610291576020600654604051908152f35b503461029157807ffffffffffffffffffffffffffffffffffffffffffffffffffffffffffffffffc36011261029157602060405169152d02c7e14af68000008152f35b5034610291576101007ffffffffffffffffffffffffffffffffffffffffffffffffffffffffffffffffc3601126102915761117461285e565b61117c612881565b9060036044351015610702576064359073ffffffffffffffffffffffffffffffffffffffff9081831683036119c95767ffffffffffffffff9260c43584811161175d576111cd903690600401612aaf565b936111d6612c3c565b6111de6132da565b8383161561196b576111f38487161515613084565b611209670de0b6b3a764000060843510156130e9565b61122169152d02c7e14af6800000608435111561314e565b84511561190d576040516020810190611254602082816112478b87815193849201612927565b8101038084520182612a6e565b5190208752600b60205260ff6040882054166118af576112756003546131b3565b948560035585885260086020526040882091868355600183017fffffffffffffffffffffffff000000000000000000000000000000000000000090878716828254161790556112d460028501888b16838254161781556044359061320f565b600384019087861690825416179055608435600484015560a435600584015560017fffffffffffffffffffffffffffffffffffffffffffffffffffffffffffffff0060068501541617600684015542600784015562015180420180421161164257600884015581519081116105ec57611350600a840154612b24565b601f811161186a575b50806020601f82116001146117a6578a9161179b575b507fffffffffffffffffffffffffffffffffffffffffffffffffffffffffffffffff8260011b9260031b1c191617600a8301555b60e4356009830155600b82017401000000000000000000000000000000000000000081547fffffffffffffffffffffff0000000000000000000000000000000000000000007fffffffffffffffffffffff00ffffffffffffffffffffffffffffffffffffffff3316911617179055848716885260096020526114288660408a2061326b565b6114336004546131b3565b60045561144460843560055461325e565b600555604051611464602082816112478183019687815193849201612927565b5190208752600b6020526040872080547fffffffffffffffffffffffffffffffffffffffffffffffffffffffffffffff001660011790556044356116c6576040517fa9059cbb00000000000000000000000000000000000000000000000000000000815273ffffffffffffffffffffffffffffffffffffffff8716600482015260843560248201526020816044818b878a165af180156116bb5761169c575b505b60060180547fffffffffffffffffffffffffffffffffffffffffffffffffffffffffffffff00166002179055338652600a6020526040862060018101805461154c906131b3565b809155600282019081547fffffffffffffffffffffffffffffffffffffffffffffffffffffffffffffffff82019082821161166f579061158b916133da565b6064810180911161164257916115c860409694927f02b57eecd372ee1f8bd796bedf6d87ea0da0834f5cdf5391efa26398ef2c0bc09896946133ed565b9055600342910155828451916115e0836044356128eb565b1660208201526084358482015260a4356060820152600160808201524260a0820152857f324d1b6cc60ec8b0b60854da81f895de35042fc8a80cc1ac5b8c8f90a4740e3060c085808b16951693a481519460843586524260208701521693a380f35b60248a7f4e487b710000000000000000000000000000000000000000000000000000000081526011600452fd5b60248b7f4e487b710000000000000000000000000000000000000000000000000000000081526011600452fd5b6116b49060203d602011610a9f57610a908183612a6e565b5038611503565b6040513d8a823e3d90fd5b604435600103611761578382163b1561175d576040517f23b872dd00000000000000000000000000000000000000000000000000000000815230600482015273ffffffffffffffffffffffffffffffffffffffff8716602482015260a43560448201528790818160648183888b165af18015610ee957611749575b50505b611505565b61175290612a2b565b61175d578638611741565b8680fd5b60026044350361150557868060843515611792575b8180809260843590898c1690f1611744576040513d88823e3d90fd5b506108fc611776565b90508201513861136f565b9150600a84018a5260208a208a925b7fffffffffffffffffffffffffffffffffffffffffffffffffffffffffffffffe0831684106118525760019350827fffffffffffffffffffffffffffffffffffffffffffffffffffffffffffffffe081161061181b575b5050811b01600a8301556113a3565b8401517fffffffffffffffffffffffffffffffffffffffffffffffffffffffffffffffff60f88460031b161c19169055388061180c565b848101518255602093840193600190920191016117b5565b600a84018a5260208a20601f830160051c8101602084106118a8575b601f830160051c8201811061189c575050611359565b60008155600101611886565b5080611886565b60646040517f08c379a000000000000000000000000000000000000000000000000000000000815260206004820152601d60248201527f5472616e73616374696f6e20616c72656164792070726f6365737365640000006044820152fd5b60646040517f08c379a000000000000000000000000000000000000000000000000000000000815260206004820152601b60248201527f496e76616c6964204c33207472616e73616374696f6e206861736800000000006044820152fd5b60646040517f08c379a000000000000000000000000000000000000000000000000000000000815260206004820152600e60248201527f496e76616c69642073656e6465720000000000000000000000000000000000006044820152fd5b600080fd5b503461029157807ffffffffffffffffffffffffffffffffffffffffffffffffffffffffffffffffc36011261029157611a056132da565b3381526020600a815260408220805460ff811615611b11577fffffffffffffffffffffffffffffffffffffffffffffffffffffffffffffff00168155600254600491820180546040517fa9059cbb00000000000000000000000000000000000000000000000000000000815233948101949094526024840152849290918490829060081c73ffffffffffffffffffffffffffffffffffffffff168186816044810103925af18015610aa657611af4575b50611abf33612f0d565b5054916040519283528201527fcdc86a7bd23991b72015ea60a4080fb4ade4360c5536444ba006509fd0f8c98c60403392a280f35b611b0a90843d8611610a9f57610a908183612a6e565b5038611ab5565b606483604051907f08c379a00000000000000000000000000000000000000000000000000000000082526004820152600e60248201527f4e6f7420726567697374657265640000000000000000000000000000000000006044820152fd5b503461029157807ffffffffffffffffffffffffffffffffffffffffffffffffffffffffffffffffc360112610291576020600554604051908152f35b503461029157807ffffffffffffffffffffffffffffffffffffffffffffffffffffffffffffffffc36011261029157602060ff600254166040519015158152f35b50346102915760207ffffffffffffffffffffffffffffffffffffffffffffffffffffffffffffffffc360112610291577f3e7af433b010df0902f945628a14ef63c63e1e5e8306127bde522445a470588f6040600435611c4a612d2b565b600654908060065582519182526020820152a180f35b503461029157807ffffffffffffffffffffffffffffffffffffffffffffffffffffffffffffffffc360112610291576020600754604051908152f35b503461029157807ffffffffffffffffffffffffffffffffffffffffffffffffffffffffffffffffc3601126102915760206040517f7045adfe67d5f94dbfddcdb901e44bef55baacabb398c7cddda1bfd7620b15688152f35b50346102915760207ffffffffffffffffffffffffffffffffffffffffffffffffffffffffffffffffc3601126102915760409073ffffffffffffffffffffffffffffffffffffffff611d4561285e565b168152600c6020522060ff81541661028d6001830154926002810154906004600382015491015491604051958695869192608093969594919660a0840197151584526020840152604083015260608201520152565b503461029157807ffffffffffffffffffffffffffffffffffffffffffffffffffffffffffffffffc36011261029157611dd1612ccf565b60025460ff811615611e2f577fffffffffffffffffffffffffffffffffffffffffffffffffffffffffffffff00166002557f5db9ee0a495bf2e6ff9c91a7834c1ba4fdd244a5e8aa4e537bd38aeae4b073aa6020604051338152a180f35b60046040517f8dfc202b000000000000000000000000000000000000000000000000000000008152fd5b5060a07ffffffffffffffffffffffffffffffffffffffffffffffffffffffffffffffffc36011261029157611e8c61285e565b6024356003811015610702576044359073ffffffffffffffffffffffffffffffffffffffff9182811680910361227c576064359260843590611ecc6132da565b600195600287541461225257600287551693611ee9851515613084565b611efd670de0b6b3a76400008210156130e9565b611f1369152d02c7e14af680000082111561314e565b60065434106121f457611f276003546131b3565b9283600355838852602060088152604089208581558881017fffffffffffffffffffffffff0000000000000000000000000000000000000000903382825416179055611f7e88600284018b8482541617815561320f565b836003830191825416179055836004820155846005820155600681017fffffffffffffffffffffffffffffffffffffffffffffffffffffffffffffff00815416905542600782015562015180420180421161166f5790600b916008820155017fffffffffffffffffffffff00ffffffffffffffffffffffffffffffffffffffff8154169055338952600981526120178560408b2061326b565b6120226004546131b3565b6004556120318360055461325e565b60055585612102576040517f23b872dd0000000000000000000000000000000000000000000000000000000081523360048201523060248201526044810184905281816064818d875af180156120f7576120da575b505b61209560405180976128eb565b85015260408401526060830152600060808301524260a08301527f324d1b6cc60ec8b0b60854da81f895de35042fc8a80cc1ac5b8c8f90a4740e3060c03393a4805580f35b6120f090823d8411610a9f57610a908183612a6e565b5038612086565b6040513d8c823e3d90fd5b85880361217b57813b15612177576040517f23b872dd00000000000000000000000000000000000000000000000000000000815233600482015230602482015260448101859052898160648183875af180156120f757612164575b505b612088565b61217090999199612a2b565b973861215d565b8880fd5b600286036120885761218f6006548461325e565b34101561215f57606490604051907f08c379a00000000000000000000000000000000000000000000000000000000082526004820152601060248201527f496e73756666696369656e7420455448000000000000000000000000000000006044820152fd5b60646040517f08c379a000000000000000000000000000000000000000000000000000000000815260206004820152601760248201527f496e73756666696369656e7420627269646765206665650000000000000000006044820152fd5b60046040517f3ee5aeb5000000000000000000000000000000000000000000000000000000008152fd5b8480fd5b50346102915760407ffffffffffffffffffffffffffffffffffffffffffffffffffffffffffffffffc360112610291576122b8612881565b3373ffffffffffffffffffffffffffffffffffffffff8216036122e15761076190600435612fe3565b60046040517f6697b232000000000000000000000000000000000000000000000000000000008152fd5b50346102915760207ffffffffffffffffffffffffffffffffffffffffffffffffffffffffffffffffc360112610291576004358152600860205260409020805473ffffffffffffffffffffffffffffffffffffffff9182600182015416906002810154938060038301541660048301546005840154600685015460ff16600786015490600887015492600988015494600b89015498600a016123ac90612b77565b966040519c8d9c8d9c8b8d60a01c60ff169d169b8360a01c60ff1693169161028d9e61298d565b50346102915760407ffffffffffffffffffffffffffffffffffffffffffffffffffffffffffffffffc36011261029157610761600435612411612881565b90808452836020526124296001604086200154612d65565b612e68565b50346102915760407ffffffffffffffffffffffffffffffffffffffffffffffffffffffffffffffffc3601126102915761246661285e565b73ffffffffffffffffffffffffffffffffffffffff168152600960205260408120805460243592908310156102915760206124a184846128a4565b90546040519160031b1c8152f35b50346102915760207ffffffffffffffffffffffffffffffffffffffffffffffffffffffffffffffffc36011261029157600160406020926004358152808452200154604051908152f35b503461029157807ffffffffffffffffffffffffffffffffffffffffffffffffffffffffffffffffc3601126102915760206040517fbf233dd2aafeb4d50879c4aa5c81e96d92f6e6945c906a58f9f2d1c1631b4b268152f35b50346102915760207ffffffffffffffffffffffffffffffffffffffffffffffffffffffffffffffffc3601126102915760043561258d612c3c565b6125956132da565b808252600860205260408220906125ae82541515613310565b60068201805460ff8116600581101561277357600103612715577fffffffffffffffffffffffffffffffffffffffffffffffffffffffffffffff0060029161260060ff600b88015460a01c1615613375565b16179055338352600a60205260408320600281019060018254910154907fffffffffffffffffffffffffffffffffffffffffffffffffffffffffffffffff8201908282116126e85790612652916133da565b606481018091116126bb5790612667916133ed565b90557f02b57eecd372ee1f8bd796bedf6d87ea0da0834f5cdf5391efa26398ef2c0bc06040600473ffffffffffffffffffffffffffffffffffffffff6002860154169401548151908152426020820152a380f35b6024867f4e487b710000000000000000000000000000000000000000000000000000000081526011600452fd5b6024877f4e487b710000000000000000000000000000000000000000000000000000000081526011600452fd5b60646040517f08c379a000000000000000000000000000000000000000000000000000000000815260206004820152601660248201527f52657175657374206e6f742070726f63657373696e67000000000000000000006044820152fd5b6024867f4e487b710000000000000000000000000000000000000000000000000000000081526021600452fd5b905034610be85760207ffffffffffffffffffffffffffffffffffffffffffffffffffffffffffffffffc360112610be8576004357fffffffff00000000000000000000000000000000000000000000000000000000811680910361070257602092507f7965db0b000000000000000000000000000000000000000000000000000000008114908115612834575b5015158152f35b7f01ffc9a7000000000000000000000000000000000000000000000000000000009150143861282d565b6004359073ffffffffffffffffffffffffffffffffffffffff821682036119c957565b6024359073ffffffffffffffffffffffffffffffffffffffff821682036119c957565b80548210156128bc5760005260206000200190600090565b7f4e487b7100000000000000000000000000000000000000000000000000000000600052603260045260246000fd5b9060038210156128f85752565b7f4e487b7100000000000000000000000000000000000000000000000000000000600052602160045260246000fd5b60005b83811061293a5750506000910152565b818101518382015260200161292a565b907fffffffffffffffffffffffffffffffffffffffffffffffffffffffffffffffe0601f60209361298681518092818752878088019101612927565b0116010190565b9c9e9d9a9694919299959360608e6129d2939e9a9b9e815273ffffffffffffffffffffffffffffffffffffffff809d81809816602084015216604082015201906128eb565b1660808b015260a08a015260c089015260058410156128f8576101a096612a1c9460e08a01526101008901526101208801526101408701526101c08061016088015286019061294a565b95166101808401521515910152565b67ffffffffffffffff8111612a3f57604052565b7f4e487b7100000000000000000000000000000000000000000000000000000000600052604160045260246000fd5b90601f7fffffffffffffffffffffffffffffffffffffffffffffffffffffffffffffffe0910116810190811067ffffffffffffffff821117612a3f57604052565b81601f820112156119c95780359067ffffffffffffffff8211612a3f5760405192612b0260207fffffffffffffffffffffffffffffffffffffffffffffffffffffffffffffffe0601f8601160185612a6e565b828452602083830101116119c957816000926020809301838601378301015290565b90600182811c92168015612b6d575b6020831014612b3e57565b7f4e487b7100000000000000000000000000000000000000000000000000000000600052602260045260246000fd5b91607f1691612b33565b9060405191826000825492612b8b84612b24565b908184526001948581169081600014612bfa5750600114612bb7575b5050612bb592500383612a6e565b565b9093915060005260209081600020936000915b818310612be2575050612bb593508201013880612ba7565b85548884018501529485019487945091830191612bca565b9050612bb59550602093507fffffffffffffffffffffffffffffffffffffffffffffffffffffffffffffff0091501682840152151560051b8201013880612ba7565b3360009081527f5111aeae4aa79889928e72f88b5872109754de9d419ea9a4e3df5fba21d4d46f60205260409020547f21702c8af46127c7fa207f89d0b0a8441bb32959a0ac7df790e9ab1a25c989269060ff1615612c985750565b604490604051907fe2517d3f0000000000000000000000000000000000000000000000000000000082523360048301526024820152fd5b3360009081527f3c1b1854ab1360abbb06c8d4c6b2672d4b8cedc5eff522ab19e51d5cb8fdbd4660205260409020547fbf233dd2aafeb4d50879c4aa5c81e96d92f6e6945c906a58f9f2d1c1631b4b269060ff1615612c985750565b3360009081527fad3228b676f7d3cd4284a5443f17f1962b36e491b30a40b2405849e597ba5fb5602052604081205460ff1615612c985750565b80600052600060205260406000203360005260205260ff6040600020541615612c985750565b73ffffffffffffffffffffffffffffffffffffffff1660008181527f5111aeae4aa79889928e72f88b5872109754de9d419ea9a4e3df5fba21d4d46f60205260408120549091907f21702c8af46127c7fa207f89d0b0a8441bb32959a0ac7df790e9ab1a25c989269060ff16612e635780835282602052604083208284526020526040832060017fffffffffffffffffffffffffffffffffffffffffffffffffffffffffffffff008254161790557f2f8788117e7eff1d82e926ec794901d17c78024a50270940304540a733656f0d339380a4600190565b505090565b906000918083528260205273ffffffffffffffffffffffffffffffffffffffff6040842092169182845260205260ff60408420541615600014612e635780835282602052604083208284526020526040832060017fffffffffffffffffffffffffffffffffffffffffffffffffffffffffffffff008254161790557f2f8788117e7eff1d82e926ec794901d17c78024a50270940304540a733656f0d339380a4600190565b73ffffffffffffffffffffffffffffffffffffffff1660008181527f5111aeae4aa79889928e72f88b5872109754de9d419ea9a4e3df5fba21d4d46f60205260408120549091907f21702c8af46127c7fa207f89d0b0a8441bb32959a0ac7df790e9ab1a25c989269060ff1615612e63578083528260205260408320828452602052604083207fffffffffffffffffffffffffffffffffffffffffffffffffffffffffffffff0081541690557ff6391f5c32d9c69d2a47ea670b442974b53935d1edc7fd64eb21e047a839171b339380a4600190565b906000918083528260205273ffffffffffffffffffffffffffffffffffffffff6040842092169182845260205260ff604084205416600014612e63578083528260205260408320828452602052604083207fffffffffffffffffffffffffffffffffffffffffffffffffffffffffffffff0081541690557ff6391f5c32d9c69d2a47ea670b442974b53935d1edc7fd64eb21e047a839171b339380a4600190565b1561308b57565b60646040517f08c379a000000000000000000000000000000000000000000000000000000000815260206004820152601160248201527f496e76616c696420726563697069656e740000000000000000000000000000006044820152fd5b156130f057565b60646040517f08c379a000000000000000000000000000000000000000000000000000000000815260206004820152601060248201527f416d6f756e7420746f6f20736d616c6c000000000000000000000000000000006044820152fd5b1561315557565b60646040517f08c379a000000000000000000000000000000000000000000000000000000000815260206004820152601060248201527f416d6f756e7420746f6f206c61726765000000000000000000000000000000006044820152fd5b7fffffffffffffffffffffffffffffffffffffffffffffffffffffffffffffffff81146131e05760010190565b7f4e487b7100000000000000000000000000000000000000000000000000000000600052601160045260246000fd5b9060038110156128f8577fffffffffffffffffffffff00ffffffffffffffffffffffffffffffffffffffff74ff000000000000000000000000000000000000000083549260a01b169116179055565b919082018092116131e057565b805468010000000000000000811015612a3f5761328d916001820181556128a4565b7fffffffffffffffffffffffffffffffffffffffffffffffffffffffffffffffff829392549160031b92831b921b1916179055565b908160209103126119c9575180151581036119c95790565b60ff600254166132e657565b60046040517fd93c0665000000000000000000000000000000000000000000000000000000008152fd5b1561331757565b60646040517f08c379a000000000000000000000000000000000000000000000000000000000815260206004820152601660248201527f5265717565737420646f6573206e6f74206578697374000000000000000000006044820152fd5b1561337c57565b60646040517f08c379a000000000000000000000000000000000000000000000000000000000815260206004820152601960248201527f496e76616c6964207265717565737420646972656374696f6e000000000000006044820152fd5b818102929181159184041417156131e057565b81156133f7570490565b7f4e487b7100000000000000000000000000000000000000000000000000000000600052601260045260246000fdfea264697066735822122073c49787b276b02aabdf2f70305ebfd6414ffc9a24284a46e7e2d446147f43cd64736f6c634300081400332f8788117e7eff1d82e926ec794901d17c78024a50270940304540a733656f0d","opcodes":"PUSH1 0x80 CALLVALUE PUSH3 0x121 JUMPI PUSH1 0x1F PUSH3 0x3815 CODESIZE DUP2 SWAP1 SUB SWAP2 DUP3 ADD PUSH1 0x1F NOT AND DUP4 ADD SWAP2 PUSH1 0x1 PUSH1 0x1 PUSH1 0x40 SHL SUB DUP4 GT DUP5 DUP5 LT OR PUSH3 0x126 JUMPI DUP1 DUP5 SWAP3 PUSH1 0x20 SWAP5 PUSH1 0x40 MSTORE DUP4 CODECOPY DUP2 ADD SUB SLT PUSH3 0x121 JUMPI MLOAD PUSH1 0x1 PUSH1 0x1 PUSH1 0xA0 SHL SUB DUP2 AND DUP1 DUP3 SUB PUSH3 0x121 JUMPI PUSH1 0x1 DUP1 SSTORE PUSH7 0x38D7EA4C68000 PUSH1 0x6 SSTORE PUSH9 0x3635C9ADC5DEA00000 PUSH1 0x7 SSTORE ISZERO PUSH3 0xDC JUMPI PUSH1 0x2 DUP1 SLOAD PUSH2 0x100 PUSH1 0x1 PUSH1 0xA8 SHL SUB NOT AND PUSH1 0x8 SWAP3 SWAP1 SWAP3 SHL PUSH2 0x100 PUSH1 0x1 PUSH1 0xA8 SHL SUB AND SWAP2 SWAP1 SWAP2 OR SWAP1 SSTORE PUSH3 0xA7 CALLER PUSH3 0x13C JUMP JUMPDEST POP PUSH3 0xB3 CALLER PUSH3 0x1BC JUMP JUMPDEST POP PUSH3 0xBF CALLER PUSH3 0x25E JUMP JUMPDEST POP PUSH3 0xCB CALLER PUSH3 0x2FB JUMP JUMPDEST POP PUSH1 0x40 MLOAD PUSH2 0x345C SWAP1 DUP2 PUSH3 0x399 DUP3 CODECOPY RETURN JUMPDEST PUSH1 0x40 MLOAD PUSH3 0x461BCD PUSH1 0xE5 SHL DUP2 MSTORE PUSH1 0x20 PUSH1 0x4 DUP3 ADD MSTORE PUSH1 0x1B PUSH1 0x24 DUP3 ADD MSTORE PUSH32 0x496E76616C696420736574746C656D656E7420636F6E74726163740000000000 PUSH1 0x44 DUP3 ADD MSTORE PUSH1 0x64 SWAP1 REVERT JUMPDEST PUSH1 0x0 DUP1 REVERT JUMPDEST PUSH4 0x4E487B71 PUSH1 0xE0 SHL PUSH1 0x0 MSTORE PUSH1 0x41 PUSH1 0x4 MSTORE PUSH1 0x24 PUSH1 0x0 REVERT JUMPDEST PUSH1 0x1 PUSH1 0x1 PUSH1 0xA0 SHL SUB AND PUSH1 0x0 DUP2 DUP2 MSTORE PUSH32 0xAD3228B676F7D3CD4284A5443F17F1962B36E491B30A40B2405849E597BA5FB5 PUSH1 0x20 MSTORE PUSH1 0x40 DUP2 KECCAK256 SLOAD SWAP1 SWAP2 SWAP1 PUSH1 0xFF AND PUSH3 0x1B8 JUMPI DUP2 DUP1 MSTORE DUP2 PUSH1 0x20 MSTORE PUSH1 0x40 DUP3 KECCAK256 DUP2 DUP4 MSTORE PUSH1 0x20 MSTORE PUSH1 0x40 DUP3 KECCAK256 PUSH1 0x1 PUSH1 0xFF NOT DUP3 SLOAD AND OR SWAP1 SSTORE CALLER SWAP2 PUSH1 0x0 DUP1 MLOAD PUSH1 0x20 PUSH3 0x37F5 DUP4 CODECOPY DUP2 MLOAD SWAP2 MSTORE DUP2 DUP1 LOG4 PUSH1 0x1 SWAP1 JUMP JUMPDEST POP SWAP1 JUMP JUMPDEST PUSH1 0x1 PUSH1 0x1 PUSH1 0xA0 SHL SUB AND PUSH1 0x0 DUP2 DUP2 MSTORE PUSH32 0xD4654AAFFC87C2C9A3FD6A99770BC308FAD799420104834DDCCA8973D009039 PUSH1 0x20 MSTORE PUSH1 0x40 DUP2 KECCAK256 SLOAD SWAP1 SWAP2 SWAP1 PUSH32 0x7045ADFE67D5F94DBFDDCDB901E44BEF55BAACABB398C7CDDDA1BFD7620B1568 SWAP1 PUSH1 0xFF AND PUSH3 0x259 JUMPI DUP1 DUP4 MSTORE DUP3 PUSH1 0x20 MSTORE PUSH1 0x40 DUP4 KECCAK256 DUP3 DUP5 MSTORE PUSH1 0x20 MSTORE PUSH1 0x40 DUP4 KECCAK256 PUSH1 0x1 PUSH1 0xFF NOT DUP3 SLOAD AND OR SWAP1 SSTORE PUSH1 0x0 DUP1 MLOAD PUSH1 0x20 PUSH3 0x37F5 DUP4 CODECOPY DUP2 MLOAD SWAP2 MSTORE CALLER SWAP4 DUP1 LOG4 PUSH1 0x1 SWAP1 JUMP JUMPDEST POP POP SWAP1 JUMP JUMPDEST PUSH1 0x1 PUSH1 0x1 PUSH1 0xA0 SHL SUB AND PUSH1 0x0 DUP2 DUP2 MSTORE PUSH32 0x5111AEAE4AA79889928E72F88B5872109754DE9D419EA9A4E3DF5FBA21D4D46F PUSH1 0x20 MSTORE PUSH1 0x40 DUP2 KECCAK256 SLOAD SWAP1 SWAP2 SWAP1 PUSH32 0x21702C8AF46127C7FA207F89D0B0A8441BB32959A0AC7DF790E9AB1A25C98926 SWAP1 PUSH1 0xFF AND PUSH3 0x259 JUMPI DUP1 DUP4 MSTORE DUP3 PUSH1 0x20 MSTORE PUSH1 0x40 DUP4 KECCAK256 DUP3 DUP5 MSTORE PUSH1 0x20 MSTORE PUSH1 0x40 DUP4 KECCAK256 PUSH1 0x1 PUSH1 0xFF NOT DUP3 SLOAD AND OR SWAP1 SSTORE PUSH1 0x0 DUP1 MLOAD PUSH1 0x20 PUSH3 0x37F5 DUP4 CODECOPY DUP2 MLOAD SWAP2 MSTORE CALLER SWAP4 DUP1 LOG4 PUSH1 0x1 SWAP1 JUMP JUMPDEST PUSH1 0x1 PUSH1 0x1 PUSH1 0xA0 SHL SUB AND PUSH1 0x0 DUP2 DUP2 MSTORE PUSH32 0x3C1B1854AB1360ABBB06C8D4C6B2672D4B8CEDC5EFF522AB19E51D5CB8FDBD46 PUSH1 0x20 MSTORE PUSH1 0x40 DUP2 KECCAK256 SLOAD SWAP1 SWAP2 SWAP1 PUSH32 0xBF233DD2AAFEB4D50879C4AA5C81E96D92F6E6945C906A58F9F2D1C1631B4B26 SWAP1 PUSH1 0xFF AND PUSH3 0x259 JUMPI DUP1 DUP4 MSTORE DUP3 PUSH1 0x20 MSTORE PUSH1 0x40 DUP4 KECCAK256 DUP3 DUP5 MSTORE PUSH1 0x20 MSTORE PUSH1 0x40 DUP4 KECCAK256 PUSH1 0x1 PUSH1 0xFF NOT DUP3 SLOAD AND OR SWAP1 SSTORE PUSH1 0x0 DUP1 MLOAD PUSH1 0x20 PUSH3 0x37F5 DUP4 CODECOPY DUP2 MLOAD SWAP2 MSTORE CALLER SWAP4 DUP1 LOG4 PUSH1 0x1 SWAP1 JUMP INVALID PUSH1 0x80 DUP1 PUSH1 0x40 MSTORE PUSH1 0x4 CALLDATASIZE LT ISZERO PUSH2 0x1D JUMPI JUMPDEST POP CALLDATASIZE ISZERO PUSH2 0x1B JUMPI PUSH1 0x0 DUP1 REVERT JUMPDEST STOP JUMPDEST PUSH1 0x0 SWAP1 DUP2 CALLDATALOAD PUSH1 0xE0 SHR SWAP1 DUP2 PUSH4 0x1FFC9A7 EQ PUSH2 0x27A0 JUMPI POP DUP1 PUSH4 0xF5093D0 EQ PUSH2 0x2552 JUMPI DUP1 PUSH4 0x20DF4359 EQ PUSH2 0x24F9 JUMPI DUP1 PUSH4 0x248A9CA3 EQ PUSH2 0x24AF JUMPI DUP1 PUSH4 0x263CB6B6 EQ PUSH2 0x242E JUMPI DUP1 PUSH4 0x2F2FF15D EQ PUSH2 0x23D3 JUMPI DUP1 PUSH4 0x3008AFED EQ PUSH2 0x230B JUMPI DUP1 PUSH4 0x36568ABE EQ PUSH2 0x2280 JUMPI DUP1 PUSH4 0x3DE739E7 EQ PUSH2 0x1E59 JUMPI DUP1 PUSH4 0x3F4BA83A EQ PUSH2 0x1D9A JUMPI DUP1 PUSH4 0x427AC0CA EQ PUSH2 0x1CF5 JUMPI DUP1 PUSH4 0x4BE40FD1 EQ PUSH2 0x1C9C JUMPI DUP1 PUSH4 0x58E312C4 EQ PUSH2 0x1C60 JUMPI DUP1 PUSH4 0x5A1C0366 EQ PUSH2 0x1BEC JUMPI DUP1 PUSH4 0x5C975ABB EQ PUSH2 0x1BAB JUMPI DUP1 PUSH4 0x5F81A57C EQ PUSH2 0x1B6F JUMPI DUP1 PUSH4 0x6CA56267 EQ PUSH2 0x19CE JUMPI DUP1 PUSH4 0x6FA50DC0 EQ PUSH2 0x113B JUMPI DUP1 PUSH4 0x7FCE0002 EQ PUSH2 0x10F8 JUMPI DUP1 PUSH4 0x82B12DD7 EQ PUSH2 0x10BC JUMPI DUP1 PUSH4 0x84536017 EQ PUSH2 0x1058 JUMPI DUP1 PUSH4 0x8456CB59 EQ PUSH2 0xFC1 JUMPI DUP1 PUSH4 0x886688C1 EQ PUSH2 0xF80 JUMPI DUP1 PUSH4 0x8A11D7C9 EQ PUSH2 0xF30 JUMPI DUP1 PUSH4 0x8AEA61DC EQ PUSH2 0xEF4 JUMPI DUP1 PUSH4 0x917BB998 EQ PUSH2 0xE2B JUMPI DUP1 PUSH4 0x91D14854 EQ PUSH2 0xDB4 JUMPI DUP1 PUSH4 0x973A814E EQ PUSH2 0xD78 JUMPI DUP1 PUSH4 0x9A7C91D9 EQ PUSH2 0xD3C JUMPI DUP1 PUSH4 0x9F89C8A2 EQ PUSH2 0xC73 JUMPI DUP1 PUSH4 0xA217FDDF EQ PUSH2 0xC39 JUMPI DUP1 PUSH4 0xAC2E4936 EQ PUSH2 0xBEC JUMPI DUP1 PUSH4 0xB337CF74 EQ PUSH2 0xB0F JUMPI DUP1 PUSH4 0xBCC6587F EQ PUSH2 0x934 JUMPI DUP1 PUSH4 0xC332226E EQ PUSH2 0x832 JUMPI DUP1 PUSH4 0xC49BAEBE EQ PUSH2 0x7D9 JUMPI DUP1 PUSH4 0xC7F18FE5 EQ PUSH2 0x765 JUMPI DUP1 PUSH4 0xD547741F EQ PUSH2 0x706 JUMPI DUP1 PUSH4 0xE91A8B08 EQ PUSH2 0x2E9 JUMPI DUP1 PUSH4 0xEA42418B EQ PUSH2 0x294 JUMPI PUSH4 0xFA52C7D8 SUB PUSH2 0xF JUMPI CALLVALUE PUSH2 0x291 JUMPI PUSH1 0x20 PUSH32 0xFFFFFFFFFFFFFFFFFFFFFFFFFFFFFFFFFFFFFFFFFFFFFFFFFFFFFFFFFFFFFFFC CALLDATASIZE ADD SLT PUSH2 0x291 JUMPI PUSH1 0x40 SWAP1 PUSH20 0xFFFFFFFFFFFFFFFFFFFFFFFFFFFFFFFFFFFFFFFF PUSH2 0x238 PUSH2 0x285E JUMP JUMPDEST AND DUP2 MSTORE PUSH1 0xA PUSH1 0x20 MSTORE KECCAK256 PUSH1 0xFF DUP2 SLOAD AND PUSH2 0x28D PUSH1 0x1 DUP4 ADD SLOAD SWAP3 PUSH1 0x2 DUP2 ADD SLOAD SWAP1 PUSH1 0x4 PUSH1 0x3 DUP3 ADD SLOAD SWAP2 ADD SLOAD SWAP2 PUSH1 0x40 MLOAD SWAP6 DUP7 SWAP6 DUP7 SWAP2 SWAP3 PUSH1 0x80 SWAP4 SWAP7 SWAP6 SWAP5 SWAP2 SWAP7 PUSH1 0xA0 DUP5 ADD SWAP8 ISZERO ISZERO DUP5 MSTORE PUSH1 0x20 DUP5 ADD MSTORE PUSH1 0x40 DUP4 ADD MSTORE PUSH1 0x60 DUP3 ADD MSTORE ADD MSTORE JUMP JUMPDEST SUB SWAP1 RETURN JUMPDEST DUP1 REVERT JUMPDEST POP CALLVALUE PUSH2 0x291 JUMPI DUP1 PUSH32 0xFFFFFFFFFFFFFFFFFFFFFFFFFFFFFFFFFFFFFFFFFFFFFFFFFFFFFFFFFFFFFFFC CALLDATASIZE ADD SLT PUSH2 0x291 JUMPI PUSH1 0x20 PUSH20 0xFFFFFFFFFFFFFFFFFFFFFFFFFFFFFFFFFFFFFFFF PUSH1 0x2 SLOAD PUSH1 0x8 SHR AND PUSH1 0x40 MLOAD SWAP1 DUP2 MSTORE RETURN JUMPDEST POP CALLVALUE PUSH2 0x291 JUMPI PUSH1 0x60 PUSH32 0xFFFFFFFFFFFFFFFFFFFFFFFFFFFFFFFFFFFFFFFFFFFFFFFFFFFFFFFFFFFFFFFC CALLDATASIZE ADD SLT PUSH2 0x291 JUMPI PUSH8 0xFFFFFFFFFFFFFFFF SWAP1 PUSH1 0x4 CALLDATALOAD PUSH1 0x24 CALLDATALOAD DUP4 DUP2 GT PUSH2 0x702 JUMPI PUSH2 0x33E SWAP1 CALLDATASIZE SWAP1 PUSH1 0x4 ADD PUSH2 0x2AAF JUMP JUMPDEST PUSH2 0x346 PUSH2 0x2C3C JUMP JUMPDEST PUSH2 0x34E PUSH2 0x32DA JUMP JUMPDEST DUP2 DUP4 MSTORE PUSH1 0x20 PUSH1 0x8 DUP2 MSTORE PUSH1 0x40 DUP5 KECCAK256 PUSH2 0x367 DUP2 SLOAD ISZERO ISZERO PUSH2 0x3310 JUMP JUMPDEST PUSH1 0x6 DUP2 ADD SWAP1 DUP2 SLOAD SWAP7 PUSH1 0xFF DUP9 AND PUSH1 0x5 DUP2 LT ISZERO PUSH2 0x6D5 JUMPI PUSH2 0x677 JUMPI PUSH1 0xB DUP3 ADD SWAP3 PUSH2 0x396 PUSH1 0xFF DUP6 SLOAD PUSH1 0xA0 SHR AND ISZERO PUSH2 0x3375 JUMP JUMPDEST PUSH1 0x8 DUP4 ADD SLOAD TIMESTAMP GT PUSH2 0x619 JUMPI PUSH32 0xFFFFFFFFFFFFFFFFFFFFFFFFFFFFFFFFFFFFFFFFFFFFFFFFFFFFFFFFFFFFFF00 SWAP8 SWAP9 PUSH1 0x1 SWAP9 DUP10 SWAP2 AND OR SWAP1 SSTORE PUSH1 0xA DUP3 ADD SWAP1 DUP6 MLOAD SWAP1 DUP2 GT PUSH2 0x5EC JUMPI PUSH2 0x3E5 DUP3 SLOAD PUSH2 0x2B24 JUMP JUMPDEST PUSH1 0x1F DUP2 GT PUSH2 0x5A5 JUMPI JUMPDEST POP DUP5 PUSH1 0x1F DUP3 GT PUSH1 0x1 EQ PUSH2 0x4DE JUMPI SWAP3 PUSH2 0x4C3 SWAP6 SWAP3 DUP3 PUSH32 0x11E030CA8BA35E719C03C56FA4F16240DCC98AA67832E96DB65C3538A92126EC SWAP9 SWAP7 SWAP4 PUSH1 0x60 SWAP7 DUP14 SWAP2 PUSH2 0x4D3 JUMPI JUMPDEST POP PUSH32 0xFFFFFFFFFFFFFFFFFFFFFFFFFFFFFFFFFFFFFFFFFFFFFFFFFFFFFFFFFFFFFFFF DUP3 DUP14 SHL SWAP3 PUSH1 0x3 SHL SHR NOT AND OR SWAP1 SSTORE JUMPDEST PUSH1 0x9 PUSH1 0x44 CALLDATALOAD SWAP2 ADD SSTORE CALLER PUSH32 0xFFFFFFFFFFFFFFFFFFFFFFFF0000000000000000000000000000000000000000 DUP3 SLOAD AND OR SWAP1 SSTORE CALLER DUP9 MSTORE PUSH1 0xA DUP2 MSTORE PUSH1 0x40 DUP9 KECCAK256 DUP8 DUP2 ADD PUSH2 0x4A8 DUP2 SLOAD PUSH2 0x31B3 JUMP JUMPDEST SWAP1 SSTORE PUSH1 0x3 TIMESTAMP SWAP2 ADD SSTORE PUSH1 0x40 MLOAD SWAP7 DUP8 MSTORE DUP7 ADD MSTORE PUSH1 0x60 DUP6 ADD SWAP1 PUSH2 0x294A JUMP JUMPDEST SWAP3 TIMESTAMP PUSH1 0x40 DUP3 ADD MSTORE DUP1 CALLER SWAP5 SUB SWAP1 LOG3 DUP1 RETURN JUMPDEST SWAP1 POP DUP8 ADD MLOAD CODESIZE PUSH2 0x430 JUMP JUMPDEST DUP3 DUP11 MSTORE DUP6 DUP11 KECCAK256 DUP10 SWAP3 SWAP2 PUSH32 0xFFFFFFFFFFFFFFFFFFFFFFFFFFFFFFFFFFFFFFFFFFFFFFFFFFFFFFFFFFFFFFE0 DUP4 AND DUP13 JUMPDEST DUP2 DUP2 LT PUSH2 0x58E JUMPI POP SWAP3 PUSH2 0x4C3 SWAP9 SWAP6 SWAP3 PUSH32 0x11E030CA8BA35E719C03C56FA4F16240DCC98AA67832E96DB65C3538A92126EC SWAP11 SWAP9 SWAP6 SWAP3 DUP3 PUSH1 0x60 SWAP10 SWAP7 LT PUSH2 0x557 JUMPI JUMPDEST POP POP DUP2 SHL ADD SWAP1 SSTORE PUSH2 0x460 JUMP JUMPDEST DUP10 ADD MLOAD PUSH32 0xFFFFFFFFFFFFFFFFFFFFFFFFFFFFFFFFFFFFFFFFFFFFFFFFFFFFFFFFFFFFFFFF PUSH1 0xF8 DUP5 PUSH1 0x3 SHL AND SHR NOT AND SWAP1 SSTORE CODESIZE DUP1 PUSH2 0x54B JUMP JUMPDEST DUP11 DUP4 ADD MLOAD DUP5 SSTORE DUP13 SWAP6 SWAP1 SWAP4 ADD SWAP3 SWAP2 DUP10 ADD SWAP2 DUP10 ADD PUSH2 0x50C JUMP JUMPDEST DUP3 DUP11 MSTORE DUP6 DUP11 KECCAK256 PUSH1 0x1F DUP4 ADD PUSH1 0x5 SHR DUP2 ADD SWAP2 DUP8 DUP5 LT PUSH2 0x5E2 JUMPI JUMPDEST PUSH1 0x1F ADD PUSH1 0x5 SHR ADD SWAP1 DUP10 SWAP1 JUMPDEST DUP3 DUP2 LT PUSH2 0x5D6 JUMPI POP POP PUSH2 0x3EE JUMP JUMPDEST PUSH1 0x0 DUP2 SSTORE ADD DUP10 SWAP1 PUSH2 0x5C8 JUMP JUMPDEST SWAP1 SWAP2 POP DUP2 SWAP1 PUSH2 0x5BD JUMP JUMPDEST PUSH1 0x24 DUP10 PUSH32 0x4E487B7100000000000000000000000000000000000000000000000000000000 DUP2 MSTORE PUSH1 0x41 PUSH1 0x4 MSTORE REVERT JUMPDEST PUSH1 0x64 DUP6 PUSH1 0x40 MLOAD SWAP1 PUSH32 0x8C379A000000000000000000000000000000000000000000000000000000000 DUP3 MSTORE PUSH1 0x4 DUP3 ADD MSTORE PUSH1 0xF PUSH1 0x24 DUP3 ADD MSTORE PUSH32 0x5265717565737420657870697265640000000000000000000000000000000000 PUSH1 0x44 DUP3 ADD MSTORE REVERT JUMPDEST PUSH1 0x64 DUP5 PUSH1 0x40 MLOAD SWAP1 PUSH32 0x8C379A000000000000000000000000000000000000000000000000000000000 DUP3 MSTORE PUSH1 0x4 DUP3 ADD MSTORE PUSH1 0x13 PUSH1 0x24 DUP3 ADD MSTORE PUSH32 0x52657175657374206E6F742070656E64696E6700000000000000000000000000 PUSH1 0x44 DUP3 ADD MSTORE REVERT JUMPDEST PUSH1 0x24 DUP9 PUSH32 0x4E487B7100000000000000000000000000000000000000000000000000000000 DUP2 MSTORE PUSH1 0x21 PUSH1 0x4 MSTORE REVERT JUMPDEST DUP3 DUP1 REVERT JUMPDEST POP CALLVALUE PUSH2 0x291 JUMPI PUSH1 0x40 PUSH32 0xFFFFFFFFFFFFFFFFFFFFFFFFFFFFFFFFFFFFFFFFFFFFFFFFFFFFFFFFFFFFFFFC CALLDATASIZE ADD SLT PUSH2 0x291 JUMPI PUSH2 0x761 PUSH1 0x4 CALLDATALOAD PUSH2 0x744 PUSH2 0x2881 JUMP JUMPDEST SWAP1 DUP1 DUP5 MSTORE DUP4 PUSH1 0x20 MSTORE PUSH2 0x75C PUSH1 0x1 PUSH1 0x40 DUP7 KECCAK256 ADD SLOAD PUSH2 0x2D65 JUMP JUMPDEST PUSH2 0x2FE3 JUMP JUMPDEST POP DUP1 RETURN JUMPDEST POP CALLVALUE PUSH2 0x291 JUMPI PUSH1 0x20 PUSH32 0xFFFFFFFFFFFFFFFFFFFFFFFFFFFFFFFFFFFFFFFFFFFFFFFFFFFFFFFFFFFFFFFC CALLDATASIZE ADD SLT PUSH2 0x291 JUMPI PUSH32 0x1093DB028025D2405A1AEA589A8652D1F919BD517E7C7E858E0AF317584D1913 PUSH1 0x40 PUSH1 0x4 CALLDATALOAD PUSH2 0x7C3 PUSH2 0x2D2B JUMP JUMPDEST PUSH1 0x7 SLOAD SWAP1 DUP1 PUSH1 0x7 SSTORE DUP3 MLOAD SWAP2 DUP3 MSTORE PUSH1 0x20 DUP3 ADD MSTORE LOG1 DUP1 RETURN JUMPDEST POP CALLVALUE PUSH2 0x291 JUMPI DUP1 PUSH32 0xFFFFFFFFFFFFFFFFFFFFFFFFFFFFFFFFFFFFFFFFFFFFFFFFFFFFFFFFFFFFFFFC CALLDATASIZE ADD SLT PUSH2 0x291 JUMPI PUSH1 0x20 PUSH1 0x40 MLOAD PUSH32 0x21702C8AF46127C7FA207F89D0B0A8441BB32959A0AC7DF790E9AB1A25C98926 DUP2 MSTORE RETURN JUMPDEST POP CALLVALUE PUSH2 0x291 JUMPI PUSH1 0x20 PUSH32 0xFFFFFFFFFFFFFFFFFFFFFFFFFFFFFFFFFFFFFFFFFFFFFFFFFFFFFFFFFFFFFFFC CALLDATASIZE ADD SLT PUSH2 0x291 JUMPI PUSH2 0x86A PUSH2 0x285E JUMP JUMPDEST PUSH2 0x872 PUSH2 0x2D2B JUMP JUMPDEST PUSH20 0xFFFFFFFFFFFFFFFFFFFFFFFFFFFFFFFFFFFFFFFF DUP2 AND ISZERO PUSH2 0x8D6 JUMPI PUSH32 0xFFFFFFFFFFFFFFFFFFFFFF0000000000000000000000000000000000000000FF PUSH21 0xFFFFFFFFFFFFFFFFFFFFFFFFFFFFFFFFFFFFFFFF00 PUSH1 0x2 SLOAD SWAP3 PUSH1 0x8 SHL AND SWAP2 AND OR PUSH1 0x2 SSTORE DUP1 RETURN JUMPDEST PUSH1 0x64 PUSH1 0x40 MLOAD PUSH32 0x8C379A000000000000000000000000000000000000000000000000000000000 DUP2 MSTORE PUSH1 0x20 PUSH1 0x4 DUP3 ADD MSTORE PUSH1 0x1B PUSH1 0x24 DUP3 ADD MSTORE PUSH32 0x496E76616C696420736574746C656D656E7420636F6E74726163740000000000 PUSH1 0x44 DUP3 ADD MSTORE REVERT JUMPDEST POP CALLVALUE PUSH2 0x291 JUMPI DUP1 PUSH32 0xFFFFFFFFFFFFFFFFFFFFFFFFFFFFFFFFFFFFFFFFFFFFFFFFFFFFFFFFFFFFFFFC CALLDATASIZE ADD SLT PUSH2 0x291 JUMPI PUSH2 0x96B PUSH2 0x32DA JUMP JUMPDEST CALLER DUP2 MSTORE PUSH1 0x20 PUSH1 0xA DUP2 MSTORE PUSH1 0xFF PUSH1 0x40 DUP4 KECCAK256 SLOAD AND PUSH2 0xAB1 JUMPI PUSH1 0x2 SLOAD PUSH1 0x7 SLOAD PUSH1 0x40 MLOAD PUSH32 0x23B872DD00000000000000000000000000000000000000000000000000000000 DUP2 MSTORE CALLER PUSH1 0x4 DUP3 ADD MSTORE ADDRESS PUSH1 0x24 DUP3 ADD MSTORE PUSH1 0x44 DUP2 ADD SWAP2 SWAP1 SWAP2 MSTORE SWAP1 DUP3 SWAP1 DUP3 SWAP1 PUSH1 0x8 SHR PUSH20 0xFFFFFFFFFFFFFFFFFFFFFFFFFFFFFFFFFFFFFFFF AND DUP2 DUP7 DUP2 PUSH1 0x64 DUP2 ADD SUB SWAP3 GAS CALL DUP1 ISZERO PUSH2 0xAA6 JUMPI PUSH2 0xA79 JUMPI JUMPDEST POP CALLER DUP3 MSTORE PUSH1 0xA DUP2 MSTORE PUSH1 0x40 DUP3 KECCAK256 PUSH1 0x1 PUSH32 0xFFFFFFFFFFFFFFFFFFFFFFFFFFFFFFFFFFFFFFFFFFFFFFFFFFFFFFFFFFFFFF00 DUP3 SLOAD AND OR DUP2 SSTORE PUSH1 0x7 SLOAD PUSH1 0x4 DUP3 ADD SSTORE PUSH1 0x3 TIMESTAMP SWAP2 ADD SSTORE PUSH2 0xA40 CALLER PUSH2 0x2D8B JUMP JUMPDEST POP PUSH1 0x7 SLOAD SWAP1 PUSH1 0x40 MLOAD SWAP2 DUP3 MSTORE TIMESTAMP SWAP1 DUP3 ADD MSTORE PUSH32 0x4FEDF9289A156B214915BD5C2DB58D3EE16ACC185E80DF66EE404E4573C821E1 PUSH1 0x40 CALLER SWAP3 LOG2 DUP1 RETURN JUMPDEST PUSH2 0xA98 SWAP1 DUP3 RETURNDATASIZE DUP5 GT PUSH2 0xA9F JUMPI JUMPDEST PUSH2 0xA90 DUP2 DUP4 PUSH2 0x2A6E JUMP JUMPDEST DUP2 ADD SWAP1 PUSH2 0x32C2 JUMP JUMPDEST POP CODESIZE PUSH2 0x9F4 JUMP JUMPDEST POP RETURNDATASIZE PUSH2 0xA86 JUMP JUMPDEST PUSH1 0x40 MLOAD RETURNDATASIZE DUP6 DUP3 RETURNDATACOPY RETURNDATASIZE SWAP1 REVERT JUMPDEST PUSH1 0x64 SWAP1 PUSH1 0x40 MLOAD SWAP1 PUSH32 0x8C379A000000000000000000000000000000000000000000000000000000000 DUP3 MSTORE PUSH1 0x4 DUP3 ADD MSTORE PUSH1 0x12 PUSH1 0x24 DUP3 ADD MSTORE PUSH32 0x416C726561647920726567697374657265640000000000000000000000000000 PUSH1 0x44 DUP3 ADD MSTORE REVERT JUMPDEST POP CALLVALUE PUSH2 0x291 JUMPI PUSH1 0x20 DUP1 PUSH32 0xFFFFFFFFFFFFFFFFFFFFFFFFFFFFFFFFFFFFFFFFFFFFFFFFFFFFFFFFFFFFFFFC CALLDATASIZE ADD SLT PUSH2 0xBE8 JUMPI PUSH20 0xFFFFFFFFFFFFFFFFFFFFFFFFFFFFFFFFFFFFFFFF PUSH2 0xB5D PUSH2 0x285E JUMP JUMPDEST AND DUP3 MSTORE PUSH1 0x9 DUP2 MSTORE PUSH1 0x40 DUP3 KECCAK256 PUSH1 0x40 MLOAD SWAP3 DUP4 DUP4 DUP4 SLOAD SWAP2 DUP3 DUP2 MSTORE ADD SWAP1 DUP2 SWAP4 DUP4 MSTORE DUP5 DUP4 KECCAK256 SWAP1 DUP4 JUMPDEST DUP2 DUP2 LT PUSH2 0xBD4 JUMPI POP POP POP DUP5 PUSH2 0xB96 SWAP2 SUB DUP6 PUSH2 0x2A6E JUMP JUMPDEST PUSH1 0x40 MLOAD SWAP4 DUP4 DUP6 SWAP5 DUP6 ADD SWAP2 DUP2 DUP7 MSTORE MLOAD DUP1 SWAP3 MSTORE PUSH1 0x40 DUP6 ADD SWAP4 SWAP3 JUMPDEST DUP3 DUP2 LT PUSH2 0xBBD JUMPI POP POP POP POP SUB SWAP1 RETURN JUMPDEST DUP4 MLOAD DUP6 MSTORE DUP7 SWAP6 POP SWAP4 DUP2 ADD SWAP4 SWAP3 DUP2 ADD SWAP3 PUSH1 0x1 ADD PUSH2 0xBAE JUMP JUMPDEST DUP3 SLOAD DUP5 MSTORE SWAP3 DUP7 ADD SWAP3 PUSH1 0x1 SWAP3 DUP4 ADD SWAP3 ADD PUSH2 0xB80 JUMP JUMPDEST POP DUP1 REVERT JUMPDEST POP CALLVALUE PUSH2 0x291 JUMPI PUSH1 0x20 PUSH32 0xFFFFFFFFFFFFFFFFFFFFFFFFFFFFFFFFFFFFFFFFFFFFFFFFFFFFFFFFFFFFFFFC CALLDATASIZE ADD SLT PUSH2 0x291 JUMPI PUSH1 0xFF PUSH1 0x40 PUSH1 0x20 SWAP3 PUSH1 0x4 CALLDATALOAD DUP2 MSTORE PUSH1 0xB DUP5 MSTORE KECCAK256 SLOAD AND PUSH1 0x40 MLOAD SWAP1 ISZERO ISZERO DUP2 MSTORE RETURN JUMPDEST POP CALLVALUE PUSH2 0x291 JUMPI DUP1 PUSH32 0xFFFFFFFFFFFFFFFFFFFFFFFFFFFFFFFFFFFFFFFFFFFFFFFFFFFFFFFFFFFFFFFC CALLDATASIZE ADD SLT PUSH2 0x291 JUMPI PUSH1 0x20 SWAP1 PUSH1 0x40 MLOAD SWAP1 DUP2 MSTORE RETURN JUMPDEST POP CALLVALUE PUSH2 0x291 JUMPI PUSH1 0x20 PUSH32 0xFFFFFFFFFFFFFFFFFFFFFFFFFFFFFFFFFFFFFFFFFFFFFFFFFFFFFFFFFFFFFFFC CALLDATASIZE ADD SLT PUSH2 0x291 JUMPI PUSH1 0x4 CALLDATALOAD DUP2 MSTORE PUSH1 0x8 PUSH1 0x20 MSTORE PUSH1 0x40 SWAP1 KECCAK256 DUP1 SLOAD PUSH20 0xFFFFFFFFFFFFFFFFFFFFFFFFFFFFFFFFFFFFFFFF SWAP2 DUP3 PUSH1 0x1 DUP3 ADD SLOAD AND SWAP1 PUSH1 0x2 DUP2 ADD SLOAD SWAP4 DUP1 PUSH1 0x3 DUP4 ADD SLOAD AND SWAP2 PUSH1 0x4 DUP2 ADD SLOAD PUSH1 0x5 DUP3 ADD SLOAD PUSH1 0x6 DUP4 ADD SLOAD PUSH1 0xFF AND PUSH1 0x7 DUP5 ADD SLOAD SWAP1 PUSH1 0x8 DUP6 ADD SLOAD SWAP3 PUSH1 0x9 DUP7 ADD SLOAD SWAP5 PUSH1 0xA DUP8 ADD PUSH2 0xD10 SWAP1 PUSH2 0x2B77 JUMP JUMPDEST SWAP7 PUSH1 0xB ADD SLOAD SWAP9 PUSH1 0x40 MLOAD SWAP13 DUP14 SWAP13 DUP14 SWAP13 DUP12 DUP14 PUSH1 0xA0 SHR PUSH1 0xFF AND SWAP14 AND SWAP12 DUP4 PUSH1 0xA0 SHR PUSH1 0xFF AND SWAP4 AND SWAP2 PUSH2 0x28D SWAP15 PUSH2 0x298D JUMP JUMPDEST POP CALLVALUE PUSH2 0x291 JUMPI DUP1 PUSH32 0xFFFFFFFFFFFFFFFFFFFFFFFFFFFFFFFFFFFFFFFFFFFFFFFFFFFFFFFFFFFFFFFC CALLDATASIZE ADD SLT PUSH2 0x291 JUMPI PUSH1 0x20 PUSH1 0x40 MLOAD PUSH3 0x15180 DUP2 MSTORE RETURN JUMPDEST POP CALLVALUE PUSH2 0x291 JUMPI DUP1 PUSH32 0xFFFFFFFFFFFFFFFFFFFFFFFFFFFFFFFFFFFFFFFFFFFFFFFFFFFFFFFFFFFFFFFC CALLDATASIZE ADD SLT PUSH2 0x291 JUMPI PUSH1 0x20 PUSH1 0x3 SLOAD PUSH1 0x40 MLOAD SWAP1 DUP2 MSTORE RETURN JUMPDEST POP CALLVALUE PUSH2 0x291 JUMPI PUSH1 0x40 PUSH32 0xFFFFFFFFFFFFFFFFFFFFFFFFFFFFFFFFFFFFFFFFFFFFFFFFFFFFFFFFFFFFFFFC CALLDATASIZE ADD SLT PUSH2 0x291 JUMPI PUSH20 0xFFFFFFFFFFFFFFFFFFFFFFFFFFFFFFFFFFFFFFFF PUSH1 0x40 PUSH2 0xE03 PUSH2 0x2881 JUMP JUMPDEST SWAP3 PUSH1 0x4 CALLDATALOAD DUP2 MSTORE DUP1 PUSH1 0x20 MSTORE KECCAK256 SWAP2 AND PUSH1 0x0 MSTORE PUSH1 0x20 MSTORE PUSH1 0x20 PUSH1 0xFF PUSH1 0x40 PUSH1 0x0 KECCAK256 SLOAD AND PUSH1 0x40 MLOAD SWAP1 ISZERO ISZERO DUP2 MSTORE RETURN JUMPDEST POP CALLVALUE PUSH2 0x291 JUMPI PUSH1 0x40 PUSH32 0xFFFFFFFFFFFFFFFFFFFFFFFFFFFFFFFFFFFFFFFFFFFFFFFFFFFFFFFFFFFFFFFC CALLDATASIZE ADD SLT PUSH2 0x291 JUMPI PUSH2 0xE63 PUSH2 0x285E JUMP JUMPDEST PUSH2 0xE6B PUSH2 0x2CCF JUMP JUMPDEST PUSH1 0x40 MLOAD PUSH32 0xA9059CBB00000000000000000000000000000000000000000000000000000000 DUP2 MSTORE CALLER PUSH1 0x4 DUP3 ADD MSTORE PUSH1 0x24 DUP1 CALLDATALOAD SWAP1 DUP3 ADD MSTORE SWAP1 PUSH1 0x20 SWAP1 DUP3 SWAP1 PUSH1 0x44 SWAP1 DUP3 SWAP1 DUP7 SWAP1 PUSH20 0xFFFFFFFFFFFFFFFFFFFFFFFFFFFFFFFFFFFFFFFF AND GAS CALL DUP1 ISZERO PUSH2 0xEE9 JUMPI PUSH2 0xED2 JUMPI POP DUP1 RETURN JUMPDEST PUSH2 0x761 SWAP1 PUSH1 0x20 RETURNDATASIZE DUP2 GT PUSH2 0xA9F JUMPI PUSH2 0xA90 DUP2 DUP4 PUSH2 0x2A6E JUMP JUMPDEST PUSH1 0x40 MLOAD RETURNDATASIZE DUP5 DUP3 RETURNDATACOPY RETURNDATASIZE SWAP1 REVERT JUMPDEST POP CALLVALUE PUSH2 0x291 JUMPI DUP1 PUSH32 0xFFFFFFFFFFFFFFFFFFFFFFFFFFFFFFFFFFFFFFFFFFFFFFFFFFFFFFFFFFFFFFFC CALLDATASIZE ADD SLT PUSH2 0x291 JUMPI PUSH1 0x20 PUSH1 0x4 SLOAD PUSH1 0x40 MLOAD SWAP1 DUP2 MSTORE RETURN JUMPDEST POP CALLVALUE PUSH2 0x291 JUMPI PUSH1 0x20 PUSH32 0xFFFFFFFFFFFFFFFFFFFFFFFFFFFFFFFFFFFFFFFFFFFFFFFFFFFFFFFFFFFFFFFC CALLDATASIZE ADD SLT PUSH2 0x291 JUMPI PUSH1 0x40 SWAP1 PUSH20 0xFFFFFFFFFFFFFFFFFFFFFFFFFFFFFFFFFFFFFFFF PUSH2 0x238 PUSH2 0x285E JUMP JUMPDEST POP CALLVALUE PUSH2 0x291 JUMPI DUP1 PUSH32 0xFFFFFFFFFFFFFFFFFFFFFFFFFFFFFFFFFFFFFFFFFFFFFFFFFFFFFFFFFFFFFFFC CALLDATASIZE ADD SLT PUSH2 0x291 JUMPI PUSH1 0x20 PUSH1 0x40 MLOAD PUSH8 0xDE0B6B3A7640000 DUP2 MSTORE RETURN JUMPDEST POP CALLVALUE PUSH2 0x291 JUMPI DUP1 PUSH32 0xFFFFFFFFFFFFFFFFFFFFFFFFFFFFFFFFFFFFFFFFFFFFFFFFFFFFFFFFFFFFFFFC CALLDATASIZE ADD SLT PUSH2 0x291 JUMPI PUSH2 0xFF8 PUSH2 0x2CCF JUMP JUMPDEST PUSH2 0x1000 PUSH2 0x32DA JUMP JUMPDEST PUSH1 0x1 PUSH32 0xFFFFFFFFFFFFFFFFFFFFFFFFFFFFFFFFFFFFFFFFFFFFFFFFFFFFFFFFFFFFFF00 PUSH1 0x2 SLOAD AND OR PUSH1 0x2 SSTORE PUSH32 0x62E78CEA01BEE320CD4E420270B5EA74000D11B0C9F74754EBDBFC544B05A258 PUSH1 0x20 PUSH1 0x40 MLOAD CALLER DUP2 MSTORE LOG1 DUP1 RETURN JUMPDEST POP CALLVALUE PUSH2 0x291 JUMPI DUP1 PUSH32 0xFFFFFFFFFFFFFFFFFFFFFFFFFFFFFFFFFFFFFFFFFFFFFFFFFFFFFFFFFFFFFFFC CALLDATASIZE ADD SLT PUSH2 0x291 JUMPI PUSH2 0x108F PUSH2 0x2CCF JUMP JUMPDEST DUP1 DUP1 DUP1 DUP1 SELFBALANCE DUP2 DUP2 ISZERO PUSH2 0x10B3 JUMPI JUMPDEST CALLER SWAP1 CALL ISZERO PUSH2 0x10A7 JUMPI DUP1 RETURN JUMPDEST PUSH1 0x40 MLOAD SWAP1 RETURNDATASIZE SWAP1 DUP3 RETURNDATACOPY RETURNDATASIZE SWAP1 REVERT JUMPDEST POP PUSH2 0x8FC PUSH2 0x109C JUMP JUMPDEST POP CALLVALUE PUSH2 0x291 JUMPI DUP1 PUSH32 0xFFFFFFFFFFFFFFFFFFFFFFFFFFFFFFFFFFFFFFFFFFFFFFFFFFFFFFFFFFFFFFFC CALLDATASIZE ADD SLT PUSH2 0x291 JUMPI PUSH1 0x20 PUSH1 0x6 SLOAD PUSH1 0x40 MLOAD SWAP1 DUP2 MSTORE RETURN JUMPDEST POP CALLVALUE PUSH2 0x291 JUMPI DUP1 PUSH32 0xFFFFFFFFFFFFFFFFFFFFFFFFFFFFFFFFFFFFFFFFFFFFFFFFFFFFFFFFFFFFFFFC CALLDATASIZE ADD SLT PUSH2 0x291 JUMPI PUSH1 0x20 PUSH1 0x40 MLOAD PUSH10 0x152D02C7E14AF6800000 DUP2 MSTORE RETURN JUMPDEST POP CALLVALUE PUSH2 0x291 JUMPI PUSH2 0x100 PUSH32 0xFFFFFFFFFFFFFFFFFFFFFFFFFFFFFFFFFFFFFFFFFFFFFFFFFFFFFFFFFFFFFFFC CALLDATASIZE ADD SLT PUSH2 0x291 JUMPI PUSH2 0x1174 PUSH2 0x285E JUMP JUMPDEST PUSH2 0x117C PUSH2 0x2881 JUMP JUMPDEST SWAP1 PUSH1 0x3 PUSH1 0x44 CALLDATALOAD LT ISZERO PUSH2 0x702 JUMPI PUSH1 0x64 CALLDATALOAD SWAP1 PUSH20 0xFFFFFFFFFFFFFFFFFFFFFFFFFFFFFFFFFFFFFFFF SWAP1 DUP2 DUP4 AND DUP4 SUB PUSH2 0x19C9 JUMPI PUSH8 0xFFFFFFFFFFFFFFFF SWAP3 PUSH1 0xC4 CALLDATALOAD DUP5 DUP2 GT PUSH2 0x175D JUMPI PUSH2 0x11CD SWAP1 CALLDATASIZE SWAP1 PUSH1 0x4 ADD PUSH2 0x2AAF JUMP JUMPDEST SWAP4 PUSH2 0x11D6 PUSH2 0x2C3C JUMP JUMPDEST PUSH2 0x11DE PUSH2 0x32DA JUMP JUMPDEST DUP4 DUP4 AND ISZERO PUSH2 0x196B JUMPI PUSH2 0x11F3 DUP5 DUP8 AND ISZERO ISZERO PUSH2 0x3084 JUMP JUMPDEST PUSH2 0x1209 PUSH8 0xDE0B6B3A7640000 PUSH1 0x84 CALLDATALOAD LT ISZERO PUSH2 0x30E9 JUMP JUMPDEST PUSH2 0x1221 PUSH10 0x152D02C7E14AF6800000 PUSH1 0x84 CALLDATALOAD GT ISZERO PUSH2 0x314E JUMP JUMPDEST DUP5 MLOAD ISZERO PUSH2 0x190D JUMPI PUSH1 0x40 MLOAD PUSH1 0x20 DUP2 ADD SWAP1 PUSH2 0x1254 PUSH1 0x20 DUP3 DUP2 PUSH2 0x1247 DUP12 DUP8 DUP2 MLOAD SWAP4 DUP5 SWAP3 ADD PUSH2 0x2927 JUMP JUMPDEST DUP2 ADD SUB DUP1 DUP5 MSTORE ADD DUP3 PUSH2 0x2A6E JUMP JUMPDEST MLOAD SWAP1 KECCAK256 DUP8 MSTORE PUSH1 0xB PUSH1 0x20 MSTORE PUSH1 0xFF PUSH1 0x40 DUP9 KECCAK256 SLOAD AND PUSH2 0x18AF JUMPI PUSH2 0x1275 PUSH1 0x3 SLOAD PUSH2 0x31B3 JUMP JUMPDEST SWAP5 DUP6 PUSH1 0x3 SSTORE DUP6 DUP9 MSTORE PUSH1 0x8 PUSH1 0x20 MSTORE PUSH1 0x40 DUP9 KECCAK256 SWAP2 DUP7 DUP4 SSTORE PUSH1 0x1 DUP4 ADD PUSH32 0xFFFFFFFFFFFFFFFFFFFFFFFF0000000000000000000000000000000000000000 SWAP1 DUP8 DUP8 AND DUP3 DUP3 SLOAD AND OR SWAP1 SSTORE PUSH2 0x12D4 PUSH1 0x2 DUP6 ADD DUP9 DUP12 AND DUP4 DUP3 SLOAD AND OR DUP2 SSTORE PUSH1 0x44 CALLDATALOAD SWAP1 PUSH2 0x320F JUMP JUMPDEST PUSH1 0x3 DUP5 ADD SWAP1 DUP8 DUP7 AND SWAP1 DUP3 SLOAD AND OR SWAP1 SSTORE PUSH1 0x84 CALLDATALOAD PUSH1 0x4 DUP5 ADD SSTORE PUSH1 0xA4 CALLDATALOAD PUSH1 0x5 DUP5 ADD SSTORE PUSH1 0x1 PUSH32 0xFFFFFFFFFFFFFFFFFFFFFFFFFFFFFFFFFFFFFFFFFFFFFFFFFFFFFFFFFFFFFF00 PUSH1 0x6 DUP6 ADD SLOAD AND OR PUSH1 0x6 DUP5 ADD SSTORE TIMESTAMP PUSH1 0x7 DUP5 ADD SSTORE PUSH3 0x15180 TIMESTAMP ADD DUP1 TIMESTAMP GT PUSH2 0x1642 JUMPI PUSH1 0x8 DUP5 ADD SSTORE DUP2 MLOAD SWAP1 DUP2 GT PUSH2 0x5EC JUMPI PUSH2 0x1350 PUSH1 0xA DUP5 ADD SLOAD PUSH2 0x2B24 JUMP JUMPDEST PUSH1 0x1F DUP2 GT PUSH2 0x186A JUMPI JUMPDEST POP DUP1 PUSH1 0x20 PUSH1 0x1F DUP3 GT PUSH1 0x1 EQ PUSH2 0x17A6 JUMPI DUP11 SWAP2 PUSH2 0x179B JUMPI JUMPDEST POP PUSH32 0xFFFFFFFFFFFFFFFFFFFFFFFFFFFFFFFFFFFFFFFFFFFFFFFFFFFFFFFFFFFFFFFF DUP3 PUSH1 0x1 SHL SWAP3 PUSH1 0x3 SHL SHR NOT AND OR PUSH1 0xA DUP4 ADD SSTORE JUMPDEST PUSH1 0xE4 CALLDATALOAD PUSH1 0x9 DUP4 ADD SSTORE PUSH1 0xB DUP3 ADD PUSH21 0x10000000000000000000000000000000000000000 DUP2 SLOAD PUSH32 0xFFFFFFFFFFFFFFFFFFFFFF000000000000000000000000000000000000000000 PUSH32 0xFFFFFFFFFFFFFFFFFFFFFF00FFFFFFFFFFFFFFFFFFFFFFFFFFFFFFFFFFFFFFFF CALLER AND SWAP2 AND OR OR SWAP1 SSTORE DUP5 DUP8 AND DUP9 MSTORE PUSH1 0x9 PUSH1 0x20 MSTORE PUSH2 0x1428 DUP7 PUSH1 0x40 DUP11 KECCAK256 PUSH2 0x326B JUMP JUMPDEST PUSH2 0x1433 PUSH1 0x4 SLOAD PUSH2 0x31B3 JUMP JUMPDEST PUSH1 0x4 SSTORE PUSH2 0x1444 PUSH1 0x84 CALLDATALOAD PUSH1 0x5 SLOAD PUSH2 0x325E JUMP JUMPDEST PUSH1 0x5 SSTORE PUSH1 0x40 MLOAD PUSH2 0x1464 PUSH1 0x20 DUP3 DUP2 PUSH2 0x1247 DUP2 DUP4 ADD SWAP7 DUP8 DUP2 MLOAD SWAP4 DUP5 SWAP3 ADD PUSH2 0x2927 JUMP JUMPDEST MLOAD SWAP1 KECCAK256 DUP8 MSTORE PUSH1 0xB PUSH1 0x20 MSTORE PUSH1 0x40 DUP8 KECCAK256 DUP1 SLOAD PUSH32 0xFFFFFFFFFFFFFFFFFFFFFFFFFFFFFFFFFFFFFFFFFFFFFFFFFFFFFFFFFFFFFF00 AND PUSH1 0x1 OR SWAP1 SSTORE PUSH1 0x44 CALLDATALOAD PUSH2 0x16C6 JUMPI PUSH1 0x40 MLOAD PUSH32 0xA9059CBB00000000000000000000000000000000000000000000000000000000 DUP2 MSTORE PUSH20 0xFFFFFFFFFFFFFFFFFFFFFFFFFFFFFFFFFFFFFFFF DUP8 AND PUSH1 0x4 DUP3 ADD MSTORE PUSH1 0x84 CALLDATALOAD PUSH1 0x24 DUP3 ADD MSTORE PUSH1 0x20 DUP2 PUSH1 0x44 DUP2 DUP12 DUP8 DUP11 AND GAS CALL DUP1 ISZERO PUSH2 0x16BB JUMPI PUSH2 0x169C JUMPI JUMPDEST POP JUMPDEST PUSH1 0x6 ADD DUP1 SLOAD PUSH32 0xFFFFFFFFFFFFFFFFFFFFFFFFFFFFFFFFFFFFFFFFFFFFFFFFFFFFFFFFFFFFFF00 AND PUSH1 0x2 OR SWAP1 SSTORE CALLER DUP7 MSTORE PUSH1 0xA PUSH1 0x20 MSTORE PUSH1 0x40 DUP7 KECCAK256 PUSH1 0x1 DUP2 ADD DUP1 SLOAD PUSH2 0x154C SWAP1 PUSH2 0x31B3 JUMP JUMPDEST DUP1 SWAP2 SSTORE PUSH1 0x2 DUP3 ADD SWAP1 DUP2 SLOAD PUSH32 0xFFFFFFFFFFFFFFFFFFFFFFFFFFFFFFFFFFFFFFFFFFFFFFFFFFFFFFFFFFFFFFFF DUP3 ADD SWAP1 DUP3 DUP3 GT PUSH2 0x166F JUMPI SWAP1 PUSH2 0x158B SWAP2 PUSH2 0x33DA JUMP JUMPDEST PUSH1 0x64 DUP2 ADD DUP1 SWAP2 GT PUSH2 0x1642 JUMPI SWAP2 PUSH2 0x15C8 PUSH1 0x40 SWAP7 SWAP5 SWAP3 PUSH32 0x2B57EECD372EE1F8BD796BEDF6D87EA0DA0834F5CDF5391EFA26398EF2C0BC0 SWAP9 SWAP7 SWAP5 PUSH2 0x33ED JUMP JUMPDEST SWAP1 SSTORE PUSH1 0x3 TIMESTAMP SWAP2 ADD SSTORE DUP3 DUP5 MLOAD SWAP2 PUSH2 0x15E0 DUP4 PUSH1 0x44 CALLDATALOAD PUSH2 0x28EB JUMP JUMPDEST AND PUSH1 0x20 DUP3 ADD MSTORE PUSH1 0x84 CALLDATALOAD DUP5 DUP3 ADD MSTORE PUSH1 0xA4 CALLDATALOAD PUSH1 0x60 DUP3 ADD MSTORE PUSH1 0x1 PUSH1 0x80 DUP3 ADD MSTORE TIMESTAMP PUSH1 0xA0 DUP3 ADD MSTORE DUP6 PUSH32 0x324D1B6CC60EC8B0B60854DA81F895DE35042FC8A80CC1AC5B8C8F90A4740E30 PUSH1 0xC0 DUP6 DUP1 DUP12 AND SWAP6 AND SWAP4 LOG4 DUP2 MLOAD SWAP5 PUSH1 0x84 CALLDATALOAD DUP7 MSTORE TIMESTAMP PUSH1 0x20 DUP8 ADD MSTORE AND SWAP4 LOG3 DUP1 RETURN JUMPDEST PUSH1 0x24 DUP11 PUSH32 0x4E487B7100000000000000000000000000000000000000000000000000000000 DUP2 MSTORE PUSH1 0x11 PUSH1 0x4 MSTORE REVERT JUMPDEST PUSH1 0x24 DUP12 PUSH32 0x4E487B7100000000000000000000000000000000000000000000000000000000 DUP2 MSTORE PUSH1 0x11 PUSH1 0x4 MSTORE REVERT JUMPDEST PUSH2 0x16B4 SWAP1 PUSH1 0x20 RETURNDATASIZE PUSH1 0x20 GT PUSH2 0xA9F JUMPI PUSH2 0xA90 DUP2 DUP4 PUSH2 0x2A6E JUMP JUMPDEST POP CODESIZE PUSH2 0x1503 JUMP JUMPDEST PUSH1 0x40 MLOAD RETURNDATASIZE DUP11 DUP3 RETURNDATACOPY RETURNDATASIZE SWAP1 REVERT JUMPDEST PUSH1 0x44 CALLDATALOAD PUSH1 0x1 SUB PUSH2 0x1761 JUMPI DUP4 DUP3 AND EXTCODESIZE ISZERO PUSH2 0x175D JUMPI PUSH1 0x40 MLOAD PUSH32 0x23B872DD00000000000000000000000000000000000000000000000000000000 DUP2 MSTORE ADDRESS PUSH1 0x4 DUP3 ADD MSTORE PUSH20 0xFFFFFFFFFFFFFFFFFFFFFFFFFFFFFFFFFFFFFFFF DUP8 AND PUSH1 0x24 DUP3 ADD MSTORE PUSH1 0xA4 CALLDATALOAD PUSH1 0x44 DUP3 ADD MSTORE DUP8 SWAP1 DUP2 DUP2 PUSH1 0x64 DUP2 DUP4 DUP9 DUP12 AND GAS CALL DUP1 ISZERO PUSH2 0xEE9 JUMPI PUSH2 0x1749 JUMPI JUMPDEST POP POP JUMPDEST PUSH2 0x1505 JUMP JUMPDEST PUSH2 0x1752 SWAP1 PUSH2 0x2A2B JUMP JUMPDEST PUSH2 0x175D JUMPI DUP7 CODESIZE PUSH2 0x1741 JUMP JUMPDEST DUP7 DUP1 REVERT JUMPDEST PUSH1 0x2 PUSH1 0x44 CALLDATALOAD SUB PUSH2 0x1505 JUMPI DUP7 DUP1 PUSH1 0x84 CALLDATALOAD ISZERO PUSH2 0x1792 JUMPI JUMPDEST DUP2 DUP1 DUP1 SWAP3 PUSH1 0x84 CALLDATALOAD SWAP1 DUP10 DUP13 AND SWAP1 CALL PUSH2 0x1744 JUMPI PUSH1 0x40 MLOAD RETURNDATASIZE DUP9 DUP3 RETURNDATACOPY RETURNDATASIZE SWAP1 REVERT JUMPDEST POP PUSH2 0x8FC PUSH2 0x1776 JUMP JUMPDEST SWAP1 POP DUP3 ADD MLOAD CODESIZE PUSH2 0x136F JUMP JUMPDEST SWAP2 POP PUSH1 0xA DUP5 ADD DUP11 MSTORE PUSH1 0x20 DUP11 KECCAK256 DUP11 SWAP3 JUMPDEST PUSH32 0xFFFFFFFFFFFFFFFFFFFFFFFFFFFFFFFFFFFFFFFFFFFFFFFFFFFFFFFFFFFFFFE0 DUP4 AND DUP5 LT PUSH2 0x1852 JUMPI PUSH1 0x1 SWAP4 POP DUP3 PUSH32 0xFFFFFFFFFFFFFFFFFFFFFFFFFFFFFFFFFFFFFFFFFFFFFFFFFFFFFFFFFFFFFFE0 DUP2 AND LT PUSH2 0x181B JUMPI JUMPDEST POP POP DUP2 SHL ADD PUSH1 0xA DUP4 ADD SSTORE PUSH2 0x13A3 JUMP JUMPDEST DUP5 ADD MLOAD PUSH32 0xFFFFFFFFFFFFFFFFFFFFFFFFFFFFFFFFFFFFFFFFFFFFFFFFFFFFFFFFFFFFFFFF PUSH1 0xF8 DUP5 PUSH1 0x3 SHL AND SHR NOT AND SWAP1 SSTORE CODESIZE DUP1 PUSH2 0x180C JUMP JUMPDEST DUP5 DUP2 ADD MLOAD DUP3 SSTORE PUSH1 0x20 SWAP4 DUP5 ADD SWAP4 PUSH1 0x1 SWAP1 SWAP3 ADD SWAP2 ADD PUSH2 0x17B5 JUMP JUMPDEST PUSH1 0xA DUP5 ADD DUP11 MSTORE PUSH1 0x20 DUP11 KECCAK256 PUSH1 0x1F DUP4 ADD PUSH1 0x5 SHR DUP2 ADD PUSH1 0x20 DUP5 LT PUSH2 0x18A8 JUMPI JUMPDEST PUSH1 0x1F DUP4 ADD PUSH1 0x5 SHR DUP3 ADD DUP2 LT PUSH2 0x189C JUMPI POP POP PUSH2 0x1359 JUMP JUMPDEST PUSH1 0x0 DUP2 SSTORE PUSH1 0x1 ADD PUSH2 0x1886 JUMP JUMPDEST POP DUP1 PUSH2 0x1886 JUMP JUMPDEST PUSH1 0x64 PUSH1 0x40 MLOAD PUSH32 0x8C379A000000000000000000000000000000000000000000000000000000000 DUP2 MSTORE PUSH1 0x20 PUSH1 0x4 DUP3 ADD MSTORE PUSH1 0x1D PUSH1 0x24 DUP3 ADD MSTORE PUSH32 0x5472616E73616374696F6E20616C72656164792070726F636573736564000000 PUSH1 0x44 DUP3 ADD MSTORE REVERT JUMPDEST PUSH1 0x64 PUSH1 0x40 MLOAD PUSH32 0x8C379A000000000000000000000000000000000000000000000000000000000 DUP2 MSTORE PUSH1 0x20 PUSH1 0x4 DUP3 ADD MSTORE PUSH1 0x1B PUSH1 0x24 DUP3 ADD MSTORE PUSH32 0x496E76616C6964204C33207472616E73616374696F6E20686173680000000000 PUSH1 0x44 DUP3 ADD MSTORE REVERT JUMPDEST PUSH1 0x64 PUSH1 0x40 MLOAD PUSH32 0x8C379A000000000000000000000000000000000000000000000000000000000 DUP2 MSTORE PUSH1 0x20 PUSH1 0x4 DUP3 ADD MSTORE PUSH1 0xE PUSH1 0x24 DUP3 ADD MSTORE PUSH32 0x496E76616C69642073656E646572000000000000000000000000000000000000 PUSH1 0x44 DUP3 ADD MSTORE REVERT JUMPDEST PUSH1 0x0 DUP1 REVERT JUMPDEST POP CALLVALUE PUSH2 0x291 JUMPI DUP1 PUSH32 0xFFFFFFFFFFFFFFFFFFFFFFFFFFFFFFFFFFFFFFFFFFFFFFFFFFFFFFFFFFFFFFFC CALLDATASIZE ADD SLT PUSH2 0x291 JUMPI PUSH2 0x1A05 PUSH2 0x32DA JUMP JUMPDEST CALLER DUP2 MSTORE PUSH1 0x20 PUSH1 0xA DUP2 MSTORE PUSH1 0x40 DUP3 KECCAK256 DUP1 SLOAD PUSH1 0xFF DUP2 AND ISZERO PUSH2 0x1B11 JUMPI PUSH32 0xFFFFFFFFFFFFFFFFFFFFFFFFFFFFFFFFFFFFFFFFFFFFFFFFFFFFFFFFFFFFFF00 AND DUP2 SSTORE PUSH1 0x2 SLOAD PUSH1 0x4 SWAP2 DUP3 ADD DUP1 SLOAD PUSH1 0x40 MLOAD PUSH32 0xA9059CBB00000000000000000000000000000000000000000000000000000000 DUP2 MSTORE CALLER SWAP5 DUP2 ADD SWAP5 SWAP1 SWAP5 MSTORE PUSH1 0x24 DUP5 ADD MSTORE DUP5 SWAP3 SWAP1 SWAP2 DUP5 SWAP1 DUP3 SWAP1 PUSH1 0x8 SHR PUSH20 0xFFFFFFFFFFFFFFFFFFFFFFFFFFFFFFFFFFFFFFFF AND DUP2 DUP7 DUP2 PUSH1 0x44 DUP2 ADD SUB SWAP3 GAS CALL DUP1 ISZERO PUSH2 0xAA6 JUMPI PUSH2 0x1AF4 JUMPI JUMPDEST POP PUSH2 0x1ABF CALLER PUSH2 0x2F0D JUMP JUMPDEST POP SLOAD SWAP2 PUSH1 0x40 MLOAD SWAP3 DUP4 MSTORE DUP3 ADD MSTORE PUSH32 0xCDC86A7BD23991B72015EA60A4080FB4ADE4360C5536444BA006509FD0F8C98C PUSH1 0x40 CALLER SWAP3 LOG2 DUP1 RETURN JUMPDEST PUSH2 0x1B0A SWAP1 DUP5 RETURNDATASIZE DUP7 GT PUSH2 0xA9F JUMPI PUSH2 0xA90 DUP2 DUP4 PUSH2 0x2A6E JUMP JUMPDEST POP CODESIZE PUSH2 0x1AB5 JUMP JUMPDEST PUSH1 0x64 DUP4 PUSH1 0x40 MLOAD SWAP1 PUSH32 0x8C379A000000000000000000000000000000000000000000000000000000000 DUP3 MSTORE PUSH1 0x4 DUP3 ADD MSTORE PUSH1 0xE PUSH1 0x24 DUP3 ADD MSTORE PUSH32 0x4E6F742072656769737465726564000000000000000000000000000000000000 PUSH1 0x44 DUP3 ADD MSTORE REVERT JUMPDEST POP CALLVALUE PUSH2 0x291 JUMPI DUP1 PUSH32 0xFFFFFFFFFFFFFFFFFFFFFFFFFFFFFFFFFFFFFFFFFFFFFFFFFFFFFFFFFFFFFFFC CALLDATASIZE ADD SLT PUSH2 0x291 JUMPI PUSH1 0x20 PUSH1 0x5 SLOAD PUSH1 0x40 MLOAD SWAP1 DUP2 MSTORE RETURN JUMPDEST POP CALLVALUE PUSH2 0x291 JUMPI DUP1 PUSH32 0xFFFFFFFFFFFFFFFFFFFFFFFFFFFFFFFFFFFFFFFFFFFFFFFFFFFFFFFFFFFFFFFC CALLDATASIZE ADD SLT PUSH2 0x291 JUMPI PUSH1 0x20 PUSH1 0xFF PUSH1 0x2 SLOAD AND PUSH1 0x40 MLOAD SWAP1 ISZERO ISZERO DUP2 MSTORE RETURN JUMPDEST POP CALLVALUE PUSH2 0x291 JUMPI PUSH1 0x20 PUSH32 0xFFFFFFFFFFFFFFFFFFFFFFFFFFFFFFFFFFFFFFFFFFFFFFFFFFFFFFFFFFFFFFFC CALLDATASIZE ADD SLT PUSH2 0x291 JUMPI PUSH32 0x3E7AF433B010DF0902F945628A14EF63C63E1E5E8306127BDE522445A470588F PUSH1 0x40 PUSH1 0x4 CALLDATALOAD PUSH2 0x1C4A PUSH2 0x2D2B JUMP JUMPDEST PUSH1 0x6 SLOAD SWAP1 DUP1 PUSH1 0x6 SSTORE DUP3 MLOAD SWAP2 DUP3 MSTORE PUSH1 0x20 DUP3 ADD MSTORE LOG1 DUP1 RETURN JUMPDEST POP CALLVALUE PUSH2 0x291 JUMPI DUP1 PUSH32 0xFFFFFFFFFFFFFFFFFFFFFFFFFFFFFFFFFFFFFFFFFFFFFFFFFFFFFFFFFFFFFFFC CALLDATASIZE ADD SLT PUSH2 0x291 JUMPI PUSH1 0x20 PUSH1 0x7 SLOAD PUSH1 0x40 MLOAD SWAP1 DUP2 MSTORE RETURN JUMPDEST POP CALLVALUE PUSH2 0x291 JUMPI DUP1 PUSH32 0xFFFFFFFFFFFFFFFFFFFFFFFFFFFFFFFFFFFFFFFFFFFFFFFFFFFFFFFFFFFFFFFC CALLDATASIZE ADD SLT PUSH2 0x291 JUMPI PUSH1 0x20 PUSH1 0x40 MLOAD PUSH32 0x7045ADFE67D5F94DBFDDCDB901E44BEF55BAACABB398C7CDDDA1BFD7620B1568 DUP2 MSTORE RETURN JUMPDEST POP CALLVALUE PUSH2 0x291 JUMPI PUSH1 0x20 PUSH32 0xFFFFFFFFFFFFFFFFFFFFFFFFFFFFFFFFFFFFFFFFFFFFFFFFFFFFFFFFFFFFFFFC CALLDATASIZE ADD SLT PUSH2 0x291 JUMPI PUSH1 0x40 SWAP1 PUSH20 0xFFFFFFFFFFFFFFFFFFFFFFFFFFFFFFFFFFFFFFFF PUSH2 0x1D45 PUSH2 0x285E JUMP JUMPDEST AND DUP2 MSTORE PUSH1 0xC PUSH1 0x20 MSTORE KECCAK256 PUSH1 0xFF DUP2 SLOAD AND PUSH2 0x28D PUSH1 0x1 DUP4 ADD SLOAD SWAP3 PUSH1 0x2 DUP2 ADD SLOAD SWAP1 PUSH1 0x4 PUSH1 0x3 DUP3 ADD SLOAD SWAP2 ADD SLOAD SWAP2 PUSH1 0x40 MLOAD SWAP6 DUP7 SWAP6 DUP7 SWAP2 SWAP3 PUSH1 0x80 SWAP4 SWAP7 SWAP6 SWAP5 SWAP2 SWAP7 PUSH1 0xA0 DUP5 ADD SWAP8 ISZERO ISZERO DUP5 MSTORE PUSH1 0x20 DUP5 ADD MSTORE PUSH1 0x40 DUP4 ADD MSTORE PUSH1 0x60 DUP3 ADD MSTORE ADD MSTORE JUMP JUMPDEST POP CALLVALUE PUSH2 0x291 JUMPI DUP1 PUSH32 0xFFFFFFFFFFFFFFFFFFFFFFFFFFFFFFFFFFFFFFFFFFFFFFFFFFFFFFFFFFFFFFFC CALLDATASIZE ADD SLT PUSH2 0x291 JUMPI PUSH2 0x1DD1 PUSH2 0x2CCF JUMP JUMPDEST PUSH1 0x2 SLOAD PUSH1 0xFF DUP2 AND ISZERO PUSH2 0x1E2F JUMPI PUSH32 0xFFFFFFFFFFFFFFFFFFFFFFFFFFFFFFFFFFFFFFFFFFFFFFFFFFFFFFFFFFFFFF00 AND PUSH1 0x2 SSTORE PUSH32 0x5DB9EE0A495BF2E6FF9C91A7834C1BA4FDD244A5E8AA4E537BD38AEAE4B073AA PUSH1 0x20 PUSH1 0x40 MLOAD CALLER DUP2 MSTORE LOG1 DUP1 RETURN JUMPDEST PUSH1 0x4 PUSH1 0x40 MLOAD PUSH32 0x8DFC202B00000000000000000000000000000000000000000000000000000000 DUP2 MSTORE REVERT JUMPDEST POP PUSH1 0xA0 PUSH32 0xFFFFFFFFFFFFFFFFFFFFFFFFFFFFFFFFFFFFFFFFFFFFFFFFFFFFFFFFFFFFFFFC CALLDATASIZE ADD SLT PUSH2 0x291 JUMPI PUSH2 0x1E8C PUSH2 0x285E JUMP JUMPDEST PUSH1 0x24 CALLDATALOAD PUSH1 0x3 DUP2 LT ISZERO PUSH2 0x702 JUMPI PUSH1 0x44 CALLDATALOAD SWAP1 PUSH20 0xFFFFFFFFFFFFFFFFFFFFFFFFFFFFFFFFFFFFFFFF SWAP2 DUP3 DUP2 AND DUP1 SWAP2 SUB PUSH2 0x227C JUMPI PUSH1 0x64 CALLDATALOAD SWAP3 PUSH1 0x84 CALLDATALOAD SWAP1 PUSH2 0x1ECC PUSH2 0x32DA JUMP JUMPDEST PUSH1 0x1 SWAP6 PUSH1 0x2 DUP8 SLOAD EQ PUSH2 0x2252 JUMPI PUSH1 0x2 DUP8 SSTORE AND SWAP4 PUSH2 0x1EE9 DUP6 ISZERO ISZERO PUSH2 0x3084 JUMP JUMPDEST PUSH2 0x1EFD PUSH8 0xDE0B6B3A7640000 DUP3 LT ISZERO PUSH2 0x30E9 JUMP JUMPDEST PUSH2 0x1F13 PUSH10 0x152D02C7E14AF6800000 DUP3 GT ISZERO PUSH2 0x314E JUMP JUMPDEST PUSH1 0x6 SLOAD CALLVALUE LT PUSH2 0x21F4 JUMPI PUSH2 0x1F27 PUSH1 0x3 SLOAD PUSH2 0x31B3 JUMP JUMPDEST SWAP3 DUP4 PUSH1 0x3 SSTORE DUP4 DUP9 MSTORE PUSH1 0x20 PUSH1 0x8 DUP2 MSTORE PUSH1 0x40 DUP10 KECCAK256 DUP6 DUP2 SSTORE DUP9 DUP2 ADD PUSH32 0xFFFFFFFFFFFFFFFFFFFFFFFF0000000000000000000000000000000000000000 SWAP1 CALLER DUP3 DUP3 SLOAD AND OR SWAP1 SSTORE PUSH2 0x1F7E DUP9 PUSH1 0x2 DUP5 ADD DUP12 DUP5 DUP3 SLOAD AND OR DUP2 SSTORE PUSH2 0x320F JUMP JUMPDEST DUP4 PUSH1 0x3 DUP4 ADD SWAP2 DUP3 SLOAD AND OR SWAP1 SSTORE DUP4 PUSH1 0x4 DUP3 ADD SSTORE DUP5 PUSH1 0x5 DUP3 ADD SSTORE PUSH1 0x6 DUP2 ADD PUSH32 0xFFFFFFFFFFFFFFFFFFFFFFFFFFFFFFFFFFFFFFFFFFFFFFFFFFFFFFFFFFFFFF00 DUP2 SLOAD AND SWAP1 SSTORE TIMESTAMP PUSH1 0x7 DUP3 ADD SSTORE PUSH3 0x15180 TIMESTAMP ADD DUP1 TIMESTAMP GT PUSH2 0x166F JUMPI SWAP1 PUSH1 0xB SWAP2 PUSH1 0x8 DUP3 ADD SSTORE ADD PUSH32 0xFFFFFFFFFFFFFFFFFFFFFF00FFFFFFFFFFFFFFFFFFFFFFFFFFFFFFFFFFFFFFFF DUP2 SLOAD AND SWAP1 SSTORE CALLER DUP10 MSTORE PUSH1 0x9 DUP2 MSTORE PUSH2 0x2017 DUP6 PUSH1 0x40 DUP12 KECCAK256 PUSH2 0x326B JUMP JUMPDEST PUSH2 0x2022 PUSH1 0x4 SLOAD PUSH2 0x31B3 JUMP JUMPDEST PUSH1 0x4 SSTORE PUSH2 0x2031 DUP4 PUSH1 0x5 SLOAD PUSH2 0x325E JUMP JUMPDEST PUSH1 0x5 SSTORE DUP6 PUSH2 0x2102 JUMPI PUSH1 0x40 MLOAD PUSH32 0x23B872DD00000000000000000000000000000000000000000000000000000000 DUP2 MSTORE CALLER PUSH1 0x4 DUP3 ADD MSTORE ADDRESS PUSH1 0x24 DUP3 ADD MSTORE PUSH1 0x44 DUP2 ADD DUP5 SWAP1 MSTORE DUP2 DUP2 PUSH1 0x64 DUP2 DUP14 DUP8 GAS CALL DUP1 ISZERO PUSH2 0x20F7 JUMPI PUSH2 0x20DA JUMPI JUMPDEST POP JUMPDEST PUSH2 0x2095 PUSH1 0x40 MLOAD DUP1 SWAP8 PUSH2 0x28EB JUMP JUMPDEST DUP6 ADD MSTORE PUSH1 0x40 DUP5 ADD MSTORE PUSH1 0x60 DUP4 ADD MSTORE PUSH1 0x0 PUSH1 0x80 DUP4 ADD MSTORE TIMESTAMP PUSH1 0xA0 DUP4 ADD MSTORE PUSH32 0x324D1B6CC60EC8B0B60854DA81F895DE35042FC8A80CC1AC5B8C8F90A4740E30 PUSH1 0xC0 CALLER SWAP4 LOG4 DUP1 SSTORE DUP1 RETURN JUMPDEST PUSH2 0x20F0 SWAP1 DUP3 RETURNDATASIZE DUP5 GT PUSH2 0xA9F JUMPI PUSH2 0xA90 DUP2 DUP4 PUSH2 0x2A6E JUMP JUMPDEST POP CODESIZE PUSH2 0x2086 JUMP JUMPDEST PUSH1 0x40 MLOAD RETURNDATASIZE DUP13 DUP3 RETURNDATACOPY RETURNDATASIZE SWAP1 REVERT JUMPDEST DUP6 DUP9 SUB PUSH2 0x217B JUMPI DUP2 EXTCODESIZE ISZERO PUSH2 0x2177 JUMPI PUSH1 0x40 MLOAD PUSH32 0x23B872DD00000000000000000000000000000000000000000000000000000000 DUP2 MSTORE CALLER PUSH1 0x4 DUP3 ADD MSTORE ADDRESS PUSH1 0x24 DUP3 ADD MSTORE PUSH1 0x44 DUP2 ADD DUP6 SWAP1 MSTORE DUP10 DUP2 PUSH1 0x64 DUP2 DUP4 DUP8 GAS CALL DUP1 ISZERO PUSH2 0x20F7 JUMPI PUSH2 0x2164 JUMPI JUMPDEST POP JUMPDEST PUSH2 0x2088 JUMP JUMPDEST PUSH2 0x2170 SWAP1 SWAP10 SWAP2 SWAP10 PUSH2 0x2A2B JUMP JUMPDEST SWAP8 CODESIZE PUSH2 0x215D JUMP JUMPDEST DUP9 DUP1 REVERT JUMPDEST PUSH1 0x2 DUP7 SUB PUSH2 0x2088 JUMPI PUSH2 0x218F PUSH1 0x6 SLOAD DUP5 PUSH2 0x325E JUMP JUMPDEST CALLVALUE LT ISZERO PUSH2 0x215F JUMPI PUSH1 0x64 SWAP1 PUSH1 0x40 MLOAD SWAP1 PUSH32 0x8C379A000000000000000000000000000000000000000000000000000000000 DUP3 MSTORE PUSH1 0x4 DUP3 ADD MSTORE PUSH1 0x10 PUSH1 0x24 DUP3 ADD MSTORE PUSH32 0x496E73756666696369656E742045544800000000000000000000000000000000 PUSH1 0x44 DUP3 ADD MSTORE REVERT JUMPDEST PUSH1 0x64 PUSH1 0x40 MLOAD PUSH32 0x8C379A000000000000000000000000000000000000000000000000000000000 DUP2 MSTORE PUSH1 0x20 PUSH1 0x4 DUP3 ADD MSTORE PUSH1 0x17 PUSH1 0x24 DUP3 ADD MSTORE PUSH32 0x496E73756666696369656E742062726964676520666565000000000000000000 PUSH1 0x44 DUP3 ADD MSTORE REVERT JUMPDEST PUSH1 0x4 PUSH1 0x40 MLOAD PUSH32 0x3EE5AEB500000000000000000000000000000000000000000000000000000000 DUP2 MSTORE REVERT JUMPDEST DUP5 DUP1 REVERT JUMPDEST POP CALLVALUE PUSH2 0x291 JUMPI PUSH1 0x40 PUSH32 0xFFFFFFFFFFFFFFFFFFFFFFFFFFFFFFFFFFFFFFFFFFFFFFFFFFFFFFFFFFFFFFFC CALLDATASIZE ADD SLT PUSH2 0x291 JUMPI PUSH2 0x22B8 PUSH2 0x2881 JUMP JUMPDEST CALLER PUSH20 0xFFFFFFFFFFFFFFFFFFFFFFFFFFFFFFFFFFFFFFFF DUP3 AND SUB PUSH2 0x22E1 JUMPI PUSH2 0x761 SWAP1 PUSH1 0x4 CALLDATALOAD PUSH2 0x2FE3 JUMP JUMPDEST PUSH1 0x4 PUSH1 0x40 MLOAD PUSH32 0x6697B23200000000000000000000000000000000000000000000000000000000 DUP2 MSTORE REVERT JUMPDEST POP CALLVALUE PUSH2 0x291 JUMPI PUSH1 0x20 PUSH32 0xFFFFFFFFFFFFFFFFFFFFFFFFFFFFFFFFFFFFFFFFFFFFFFFFFFFFFFFFFFFFFFFC CALLDATASIZE ADD SLT PUSH2 0x291 JUMPI PUSH1 0x4 CALLDATALOAD DUP2 MSTORE PUSH1 0x8 PUSH1 0x20 MSTORE PUSH1 0x40 SWAP1 KECCAK256 DUP1 SLOAD PUSH20 0xFFFFFFFFFFFFFFFFFFFFFFFFFFFFFFFFFFFFFFFF SWAP2 DUP3 PUSH1 0x1 DUP3 ADD SLOAD AND SWAP1 PUSH1 0x2 DUP2 ADD SLOAD SWAP4 DUP1 PUSH1 0x3 DUP4 ADD SLOAD AND PUSH1 0x4 DUP4 ADD SLOAD PUSH1 0x5 DUP5 ADD SLOAD PUSH1 0x6 DUP6 ADD SLOAD PUSH1 0xFF AND PUSH1 0x7 DUP7 ADD SLOAD SWAP1 PUSH1 0x8 DUP8 ADD SLOAD SWAP3 PUSH1 0x9 DUP9 ADD SLOAD SWAP5 PUSH1 0xB DUP10 ADD SLOAD SWAP9 PUSH1 0xA ADD PUSH2 0x23AC SWAP1 PUSH2 0x2B77 JUMP JUMPDEST SWAP7 PUSH1 0x40 MLOAD SWAP13 DUP14 SWAP13 DUP14 SWAP13 DUP12 DUP14 PUSH1 0xA0 SHR PUSH1 0xFF AND SWAP14 AND SWAP12 DUP4 PUSH1 0xA0 SHR PUSH1 0xFF AND SWAP4 AND SWAP2 PUSH2 0x28D SWAP15 PUSH2 0x298D JUMP JUMPDEST POP CALLVALUE PUSH2 0x291 JUMPI PUSH1 0x40 PUSH32 0xFFFFFFFFFFFFFFFFFFFFFFFFFFFFFFFFFFFFFFFFFFFFFFFFFFFFFFFFFFFFFFFC CALLDATASIZE ADD SLT PUSH2 0x291 JUMPI PUSH2 0x761 PUSH1 0x4 CALLDATALOAD PUSH2 0x2411 PUSH2 0x2881 JUMP JUMPDEST SWAP1 DUP1 DUP5 MSTORE DUP4 PUSH1 0x20 MSTORE PUSH2 0x2429 PUSH1 0x1 PUSH1 0x40 DUP7 KECCAK256 ADD SLOAD PUSH2 0x2D65 JUMP JUMPDEST PUSH2 0x2E68 JUMP JUMPDEST POP CALLVALUE PUSH2 0x291 JUMPI PUSH1 0x40 PUSH32 0xFFFFFFFFFFFFFFFFFFFFFFFFFFFFFFFFFFFFFFFFFFFFFFFFFFFFFFFFFFFFFFFC CALLDATASIZE ADD SLT PUSH2 0x291 JUMPI PUSH2 0x2466 PUSH2 0x285E JUMP JUMPDEST PUSH20 0xFFFFFFFFFFFFFFFFFFFFFFFFFFFFFFFFFFFFFFFF AND DUP2 MSTORE PUSH1 0x9 PUSH1 0x20 MSTORE PUSH1 0x40 DUP2 KECCAK256 DUP1 SLOAD PUSH1 0x24 CALLDATALOAD SWAP3 SWAP1 DUP4 LT ISZERO PUSH2 0x291 JUMPI PUSH1 0x20 PUSH2 0x24A1 DUP5 DUP5 PUSH2 0x28A4 JUMP JUMPDEST SWAP1 SLOAD PUSH1 0x40 MLOAD SWAP2 PUSH1 0x3 SHL SHR DUP2 MSTORE RETURN JUMPDEST POP CALLVALUE PUSH2 0x291 JUMPI PUSH1 0x20 PUSH32 0xFFFFFFFFFFFFFFFFFFFFFFFFFFFFFFFFFFFFFFFFFFFFFFFFFFFFFFFFFFFFFFFC CALLDATASIZE ADD SLT PUSH2 0x291 JUMPI PUSH1 0x1 PUSH1 0x40 PUSH1 0x20 SWAP3 PUSH1 0x4 CALLDATALOAD DUP2 MSTORE DUP1 DUP5 MSTORE KECCAK256 ADD SLOAD PUSH1 0x40 MLOAD SWAP1 DUP2 MSTORE RETURN JUMPDEST POP CALLVALUE PUSH2 0x291 JUMPI DUP1 PUSH32 0xFFFFFFFFFFFFFFFFFFFFFFFFFFFFFFFFFFFFFFFFFFFFFFFFFFFFFFFFFFFFFFFC CALLDATASIZE ADD SLT PUSH2 0x291 JUMPI PUSH1 0x20 PUSH1 0x40 MLOAD PUSH32 0xBF233DD2AAFEB4D50879C4AA5C81E96D92F6E6945C906A58F9F2D1C1631B4B26 DUP2 MSTORE RETURN JUMPDEST POP CALLVALUE PUSH2 0x291 JUMPI PUSH1 0x20 PUSH32 0xFFFFFFFFFFFFFFFFFFFFFFFFFFFFFFFFFFFFFFFFFFFFFFFFFFFFFFFFFFFFFFFC CALLDATASIZE ADD SLT PUSH2 0x291 JUMPI PUSH1 0x4 CALLDATALOAD PUSH2 0x258D PUSH2 0x2C3C JUMP JUMPDEST PUSH2 0x2595 PUSH2 0x32DA JUMP JUMPDEST DUP1 DUP3 MSTORE PUSH1 0x8 PUSH1 0x20 MSTORE PUSH1 0x40 DUP3 KECCAK256 SWAP1 PUSH2 0x25AE DUP3 SLOAD ISZERO ISZERO PUSH2 0x3310 JUMP JUMPDEST PUSH1 0x6 DUP3 ADD DUP1 SLOAD PUSH1 0xFF DUP2 AND PUSH1 0x5 DUP2 LT ISZERO PUSH2 0x2773 JUMPI PUSH1 0x1 SUB PUSH2 0x2715 JUMPI PUSH32 0xFFFFFFFFFFFFFFFFFFFFFFFFFFFFFFFFFFFFFFFFFFFFFFFFFFFFFFFFFFFFFF00 PUSH1 0x2 SWAP2 PUSH2 0x2600 PUSH1 0xFF PUSH1 0xB DUP9 ADD SLOAD PUSH1 0xA0 SHR AND ISZERO PUSH2 0x3375 JUMP JUMPDEST AND OR SWAP1 SSTORE CALLER DUP4 MSTORE PUSH1 0xA PUSH1 0x20 MSTORE PUSH1 0x40 DUP4 KECCAK256 PUSH1 0x2 DUP2 ADD SWAP1 PUSH1 0x1 DUP3 SLOAD SWAP2 ADD SLOAD SWAP1 PUSH32 0xFFFFFFFFFFFFFFFFFFFFFFFFFFFFFFFFFFFFFFFFFFFFFFFFFFFFFFFFFFFFFFFF DUP3 ADD SWAP1 DUP3 DUP3 GT PUSH2 0x26E8 JUMPI SWAP1 PUSH2 0x2652 SWAP2 PUSH2 0x33DA JUMP JUMPDEST PUSH1 0x64 DUP2 ADD DUP1 SWAP2 GT PUSH2 0x26BB JUMPI SWAP1 PUSH2 0x2667 SWAP2 PUSH2 0x33ED JUMP JUMPDEST SWAP1 SSTORE PUSH32 0x2B57EECD372EE1F8BD796BEDF6D87EA0DA0834F5CDF5391EFA26398EF2C0BC0 PUSH1 0x40 PUSH1 0x4 PUSH20 0xFFFFFFFFFFFFFFFFFFFFFFFFFFFFFFFFFFFFFFFF PUSH1 0x2 DUP7 ADD SLOAD AND SWAP5 ADD SLOAD DUP2 MLOAD SWAP1 DUP2 MSTORE TIMESTAMP PUSH1 0x20 DUP3 ADD MSTORE LOG3 DUP1 RETURN JUMPDEST PUSH1 0x24 DUP7 PUSH32 0x4E487B7100000000000000000000000000000000000000000000000000000000 DUP2 MSTORE PUSH1 0x11 PUSH1 0x4 MSTORE REVERT JUMPDEST PUSH1 0x24 DUP8 PUSH32 0x4E487B7100000000000000000000000000000000000000000000000000000000 DUP2 MSTORE PUSH1 0x11 PUSH1 0x4 MSTORE REVERT JUMPDEST PUSH1 0x64 PUSH1 0x40 MLOAD PUSH32 0x8C379A000000000000000000000000000000000000000000000000000000000 DUP2 MSTORE PUSH1 0x20 PUSH1 0x4 DUP3 ADD MSTORE PUSH1 0x16 PUSH1 0x24 DUP3 ADD MSTORE PUSH32 0x52657175657374206E6F742070726F63657373696E6700000000000000000000 PUSH1 0x44 DUP3 ADD MSTORE REVERT JUMPDEST PUSH1 0x24 DUP7 PUSH32 0x4E487B7100000000000000000000000000000000000000000000000000000000 DUP2 MSTORE PUSH1 0x21 PUSH1 0x4 MSTORE REVERT JUMPDEST SWAP1 POP CALLVALUE PUSH2 0xBE8 JUMPI PUSH1 0x20 PUSH32 0xFFFFFFFFFFFFFFFFFFFFFFFFFFFFFFFFFFFFFFFFFFFFFFFFFFFFFFFFFFFFFFFC CALLDATASIZE ADD SLT PUSH2 0xBE8 JUMPI PUSH1 0x4 CALLDATALOAD PUSH32 0xFFFFFFFF00000000000000000000000000000000000000000000000000000000 DUP2 AND DUP1 SWAP2 SUB PUSH2 0x702 JUMPI PUSH1 0x20 SWAP3 POP PUSH32 0x7965DB0B00000000000000000000000000000000000000000000000000000000 DUP2 EQ SWAP1 DUP2 ISZERO PUSH2 0x2834 JUMPI JUMPDEST POP ISZERO ISZERO DUP2 MSTORE RETURN JUMPDEST PUSH32 0x1FFC9A700000000000000000000000000000000000000000000000000000000 SWAP2 POP EQ CODESIZE PUSH2 0x282D JUMP JUMPDEST PUSH1 0x4 CALLDATALOAD SWAP1 PUSH20 0xFFFFFFFFFFFFFFFFFFFFFFFFFFFFFFFFFFFFFFFF DUP3 AND DUP3 SUB PUSH2 0x19C9 JUMPI JUMP JUMPDEST PUSH1 0x24 CALLDATALOAD SWAP1 PUSH20 0xFFFFFFFFFFFFFFFFFFFFFFFFFFFFFFFFFFFFFFFF DUP3 AND DUP3 SUB PUSH2 0x19C9 JUMPI JUMP JUMPDEST DUP1 SLOAD DUP3 LT ISZERO PUSH2 0x28BC JUMPI PUSH1 0x0 MSTORE PUSH1 0x20 PUSH1 0x0 KECCAK256 ADD SWAP1 PUSH1 0x0 SWAP1 JUMP JUMPDEST PUSH32 0x4E487B7100000000000000000000000000000000000000000000000000000000 PUSH1 0x0 MSTORE PUSH1 0x32 PUSH1 0x4 MSTORE PUSH1 0x24 PUSH1 0x0 REVERT JUMPDEST SWAP1 PUSH1 0x3 DUP3 LT ISZERO PUSH2 0x28F8 JUMPI MSTORE JUMP JUMPDEST PUSH32 0x4E487B7100000000000000000000000000000000000000000000000000000000 PUSH1 0x0 MSTORE PUSH1 0x21 PUSH1 0x4 MSTORE PUSH1 0x24 PUSH1 0x0 REVERT JUMPDEST PUSH1 0x0 JUMPDEST DUP4 DUP2 LT PUSH2 0x293A JUMPI POP POP PUSH1 0x0 SWAP2 ADD MSTORE JUMP JUMPDEST DUP2 DUP2 ADD MLOAD DUP4 DUP3 ADD MSTORE PUSH1 0x20 ADD PUSH2 0x292A JUMP JUMPDEST SWAP1 PUSH32 0xFFFFFFFFFFFFFFFFFFFFFFFFFFFFFFFFFFFFFFFFFFFFFFFFFFFFFFFFFFFFFFE0 PUSH1 0x1F PUSH1 0x20 SWAP4 PUSH2 0x2986 DUP2 MLOAD DUP1 SWAP3 DUP2 DUP8 MSTORE DUP8 DUP1 DUP9 ADD SWAP2 ADD PUSH2 0x2927 JUMP JUMPDEST ADD AND ADD ADD SWAP1 JUMP JUMPDEST SWAP13 SWAP15 SWAP14 SWAP11 SWAP7 SWAP5 SWAP2 SWAP3 SWAP10 SWAP6 SWAP4 PUSH1 0x60 DUP15 PUSH2 0x29D2 SWAP4 SWAP15 SWAP11 SWAP12 SWAP15 DUP2 MSTORE PUSH20 0xFFFFFFFFFFFFFFFFFFFFFFFFFFFFFFFFFFFFFFFF DUP1 SWAP14 DUP2 DUP1 SWAP9 AND PUSH1 0x20 DUP5 ADD MSTORE AND PUSH1 0x40 DUP3 ADD MSTORE ADD SWAP1 PUSH2 0x28EB JUMP JUMPDEST AND PUSH1 0x80 DUP12 ADD MSTORE PUSH1 0xA0 DUP11 ADD MSTORE PUSH1 0xC0 DUP10 ADD MSTORE PUSH1 0x5 DUP5 LT ISZERO PUSH2 0x28F8 JUMPI PUSH2 0x1A0 SWAP7 PUSH2 0x2A1C SWAP5 PUSH1 0xE0 DUP11 ADD MSTORE PUSH2 0x100 DUP10 ADD MSTORE PUSH2 0x120 DUP9 ADD MSTORE PUSH2 0x140 DUP8 ADD MSTORE PUSH2 0x1C0 DUP1 PUSH2 0x160 DUP9 ADD MSTORE DUP7 ADD SWAP1 PUSH2 0x294A JUMP JUMPDEST SWAP6 AND PUSH2 0x180 DUP5 ADD MSTORE ISZERO ISZERO SWAP2 ADD MSTORE JUMP JUMPDEST PUSH8 0xFFFFFFFFFFFFFFFF DUP2 GT PUSH2 0x2A3F JUMPI PUSH1 0x40 MSTORE JUMP JUMPDEST PUSH32 0x4E487B7100000000000000000000000000000000000000000000000000000000 PUSH1 0x0 MSTORE PUSH1 0x41 PUSH1 0x4 MSTORE PUSH1 0x24 PUSH1 0x0 REVERT JUMPDEST SWAP1 PUSH1 0x1F PUSH32 0xFFFFFFFFFFFFFFFFFFFFFFFFFFFFFFFFFFFFFFFFFFFFFFFFFFFFFFFFFFFFFFE0 SWAP2 ADD AND DUP2 ADD SWAP1 DUP2 LT PUSH8 0xFFFFFFFFFFFFFFFF DUP3 GT OR PUSH2 0x2A3F JUMPI PUSH1 0x40 MSTORE JUMP JUMPDEST DUP2 PUSH1 0x1F DUP3 ADD SLT ISZERO PUSH2 0x19C9 JUMPI DUP1 CALLDATALOAD SWAP1 PUSH8 0xFFFFFFFFFFFFFFFF DUP3 GT PUSH2 0x2A3F JUMPI PUSH1 0x40 MLOAD SWAP3 PUSH2 0x2B02 PUSH1 0x20 PUSH32 0xFFFFFFFFFFFFFFFFFFFFFFFFFFFFFFFFFFFFFFFFFFFFFFFFFFFFFFFFFFFFFFE0 PUSH1 0x1F DUP7 ADD AND ADD DUP6 PUSH2 0x2A6E JUMP JUMPDEST DUP3 DUP5 MSTORE PUSH1 0x20 DUP4 DUP4 ADD ADD GT PUSH2 0x19C9 JUMPI DUP2 PUSH1 0x0 SWAP3 PUSH1 0x20 DUP1 SWAP4 ADD DUP4 DUP7 ADD CALLDATACOPY DUP4 ADD ADD MSTORE SWAP1 JUMP JUMPDEST SWAP1 PUSH1 0x1 DUP3 DUP2 SHR SWAP3 AND DUP1 ISZERO PUSH2 0x2B6D JUMPI JUMPDEST PUSH1 0x20 DUP4 LT EQ PUSH2 0x2B3E JUMPI JUMP JUMPDEST PUSH32 0x4E487B7100000000000000000000000000000000000000000000000000000000 PUSH1 0x0 MSTORE PUSH1 0x22 PUSH1 0x4 MSTORE PUSH1 0x24 PUSH1 0x0 REVERT JUMPDEST SWAP2 PUSH1 0x7F AND SWAP2 PUSH2 0x2B33 JUMP JUMPDEST SWAP1 PUSH1 0x40 MLOAD SWAP2 DUP3 PUSH1 0x0 DUP3 SLOAD SWAP3 PUSH2 0x2B8B DUP5 PUSH2 0x2B24 JUMP JUMPDEST SWAP1 DUP2 DUP5 MSTORE PUSH1 0x1 SWAP5 DUP6 DUP2 AND SWAP1 DUP2 PUSH1 0x0 EQ PUSH2 0x2BFA JUMPI POP PUSH1 0x1 EQ PUSH2 0x2BB7 JUMPI JUMPDEST POP POP PUSH2 0x2BB5 SWAP3 POP SUB DUP4 PUSH2 0x2A6E JUMP JUMPDEST JUMP JUMPDEST SWAP1 SWAP4 SWAP2 POP PUSH1 0x0 MSTORE PUSH1 0x20 SWAP1 DUP2 PUSH1 0x0 KECCAK256 SWAP4 PUSH1 0x0 SWAP2 JUMPDEST DUP2 DUP4 LT PUSH2 0x2BE2 JUMPI POP POP PUSH2 0x2BB5 SWAP4 POP DUP3 ADD ADD CODESIZE DUP1 PUSH2 0x2BA7 JUMP JUMPDEST DUP6 SLOAD DUP9 DUP5 ADD DUP6 ADD MSTORE SWAP5 DUP6 ADD SWAP5 DUP8 SWAP5 POP SWAP2 DUP4 ADD SWAP2 PUSH2 0x2BCA JUMP JUMPDEST SWAP1 POP PUSH2 0x2BB5 SWAP6 POP PUSH1 0x20 SWAP4 POP PUSH32 0xFFFFFFFFFFFFFFFFFFFFFFFFFFFFFFFFFFFFFFFFFFFFFFFFFFFFFFFFFFFFFF00 SWAP2 POP AND DUP3 DUP5 ADD MSTORE ISZERO ISZERO PUSH1 0x5 SHL DUP3 ADD ADD CODESIZE DUP1 PUSH2 0x2BA7 JUMP JUMPDEST CALLER PUSH1 0x0 SWAP1 DUP2 MSTORE PUSH32 0x5111AEAE4AA79889928E72F88B5872109754DE9D419EA9A4E3DF5FBA21D4D46F PUSH1 0x20 MSTORE PUSH1 0x40 SWAP1 KECCAK256 SLOAD PUSH32 0x21702C8AF46127C7FA207F89D0B0A8441BB32959A0AC7DF790E9AB1A25C98926 SWAP1 PUSH1 0xFF AND ISZERO PUSH2 0x2C98 JUMPI POP JUMP JUMPDEST PUSH1 0x44 SWAP1 PUSH1 0x40 MLOAD SWAP1 PUSH32 0xE2517D3F00000000000000000000000000000000000000000000000000000000 DUP3 MSTORE CALLER PUSH1 0x4 DUP4 ADD MSTORE PUSH1 0x24 DUP3 ADD MSTORE REVERT JUMPDEST CALLER PUSH1 0x0 SWAP1 DUP2 MSTORE PUSH32 0x3C1B1854AB1360ABBB06C8D4C6B2672D4B8CEDC5EFF522AB19E51D5CB8FDBD46 PUSH1 0x20 MSTORE PUSH1 0x40 SWAP1 KECCAK256 SLOAD PUSH32 0xBF233DD2AAFEB4D50879C4AA5C81E96D92F6E6945C906A58F9F2D1C1631B4B26 SWAP1 PUSH1 0xFF AND ISZERO PUSH2 0x2C98 JUMPI POP JUMP JUMPDEST CALLER PUSH1 0x0 SWAP1 DUP2 MSTORE PUSH32 0xAD3228B676F7D3CD4284A5443F17F1962B36E491B30A40B2405849E597BA5FB5 PUSH1 0x20 MSTORE PUSH1 0x40 DUP2 KECCAK256 SLOAD PUSH1 0xFF AND ISZERO PUSH2 0x2C98 JUMPI POP JUMP JUMPDEST DUP1 PUSH1 0x0 MSTORE PUSH1 0x0 PUSH1 0x20 MSTORE PUSH1 0x40 PUSH1 0x0 KECCAK256 CALLER PUSH1 0x0 MSTORE PUSH1 0x20 MSTORE PUSH1 0xFF PUSH1 0x40 PUSH1 0x0 KECCAK256 SLOAD AND ISZERO PUSH2 0x2C98 JUMPI POP JUMP JUMPDEST PUSH20 0xFFFFFFFFFFFFFFFFFFFFFFFFFFFFFFFFFFFFFFFF AND PUSH1 0x0 DUP2 DUP2 MSTORE PUSH32 0x5111AEAE4AA79889928E72F88B5872109754DE9D419EA9A4E3DF5FBA21D4D46F PUSH1 0x20 MSTORE PUSH1 0x40 DUP2 KECCAK256 SLOAD SWAP1 SWAP2 SWAP1 PUSH32 0x21702C8AF46127C7FA207F89D0B0A8441BB32959A0AC7DF790E9AB1A25C98926 SWAP1 PUSH1 0xFF AND PUSH2 0x2E63 JUMPI DUP1 DUP4 MSTORE DUP3 PUSH1 0x20 MSTORE PUSH1 0x40 DUP4 KECCAK256 DUP3 DUP5 MSTORE PUSH1 0x20 MSTORE PUSH1 0x40 DUP4 KECCAK256 PUSH1 0x1 PUSH32 0xFFFFFFFFFFFFFFFFFFFFFFFFFFFFFFFFFFFFFFFFFFFFFFFFFFFFFFFFFFFFFF00 DUP3 SLOAD AND OR SWAP1 SSTORE PUSH32 0x2F8788117E7EFF1D82E926EC794901D17C78024A50270940304540A733656F0D CALLER SWAP4 DUP1 LOG4 PUSH1 0x1 SWAP1 JUMP JUMPDEST POP POP SWAP1 JUMP JUMPDEST SWAP1 PUSH1 0x0 SWAP2 DUP1 DUP4 MSTORE DUP3 PUSH1 0x20 MSTORE PUSH20 0xFFFFFFFFFFFFFFFFFFFFFFFFFFFFFFFFFFFFFFFF PUSH1 0x40 DUP5 KECCAK256 SWAP3 AND SWAP2 DUP3 DUP5 MSTORE PUSH1 0x20 MSTORE PUSH1 0xFF PUSH1 0x40 DUP5 KECCAK256 SLOAD AND ISZERO PUSH1 0x0 EQ PUSH2 0x2E63 JUMPI DUP1 DUP4 MSTORE DUP3 PUSH1 0x20 MSTORE PUSH1 0x40 DUP4 KECCAK256 DUP3 DUP5 MSTORE PUSH1 0x20 MSTORE PUSH1 0x40 DUP4 KECCAK256 PUSH1 0x1 PUSH32 0xFFFFFFFFFFFFFFFFFFFFFFFFFFFFFFFFFFFFFFFFFFFFFFFFFFFFFFFFFFFFFF00 DUP3 SLOAD AND OR SWAP1 SSTORE PUSH32 0x2F8788117E7EFF1D82E926EC794901D17C78024A50270940304540A733656F0D CALLER SWAP4 DUP1 LOG4 PUSH1 0x1 SWAP1 JUMP JUMPDEST PUSH20 0xFFFFFFFFFFFFFFFFFFFFFFFFFFFFFFFFFFFFFFFF AND PUSH1 0x0 DUP2 DUP2 MSTORE PUSH32 0x5111AEAE4AA79889928E72F88B5872109754DE9D419EA9A4E3DF5FBA21D4D46F PUSH1 0x20 MSTORE PUSH1 0x40 DUP2 KECCAK256 SLOAD SWAP1 SWAP2 SWAP1 PUSH32 0x21702C8AF46127C7FA207F89D0B0A8441BB32959A0AC7DF790E9AB1A25C98926 SWAP1 PUSH1 0xFF AND ISZERO PUSH2 0x2E63 JUMPI DUP1 DUP4 MSTORE DUP3 PUSH1 0x20 MSTORE PUSH1 0x40 DUP4 KECCAK256 DUP3 DUP5 MSTORE PUSH1 0x20 MSTORE PUSH1 0x40 DUP4 KECCAK256 PUSH32 0xFFFFFFFFFFFFFFFFFFFFFFFFFFFFFFFFFFFFFFFFFFFFFFFFFFFFFFFFFFFFFF00 DUP2 SLOAD AND SWAP1 SSTORE PUSH32 0xF6391F5C32D9C69D2A47EA670B442974B53935D1EDC7FD64EB21E047A839171B CALLER SWAP4 DUP1 LOG4 PUSH1 0x1 SWAP1 JUMP JUMPDEST SWAP1 PUSH1 0x0 SWAP2 DUP1 DUP4 MSTORE DUP3 PUSH1 0x20 MSTORE PUSH20 0xFFFFFFFFFFFFFFFFFFFFFFFFFFFFFFFFFFFFFFFF PUSH1 0x40 DUP5 KECCAK256 SWAP3 AND SWAP2 DUP3 DUP5 MSTORE PUSH1 0x20 MSTORE PUSH1 0xFF PUSH1 0x40 DUP5 KECCAK256 SLOAD AND PUSH1 0x0 EQ PUSH2 0x2E63 JUMPI DUP1 DUP4 MSTORE DUP3 PUSH1 0x20 MSTORE PUSH1 0x40 DUP4 KECCAK256 DUP3 DUP5 MSTORE PUSH1 0x20 MSTORE PUSH1 0x40 DUP4 KECCAK256 PUSH32 0xFFFFFFFFFFFFFFFFFFFFFFFFFFFFFFFFFFFFFFFFFFFFFFFFFFFFFFFFFFFFFF00 DUP2 SLOAD AND SWAP1 SSTORE PUSH32 0xF6391F5C32D9C69D2A47EA670B442974B53935D1EDC7FD64EB21E047A839171B CALLER SWAP4 DUP1 LOG4 PUSH1 0x1 SWAP1 JUMP JUMPDEST ISZERO PUSH2 0x308B JUMPI JUMP JUMPDEST PUSH1 0x64 PUSH1 0x40 MLOAD PUSH32 0x8C379A000000000000000000000000000000000000000000000000000000000 DUP2 MSTORE PUSH1 0x20 PUSH1 0x4 DUP3 ADD MSTORE PUSH1 0x11 PUSH1 0x24 DUP3 ADD MSTORE PUSH32 0x496E76616C696420726563697069656E74000000000000000000000000000000 PUSH1 0x44 DUP3 ADD MSTORE REVERT JUMPDEST ISZERO PUSH2 0x30F0 JUMPI JUMP JUMPDEST PUSH1 0x64 PUSH1 0x40 MLOAD PUSH32 0x8C379A000000000000000000000000000000000000000000000000000000000 DUP2 MSTORE PUSH1 0x20 PUSH1 0x4 DUP3 ADD MSTORE PUSH1 0x10 PUSH1 0x24 DUP3 ADD MSTORE PUSH32 0x416D6F756E7420746F6F20736D616C6C00000000000000000000000000000000 PUSH1 0x44 DUP3 ADD MSTORE REVERT JUMPDEST ISZERO PUSH2 0x3155 JUMPI JUMP JUMPDEST PUSH1 0x64 PUSH1 0x40 MLOAD PUSH32 0x8C379A000000000000000000000000000000000000000000000000000000000 DUP2 MSTORE PUSH1 0x20 PUSH1 0x4 DUP3 ADD MSTORE PUSH1 0x10 PUSH1 0x24 DUP3 ADD MSTORE PUSH32 0x416D6F756E7420746F6F206C6172676500000000000000000000000000000000 PUSH1 0x44 DUP3 ADD MSTORE REVERT JUMPDEST PUSH32 0xFFFFFFFFFFFFFFFFFFFFFFFFFFFFFFFFFFFFFFFFFFFFFFFFFFFFFFFFFFFFFFFF DUP2 EQ PUSH2 0x31E0 JUMPI PUSH1 0x1 ADD SWAP1 JUMP JUMPDEST PUSH32 0x4E487B7100000000000000000000000000000000000000000000000000000000 PUSH1 0x0 MSTORE PUSH1 0x11 PUSH1 0x4 MSTORE PUSH1 0x24 PUSH1 0x0 REVERT JUMPDEST SWAP1 PUSH1 0x3 DUP2 LT ISZERO PUSH2 0x28F8 JUMPI PUSH32 0xFFFFFFFFFFFFFFFFFFFFFF00FFFFFFFFFFFFFFFFFFFFFFFFFFFFFFFFFFFFFFFF PUSH21 0xFF0000000000000000000000000000000000000000 DUP4 SLOAD SWAP3 PUSH1 0xA0 SHL AND SWAP2 AND OR SWAP1 SSTORE JUMP JUMPDEST SWAP2 SWAP1 DUP3 ADD DUP1 SWAP3 GT PUSH2 0x31E0 JUMPI JUMP JUMPDEST DUP1 SLOAD PUSH9 0x10000000000000000 DUP2 LT ISZERO PUSH2 0x2A3F JUMPI PUSH2 0x328D SWAP2 PUSH1 0x1 DUP3 ADD DUP2 SSTORE PUSH2 0x28A4 JUMP JUMPDEST PUSH32 0xFFFFFFFFFFFFFFFFFFFFFFFFFFFFFFFFFFFFFFFFFFFFFFFFFFFFFFFFFFFFFFFF DUP3 SWAP4 SWAP3 SLOAD SWAP2 PUSH1 0x3 SHL SWAP3 DUP4 SHL SWAP3 SHL NOT AND OR SWAP1 SSTORE JUMP JUMPDEST SWAP1 DUP2 PUSH1 0x20 SWAP2 SUB SLT PUSH2 0x19C9 JUMPI MLOAD DUP1 ISZERO ISZERO DUP2 SUB PUSH2 0x19C9 JUMPI SWAP1 JUMP JUMPDEST PUSH1 0xFF PUSH1 0x2 SLOAD AND PUSH2 0x32E6 JUMPI JUMP JUMPDEST PUSH1 0x4 PUSH1 0x40 MLOAD PUSH32 0xD93C066500000000000000000000000000000000000000000000000000000000 DUP2 MSTORE REVERT JUMPDEST ISZERO PUSH2 0x3317 JUMPI JUMP JUMPDEST PUSH1 0x64 PUSH1 0x40 MLOAD PUSH32 0x8C379A000000000000000000000000000000000000000000000000000000000 DUP2 MSTORE PUSH1 0x20 PUSH1 0x4 DUP3 ADD MSTORE PUSH1 0x16 PUSH1 0x24 DUP3 ADD MSTORE PUSH32 0x5265717565737420646F6573206E6F7420657869737400000000000000000000 PUSH1 0x44 DUP3 ADD MSTORE REVERT JUMPDEST ISZERO PUSH2 0x337C JUMPI JUMP JUMPDEST PUSH1 0x64 PUSH1 0x40 MLOAD PUSH32 0x8C379A000000000000000000000000000000000000000000000000000000000 DUP2 MSTORE PUSH1 0x20 PUSH1 0x4 DUP3 ADD MSTORE PUSH1 0x19 PUSH1 0x24 DUP3 ADD MSTORE PUSH32 0x496E76616C6964207265717565737420646972656374696F6E00000000000000 PUSH1 0x44 DUP3 ADD MSTORE REVERT JUMPDEST DUP2 DUP2 MUL SWAP3 SWAP2 DUP2 ISZERO SWAP2 DUP5 DIV EQ OR ISZERO PUSH2 0x31E0 JUMPI JUMP JUMPDEST DUP2 ISZERO PUSH2 0x33F7 JUMPI DIV SWAP1 JUMP JUMPDEST PUSH32 0x4E487B7100000000000000000000000000000000000000000000000000000000 PUSH1 0x0 MSTORE PUSH1 0x12 PUSH1 0x4 MSTORE PUSH1 0x24 PUSH1 0x0 REVERT INVALID LOG2 PUSH5 0x6970667358 0x22 SLT KECCAK256 PUSH20 0xC49787B276B02AABDF2F70305EBFD6414FFC9A24 0x28 0x4A CHAINID 0xE7 0xE2 0xD4 CHAINID EQ PUSH32 0x43CD64736F6C634300081400332F8788117E7EFF1D82E926EC794901D17C7802 0x4A POP 0x27 MULMOD BLOCKHASH ADDRESS GASLIMIT BLOCKHASH 0xA7 CALLER PUSH6 0x6F0D00000000 "},"gasEstimates":{"creation":{"codeDepositCost":"2680800","executionCost":"infinite","totalCost":"infinite"},"external":{"BRIDGE_OPERATOR_ROLE()":"402","BRIDGE_TIMEOUT()":"776","DEFAULT_ADMIN_ROLE()":"823","EMERGENCY_ROLE()":"204","MAX_BRIDGE_AMOUNT()":"556","MIN_BRIDGE_AMOUNT()":"644","VALIDATOR_ROLE()":"930","bridgeConfigs(address)":"11187","bridgeFee()":"2681","bridgeRequests(uint256)":"infinite","bridgeToL3(address,uint8,address,uint256,uint256)":"infinite","completeL2ToL3Request(uint256)":"66086","emergencyWithdrawETH()":"infinite","emergencyWithdrawTokens(address,uint256)":"infinite","getBridgeRequest(uint256)":"infinite","getRoleAdmin(bytes32)":"2401","getUserRequests(address)":"infinite","getValidatorInfo(address)":"11473","grantRole(bytes32,address)":"33310","hasRole(bytes32,address)":"3043","pause()":"30222","paused()":"2583","processL2ToL3Request(uint256,string,bytes32)":"infinite","processL3ToL2Request(address,address,uint8,address,uint256,uint256,string,bytes32)":"infinite","processedTransactions(bytes32)":"3023","registerValidator()":"infinite","renounceRole(bytes32,address)":"28924","requestCounter()":"2857","revokeRole(bytes32,address)":"34005","settlementContract()":"3133","supportsInterface(bytes4)":"259","totalRequests()":"2791","totalVolume()":"2593","unpause()":"27831","unregisterValidator()":"infinite","updateBridgeFee(uint256)":"28166","updateSettlementContract(address)":"27425","updateValidatorStake(uint256)":"28672","userRequests(address,uint256)":"6842","validatorStake()":"2527","validators(address)":"11841"}},"methodIdentifiers":{"BRIDGE_OPERATOR_ROLE()":"4be40fd1","BRIDGE_TIMEOUT()":"9a7c91d9","DEFAULT_ADMIN_ROLE()":"a217fddf","EMERGENCY_ROLE()":"20df4359","MAX_BRIDGE_AMOUNT()":"7fce0002","MIN_BRIDGE_AMOUNT()":"886688c1","VALIDATOR_ROLE()":"c49baebe","bridgeConfigs(address)":"427ac0ca","bridgeFee()":"82b12dd7","bridgeRequests(uint256)":"9f89c8a2","bridgeToL3(address,uint8,address,uint256,uint256)":"3de739e7","completeL2ToL3Request(uint256)":"0f5093d0","emergencyWithdrawETH()":"84536017","emergencyWithdrawTokens(address,uint256)":"917bb998","getBridgeRequest(uint256)":"3008afed","getRoleAdmin(bytes32)":"248a9ca3","getUserRequests(address)":"b337cf74","getValidatorInfo(address)":"8a11d7c9","grantRole(bytes32,address)":"2f2ff15d","hasRole(bytes32,address)":"91d14854","pause()":"8456cb59","paused()":"5c975abb","processL2ToL3Request(uint256,string,bytes32)":"e91a8b08","processL3ToL2Request(address,address,uint8,address,uint256,uint256,string,bytes32)":"6fa50dc0","processedTransactions(bytes32)":"ac2e4936","registerValidator()":"bcc6587f","renounceRole(bytes32,address)":"36568abe","requestCounter()":"973a814e","revokeRole(bytes32,address)":"d547741f","settlementContract()":"ea42418b","supportsInterface(bytes4)":"01ffc9a7","totalRequests()":"8aea61dc","totalVolume()":"5f81a57c","unpause()":"3f4ba83a","unregisterValidator()":"6ca56267","updateBridgeFee(uint256)":"5a1c0366","updateSettlementContract(address)":"c332226e","updateValidatorStake(uint256)":"c7f18fe5","userRequests(address,uint256)":"263cb6b6","validatorStake()":"58e312c4","validators(address)":"fa52c7d8"}},"storageLayout":{"storage":[{"astId":26,"contract":"contracts/GameDinL3Bridge.sol:GameDinL3Bridge","label":"_roles","offset":0,"slot":"0","type":"t_mapping(t_bytes32,t_struct(RoleData)21_storage)"},{"astId":1434,"contract":"contracts/GameDinL3Bridge.sol:GameDinL3Bridge","label":"_status","offset":0,"slot":"1","type":"t_uint256"},{"astId":1324,"contract":"contracts/GameDinL3Bridge.sol:GameDinL3Bridge","label":"_paused","offset":0,"slot":"2","type":"t_bool"},{"astId":1639,"contract":"contracts/GameDinL3Bridge.sol:GameDinL3Bridge","label":"settlementContract","offset":1,"slot":"2","type":"t_address"},{"astId":1641,"contract":"contracts/GameDinL3Bridge.sol:GameDinL3Bridge","label":"requestCounter","offset":0,"slot":"3","type":"t_uint256"},{"astId":1643,"contract":"contracts/GameDinL3Bridge.sol:GameDinL3Bridge","label":"totalRequests","offset":0,"slot":"4","type":"t_uint256"},{"astId":1645,"contract":"contracts/GameDinL3Bridge.sol:GameDinL3Bridge","label":"totalVolume","offset":0,"slot":"5","type":"t_uint256"},{"astId":1652,"contract":"contracts/GameDinL3Bridge.sol:GameDinL3Bridge","label":"bridgeFee","offset":0,"slot":"6","type":"t_uint256"},{"astId":1659,"contract":"contracts/GameDinL3Bridge.sol:GameDinL3Bridge","label":"validatorStake","offset":0,"slot":"7","type":"t_uint256"},{"astId":1664,"contract":"contracts/GameDinL3Bridge.sol:GameDinL3Bridge","label":"bridgeRequests","offset":0,"slot":"8","type":"t_mapping(t_uint256,t_struct(BridgeRequest)1615_storage)"},{"astId":1669,"contract":"contracts/GameDinL3Bridge.sol:GameDinL3Bridge","label":"userRequests","offset":0,"slot":"9","type":"t_mapping(t_address,t_array(t_uint256)dyn_storage)"},{"astId":1674,"contract":"contracts/GameDinL3Bridge.sol:GameDinL3Bridge","label":"validators","offset":0,"slot":"10","type":"t_mapping(t_address,t_struct(ValidatorInfo)1637_storage)"},{"astId":1678,"contract":"contracts/GameDinL3Bridge.sol:GameDinL3Bridge","label":"processedTransactions","offset":0,"slot":"11","type":"t_mapping(t_bytes32,t_bool)"},{"astId":1683,"contract":"contracts/GameDinL3Bridge.sol:GameDinL3Bridge","label":"bridgeConfigs","offset":0,"slot":"12","type":"t_mapping(t_address,t_struct(BridgeConfig)1626_storage)"}],"types":{"t_address":{"encoding":"inplace","label":"address","numberOfBytes":"20"},"t_array(t_uint256)dyn_storage":{"base":"t_uint256","encoding":"dynamic_array","label":"uint256[]","numberOfBytes":"32"},"t_bool":{"encoding":"inplace","label":"bool","numberOfBytes":"1"},"t_bytes32":{"encoding":"inplace","label":"bytes32","numberOfBytes":"32"},"t_enum(AssetType)1584":{"encoding":"inplace","label":"enum GameDinL3Bridge.AssetType","numberOfBytes":"1"},"t_enum(BridgeStatus)1580":{"encoding":"inplace","label":"enum GameDinL3Bridge.BridgeStatus","numberOfBytes":"1"},"t_mapping(t_address,t_array(t_uint256)dyn_storage)":{"encoding":"mapping","key":"t_address","label":"mapping(address => uint256[])","numberOfBytes":"32","value":"t_array(t_uint256)dyn_storage"},"t_mapping(t_address,t_bool)":{"encoding":"mapping","key":"t_address","label":"mapping(address => bool)","numberOfBytes":"32","value":"t_bool"},"t_mapping(t_address,t_struct(BridgeConfig)1626_storage)":{"encoding":"mapping","key":"t_address","label":"mapping(address => struct GameDinL3Bridge.BridgeConfig)","numberOfBytes":"32","value":"t_struct(BridgeConfig)1626_storage"},"t_mapping(t_address,t_struct(ValidatorInfo)1637_storage)":{"encoding":"mapping","key":"t_address","label":"mapping(address => struct GameDinL3Bridge.ValidatorInfo)","numberOfBytes":"32","value":"t_struct(ValidatorInfo)1637_storage"},"t_mapping(t_bytes32,t_bool)":{"encoding":"mapping","key":"t_bytes32","label":"mapping(bytes32 => bool)","numberOfBytes":"32","value":"t_bool"},"t_mapping(t_bytes32,t_struct(RoleData)21_storage)":{"encoding":"mapping","key":"t_bytes32","label":"mapping(bytes32 => struct AccessControl.RoleData)","numberOfBytes":"32","value":"t_struct(RoleData)21_storage"},"t_mapping(t_uint256,t_struct(BridgeRequest)1615_storage)":{"encoding":"mapping","key":"t_uint256","label":"mapping(uint256 => struct GameDinL3Bridge.BridgeRequest)","numberOfBytes":"32","value":"t_struct(BridgeRequest)1615_storage"},"t_string_storage":{"encoding":"bytes","label":"string","numberOfBytes":"32"},"t_struct(BridgeConfig)1626_storage":{"encoding":"inplace","label":"struct GameDinL3Bridge.BridgeConfig","members":[{"astId":1617,"contract":"contracts/GameDinL3Bridge.sol:GameDinL3Bridge","label":"isActive","offset":0,"slot":"0","type":"t_bool"},{"astId":1619,"contract":"contracts/GameDinL3Bridge.sol:GameDinL3Bridge","label":"minConfirmations","offset":0,"slot":"1","type":"t_uint256"},{"astId":1621,"contract":"contracts/GameDinL3Bridge.sol:GameDinL3Bridge","label":"maxAmount","offset":0,"slot":"2","type":"t_uint256"},{"astId":1623,"contract":"contracts/GameDinL3Bridge.sol:GameDinL3Bridge","label":"fee","offset":0,"slot":"3","type":"t_uint256"},{"astId":1625,"contract":"contracts/GameDinL3Bridge.sol:GameDinL3Bridge","label":"timeout","offset":0,"slot":"4","type":"t_uint256"}],"numberOfBytes":"160"},"t_struct(BridgeRequest)1615_storage":{"encoding":"inplace","label":"struct GameDinL3Bridge.BridgeRequest","members":[{"astId":1586,"contract":"contracts/GameDinL3Bridge.sol:GameDinL3Bridge","label":"requestId","offset":0,"slot":"0","type":"t_uint256"},{"astId":1588,"contract":"contracts/GameDinL3Bridge.sol:GameDinL3Bridge","label":"sender","offset":0,"slot":"1","type":"t_address"},{"astId":1590,"contract":"contracts/GameDinL3Bridge.sol:GameDinL3Bridge","label":"recipient","offset":0,"slot":"2","type":"t_address"},{"astId":1593,"contract":"contracts/GameDinL3Bridge.sol:GameDinL3Bridge","label":"assetType","offset":20,"slot":"2","type":"t_enum(AssetType)1584"},{"astId":1595,"contract":"contracts/GameDinL3Bridge.sol:GameDinL3Bridge","label":"assetAddress","offset":0,"slot":"3","type":"t_address"},{"astId":1597,"contract":"contracts/GameDinL3Bridge.sol:GameDinL3Bridge","label":"amount","offset":0,"slot":"4","type":"t_uint256"},{"astId":1599,"contract":"contracts/GameDinL3Bridge.sol:GameDinL3Bridge","label":"tokenId","offset":0,"slot":"5","type":"t_uint256"},{"astId":1602,"contract":"contracts/GameDinL3Bridge.sol:GameDinL3Bridge","label":"status","offset":0,"slot":"6","type":"t_enum(BridgeStatus)1580"},{"astId":1604,"contract":"contracts/GameDinL3Bridge.sol:GameDinL3Bridge","label":"timestamp","offset":0,"slot":"7","type":"t_uint256"},{"astId":1606,"contract":"contracts/GameDinL3Bridge.sol:GameDinL3Bridge","label":"deadline","offset":0,"slot":"8","type":"t_uint256"},{"astId":1608,"contract":"contracts/GameDinL3Bridge.sol:GameDinL3Bridge","label":"merkleRoot","offset":0,"slot":"9","type":"t_bytes32"},{"astId":1610,"contract":"contracts/GameDinL3Bridge.sol:GameDinL3Bridge","label":"l3TransactionHash","offset":0,"slot":"10","type":"t_string_storage"},{"astId":1612,"contract":"contracts/GameDinL3Bridge.sol:GameDinL3Bridge","label":"validator","offset":0,"slot":"11","type":"t_address"},{"astId":1614,"contract":"contracts/GameDinL3Bridge.sol:GameDinL3Bridge","label":"isL3ToL2","offset":20,"slot":"11","type":"t_bool"}],"numberOfBytes":"384"},"t_struct(RoleData)21_storage":{"encoding":"inplace","label":"struct AccessControl.RoleData","members":[{"astId":18,"contract":"contracts/GameDinL3Bridge.sol:GameDinL3Bridge","label":"hasRole","offset":0,"slot":"0","type":"t_mapping(t_address,t_bool)"},{"astId":20,"contract":"contracts/GameDinL3Bridge.sol:GameDinL3Bridge","label":"adminRole","offset":0,"slot":"1","type":"t_bytes32"}],"numberOfBytes":"64"},"t_struct(ValidatorInfo)1637_storage":{"encoding":"inplace","label":"struct GameDinL3Bridge.ValidatorInfo","members":[{"astId":1628,"contract":"contracts/GameDinL3Bridge.sol:GameDinL3Bridge","label":"isActive","offset":0,"slot":"0","type":"t_bool"},{"astId":1630,"contract":"contracts/GameDinL3Bridge.sol:GameDinL3Bridge","label":"totalProcessed","offset":0,"slot":"1","type":"t_uint256"},{"astId":1632,"contract":"contracts/GameDinL3Bridge.sol:GameDinL3Bridge","label":"successRate","offset":0,"slot":"2","type":"t_uint256"},{"astId":1634,"contract":"contracts/GameDinL3Bridge.sol:GameDinL3Bridge","label":"lastActivity","offset":0,"slot":"3","type":"t_uint256"},{"astId":1636,"contract":"contracts/GameDinL3Bridge.sol:GameDinL3Bridge","label":"stake","offset":0,"slot":"4","type":"t_uint256"}],"numberOfBytes":"160"},"t_uint256":{"encoding":"inplace","label":"uint256","numberOfBytes":"32"}}},"userdoc":{"kind":"user","methods":{},"version":1}}}}