{"contracts/GameDinSettlement.sol":{"GameDinSettlement":{"abi":[{"inputs":[{"internalType":"address","name":"initialOwner","type":"address"},{"internalType":"uint256","name":"initialSupply","type":"uint256"}],"stateMutability":"nonpayable","type":"constructor"},{"inputs":[],"name":"AccessControlBadConfirmation","type":"error"},{"inputs":[{"internalType":"address","name":"account","type":"address"},{"internalType":"bytes32","name":"neededRole","type":"bytes32"}],"name":"AccessControlUnauthorizedAccount","type":"error"},{"inputs":[{"internalType":"address","name":"spender","type":"address"},{"internalType":"uint256","name":"allowance","type":"uint256"},{"internalType":"uint256","name":"needed","type":"uint256"}],"name":"ERC20InsufficientAllowance","type":"error"},{"inputs":[{"internalType":"address","name":"sender","type":"address"},{"internalType":"uint256","name":"balance","type":"uint256"},{"internalType":"uint256","name":"needed","type":"uint256"}],"name":"ERC20InsufficientBalance","type":"error"},{"inputs":[{"internalType":"address","name":"approver","type":"address"}],"name":"ERC20InvalidApprover","type":"error"},{"inputs":[{"internalType":"address","name":"receiver","type":"address"}],"name":"ERC20InvalidReceiver","type":"error"},{"inputs":[{"internalType":"address","name":"sender","type":"address"}],"name":"ERC20InvalidSender","type":"error"},{"inputs":[{"internalType":"address","name":"spender","type":"address"}],"name":"ERC20InvalidSpender","type":"error"},{"inputs":[],"name":"EnforcedPause","type":"error"},{"inputs":[],"name":"ExpectedPause","type":"error"},{"inputs":[],"name":"ReentrancyGuardReentrantCall","type":"error"},{"anonymous":false,"inputs":[{"indexed":true,"internalType":"address","name":"owner","type":"address"},{"indexed":true,"internalType":"address","name":"spender","type":"address"},{"indexed":false,"internalType":"uint256","name":"value","type":"uint256"}],"name":"Approval","type":"event"},{"anonymous":false,"inputs":[{"indexed":true,"internalType":"address","name":"bridgeAddress","type":"address"},{"indexed":false,"internalType":"bool","name":"isActive","type":"bool"},{"indexed":false,"internalType":"uint256","name":"minConfirmations","type":"uint256"},{"indexed":false,"internalType":"uint256","name":"maxAmount","type":"uint256"},{"indexed":false,"internalType":"uint256","name":"fee","type":"uint256"}],"name":"BridgeConfigUpdated","type":"event"},{"anonymous":false,"inputs":[{"indexed":false,"internalType":"uint256","name":"oldFee","type":"uint256"},{"indexed":false,"internalType":"uint256","name":"newFee","type":"uint256"}],"name":"DisputeFeeUpdated","type":"event"},{"anonymous":false,"inputs":[{"indexed":true,"internalType":"uint256","name":"settlementId","type":"uint256"},{"indexed":true,"internalType":"address","name":"resolver","type":"address"},{"indexed":false,"internalType":"string","name":"resolution","type":"string"},{"indexed":false,"internalType":"uint256","name":"timestamp","type":"uint256"}],"name":"DisputeResolved","type":"event"},{"anonymous":false,"inputs":[{"indexed":false,"internalType":"address","name":"account","type":"address"}],"name":"Paused","type":"event"},{"anonymous":false,"inputs":[{"indexed":true,"internalType":"bytes32","name":"role","type":"bytes32"},{"indexed":true,"internalType":"bytes32","name":"previousAdminRole","type":"bytes32"},{"indexed":true,"internalType":"bytes32","name":"newAdminRole","type":"bytes32"}],"name":"RoleAdminChanged","type":"event"},{"anonymous":false,"inputs":[{"indexed":true,"internalType":"bytes32","name":"role","type":"bytes32"},{"indexed":true,"internalType":"address","name":"account","type":"address"},{"indexed":true,"internalType":"address","name":"sender","type":"address"}],"name":"RoleGranted","type":"event"},{"anonymous":false,"inputs":[{"indexed":true,"internalType":"bytes32","name":"role","type":"bytes32"},{"indexed":true,"internalType":"address","name":"account","type":"address"},{"indexed":true,"internalType":"address","name":"sender","type":"address"}],"name":"RoleRevoked","type":"event"},{"anonymous":false,"inputs":[{"indexed":true,"internalType":"uint256","name":"settlementId","type":"uint256"},{"indexed":true,"internalType":"address","name":"confirmer","type":"address"},{"indexed":false,"internalType":"uint256","name":"timestamp","type":"uint256"}],"name":"SettlementConfirmed","type":"event"},{"anonymous":false,"inputs":[{"indexed":true,"internalType":"uint256","name":"settlementId","type":"uint256"},{"indexed":true,"internalType":"address","name":"from","type":"address"},{"indexed":true,"internalType":"address","name":"to","type":"address"},{"indexed":false,"internalType":"uint256","name":"amount","type":"uint256"},{"indexed":false,"internalType":"string","name":"l3TransactionHash","type":"string"},{"indexed":false,"internalType":"uint256","name":"timestamp","type":"uint256"}],"name":"SettlementCreated","type":"event"},{"anonymous":false,"inputs":[{"indexed":true,"internalType":"uint256","name":"settlementId","type":"uint256"},{"indexed":true,"internalType":"address","name":"initiator","type":"address"},{"indexed":false,"internalType":"enum GameDinSettlement.DisputeReason","name":"reason","type":"uint8"},{"indexed":false,"internalType":"string","name":"details","type":"string"},{"indexed":false,"internalType":"uint256","name":"timestamp","type":"uint256"}],"name":"SettlementDisputed","type":"event"},{"anonymous":false,"inputs":[{"indexed":false,"internalType":"uint256","name":"oldFee","type":"uint256"},{"indexed":false,"internalType":"uint256","name":"newFee","type":"uint256"}],"name":"SettlementFeeUpdated","type":"event"},{"anonymous":false,"inputs":[{"indexed":true,"internalType":"address","name":"from","type":"address"},{"indexed":true,"internalType":"address","name":"to","type":"address"},{"indexed":false,"internalType":"uint256","name":"value","type":"uint256"}],"name":"Transfer","type":"event"},{"anonymous":false,"inputs":[{"indexed":false,"internalType":"address","name":"account","type":"address"}],"name":"Unpaused","type":"event"},{"inputs":[],"name":"BRIDGE_ROLE","outputs":[{"internalType":"bytes32","name":"","type":"bytes32"}],"stateMutability":"view","type":"function"},{"inputs":[],"name":"DEFAULT_ADMIN_ROLE","outputs":[{"internalType":"bytes32","name":"","type":"bytes32"}],"stateMutability":"view","type":"function"},{"inputs":[],"name":"DISPUTE_RESOLVER_ROLE","outputs":[{"internalType":"bytes32","name":"","type":"bytes32"}],"stateMutability":"view","type":"function"},{"inputs":[],"name":"DISPUTE_WINDOW","outputs":[{"internalType":"uint256","name":"","type":"uint256"}],"stateMutability":"view","type":"function"},{"inputs":[],"name":"EMERGENCY_ROLE","outputs":[{"internalType":"bytes32","name":"","type":"bytes32"}],"stateMutability":"view","type":"function"},{"inputs":[],"name":"MAX_SETTLEMENT_AMOUNT","outputs":[{"internalType":"uint256","name":"","type":"uint256"}],"stateMutability":"view","type":"function"},{"inputs":[],"name":"SETTLEMENT_ROLE","outputs":[{"internalType":"bytes32","name":"","type":"bytes32"}],"stateMutability":"view","type":"function"},{"inputs":[],"name":"SETTLEMENT_TIMEOUT","outputs":[{"internalType":"uint256","name":"","type":"uint256"}],"stateMutability":"view","type":"function"},{"inputs":[{"internalType":"address","name":"owner","type":"address"},{"internalType":"address","name":"spender","type":"address"}],"name":"allowance","outputs":[{"internalType":"uint256","name":"","type":"uint256"}],"stateMutability":"view","type":"function"},{"inputs":[{"internalType":"address","name":"spender","type":"address"},{"internalType":"uint256","name":"value","type":"uint256"}],"name":"approve","outputs":[{"internalType":"bool","name":"","type":"bool"}],"stateMutability":"nonpayable","type":"function"},{"inputs":[{"internalType":"address","name":"account","type":"address"}],"name":"balanceOf","outputs":[{"internalType":"uint256","name":"","type":"uint256"}],"stateMutability":"view","type":"function"},{"inputs":[{"internalType":"address","name":"","type":"address"}],"name":"bridgeConfigs","outputs":[{"internalType":"address","name":"bridgeAddress","type":"address"},{"internalType":"bool","name":"isActive","type":"bool"},{"internalType":"uint256","name":"minConfirmations","type":"uint256"},{"internalType":"uint256","name":"maxAmount","type":"uint256"},{"internalType":"uint256","name":"fee","type":"uint256"}],"stateMutability":"view","type":"function"},{"inputs":[{"internalType":"address","name":"bridgeAddress","type":"address"},{"internalType":"bool","name":"isActive","type":"bool"},{"internalType":"uint256","name":"minConfirmations","type":"uint256"},{"internalType":"uint256","name":"maxAmount","type":"uint256"},{"internalType":"uint256","name":"fee","type":"uint256"}],"name":"configureBridge","outputs":[],"stateMutability":"nonpayable","type":"function"},{"inputs":[{"internalType":"uint256","name":"settlementId","type":"uint256"}],"name":"confirmSettlement","outputs":[],"stateMutability":"nonpayable","type":"function"},{"inputs":[{"internalType":"address","name":"to","type":"address"},{"internalType":"uint256","name":"amount","type":"uint256"},{"internalType":"string","name":"l3TransactionHash","type":"string"},{"internalType":"bytes32","name":"merkleRoot","type":"bytes32"}],"name":"createSettlement","outputs":[],"stateMutability":"nonpayable","type":"function"},{"inputs":[],"name":"decimals","outputs":[{"internalType":"uint8","name":"","type":"uint8"}],"stateMutability":"view","type":"function"},{"inputs":[],"name":"disputeFee","outputs":[{"internalType":"uint256","name":"","type":"uint256"}],"stateMutability":"view","type":"function"},{"inputs":[{"internalType":"uint256","name":"","type":"uint256"}],"name":"disputes","outputs":[{"internalType":"uint256","name":"settlementId","type":"uint256"},{"internalType":"address","name":"initiator","type":"address"},{"internalType":"enum GameDinSettlement.DisputeReason","name":"reason","type":"uint8"},{"internalType":"string","name":"details","type":"string"},{"internalType":"uint256","name":"timestamp","type":"uint256"},{"internalType":"bool","name":"resolved","type":"bool"},{"internalType":"address","name":"resolver","type":"address"},{"internalType":"string","name":"resolution","type":"string"}],"stateMutability":"view","type":"function"},{"inputs":[],"name":"emergencyWithdrawETH","outputs":[],"stateMutability":"nonpayable","type":"function"},{"inputs":[{"internalType":"address","name":"token","type":"address"},{"internalType":"uint256","name":"amount","type":"uint256"}],"name":"emergencyWithdrawTokens","outputs":[],"stateMutability":"nonpayable","type":"function"},{"inputs":[{"internalType":"address","name":"bridgeAddress","type":"address"}],"name":"getBridgeConfig","outputs":[{"internalType":"address","name":"bridge","type":"address"},{"internalType":"bool","name":"isActive","type":"bool"},{"internalType":"uint256","name":"minConfirmations","type":"uint256"},{"internalType":"uint256","name":"maxAmount","type":"uint256"},{"internalType":"uint256","name":"fee","type":"uint256"}],"stateMutability":"view","type":"function"},{"inputs":[{"internalType":"uint256","name":"settlementId","type":"uint256"}],"name":"getDispute","outputs":[{"internalType":"uint256","name":"id","type":"uint256"},{"internalType":"address","name":"initiator","type":"address"},{"internalType":"enum GameDinSettlement.DisputeReason","name":"reason","type":"uint8"},{"internalType":"string","name":"details","type":"string"},{"internalType":"uint256","name":"timestamp","type":"uint256"},{"internalType":"bool","name":"resolved","type":"bool"},{"internalType":"address","name":"resolver","type":"address"},{"internalType":"string","name":"resolution","type":"string"}],"stateMutability":"view","type":"function"},{"inputs":[{"internalType":"bytes32","name":"role","type":"bytes32"}],"name":"getRoleAdmin","outputs":[{"internalType":"bytes32","name":"","type":"bytes32"}],"stateMutability":"view","type":"function"},{"inputs":[{"internalType":"uint256","name":"settlementId","type":"uint256"}],"name":"getSettlement","outputs":[{"internalType":"uint256","name":"id","type":"uint256"},{"internalType":"address","name":"from","type":"address"},{"internalType":"address","name":"to","type":"address"},{"internalType":"uint256","name":"amount","type":"uint256"},{"internalType":"uint256","name":"timestamp","type":"uint256"},{"internalType":"enum GameDinSettlement.SettlementStatus","name":"status","type":"uint8"},{"internalType":"string","name":"l3TransactionHash","type":"string"},{"internalType":"bytes32","name":"merkleRoot","type":"bytes32"},{"internalType":"uint256","name":"disputeDeadline","type":"uint256"},{"internalType":"address","name":"disputeInitiator","type":"address"},{"internalType":"enum GameDinSettlement.DisputeReason","name":"disputeReason","type":"uint8"},{"internalType":"string","name":"disputeDetails","type":"string"}],"stateMutability":"view","type":"function"},{"inputs":[{"internalType":"address","name":"user","type":"address"}],"name":"getUserSettlements","outputs":[{"internalType":"uint256[]","name":"","type":"uint256[]"}],"stateMutability":"view","type":"function"},{"inputs":[{"internalType":"bytes32","name":"role","type":"bytes32"},{"internalType":"address","name":"account","type":"address"}],"name":"grantRole","outputs":[],"stateMutability":"nonpayable","type":"function"},{"inputs":[{"internalType":"bytes32","name":"role","type":"bytes32"},{"internalType":"address","name":"account","type":"address"}],"name":"hasRole","outputs":[{"internalType":"bool","name":"","type":"bool"}],"stateMutability":"view","type":"function"},{"inputs":[{"internalType":"uint256","name":"settlementId","type":"uint256"},{"internalType":"enum GameDinSettlement.DisputeReason","name":"reason","type":"uint8"},{"internalType":"string","name":"details","type":"string"}],"name":"initiateDispute","outputs":[],"stateMutability":"payable","type":"function"},{"inputs":[],"name":"name","outputs":[{"internalType":"string","name":"","type":"string"}],"stateMutability":"view","type":"function"},{"inputs":[],"name":"pause","outputs":[],"stateMutability":"nonpayable","type":"function"},{"inputs":[],"name":"paused","outputs":[{"internalType":"bool","name":"","type":"bool"}],"stateMutability":"view","type":"function"},{"inputs":[{"internalType":"address","name":"from","type":"address"},{"internalType":"address","name":"to","type":"address"},{"internalType":"uint256","name":"amount","type":"uint256"},{"internalType":"address","name":"bridgeAddress","type":"address"}],"name":"processBridgeTransaction","outputs":[],"stateMutability":"nonpayable","type":"function"},{"inputs":[{"internalType":"bytes32","name":"","type":"bytes32"}],"name":"processedL3Transactions","outputs":[{"internalType":"bool","name":"","type":"bool"}],"stateMutability":"view","type":"function"},{"inputs":[{"internalType":"bytes32","name":"role","type":"bytes32"},{"internalType":"address","name":"callerConfirmation","type":"address"}],"name":"renounceRole","outputs":[],"stateMutability":"nonpayable","type":"function"},{"inputs":[{"internalType":"uint256","name":"settlementId","type":"uint256"},{"internalType":"string","name":"resolution","type":"string"},{"internalType":"bool","name":"approveSettlement","type":"bool"}],"name":"resolveDispute","outputs":[],"stateMutability":"nonpayable","type":"function"},{"inputs":[{"internalType":"bytes32","name":"role","type":"bytes32"},{"internalType":"address","name":"account","type":"address"}],"name":"revokeRole","outputs":[],"stateMutability":"nonpayable","type":"function"},{"inputs":[],"name":"settlementCounter","outputs":[{"internalType":"uint256","name":"","type":"uint256"}],"stateMutability":"view","type":"function"},{"inputs":[],"name":"settlementFee","outputs":[{"internalType":"uint256","name":"","type":"uint256"}],"stateMutability":"view","type":"function"},{"inputs":[{"internalType":"uint256","name":"","type":"uint256"}],"name":"settlements","outputs":[{"internalType":"uint256","name":"settlementId","type":"uint256"},{"internalType":"address","name":"from","type":"address"},{"internalType":"address","name":"to","type":"address"},{"internalType":"uint256","name":"amount","type":"uint256"},{"internalType":"uint256","name":"timestamp","type":"uint256"},{"internalType":"enum GameDinSettlement.SettlementStatus","name":"status","type":"uint8"},{"internalType":"string","name":"l3TransactionHash","type":"string"},{"internalType":"bytes32","name":"merkleRoot","type":"bytes32"},{"internalType":"uint256","name":"disputeDeadline","type":"uint256"},{"internalType":"address","name":"disputeInitiator","type":"address"},{"internalType":"enum GameDinSettlement.DisputeReason","name":"disputeReason","type":"uint8"},{"internalType":"string","name":"disputeDetails","type":"string"}],"stateMutability":"view","type":"function"},{"inputs":[{"internalType":"bytes4","name":"interfaceId","type":"bytes4"}],"name":"supportsInterface","outputs":[{"internalType":"bool","name":"","type":"bool"}],"stateMutability":"view","type":"function"},{"inputs":[],"name":"symbol","outputs":[{"internalType":"string","name":"","type":"string"}],"stateMutability":"view","type":"function"},{"inputs":[],"name":"totalDisputes","outputs":[{"internalType":"uint256","name":"","type":"uint256"}],"stateMutability":"view","type":"function"},{"inputs":[],"name":"totalSettlements","outputs":[{"internalType":"uint256","name":"","type":"uint256"}],"stateMutability":"view","type":"function"},{"inputs":[],"name":"totalSupply","outputs":[{"internalType":"uint256","name":"","type":"uint256"}],"stateMutability":"view","type":"function"},{"inputs":[{"internalType":"address","name":"to","type":"address"},{"internalType":"uint256","name":"value","type":"uint256"}],"name":"transfer","outputs":[{"internalType":"bool","name":"","type":"bool"}],"stateMutability":"nonpayable","type":"function"},{"inputs":[{"internalType":"address","name":"from","type":"address"},{"internalType":"address","name":"to","type":"address"},{"internalType":"uint256","name":"value","type":"uint256"}],"name":"transferFrom","outputs":[{"internalType":"bool","name":"","type":"bool"}],"stateMutability":"nonpayable","type":"function"},{"inputs":[],"name":"unpause","outputs":[],"stateMutability":"nonpayable","type":"function"},{"inputs":[{"internalType":"uint256","name":"newFee","type":"uint256"}],"name":"updateDisputeFee","outputs":[],"stateMutability":"nonpayable","type":"function"},{"inputs":[{"internalType":"uint256","name":"newFee","type":"uint256"}],"name":"updateSettlementFee","outputs":[],"stateMutability":"nonpayable","type":"function"},{"inputs":[{"internalType":"address","name":"","type":"address"},{"internalType":"uint256","name":"","type":"uint256"}],"name":"userSettlements","outputs":[{"internalType":"uint256","name":"","type":"uint256"}],"stateMutability":"view","type":"function"},{"stateMutability":"payable","type":"receive"}],"devdoc":{"details":"L2 settlement layer for GameDin L3 gaming blockchain Handles cross-chain asset transfers, dispute resolution, and final settlement","errors":{"AccessControlBadConfirmation()":[{"details":"The caller of a function is not the expected one. NOTE: Don't confuse with {AccessControlUnauthorizedAccount}."}],"AccessControlUnauthorizedAccount(address,bytes32)":[{"details":"The `account` is missing a role."}],"ERC20InsufficientAllowance(address,uint256,uint256)":[{"details":"Indicates a failure with the `spender`’s `allowance`. Used in transfers.","params":{"allowance":"Amount of tokens a `spender` is allowed to operate with.","needed":"Minimum amount required to perform a transfer.","spender":"Address that may be allowed to operate on tokens without being their owner."}}],"ERC20InsufficientBalance(address,uint256,uint256)":[{"details":"Indicates an error related to the current `balance` of a `sender`. Used in transfers.","params":{"balance":"Current balance for the interacting account.","needed":"Minimum amount required to perform a transfer.","sender":"Address whose tokens are being transferred."}}],"ERC20InvalidApprover(address)":[{"details":"Indicates a failure with the `approver` of a token to be approved. Used in approvals.","params":{"approver":"Address initiating an approval operation."}}],"ERC20InvalidReceiver(address)":[{"details":"Indicates a failure with the token `receiver`. Used in transfers.","params":{"receiver":"Address to which tokens are being transferred."}}],"ERC20InvalidSender(address)":[{"details":"Indicates a failure with the token `sender`. Used in transfers.","params":{"sender":"Address whose tokens are being transferred."}}],"ERC20InvalidSpender(address)":[{"details":"Indicates a failure with the `spender` to be approved. Used in approvals.","params":{"spender":"Address that may be allowed to operate on tokens without being their owner."}}],"EnforcedPause()":[{"details":"The operation failed because the contract is paused."}],"ExpectedPause()":[{"details":"The operation failed because the contract is not paused."}],"ReentrancyGuardReentrantCall()":[{"details":"Unauthorized reentrant call."}]},"events":{"Approval(address,address,uint256)":{"details":"Emitted when the allowance of a `spender` for an `owner` is set by a call to {approve}. `value` is the new allowance."},"Paused(address)":{"details":"Emitted when the pause is triggered by `account`."},"RoleAdminChanged(bytes32,bytes32,bytes32)":{"details":"Emitted when `newAdminRole` is set as ``role``'s admin role, replacing `previousAdminRole` `DEFAULT_ADMIN_ROLE` is the starting admin for all roles, despite {RoleAdminChanged} not being emitted to signal this."},"RoleGranted(bytes32,address,address)":{"details":"Emitted when `account` is granted `role`. `sender` is the account that originated the contract call. This account bears the admin role (for the granted role). Expected in cases where the role was granted using the internal {AccessControl-_grantRole}."},"RoleRevoked(bytes32,address,address)":{"details":"Emitted when `account` is revoked `role`. `sender` is the account that originated the contract call:   - if using `revokeRole`, it is the admin role bearer   - if using `renounceRole`, it is the role bearer (i.e. `account`)"},"Transfer(address,address,uint256)":{"details":"Emitted when `value` tokens are moved from one account (`from`) to another (`to`). Note that `value` may be zero."},"Unpaused(address)":{"details":"Emitted when the pause is lifted by `account`."}},"kind":"dev","methods":{"allowance(address,address)":{"details":"See {IERC20-allowance}."},"approve(address,uint256)":{"details":"See {IERC20-approve}. NOTE: If `value` is the maximum `uint256`, the allowance is not updated on `transferFrom`. This is semantically equivalent to an infinite approval. Requirements: - `spender` cannot be the zero address."},"balanceOf(address)":{"details":"See {IERC20-balanceOf}."},"configureBridge(address,bool,uint256,uint256,uint256)":{"details":"Configure a bridge","params":{"bridgeAddress":"Bridge contract address","fee":"Bridge fee","isActive":"Whether bridge is active","maxAmount":"Maximum amount per transaction","minConfirmations":"Minimum confirmations required"}},"confirmSettlement(uint256)":{"details":"Confirm a settlement","params":{"settlementId":"Settlement ID"}},"createSettlement(address,uint256,string,bytes32)":{"details":"Create a new settlement","params":{"amount":"Settlement amount","l3TransactionHash":"L3 transaction hash","merkleRoot":"Merkle root for verification","to":"Recipient address"}},"decimals()":{"details":"Returns the number of decimals used to get its user representation. For example, if `decimals` equals `2`, a balance of `505` tokens should be displayed to a user as `5.05` (`505 / 10 ** 2`). Tokens usually opt for a value of 18, imitating the relationship between Ether and Wei. This is the default value returned by this function, unless it's overridden. NOTE: This information is only used for _display_ purposes: it in no way affects any of the arithmetic of the contract, including {IERC20-balanceOf} and {IERC20-transfer}."},"emergencyWithdrawETH()":{"details":"Emergency withdraw ETH"},"emergencyWithdrawTokens(address,uint256)":{"details":"Emergency withdraw tokens","params":{"amount":"Amount to withdraw","token":"Token address"}},"getBridgeConfig(address)":{"details":"Get bridge configuration","params":{"bridgeAddress":"Bridge address"},"returns":{"bridge":"Bridge address","fee":"Bridge fee","isActive":"Whether active","maxAmount":"Maximum amount","minConfirmations":"Minimum confirmations"}},"getDispute(uint256)":{"details":"Get dispute details","params":{"settlementId":"Settlement ID"},"returns":{"details":"Dispute details","id":"Settlement ID","initiator":"Dispute initiator","reason":"Dispute reason","resolution":"Resolution details","resolved":"Whether resolved","resolver":"Resolver address","timestamp":"Timestamp"}},"getRoleAdmin(bytes32)":{"details":"Returns the admin role that controls `role`. See {grantRole} and {revokeRole}. To change a role's admin, use {_setRoleAdmin}."},"getSettlement(uint256)":{"details":"Get settlement details","params":{"settlementId":"Settlement ID"},"returns":{"amount":"Amount","disputeDeadline":"Dispute deadline","disputeDetails":"Dispute details","disputeInitiator":"Dispute initiator","disputeReason":"Dispute reason","from":"Sender address","id":"Settlement ID","l3TransactionHash":"L3 transaction hash","merkleRoot":"Merkle root","status":"Settlement status","timestamp":"Timestamp","to":"Recipient address"}},"getUserSettlements(address)":{"details":"Get user settlements","params":{"user":"User address"},"returns":{"_0":"settlementIds Array of settlement IDs"}},"grantRole(bytes32,address)":{"details":"Grants `role` to `account`. If `account` had not been already granted `role`, emits a {RoleGranted} event. Requirements: - the caller must have ``role``'s admin role. May emit a {RoleGranted} event."},"hasRole(bytes32,address)":{"details":"Returns `true` if `account` has been granted `role`."},"initiateDispute(uint256,uint8,string)":{"details":"Initiate a dispute for a settlement","params":{"details":"Dispute details","reason":"Dispute reason","settlementId":"Settlement ID"}},"name()":{"details":"Returns the name of the token."},"pause()":{"details":"Pause contract"},"paused()":{"details":"Returns true if the contract is paused, and false otherwise."},"processBridgeTransaction(address,address,uint256,address)":{"details":"Process bridge transaction","params":{"amount":"Amount to transfer","bridgeAddress":"Bridge address","from":"Source address","to":"Destination address"}},"renounceRole(bytes32,address)":{"details":"Revokes `role` from the calling account. Roles are often managed via {grantRole} and {revokeRole}: this function's purpose is to provide a mechanism for accounts to lose their privileges if they are compromised (such as when a trusted device is misplaced). If the calling account had been revoked `role`, emits a {RoleRevoked} event. Requirements: - the caller must be `callerConfirmation`. May emit a {RoleRevoked} event."},"resolveDispute(uint256,string,bool)":{"details":"Resolve a dispute","params":{"approveSettlement":"Whether to approve the settlement","resolution":"Resolution details","settlementId":"Settlement ID"}},"revokeRole(bytes32,address)":{"details":"Revokes `role` from `account`. If `account` had been granted `role`, emits a {RoleRevoked} event. Requirements: - the caller must have ``role``'s admin role. May emit a {RoleRevoked} event."},"supportsInterface(bytes4)":{"details":"See {IERC165-supportsInterface}."},"symbol()":{"details":"Returns the symbol of the token, usually a shorter version of the name."},"totalSupply()":{"details":"See {IERC20-totalSupply}."},"transfer(address,uint256)":{"details":"See {IERC20-transfer}. Requirements: - `to` cannot be the zero address. - the caller must have a balance of at least `value`."},"transferFrom(address,address,uint256)":{"details":"See {IERC20-transferFrom}. Skips emitting an {Approval} event indicating an allowance update. This is not required by the ERC. See {xref-ERC20-_approve-address-address-uint256-bool-}[_approve]. NOTE: Does not update the allowance if the current allowance is the maximum `uint256`. Requirements: - `from` and `to` cannot be the zero address. - `from` must have a balance of at least `value`. - the caller must have allowance for ``from``'s tokens of at least `value`."},"unpause()":{"details":"Unpause contract"},"updateDisputeFee(uint256)":{"details":"Update dispute fee","params":{"newFee":"New fee amount"}},"updateSettlementFee(uint256)":{"details":"Update settlement fee","params":{"newFee":"New fee amount"}}},"title":"GameDin Settlement Contract","version":1},"evm":{"bytecode":{"linkReferences":{},"object":"608034620004585762003e1d90601f19906001600160401b03601f388590038181018516840190838211858310176200045d5780859160409889948552833981010312620004585782516001600160a01b03811694908581036200045857602080950151936200006e62000473565b90601882527f47616d6544696e20536574746c656d656e7420546f6b656e000000000000000087830152620000a262000473565b93600495868652634744495360e01b898701528351918383116200034f576003928354956001968781811c911680156200044d575b8d8210146200043857908c8286859411620003df575b50508c90858311600114620003705760009262000364575b505060001982861b1c191690861b1783555b86519384116200034f5787548581811c9116801562000344575b8b8210146200032f57828111620002e4575b5089918411600114620002725750908291620001c39660009362000266575b505082841b92600019911b1c19161784555b60075566038d7ea4c68000600b55662386f26fc10000600c55620001988162000493565b50620001a48162000514565b50620001b081620005b7565b50620001bc8162000655565b50620006f3565b5083156200024f57620001d562000791565b620001df62000791565b600254908282018092116200023a575060025560008381528083528481208054830190558451918252917fddf252ad1be2c89b69c2b068fc378daa952ba7f163c4a11628f55a4df523b3ef91a35161364c9081620007b18239f35b601190634e487b7160e01b6000525260246000fd5b602490600086519163ec442f0560e01b8352820152fd5b01519150388062000162565b8394959693169287600052896000209360005b8b828210620002cf575050918593918796620001c39998969410620002b4575b50505050811b01845562000174565b01519060f884600019921b161c1916905538808080620002a5565b83850151875595880195938401930162000285565b886000528a6000208380870160051c8201928d881062000325575b0160051c019086905b8281106200031857505062000143565b6000815501869062000308565b92508192620002ff565b602289634e487b7160e01b6000525260246000fd5b90607f169062000131565b604188634e487b7160e01b6000525260246000fd5b01519050388062000105565b908d91858a95168860005283600020936000905b828210620003bd5750508411620003a4575b505050811b01835562000117565b015160001983881b60f8161c1916905538808062000396565b91929395968291958786015181550195019301908f918b969594939262000384565b909192508660005285826000209181860160051c83019386106200042e575b918a91869594930160051c01915b8281106200041e57508e9150620000ed565b600081558594508a91016200040c565b92508192620003fe565b60228b634e487b7160e01b6000525260246000fd5b90607f1690620000d7565b600080fd5b634e487b7160e01b600052604160045260246000fd5b60408051919082016001600160401b038111838210176200045d57604052565b6001600160a01b031660008181527f54cdd369e4e8a8515e52ca72ec816c2101831ad1f18bf44102ed171459c9b4f8602052604081205490919060ff16620005105781805260066020526040822081835260205260408220600160ff19825416179055339160008051602062003dfd8339815191528180a4600190565b5090565b6001600160a01b031660008181527f44017833178cb959064128715f4ace9a64bbfc45712d4670fcace3e0c4a1693b60205260408120549091907f300f9ae985dc711960f7a4d1dd013f9c19ecf40bff149522ab7523b2187a38469060ff16620005b25780835260066020526040832082845260205260408320600160ff1982541617905560008051602062003dfd833981519152339380a4600190565b505090565b6001600160a01b031660008181527f866532df3c7b8a8304a854a94071efe99d9f2c853d9869138b5fbc8a8598b93760205260408120549091907f52ba824bfabc2bcfcdf7f0edbb486ebb05e1836c90e78047efeb949990f72e5f9060ff16620005b25780835260066020526040832082845260205260408320600160ff1982541617905560008051602062003dfd833981519152339380a4600190565b6001600160a01b031660008181527fc05ecb62b3da283f41a58bfabb0641c07f50e632bc46342d8a4c0cc10b5006ff60205260408120549091907f7b8bb8356a3f32f5c111ff23f050d97f08988e0883529ea7bff3b918887a6e0e9060ff16620005b25780835260066020526040832082845260205260408320600160ff1982541617905560008051602062003dfd833981519152339380a4600190565b6001600160a01b031660008181527f7aca5d7f7c0d5c6c775e2a7e40239a4d6963361b3df3b07df46432786460eb5760205260408120549091907fbf233dd2aafeb4d50879c4aa5c81e96d92f6e6945c906a58f9f2d1c1631b4b269060ff16620005b25780835260066020526040832082845260205260408320600160ff1982541617905560008051602062003dfd833981519152339380a4600190565b60ff600554166200079e57565b60405163d93c066560e01b8152600490fdfe608080604052600436101561001d575b50361561001b57600080fd5b005b60003560e01c90816301ffc9a714612b6657508063068d04d014612a0957806306fdde031461294557806308df7dc81461289f578063095ea7b3146127ee57806318160ddd146127b257806320df43591461275957806323b872dd146125d4578063248a9ca314612587578063267f2098146120e85780632f2ff15d1461208b578063313ce5671461205157806336568abe14611fc75780633c0a6e3814611f8b5780633f4ba83a14611ecd578063427ac0ca1461114c57806343b255ac14611d5a5780634c58238014611c9a578063564a565d14611c2c5780635c975abb14611beb57806370a0823114611b8657806376e8a88b14611b055780637d1d7fb814611ac95780638453601714611a715780638456cb59146119db57806384b971a51461199f57806388dae6a814611963578063899c45da146118f1578063917bb9981461181057806391d1485414611797578063933367a81461175457806395d89b41146116365780639de2e9d7146115c45780639e924eb5146114ba578063a217fddf14611480578063a9059cbb14611431578063b5bfddea146113d8578063b9ce896b1461139c578063ba9cf01d14611343578063bfcb704014611264578063bfe42a371461120b578063c4fc45a81461114c578063c5e4ccc414611110578063d0b1149c14610b4a578063d1d50fe614610464578063d547741f14610407578063dd62ed3e1461038a578063e3a96cbd146102e0578063f585dc57146102a45763fc1e29b614610250573861000f565b3461029f5760207ffffffffffffffffffffffffffffffffffffffffffffffffffffffffffffffffc36011261029f576004356000526010602052602060ff604060002054166040519015158152f35b600080fd5b3461029f5760007ffffffffffffffffffffffffffffffffffffffffffffffffffffffffffffffffc36011261029f5760206040516203f4808152f35b3461029f5760207ffffffffffffffffffffffffffffffffffffffffffffffffffffffffffffffffc36011261029f57600435600052600e6020526040600020805461038660018301549160038401549060048501549061034e600561034760028901612d62565b9701612d62565b9260405196879673ffffffffffffffffffffffffffffffffffffffff9360ff858760081c1696169460ff8360a01c1692169089612f6d565b0390f35b3461029f5760407ffffffffffffffffffffffffffffffffffffffffffffffffffffffffffffffffc36011261029f576103c1612c22565b6103c9612c45565b9073ffffffffffffffffffffffffffffffffffffffff8091166000526001602052604060002091166000526020526020604060002054604051908152f35b3461029f5760407ffffffffffffffffffffffffffffffffffffffffffffffffffffffffffffffffc36011261029f5761001b600435610444612c45565b9080600052600660205261045f60016040600020015461316f565b613241565b3461029f5760807ffffffffffffffffffffffffffffffffffffffffffffffffffffffffffffffffc36011261029f5761049b612c22565b60449067ffffffffffffffff823581811161029f576104be903690600401612ef8565b926104c7613113565b6104cf613462565b600260075414610b2057600260075573ffffffffffffffffffffffffffffffffffffffff831615610ac25760243515610a645769d3c21bcecceda100000060243511610a06578351156109a857604051602081019061054660208288516105398187858d01612c68565b8101038084520182612d21565b519020600052601060205260ff6040600020541661094a575061056a600854613435565b908160085581600052600d602052604060002090828255600182017fffffffffffffffffffffffff0000000000000000000000000000000000000000903382825416179055600283019073ffffffffffffffffffffffffffffffffffffffff8616908254161790556024356003830155426004830155600582017fffffffffffffffffffffffffffffffffffffffffffffffffffffffffffffff00815416905584519081116107d3576106206006830154612cce565b601f8111610903575b50806020601f821160011461083c57600091610831575b507fffffffffffffffffffffffffffffffffffffffffffffffffffffffffffffffff8260011b9260031b1c19161760068201555b60643560078201556203f480420190814211610802576008015573ffffffffffffffffffffffffffffffffffffffff8216600052600f60205260406000208054680100000000000000008110156107d3576106d491600182018155612fda565b81549060031b907fffffffffffffffffffffffffffffffffffffffffffffffffffffffffffffffff84831b921b1916179055604051602081019061072360208287516105398187858c01612c68565b5190206000526010602052604060002060017fffffffffffffffffffffffffffffffffffffffffffffffffffffffffffffff00825416179055610767600954613435565b6009557f4c38254f7b8b72b1565c14ad4825e3be334f5cdf32b2bdb7560016407004f05173ffffffffffffffffffffffffffffffffffffffff6107bd604051956024358752606060208801526060870190612c8b565b9342604087015216938033940390a46001600755005b7f4e487b7100000000000000000000000000000000000000000000000000000000600052604160045260246000fd5b7f4e487b7100000000000000000000000000000000000000000000000000000000600052601160045260246000fd5b905085015186610640565b91506006830160005260206000206000925b7fffffffffffffffffffffffffffffffffffffffffffffffffffffffffffffffe0831684106108eb5760019350827fffffffffffffffffffffffffffffffffffffffffffffffffffffffffffffffe08116106108b4575b5050811b016006820155610674565b8701517fffffffffffffffffffffffffffffffffffffffffffffffffffffffffffffffff60f88460031b161c1916905586806108a5565b8781015182556020938401936001909201910161084e565b600683016000526020600020601f830160051c810160208410610943575b601f830160051c82018110610937575050610629565b60008155600101610921565b5080610921565b6064907f4c33207472616e73616374696f6e20616c72656164792070726f636573736564604051917f08c379a00000000000000000000000000000000000000000000000000000000083526020600484015260206024840152820152fd5b6064907f496e76616c6964204c33207472616e73616374696f6e20686173680000000000604051917f08c379a000000000000000000000000000000000000000000000000000000000835260206004840152601b6024840152820152fd5b6064907f416d6f756e742065786365656473206d6178696d756d00000000000000000000604051917f08c379a00000000000000000000000000000000000000000000000000000000083526020600484015260166024840152820152fd5b6064907f416d6f756e74206d7573742062652067726561746572207468616e2030000000604051917f08c379a000000000000000000000000000000000000000000000000000000000835260206004840152601d6024840152820152fd5b6064907f496e76616c696420726563697069656e74000000000000000000000000000000604051917f08c379a00000000000000000000000000000000000000000000000000000000083526020600484015260116024840152820152fd5b60046040517f3ee5aeb5000000000000000000000000000000000000000000000000000000008152fd5b60607ffffffffffffffffffffffffffffffffffffffffffffffffffffffffffffffffc36011261029f57602435600435600582101561029f5767ffffffffffffffff60443581811161029f57610ba4903690600401612ef8565b90610bad613462565b600c5434106110b25782600052602090600d8252604060002090610bd382541515613498565b600582018054610bef60ff8216610be981612e27565b156134fd565b610bff6008850154421115613562565b73ffffffffffffffffffffffffffffffffffffffff60028501541633148015611070575b15611012577fffffffffffffffffffffffffffffffffffffffffffffffffffffffffffffff0060029116179055600a6009830192610c8a887fffffffffffffffffffffffff00000000000000000000000000000000000000009533878254161781556135c7565b01908451918183116107d357610ca08154612cce565b92601f93848111610fcf575b508086858211600114610f3157600091610f26575b507fffffffffffffffffffffffffffffffffffffffffffffffffffffffffffffffff8260011b9260031b1c19161790555b610cfd600a54613435565b600a5585600052600e8452604060002092868455610d29886001928387019033908254161781556135c7565b600284019286519283116107d357610d418454612cce565b818111610ee0575b5085908311600114610e185792827fc5a6bd89289814765f8743687ea51d3bb3deb2c8f1cff09b1a479fb94166652c97959281610dde9895606097600092610ded575b507fffffffffffffffffffffffffffffffffffffffffffffffffffffffffffffffff91921b9260031b1c19161790555b60034291015560405196610dcf81612e27565b87528601526060850190612c8b565b924260408201528033940390a3005b89015191507fffffffffffffffffffffffffffffffffffffffffffffffffffffffffffffffff610d8c565b7fffffffffffffffffffffffffffffffffffffffffffffffffffffffffffffffe0839293169084600052866000209160005b818110610ecb57509260609592610dde989592827fc5a6bd89289814765f8743687ea51d3bb3deb2c8f1cff09b1a479fb94166652c9b999610610e94575b5050811b019055610dbc565b8801517fffffffffffffffffffffffffffffffffffffffffffffffffffffffffffffffff60f88460031b161c191690558b80610e88565b89830151845592850192918801918801610e4a565b84600052866000208280860160051c820192898710610f1d575b0160051c019083905b828110610f11575050610d49565b60008155018390610f03565b92508192610efa565b90508701518a610cc1565b6000848152888120927fffffffffffffffffffffffffffffffffffffffffffffffffffffffffffffffe016905b898b838310610fba575050509083600194939210610f83575b5050811b019055610cf2565b8901517fffffffffffffffffffffffffffffffffffffffffffffffffffffffffffffffff60f88460031b161c191690558a80610f77565b84015185556001909401939283019201610f5e565b82600052866000208580840160051c820192898510611009575b0160051c01905b818110610ffd5750610cac565b60008155600101610ff0565b92508192610fe9565b606485604051907f08c379a00000000000000000000000000000000000000000000000000000000082526004820152601960248201527f4e6f7420617574686f72697a656420746f2064697370757465000000000000006044820152fd5b507f7b8bb8356a3f32f5c111ff23f050d97f08988e0883529ea7bff3b918887a6e0e60005260068552604060002033600052855260ff60406000205416610c23565b60646040517f08c379a000000000000000000000000000000000000000000000000000000000815260206004820152601860248201527f496e73756666696369656e7420646973707574652066656500000000000000006044820152fd5b3461029f5760007ffffffffffffffffffffffffffffffffffffffffffffffffffffffffffffffffc36011261029f576020600a54604051908152f35b3461029f5760207ffffffffffffffffffffffffffffffffffffffffffffffffffffffffffffffffc36011261029f5773ffffffffffffffffffffffffffffffffffffffff80611199612c22565b166000526011602052604060002090610386825492600181015490600360028201549101549160405195869560ff8260a01c169116869192608093969594919673ffffffffffffffffffffffffffffffffffffffff60a085019816845215156020840152604083015260608201520152565b3461029f5760007ffffffffffffffffffffffffffffffffffffffffffffffffffffffffffffffffc36011261029f5760206040517f7b8bb8356a3f32f5c111ff23f050d97f08988e0883529ea7bff3b918887a6e0e8152f35b3461029f576020807ffffffffffffffffffffffffffffffffffffffffffffffffffffffffffffffffc36011261029f5773ffffffffffffffffffffffffffffffffffffffff6112b1612c22565b16600052600f8152604060002060405190818382549182815201908192600052846000209060005b8682821061132f5786866112ef82880383612d21565b604051928392818401908285525180915260408401929160005b82811061131857505050500390f35b835185528695509381019392810192600101611309565b8354855290930192600192830192016112d9565b3461029f5760007ffffffffffffffffffffffffffffffffffffffffffffffffffffffffffffffffc36011261029f5760206040517f300f9ae985dc711960f7a4d1dd013f9c19ecf40bff149522ab7523b2187a38468152f35b3461029f5760007ffffffffffffffffffffffffffffffffffffffffffffffffffffffffffffffffc36011261029f576020600c54604051908152f35b3461029f5760007ffffffffffffffffffffffffffffffffffffffffffffffffffffffffffffffffc36011261029f5760206040517f52ba824bfabc2bcfcdf7f0edbb486ebb05e1836c90e78047efeb949990f72e5f8152f35b3461029f5760407ffffffffffffffffffffffffffffffffffffffffffffffffffffffffffffffffc36011261029f5761147561146b612c22565b60243590336132e4565b602060405160018152f35b3461029f5760007ffffffffffffffffffffffffffffffffffffffffffffffffffffffffffffffffc36011261029f57602060405160008152f35b3461029f5760207ffffffffffffffffffffffffffffffffffffffffffffffffffffffffffffffffc36011261029f576004356114f4613113565b6114fc613462565b80600052600d602052611595604060002061151981541515613498565b6005810160017fffffffffffffffffffffffffffffffffffffffffffffffffffffffffffffff00825461155260ff8216610be981612e27565b6115626008860154421115613562565b1617905573ffffffffffffffffffffffffffffffffffffffff9060038260018301541692600283015416910154916132e4565b604051904282527f1a87470a87e2fff176d778a6e7f91d53b96b4cbb4d856f40abc582586d51850a60203393a3005b3461029f5760207ffffffffffffffffffffffffffffffffffffffffffffffffffffffffffffffffc36011261029f577fe8fc23e21608aa8e92faee11af5686b6aa7531796f68f2f943bb0d893c4312c960406004356116216130d9565b600c549080600c5582519182526020820152a1005b3461029f5760007ffffffffffffffffffffffffffffffffffffffffffffffffffffffffffffffffc36011261029f57604051600060045461167681612cce565b8084529060019081811690811561170f57506001146116b4575b610386846116a081860382612d21565b604051918291602083526020830190612c8b565b6004600090815292507f8a35acfbc15ff81a39ae7d344fd709f28e8600b4aa8c65c6b64bfe7fe36bd19b5b8284106116f75750505081016020016116a082611690565b805460208587018101919091529093019281016116df565b7fffffffffffffffffffffffffffffffffffffffffffffffffffffffffffffff001660208087019190915292151560051b850190920192506116a09150839050611690565b3461029f5760007ffffffffffffffffffffffffffffffffffffffffffffffffffffffffffffffffc36011261029f57602060405169d3c21bcecceda10000008152f35b3461029f5760407ffffffffffffffffffffffffffffffffffffffffffffffffffffffffffffffffc36011261029f576117ce612c45565b600435600052600660205273ffffffffffffffffffffffffffffffffffffffff60406000209116600052602052602060ff604060002054166040519015158152f35b3461029f5760407ffffffffffffffffffffffffffffffffffffffffffffffffffffffffffffffffc36011261029f576000602073ffffffffffffffffffffffffffffffffffffffff6044611862612c22565b61186a61307d565b60405194859384927fa9059cbb0000000000000000000000000000000000000000000000000000000084523360048501526024356024850152165af180156118e5576118b257005b6020813d82116118dd575b816118ca60209383612d21565b8101031261029f57518015150361029f57005b3d91506118bd565b6040513d6000823e3d90fd5b3461029f5760207ffffffffffffffffffffffffffffffffffffffffffffffffffffffffffffffffc36011261029f577f9351be7c0f6091e3a280467d38e8ecfd5a4529968cdfaee0e0dbcceaee6765c7604060043561194e6130d9565b600b549080600b5582519182526020820152a1005b3461029f5760007ffffffffffffffffffffffffffffffffffffffffffffffffffffffffffffffffc36011261029f576020600954604051908152f35b3461029f5760007ffffffffffffffffffffffffffffffffffffffffffffffffffffffffffffffffc36011261029f576020600854604051908152f35b3461029f5760007ffffffffffffffffffffffffffffffffffffffffffffffffffffffffffffffffc36011261029f57611a1261307d565b611a1a613462565b60017fffffffffffffffffffffffffffffffffffffffffffffffffffffffffffffff0060055416176005557f62e78cea01bee320cd4e420270b5ea74000d11b0c9f74754ebdbfc544b05a2586020604051338152a1005b3461029f5760007ffffffffffffffffffffffffffffffffffffffffffffffffffffffffffffffffc36011261029f57611aa861307d565b600080808047818115611ac0575b3390f1156118e557005b506108fc611ab6565b3461029f5760007ffffffffffffffffffffffffffffffffffffffffffffffffffffffffffffffffc36011261029f576020600b54604051908152f35b3461029f5760407ffffffffffffffffffffffffffffffffffffffffffffffffffffffffffffffffc36011261029f57611b3c612c22565b73ffffffffffffffffffffffffffffffffffffffff6024359116600052600f6020526040600020805482101561029f57602091611b7891612fda565b90546040519160031b1c8152f35b3461029f5760207ffffffffffffffffffffffffffffffffffffffffffffffffffffffffffffffffc36011261029f5773ffffffffffffffffffffffffffffffffffffffff611bd2612c22565b1660005260006020526020604060002054604051908152f35b3461029f5760007ffffffffffffffffffffffffffffffffffffffffffffffffffffffffffffffffc36011261029f57602060ff600554166040519015158152f35b3461029f5760207ffffffffffffffffffffffffffffffffffffffffffffffffffffffffffffffffc36011261029f57600435600052600e60205260406000208054610386600183015491611c8260028501612d62565b9360038101549161034e600560048401549301612d62565b3461029f5760207ffffffffffffffffffffffffffffffffffffffffffffffffffffffffffffffffc36011261029f57600435600052600d6020526040600020805461038673ffffffffffffffffffffffffffffffffffffffff918260018501541693836002820154169160038201549160048101549060ff60058201541690600781015491600882015493600983015496611d43600a611d3c60068701612d62565b9501612d62565b986040519c8d9c60ff8b60a01c169a16988d612e60565b3461029f5760a07ffffffffffffffffffffffffffffffffffffffffffffffffffffffffffffffffc36011261029f57611d91612c22565b60243580151580910361029f576044356064359173ffffffffffffffffffffffffffffffffffffffff60843594611dc6613021565b16938415611e6f577f762b38f99548d8913199a63ae95b09259e584b25129ca98ee5317f088d487bf593608093866000526011602052826003604060002080548a7fffffffffffffffffffffff00000000000000000000000000000000000000000074ff00000000000000000000000000000000000000008a60a01b169216171781558360018201558460028201550155604051938452602084015260408301526060820152a2005b60646040517f08c379a000000000000000000000000000000000000000000000000000000000815260206004820152601660248201527f496e76616c6964206272696467652061646472657373000000000000000000006044820152fd5b3461029f5760007ffffffffffffffffffffffffffffffffffffffffffffffffffffffffffffffffc36011261029f57611f0461307d565b60055460ff811615611f61577fffffffffffffffffffffffffffffffffffffffffffffffffffffffffffffff00166005557f5db9ee0a495bf2e6ff9c91a7834c1ba4fdd244a5e8aa4e537bd38aeae4b073aa6020604051338152a1005b60046040517f8dfc202b000000000000000000000000000000000000000000000000000000008152fd5b3461029f5760007ffffffffffffffffffffffffffffffffffffffffffffffffffffffffffffffffc36011261029f57602060405162093a808152f35b3461029f5760407ffffffffffffffffffffffffffffffffffffffffffffffffffffffffffffffffc36011261029f57611ffe612c45565b3373ffffffffffffffffffffffffffffffffffffffff8216036120275761001b90600435613241565b60046040517f6697b232000000000000000000000000000000000000000000000000000000008152fd5b3461029f5760007ffffffffffffffffffffffffffffffffffffffffffffffffffffffffffffffffc36011261029f57602060405160128152f35b3461029f5760407ffffffffffffffffffffffffffffffffffffffffffffffffffffffffffffffffc36011261029f5761001b6004356120c8612c45565b908060005260066020526120e360016040600020015461316f565b613195565b3461029f5760607ffffffffffffffffffffffffffffffffffffffffffffffffffffffffffffffffc36011261029f5760043567ffffffffffffffff60243581811161029f5761213b903690600401612ef8565b9160443592831515840361029f573360009081527fc05ecb62b3da283f41a58bfabb0641c07f50e632bc46342d8a4c0cc10b5006ff60209081526040909120549094907f7b8bb8356a3f32f5c111ff23f050d97f08988e0883529ea7bff3b918887a6e0e9060ff161561255057506121b1613462565b82600052600d85526040600020600e86526040600020906121d481541515613498565b6005810192600260ff8554166121e981612e27565b036124f257600483019283549360ff85166124945790600591600180967fffffffffffffffffffffff00000000000000000000000000000000000000000074ffffffffffffffffffffffffffffffffffffffff003360081b169116171790550185519788116107d35761225c8154612cce565b601f811161244b575b5088601f891160011461238c5797807faf22c8b9970a1e934469d4910ba635081d805cf60a06f96c00d501bd873796639899600091612381575b507fffffffffffffffffffffffffffffffffffffffffffffffffffffffffffffffff82871b9260031b1c19161790555b15612351578260037fffffffffffffffffffffffffffffffffffffffffffffffffffffffffffffff0061232e955416179055600373ffffffffffffffffffffffffffffffffffffffff80938301541692600283015416910154916132e4565b61234360405191604083526040830190612c8b565b9342908201528033940390a3005b505060047fffffffffffffffffffffffffffffffffffffffffffffffffffffffffffffff0082541617905561232e565b90508701518b61229f565b7fffffffffffffffffffffffffffffffffffffffffffffffffffffffffffffffe0891690826000528a6000209160005b8c828210612437575050918a917faf22c8b9970a1e934469d4910ba635081d805cf60a06f96c00d501bd873796639a9b889410612400575b5050811b0190556122cf565b8901517fffffffffffffffffffffffffffffffffffffffffffffffffffffffffffffffff60f88460031b161c191690558b806123f4565b8a84015185559388019392830192016123bc565b8160005289600020601f8a0160051c8101918b8b1061248a575b601f0160051c019085905b82811061247e575050612265565b60008155018590612470565b9091508190612465565b60648a604051907f08c379a00000000000000000000000000000000000000000000000000000000082526004820152601860248201527f4469737075746520616c7265616479207265736f6c76656400000000000000006044820152fd5b606488604051907f08c379a00000000000000000000000000000000000000000000000000000000082526004820152601760248201527f536574746c656d656e74206e6f742064697370757465640000000000000000006044820152fd5b604490604051907fe2517d3f0000000000000000000000000000000000000000000000000000000082523360048301526024820152fd5b3461029f5760207ffffffffffffffffffffffffffffffffffffffffffffffffffffffffffffffffc36011261029f5760043560005260066020526020600160406000200154604051908152f35b3461029f5760607ffffffffffffffffffffffffffffffffffffffffffffffffffffffffffffffffc36011261029f5761260b612c22565b612613612c45565b6044359073ffffffffffffffffffffffffffffffffffffffff831692836000526001602052604060002033600052602052604060002054937fffffffffffffffffffffffffffffffffffffffffffffffffffffffffffffffff851061267e575b5061147593506132e4565b83851061271a5780156126e95733156126b85761147594849160005260016020526040600020336000526020520360406000205584612673565b60246040517f94280d6200000000000000000000000000000000000000000000000000000000815260006004820152fd5b60246040517fe602df0500000000000000000000000000000000000000000000000000000000815260006004820152fd5b6040517ffb8f41b20000000000000000000000000000000000000000000000000000000081523360048201526024810186905260448101859052606490fd5b3461029f5760007ffffffffffffffffffffffffffffffffffffffffffffffffffffffffffffffffc36011261029f5760206040517fbf233dd2aafeb4d50879c4aa5c81e96d92f6e6945c906a58f9f2d1c1631b4b268152f35b3461029f5760007ffffffffffffffffffffffffffffffffffffffffffffffffffffffffffffffffc36011261029f576020600254604051908152f35b3461029f5760407ffffffffffffffffffffffffffffffffffffffffffffffffffffffffffffffffc36011261029f57612825612c22565b6024359033156126e95773ffffffffffffffffffffffffffffffffffffffff169081156126b857336000526001602052604060002082600052602052806040600020556040519081527f8c5be1e5ebec7d5bd14f71427d1e84f3dd0314c0f7b2291e5b200ac8c7c3b92560203392a3602060405160018152f35b3461029f5760207ffffffffffffffffffffffffffffffffffffffffffffffffffffffffffffffffc36011261029f57600435600052600d6020526040600020805461038673ffffffffffffffffffffffffffffffffffffffff91826001850154169383600282015416916003820154600483015460ff60058501541661292760068601612d62565b90600786015492600887015494611d43600a60098a01549901612d62565b3461029f5760007ffffffffffffffffffffffffffffffffffffffffffffffffffffffffffffffffc36011261029f57604051600060035461298581612cce565b8084529060019081811690811561170f57506001146129ae57610386846116a081860382612d21565b6003600090815292507fc2575a0e9e593c00f959f8c92f12db2869c3395a3b0502d05e2516446f71f85b5b8284106129f15750505081016020016116a082611690565b805460208587018101919091529093019281016129d9565b3461029f5760807ffffffffffffffffffffffffffffffffffffffffffffffffffffffffffffffffc36011261029f57612a40612c22565b612a48612c45565b6044359060643573ffffffffffffffffffffffffffffffffffffffff811680910361029f57612a75613021565b612a7d613462565b6000526011602052604060002060ff815460a01c1615612b0857600201548211612aaa5761001b926132e4565b60646040517f08c379a000000000000000000000000000000000000000000000000000000000815260206004820152601b60248201527f416d6f756e74206578636565647320627269646765206c696d697400000000006044820152fd5b60646040517f08c379a000000000000000000000000000000000000000000000000000000000815260206004820152601160248201527f427269646765206e6f74206163746976650000000000000000000000000000006044820152fd5b3461029f5760207ffffffffffffffffffffffffffffffffffffffffffffffffffffffffffffffffc36011261029f57600435907fffffffff00000000000000000000000000000000000000000000000000000000821680920361029f57817f7965db0b0000000000000000000000000000000000000000000000000000000060209314908115612bf8575b5015158152f35b7f01ffc9a70000000000000000000000000000000000000000000000000000000091501483612bf1565b6004359073ffffffffffffffffffffffffffffffffffffffff8216820361029f57565b6024359073ffffffffffffffffffffffffffffffffffffffff8216820361029f57565b60005b838110612c7b5750506000910152565b8181015183820152602001612c6b565b907fffffffffffffffffffffffffffffffffffffffffffffffffffffffffffffffe0601f602093612cc781518092818752878088019101612c68565b0116010190565b90600182811c92168015612d17575b6020831014612ce857565b7f4e487b7100000000000000000000000000000000000000000000000000000000600052602260045260246000fd5b91607f1691612cdd565b90601f7fffffffffffffffffffffffffffffffffffffffffffffffffffffffffffffffe0910116810190811067ffffffffffffffff8211176107d357604052565b9060405191826000825492612d7684612cce565b908184526001948581169081600014612de55750600114612da2575b5050612da092500383612d21565b565b9093915060005260209081600020936000915b818310612dcd575050612da093508201013880612d92565b85548884018501529485019487945091830191612db5565b9050612da09550602093507fffffffffffffffffffffffffffffffffffffffffffffffffffffffffffffff0091501682840152151560051b8201013880612d92565b60051115612e3157565b7f4e487b7100000000000000000000000000000000000000000000000000000000600052602160045260246000fd5b98949093612ef59c9a9692612ec5959c999c9894988b5273ffffffffffffffffffffffffffffffffffffffff988980921660208d01521660408b015260608a01526080890152612eaf81612e27565b60a08801526101808060c0890152870190612c8b565b9660e086015261010085015216610120830152612ee181612e27565b610140820152610160818403910152612c8b565b90565b81601f8201121561029f5780359067ffffffffffffffff82116107d35760405192612f4b60207fffffffffffffffffffffffffffffffffffffffffffffffffffffffffffffffe0601f8601160185612d21565b8284526020838301011161029f57816000926020809301838601378301015290565b94969293612ef598969294612fba92875273ffffffffffffffffffffffffffffffffffffffff8096166020880152612fa481612e27565b6040870152610100806060880152860190612c8b565b956080850152151560a08401521660c082015260e0818403910152612c8b565b8054821015612ff25760005260206000200190600090565b7f4e487b7100000000000000000000000000000000000000000000000000000000600052603260045260246000fd5b3360009081527f866532df3c7b8a8304a854a94071efe99d9f2c853d9869138b5fbc8a8598b93760205260409020547f52ba824bfabc2bcfcdf7f0edbb486ebb05e1836c90e78047efeb949990f72e5f9060ff16156125505750565b3360009081527f7aca5d7f7c0d5c6c775e2a7e40239a4d6963361b3df3b07df46432786460eb5760205260409020547fbf233dd2aafeb4d50879c4aa5c81e96d92f6e6945c906a58f9f2d1c1631b4b269060ff16156125505750565b3360009081527f54cdd369e4e8a8515e52ca72ec816c2101831ad1f18bf44102ed171459c9b4f8602052604081205460ff16156125505750565b3360009081527f44017833178cb959064128715f4ace9a64bbfc45712d4670fcace3e0c4a1693b60205260409020547f300f9ae985dc711960f7a4d1dd013f9c19ecf40bff149522ab7523b2187a38469060ff16156125505750565b80600052600660205260406000203360005260205260ff60406000205416156125505750565b90600091808352600660205273ffffffffffffffffffffffffffffffffffffffff6040842092169182845260205260ff6040842054161560001461323c578083526006602052604083208284526020526040832060017fffffffffffffffffffffffffffffffffffffffffffffffffffffffffffffff008254161790557f2f8788117e7eff1d82e926ec794901d17c78024a50270940304540a733656f0d339380a4600190565b505090565b90600091808352600660205273ffffffffffffffffffffffffffffffffffffffff6040842092169182845260205260ff60408420541660001461323c57808352600660205260408320828452602052604083207fffffffffffffffffffffffffffffffffffffffffffffffffffffffffffffff0081541690557ff6391f5c32d9c69d2a47ea670b442974b53935d1edc7fd64eb21e047a839171b339380a4600190565b9173ffffffffffffffffffffffffffffffffffffffff80841692831561340457169283156133d357613314613462565b61331c613462565b6000908382528160205260408220549083821061337b575091604082827fddf252ad1be2c89b69c2b068fc378daa952ba7f163c4a11628f55a4df523b3ef958760209652828652038282205586815220818154019055604051908152a3565b6040517fe450d38c00000000000000000000000000000000000000000000000000000000815273ffffffffffffffffffffffffffffffffffffffff919091166004820152602481019190915260448101839052606490fd5b60246040517fec442f0500000000000000000000000000000000000000000000000000000000815260006004820152fd5b60246040517f96c6fd1e00000000000000000000000000000000000000000000000000000000815260006004820152fd5b7fffffffffffffffffffffffffffffffffffffffffffffffffffffffffffffffff81146108025760010190565b60ff6005541661346e57565b60046040517fd93c0665000000000000000000000000000000000000000000000000000000008152fd5b1561349f57565b60646040517f08c379a000000000000000000000000000000000000000000000000000000000815260206004820152601960248201527f536574746c656d656e7420646f6573206e6f74206578697374000000000000006044820152fd5b1561350457565b60646040517f08c379a000000000000000000000000000000000000000000000000000000000815260206004820152601660248201527f536574746c656d656e74206e6f742070656e64696e67000000000000000000006044820152fd5b1561356957565b60646040517f08c379a000000000000000000000000000000000000000000000000000000000815260206004820152601660248201527f446973707574652077696e646f772065787069726564000000000000000000006044820152fd5b906135d181612e27565b7fffffffffffffffffffffff00ffffffffffffffffffffffffffffffffffffffff74ff000000000000000000000000000000000000000083549260a01b16911617905556fea26469706673582212207e021e4b6059413d6589ce4e9565fb731c8314346703f3fd30f984144dc6998364736f6c634300081400332f8788117e7eff1d82e926ec794901d17c78024a50270940304540a733656f0d","opcodes":"PUSH1 0x80 CALLVALUE PUSH3 0x458 JUMPI PUSH3 0x3E1D SWAP1 PUSH1 0x1F NOT SWAP1 PUSH1 0x1 PUSH1 0x1 PUSH1 0x40 SHL SUB PUSH1 0x1F CODESIZE DUP6 SWAP1 SUB DUP2 DUP2 ADD DUP6 AND DUP5 ADD SWAP1 DUP4 DUP3 GT DUP6 DUP4 LT OR PUSH3 0x45D JUMPI DUP1 DUP6 SWAP2 PUSH1 0x40 SWAP9 DUP10 SWAP5 DUP6 MSTORE DUP4 CODECOPY DUP2 ADD SUB SLT PUSH3 0x458 JUMPI DUP3 MLOAD PUSH1 0x1 PUSH1 0x1 PUSH1 0xA0 SHL SUB DUP2 AND SWAP5 SWAP1 DUP6 DUP2 SUB PUSH3 0x458 JUMPI PUSH1 0x20 DUP1 SWAP6 ADD MLOAD SWAP4 PUSH3 0x6E PUSH3 0x473 JUMP JUMPDEST SWAP1 PUSH1 0x18 DUP3 MSTORE PUSH32 0x47616D6544696E20536574746C656D656E7420546F6B656E0000000000000000 DUP8 DUP4 ADD MSTORE PUSH3 0xA2 PUSH3 0x473 JUMP JUMPDEST SWAP4 PUSH1 0x4 SWAP6 DUP7 DUP7 MSTORE PUSH4 0x47444953 PUSH1 0xE0 SHL DUP10 DUP8 ADD MSTORE DUP4 MLOAD SWAP2 DUP4 DUP4 GT PUSH3 0x34F JUMPI PUSH1 0x3 SWAP3 DUP4 SLOAD SWAP6 PUSH1 0x1 SWAP7 DUP8 DUP2 DUP2 SHR SWAP2 AND DUP1 ISZERO PUSH3 0x44D JUMPI JUMPDEST DUP14 DUP3 LT EQ PUSH3 0x438 JUMPI SWAP1 DUP13 DUP3 DUP7 DUP6 SWAP5 GT PUSH3 0x3DF JUMPI JUMPDEST POP POP DUP13 SWAP1 DUP6 DUP4 GT PUSH1 0x1 EQ PUSH3 0x370 JUMPI PUSH1 0x0 SWAP3 PUSH3 0x364 JUMPI JUMPDEST POP POP PUSH1 0x0 NOT DUP3 DUP7 SHL SHR NOT AND SWAP1 DUP7 SHL OR DUP4 SSTORE JUMPDEST DUP7 MLOAD SWAP4 DUP5 GT PUSH3 0x34F JUMPI DUP8 SLOAD DUP6 DUP2 DUP2 SHR SWAP2 AND DUP1 ISZERO PUSH3 0x344 JUMPI JUMPDEST DUP12 DUP3 LT EQ PUSH3 0x32F JUMPI DUP3 DUP2 GT PUSH3 0x2E4 JUMPI JUMPDEST POP DUP10 SWAP2 DUP5 GT PUSH1 0x1 EQ PUSH3 0x272 JUMPI POP SWAP1 DUP3 SWAP2 PUSH3 0x1C3 SWAP7 PUSH1 0x0 SWAP4 PUSH3 0x266 JUMPI JUMPDEST POP POP DUP3 DUP5 SHL SWAP3 PUSH1 0x0 NOT SWAP2 SHL SHR NOT AND OR DUP5 SSTORE JUMPDEST PUSH1 0x7 SSTORE PUSH7 0x38D7EA4C68000 PUSH1 0xB SSTORE PUSH7 0x2386F26FC10000 PUSH1 0xC SSTORE PUSH3 0x198 DUP2 PUSH3 0x493 JUMP JUMPDEST POP PUSH3 0x1A4 DUP2 PUSH3 0x514 JUMP JUMPDEST POP PUSH3 0x1B0 DUP2 PUSH3 0x5B7 JUMP JUMPDEST POP PUSH3 0x1BC DUP2 PUSH3 0x655 JUMP JUMPDEST POP PUSH3 0x6F3 JUMP JUMPDEST POP DUP4 ISZERO PUSH3 0x24F JUMPI PUSH3 0x1D5 PUSH3 0x791 JUMP JUMPDEST PUSH3 0x1DF PUSH3 0x791 JUMP JUMPDEST PUSH1 0x2 SLOAD SWAP1 DUP3 DUP3 ADD DUP1 SWAP3 GT PUSH3 0x23A JUMPI POP PUSH1 0x2 SSTORE PUSH1 0x0 DUP4 DUP2 MSTORE DUP1 DUP4 MSTORE DUP5 DUP2 KECCAK256 DUP1 SLOAD DUP4 ADD SWAP1 SSTORE DUP5 MLOAD SWAP2 DUP3 MSTORE SWAP2 PUSH32 0xDDF252AD1BE2C89B69C2B068FC378DAA952BA7F163C4A11628F55A4DF523B3EF SWAP2 LOG3 MLOAD PUSH2 0x364C SWAP1 DUP2 PUSH3 0x7B1 DUP3 CODECOPY RETURN JUMPDEST PUSH1 0x11 SWAP1 PUSH4 0x4E487B71 PUSH1 0xE0 SHL PUSH1 0x0 MSTORE MSTORE PUSH1 0x24 PUSH1 0x0 REVERT JUMPDEST PUSH1 0x24 SWAP1 PUSH1 0x0 DUP7 MLOAD SWAP2 PUSH4 0xEC442F05 PUSH1 0xE0 SHL DUP4 MSTORE DUP3 ADD MSTORE REVERT JUMPDEST ADD MLOAD SWAP2 POP CODESIZE DUP1 PUSH3 0x162 JUMP JUMPDEST DUP4 SWAP5 SWAP6 SWAP7 SWAP4 AND SWAP3 DUP8 PUSH1 0x0 MSTORE DUP10 PUSH1 0x0 KECCAK256 SWAP4 PUSH1 0x0 JUMPDEST DUP12 DUP3 DUP3 LT PUSH3 0x2CF JUMPI POP POP SWAP2 DUP6 SWAP4 SWAP2 DUP8 SWAP7 PUSH3 0x1C3 SWAP10 SWAP9 SWAP7 SWAP5 LT PUSH3 0x2B4 JUMPI JUMPDEST POP POP POP POP DUP2 SHL ADD DUP5 SSTORE PUSH3 0x174 JUMP JUMPDEST ADD MLOAD SWAP1 PUSH1 0xF8 DUP5 PUSH1 0x0 NOT SWAP3 SHL AND SHR NOT AND SWAP1 SSTORE CODESIZE DUP1 DUP1 DUP1 PUSH3 0x2A5 JUMP JUMPDEST DUP4 DUP6 ADD MLOAD DUP8 SSTORE SWAP6 DUP9 ADD SWAP6 SWAP4 DUP5 ADD SWAP4 ADD PUSH3 0x285 JUMP JUMPDEST DUP9 PUSH1 0x0 MSTORE DUP11 PUSH1 0x0 KECCAK256 DUP4 DUP1 DUP8 ADD PUSH1 0x5 SHR DUP3 ADD SWAP3 DUP14 DUP9 LT PUSH3 0x325 JUMPI JUMPDEST ADD PUSH1 0x5 SHR ADD SWAP1 DUP7 SWAP1 JUMPDEST DUP3 DUP2 LT PUSH3 0x318 JUMPI POP POP PUSH3 0x143 JUMP JUMPDEST PUSH1 0x0 DUP2 SSTORE ADD DUP7 SWAP1 PUSH3 0x308 JUMP JUMPDEST SWAP3 POP DUP2 SWAP3 PUSH3 0x2FF JUMP JUMPDEST PUSH1 0x22 DUP10 PUSH4 0x4E487B71 PUSH1 0xE0 SHL PUSH1 0x0 MSTORE MSTORE PUSH1 0x24 PUSH1 0x0 REVERT JUMPDEST SWAP1 PUSH1 0x7F AND SWAP1 PUSH3 0x131 JUMP JUMPDEST PUSH1 0x41 DUP9 PUSH4 0x4E487B71 PUSH1 0xE0 SHL PUSH1 0x0 MSTORE MSTORE PUSH1 0x24 PUSH1 0x0 REVERT JUMPDEST ADD MLOAD SWAP1 POP CODESIZE DUP1 PUSH3 0x105 JUMP JUMPDEST SWAP1 DUP14 SWAP2 DUP6 DUP11 SWAP6 AND DUP9 PUSH1 0x0 MSTORE DUP4 PUSH1 0x0 KECCAK256 SWAP4 PUSH1 0x0 SWAP1 JUMPDEST DUP3 DUP3 LT PUSH3 0x3BD JUMPI POP POP DUP5 GT PUSH3 0x3A4 JUMPI JUMPDEST POP POP POP DUP2 SHL ADD DUP4 SSTORE PUSH3 0x117 JUMP JUMPDEST ADD MLOAD PUSH1 0x0 NOT DUP4 DUP9 SHL PUSH1 0xF8 AND SHR NOT AND SWAP1 SSTORE CODESIZE DUP1 DUP1 PUSH3 0x396 JUMP JUMPDEST SWAP2 SWAP3 SWAP4 SWAP6 SWAP7 DUP3 SWAP2 SWAP6 DUP8 DUP7 ADD MLOAD DUP2 SSTORE ADD SWAP6 ADD SWAP4 ADD SWAP1 DUP16 SWAP2 DUP12 SWAP7 SWAP6 SWAP5 SWAP4 SWAP3 PUSH3 0x384 JUMP JUMPDEST SWAP1 SWAP2 SWAP3 POP DUP7 PUSH1 0x0 MSTORE DUP6 DUP3 PUSH1 0x0 KECCAK256 SWAP2 DUP2 DUP7 ADD PUSH1 0x5 SHR DUP4 ADD SWAP4 DUP7 LT PUSH3 0x42E JUMPI JUMPDEST SWAP2 DUP11 SWAP2 DUP7 SWAP6 SWAP5 SWAP4 ADD PUSH1 0x5 SHR ADD SWAP2 JUMPDEST DUP3 DUP2 LT PUSH3 0x41E JUMPI POP DUP15 SWAP2 POP PUSH3 0xED JUMP JUMPDEST PUSH1 0x0 DUP2 SSTORE DUP6 SWAP5 POP DUP11 SWAP2 ADD PUSH3 0x40C JUMP JUMPDEST SWAP3 POP DUP2 SWAP3 PUSH3 0x3FE JUMP JUMPDEST PUSH1 0x22 DUP12 PUSH4 0x4E487B71 PUSH1 0xE0 SHL PUSH1 0x0 MSTORE MSTORE PUSH1 0x24 PUSH1 0x0 REVERT JUMPDEST SWAP1 PUSH1 0x7F AND SWAP1 PUSH3 0xD7 JUMP JUMPDEST PUSH1 0x0 DUP1 REVERT JUMPDEST PUSH4 0x4E487B71 PUSH1 0xE0 SHL PUSH1 0x0 MSTORE PUSH1 0x41 PUSH1 0x4 MSTORE PUSH1 0x24 PUSH1 0x0 REVERT JUMPDEST PUSH1 0x40 DUP1 MLOAD SWAP2 SWAP1 DUP3 ADD PUSH1 0x1 PUSH1 0x1 PUSH1 0x40 SHL SUB DUP2 GT DUP4 DUP3 LT OR PUSH3 0x45D JUMPI PUSH1 0x40 MSTORE JUMP JUMPDEST PUSH1 0x1 PUSH1 0x1 PUSH1 0xA0 SHL SUB AND PUSH1 0x0 DUP2 DUP2 MSTORE PUSH32 0x54CDD369E4E8A8515E52CA72EC816C2101831AD1F18BF44102ED171459C9B4F8 PUSH1 0x20 MSTORE PUSH1 0x40 DUP2 KECCAK256 SLOAD SWAP1 SWAP2 SWAP1 PUSH1 0xFF AND PUSH3 0x510 JUMPI DUP2 DUP1 MSTORE PUSH1 0x6 PUSH1 0x20 MSTORE PUSH1 0x40 DUP3 KECCAK256 DUP2 DUP4 MSTORE PUSH1 0x20 MSTORE PUSH1 0x40 DUP3 KECCAK256 PUSH1 0x1 PUSH1 0xFF NOT DUP3 SLOAD AND OR SWAP1 SSTORE CALLER SWAP2 PUSH1 0x0 DUP1 MLOAD PUSH1 0x20 PUSH3 0x3DFD DUP4 CODECOPY DUP2 MLOAD SWAP2 MSTORE DUP2 DUP1 LOG4 PUSH1 0x1 SWAP1 JUMP JUMPDEST POP SWAP1 JUMP JUMPDEST PUSH1 0x1 PUSH1 0x1 PUSH1 0xA0 SHL SUB AND PUSH1 0x0 DUP2 DUP2 MSTORE PUSH32 0x44017833178CB959064128715F4ACE9A64BBFC45712D4670FCACE3E0C4A1693B PUSH1 0x20 MSTORE PUSH1 0x40 DUP2 KECCAK256 SLOAD SWAP1 SWAP2 SWAP1 PUSH32 0x300F9AE985DC711960F7A4D1DD013F9C19ECF40BFF149522AB7523B2187A3846 SWAP1 PUSH1 0xFF AND PUSH3 0x5B2 JUMPI DUP1 DUP4 MSTORE PUSH1 0x6 PUSH1 0x20 MSTORE PUSH1 0x40 DUP4 KECCAK256 DUP3 DUP5 MSTORE PUSH1 0x20 MSTORE PUSH1 0x40 DUP4 KECCAK256 PUSH1 0x1 PUSH1 0xFF NOT DUP3 SLOAD AND OR SWAP1 SSTORE PUSH1 0x0 DUP1 MLOAD PUSH1 0x20 PUSH3 0x3DFD DUP4 CODECOPY DUP2 MLOAD SWAP2 MSTORE CALLER SWAP4 DUP1 LOG4 PUSH1 0x1 SWAP1 JUMP JUMPDEST POP POP SWAP1 JUMP JUMPDEST PUSH1 0x1 PUSH1 0x1 PUSH1 0xA0 SHL SUB AND PUSH1 0x0 DUP2 DUP2 MSTORE PUSH32 0x866532DF3C7B8A8304A854A94071EFE99D9F2C853D9869138B5FBC8A8598B937 PUSH1 0x20 MSTORE PUSH1 0x40 DUP2 KECCAK256 SLOAD SWAP1 SWAP2 SWAP1 PUSH32 0x52BA824BFABC2BCFCDF7F0EDBB486EBB05E1836C90E78047EFEB949990F72E5F SWAP1 PUSH1 0xFF AND PUSH3 0x5B2 JUMPI DUP1 DUP4 MSTORE PUSH1 0x6 PUSH1 0x20 MSTORE PUSH1 0x40 DUP4 KECCAK256 DUP3 DUP5 MSTORE PUSH1 0x20 MSTORE PUSH1 0x40 DUP4 KECCAK256 PUSH1 0x1 PUSH1 0xFF NOT DUP3 SLOAD AND OR SWAP1 SSTORE PUSH1 0x0 DUP1 MLOAD PUSH1 0x20 PUSH3 0x3DFD DUP4 CODECOPY DUP2 MLOAD SWAP2 MSTORE CALLER SWAP4 DUP1 LOG4 PUSH1 0x1 SWAP1 JUMP JUMPDEST PUSH1 0x1 PUSH1 0x1 PUSH1 0xA0 SHL SUB AND PUSH1 0x0 DUP2 DUP2 MSTORE PUSH32 0xC05ECB62B3DA283F41A58BFABB0641C07F50E632BC46342D8A4C0CC10B5006FF PUSH1 0x20 MSTORE PUSH1 0x40 DUP2 KECCAK256 SLOAD SWAP1 SWAP2 SWAP1 PUSH32 0x7B8BB8356A3F32F5C111FF23F050D97F08988E0883529EA7BFF3B918887A6E0E SWAP1 PUSH1 0xFF AND PUSH3 0x5B2 JUMPI DUP1 DUP4 MSTORE PUSH1 0x6 PUSH1 0x20 MSTORE PUSH1 0x40 DUP4 KECCAK256 DUP3 DUP5 MSTORE PUSH1 0x20 MSTORE PUSH1 0x40 DUP4 KECCAK256 PUSH1 0x1 PUSH1 0xFF NOT DUP3 SLOAD AND OR SWAP1 SSTORE PUSH1 0x0 DUP1 MLOAD PUSH1 0x20 PUSH3 0x3DFD DUP4 CODECOPY DUP2 MLOAD SWAP2 MSTORE CALLER SWAP4 DUP1 LOG4 PUSH1 0x1 SWAP1 JUMP JUMPDEST PUSH1 0x1 PUSH1 0x1 PUSH1 0xA0 SHL SUB AND PUSH1 0x0 DUP2 DUP2 MSTORE PUSH32 0x7ACA5D7F7C0D5C6C775E2A7E40239A4D6963361B3DF3B07DF46432786460EB57 PUSH1 0x20 MSTORE PUSH1 0x40 DUP2 KECCAK256 SLOAD SWAP1 SWAP2 SWAP1 PUSH32 0xBF233DD2AAFEB4D50879C4AA5C81E96D92F6E6945C906A58F9F2D1C1631B4B26 SWAP1 PUSH1 0xFF AND PUSH3 0x5B2 JUMPI DUP1 DUP4 MSTORE PUSH1 0x6 PUSH1 0x20 MSTORE PUSH1 0x40 DUP4 KECCAK256 DUP3 DUP5 MSTORE PUSH1 0x20 MSTORE PUSH1 0x40 DUP4 KECCAK256 PUSH1 0x1 PUSH1 0xFF NOT DUP3 SLOAD AND OR SWAP1 SSTORE PUSH1 0x0 DUP1 MLOAD PUSH1 0x20 PUSH3 0x3DFD DUP4 CODECOPY DUP2 MLOAD SWAP2 MSTORE CALLER SWAP4 DUP1 LOG4 PUSH1 0x1 SWAP1 JUMP JUMPDEST PUSH1 0xFF PUSH1 0x5 SLOAD AND PUSH3 0x79E JUMPI JUMP JUMPDEST PUSH1 0x40 MLOAD PUSH4 0xD93C0665 PUSH1 0xE0 SHL DUP2 MSTORE PUSH1 0x4 SWAP1 REVERT INVALID PUSH1 0x80 DUP1 PUSH1 0x40 MSTORE PUSH1 0x4 CALLDATASIZE LT ISZERO PUSH2 0x1D JUMPI JUMPDEST POP CALLDATASIZE ISZERO PUSH2 0x1B JUMPI PUSH1 0x0 DUP1 REVERT JUMPDEST STOP JUMPDEST PUSH1 0x0 CALLDATALOAD PUSH1 0xE0 SHR SWAP1 DUP2 PUSH4 0x1FFC9A7 EQ PUSH2 0x2B66 JUMPI POP DUP1 PUSH4 0x68D04D0 EQ PUSH2 0x2A09 JUMPI DUP1 PUSH4 0x6FDDE03 EQ PUSH2 0x2945 JUMPI DUP1 PUSH4 0x8DF7DC8 EQ PUSH2 0x289F JUMPI DUP1 PUSH4 0x95EA7B3 EQ PUSH2 0x27EE JUMPI DUP1 PUSH4 0x18160DDD EQ PUSH2 0x27B2 JUMPI DUP1 PUSH4 0x20DF4359 EQ PUSH2 0x2759 JUMPI DUP1 PUSH4 0x23B872DD EQ PUSH2 0x25D4 JUMPI DUP1 PUSH4 0x248A9CA3 EQ PUSH2 0x2587 JUMPI DUP1 PUSH4 0x267F2098 EQ PUSH2 0x20E8 JUMPI DUP1 PUSH4 0x2F2FF15D EQ PUSH2 0x208B JUMPI DUP1 PUSH4 0x313CE567 EQ PUSH2 0x2051 JUMPI DUP1 PUSH4 0x36568ABE EQ PUSH2 0x1FC7 JUMPI DUP1 PUSH4 0x3C0A6E38 EQ PUSH2 0x1F8B JUMPI DUP1 PUSH4 0x3F4BA83A EQ PUSH2 0x1ECD JUMPI DUP1 PUSH4 0x427AC0CA EQ PUSH2 0x114C JUMPI DUP1 PUSH4 0x43B255AC EQ PUSH2 0x1D5A JUMPI DUP1 PUSH4 0x4C582380 EQ PUSH2 0x1C9A JUMPI DUP1 PUSH4 0x564A565D EQ PUSH2 0x1C2C JUMPI DUP1 PUSH4 0x5C975ABB EQ PUSH2 0x1BEB JUMPI DUP1 PUSH4 0x70A08231 EQ PUSH2 0x1B86 JUMPI DUP1 PUSH4 0x76E8A88B EQ PUSH2 0x1B05 JUMPI DUP1 PUSH4 0x7D1D7FB8 EQ PUSH2 0x1AC9 JUMPI DUP1 PUSH4 0x84536017 EQ PUSH2 0x1A71 JUMPI DUP1 PUSH4 0x8456CB59 EQ PUSH2 0x19DB JUMPI DUP1 PUSH4 0x84B971A5 EQ PUSH2 0x199F JUMPI DUP1 PUSH4 0x88DAE6A8 EQ PUSH2 0x1963 JUMPI DUP1 PUSH4 0x899C45DA EQ PUSH2 0x18F1 JUMPI DUP1 PUSH4 0x917BB998 EQ PUSH2 0x1810 JUMPI DUP1 PUSH4 0x91D14854 EQ PUSH2 0x1797 JUMPI DUP1 PUSH4 0x933367A8 EQ PUSH2 0x1754 JUMPI DUP1 PUSH4 0x95D89B41 EQ PUSH2 0x1636 JUMPI DUP1 PUSH4 0x9DE2E9D7 EQ PUSH2 0x15C4 JUMPI DUP1 PUSH4 0x9E924EB5 EQ PUSH2 0x14BA JUMPI DUP1 PUSH4 0xA217FDDF EQ PUSH2 0x1480 JUMPI DUP1 PUSH4 0xA9059CBB EQ PUSH2 0x1431 JUMPI DUP1 PUSH4 0xB5BFDDEA EQ PUSH2 0x13D8 JUMPI DUP1 PUSH4 0xB9CE896B EQ PUSH2 0x139C JUMPI DUP1 PUSH4 0xBA9CF01D EQ PUSH2 0x1343 JUMPI DUP1 PUSH4 0xBFCB7040 EQ PUSH2 0x1264 JUMPI DUP1 PUSH4 0xBFE42A37 EQ PUSH2 0x120B JUMPI DUP1 PUSH4 0xC4FC45A8 EQ PUSH2 0x114C JUMPI DUP1 PUSH4 0xC5E4CCC4 EQ PUSH2 0x1110 JUMPI DUP1 PUSH4 0xD0B1149C EQ PUSH2 0xB4A JUMPI DUP1 PUSH4 0xD1D50FE6 EQ PUSH2 0x464 JUMPI DUP1 PUSH4 0xD547741F EQ PUSH2 0x407 JUMPI DUP1 PUSH4 0xDD62ED3E EQ PUSH2 0x38A JUMPI DUP1 PUSH4 0xE3A96CBD EQ PUSH2 0x2E0 JUMPI DUP1 PUSH4 0xF585DC57 EQ PUSH2 0x2A4 JUMPI PUSH4 0xFC1E29B6 EQ PUSH2 0x250 JUMPI CODESIZE PUSH2 0xF JUMP JUMPDEST CALLVALUE PUSH2 0x29F JUMPI PUSH1 0x20 PUSH32 0xFFFFFFFFFFFFFFFFFFFFFFFFFFFFFFFFFFFFFFFFFFFFFFFFFFFFFFFFFFFFFFFC CALLDATASIZE ADD SLT PUSH2 0x29F JUMPI PUSH1 0x4 CALLDATALOAD PUSH1 0x0 MSTORE PUSH1 0x10 PUSH1 0x20 MSTORE PUSH1 0x20 PUSH1 0xFF PUSH1 0x40 PUSH1 0x0 KECCAK256 SLOAD AND PUSH1 0x40 MLOAD SWAP1 ISZERO ISZERO DUP2 MSTORE RETURN JUMPDEST PUSH1 0x0 DUP1 REVERT JUMPDEST CALLVALUE PUSH2 0x29F JUMPI PUSH1 0x0 PUSH32 0xFFFFFFFFFFFFFFFFFFFFFFFFFFFFFFFFFFFFFFFFFFFFFFFFFFFFFFFFFFFFFFFC CALLDATASIZE ADD SLT PUSH2 0x29F JUMPI PUSH1 0x20 PUSH1 0x40 MLOAD PUSH3 0x3F480 DUP2 MSTORE RETURN JUMPDEST CALLVALUE PUSH2 0x29F JUMPI PUSH1 0x20 PUSH32 0xFFFFFFFFFFFFFFFFFFFFFFFFFFFFFFFFFFFFFFFFFFFFFFFFFFFFFFFFFFFFFFFC CALLDATASIZE ADD SLT PUSH2 0x29F JUMPI PUSH1 0x4 CALLDATALOAD PUSH1 0x0 MSTORE PUSH1 0xE PUSH1 0x20 MSTORE PUSH1 0x40 PUSH1 0x0 KECCAK256 DUP1 SLOAD PUSH2 0x386 PUSH1 0x1 DUP4 ADD SLOAD SWAP2 PUSH1 0x3 DUP5 ADD SLOAD SWAP1 PUSH1 0x4 DUP6 ADD SLOAD SWAP1 PUSH2 0x34E PUSH1 0x5 PUSH2 0x347 PUSH1 0x2 DUP10 ADD PUSH2 0x2D62 JUMP JUMPDEST SWAP8 ADD PUSH2 0x2D62 JUMP JUMPDEST SWAP3 PUSH1 0x40 MLOAD SWAP7 DUP8 SWAP7 PUSH20 0xFFFFFFFFFFFFFFFFFFFFFFFFFFFFFFFFFFFFFFFF SWAP4 PUSH1 0xFF DUP6 DUP8 PUSH1 0x8 SHR AND SWAP7 AND SWAP5 PUSH1 0xFF DUP4 PUSH1 0xA0 SHR AND SWAP3 AND SWAP1 DUP10 PUSH2 0x2F6D JUMP JUMPDEST SUB SWAP1 RETURN JUMPDEST CALLVALUE PUSH2 0x29F JUMPI PUSH1 0x40 PUSH32 0xFFFFFFFFFFFFFFFFFFFFFFFFFFFFFFFFFFFFFFFFFFFFFFFFFFFFFFFFFFFFFFFC CALLDATASIZE ADD SLT PUSH2 0x29F JUMPI PUSH2 0x3C1 PUSH2 0x2C22 JUMP JUMPDEST PUSH2 0x3C9 PUSH2 0x2C45 JUMP JUMPDEST SWAP1 PUSH20 0xFFFFFFFFFFFFFFFFFFFFFFFFFFFFFFFFFFFFFFFF DUP1 SWAP2 AND PUSH1 0x0 MSTORE PUSH1 0x1 PUSH1 0x20 MSTORE PUSH1 0x40 PUSH1 0x0 KECCAK256 SWAP2 AND PUSH1 0x0 MSTORE PUSH1 0x20 MSTORE PUSH1 0x20 PUSH1 0x40 PUSH1 0x0 KECCAK256 SLOAD PUSH1 0x40 MLOAD SWAP1 DUP2 MSTORE RETURN JUMPDEST CALLVALUE PUSH2 0x29F JUMPI PUSH1 0x40 PUSH32 0xFFFFFFFFFFFFFFFFFFFFFFFFFFFFFFFFFFFFFFFFFFFFFFFFFFFFFFFFFFFFFFFC CALLDATASIZE ADD SLT PUSH2 0x29F JUMPI PUSH2 0x1B PUSH1 0x4 CALLDATALOAD PUSH2 0x444 PUSH2 0x2C45 JUMP JUMPDEST SWAP1 DUP1 PUSH1 0x0 MSTORE PUSH1 0x6 PUSH1 0x20 MSTORE PUSH2 0x45F PUSH1 0x1 PUSH1 0x40 PUSH1 0x0 KECCAK256 ADD SLOAD PUSH2 0x316F JUMP JUMPDEST PUSH2 0x3241 JUMP JUMPDEST CALLVALUE PUSH2 0x29F JUMPI PUSH1 0x80 PUSH32 0xFFFFFFFFFFFFFFFFFFFFFFFFFFFFFFFFFFFFFFFFFFFFFFFFFFFFFFFFFFFFFFFC CALLDATASIZE ADD SLT PUSH2 0x29F JUMPI PUSH2 0x49B PUSH2 0x2C22 JUMP JUMPDEST PUSH1 0x44 SWAP1 PUSH8 0xFFFFFFFFFFFFFFFF DUP3 CALLDATALOAD DUP2 DUP2 GT PUSH2 0x29F JUMPI PUSH2 0x4BE SWAP1 CALLDATASIZE SWAP1 PUSH1 0x4 ADD PUSH2 0x2EF8 JUMP JUMPDEST SWAP3 PUSH2 0x4C7 PUSH2 0x3113 JUMP JUMPDEST PUSH2 0x4CF PUSH2 0x3462 JUMP JUMPDEST PUSH1 0x2 PUSH1 0x7 SLOAD EQ PUSH2 0xB20 JUMPI PUSH1 0x2 PUSH1 0x7 SSTORE PUSH20 0xFFFFFFFFFFFFFFFFFFFFFFFFFFFFFFFFFFFFFFFF DUP4 AND ISZERO PUSH2 0xAC2 JUMPI PUSH1 0x24 CALLDATALOAD ISZERO PUSH2 0xA64 JUMPI PUSH10 0xD3C21BCECCEDA1000000 PUSH1 0x24 CALLDATALOAD GT PUSH2 0xA06 JUMPI DUP4 MLOAD ISZERO PUSH2 0x9A8 JUMPI PUSH1 0x40 MLOAD PUSH1 0x20 DUP2 ADD SWAP1 PUSH2 0x546 PUSH1 0x20 DUP3 DUP9 MLOAD PUSH2 0x539 DUP2 DUP8 DUP6 DUP14 ADD PUSH2 0x2C68 JUMP JUMPDEST DUP2 ADD SUB DUP1 DUP5 MSTORE ADD DUP3 PUSH2 0x2D21 JUMP JUMPDEST MLOAD SWAP1 KECCAK256 PUSH1 0x0 MSTORE PUSH1 0x10 PUSH1 0x20 MSTORE PUSH1 0xFF PUSH1 0x40 PUSH1 0x0 KECCAK256 SLOAD AND PUSH2 0x94A JUMPI POP PUSH2 0x56A PUSH1 0x8 SLOAD PUSH2 0x3435 JUMP JUMPDEST SWAP1 DUP2 PUSH1 0x8 SSTORE DUP2 PUSH1 0x0 MSTORE PUSH1 0xD PUSH1 0x20 MSTORE PUSH1 0x40 PUSH1 0x0 KECCAK256 SWAP1 DUP3 DUP3 SSTORE PUSH1 0x1 DUP3 ADD PUSH32 0xFFFFFFFFFFFFFFFFFFFFFFFF0000000000000000000000000000000000000000 SWAP1 CALLER DUP3 DUP3 SLOAD AND OR SWAP1 SSTORE PUSH1 0x2 DUP4 ADD SWAP1 PUSH20 0xFFFFFFFFFFFFFFFFFFFFFFFFFFFFFFFFFFFFFFFF DUP7 AND SWAP1 DUP3 SLOAD AND OR SWAP1 SSTORE PUSH1 0x24 CALLDATALOAD PUSH1 0x3 DUP4 ADD SSTORE TIMESTAMP PUSH1 0x4 DUP4 ADD SSTORE PUSH1 0x5 DUP3 ADD PUSH32 0xFFFFFFFFFFFFFFFFFFFFFFFFFFFFFFFFFFFFFFFFFFFFFFFFFFFFFFFFFFFFFF00 DUP2 SLOAD AND SWAP1 SSTORE DUP5 MLOAD SWAP1 DUP2 GT PUSH2 0x7D3 JUMPI PUSH2 0x620 PUSH1 0x6 DUP4 ADD SLOAD PUSH2 0x2CCE JUMP JUMPDEST PUSH1 0x1F DUP2 GT PUSH2 0x903 JUMPI JUMPDEST POP DUP1 PUSH1 0x20 PUSH1 0x1F DUP3 GT PUSH1 0x1 EQ PUSH2 0x83C JUMPI PUSH1 0x0 SWAP2 PUSH2 0x831 JUMPI JUMPDEST POP PUSH32 0xFFFFFFFFFFFFFFFFFFFFFFFFFFFFFFFFFFFFFFFFFFFFFFFFFFFFFFFFFFFFFFFF DUP3 PUSH1 0x1 SHL SWAP3 PUSH1 0x3 SHL SHR NOT AND OR PUSH1 0x6 DUP3 ADD SSTORE JUMPDEST PUSH1 0x64 CALLDATALOAD PUSH1 0x7 DUP3 ADD SSTORE PUSH3 0x3F480 TIMESTAMP ADD SWAP1 DUP2 TIMESTAMP GT PUSH2 0x802 JUMPI PUSH1 0x8 ADD SSTORE PUSH20 0xFFFFFFFFFFFFFFFFFFFFFFFFFFFFFFFFFFFFFFFF DUP3 AND PUSH1 0x0 MSTORE PUSH1 0xF PUSH1 0x20 MSTORE PUSH1 0x40 PUSH1 0x0 KECCAK256 DUP1 SLOAD PUSH9 0x10000000000000000 DUP2 LT ISZERO PUSH2 0x7D3 JUMPI PUSH2 0x6D4 SWAP2 PUSH1 0x1 DUP3 ADD DUP2 SSTORE PUSH2 0x2FDA JUMP JUMPDEST DUP2 SLOAD SWAP1 PUSH1 0x3 SHL SWAP1 PUSH32 0xFFFFFFFFFFFFFFFFFFFFFFFFFFFFFFFFFFFFFFFFFFFFFFFFFFFFFFFFFFFFFFFF DUP5 DUP4 SHL SWAP3 SHL NOT AND OR SWAP1 SSTORE PUSH1 0x40 MLOAD PUSH1 0x20 DUP2 ADD SWAP1 PUSH2 0x723 PUSH1 0x20 DUP3 DUP8 MLOAD PUSH2 0x539 DUP2 DUP8 DUP6 DUP13 ADD PUSH2 0x2C68 JUMP JUMPDEST MLOAD SWAP1 KECCAK256 PUSH1 0x0 MSTORE PUSH1 0x10 PUSH1 0x20 MSTORE PUSH1 0x40 PUSH1 0x0 KECCAK256 PUSH1 0x1 PUSH32 0xFFFFFFFFFFFFFFFFFFFFFFFFFFFFFFFFFFFFFFFFFFFFFFFFFFFFFFFFFFFFFF00 DUP3 SLOAD AND OR SWAP1 SSTORE PUSH2 0x767 PUSH1 0x9 SLOAD PUSH2 0x3435 JUMP JUMPDEST PUSH1 0x9 SSTORE PUSH32 0x4C38254F7B8B72B1565C14AD4825E3BE334F5CDF32B2BDB7560016407004F051 PUSH20 0xFFFFFFFFFFFFFFFFFFFFFFFFFFFFFFFFFFFFFFFF PUSH2 0x7BD PUSH1 0x40 MLOAD SWAP6 PUSH1 0x24 CALLDATALOAD DUP8 MSTORE PUSH1 0x60 PUSH1 0x20 DUP9 ADD MSTORE PUSH1 0x60 DUP8 ADD SWAP1 PUSH2 0x2C8B JUMP JUMPDEST SWAP4 TIMESTAMP PUSH1 0x40 DUP8 ADD MSTORE AND SWAP4 DUP1 CALLER SWAP5 SUB SWAP1 LOG4 PUSH1 0x1 PUSH1 0x7 SSTORE STOP JUMPDEST PUSH32 0x4E487B7100000000000000000000000000000000000000000000000000000000 PUSH1 0x0 MSTORE PUSH1 0x41 PUSH1 0x4 MSTORE PUSH1 0x24 PUSH1 0x0 REVERT JUMPDEST PUSH32 0x4E487B7100000000000000000000000000000000000000000000000000000000 PUSH1 0x0 MSTORE PUSH1 0x11 PUSH1 0x4 MSTORE PUSH1 0x24 PUSH1 0x0 REVERT JUMPDEST SWAP1 POP DUP6 ADD MLOAD DUP7 PUSH2 0x640 JUMP JUMPDEST SWAP2 POP PUSH1 0x6 DUP4 ADD PUSH1 0x0 MSTORE PUSH1 0x20 PUSH1 0x0 KECCAK256 PUSH1 0x0 SWAP3 JUMPDEST PUSH32 0xFFFFFFFFFFFFFFFFFFFFFFFFFFFFFFFFFFFFFFFFFFFFFFFFFFFFFFFFFFFFFFE0 DUP4 AND DUP5 LT PUSH2 0x8EB JUMPI PUSH1 0x1 SWAP4 POP DUP3 PUSH32 0xFFFFFFFFFFFFFFFFFFFFFFFFFFFFFFFFFFFFFFFFFFFFFFFFFFFFFFFFFFFFFFE0 DUP2 AND LT PUSH2 0x8B4 JUMPI JUMPDEST POP POP DUP2 SHL ADD PUSH1 0x6 DUP3 ADD SSTORE PUSH2 0x674 JUMP JUMPDEST DUP8 ADD MLOAD PUSH32 0xFFFFFFFFFFFFFFFFFFFFFFFFFFFFFFFFFFFFFFFFFFFFFFFFFFFFFFFFFFFFFFFF PUSH1 0xF8 DUP5 PUSH1 0x3 SHL AND SHR NOT AND SWAP1 SSTORE DUP7 DUP1 PUSH2 0x8A5 JUMP JUMPDEST DUP8 DUP2 ADD MLOAD DUP3 SSTORE PUSH1 0x20 SWAP4 DUP5 ADD SWAP4 PUSH1 0x1 SWAP1 SWAP3 ADD SWAP2 ADD PUSH2 0x84E JUMP JUMPDEST PUSH1 0x6 DUP4 ADD PUSH1 0x0 MSTORE PUSH1 0x20 PUSH1 0x0 KECCAK256 PUSH1 0x1F DUP4 ADD PUSH1 0x5 SHR DUP2 ADD PUSH1 0x20 DUP5 LT PUSH2 0x943 JUMPI JUMPDEST PUSH1 0x1F DUP4 ADD PUSH1 0x5 SHR DUP3 ADD DUP2 LT PUSH2 0x937 JUMPI POP POP PUSH2 0x629 JUMP JUMPDEST PUSH1 0x0 DUP2 SSTORE PUSH1 0x1 ADD PUSH2 0x921 JUMP JUMPDEST POP DUP1 PUSH2 0x921 JUMP JUMPDEST PUSH1 0x64 SWAP1 PUSH32 0x4C33207472616E73616374696F6E20616C72656164792070726F636573736564 PUSH1 0x40 MLOAD SWAP2 PUSH32 0x8C379A000000000000000000000000000000000000000000000000000000000 DUP4 MSTORE PUSH1 0x20 PUSH1 0x4 DUP5 ADD MSTORE PUSH1 0x20 PUSH1 0x24 DUP5 ADD MSTORE DUP3 ADD MSTORE REVERT JUMPDEST PUSH1 0x64 SWAP1 PUSH32 0x496E76616C6964204C33207472616E73616374696F6E20686173680000000000 PUSH1 0x40 MLOAD SWAP2 PUSH32 0x8C379A000000000000000000000000000000000000000000000000000000000 DUP4 MSTORE PUSH1 0x20 PUSH1 0x4 DUP5 ADD MSTORE PUSH1 0x1B PUSH1 0x24 DUP5 ADD MSTORE DUP3 ADD MSTORE REVERT JUMPDEST PUSH1 0x64 SWAP1 PUSH32 0x416D6F756E742065786365656473206D6178696D756D00000000000000000000 PUSH1 0x40 MLOAD SWAP2 PUSH32 0x8C379A000000000000000000000000000000000000000000000000000000000 DUP4 MSTORE PUSH1 0x20 PUSH1 0x4 DUP5 ADD MSTORE PUSH1 0x16 PUSH1 0x24 DUP5 ADD MSTORE DUP3 ADD MSTORE REVERT JUMPDEST PUSH1 0x64 SWAP1 PUSH32 0x416D6F756E74206D7573742062652067726561746572207468616E2030000000 PUSH1 0x40 MLOAD SWAP2 PUSH32 0x8C379A000000000000000000000000000000000000000000000000000000000 DUP4 MSTORE PUSH1 0x20 PUSH1 0x4 DUP5 ADD MSTORE PUSH1 0x1D PUSH1 0x24 DUP5 ADD MSTORE DUP3 ADD MSTORE REVERT JUMPDEST PUSH1 0x64 SWAP1 PUSH32 0x496E76616C696420726563697069656E74000000000000000000000000000000 PUSH1 0x40 MLOAD SWAP2 PUSH32 0x8C379A000000000000000000000000000000000000000000000000000000000 DUP4 MSTORE PUSH1 0x20 PUSH1 0x4 DUP5 ADD MSTORE PUSH1 0x11 PUSH1 0x24 DUP5 ADD MSTORE DUP3 ADD MSTORE REVERT JUMPDEST PUSH1 0x4 PUSH1 0x40 MLOAD PUSH32 0x3EE5AEB500000000000000000000000000000000000000000000000000000000 DUP2 MSTORE REVERT JUMPDEST PUSH1 0x60 PUSH32 0xFFFFFFFFFFFFFFFFFFFFFFFFFFFFFFFFFFFFFFFFFFFFFFFFFFFFFFFFFFFFFFFC CALLDATASIZE ADD SLT PUSH2 0x29F JUMPI PUSH1 0x24 CALLDATALOAD PUSH1 0x4 CALLDATALOAD PUSH1 0x5 DUP3 LT ISZERO PUSH2 0x29F JUMPI PUSH8 0xFFFFFFFFFFFFFFFF PUSH1 0x44 CALLDATALOAD DUP2 DUP2 GT PUSH2 0x29F JUMPI PUSH2 0xBA4 SWAP1 CALLDATASIZE SWAP1 PUSH1 0x4 ADD PUSH2 0x2EF8 JUMP JUMPDEST SWAP1 PUSH2 0xBAD PUSH2 0x3462 JUMP JUMPDEST PUSH1 0xC SLOAD CALLVALUE LT PUSH2 0x10B2 JUMPI DUP3 PUSH1 0x0 MSTORE PUSH1 0x20 SWAP1 PUSH1 0xD DUP3 MSTORE PUSH1 0x40 PUSH1 0x0 KECCAK256 SWAP1 PUSH2 0xBD3 DUP3 SLOAD ISZERO ISZERO PUSH2 0x3498 JUMP JUMPDEST PUSH1 0x5 DUP3 ADD DUP1 SLOAD PUSH2 0xBEF PUSH1 0xFF DUP3 AND PUSH2 0xBE9 DUP2 PUSH2 0x2E27 JUMP JUMPDEST ISZERO PUSH2 0x34FD JUMP JUMPDEST PUSH2 0xBFF PUSH1 0x8 DUP6 ADD SLOAD TIMESTAMP GT ISZERO PUSH2 0x3562 JUMP JUMPDEST PUSH20 0xFFFFFFFFFFFFFFFFFFFFFFFFFFFFFFFFFFFFFFFF PUSH1 0x2 DUP6 ADD SLOAD AND CALLER EQ DUP1 ISZERO PUSH2 0x1070 JUMPI JUMPDEST ISZERO PUSH2 0x1012 JUMPI PUSH32 0xFFFFFFFFFFFFFFFFFFFFFFFFFFFFFFFFFFFFFFFFFFFFFFFFFFFFFFFFFFFFFF00 PUSH1 0x2 SWAP2 AND OR SWAP1 SSTORE PUSH1 0xA PUSH1 0x9 DUP4 ADD SWAP3 PUSH2 0xC8A DUP9 PUSH32 0xFFFFFFFFFFFFFFFFFFFFFFFF0000000000000000000000000000000000000000 SWAP6 CALLER DUP8 DUP3 SLOAD AND OR DUP2 SSTORE PUSH2 0x35C7 JUMP JUMPDEST ADD SWAP1 DUP5 MLOAD SWAP2 DUP2 DUP4 GT PUSH2 0x7D3 JUMPI PUSH2 0xCA0 DUP2 SLOAD PUSH2 0x2CCE JUMP JUMPDEST SWAP3 PUSH1 0x1F SWAP4 DUP5 DUP2 GT PUSH2 0xFCF JUMPI JUMPDEST POP DUP1 DUP7 DUP6 DUP3 GT PUSH1 0x1 EQ PUSH2 0xF31 JUMPI PUSH1 0x0 SWAP2 PUSH2 0xF26 JUMPI JUMPDEST POP PUSH32 0xFFFFFFFFFFFFFFFFFFFFFFFFFFFFFFFFFFFFFFFFFFFFFFFFFFFFFFFFFFFFFFFF DUP3 PUSH1 0x1 SHL SWAP3 PUSH1 0x3 SHL SHR NOT AND OR SWAP1 SSTORE JUMPDEST PUSH2 0xCFD PUSH1 0xA SLOAD PUSH2 0x3435 JUMP JUMPDEST PUSH1 0xA SSTORE DUP6 PUSH1 0x0 MSTORE PUSH1 0xE DUP5 MSTORE PUSH1 0x40 PUSH1 0x0 KECCAK256 SWAP3 DUP7 DUP5 SSTORE PUSH2 0xD29 DUP9 PUSH1 0x1 SWAP3 DUP4 DUP8 ADD SWAP1 CALLER SWAP1 DUP3 SLOAD AND OR DUP2 SSTORE PUSH2 0x35C7 JUMP JUMPDEST PUSH1 0x2 DUP5 ADD SWAP3 DUP7 MLOAD SWAP3 DUP4 GT PUSH2 0x7D3 JUMPI PUSH2 0xD41 DUP5 SLOAD PUSH2 0x2CCE JUMP JUMPDEST DUP2 DUP2 GT PUSH2 0xEE0 JUMPI JUMPDEST POP DUP6 SWAP1 DUP4 GT PUSH1 0x1 EQ PUSH2 0xE18 JUMPI SWAP3 DUP3 PUSH32 0xC5A6BD89289814765F8743687EA51D3BB3DEB2C8F1CFF09B1A479FB94166652C SWAP8 SWAP6 SWAP3 DUP2 PUSH2 0xDDE SWAP9 SWAP6 PUSH1 0x60 SWAP8 PUSH1 0x0 SWAP3 PUSH2 0xDED JUMPI JUMPDEST POP PUSH32 0xFFFFFFFFFFFFFFFFFFFFFFFFFFFFFFFFFFFFFFFFFFFFFFFFFFFFFFFFFFFFFFFF SWAP2 SWAP3 SHL SWAP3 PUSH1 0x3 SHL SHR NOT AND OR SWAP1 SSTORE JUMPDEST PUSH1 0x3 TIMESTAMP SWAP2 ADD SSTORE PUSH1 0x40 MLOAD SWAP7 PUSH2 0xDCF DUP2 PUSH2 0x2E27 JUMP JUMPDEST DUP8 MSTORE DUP7 ADD MSTORE PUSH1 0x60 DUP6 ADD SWAP1 PUSH2 0x2C8B JUMP JUMPDEST SWAP3 TIMESTAMP PUSH1 0x40 DUP3 ADD MSTORE DUP1 CALLER SWAP5 SUB SWAP1 LOG3 STOP JUMPDEST DUP10 ADD MLOAD SWAP2 POP PUSH32 0xFFFFFFFFFFFFFFFFFFFFFFFFFFFFFFFFFFFFFFFFFFFFFFFFFFFFFFFFFFFFFFFF PUSH2 0xD8C JUMP JUMPDEST PUSH32 0xFFFFFFFFFFFFFFFFFFFFFFFFFFFFFFFFFFFFFFFFFFFFFFFFFFFFFFFFFFFFFFE0 DUP4 SWAP3 SWAP4 AND SWAP1 DUP5 PUSH1 0x0 MSTORE DUP7 PUSH1 0x0 KECCAK256 SWAP2 PUSH1 0x0 JUMPDEST DUP2 DUP2 LT PUSH2 0xECB JUMPI POP SWAP3 PUSH1 0x60 SWAP6 SWAP3 PUSH2 0xDDE SWAP9 SWAP6 SWAP3 DUP3 PUSH32 0xC5A6BD89289814765F8743687EA51D3BB3DEB2C8F1CFF09B1A479FB94166652C SWAP12 SWAP10 SWAP7 LT PUSH2 0xE94 JUMPI JUMPDEST POP POP DUP2 SHL ADD SWAP1 SSTORE PUSH2 0xDBC JUMP JUMPDEST DUP9 ADD MLOAD PUSH32 0xFFFFFFFFFFFFFFFFFFFFFFFFFFFFFFFFFFFFFFFFFFFFFFFFFFFFFFFFFFFFFFFF PUSH1 0xF8 DUP5 PUSH1 0x3 SHL AND SHR NOT AND SWAP1 SSTORE DUP12 DUP1 PUSH2 0xE88 JUMP JUMPDEST DUP10 DUP4 ADD MLOAD DUP5 SSTORE SWAP3 DUP6 ADD SWAP3 SWAP2 DUP9 ADD SWAP2 DUP9 ADD PUSH2 0xE4A JUMP JUMPDEST DUP5 PUSH1 0x0 MSTORE DUP7 PUSH1 0x0 KECCAK256 DUP3 DUP1 DUP7 ADD PUSH1 0x5 SHR DUP3 ADD SWAP3 DUP10 DUP8 LT PUSH2 0xF1D JUMPI JUMPDEST ADD PUSH1 0x5 SHR ADD SWAP1 DUP4 SWAP1 JUMPDEST DUP3 DUP2 LT PUSH2 0xF11 JUMPI POP POP PUSH2 0xD49 JUMP JUMPDEST PUSH1 0x0 DUP2 SSTORE ADD DUP4 SWAP1 PUSH2 0xF03 JUMP JUMPDEST SWAP3 POP DUP2 SWAP3 PUSH2 0xEFA JUMP JUMPDEST SWAP1 POP DUP8 ADD MLOAD DUP11 PUSH2 0xCC1 JUMP JUMPDEST PUSH1 0x0 DUP5 DUP2 MSTORE DUP9 DUP2 KECCAK256 SWAP3 PUSH32 0xFFFFFFFFFFFFFFFFFFFFFFFFFFFFFFFFFFFFFFFFFFFFFFFFFFFFFFFFFFFFFFE0 AND SWAP1 JUMPDEST DUP10 DUP12 DUP4 DUP4 LT PUSH2 0xFBA JUMPI POP POP POP SWAP1 DUP4 PUSH1 0x1 SWAP5 SWAP4 SWAP3 LT PUSH2 0xF83 JUMPI JUMPDEST POP POP DUP2 SHL ADD SWAP1 SSTORE PUSH2 0xCF2 JUMP JUMPDEST DUP10 ADD MLOAD PUSH32 0xFFFFFFFFFFFFFFFFFFFFFFFFFFFFFFFFFFFFFFFFFFFFFFFFFFFFFFFFFFFFFFFF PUSH1 0xF8 DUP5 PUSH1 0x3 SHL AND SHR NOT AND SWAP1 SSTORE DUP11 DUP1 PUSH2 0xF77 JUMP JUMPDEST DUP5 ADD MLOAD DUP6 SSTORE PUSH1 0x1 SWAP1 SWAP5 ADD SWAP4 SWAP3 DUP4 ADD SWAP3 ADD PUSH2 0xF5E JUMP JUMPDEST DUP3 PUSH1 0x0 MSTORE DUP7 PUSH1 0x0 KECCAK256 DUP6 DUP1 DUP5 ADD PUSH1 0x5 SHR DUP3 ADD SWAP3 DUP10 DUP6 LT PUSH2 0x1009 JUMPI JUMPDEST ADD PUSH1 0x5 SHR ADD SWAP1 JUMPDEST DUP2 DUP2 LT PUSH2 0xFFD JUMPI POP PUSH2 0xCAC JUMP JUMPDEST PUSH1 0x0 DUP2 SSTORE PUSH1 0x1 ADD PUSH2 0xFF0 JUMP JUMPDEST SWAP3 POP DUP2 SWAP3 PUSH2 0xFE9 JUMP JUMPDEST PUSH1 0x64 DUP6 PUSH1 0x40 MLOAD SWAP1 PUSH32 0x8C379A000000000000000000000000000000000000000000000000000000000 DUP3 MSTORE PUSH1 0x4 DUP3 ADD MSTORE PUSH1 0x19 PUSH1 0x24 DUP3 ADD MSTORE PUSH32 0x4E6F7420617574686F72697A656420746F206469737075746500000000000000 PUSH1 0x44 DUP3 ADD MSTORE REVERT JUMPDEST POP PUSH32 0x7B8BB8356A3F32F5C111FF23F050D97F08988E0883529EA7BFF3B918887A6E0E PUSH1 0x0 MSTORE PUSH1 0x6 DUP6 MSTORE PUSH1 0x40 PUSH1 0x0 KECCAK256 CALLER PUSH1 0x0 MSTORE DUP6 MSTORE PUSH1 0xFF PUSH1 0x40 PUSH1 0x0 KECCAK256 SLOAD AND PUSH2 0xC23 JUMP JUMPDEST PUSH1 0x64 PUSH1 0x40 MLOAD PUSH32 0x8C379A000000000000000000000000000000000000000000000000000000000 DUP2 MSTORE PUSH1 0x20 PUSH1 0x4 DUP3 ADD MSTORE PUSH1 0x18 PUSH1 0x24 DUP3 ADD MSTORE PUSH32 0x496E73756666696369656E742064697370757465206665650000000000000000 PUSH1 0x44 DUP3 ADD MSTORE REVERT JUMPDEST CALLVALUE PUSH2 0x29F JUMPI PUSH1 0x0 PUSH32 0xFFFFFFFFFFFFFFFFFFFFFFFFFFFFFFFFFFFFFFFFFFFFFFFFFFFFFFFFFFFFFFFC CALLDATASIZE ADD SLT PUSH2 0x29F JUMPI PUSH1 0x20 PUSH1 0xA SLOAD PUSH1 0x40 MLOAD SWAP1 DUP2 MSTORE RETURN JUMPDEST CALLVALUE PUSH2 0x29F JUMPI PUSH1 0x20 PUSH32 0xFFFFFFFFFFFFFFFFFFFFFFFFFFFFFFFFFFFFFFFFFFFFFFFFFFFFFFFFFFFFFFFC CALLDATASIZE ADD SLT PUSH2 0x29F JUMPI PUSH20 0xFFFFFFFFFFFFFFFFFFFFFFFFFFFFFFFFFFFFFFFF DUP1 PUSH2 0x1199 PUSH2 0x2C22 JUMP JUMPDEST AND PUSH1 0x0 MSTORE PUSH1 0x11 PUSH1 0x20 MSTORE PUSH1 0x40 PUSH1 0x0 KECCAK256 SWAP1 PUSH2 0x386 DUP3 SLOAD SWAP3 PUSH1 0x1 DUP2 ADD SLOAD SWAP1 PUSH1 0x3 PUSH1 0x2 DUP3 ADD SLOAD SWAP2 ADD SLOAD SWAP2 PUSH1 0x40 MLOAD SWAP6 DUP7 SWAP6 PUSH1 0xFF DUP3 PUSH1 0xA0 SHR AND SWAP2 AND DUP7 SWAP2 SWAP3 PUSH1 0x80 SWAP4 SWAP7 SWAP6 SWAP5 SWAP2 SWAP7 PUSH20 0xFFFFFFFFFFFFFFFFFFFFFFFFFFFFFFFFFFFFFFFF PUSH1 0xA0 DUP6 ADD SWAP9 AND DUP5 MSTORE ISZERO ISZERO PUSH1 0x20 DUP5 ADD MSTORE PUSH1 0x40 DUP4 ADD MSTORE PUSH1 0x60 DUP3 ADD MSTORE ADD MSTORE JUMP JUMPDEST CALLVALUE PUSH2 0x29F JUMPI PUSH1 0x0 PUSH32 0xFFFFFFFFFFFFFFFFFFFFFFFFFFFFFFFFFFFFFFFFFFFFFFFFFFFFFFFFFFFFFFFC CALLDATASIZE ADD SLT PUSH2 0x29F JUMPI PUSH1 0x20 PUSH1 0x40 MLOAD PUSH32 0x7B8BB8356A3F32F5C111FF23F050D97F08988E0883529EA7BFF3B918887A6E0E DUP2 MSTORE RETURN JUMPDEST CALLVALUE PUSH2 0x29F JUMPI PUSH1 0x20 DUP1 PUSH32 0xFFFFFFFFFFFFFFFFFFFFFFFFFFFFFFFFFFFFFFFFFFFFFFFFFFFFFFFFFFFFFFFC CALLDATASIZE ADD SLT PUSH2 0x29F JUMPI PUSH20 0xFFFFFFFFFFFFFFFFFFFFFFFFFFFFFFFFFFFFFFFF PUSH2 0x12B1 PUSH2 0x2C22 JUMP JUMPDEST AND PUSH1 0x0 MSTORE PUSH1 0xF DUP2 MSTORE PUSH1 0x40 PUSH1 0x0 KECCAK256 PUSH1 0x40 MLOAD SWAP1 DUP2 DUP4 DUP3 SLOAD SWAP2 DUP3 DUP2 MSTORE ADD SWAP1 DUP2 SWAP3 PUSH1 0x0 MSTORE DUP5 PUSH1 0x0 KECCAK256 SWAP1 PUSH1 0x0 JUMPDEST DUP7 DUP3 DUP3 LT PUSH2 0x132F JUMPI DUP7 DUP7 PUSH2 0x12EF DUP3 DUP9 SUB DUP4 PUSH2 0x2D21 JUMP JUMPDEST PUSH1 0x40 MLOAD SWAP3 DUP4 SWAP3 DUP2 DUP5 ADD SWAP1 DUP3 DUP6 MSTORE MLOAD DUP1 SWAP2 MSTORE PUSH1 0x40 DUP5 ADD SWAP3 SWAP2 PUSH1 0x0 JUMPDEST DUP3 DUP2 LT PUSH2 0x1318 JUMPI POP POP POP POP SUB SWAP1 RETURN JUMPDEST DUP4 MLOAD DUP6 MSTORE DUP7 SWAP6 POP SWAP4 DUP2 ADD SWAP4 SWAP3 DUP2 ADD SWAP3 PUSH1 0x1 ADD PUSH2 0x1309 JUMP JUMPDEST DUP4 SLOAD DUP6 MSTORE SWAP1 SWAP4 ADD SWAP3 PUSH1 0x1 SWAP3 DUP4 ADD SWAP3 ADD PUSH2 0x12D9 JUMP JUMPDEST CALLVALUE PUSH2 0x29F JUMPI PUSH1 0x0 PUSH32 0xFFFFFFFFFFFFFFFFFFFFFFFFFFFFFFFFFFFFFFFFFFFFFFFFFFFFFFFFFFFFFFFC CALLDATASIZE ADD SLT PUSH2 0x29F JUMPI PUSH1 0x20 PUSH1 0x40 MLOAD PUSH32 0x300F9AE985DC711960F7A4D1DD013F9C19ECF40BFF149522AB7523B2187A3846 DUP2 MSTORE RETURN JUMPDEST CALLVALUE PUSH2 0x29F JUMPI PUSH1 0x0 PUSH32 0xFFFFFFFFFFFFFFFFFFFFFFFFFFFFFFFFFFFFFFFFFFFFFFFFFFFFFFFFFFFFFFFC CALLDATASIZE ADD SLT PUSH2 0x29F JUMPI PUSH1 0x20 PUSH1 0xC SLOAD PUSH1 0x40 MLOAD SWAP1 DUP2 MSTORE RETURN JUMPDEST CALLVALUE PUSH2 0x29F JUMPI PUSH1 0x0 PUSH32 0xFFFFFFFFFFFFFFFFFFFFFFFFFFFFFFFFFFFFFFFFFFFFFFFFFFFFFFFFFFFFFFFC CALLDATASIZE ADD SLT PUSH2 0x29F JUMPI PUSH1 0x20 PUSH1 0x40 MLOAD PUSH32 0x52BA824BFABC2BCFCDF7F0EDBB486EBB05E1836C90E78047EFEB949990F72E5F DUP2 MSTORE RETURN JUMPDEST CALLVALUE PUSH2 0x29F JUMPI PUSH1 0x40 PUSH32 0xFFFFFFFFFFFFFFFFFFFFFFFFFFFFFFFFFFFFFFFFFFFFFFFFFFFFFFFFFFFFFFFC CALLDATASIZE ADD SLT PUSH2 0x29F JUMPI PUSH2 0x1475 PUSH2 0x146B PUSH2 0x2C22 JUMP JUMPDEST PUSH1 0x24 CALLDATALOAD SWAP1 CALLER PUSH2 0x32E4 JUMP JUMPDEST PUSH1 0x20 PUSH1 0x40 MLOAD PUSH1 0x1 DUP2 MSTORE RETURN JUMPDEST CALLVALUE PUSH2 0x29F JUMPI PUSH1 0x0 PUSH32 0xFFFFFFFFFFFFFFFFFFFFFFFFFFFFFFFFFFFFFFFFFFFFFFFFFFFFFFFFFFFFFFFC CALLDATASIZE ADD SLT PUSH2 0x29F JUMPI PUSH1 0x20 PUSH1 0x40 MLOAD PUSH1 0x0 DUP2 MSTORE RETURN JUMPDEST CALLVALUE PUSH2 0x29F JUMPI PUSH1 0x20 PUSH32 0xFFFFFFFFFFFFFFFFFFFFFFFFFFFFFFFFFFFFFFFFFFFFFFFFFFFFFFFFFFFFFFFC CALLDATASIZE ADD SLT PUSH2 0x29F JUMPI PUSH1 0x4 CALLDATALOAD PUSH2 0x14F4 PUSH2 0x3113 JUMP JUMPDEST PUSH2 0x14FC PUSH2 0x3462 JUMP JUMPDEST DUP1 PUSH1 0x0 MSTORE PUSH1 0xD PUSH1 0x20 MSTORE PUSH2 0x1595 PUSH1 0x40 PUSH1 0x0 KECCAK256 PUSH2 0x1519 DUP2 SLOAD ISZERO ISZERO PUSH2 0x3498 JUMP JUMPDEST PUSH1 0x5 DUP2 ADD PUSH1 0x1 PUSH32 0xFFFFFFFFFFFFFFFFFFFFFFFFFFFFFFFFFFFFFFFFFFFFFFFFFFFFFFFFFFFFFF00 DUP3 SLOAD PUSH2 0x1552 PUSH1 0xFF DUP3 AND PUSH2 0xBE9 DUP2 PUSH2 0x2E27 JUMP JUMPDEST PUSH2 0x1562 PUSH1 0x8 DUP7 ADD SLOAD TIMESTAMP GT ISZERO PUSH2 0x3562 JUMP JUMPDEST AND OR SWAP1 SSTORE PUSH20 0xFFFFFFFFFFFFFFFFFFFFFFFFFFFFFFFFFFFFFFFF SWAP1 PUSH1 0x3 DUP3 PUSH1 0x1 DUP4 ADD SLOAD AND SWAP3 PUSH1 0x2 DUP4 ADD SLOAD AND SWAP2 ADD SLOAD SWAP2 PUSH2 0x32E4 JUMP JUMPDEST PUSH1 0x40 MLOAD SWAP1 TIMESTAMP DUP3 MSTORE PUSH32 0x1A87470A87E2FFF176D778A6E7F91D53B96B4CBB4D856F40ABC582586D51850A PUSH1 0x20 CALLER SWAP4 LOG3 STOP JUMPDEST CALLVALUE PUSH2 0x29F JUMPI PUSH1 0x20 PUSH32 0xFFFFFFFFFFFFFFFFFFFFFFFFFFFFFFFFFFFFFFFFFFFFFFFFFFFFFFFFFFFFFFFC CALLDATASIZE ADD SLT PUSH2 0x29F JUMPI PUSH32 0xE8FC23E21608AA8E92FAEE11AF5686B6AA7531796F68F2F943BB0D893C4312C9 PUSH1 0x40 PUSH1 0x4 CALLDATALOAD PUSH2 0x1621 PUSH2 0x30D9 JUMP JUMPDEST PUSH1 0xC SLOAD SWAP1 DUP1 PUSH1 0xC SSTORE DUP3 MLOAD SWAP2 DUP3 MSTORE PUSH1 0x20 DUP3 ADD MSTORE LOG1 STOP JUMPDEST CALLVALUE PUSH2 0x29F JUMPI PUSH1 0x0 PUSH32 0xFFFFFFFFFFFFFFFFFFFFFFFFFFFFFFFFFFFFFFFFFFFFFFFFFFFFFFFFFFFFFFFC CALLDATASIZE ADD SLT PUSH2 0x29F JUMPI PUSH1 0x40 MLOAD PUSH1 0x0 PUSH1 0x4 SLOAD PUSH2 0x1676 DUP2 PUSH2 0x2CCE JUMP JUMPDEST DUP1 DUP5 MSTORE SWAP1 PUSH1 0x1 SWAP1 DUP2 DUP2 AND SWAP1 DUP2 ISZERO PUSH2 0x170F JUMPI POP PUSH1 0x1 EQ PUSH2 0x16B4 JUMPI JUMPDEST PUSH2 0x386 DUP5 PUSH2 0x16A0 DUP2 DUP7 SUB DUP3 PUSH2 0x2D21 JUMP JUMPDEST PUSH1 0x40 MLOAD SWAP2 DUP3 SWAP2 PUSH1 0x20 DUP4 MSTORE PUSH1 0x20 DUP4 ADD SWAP1 PUSH2 0x2C8B JUMP JUMPDEST PUSH1 0x4 PUSH1 0x0 SWAP1 DUP2 MSTORE SWAP3 POP PUSH32 0x8A35ACFBC15FF81A39AE7D344FD709F28E8600B4AA8C65C6B64BFE7FE36BD19B JUMPDEST DUP3 DUP5 LT PUSH2 0x16F7 JUMPI POP POP POP DUP2 ADD PUSH1 0x20 ADD PUSH2 0x16A0 DUP3 PUSH2 0x1690 JUMP JUMPDEST DUP1 SLOAD PUSH1 0x20 DUP6 DUP8 ADD DUP2 ADD SWAP2 SWAP1 SWAP2 MSTORE SWAP1 SWAP4 ADD SWAP3 DUP2 ADD PUSH2 0x16DF JUMP JUMPDEST PUSH32 0xFFFFFFFFFFFFFFFFFFFFFFFFFFFFFFFFFFFFFFFFFFFFFFFFFFFFFFFFFFFFFF00 AND PUSH1 0x20 DUP1 DUP8 ADD SWAP2 SWAP1 SWAP2 MSTORE SWAP3 ISZERO ISZERO PUSH1 0x5 SHL DUP6 ADD SWAP1 SWAP3 ADD SWAP3 POP PUSH2 0x16A0 SWAP2 POP DUP4 SWAP1 POP PUSH2 0x1690 JUMP JUMPDEST CALLVALUE PUSH2 0x29F JUMPI PUSH1 0x0 PUSH32 0xFFFFFFFFFFFFFFFFFFFFFFFFFFFFFFFFFFFFFFFFFFFFFFFFFFFFFFFFFFFFFFFC CALLDATASIZE ADD SLT PUSH2 0x29F JUMPI PUSH1 0x20 PUSH1 0x40 MLOAD PUSH10 0xD3C21BCECCEDA1000000 DUP2 MSTORE RETURN JUMPDEST CALLVALUE PUSH2 0x29F JUMPI PUSH1 0x40 PUSH32 0xFFFFFFFFFFFFFFFFFFFFFFFFFFFFFFFFFFFFFFFFFFFFFFFFFFFFFFFFFFFFFFFC CALLDATASIZE ADD SLT PUSH2 0x29F JUMPI PUSH2 0x17CE PUSH2 0x2C45 JUMP JUMPDEST PUSH1 0x4 CALLDATALOAD PUSH1 0x0 MSTORE PUSH1 0x6 PUSH1 0x20 MSTORE PUSH20 0xFFFFFFFFFFFFFFFFFFFFFFFFFFFFFFFFFFFFFFFF PUSH1 0x40 PUSH1 0x0 KECCAK256 SWAP2 AND PUSH1 0x0 MSTORE PUSH1 0x20 MSTORE PUSH1 0x20 PUSH1 0xFF PUSH1 0x40 PUSH1 0x0 KECCAK256 SLOAD AND PUSH1 0x40 MLOAD SWAP1 ISZERO ISZERO DUP2 MSTORE RETURN JUMPDEST CALLVALUE PUSH2 0x29F JUMPI PUSH1 0x40 PUSH32 0xFFFFFFFFFFFFFFFFFFFFFFFFFFFFFFFFFFFFFFFFFFFFFFFFFFFFFFFFFFFFFFFC CALLDATASIZE ADD SLT PUSH2 0x29F JUMPI PUSH1 0x0 PUSH1 0x20 PUSH20 0xFFFFFFFFFFFFFFFFFFFFFFFFFFFFFFFFFFFFFFFF PUSH1 0x44 PUSH2 0x1862 PUSH2 0x2C22 JUMP JUMPDEST PUSH2 0x186A PUSH2 0x307D JUMP JUMPDEST PUSH1 0x40 MLOAD SWAP5 DUP6 SWAP4 DUP5 SWAP3 PUSH32 0xA9059CBB00000000000000000000000000000000000000000000000000000000 DUP5 MSTORE CALLER PUSH1 0x4 DUP6 ADD MSTORE PUSH1 0x24 CALLDATALOAD PUSH1 0x24 DUP6 ADD MSTORE AND GAS CALL DUP1 ISZERO PUSH2 0x18E5 JUMPI PUSH2 0x18B2 JUMPI STOP JUMPDEST PUSH1 0x20 DUP2 RETURNDATASIZE DUP3 GT PUSH2 0x18DD JUMPI JUMPDEST DUP2 PUSH2 0x18CA PUSH1 0x20 SWAP4 DUP4 PUSH2 0x2D21 JUMP JUMPDEST DUP2 ADD SUB SLT PUSH2 0x29F JUMPI MLOAD DUP1 ISZERO ISZERO SUB PUSH2 0x29F JUMPI STOP JUMPDEST RETURNDATASIZE SWAP2 POP PUSH2 0x18BD JUMP JUMPDEST PUSH1 0x40 MLOAD RETURNDATASIZE PUSH1 0x0 DUP3 RETURNDATACOPY RETURNDATASIZE SWAP1 REVERT JUMPDEST CALLVALUE PUSH2 0x29F JUMPI PUSH1 0x20 PUSH32 0xFFFFFFFFFFFFFFFFFFFFFFFFFFFFFFFFFFFFFFFFFFFFFFFFFFFFFFFFFFFFFFFC CALLDATASIZE ADD SLT PUSH2 0x29F JUMPI PUSH32 0x9351BE7C0F6091E3A280467D38E8ECFD5A4529968CDFAEE0E0DBCCEAEE6765C7 PUSH1 0x40 PUSH1 0x4 CALLDATALOAD PUSH2 0x194E PUSH2 0x30D9 JUMP JUMPDEST PUSH1 0xB SLOAD SWAP1 DUP1 PUSH1 0xB SSTORE DUP3 MLOAD SWAP2 DUP3 MSTORE PUSH1 0x20 DUP3 ADD MSTORE LOG1 STOP JUMPDEST CALLVALUE PUSH2 0x29F JUMPI PUSH1 0x0 PUSH32 0xFFFFFFFFFFFFFFFFFFFFFFFFFFFFFFFFFFFFFFFFFFFFFFFFFFFFFFFFFFFFFFFC CALLDATASIZE ADD SLT PUSH2 0x29F JUMPI PUSH1 0x20 PUSH1 0x9 SLOAD PUSH1 0x40 MLOAD SWAP1 DUP2 MSTORE RETURN JUMPDEST CALLVALUE PUSH2 0x29F JUMPI PUSH1 0x0 PUSH32 0xFFFFFFFFFFFFFFFFFFFFFFFFFFFFFFFFFFFFFFFFFFFFFFFFFFFFFFFFFFFFFFFC CALLDATASIZE ADD SLT PUSH2 0x29F JUMPI PUSH1 0x20 PUSH1 0x8 SLOAD PUSH1 0x40 MLOAD SWAP1 DUP2 MSTORE RETURN JUMPDEST CALLVALUE PUSH2 0x29F JUMPI PUSH1 0x0 PUSH32 0xFFFFFFFFFFFFFFFFFFFFFFFFFFFFFFFFFFFFFFFFFFFFFFFFFFFFFFFFFFFFFFFC CALLDATASIZE ADD SLT PUSH2 0x29F JUMPI PUSH2 0x1A12 PUSH2 0x307D JUMP JUMPDEST PUSH2 0x1A1A PUSH2 0x3462 JUMP JUMPDEST PUSH1 0x1 PUSH32 0xFFFFFFFFFFFFFFFFFFFFFFFFFFFFFFFFFFFFFFFFFFFFFFFFFFFFFFFFFFFFFF00 PUSH1 0x5 SLOAD AND OR PUSH1 0x5 SSTORE PUSH32 0x62E78CEA01BEE320CD4E420270B5EA74000D11B0C9F74754EBDBFC544B05A258 PUSH1 0x20 PUSH1 0x40 MLOAD CALLER DUP2 MSTORE LOG1 STOP JUMPDEST CALLVALUE PUSH2 0x29F JUMPI PUSH1 0x0 PUSH32 0xFFFFFFFFFFFFFFFFFFFFFFFFFFFFFFFFFFFFFFFFFFFFFFFFFFFFFFFFFFFFFFFC CALLDATASIZE ADD SLT PUSH2 0x29F JUMPI PUSH2 0x1AA8 PUSH2 0x307D JUMP JUMPDEST PUSH1 0x0 DUP1 DUP1 DUP1 SELFBALANCE DUP2 DUP2 ISZERO PUSH2 0x1AC0 JUMPI JUMPDEST CALLER SWAP1 CALL ISZERO PUSH2 0x18E5 JUMPI STOP JUMPDEST POP PUSH2 0x8FC PUSH2 0x1AB6 JUMP JUMPDEST CALLVALUE PUSH2 0x29F JUMPI PUSH1 0x0 PUSH32 0xFFFFFFFFFFFFFFFFFFFFFFFFFFFFFFFFFFFFFFFFFFFFFFFFFFFFFFFFFFFFFFFC CALLDATASIZE ADD SLT PUSH2 0x29F JUMPI PUSH1 0x20 PUSH1 0xB SLOAD PUSH1 0x40 MLOAD SWAP1 DUP2 MSTORE RETURN JUMPDEST CALLVALUE PUSH2 0x29F JUMPI PUSH1 0x40 PUSH32 0xFFFFFFFFFFFFFFFFFFFFFFFFFFFFFFFFFFFFFFFFFFFFFFFFFFFFFFFFFFFFFFFC CALLDATASIZE ADD SLT PUSH2 0x29F JUMPI PUSH2 0x1B3C PUSH2 0x2C22 JUMP JUMPDEST PUSH20 0xFFFFFFFFFFFFFFFFFFFFFFFFFFFFFFFFFFFFFFFF PUSH1 0x24 CALLDATALOAD SWAP2 AND PUSH1 0x0 MSTORE PUSH1 0xF PUSH1 0x20 MSTORE PUSH1 0x40 PUSH1 0x0 KECCAK256 DUP1 SLOAD DUP3 LT ISZERO PUSH2 0x29F JUMPI PUSH1 0x20 SWAP2 PUSH2 0x1B78 SWAP2 PUSH2 0x2FDA JUMP JUMPDEST SWAP1 SLOAD PUSH1 0x40 MLOAD SWAP2 PUSH1 0x3 SHL SHR DUP2 MSTORE RETURN JUMPDEST CALLVALUE PUSH2 0x29F JUMPI PUSH1 0x20 PUSH32 0xFFFFFFFFFFFFFFFFFFFFFFFFFFFFFFFFFFFFFFFFFFFFFFFFFFFFFFFFFFFFFFFC CALLDATASIZE ADD SLT PUSH2 0x29F JUMPI PUSH20 0xFFFFFFFFFFFFFFFFFFFFFFFFFFFFFFFFFFFFFFFF PUSH2 0x1BD2 PUSH2 0x2C22 JUMP JUMPDEST AND PUSH1 0x0 MSTORE PUSH1 0x0 PUSH1 0x20 MSTORE PUSH1 0x20 PUSH1 0x40 PUSH1 0x0 KECCAK256 SLOAD PUSH1 0x40 MLOAD SWAP1 DUP2 MSTORE RETURN JUMPDEST CALLVALUE PUSH2 0x29F JUMPI PUSH1 0x0 PUSH32 0xFFFFFFFFFFFFFFFFFFFFFFFFFFFFFFFFFFFFFFFFFFFFFFFFFFFFFFFFFFFFFFFC CALLDATASIZE ADD SLT PUSH2 0x29F JUMPI PUSH1 0x20 PUSH1 0xFF PUSH1 0x5 SLOAD AND PUSH1 0x40 MLOAD SWAP1 ISZERO ISZERO DUP2 MSTORE RETURN JUMPDEST CALLVALUE PUSH2 0x29F JUMPI PUSH1 0x20 PUSH32 0xFFFFFFFFFFFFFFFFFFFFFFFFFFFFFFFFFFFFFFFFFFFFFFFFFFFFFFFFFFFFFFFC CALLDATASIZE ADD SLT PUSH2 0x29F JUMPI PUSH1 0x4 CALLDATALOAD PUSH1 0x0 MSTORE PUSH1 0xE PUSH1 0x20 MSTORE PUSH1 0x40 PUSH1 0x0 KECCAK256 DUP1 SLOAD PUSH2 0x386 PUSH1 0x1 DUP4 ADD SLOAD SWAP2 PUSH2 0x1C82 PUSH1 0x2 DUP6 ADD PUSH2 0x2D62 JUMP JUMPDEST SWAP4 PUSH1 0x3 DUP2 ADD SLOAD SWAP2 PUSH2 0x34E PUSH1 0x5 PUSH1 0x4 DUP5 ADD SLOAD SWAP4 ADD PUSH2 0x2D62 JUMP JUMPDEST CALLVALUE PUSH2 0x29F JUMPI PUSH1 0x20 PUSH32 0xFFFFFFFFFFFFFFFFFFFFFFFFFFFFFFFFFFFFFFFFFFFFFFFFFFFFFFFFFFFFFFFC CALLDATASIZE ADD SLT PUSH2 0x29F JUMPI PUSH1 0x4 CALLDATALOAD PUSH1 0x0 MSTORE PUSH1 0xD PUSH1 0x20 MSTORE PUSH1 0x40 PUSH1 0x0 KECCAK256 DUP1 SLOAD PUSH2 0x386 PUSH20 0xFFFFFFFFFFFFFFFFFFFFFFFFFFFFFFFFFFFFFFFF SWAP2 DUP3 PUSH1 0x1 DUP6 ADD SLOAD AND SWAP4 DUP4 PUSH1 0x2 DUP3 ADD SLOAD AND SWAP2 PUSH1 0x3 DUP3 ADD SLOAD SWAP2 PUSH1 0x4 DUP2 ADD SLOAD SWAP1 PUSH1 0xFF PUSH1 0x5 DUP3 ADD SLOAD AND SWAP1 PUSH1 0x7 DUP2 ADD SLOAD SWAP2 PUSH1 0x8 DUP3 ADD SLOAD SWAP4 PUSH1 0x9 DUP4 ADD SLOAD SWAP7 PUSH2 0x1D43 PUSH1 0xA PUSH2 0x1D3C PUSH1 0x6 DUP8 ADD PUSH2 0x2D62 JUMP JUMPDEST SWAP6 ADD PUSH2 0x2D62 JUMP JUMPDEST SWAP9 PUSH1 0x40 MLOAD SWAP13 DUP14 SWAP13 PUSH1 0xFF DUP12 PUSH1 0xA0 SHR AND SWAP11 AND SWAP9 DUP14 PUSH2 0x2E60 JUMP JUMPDEST CALLVALUE PUSH2 0x29F JUMPI PUSH1 0xA0 PUSH32 0xFFFFFFFFFFFFFFFFFFFFFFFFFFFFFFFFFFFFFFFFFFFFFFFFFFFFFFFFFFFFFFFC CALLDATASIZE ADD SLT PUSH2 0x29F JUMPI PUSH2 0x1D91 PUSH2 0x2C22 JUMP JUMPDEST PUSH1 0x24 CALLDATALOAD DUP1 ISZERO ISZERO DUP1 SWAP2 SUB PUSH2 0x29F JUMPI PUSH1 0x44 CALLDATALOAD PUSH1 0x64 CALLDATALOAD SWAP2 PUSH20 0xFFFFFFFFFFFFFFFFFFFFFFFFFFFFFFFFFFFFFFFF PUSH1 0x84 CALLDATALOAD SWAP5 PUSH2 0x1DC6 PUSH2 0x3021 JUMP JUMPDEST AND SWAP4 DUP5 ISZERO PUSH2 0x1E6F JUMPI PUSH32 0x762B38F99548D8913199A63AE95B09259E584B25129CA98EE5317F088D487BF5 SWAP4 PUSH1 0x80 SWAP4 DUP7 PUSH1 0x0 MSTORE PUSH1 0x11 PUSH1 0x20 MSTORE DUP3 PUSH1 0x3 PUSH1 0x40 PUSH1 0x0 KECCAK256 DUP1 SLOAD DUP11 PUSH32 0xFFFFFFFFFFFFFFFFFFFFFF000000000000000000000000000000000000000000 PUSH21 0xFF0000000000000000000000000000000000000000 DUP11 PUSH1 0xA0 SHL AND SWAP3 AND OR OR DUP2 SSTORE DUP4 PUSH1 0x1 DUP3 ADD SSTORE DUP5 PUSH1 0x2 DUP3 ADD SSTORE ADD SSTORE PUSH1 0x40 MLOAD SWAP4 DUP5 MSTORE PUSH1 0x20 DUP5 ADD MSTORE PUSH1 0x40 DUP4 ADD MSTORE PUSH1 0x60 DUP3 ADD MSTORE LOG2 STOP JUMPDEST PUSH1 0x64 PUSH1 0x40 MLOAD PUSH32 0x8C379A000000000000000000000000000000000000000000000000000000000 DUP2 MSTORE PUSH1 0x20 PUSH1 0x4 DUP3 ADD MSTORE PUSH1 0x16 PUSH1 0x24 DUP3 ADD MSTORE PUSH32 0x496E76616C696420627269646765206164647265737300000000000000000000 PUSH1 0x44 DUP3 ADD MSTORE REVERT JUMPDEST CALLVALUE PUSH2 0x29F JUMPI PUSH1 0x0 PUSH32 0xFFFFFFFFFFFFFFFFFFFFFFFFFFFFFFFFFFFFFFFFFFFFFFFFFFFFFFFFFFFFFFFC CALLDATASIZE ADD SLT PUSH2 0x29F JUMPI PUSH2 0x1F04 PUSH2 0x307D JUMP JUMPDEST PUSH1 0x5 SLOAD PUSH1 0xFF DUP2 AND ISZERO PUSH2 0x1F61 JUMPI PUSH32 0xFFFFFFFFFFFFFFFFFFFFFFFFFFFFFFFFFFFFFFFFFFFFFFFFFFFFFFFFFFFFFF00 AND PUSH1 0x5 SSTORE PUSH32 0x5DB9EE0A495BF2E6FF9C91A7834C1BA4FDD244A5E8AA4E537BD38AEAE4B073AA PUSH1 0x20 PUSH1 0x40 MLOAD CALLER DUP2 MSTORE LOG1 STOP JUMPDEST PUSH1 0x4 PUSH1 0x40 MLOAD PUSH32 0x8DFC202B00000000000000000000000000000000000000000000000000000000 DUP2 MSTORE REVERT JUMPDEST CALLVALUE PUSH2 0x29F JUMPI PUSH1 0x0 PUSH32 0xFFFFFFFFFFFFFFFFFFFFFFFFFFFFFFFFFFFFFFFFFFFFFFFFFFFFFFFFFFFFFFFC CALLDATASIZE ADD SLT PUSH2 0x29F JUMPI PUSH1 0x20 PUSH1 0x40 MLOAD PUSH3 0x93A80 DUP2 MSTORE RETURN JUMPDEST CALLVALUE PUSH2 0x29F JUMPI PUSH1 0x40 PUSH32 0xFFFFFFFFFFFFFFFFFFFFFFFFFFFFFFFFFFFFFFFFFFFFFFFFFFFFFFFFFFFFFFFC CALLDATASIZE ADD SLT PUSH2 0x29F JUMPI PUSH2 0x1FFE PUSH2 0x2C45 JUMP JUMPDEST CALLER PUSH20 0xFFFFFFFFFFFFFFFFFFFFFFFFFFFFFFFFFFFFFFFF DUP3 AND SUB PUSH2 0x2027 JUMPI PUSH2 0x1B SWAP1 PUSH1 0x4 CALLDATALOAD PUSH2 0x3241 JUMP JUMPDEST PUSH1 0x4 PUSH1 0x40 MLOAD PUSH32 0x6697B23200000000000000000000000000000000000000000000000000000000 DUP2 MSTORE REVERT JUMPDEST CALLVALUE PUSH2 0x29F JUMPI PUSH1 0x0 PUSH32 0xFFFFFFFFFFFFFFFFFFFFFFFFFFFFFFFFFFFFFFFFFFFFFFFFFFFFFFFFFFFFFFFC CALLDATASIZE ADD SLT PUSH2 0x29F JUMPI PUSH1 0x20 PUSH1 0x40 MLOAD PUSH1 0x12 DUP2 MSTORE RETURN JUMPDEST CALLVALUE PUSH2 0x29F JUMPI PUSH1 0x40 PUSH32 0xFFFFFFFFFFFFFFFFFFFFFFFFFFFFFFFFFFFFFFFFFFFFFFFFFFFFFFFFFFFFFFFC CALLDATASIZE ADD SLT PUSH2 0x29F JUMPI PUSH2 0x1B PUSH1 0x4 CALLDATALOAD PUSH2 0x20C8 PUSH2 0x2C45 JUMP JUMPDEST SWAP1 DUP1 PUSH1 0x0 MSTORE PUSH1 0x6 PUSH1 0x20 MSTORE PUSH2 0x20E3 PUSH1 0x1 PUSH1 0x40 PUSH1 0x0 KECCAK256 ADD SLOAD PUSH2 0x316F JUMP JUMPDEST PUSH2 0x3195 JUMP JUMPDEST CALLVALUE PUSH2 0x29F JUMPI PUSH1 0x60 PUSH32 0xFFFFFFFFFFFFFFFFFFFFFFFFFFFFFFFFFFFFFFFFFFFFFFFFFFFFFFFFFFFFFFFC CALLDATASIZE ADD SLT PUSH2 0x29F JUMPI PUSH1 0x4 CALLDATALOAD PUSH8 0xFFFFFFFFFFFFFFFF PUSH1 0x24 CALLDATALOAD DUP2 DUP2 GT PUSH2 0x29F JUMPI PUSH2 0x213B SWAP1 CALLDATASIZE SWAP1 PUSH1 0x4 ADD PUSH2 0x2EF8 JUMP JUMPDEST SWAP2 PUSH1 0x44 CALLDATALOAD SWAP3 DUP4 ISZERO ISZERO DUP5 SUB PUSH2 0x29F JUMPI CALLER PUSH1 0x0 SWAP1 DUP2 MSTORE PUSH32 0xC05ECB62B3DA283F41A58BFABB0641C07F50E632BC46342D8A4C0CC10B5006FF PUSH1 0x20 SWAP1 DUP2 MSTORE PUSH1 0x40 SWAP1 SWAP2 KECCAK256 SLOAD SWAP1 SWAP5 SWAP1 PUSH32 0x7B8BB8356A3F32F5C111FF23F050D97F08988E0883529EA7BFF3B918887A6E0E SWAP1 PUSH1 0xFF AND ISZERO PUSH2 0x2550 JUMPI POP PUSH2 0x21B1 PUSH2 0x3462 JUMP JUMPDEST DUP3 PUSH1 0x0 MSTORE PUSH1 0xD DUP6 MSTORE PUSH1 0x40 PUSH1 0x0 KECCAK256 PUSH1 0xE DUP7 MSTORE PUSH1 0x40 PUSH1 0x0 KECCAK256 SWAP1 PUSH2 0x21D4 DUP2 SLOAD ISZERO ISZERO PUSH2 0x3498 JUMP JUMPDEST PUSH1 0x5 DUP2 ADD SWAP3 PUSH1 0x2 PUSH1 0xFF DUP6 SLOAD AND PUSH2 0x21E9 DUP2 PUSH2 0x2E27 JUMP JUMPDEST SUB PUSH2 0x24F2 JUMPI PUSH1 0x4 DUP4 ADD SWAP3 DUP4 SLOAD SWAP4 PUSH1 0xFF DUP6 AND PUSH2 0x2494 JUMPI SWAP1 PUSH1 0x5 SWAP2 PUSH1 0x1 DUP1 SWAP7 PUSH32 0xFFFFFFFFFFFFFFFFFFFFFF000000000000000000000000000000000000000000 PUSH21 0xFFFFFFFFFFFFFFFFFFFFFFFFFFFFFFFFFFFFFFFF00 CALLER PUSH1 0x8 SHL AND SWAP2 AND OR OR SWAP1 SSTORE ADD DUP6 MLOAD SWAP8 DUP9 GT PUSH2 0x7D3 JUMPI PUSH2 0x225C DUP2 SLOAD PUSH2 0x2CCE JUMP JUMPDEST PUSH1 0x1F DUP2 GT PUSH2 0x244B JUMPI JUMPDEST POP DUP9 PUSH1 0x1F DUP10 GT PUSH1 0x1 EQ PUSH2 0x238C JUMPI SWAP8 DUP1 PUSH32 0xAF22C8B9970A1E934469D4910BA635081D805CF60A06F96C00D501BD87379663 SWAP9 SWAP10 PUSH1 0x0 SWAP2 PUSH2 0x2381 JUMPI JUMPDEST POP PUSH32 0xFFFFFFFFFFFFFFFFFFFFFFFFFFFFFFFFFFFFFFFFFFFFFFFFFFFFFFFFFFFFFFFF DUP3 DUP8 SHL SWAP3 PUSH1 0x3 SHL SHR NOT AND OR SWAP1 SSTORE JUMPDEST ISZERO PUSH2 0x2351 JUMPI DUP3 PUSH1 0x3 PUSH32 0xFFFFFFFFFFFFFFFFFFFFFFFFFFFFFFFFFFFFFFFFFFFFFFFFFFFFFFFFFFFFFF00 PUSH2 0x232E SWAP6 SLOAD AND OR SWAP1 SSTORE PUSH1 0x3 PUSH20 0xFFFFFFFFFFFFFFFFFFFFFFFFFFFFFFFFFFFFFFFF DUP1 SWAP4 DUP4 ADD SLOAD AND SWAP3 PUSH1 0x2 DUP4 ADD SLOAD AND SWAP2 ADD SLOAD SWAP2 PUSH2 0x32E4 JUMP JUMPDEST PUSH2 0x2343 PUSH1 0x40 MLOAD SWAP2 PUSH1 0x40 DUP4 MSTORE PUSH1 0x40 DUP4 ADD SWAP1 PUSH2 0x2C8B JUMP JUMPDEST SWAP4 TIMESTAMP SWAP1 DUP3 ADD MSTORE DUP1 CALLER SWAP5 SUB SWAP1 LOG3 STOP JUMPDEST POP POP PUSH1 0x4 PUSH32 0xFFFFFFFFFFFFFFFFFFFFFFFFFFFFFFFFFFFFFFFFFFFFFFFFFFFFFFFFFFFFFF00 DUP3 SLOAD AND OR SWAP1 SSTORE PUSH2 0x232E JUMP JUMPDEST SWAP1 POP DUP8 ADD MLOAD DUP12 PUSH2 0x229F JUMP JUMPDEST PUSH32 0xFFFFFFFFFFFFFFFFFFFFFFFFFFFFFFFFFFFFFFFFFFFFFFFFFFFFFFFFFFFFFFE0 DUP10 AND SWAP1 DUP3 PUSH1 0x0 MSTORE DUP11 PUSH1 0x0 KECCAK256 SWAP2 PUSH1 0x0 JUMPDEST DUP13 DUP3 DUP3 LT PUSH2 0x2437 JUMPI POP POP SWAP2 DUP11 SWAP2 PUSH32 0xAF22C8B9970A1E934469D4910BA635081D805CF60A06F96C00D501BD87379663 SWAP11 SWAP12 DUP9 SWAP5 LT PUSH2 0x2400 JUMPI JUMPDEST POP POP DUP2 SHL ADD SWAP1 SSTORE PUSH2 0x22CF JUMP JUMPDEST DUP10 ADD MLOAD PUSH32 0xFFFFFFFFFFFFFFFFFFFFFFFFFFFFFFFFFFFFFFFFFFFFFFFFFFFFFFFFFFFFFFFF PUSH1 0xF8 DUP5 PUSH1 0x3 SHL AND SHR NOT AND SWAP1 SSTORE DUP12 DUP1 PUSH2 0x23F4 JUMP JUMPDEST DUP11 DUP5 ADD MLOAD DUP6 SSTORE SWAP4 DUP9 ADD SWAP4 SWAP3 DUP4 ADD SWAP3 ADD PUSH2 0x23BC JUMP JUMPDEST DUP2 PUSH1 0x0 MSTORE DUP10 PUSH1 0x0 KECCAK256 PUSH1 0x1F DUP11 ADD PUSH1 0x5 SHR DUP2 ADD SWAP2 DUP12 DUP12 LT PUSH2 0x248A JUMPI JUMPDEST PUSH1 0x1F ADD PUSH1 0x5 SHR ADD SWAP1 DUP6 SWAP1 JUMPDEST DUP3 DUP2 LT PUSH2 0x247E JUMPI POP POP PUSH2 0x2265 JUMP JUMPDEST PUSH1 0x0 DUP2 SSTORE ADD DUP6 SWAP1 PUSH2 0x2470 JUMP JUMPDEST SWAP1 SWAP2 POP DUP2 SWAP1 PUSH2 0x2465 JUMP JUMPDEST PUSH1 0x64 DUP11 PUSH1 0x40 MLOAD SWAP1 PUSH32 0x8C379A000000000000000000000000000000000000000000000000000000000 DUP3 MSTORE PUSH1 0x4 DUP3 ADD MSTORE PUSH1 0x18 PUSH1 0x24 DUP3 ADD MSTORE PUSH32 0x4469737075746520616C7265616479207265736F6C7665640000000000000000 PUSH1 0x44 DUP3 ADD MSTORE REVERT JUMPDEST PUSH1 0x64 DUP9 PUSH1 0x40 MLOAD SWAP1 PUSH32 0x8C379A000000000000000000000000000000000000000000000000000000000 DUP3 MSTORE PUSH1 0x4 DUP3 ADD MSTORE PUSH1 0x17 PUSH1 0x24 DUP3 ADD MSTORE PUSH32 0x536574746C656D656E74206E6F74206469737075746564000000000000000000 PUSH1 0x44 DUP3 ADD MSTORE REVERT JUMPDEST PUSH1 0x44 SWAP1 PUSH1 0x40 MLOAD SWAP1 PUSH32 0xE2517D3F00000000000000000000000000000000000000000000000000000000 DUP3 MSTORE CALLER PUSH1 0x4 DUP4 ADD MSTORE PUSH1 0x24 DUP3 ADD MSTORE REVERT JUMPDEST CALLVALUE PUSH2 0x29F JUMPI PUSH1 0x20 PUSH32 0xFFFFFFFFFFFFFFFFFFFFFFFFFFFFFFFFFFFFFFFFFFFFFFFFFFFFFFFFFFFFFFFC CALLDATASIZE ADD SLT PUSH2 0x29F JUMPI PUSH1 0x4 CALLDATALOAD PUSH1 0x0 MSTORE PUSH1 0x6 PUSH1 0x20 MSTORE PUSH1 0x20 PUSH1 0x1 PUSH1 0x40 PUSH1 0x0 KECCAK256 ADD SLOAD PUSH1 0x40 MLOAD SWAP1 DUP2 MSTORE RETURN JUMPDEST CALLVALUE PUSH2 0x29F JUMPI PUSH1 0x60 PUSH32 0xFFFFFFFFFFFFFFFFFFFFFFFFFFFFFFFFFFFFFFFFFFFFFFFFFFFFFFFFFFFFFFFC CALLDATASIZE ADD SLT PUSH2 0x29F JUMPI PUSH2 0x260B PUSH2 0x2C22 JUMP JUMPDEST PUSH2 0x2613 PUSH2 0x2C45 JUMP JUMPDEST PUSH1 0x44 CALLDATALOAD SWAP1 PUSH20 0xFFFFFFFFFFFFFFFFFFFFFFFFFFFFFFFFFFFFFFFF DUP4 AND SWAP3 DUP4 PUSH1 0x0 MSTORE PUSH1 0x1 PUSH1 0x20 MSTORE PUSH1 0x40 PUSH1 0x0 KECCAK256 CALLER PUSH1 0x0 MSTORE PUSH1 0x20 MSTORE PUSH1 0x40 PUSH1 0x0 KECCAK256 SLOAD SWAP4 PUSH32 0xFFFFFFFFFFFFFFFFFFFFFFFFFFFFFFFFFFFFFFFFFFFFFFFFFFFFFFFFFFFFFFFF DUP6 LT PUSH2 0x267E JUMPI JUMPDEST POP PUSH2 0x1475 SWAP4 POP PUSH2 0x32E4 JUMP JUMPDEST DUP4 DUP6 LT PUSH2 0x271A JUMPI DUP1 ISZERO PUSH2 0x26E9 JUMPI CALLER ISZERO PUSH2 0x26B8 JUMPI PUSH2 0x1475 SWAP5 DUP5 SWAP2 PUSH1 0x0 MSTORE PUSH1 0x1 PUSH1 0x20 MSTORE PUSH1 0x40 PUSH1 0x0 KECCAK256 CALLER PUSH1 0x0 MSTORE PUSH1 0x20 MSTORE SUB PUSH1 0x40 PUSH1 0x0 KECCAK256 SSTORE DUP5 PUSH2 0x2673 JUMP JUMPDEST PUSH1 0x24 PUSH1 0x40 MLOAD PUSH32 0x94280D6200000000000000000000000000000000000000000000000000000000 DUP2 MSTORE PUSH1 0x0 PUSH1 0x4 DUP3 ADD MSTORE REVERT JUMPDEST PUSH1 0x24 PUSH1 0x40 MLOAD PUSH32 0xE602DF0500000000000000000000000000000000000000000000000000000000 DUP2 MSTORE PUSH1 0x0 PUSH1 0x4 DUP3 ADD MSTORE REVERT JUMPDEST PUSH1 0x40 MLOAD PUSH32 0xFB8F41B200000000000000000000000000000000000000000000000000000000 DUP2 MSTORE CALLER PUSH1 0x4 DUP3 ADD MSTORE PUSH1 0x24 DUP2 ADD DUP7 SWAP1 MSTORE PUSH1 0x44 DUP2 ADD DUP6 SWAP1 MSTORE PUSH1 0x64 SWAP1 REVERT JUMPDEST CALLVALUE PUSH2 0x29F JUMPI PUSH1 0x0 PUSH32 0xFFFFFFFFFFFFFFFFFFFFFFFFFFFFFFFFFFFFFFFFFFFFFFFFFFFFFFFFFFFFFFFC CALLDATASIZE ADD SLT PUSH2 0x29F JUMPI PUSH1 0x20 PUSH1 0x40 MLOAD PUSH32 0xBF233DD2AAFEB4D50879C4AA5C81E96D92F6E6945C906A58F9F2D1C1631B4B26 DUP2 MSTORE RETURN JUMPDEST CALLVALUE PUSH2 0x29F JUMPI PUSH1 0x0 PUSH32 0xFFFFFFFFFFFFFFFFFFFFFFFFFFFFFFFFFFFFFFFFFFFFFFFFFFFFFFFFFFFFFFFC CALLDATASIZE ADD SLT PUSH2 0x29F JUMPI PUSH1 0x20 PUSH1 0x2 SLOAD PUSH1 0x40 MLOAD SWAP1 DUP2 MSTORE RETURN JUMPDEST CALLVALUE PUSH2 0x29F JUMPI PUSH1 0x40 PUSH32 0xFFFFFFFFFFFFFFFFFFFFFFFFFFFFFFFFFFFFFFFFFFFFFFFFFFFFFFFFFFFFFFFC CALLDATASIZE ADD SLT PUSH2 0x29F JUMPI PUSH2 0x2825 PUSH2 0x2C22 JUMP JUMPDEST PUSH1 0x24 CALLDATALOAD SWAP1 CALLER ISZERO PUSH2 0x26E9 JUMPI PUSH20 0xFFFFFFFFFFFFFFFFFFFFFFFFFFFFFFFFFFFFFFFF AND SWAP1 DUP2 ISZERO PUSH2 0x26B8 JUMPI CALLER PUSH1 0x0 MSTORE PUSH1 0x1 PUSH1 0x20 MSTORE PUSH1 0x40 PUSH1 0x0 KECCAK256 DUP3 PUSH1 0x0 MSTORE PUSH1 0x20 MSTORE DUP1 PUSH1 0x40 PUSH1 0x0 KECCAK256 SSTORE PUSH1 0x40 MLOAD SWAP1 DUP2 MSTORE PUSH32 0x8C5BE1E5EBEC7D5BD14F71427D1E84F3DD0314C0F7B2291E5B200AC8C7C3B925 PUSH1 0x20 CALLER SWAP3 LOG3 PUSH1 0x20 PUSH1 0x40 MLOAD PUSH1 0x1 DUP2 MSTORE RETURN JUMPDEST CALLVALUE PUSH2 0x29F JUMPI PUSH1 0x20 PUSH32 0xFFFFFFFFFFFFFFFFFFFFFFFFFFFFFFFFFFFFFFFFFFFFFFFFFFFFFFFFFFFFFFFC CALLDATASIZE ADD SLT PUSH2 0x29F JUMPI PUSH1 0x4 CALLDATALOAD PUSH1 0x0 MSTORE PUSH1 0xD PUSH1 0x20 MSTORE PUSH1 0x40 PUSH1 0x0 KECCAK256 DUP1 SLOAD PUSH2 0x386 PUSH20 0xFFFFFFFFFFFFFFFFFFFFFFFFFFFFFFFFFFFFFFFF SWAP2 DUP3 PUSH1 0x1 DUP6 ADD SLOAD AND SWAP4 DUP4 PUSH1 0x2 DUP3 ADD SLOAD AND SWAP2 PUSH1 0x3 DUP3 ADD SLOAD PUSH1 0x4 DUP4 ADD SLOAD PUSH1 0xFF PUSH1 0x5 DUP6 ADD SLOAD AND PUSH2 0x2927 PUSH1 0x6 DUP7 ADD PUSH2 0x2D62 JUMP JUMPDEST SWAP1 PUSH1 0x7 DUP7 ADD SLOAD SWAP3 PUSH1 0x8 DUP8 ADD SLOAD SWAP5 PUSH2 0x1D43 PUSH1 0xA PUSH1 0x9 DUP11 ADD SLOAD SWAP10 ADD PUSH2 0x2D62 JUMP JUMPDEST CALLVALUE PUSH2 0x29F JUMPI PUSH1 0x0 PUSH32 0xFFFFFFFFFFFFFFFFFFFFFFFFFFFFFFFFFFFFFFFFFFFFFFFFFFFFFFFFFFFFFFFC CALLDATASIZE ADD SLT PUSH2 0x29F JUMPI PUSH1 0x40 MLOAD PUSH1 0x0 PUSH1 0x3 SLOAD PUSH2 0x2985 DUP2 PUSH2 0x2CCE JUMP JUMPDEST DUP1 DUP5 MSTORE SWAP1 PUSH1 0x1 SWAP1 DUP2 DUP2 AND SWAP1 DUP2 ISZERO PUSH2 0x170F JUMPI POP PUSH1 0x1 EQ PUSH2 0x29AE JUMPI PUSH2 0x386 DUP5 PUSH2 0x16A0 DUP2 DUP7 SUB DUP3 PUSH2 0x2D21 JUMP JUMPDEST PUSH1 0x3 PUSH1 0x0 SWAP1 DUP2 MSTORE SWAP3 POP PUSH32 0xC2575A0E9E593C00F959F8C92F12DB2869C3395A3B0502D05E2516446F71F85B JUMPDEST DUP3 DUP5 LT PUSH2 0x29F1 JUMPI POP POP POP DUP2 ADD PUSH1 0x20 ADD PUSH2 0x16A0 DUP3 PUSH2 0x1690 JUMP JUMPDEST DUP1 SLOAD PUSH1 0x20 DUP6 DUP8 ADD DUP2 ADD SWAP2 SWAP1 SWAP2 MSTORE SWAP1 SWAP4 ADD SWAP3 DUP2 ADD PUSH2 0x29D9 JUMP JUMPDEST CALLVALUE PUSH2 0x29F JUMPI PUSH1 0x80 PUSH32 0xFFFFFFFFFFFFFFFFFFFFFFFFFFFFFFFFFFFFFFFFFFFFFFFFFFFFFFFFFFFFFFFC CALLDATASIZE ADD SLT PUSH2 0x29F JUMPI PUSH2 0x2A40 PUSH2 0x2C22 JUMP JUMPDEST PUSH2 0x2A48 PUSH2 0x2C45 JUMP JUMPDEST PUSH1 0x44 CALLDATALOAD SWAP1 PUSH1 0x64 CALLDATALOAD PUSH20 0xFFFFFFFFFFFFFFFFFFFFFFFFFFFFFFFFFFFFFFFF DUP2 AND DUP1 SWAP2 SUB PUSH2 0x29F JUMPI PUSH2 0x2A75 PUSH2 0x3021 JUMP JUMPDEST PUSH2 0x2A7D PUSH2 0x3462 JUMP JUMPDEST PUSH1 0x0 MSTORE PUSH1 0x11 PUSH1 0x20 MSTORE PUSH1 0x40 PUSH1 0x0 KECCAK256 PUSH1 0xFF DUP2 SLOAD PUSH1 0xA0 SHR AND ISZERO PUSH2 0x2B08 JUMPI PUSH1 0x2 ADD SLOAD DUP3 GT PUSH2 0x2AAA JUMPI PUSH2 0x1B SWAP3 PUSH2 0x32E4 JUMP JUMPDEST PUSH1 0x64 PUSH1 0x40 MLOAD PUSH32 0x8C379A000000000000000000000000000000000000000000000000000000000 DUP2 MSTORE PUSH1 0x20 PUSH1 0x4 DUP3 ADD MSTORE PUSH1 0x1B PUSH1 0x24 DUP3 ADD MSTORE PUSH32 0x416D6F756E74206578636565647320627269646765206C696D69740000000000 PUSH1 0x44 DUP3 ADD MSTORE REVERT JUMPDEST PUSH1 0x64 PUSH1 0x40 MLOAD PUSH32 0x8C379A000000000000000000000000000000000000000000000000000000000 DUP2 MSTORE PUSH1 0x20 PUSH1 0x4 DUP3 ADD MSTORE PUSH1 0x11 PUSH1 0x24 DUP3 ADD MSTORE PUSH32 0x427269646765206E6F7420616374697665000000000000000000000000000000 PUSH1 0x44 DUP3 ADD MSTORE REVERT JUMPDEST CALLVALUE PUSH2 0x29F JUMPI PUSH1 0x20 PUSH32 0xFFFFFFFFFFFFFFFFFFFFFFFFFFFFFFFFFFFFFFFFFFFFFFFFFFFFFFFFFFFFFFFC CALLDATASIZE ADD SLT PUSH2 0x29F JUMPI PUSH1 0x4 CALLDATALOAD SWAP1 PUSH32 0xFFFFFFFF00000000000000000000000000000000000000000000000000000000 DUP3 AND DUP1 SWAP3 SUB PUSH2 0x29F JUMPI DUP2 PUSH32 0x7965DB0B00000000000000000000000000000000000000000000000000000000 PUSH1 0x20 SWAP4 EQ SWAP1 DUP2 ISZERO PUSH2 0x2BF8 JUMPI JUMPDEST POP ISZERO ISZERO DUP2 MSTORE RETURN JUMPDEST PUSH32 0x1FFC9A700000000000000000000000000000000000000000000000000000000 SWAP2 POP EQ DUP4 PUSH2 0x2BF1 JUMP JUMPDEST PUSH1 0x4 CALLDATALOAD SWAP1 PUSH20 0xFFFFFFFFFFFFFFFFFFFFFFFFFFFFFFFFFFFFFFFF DUP3 AND DUP3 SUB PUSH2 0x29F JUMPI JUMP JUMPDEST PUSH1 0x24 CALLDATALOAD SWAP1 PUSH20 0xFFFFFFFFFFFFFFFFFFFFFFFFFFFFFFFFFFFFFFFF DUP3 AND DUP3 SUB PUSH2 0x29F JUMPI JUMP JUMPDEST PUSH1 0x0 JUMPDEST DUP4 DUP2 LT PUSH2 0x2C7B JUMPI POP POP PUSH1 0x0 SWAP2 ADD MSTORE JUMP JUMPDEST DUP2 DUP2 ADD MLOAD DUP4 DUP3 ADD MSTORE PUSH1 0x20 ADD PUSH2 0x2C6B JUMP JUMPDEST SWAP1 PUSH32 0xFFFFFFFFFFFFFFFFFFFFFFFFFFFFFFFFFFFFFFFFFFFFFFFFFFFFFFFFFFFFFFE0 PUSH1 0x1F PUSH1 0x20 SWAP4 PUSH2 0x2CC7 DUP2 MLOAD DUP1 SWAP3 DUP2 DUP8 MSTORE DUP8 DUP1 DUP9 ADD SWAP2 ADD PUSH2 0x2C68 JUMP JUMPDEST ADD AND ADD ADD SWAP1 JUMP JUMPDEST SWAP1 PUSH1 0x1 DUP3 DUP2 SHR SWAP3 AND DUP1 ISZERO PUSH2 0x2D17 JUMPI JUMPDEST PUSH1 0x20 DUP4 LT EQ PUSH2 0x2CE8 JUMPI JUMP JUMPDEST PUSH32 0x4E487B7100000000000000000000000000000000000000000000000000000000 PUSH1 0x0 MSTORE PUSH1 0x22 PUSH1 0x4 MSTORE PUSH1 0x24 PUSH1 0x0 REVERT JUMPDEST SWAP2 PUSH1 0x7F AND SWAP2 PUSH2 0x2CDD JUMP JUMPDEST SWAP1 PUSH1 0x1F PUSH32 0xFFFFFFFFFFFFFFFFFFFFFFFFFFFFFFFFFFFFFFFFFFFFFFFFFFFFFFFFFFFFFFE0 SWAP2 ADD AND DUP2 ADD SWAP1 DUP2 LT PUSH8 0xFFFFFFFFFFFFFFFF DUP3 GT OR PUSH2 0x7D3 JUMPI PUSH1 0x40 MSTORE JUMP JUMPDEST SWAP1 PUSH1 0x40 MLOAD SWAP2 DUP3 PUSH1 0x0 DUP3 SLOAD SWAP3 PUSH2 0x2D76 DUP5 PUSH2 0x2CCE JUMP JUMPDEST SWAP1 DUP2 DUP5 MSTORE PUSH1 0x1 SWAP5 DUP6 DUP2 AND SWAP1 DUP2 PUSH1 0x0 EQ PUSH2 0x2DE5 JUMPI POP PUSH1 0x1 EQ PUSH2 0x2DA2 JUMPI JUMPDEST POP POP PUSH2 0x2DA0 SWAP3 POP SUB DUP4 PUSH2 0x2D21 JUMP JUMPDEST JUMP JUMPDEST SWAP1 SWAP4 SWAP2 POP PUSH1 0x0 MSTORE PUSH1 0x20 SWAP1 DUP2 PUSH1 0x0 KECCAK256 SWAP4 PUSH1 0x0 SWAP2 JUMPDEST DUP2 DUP4 LT PUSH2 0x2DCD JUMPI POP POP PUSH2 0x2DA0 SWAP4 POP DUP3 ADD ADD CODESIZE DUP1 PUSH2 0x2D92 JUMP JUMPDEST DUP6 SLOAD DUP9 DUP5 ADD DUP6 ADD MSTORE SWAP5 DUP6 ADD SWAP5 DUP8 SWAP5 POP SWAP2 DUP4 ADD SWAP2 PUSH2 0x2DB5 JUMP JUMPDEST SWAP1 POP PUSH2 0x2DA0 SWAP6 POP PUSH1 0x20 SWAP4 POP PUSH32 0xFFFFFFFFFFFFFFFFFFFFFFFFFFFFFFFFFFFFFFFFFFFFFFFFFFFFFFFFFFFFFF00 SWAP2 POP AND DUP3 DUP5 ADD MSTORE ISZERO ISZERO PUSH1 0x5 SHL DUP3 ADD ADD CODESIZE DUP1 PUSH2 0x2D92 JUMP JUMPDEST PUSH1 0x5 GT ISZERO PUSH2 0x2E31 JUMPI JUMP JUMPDEST PUSH32 0x4E487B7100000000000000000000000000000000000000000000000000000000 PUSH1 0x0 MSTORE PUSH1 0x21 PUSH1 0x4 MSTORE PUSH1 0x24 PUSH1 0x0 REVERT JUMPDEST SWAP9 SWAP5 SWAP1 SWAP4 PUSH2 0x2EF5 SWAP13 SWAP11 SWAP7 SWAP3 PUSH2 0x2EC5 SWAP6 SWAP13 SWAP10 SWAP13 SWAP9 SWAP5 SWAP9 DUP12 MSTORE PUSH20 0xFFFFFFFFFFFFFFFFFFFFFFFFFFFFFFFFFFFFFFFF SWAP9 DUP10 DUP1 SWAP3 AND PUSH1 0x20 DUP14 ADD MSTORE AND PUSH1 0x40 DUP12 ADD MSTORE PUSH1 0x60 DUP11 ADD MSTORE PUSH1 0x80 DUP10 ADD MSTORE PUSH2 0x2EAF DUP2 PUSH2 0x2E27 JUMP JUMPDEST PUSH1 0xA0 DUP9 ADD MSTORE PUSH2 0x180 DUP1 PUSH1 0xC0 DUP10 ADD MSTORE DUP8 ADD SWAP1 PUSH2 0x2C8B JUMP JUMPDEST SWAP7 PUSH1 0xE0 DUP7 ADD MSTORE PUSH2 0x100 DUP6 ADD MSTORE AND PUSH2 0x120 DUP4 ADD MSTORE PUSH2 0x2EE1 DUP2 PUSH2 0x2E27 JUMP JUMPDEST PUSH2 0x140 DUP3 ADD MSTORE PUSH2 0x160 DUP2 DUP5 SUB SWAP2 ADD MSTORE PUSH2 0x2C8B JUMP JUMPDEST SWAP1 JUMP JUMPDEST DUP2 PUSH1 0x1F DUP3 ADD SLT ISZERO PUSH2 0x29F JUMPI DUP1 CALLDATALOAD SWAP1 PUSH8 0xFFFFFFFFFFFFFFFF DUP3 GT PUSH2 0x7D3 JUMPI PUSH1 0x40 MLOAD SWAP3 PUSH2 0x2F4B PUSH1 0x20 PUSH32 0xFFFFFFFFFFFFFFFFFFFFFFFFFFFFFFFFFFFFFFFFFFFFFFFFFFFFFFFFFFFFFFE0 PUSH1 0x1F DUP7 ADD AND ADD DUP6 PUSH2 0x2D21 JUMP JUMPDEST DUP3 DUP5 MSTORE PUSH1 0x20 DUP4 DUP4 ADD ADD GT PUSH2 0x29F JUMPI DUP2 PUSH1 0x0 SWAP3 PUSH1 0x20 DUP1 SWAP4 ADD DUP4 DUP7 ADD CALLDATACOPY DUP4 ADD ADD MSTORE SWAP1 JUMP JUMPDEST SWAP5 SWAP7 SWAP3 SWAP4 PUSH2 0x2EF5 SWAP9 SWAP7 SWAP3 SWAP5 PUSH2 0x2FBA SWAP3 DUP8 MSTORE PUSH20 0xFFFFFFFFFFFFFFFFFFFFFFFFFFFFFFFFFFFFFFFF DUP1 SWAP7 AND PUSH1 0x20 DUP9 ADD MSTORE PUSH2 0x2FA4 DUP2 PUSH2 0x2E27 JUMP JUMPDEST PUSH1 0x40 DUP8 ADD MSTORE PUSH2 0x100 DUP1 PUSH1 0x60 DUP9 ADD MSTORE DUP7 ADD SWAP1 PUSH2 0x2C8B JUMP JUMPDEST SWAP6 PUSH1 0x80 DUP6 ADD MSTORE ISZERO ISZERO PUSH1 0xA0 DUP5 ADD MSTORE AND PUSH1 0xC0 DUP3 ADD MSTORE PUSH1 0xE0 DUP2 DUP5 SUB SWAP2 ADD MSTORE PUSH2 0x2C8B JUMP JUMPDEST DUP1 SLOAD DUP3 LT ISZERO PUSH2 0x2FF2 JUMPI PUSH1 0x0 MSTORE PUSH1 0x20 PUSH1 0x0 KECCAK256 ADD SWAP1 PUSH1 0x0 SWAP1 JUMP JUMPDEST PUSH32 0x4E487B7100000000000000000000000000000000000000000000000000000000 PUSH1 0x0 MSTORE PUSH1 0x32 PUSH1 0x4 MSTORE PUSH1 0x24 PUSH1 0x0 REVERT JUMPDEST CALLER PUSH1 0x0 SWAP1 DUP2 MSTORE PUSH32 0x866532DF3C7B8A8304A854A94071EFE99D9F2C853D9869138B5FBC8A8598B937 PUSH1 0x20 MSTORE PUSH1 0x40 SWAP1 KECCAK256 SLOAD PUSH32 0x52BA824BFABC2BCFCDF7F0EDBB486EBB05E1836C90E78047EFEB949990F72E5F SWAP1 PUSH1 0xFF AND ISZERO PUSH2 0x2550 JUMPI POP JUMP JUMPDEST CALLER PUSH1 0x0 SWAP1 DUP2 MSTORE PUSH32 0x7ACA5D7F7C0D5C6C775E2A7E40239A4D6963361B3DF3B07DF46432786460EB57 PUSH1 0x20 MSTORE PUSH1 0x40 SWAP1 KECCAK256 SLOAD PUSH32 0xBF233DD2AAFEB4D50879C4AA5C81E96D92F6E6945C906A58F9F2D1C1631B4B26 SWAP1 PUSH1 0xFF AND ISZERO PUSH2 0x2550 JUMPI POP JUMP JUMPDEST CALLER PUSH1 0x0 SWAP1 DUP2 MSTORE PUSH32 0x54CDD369E4E8A8515E52CA72EC816C2101831AD1F18BF44102ED171459C9B4F8 PUSH1 0x20 MSTORE PUSH1 0x40 DUP2 KECCAK256 SLOAD PUSH1 0xFF AND ISZERO PUSH2 0x2550 JUMPI POP JUMP JUMPDEST CALLER PUSH1 0x0 SWAP1 DUP2 MSTORE PUSH32 0x44017833178CB959064128715F4ACE9A64BBFC45712D4670FCACE3E0C4A1693B PUSH1 0x20 MSTORE PUSH1 0x40 SWAP1 KECCAK256 SLOAD PUSH32 0x300F9AE985DC711960F7A4D1DD013F9C19ECF40BFF149522AB7523B2187A3846 SWAP1 PUSH1 0xFF AND ISZERO PUSH2 0x2550 JUMPI POP JUMP JUMPDEST DUP1 PUSH1 0x0 MSTORE PUSH1 0x6 PUSH1 0x20 MSTORE PUSH1 0x40 PUSH1 0x0 KECCAK256 CALLER PUSH1 0x0 MSTORE PUSH1 0x20 MSTORE PUSH1 0xFF PUSH1 0x40 PUSH1 0x0 KECCAK256 SLOAD AND ISZERO PUSH2 0x2550 JUMPI POP JUMP JUMPDEST SWAP1 PUSH1 0x0 SWAP2 DUP1 DUP4 MSTORE PUSH1 0x6 PUSH1 0x20 MSTORE PUSH20 0xFFFFFFFFFFFFFFFFFFFFFFFFFFFFFFFFFFFFFFFF PUSH1 0x40 DUP5 KECCAK256 SWAP3 AND SWAP2 DUP3 DUP5 MSTORE PUSH1 0x20 MSTORE PUSH1 0xFF PUSH1 0x40 DUP5 KECCAK256 SLOAD AND ISZERO PUSH1 0x0 EQ PUSH2 0x323C JUMPI DUP1 DUP4 MSTORE PUSH1 0x6 PUSH1 0x20 MSTORE PUSH1 0x40 DUP4 KECCAK256 DUP3 DUP5 MSTORE PUSH1 0x20 MSTORE PUSH1 0x40 DUP4 KECCAK256 PUSH1 0x1 PUSH32 0xFFFFFFFFFFFFFFFFFFFFFFFFFFFFFFFFFFFFFFFFFFFFFFFFFFFFFFFFFFFFFF00 DUP3 SLOAD AND OR SWAP1 SSTORE PUSH32 0x2F8788117E7EFF1D82E926EC794901D17C78024A50270940304540A733656F0D CALLER SWAP4 DUP1 LOG4 PUSH1 0x1 SWAP1 JUMP JUMPDEST POP POP SWAP1 JUMP JUMPDEST SWAP1 PUSH1 0x0 SWAP2 DUP1 DUP4 MSTORE PUSH1 0x6 PUSH1 0x20 MSTORE PUSH20 0xFFFFFFFFFFFFFFFFFFFFFFFFFFFFFFFFFFFFFFFF PUSH1 0x40 DUP5 KECCAK256 SWAP3 AND SWAP2 DUP3 DUP5 MSTORE PUSH1 0x20 MSTORE PUSH1 0xFF PUSH1 0x40 DUP5 KECCAK256 SLOAD AND PUSH1 0x0 EQ PUSH2 0x323C JUMPI DUP1 DUP4 MSTORE PUSH1 0x6 PUSH1 0x20 MSTORE PUSH1 0x40 DUP4 KECCAK256 DUP3 DUP5 MSTORE PUSH1 0x20 MSTORE PUSH1 0x40 DUP4 KECCAK256 PUSH32 0xFFFFFFFFFFFFFFFFFFFFFFFFFFFFFFFFFFFFFFFFFFFFFFFFFFFFFFFFFFFFFF00 DUP2 SLOAD AND SWAP1 SSTORE PUSH32 0xF6391F5C32D9C69D2A47EA670B442974B53935D1EDC7FD64EB21E047A839171B CALLER SWAP4 DUP1 LOG4 PUSH1 0x1 SWAP1 JUMP JUMPDEST SWAP2 PUSH20 0xFFFFFFFFFFFFFFFFFFFFFFFFFFFFFFFFFFFFFFFF DUP1 DUP5 AND SWAP3 DUP4 ISZERO PUSH2 0x3404 JUMPI AND SWAP3 DUP4 ISZERO PUSH2 0x33D3 JUMPI PUSH2 0x3314 PUSH2 0x3462 JUMP JUMPDEST PUSH2 0x331C PUSH2 0x3462 JUMP JUMPDEST PUSH1 0x0 SWAP1 DUP4 DUP3 MSTORE DUP2 PUSH1 0x20 MSTORE PUSH1 0x40 DUP3 KECCAK256 SLOAD SWAP1 DUP4 DUP3 LT PUSH2 0x337B JUMPI POP SWAP2 PUSH1 0x40 DUP3 DUP3 PUSH32 0xDDF252AD1BE2C89B69C2B068FC378DAA952BA7F163C4A11628F55A4DF523B3EF SWAP6 DUP8 PUSH1 0x20 SWAP7 MSTORE DUP3 DUP7 MSTORE SUB DUP3 DUP3 KECCAK256 SSTORE DUP7 DUP2 MSTORE KECCAK256 DUP2 DUP2 SLOAD ADD SWAP1 SSTORE PUSH1 0x40 MLOAD SWAP1 DUP2 MSTORE LOG3 JUMP JUMPDEST PUSH1 0x40 MLOAD PUSH32 0xE450D38C00000000000000000000000000000000000000000000000000000000 DUP2 MSTORE PUSH20 0xFFFFFFFFFFFFFFFFFFFFFFFFFFFFFFFFFFFFFFFF SWAP2 SWAP1 SWAP2 AND PUSH1 0x4 DUP3 ADD MSTORE PUSH1 0x24 DUP2 ADD SWAP2 SWAP1 SWAP2 MSTORE PUSH1 0x44 DUP2 ADD DUP4 SWAP1 MSTORE PUSH1 0x64 SWAP1 REVERT JUMPDEST PUSH1 0x24 PUSH1 0x40 MLOAD PUSH32 0xEC442F0500000000000000000000000000000000000000000000000000000000 DUP2 MSTORE PUSH1 0x0 PUSH1 0x4 DUP3 ADD MSTORE REVERT JUMPDEST PUSH1 0x24 PUSH1 0x40 MLOAD PUSH32 0x96C6FD1E00000000000000000000000000000000000000000000000000000000 DUP2 MSTORE PUSH1 0x0 PUSH1 0x4 DUP3 ADD MSTORE REVERT JUMPDEST PUSH32 0xFFFFFFFFFFFFFFFFFFFFFFFFFFFFFFFFFFFFFFFFFFFFFFFFFFFFFFFFFFFFFFFF DUP2 EQ PUSH2 0x802 JUMPI PUSH1 0x1 ADD SWAP1 JUMP JUMPDEST PUSH1 0xFF PUSH1 0x5 SLOAD AND PUSH2 0x346E JUMPI JUMP JUMPDEST PUSH1 0x4 PUSH1 0x40 MLOAD PUSH32 0xD93C066500000000000000000000000000000000000000000000000000000000 DUP2 MSTORE REVERT JUMPDEST ISZERO PUSH2 0x349F JUMPI JUMP JUMPDEST PUSH1 0x64 PUSH1 0x40 MLOAD PUSH32 0x8C379A000000000000000000000000000000000000000000000000000000000 DUP2 MSTORE PUSH1 0x20 PUSH1 0x4 DUP3 ADD MSTORE PUSH1 0x19 PUSH1 0x24 DUP3 ADD MSTORE PUSH32 0x536574746C656D656E7420646F6573206E6F7420657869737400000000000000 PUSH1 0x44 DUP3 ADD MSTORE REVERT JUMPDEST ISZERO PUSH2 0x3504 JUMPI JUMP JUMPDEST PUSH1 0x64 PUSH1 0x40 MLOAD PUSH32 0x8C379A000000000000000000000000000000000000000000000000000000000 DUP2 MSTORE PUSH1 0x20 PUSH1 0x4 DUP3 ADD MSTORE PUSH1 0x16 PUSH1 0x24 DUP3 ADD MSTORE PUSH32 0x536574746C656D656E74206E6F742070656E64696E6700000000000000000000 PUSH1 0x44 DUP3 ADD MSTORE REVERT JUMPDEST ISZERO PUSH2 0x3569 JUMPI JUMP JUMPDEST PUSH1 0x64 PUSH1 0x40 MLOAD PUSH32 0x8C379A000000000000000000000000000000000000000000000000000000000 DUP2 MSTORE PUSH1 0x20 PUSH1 0x4 DUP3 ADD MSTORE PUSH1 0x16 PUSH1 0x24 DUP3 ADD MSTORE PUSH32 0x446973707574652077696E646F77206578706972656400000000000000000000 PUSH1 0x44 DUP3 ADD MSTORE REVERT JUMPDEST SWAP1 PUSH2 0x35D1 DUP2 PUSH2 0x2E27 JUMP JUMPDEST PUSH32 0xFFFFFFFFFFFFFFFFFFFFFF00FFFFFFFFFFFFFFFFFFFFFFFFFFFFFFFFFFFFFFFF PUSH21 0xFF0000000000000000000000000000000000000000 DUP4 SLOAD SWAP3 PUSH1 0xA0 SHL AND SWAP2 AND OR SWAP1 SSTORE JUMP INVALID LOG2 PUSH5 0x6970667358 0x22 SLT KECCAK256 PUSH31 0x21E4B6059413D6589CE4E9565FB731C8314346703F3FD30F984144DC69983 PUSH5 0x736F6C6343 STOP ADDMOD EQ STOP CALLER 0x2F DUP8 DUP9 GT PUSH31 0x7EFF1D82E926EC794901D17C78024A50270940304540A733656F0D00000000 "},"gasEstimates":{"creation":{"codeDepositCost":"2780000","executionCost":"infinite","totalCost":"infinite"},"external":{"BRIDGE_ROLE()":"944","DEFAULT_ADMIN_ROLE()":"900","DISPUTE_RESOLVER_ROLE()":"1032","DISPUTE_WINDOW()":"1208","EMERGENCY_ROLE()":"284","MAX_SETTLEMENT_AMOUNT()":"812","SETTLEMENT_ROLE()":"988","SETTLEMENT_TIMEOUT()":"438","allowance(address,address)":"3530","approve(address,uint256)":"24369","balanceOf(address)":"2822","bridgeConfigs(address)":"9207","configureBridge(address,bool,uint256,uint256,uint256)":"95720","confirmSettlement(uint256)":"infinite","createSettlement(address,uint256,string,bytes32)":"infinite","decimals()":"394","disputeFee()":"3069","disputes(uint256)":"infinite","emergencyWithdrawETH()":"infinite","emergencyWithdrawTokens(address,uint256)":"infinite","getBridgeConfig(address)":"9779","getDispute(uint256)":"infinite","getRoleAdmin(bytes32)":"2503","getSettlement(uint256)":"infinite","getUserSettlements(address)":"infinite","grantRole(bytes32,address)":"33407","hasRole(bytes32,address)":"3101","initiateDispute(uint256,uint8,string)":"infinite","name()":"infinite","pause()":"30277","paused()":"2685","processBridgeTransaction(address,address,uint256,address)":"infinite","processedL3Transactions(bytes32)":"3408","renounceRole(bytes32,address)":"29021","resolveDispute(uint256,string,bool)":"infinite","revokeRole(bytes32,address)":"34168","settlementCounter()":"2805","settlementFee()":"2739","settlements(uint256)":"infinite","supportsInterface(bytes4)":"250","symbol()":"infinite","totalDisputes()":"3179","totalSettlements()":"2827","totalSupply()":"2365","transfer(address,uint256)":"infinite","transferFrom(address,address,uint256)":"infinite","unpause()":"27930","updateDisputeFee(uint256)":"28573","updateSettlementFee(uint256)":"28463","userSettlements(address,uint256)":"7205"},"internal":{"_update(address,address,uint256)":"infinite"}},"methodIdentifiers":{"BRIDGE_ROLE()":"b5bfddea","DEFAULT_ADMIN_ROLE()":"a217fddf","DISPUTE_RESOLVER_ROLE()":"bfe42a37","DISPUTE_WINDOW()":"f585dc57","EMERGENCY_ROLE()":"20df4359","MAX_SETTLEMENT_AMOUNT()":"933367a8","SETTLEMENT_ROLE()":"ba9cf01d","SETTLEMENT_TIMEOUT()":"3c0a6e38","allowance(address,address)":"dd62ed3e","approve(address,uint256)":"095ea7b3","balanceOf(address)":"70a08231","bridgeConfigs(address)":"427ac0ca","configureBridge(address,bool,uint256,uint256,uint256)":"43b255ac","confirmSettlement(uint256)":"9e924eb5","createSettlement(address,uint256,string,bytes32)":"d1d50fe6","decimals()":"313ce567","disputeFee()":"b9ce896b","disputes(uint256)":"564a565d","emergencyWithdrawETH()":"84536017","emergencyWithdrawTokens(address,uint256)":"917bb998","getBridgeConfig(address)":"c4fc45a8","getDispute(uint256)":"e3a96cbd","getRoleAdmin(bytes32)":"248a9ca3","getSettlement(uint256)":"4c582380","getUserSettlements(address)":"bfcb7040","grantRole(bytes32,address)":"2f2ff15d","hasRole(bytes32,address)":"91d14854","initiateDispute(uint256,uint8,string)":"d0b1149c","name()":"06fdde03","pause()":"8456cb59","paused()":"5c975abb","processBridgeTransaction(address,address,uint256,address)":"068d04d0","processedL3Transactions(bytes32)":"fc1e29b6","renounceRole(bytes32,address)":"36568abe","resolveDispute(uint256,string,bool)":"267f2098","revokeRole(bytes32,address)":"d547741f","settlementCounter()":"84b971a5","settlementFee()":"7d1d7fb8","settlements(uint256)":"08df7dc8","supportsInterface(bytes4)":"01ffc9a7","symbol()":"95d89b41","totalDisputes()":"c5e4ccc4","totalSettlements()":"88dae6a8","totalSupply()":"18160ddd","transfer(address,uint256)":"a9059cbb","transferFrom(address,address,uint256)":"23b872dd","unpause()":"3f4ba83a","updateDisputeFee(uint256)":"9de2e9d7","updateSettlementFee(uint256)":"899c45da","userSettlements(address,uint256)":"76e8a88b"}},"storageLayout":{"storage":[{"astId":538,"contract":"contracts/GameDinSettlement.sol:GameDinSettlement","label":"_balances","offset":0,"slot":"0","type":"t_mapping(t_address,t_uint256)"},{"astId":544,"contract":"contracts/GameDinSettlement.sol:GameDinSettlement","label":"_allowances","offset":0,"slot":"1","type":"t_mapping(t_address,t_mapping(t_address,t_uint256))"},{"astId":546,"contract":"contracts/GameDinSettlement.sol:GameDinSettlement","label":"_totalSupply","offset":0,"slot":"2","type":"t_uint256"},{"astId":548,"contract":"contracts/GameDinSettlement.sol:GameDinSettlement","label":"_name","offset":0,"slot":"3","type":"t_string_storage"},{"astId":550,"contract":"contracts/GameDinSettlement.sol:GameDinSettlement","label":"_symbol","offset":0,"slot":"4","type":"t_string_storage"},{"astId":1324,"contract":"contracts/GameDinSettlement.sol:GameDinSettlement","label":"_paused","offset":0,"slot":"5","type":"t_bool"},{"astId":26,"contract":"contracts/GameDinSettlement.sol:GameDinSettlement","label":"_roles","offset":0,"slot":"6","type":"t_mapping(t_bytes32,t_struct(RoleData)21_storage)"},{"astId":1434,"contract":"contracts/GameDinSettlement.sol:GameDinSettlement","label":"_status","offset":0,"slot":"7","type":"t_uint256"},{"astId":3052,"contract":"contracts/GameDinSettlement.sol:GameDinSettlement","label":"settlementCounter","offset":0,"slot":"8","type":"t_uint256"},{"astId":3054,"contract":"contracts/GameDinSettlement.sol:GameDinSettlement","label":"totalSettlements","offset":0,"slot":"9","type":"t_uint256"},{"astId":3056,"contract":"contracts/GameDinSettlement.sol:GameDinSettlement","label":"totalDisputes","offset":0,"slot":"10","type":"t_uint256"},{"astId":3063,"contract":"contracts/GameDinSettlement.sol:GameDinSettlement","label":"settlementFee","offset":0,"slot":"11","type":"t_uint256"},{"astId":3070,"contract":"contracts/GameDinSettlement.sol:GameDinSettlement","label":"disputeFee","offset":0,"slot":"12","type":"t_uint256"},{"astId":3075,"contract":"contracts/GameDinSettlement.sol:GameDinSettlement","label":"settlements","offset":0,"slot":"13","type":"t_mapping(t_uint256,t_struct(Settlement)3021_storage)"},{"astId":3080,"contract":"contracts/GameDinSettlement.sol:GameDinSettlement","label":"disputes","offset":0,"slot":"14","type":"t_mapping(t_uint256,t_struct(Dispute)3039_storage)"},{"astId":3085,"contract":"contracts/GameDinSettlement.sol:GameDinSettlement","label":"userSettlements","offset":0,"slot":"15","type":"t_mapping(t_address,t_array(t_uint256)dyn_storage)"},{"astId":3089,"contract":"contracts/GameDinSettlement.sol:GameDinSettlement","label":"processedL3Transactions","offset":0,"slot":"16","type":"t_mapping(t_bytes32,t_bool)"},{"astId":3094,"contract":"contracts/GameDinSettlement.sol:GameDinSettlement","label":"bridgeConfigs","offset":0,"slot":"17","type":"t_mapping(t_address,t_struct(BridgeConfig)3050_storage)"}],"types":{"t_address":{"encoding":"inplace","label":"address","numberOfBytes":"20"},"t_array(t_uint256)dyn_storage":{"base":"t_uint256","encoding":"dynamic_array","label":"uint256[]","numberOfBytes":"32"},"t_bool":{"encoding":"inplace","label":"bool","numberOfBytes":"1"},"t_bytes32":{"encoding":"inplace","label":"bytes32","numberOfBytes":"32"},"t_enum(DisputeReason)2994":{"encoding":"inplace","label":"enum GameDinSettlement.DisputeReason","numberOfBytes":"1"},"t_enum(SettlementStatus)2988":{"encoding":"inplace","label":"enum GameDinSettlement.SettlementStatus","numberOfBytes":"1"},"t_mapping(t_address,t_array(t_uint256)dyn_storage)":{"encoding":"mapping","key":"t_address","label":"mapping(address => uint256[])","numberOfBytes":"32","value":"t_array(t_uint256)dyn_storage"},"t_mapping(t_address,t_bool)":{"encoding":"mapping","key":"t_address","label":"mapping(address => bool)","numberOfBytes":"32","value":"t_bool"},"t_mapping(t_address,t_mapping(t_address,t_uint256))":{"encoding":"mapping","key":"t_address","label":"mapping(address => mapping(address => uint256))","numberOfBytes":"32","value":"t_mapping(t_address,t_uint256)"},"t_mapping(t_address,t_struct(BridgeConfig)3050_storage)":{"encoding":"mapping","key":"t_address","label":"mapping(address => struct GameDinSettlement.BridgeConfig)","numberOfBytes":"32","value":"t_struct(BridgeConfig)3050_storage"},"t_mapping(t_address,t_uint256)":{"encoding":"mapping","key":"t_address","label":"mapping(address => uint256)","numberOfBytes":"32","value":"t_uint256"},"t_mapping(t_bytes32,t_bool)":{"encoding":"mapping","key":"t_bytes32","label":"mapping(bytes32 => bool)","numberOfBytes":"32","value":"t_bool"},"t_mapping(t_bytes32,t_struct(RoleData)21_storage)":{"encoding":"mapping","key":"t_bytes32","label":"mapping(bytes32 => struct AccessControl.RoleData)","numberOfBytes":"32","value":"t_struct(RoleData)21_storage"},"t_mapping(t_uint256,t_struct(Dispute)3039_storage)":{"encoding":"mapping","key":"t_uint256","label":"mapping(uint256 => struct GameDinSettlement.Dispute)","numberOfBytes":"32","value":"t_struct(Dispute)3039_storage"},"t_mapping(t_uint256,t_struct(Settlement)3021_storage)":{"encoding":"mapping","key":"t_uint256","label":"mapping(uint256 => struct GameDinSettlement.Settlement)","numberOfBytes":"32","value":"t_struct(Settlement)3021_storage"},"t_string_storage":{"encoding":"bytes","label":"string","numberOfBytes":"32"},"t_struct(BridgeConfig)3050_storage":{"encoding":"inplace","label":"struct GameDinSettlement.BridgeConfig","members":[{"astId":3041,"contract":"contracts/GameDinSettlement.sol:GameDinSettlement","label":"bridgeAddress","offset":0,"slot":"0","type":"t_address"},{"astId":3043,"contract":"contracts/GameDinSettlement.sol:GameDinSettlement","label":"isActive","offset":20,"slot":"0","type":"t_bool"},{"astId":3045,"contract":"contracts/GameDinSettlement.sol:GameDinSettlement","label":"minConfirmations","offset":0,"slot":"1","type":"t_uint256"},{"astId":3047,"contract":"contracts/GameDinSettlement.sol:GameDinSettlement","label":"maxAmount","offset":0,"slot":"2","type":"t_uint256"},{"astId":3049,"contract":"contracts/GameDinSettlement.sol:GameDinSettlement","label":"fee","offset":0,"slot":"3","type":"t_uint256"}],"numberOfBytes":"128"},"t_struct(Dispute)3039_storage":{"encoding":"inplace","label":"struct GameDinSettlement.Dispute","members":[{"astId":3023,"contract":"contracts/GameDinSettlement.sol:GameDinSettlement","label":"settlementId","offset":0,"slot":"0","type":"t_uint256"},{"astId":3025,"contract":"contracts/GameDinSettlement.sol:GameDinSettlement","label":"initiator","offset":0,"slot":"1","type":"t_address"},{"astId":3028,"contract":"contracts/GameDinSettlement.sol:GameDinSettlement","label":"reason","offset":20,"slot":"1","type":"t_enum(DisputeReason)2994"},{"astId":3030,"contract":"contracts/GameDinSettlement.sol:GameDinSettlement","label":"details","offset":0,"slot":"2","type":"t_string_storage"},{"astId":3032,"contract":"contracts/GameDinSettlement.sol:GameDinSettlement","label":"timestamp","offset":0,"slot":"3","type":"t_uint256"},{"astId":3034,"contract":"contracts/GameDinSettlement.sol:GameDinSettlement","label":"resolved","offset":0,"slot":"4","type":"t_bool"},{"astId":3036,"contract":"contracts/GameDinSettlement.sol:GameDinSettlement","label":"resolver","offset":1,"slot":"4","type":"t_address"},{"astId":3038,"contract":"contracts/GameDinSettlement.sol:GameDinSettlement","label":"resolution","offset":0,"slot":"5","type":"t_string_storage"}],"numberOfBytes":"192"},"t_struct(RoleData)21_storage":{"encoding":"inplace","label":"struct AccessControl.RoleData","members":[{"astId":18,"contract":"contracts/GameDinSettlement.sol:GameDinSettlement","label":"hasRole","offset":0,"slot":"0","type":"t_mapping(t_address,t_bool)"},{"astId":20,"contract":"contracts/GameDinSettlement.sol:GameDinSettlement","label":"adminRole","offset":0,"slot":"1","type":"t_bytes32"}],"numberOfBytes":"64"},"t_struct(Settlement)3021_storage":{"encoding":"inplace","label":"struct GameDinSettlement.Settlement","members":[{"astId":2996,"contract":"contracts/GameDinSettlement.sol:GameDinSettlement","label":"settlementId","offset":0,"slot":"0","type":"t_uint256"},{"astId":2998,"contract":"contracts/GameDinSettlement.sol:GameDinSettlement","label":"from","offset":0,"slot":"1","type":"t_address"},{"astId":3000,"contract":"contracts/GameDinSettlement.sol:GameDinSettlement","label":"to","offset":0,"slot":"2","type":"t_address"},{"astId":3002,"contract":"contracts/GameDinSettlement.sol:GameDinSettlement","label":"amount","offset":0,"slot":"3","type":"t_uint256"},{"astId":3004,"contract":"contracts/GameDinSettlement.sol:GameDinSettlement","label":"timestamp","offset":0,"slot":"4","type":"t_uint256"},{"astId":3007,"contract":"contracts/GameDinSettlement.sol:GameDinSettlement","label":"status","offset":0,"slot":"5","type":"t_enum(SettlementStatus)2988"},{"astId":3009,"contract":"contracts/GameDinSettlement.sol:GameDinSettlement","label":"l3TransactionHash","offset":0,"slot":"6","type":"t_string_storage"},{"astId":3011,"contract":"contracts/GameDinSettlement.sol:GameDinSettlement","label":"merkleRoot","offset":0,"slot":"7","type":"t_bytes32"},{"astId":3013,"contract":"contracts/GameDinSettlement.sol:GameDinSettlement","label":"disputeDeadline","offset":0,"slot":"8","type":"t_uint256"},{"astId":3015,"contract":"contracts/GameDinSettlement.sol:GameDinSettlement","label":"disputeInitiator","offset":0,"slot":"9","type":"t_address"},{"astId":3018,"contract":"contracts/GameDinSettlement.sol:GameDinSettlement","label":"disputeReason","offset":20,"slot":"9","type":"t_enum(DisputeReason)2994"},{"astId":3020,"contract":"contracts/GameDinSettlement.sol:GameDinSettlement","label":"disputeDetails","offset":0,"slot":"10","type":"t_string_storage"}],"numberOfBytes":"352"},"t_uint256":{"encoding":"inplace","label":"uint256","numberOfBytes":"32"}}},"userdoc":{"kind":"user","methods":{},"version":1}}}}