{
  "_format": "hh-sol-artifact-1",
  "contractName": "GDIToken",
  "sourceName": "contracts/GDIToken.sol",
  "abi": [
    {
      "inputs": [
        {
          "internalType": "string",
          "name": "name",
          "type": "string"
        },
        {
          "internalType": "string",
          "name": "symbol",
          "type": "string"
        },
        {
          "internalType": "address",
          "name": "initialOwner",
          "type": "address"
        },
        {
          "internalType": "address",
          "name": "_gamingCore",
          "type": "address"
        },
        {
          "internalType": "address",
          "name": "_aiOracle",
          "type": "address"
        },
        {
          "internalType": "address",
          "name": "_treasury",
          "type": "address"
        }
      ],
      "stateMutability": "nonpayable",
      "type": "constructor"
    },
    {
      "inputs": [],
      "name": "AccessControlBadConfirmation",
      "type": "error"
    },
    {
      "inputs": [
        {
          "internalType": "address",
          "name": "account",
          "type": "address"
        },
        {
          "internalType": "bytes32",
          "name": "neededRole",
          "type": "bytes32"
        }
      ],
      "name": "AccessControlUnauthorizedAccount",
      "type": "error"
    },
    {
      "inputs": [
        {
          "internalType": "address",
          "name": "spender",
          "type": "address"
        },
        {
          "internalType": "uint256",
          "name": "allowance",
          "type": "uint256"
        },
        {
          "internalType": "uint256",
          "name": "needed",
          "type": "uint256"
        }
      ],
      "name": "ERC20InsufficientAllowance",
      "type": "error"
    },
    {
      "inputs": [
        {
          "internalType": "address",
          "name": "sender",
          "type": "address"
        },
        {
          "internalType": "uint256",
          "name": "balance",
          "type": "uint256"
        },
        {
          "internalType": "uint256",
          "name": "needed",
          "type": "uint256"
        }
      ],
      "name": "ERC20InsufficientBalance",
      "type": "error"
    },
    {
      "inputs": [
        {
          "internalType": "address",
          "name": "approver",
          "type": "address"
        }
      ],
      "name": "ERC20InvalidApprover",
      "type": "error"
    },
    {
      "inputs": [
        {
          "internalType": "address",
          "name": "receiver",
          "type": "address"
        }
      ],
      "name": "ERC20InvalidReceiver",
      "type": "error"
    },
    {
      "inputs": [
        {
          "internalType": "address",
          "name": "sender",
          "type": "address"
        }
      ],
      "name": "ERC20InvalidSender",
      "type": "error"
    },
    {
      "inputs": [
        {
          "internalType": "address",
          "name": "spender",
          "type": "address"
        }
      ],
      "name": "ERC20InvalidSpender",
      "type": "error"
    },
    {
      "inputs": [],
      "name": "EnforcedPause",
      "type": "error"
    },
    {
      "inputs": [],
      "name": "ExpectedPause",
      "type": "error"
    },
    {
      "inputs": [],
      "name": "ReentrancyGuardReentrantCall",
      "type": "error"
    },
    {
      "anonymous": false,
      "inputs": [
        {
          "indexed": true,
          "internalType": "address",
          "name": "newOracle",
          "type": "address"
        }
      ],
      "name": "AIOracleUpdated",
      "type": "event"
    },
    {
      "anonymous": false,
      "inputs": [
        {
          "indexed": true,
          "internalType": "address",
          "name": "owner",
          "type": "address"
        },
        {
          "indexed": true,
          "internalType": "address",
          "name": "spender",
          "type": "address"
        },
        {
          "indexed": false,
          "internalType": "uint256",
          "name": "value",
          "type": "uint256"
        }
      ],
      "name": "Approval",
      "type": "event"
    },
    {
      "anonymous": false,
      "inputs": [
        {
          "indexed": true,
          "internalType": "address",
          "name": "newGamingCore",
          "type": "address"
        }
      ],
      "name": "GamingCoreUpdated",
      "type": "event"
    },
    {
      "anonymous": false,
      "inputs": [
        {
          "indexed": true,
          "internalType": "address",
          "name": "user",
          "type": "address"
        },
        {
          "indexed": false,
          "internalType": "uint256",
          "name": "amount",
          "type": "uint256"
        },
        {
          "indexed": false,
          "internalType": "uint256",
          "name": "gameId",
          "type": "uint256"
        }
      ],
      "name": "GamingRewardsDistributed",
      "type": "event"
    },
    {
      "anonymous": false,
      "inputs": [
        {
          "indexed": true,
          "internalType": "uint256",
          "name": "proposalId",
          "type": "uint256"
        },
        {
          "indexed": true,
          "internalType": "address",
          "name": "proposer",
          "type": "address"
        },
        {
          "indexed": false,
          "internalType": "string",
          "name": "description",
          "type": "string"
        }
      ],
      "name": "GovernanceProposalCreated",
      "type": "event"
    },
    {
      "anonymous": false,
      "inputs": [
        {
          "indexed": false,
          "internalType": "address",
          "name": "account",
          "type": "address"
        }
      ],
      "name": "Paused",
      "type": "event"
    },
    {
      "anonymous": false,
      "inputs": [
        {
          "indexed": true,
          "internalType": "uint256",
          "name": "proposalId",
          "type": "uint256"
        }
      ],
      "name": "ProposalExecuted",
      "type": "event"
    },
    {
      "anonymous": false,
      "inputs": [
        {
          "indexed": true,
          "internalType": "uint256",
          "name": "poolId",
          "type": "uint256"
        },
        {
          "indexed": false,
          "internalType": "uint256",
          "name": "totalRewards",
          "type": "uint256"
        },
        {
          "indexed": false,
          "internalType": "uint256",
          "name": "rewardRate",
          "type": "uint256"
        }
      ],
      "name": "RewardPoolCreated",
      "type": "event"
    },
    {
      "anonymous": false,
      "inputs": [
        {
          "indexed": true,
          "internalType": "address",
          "name": "user",
          "type": "address"
        },
        {
          "indexed": false,
          "internalType": "uint256",
          "name": "amount",
          "type": "uint256"
        }
      ],
      "name": "RewardsClaimed",
      "type": "event"
    },
    {
      "anonymous": false,
      "inputs": [
        {
          "indexed": true,
          "internalType": "bytes32",
          "name": "role",
          "type": "bytes32"
        },
        {
          "indexed": true,
          "internalType": "bytes32",
          "name": "previousAdminRole",
          "type": "bytes32"
        },
        {
          "indexed": true,
          "internalType": "bytes32",
          "name": "newAdminRole",
          "type": "bytes32"
        }
      ],
      "name": "RoleAdminChanged",
      "type": "event"
    },
    {
      "anonymous": false,
      "inputs": [
        {
          "indexed": true,
          "internalType": "bytes32",
          "name": "role",
          "type": "bytes32"
        },
        {
          "indexed": true,
          "internalType": "address",
          "name": "account",
          "type": "address"
        },
        {
          "indexed": true,
          "internalType": "address",
          "name": "sender",
          "type": "address"
        }
      ],
      "name": "RoleGranted",
      "type": "event"
    },
    {
      "anonymous": false,
      "inputs": [
        {
          "indexed": true,
          "internalType": "bytes32",
          "name": "role",
          "type": "bytes32"
        },
        {
          "indexed": true,
          "internalType": "address",
          "name": "account",
          "type": "address"
        },
        {
          "indexed": true,
          "internalType": "address",
          "name": "sender",
          "type": "address"
        }
      ],
      "name": "RoleRevoked",
      "type": "event"
    },
    {
      "anonymous": false,
      "inputs": [
        {
          "indexed": true,
          "internalType": "address",
          "name": "user",
          "type": "address"
        },
        {
          "indexed": false,
          "internalType": "uint256",
          "name": "amount",
          "type": "uint256"
        },
        {
          "indexed": false,
          "internalType": "uint256",
          "name": "lockPeriod",
          "type": "uint256"
        }
      ],
      "name": "TokensStaked",
      "type": "event"
    },
    {
      "anonymous": false,
      "inputs": [
        {
          "indexed": true,
          "internalType": "address",
          "name": "user",
          "type": "address"
        },
        {
          "indexed": false,
          "internalType": "uint256",
          "name": "amount",
          "type": "uint256"
        },
        {
          "indexed": false,
          "internalType": "uint256",
          "name": "rewards",
          "type": "uint256"
        }
      ],
      "name": "TokensUnstaked",
      "type": "event"
    },
    {
      "anonymous": false,
      "inputs": [
        {
          "indexed": true,
          "internalType": "address",
          "name": "from",
          "type": "address"
        },
        {
          "indexed": true,
          "internalType": "address",
          "name": "to",
          "type": "address"
        },
        {
          "indexed": false,
          "internalType": "uint256",
          "name": "value",
          "type": "uint256"
        }
      ],
      "name": "Transfer",
      "type": "event"
    },
    {
      "anonymous": false,
      "inputs": [
        {
          "indexed": false,
          "internalType": "address",
          "name": "account",
          "type": "address"
        }
      ],
      "name": "Unpaused",
      "type": "event"
    },
    {
      "anonymous": false,
      "inputs": [
        {
          "indexed": true,
          "internalType": "address",
          "name": "voter",
          "type": "address"
        },
        {
          "indexed": true,
          "internalType": "uint256",
          "name": "proposalId",
          "type": "uint256"
        },
        {
          "indexed": false,
          "internalType": "bool",
          "name": "support",
          "type": "bool"
        }
      ],
      "name": "VoteCast",
      "type": "event"
    },
    {
      "inputs": [],
      "name": "AI_ORACLE_ROLE",
      "outputs": [
        {
          "internalType": "bytes32",
          "name": "",
          "type": "bytes32"
        }
      ],
      "stateMutability": "view",
      "type": "function"
    },
    {
      "inputs": [],
      "name": "DEFAULT_ADMIN_ROLE",
      "outputs": [
        {
          "internalType": "bytes32",
          "name": "",
          "type": "bytes32"
        }
      ],
      "stateMutability": "view",
      "type": "function"
    },
    {
      "inputs": [],
      "name": "GAMING_CORE_ROLE",
      "outputs": [
        {
          "internalType": "bytes32",
          "name": "",
          "type": "bytes32"
        }
      ],
      "stateMutability": "view",
      "type": "function"
    },
    {
      "inputs": [],
      "name": "INITIAL_SUPPLY",
      "outputs": [
        {
          "internalType": "uint256",
          "name": "",
          "type": "uint256"
        }
      ],
      "stateMutability": "view",
      "type": "function"
    },
    {
      "inputs": [],
      "name": "MAX_SUPPLY",
      "outputs": [
        {
          "internalType": "uint256",
          "name": "",
          "type": "uint256"
        }
      ],
      "stateMutability": "view",
      "type": "function"
    },
    {
      "inputs": [],
      "name": "MINTER_ROLE",
      "outputs": [
        {
          "internalType": "bytes32",
          "name": "",
          "type": "bytes32"
        }
      ],
      "stateMutability": "view",
      "type": "function"
    },
    {
      "inputs": [],
      "name": "TREASURY_ROLE",
      "outputs": [
        {
          "internalType": "bytes32",
          "name": "",
          "type": "bytes32"
        }
      ],
      "stateMutability": "view",
      "type": "function"
    },
    {
      "inputs": [
        {
          "internalType": "uint256",
          "name": "amount",
          "type": "uint256"
        }
      ],
      "name": "addToGamingRewardsPool",
      "outputs": [],
      "stateMutability": "nonpayable",
      "type": "function"
    },
    {
      "inputs": [],
      "name": "aiOracle",
      "outputs": [
        {
          "internalType": "address",
          "name": "",
          "type": "address"
        }
      ],
      "stateMutability": "view",
      "type": "function"
    },
    {
      "inputs": [
        {
          "internalType": "address",
          "name": "owner",
          "type": "address"
        },
        {
          "internalType": "address",
          "name": "spender",
          "type": "address"
        }
      ],
      "name": "allowance",
      "outputs": [
        {
          "internalType": "uint256",
          "name": "",
          "type": "uint256"
        }
      ],
      "stateMutability": "view",
      "type": "function"
    },
    {
      "inputs": [
        {
          "internalType": "address",
          "name": "spender",
          "type": "address"
        },
        {
          "internalType": "uint256",
          "name": "value",
          "type": "uint256"
        }
      ],
      "name": "approve",
      "outputs": [
        {
          "internalType": "bool",
          "name": "",
          "type": "bool"
        }
      ],
      "stateMutability": "nonpayable",
      "type": "function"
    },
    {
      "inputs": [
        {
          "internalType": "address",
          "name": "account",
          "type": "address"
        }
      ],
      "name": "balanceOf",
      "outputs": [
        {
          "internalType": "uint256",
          "name": "",
          "type": "uint256"
        }
      ],
      "stateMutability": "view",
      "type": "function"
    },
    {
      "inputs": [
        {
          "internalType": "uint256",
          "name": "value",
          "type": "uint256"
        }
      ],
      "name": "burn",
      "outputs": [],
      "stateMutability": "nonpayable",
      "type": "function"
    },
    {
      "inputs": [
        {
          "internalType": "address",
          "name": "account",
          "type": "address"
        },
        {
          "internalType": "uint256",
          "name": "value",
          "type": "uint256"
        }
      ],
      "name": "burnFrom",
      "outputs": [],
      "stateMutability": "nonpayable",
      "type": "function"
    },
    {
      "inputs": [
        {
          "internalType": "address",
          "name": "user",
          "type": "address"
        }
      ],
      "name": "calculateStakingRewards",
      "outputs": [
        {
          "internalType": "uint256",
          "name": "",
          "type": "uint256"
        }
      ],
      "stateMutability": "view",
      "type": "function"
    },
    {
      "inputs": [],
      "name": "claimStakingRewards",
      "outputs": [],
      "stateMutability": "nonpayable",
      "type": "function"
    },
    {
      "inputs": [
        {
          "internalType": "string",
          "name": "description",
          "type": "string"
        },
        {
          "internalType": "uint256",
          "name": "duration",
          "type": "uint256"
        }
      ],
      "name": "createProposal",
      "outputs": [
        {
          "internalType": "uint256",
          "name": "",
          "type": "uint256"
        }
      ],
      "stateMutability": "nonpayable",
      "type": "function"
    },
    {
      "inputs": [
        {
          "internalType": "uint256",
          "name": "totalRewards",
          "type": "uint256"
        },
        {
          "internalType": "uint256",
          "name": "rewardRate",
          "type": "uint256"
        }
      ],
      "name": "createRewardPool",
      "outputs": [
        {
          "internalType": "uint256",
          "name": "",
          "type": "uint256"
        }
      ],
      "stateMutability": "nonpayable",
      "type": "function"
    },
    {
      "inputs": [],
      "name": "decimals",
      "outputs": [
        {
          "internalType": "uint8",
          "name": "",
          "type": "uint8"
        }
      ],
      "stateMutability": "view",
      "type": "function"
    },
    {
      "inputs": [
        {
          "internalType": "address",
          "name": "user",
          "type": "address"
        },
        {
          "internalType": "uint256",
          "name": "amount",
          "type": "uint256"
        },
        {
          "internalType": "uint256",
          "name": "gameId",
          "type": "uint256"
        }
      ],
      "name": "distributeGamingRewards",
      "outputs": [],
      "stateMutability": "nonpayable",
      "type": "function"
    },
    {
      "inputs": [
        {
          "internalType": "uint256",
          "name": "proposalId",
          "type": "uint256"
        }
      ],
      "name": "executeProposal",
      "outputs": [],
      "stateMutability": "nonpayable",
      "type": "function"
    },
    {
      "inputs": [],
      "name": "gamingCore",
      "outputs": [
        {
          "internalType": "address",
          "name": "",
          "type": "address"
        }
      ],
      "stateMutability": "view",
      "type": "function"
    },
    {
      "inputs": [],
      "name": "gamingRewardRate",
      "outputs": [
        {
          "internalType": "uint256",
          "name": "",
          "type": "uint256"
        }
      ],
      "stateMutability": "view",
      "type": "function"
    },
    {
      "inputs": [],
      "name": "gamingRewardsPool",
      "outputs": [
        {
          "internalType": "uint256",
          "name": "",
          "type": "uint256"
        }
      ],
      "stateMutability": "view",
      "type": "function"
    },
    {
      "inputs": [],
      "name": "getGamingRewardsPool",
      "outputs": [
        {
          "internalType": "uint256",
          "name": "",
          "type": "uint256"
        }
      ],
      "stateMutability": "view",
      "type": "function"
    },
    {
      "inputs": [
        {
          "internalType": "uint256",
          "name": "proposalId",
          "type": "uint256"
        }
      ],
      "name": "getProposal",
      "outputs": [
        {
          "internalType": "address",
          "name": "proposer",
          "type": "address"
        },
        {
          "internalType": "string",
          "name": "description",
          "type": "string"
        },
        {
          "internalType": "uint256",
          "name": "forVotes",
          "type": "uint256"
        },
        {
          "internalType": "uint256",
          "name": "againstVotes",
          "type": "uint256"
        },
        {
          "internalType": "uint256",
          "name": "startTime",
          "type": "uint256"
        },
        {
          "internalType": "uint256",
          "name": "endTime",
          "type": "uint256"
        },
        {
          "internalType": "bool",
          "name": "executed",
          "type": "bool"
        },
        {
          "internalType": "bool",
          "name": "canceled",
          "type": "bool"
        }
      ],
      "stateMutability": "view",
      "type": "function"
    },
    {
      "inputs": [
        {
          "internalType": "uint256",
          "name": "poolId",
          "type": "uint256"
        }
      ],
      "name": "getRewardPool",
      "outputs": [
        {
          "internalType": "uint256",
          "name": "totalRewards",
          "type": "uint256"
        },
        {
          "internalType": "uint256",
          "name": "distributedRewards",
          "type": "uint256"
        },
        {
          "internalType": "uint256",
          "name": "lastUpdateTime",
          "type": "uint256"
        },
        {
          "internalType": "uint256",
          "name": "rewardRate",
          "type": "uint256"
        },
        {
          "internalType": "bool",
          "name": "isActive",
          "type": "bool"
        }
      ],
      "stateMutability": "view",
      "type": "function"
    },
    {
      "inputs": [
        {
          "internalType": "bytes32",
          "name": "role",
          "type": "bytes32"
        }
      ],
      "name": "getRoleAdmin",
      "outputs": [
        {
          "internalType": "bytes32",
          "name": "",
          "type": "bytes32"
        }
      ],
      "stateMutability": "view",
      "type": "function"
    },
    {
      "inputs": [
        {
          "internalType": "address",
          "name": "user",
          "type": "address"
        }
      ],
      "name": "getStakingInfo",
      "outputs": [
        {
          "internalType": "uint256",
          "name": "amount",
          "type": "uint256"
        },
        {
          "internalType": "uint256",
          "name": "startTime",
          "type": "uint256"
        },
        {
          "internalType": "uint256",
          "name": "lastRewardTime",
          "type": "uint256"
        },
        {
          "internalType": "uint256",
          "name": "totalRewards",
          "type": "uint256"
        },
        {
          "internalType": "uint256",
          "name": "lockPeriod",
          "type": "uint256"
        },
        {
          "internalType": "bool",
          "name": "isLocked",
          "type": "bool"
        },
        {
          "internalType": "uint256",
          "name": "pendingRewards",
          "type": "uint256"
        }
      ],
      "stateMutability": "view",
      "type": "function"
    },
    {
      "inputs": [],
      "name": "getTotalProposals",
      "outputs": [
        {
          "internalType": "uint256",
          "name": "",
          "type": "uint256"
        }
      ],
      "stateMutability": "view",
      "type": "function"
    },
    {
      "inputs": [],
      "name": "getTotalRewardPools",
      "outputs": [
        {
          "internalType": "uint256",
          "name": "",
          "type": "uint256"
        }
      ],
      "stateMutability": "view",
      "type": "function"
    },
    {
      "inputs": [
        {
          "internalType": "uint256",
          "name": "proposalId",
          "type": "uint256"
        },
        {
          "internalType": "address",
          "name": "user",
          "type": "address"
        }
      ],
      "name": "getUserVote",
      "outputs": [
        {
          "internalType": "bool",
          "name": "",
          "type": "bool"
        }
      ],
      "stateMutability": "view",
      "type": "function"
    },
    {
      "inputs": [
        {
          "internalType": "uint256",
          "name": "",
          "type": "uint256"
        }
      ],
      "name": "governanceProposals",
      "outputs": [
        {
          "internalType": "uint256",
          "name": "proposalId",
          "type": "uint256"
        },
        {
          "internalType": "address",
          "name": "proposer",
          "type": "address"
        },
        {
          "internalType": "string",
          "name": "description",
          "type": "string"
        },
        {
          "internalType": "uint256",
          "name": "forVotes",
          "type": "uint256"
        },
        {
          "internalType": "uint256",
          "name": "againstVotes",
          "type": "uint256"
        },
        {
          "internalType": "uint256",
          "name": "startTime",
          "type": "uint256"
        },
        {
          "internalType": "uint256",
          "name": "endTime",
          "type": "uint256"
        },
        {
          "internalType": "bool",
          "name": "executed",
          "type": "bool"
        },
        {
          "internalType": "bool",
          "name": "canceled",
          "type": "bool"
        }
      ],
      "stateMutability": "view",
      "type": "function"
    },
    {
      "inputs": [],
      "name": "governanceQuorum",
      "outputs": [
        {
          "internalType": "uint256",
          "name": "",
          "type": "uint256"
        }
      ],
      "stateMutability": "view",
      "type": "function"
    },
    {
      "inputs": [
        {
          "internalType": "bytes32",
          "name": "role",
          "type": "bytes32"
        },
        {
          "internalType": "address",
          "name": "account",
          "type": "address"
        }
      ],
      "name": "grantRole",
      "outputs": [],
      "stateMutability": "nonpayable",
      "type": "function"
    },
    {
      "inputs": [
        {
          "internalType": "bytes32",
          "name": "role",
          "type": "bytes32"
        },
        {
          "internalType": "address",
          "name": "account",
          "type": "address"
        }
      ],
      "name": "hasRole",
      "outputs": [
        {
          "internalType": "bool",
          "name": "",
          "type": "bool"
        }
      ],
      "stateMutability": "view",
      "type": "function"
    },
    {
      "inputs": [
        {
          "internalType": "uint256",
          "name": "proposalId",
          "type": "uint256"
        },
        {
          "internalType": "address",
          "name": "user",
          "type": "address"
        }
      ],
      "name": "hasVoted",
      "outputs": [
        {
          "internalType": "bool",
          "name": "",
          "type": "bool"
        }
      ],
      "stateMutability": "view",
      "type": "function"
    },
    {
      "inputs": [
        {
          "internalType": "address",
          "name": "to",
          "type": "address"
        },
        {
          "internalType": "uint256",
          "name": "amount",
          "type": "uint256"
        }
      ],
      "name": "mint",
      "outputs": [],
      "stateMutability": "nonpayable",
      "type": "function"
    },
    {
      "inputs": [],
      "name": "name",
      "outputs": [
        {
          "internalType": "string",
          "name": "",
          "type": "string"
        }
      ],
      "stateMutability": "view",
      "type": "function"
    },
    {
      "inputs": [],
      "name": "pause",
      "outputs": [],
      "stateMutability": "nonpayable",
      "type": "function"
    },
    {
      "inputs": [],
      "name": "paused",
      "outputs": [
        {
          "internalType": "bool",
          "name": "",
          "type": "bool"
        }
      ],
      "stateMutability": "view",
      "type": "function"
    },
    {
      "inputs": [
        {
          "internalType": "bytes32",
          "name": "role",
          "type": "bytes32"
        },
        {
          "internalType": "address",
          "name": "callerConfirmation",
          "type": "address"
        }
      ],
      "name": "renounceRole",
      "outputs": [],
      "stateMutability": "nonpayable",
      "type": "function"
    },
    {
      "inputs": [
        {
          "internalType": "bytes32",
          "name": "role",
          "type": "bytes32"
        },
        {
          "internalType": "address",
          "name": "account",
          "type": "address"
        }
      ],
      "name": "revokeRole",
      "outputs": [],
      "stateMutability": "nonpayable",
      "type": "function"
    },
    {
      "inputs": [
        {
          "internalType": "uint256",
          "name": "",
          "type": "uint256"
        }
      ],
      "name": "rewardPools",
      "outputs": [
        {
          "internalType": "uint256",
          "name": "totalRewards",
          "type": "uint256"
        },
        {
          "internalType": "uint256",
          "name": "distributedRewards",
          "type": "uint256"
        },
        {
          "internalType": "uint256",
          "name": "lastUpdateTime",
          "type": "uint256"
        },
        {
          "internalType": "uint256",
          "name": "rewardRate",
          "type": "uint256"
        },
        {
          "internalType": "bool",
          "name": "isActive",
          "type": "bool"
        }
      ],
      "stateMutability": "view",
      "type": "function"
    },
    {
      "inputs": [
        {
          "internalType": "uint256",
          "name": "amount",
          "type": "uint256"
        },
        {
          "internalType": "uint256",
          "name": "lockPeriod",
          "type": "uint256"
        }
      ],
      "name": "stake",
      "outputs": [],
      "stateMutability": "nonpayable",
      "type": "function"
    },
    {
      "inputs": [
        {
          "internalType": "address",
          "name": "",
          "type": "address"
        }
      ],
      "name": "stakingInfo",
      "outputs": [
        {
          "internalType": "uint256",
          "name": "amount",
          "type": "uint256"
        },
        {
          "internalType": "uint256",
          "name": "startTime",
          "type": "uint256"
        },
        {
          "internalType": "uint256",
          "name": "lastRewardTime",
          "type": "uint256"
        },
        {
          "internalType": "uint256",
          "name": "totalRewards",
          "type": "uint256"
        },
        {
          "internalType": "uint256",
          "name": "lockPeriod",
          "type": "uint256"
        },
        {
          "internalType": "bool",
          "name": "isLocked",
          "type": "bool"
        }
      ],
      "stateMutability": "view",
      "type": "function"
    },
    {
      "inputs": [],
      "name": "stakingRewardRate",
      "outputs": [
        {
          "internalType": "uint256",
          "name": "",
          "type": "uint256"
        }
      ],
      "stateMutability": "view",
      "type": "function"
    },
    {
      "inputs": [
        {
          "internalType": "bytes4",
          "name": "interfaceId",
          "type": "bytes4"
        }
      ],
      "name": "supportsInterface",
      "outputs": [
        {
          "internalType": "bool",
          "name": "",
          "type": "bool"
        }
      ],
      "stateMutability": "view",
      "type": "function"
    },
    {
      "inputs": [],
      "name": "symbol",
      "outputs": [
        {
          "internalType": "string",
          "name": "",
          "type": "string"
        }
      ],
      "stateMutability": "view",
      "type": "function"
    },
    {
      "inputs": [],
      "name": "totalRewardsDistributed",
      "outputs": [
        {
          "internalType": "uint256",
          "name": "",
          "type": "uint256"
        }
      ],
      "stateMutability": "view",
      "type": "function"
    },
    {
      "inputs": [],
      "name": "totalStaked",
      "outputs": [
        {
          "internalType": "uint256",
          "name": "",
          "type": "uint256"
        }
      ],
      "stateMutability": "view",
      "type": "function"
    },
    {
      "inputs": [],
      "name": "totalSupply",
      "outputs": [
        {
          "internalType": "uint256",
          "name": "",
          "type": "uint256"
        }
      ],
      "stateMutability": "view",
      "type": "function"
    },
    {
      "inputs": [
        {
          "internalType": "address",
          "name": "to",
          "type": "address"
        },
        {
          "internalType": "uint256",
          "name": "value",
          "type": "uint256"
        }
      ],
      "name": "transfer",
      "outputs": [
        {
          "internalType": "bool",
          "name": "",
          "type": "bool"
        }
      ],
      "stateMutability": "nonpayable",
      "type": "function"
    },
    {
      "inputs": [
        {
          "internalType": "address",
          "name": "from",
          "type": "address"
        },
        {
          "internalType": "address",
          "name": "to",
          "type": "address"
        },
        {
          "internalType": "uint256",
          "name": "value",
          "type": "uint256"
        }
      ],
      "name": "transferFrom",
      "outputs": [
        {
          "internalType": "bool",
          "name": "",
          "type": "bool"
        }
      ],
      "stateMutability": "nonpayable",
      "type": "function"
    },
    {
      "inputs": [],
      "name": "treasury",
      "outputs": [
        {
          "internalType": "address",
          "name": "",
          "type": "address"
        }
      ],
      "stateMutability": "view",
      "type": "function"
    },
    {
      "inputs": [],
      "name": "unpause",
      "outputs": [],
      "stateMutability": "nonpayable",
      "type": "function"
    },
    {
      "inputs": [
        {
          "internalType": "uint256",
          "name": "amount",
          "type": "uint256"
        }
      ],
      "name": "unstake",
      "outputs": [],
      "stateMutability": "nonpayable",
      "type": "function"
    },
    {
      "inputs": [
        {
          "internalType": "address",
          "name": "newOracle",
          "type": "address"
        }
      ],
      "name": "updateAIOracle",
      "outputs": [],
      "stateMutability": "nonpayable",
      "type": "function"
    },
    {
      "inputs": [
        {
          "internalType": "address",
          "name": "newGamingCore",
          "type": "address"
        }
      ],
      "name": "updateGamingCore",
      "outputs": [],
      "stateMutability": "nonpayable",
      "type": "function"
    },
    {
      "inputs": [
        {
          "internalType": "uint256",
          "name": "newQuorum",
          "type": "uint256"
        }
      ],
      "name": "updateGovernanceQuorum",
      "outputs": [],
      "stateMutability": "nonpayable",
      "type": "function"
    },
    {
      "inputs": [
        {
          "internalType": "uint256",
          "name": "newRate",
          "type": "uint256"
        }
      ],
      "name": "updateStakingRewardRate",
      "outputs": [],
      "stateMutability": "nonpayable",
      "type": "function"
    },
    {
      "inputs": [
        {
          "internalType": "uint256",
          "name": "proposalId",
          "type": "uint256"
        },
        {
          "internalType": "bool",
          "name": "support",
          "type": "bool"
        }
      ],
      "name": "vote",
      "outputs": [],
      "stateMutability": "nonpayable",
      "type": "function"
    }
  ],
  "bytecode": "0x604060808152346200049a576200428b803803806200001e816200049f565b928339810160c0828203126200049a5781516001600160401b0392908381116200049a578262000050918301620004c5565b9260209283830151908282116200049a576200006e918401620004c5565b916200007c86820162000537565b946200008b6060830162000537565b90620000a860a0620000a06080860162000537565b940162000537565b93815181811162000397576003908154906001948583811c931680156200048f575b8b841014620004795781908b601f9485811162000420575b50508b90848311600114620003b957600092620003ad575b505060001982851b1c191690851b1782555b8751928311620003975760049788548581811c911680156200038c575b8b82101462000377578281116200032c575b5089918411600114620002af579280620001ec9693620001f399989693620001e596600093620002a3575b505082841b92600019911b1c19161788555b600755600a600855600560095569152d02c7e14af6800000600a55620001de60018060a01b039960018060a01b03199a8084168c60135416176013558086168c60145416176014558716809b6015541617601555620001d7816200054c565b50620005cd565b5062000670565b506200070e565b50620007ac565b5082156200028c57620002056200084a565b6200020f6200084a565b6002546b033b2e3c9fd0803ce80000009182820180921162000277575060025560008381528083528481208054830190558451918252917fddf252ad1be2c89b69c2b068fc378daa952ba7f163c4a11628f55a4df523b3ef91a351613a0190816200086a8239f35b601190634e487b7160e01b6000525260246000fd5b602490600085519163ec442f0560e01b8352820152fd5b01519150388062000166565b9190601f19841692896000528a6000209360005b8c82821062000317575050938693620001f39a9997938793620001e598620001ec9b9810620002fc575b50505050811b01885562000178565b01519060f884600019921b161c1916905538808080620002ed565b838501518755958801959384019301620002c3565b896000528a6000208380870160051c8201928d88106200036d575b0160051c019086905b828110620003605750506200013b565b6000815501869062000350565b9250819262000347565b60228a634e487b7160e01b6000525260246000fd5b90607f169062000129565b634e487b7160e01b600052604160045260246000fd5b015190503880620000fa565b60008681528d8120899550929190601f198516908f5b828210620004085750508411620003ef575b505050811b0182556200010c565b015160001983871b60f8161c19169055388080620003e1565b8385015186558b979095019493840193018f620003cf565b909192508560005284826000209181860160051c83019386106200046f575b918991869594930160051c01915b8281106200045f57508d9150620000e2565b600081558594508991016200044d565b925081926200043f565b634e487b7160e01b600052602260045260246000fd5b92607f1692620000ca565b600080fd5b6040519190601f01601f191682016001600160401b038111838210176200039757604052565b919080601f840112156200049a5782516001600160401b0381116200039757602090620004fb601f8201601f191683016200049f565b928184528282870101116200049a5760005b8181106200052357508260009394955001015290565b85810183015184820184015282016200050d565b51906001600160a01b03821682036200049a57565b6001600160a01b031660008181527f54cdd369e4e8a8515e52ca72ec816c2101831ad1f18bf44102ed171459c9b4f8602052604081205490919060ff16620005c95781805260066020526040822081835260205260408220600160ff1982541617905533916000805160206200426b8339815191528180a4600190565b5090565b6001600160a01b031660008181527f3195c024b2ddd6d9b8f6c836aa52f67fe69376c8903d009b80229b3ce4425f5160205260408120549091907f9f2df0fed2c77648de5860a4cc508cd0818c85b8b8a1ab4ceeef8d981c8956a69060ff166200066b5780835260066020526040832082845260205260408320600160ff198254161790556000805160206200426b833981519152339380a4600190565b505090565b6001600160a01b031660008181527f7ceb9c5220fc169673fcd5d384c42766ccf895d15d874112de3d0bfb8758d05c60205260408120549091907f5786d20923d975b495e0b9bf9c86e71a73430879fd73e8b5cd4cc01b7bf7b07e9060ff166200066b5780835260066020526040832082845260205260408320600160ff198254161790556000805160206200426b833981519152339380a4600190565b6001600160a01b031660008181527ffc10e37a5e4c2daed48b25ed9bc439e15761d622f0c26fc3ca738ea45b2f00f960205260408120549091907f482648e7878e9fa54c0a2f67ffd22d00ebc37cf7a03e060e428d2ab0cd6735cc9060ff166200066b5780835260066020526040832082845260205260408320600160ff198254161790556000805160206200426b833981519152339380a4600190565b6001600160a01b031660008181527f21b746f97e1679a3e88a18d3dec6befa7bbc6f2977a2ecb1c7917139835d6aee60205260408120549091907fe1dcbdb91df27212a29bc27177c840cf2f819ecf2187432e1fac86c2dd5dfca99060ff166200066b5780835260066020526040832082845260205260408320600160ff198254161790556000805160206200426b833981519152339380a4600190565b60ff600554166200085757565b60405163d93c066560e01b8152600490fdfe608060408181526004918236101561001657600080fd5b600092833560e01c91826301ffc9a714612be75750816303c7881a14612b7357816304b7c1f014612b3357816306fdde0314612a24578163095ea7b31461291f5781630d61b5191461266657816318160ddd146126295781631a5007dd146125ec578163219d46e61461108b57816323b872dd14612591578163248a9ca3146125485781632e17de78146123aa5781632f2ff15d146123625781632ff2e9dc1461231d578163313ce567146122e357816331b221cd1461229057816332cb6b0c1461224b57816335facf7814611dca57816336568abe14611d405781633f2df4ad14611c265781633f4ba83a14611b6757816340c10f1914611aad57816342966c6814611a7157816343859632146119fd578163456aaa3f1461195457816346abf391146116095781634d745f0d146117b35781634d76724a146117765781634f3fc2df146117395781635c975abb146116f75781635ca1142a146116905781635cfa91f41461160957816361d027b3146115b657816368ff1b90146115635781636b69e05b1461151b5781636fb15a3d1461140157816370a08231146113a057816379cc67901461134f5781637b0472f01461119c578163817b1cd21461115f5781638456cb59146110c857816391c3a7d11461108b57816391d148541461101a57816394b438be14610fdd57816394eecb5014610f4057816395d89b4114610e195781639cccdbc614610dc0578163a217fddf14610d87578163a9059cbb14610d38578163aa4704f314610c8b578163c2bd935214610a6b578163c601f7af14610a12578163c7f758a814610949578163c9d27afe146105f2578163d11a57ec14610599578163d35eaee8146104c3578163d47768de14610478578163d53913931461041f578163d547741f146103bd57508063dd62ed3e1461034a578063ee1725461461030e5763f880f9de146102cf57600080fd5b3461030a57817ffffffffffffffffffffffffffffffffffffffffffffffffffffffffffffffffc36011261030a57602090600a549051908152f35b5080fd5b503461030a57817ffffffffffffffffffffffffffffffffffffffffffffffffffffffffffffffffc36011261030a576020906011549051908152f35b503461030a57807ffffffffffffffffffffffffffffffffffffffffffffffffffffffffffffffffc36011261030a5780602092610385612ccb565b61038d612ca3565b73ffffffffffffffffffffffffffffffffffffffff91821683526001865283832091168252845220549051908152f35b9190503461041b57807ffffffffffffffffffffffffffffffffffffffffffffffffffffffffffffffffc36011261041b5761041791356104126001610400612ca3565b93838752600660205286200154612f79565b6131fd565b5080f35b8280fd5b50503461030a57817ffffffffffffffffffffffffffffffffffffffffffffffffffffffffffffffffc36011261030a57602090517f9f2df0fed2c77648de5860a4cc508cd0818c85b8b8a1ab4ceeef8d981c8956a68152f35b50503461030a5760207ffffffffffffffffffffffffffffffffffffffffffffffffffffffffffffffffc36011261030a576020906104bc6104b7612ccb565b61383e565b9051908152f35b8284346105965760207ffffffffffffffffffffffffffffffffffffffffffffffffffffffffffffffffc36011261059657819083358152600d602052209160ff83549273ffffffffffffffffffffffffffffffffffffffff6001860154169461052e60028201612e43565b600382015494820154610567600584015492600760068601549501549580519a8b9a8b5260208b015261012080918b0152890190612cee565b956060880152608087015260a086015260c0850152818116151560e085015260081c1615156101008301520390f35b80fd5b50503461030a57817ffffffffffffffffffffffffffffffffffffffffffffffffffffffffffffffffc36011261030a57602090517fe1dcbdb91df27212a29bc27177c840cf2f819ecf2187432e1fac86c2dd5dfca98152f35b8391503461030a57827ffffffffffffffffffffffffffffffffffffffffffffffffffffffffffffffffc36011261030a578035906024908135948515159283870361094557848652602092600d84528287209061065182541515613930565b600582015442106108ea576006820154421161088f57600882019833895289865260ff858a20541661083457600783015460ff8116159081610825575b50156107ca573389528886528489205493841561076f57507fd356173ae8eeea8691aee4c1be712c314a975a3d43ebc48b08ca54d0dac9122896979899338b528652848a2060017fffffffffffffffffffffffffffffffffffffffffffffffffffffffffffffff0082541617905560098301865261073981868c209060ff7fffffffffffffffffffffffffffffffffffffffffffffffffffffffffffffff0083541691151516179055565b1561075b5750600361074e9101918254613628565b90555b519283523392a380f35b6107689101918254613628565b9055610751565b82600f606492898951937f08c379a00000000000000000000000000000000000000000000000000000000085528401528201527f4e6f20766f74696e6720706f77657200000000000000000000000000000000006044820152fd5b606482601386898951937f08c379a00000000000000000000000000000000000000000000000000000000085528401528201527f50726f706f73616c206e6f7420616374697665000000000000000000000000006044820152fd5b60ff915060081c16158b61068e565b606482600d86898951937f08c379a00000000000000000000000000000000000000000000000000000000085528401528201527f416c726561647920766f746564000000000000000000000000000000000000006044820152fd5b606490600c84878751937f08c379a00000000000000000000000000000000000000000000000000000000085528401528201527f566f74696e6720656e64656400000000000000000000000000000000000000006044820152fd5b606490601284878751937f08c379a00000000000000000000000000000000000000000000000000000000085528401528201527f566f74696e67206e6f74207374617274656400000000000000000000000000006044820152fd5b8580fd5b8284346105965760207ffffffffffffffffffffffffffffffffffffffffffffffffffffffffffffffffc36011261059657819083358152600d602052209060ff73ffffffffffffffffffffffffffffffffffffffff6001840154169260038101549481015460058201546006830154916109ca600260078601549501612e43565b976109e68751998a998a526101008060208c01528a0190612cee565b968801526060870152608086015260a0850152818116151560c085015260081c16151560e08301520390f35b50503461030a57817ffffffffffffffffffffffffffffffffffffffffffffffffffffffffffffffffc36011261030a57602090517f482648e7878e9fa54c0a2f67ffd22d00ebc37cf7a03e060e428d2ab0cd6735cc8152f35b82843461059657610a7b36612dbc565b7fe1dcbdb91df27212a29bc27177c840cf2f819ecf2187432e1fac86c2dd5dfca99485845260209560068752858520338652875260ff868620541615610c5557508215610bd4578115610b52578493927febe2a9439f298ded6e2a2317aff8343fb0e8537b464bffb788523bef3d329def928592610afa600f54613903565b97889687600f55878152600c8b52208381558260038201554260028201550160017fffffffffffffffffffffffffffffffffffffffffffffffffffffffffffffff00825416179055825191825287820152a251908152f35b608490868651917f08c379a0000000000000000000000000000000000000000000000000000000008352820152602260248201527f5265776172642072617465206d7573742062652067726561746572207468616e60448201527f20300000000000000000000000000000000000000000000000000000000000006064820152fd5b608490868651917f08c379a00000000000000000000000000000000000000000000000000000000083528201526024808201527f546f74616c2072657761726473206d757374206265206772656174657220746860448201527f616e2030000000000000000000000000000000000000000000000000000000006064820152fd5b604492508551917fe2517d3f00000000000000000000000000000000000000000000000000000000835233908301526024820152fd5b9190503461041b5760207ffffffffffffffffffffffffffffffffffffffffffffffffffffffffffffffffc36011261041b5760e09281610cc9612ccb565b9173ffffffffffffffffffffffffffffffffffffffff83168152600b60205220805493600182015493600283015490610d1260ff6005600387015495870154960154169561383e565b958151978852602088015286015260608501526080840152151560a083015260c0820152f35b50503461030a57807ffffffffffffffffffffffffffffffffffffffffffffffffffffffffffffffffc36011261030a57602090610d80610d76612ccb565b60243590336132a0565b5160018152f35b50503461030a57817ffffffffffffffffffffffffffffffffffffffffffffffffffffffffffffffffc36011261030a5751908152602090f35b50503461030a57817ffffffffffffffffffffffffffffffffffffffffffffffffffffffffffffffffc36011261030a57602090517f5786d20923d975b495e0b9bf9c86e71a73430879fd73e8b5cd4cc01b7bf7b07e8152f35b9190503461041b57827ffffffffffffffffffffffffffffffffffffffffffffffffffffffffffffffffc36011261041b5780519183815490610e5a82612df0565b80865292600192808416908115610ef75750600114610e9b575b610e978686610e85828b0383612d4c565b51918291602083526020830190612cee565b0390f35b815294507f8a35acfbc15ff81a39ae7d344fd709f28e8600b4aa8c65c6b64bfe7fe36bd19b5b828610610edf57505050610e85826020610e97958201019438610e74565b80546020878701810191909152909501948101610ec1565b610e97985087945060209350610e859592507fffffffffffffffffffffffffffffffffffffffffffffffffffffffffffffff0091501682840152151560051b8201019438610e74565b9190503461041b5760207ffffffffffffffffffffffffffffffffffffffffffffffffffffffffffffffffc36011261041b578060c09373ffffffffffffffffffffffffffffffffffffffff610f93612ccb565b168152600b6020522080549260018201549260028301549060ff600560038601549486015495015416948151968752602087015285015260608401526080830152151560a0820152f35b50503461030a57817ffffffffffffffffffffffffffffffffffffffffffffffffffffffffffffffffc36011261030a576020906009549051908152f35b90503461041b57817ffffffffffffffffffffffffffffffffffffffffffffffffffffffffffffffffc36011261041b578160209360ff92611059612ca3565b903582526006865273ffffffffffffffffffffffffffffffffffffffff83832091168252855220541690519015158152f35b50503461030a57817ffffffffffffffffffffffffffffffffffffffffffffffffffffffffffffffffc36011261030a576020906012549051908152f35b50503461030a57817ffffffffffffffffffffffffffffffffffffffffffffffffffffffffffffffffc36011261030a5760207f62e78cea01bee320cd4e420270b5ea74000d11b0c9f74754ebdbfc544b05a25891611124612f08565b61112c613995565b60017fffffffffffffffffffffffffffffffffffffffffffffffffffffffffffffff00600554161760055551338152a180f35b50503461030a57817ffffffffffffffffffffffffffffffffffffffffffffffffffffffffffffffffc36011261030a576020906010549051908152f35b9190503461041b576111ad36612dbc565b90926111b7613664565b83156112f2573385528460205283838620541061129557906112637fdd2a19c3bdd089cbe77c04f5655f83de0504d6140d12c8667646f55d0557c4dc9392338752600b60205282848820918254611287575b6112148830336132a0565b61121f888454613628565b83554260018401819055600284015582015560050180547fffffffffffffffffffffffffffffffffffffffffffffffffffffffffffffff001683151560ff16179055565b61126f84601054613628565b601055815193845260208401523392a2600160075580f35b611290336136ac565b611209565b60649060208451917f08c379a0000000000000000000000000000000000000000000000000000000008352820152601460248201527f496e73756666696369656e742062616c616e63650000000000000000000000006044820152fd5b60649060208451917f08c379a0000000000000000000000000000000000000000000000000000000008352820152601d60248201527f416d6f756e74206d7573742062652067726561746572207468616e20300000006044820152fd5b50503461030a577ffffffffffffffffffffffffffffffffffffffffffffffffffffffffffffffffc3601126105965761139d611389612ccb565b602435906113988233836133f1565b613546565b80f35b50503461030a5760207ffffffffffffffffffffffffffffffffffffffffffffffffffffffffffffffffc36011261030a578060209273ffffffffffffffffffffffffffffffffffffffff6113f2612ccb565b16815280845220549051908152f35b90503461041b5760207ffffffffffffffffffffffffffffffffffffffffffffffffffffffffffffffffc36011261041b5761143a612ccb565b90611443612f08565b73ffffffffffffffffffffffffffffffffffffffff82169283156114be57505061149690827fffffffffffffffffffffffff0000000000000000000000000000000000000000601354161760135561307d565b507f55625940a49f43d14f7272ac744ca4d043456c0ac89d3e889196d6ffb6d1c9f88280a280f35b90602060649251917f08c379a0000000000000000000000000000000000000000000000000000000008352820152601b60248201527f496e76616c69642067616d696e6720636f7265206164647265737300000000006044820152fd5b833461059657807ffffffffffffffffffffffffffffffffffffffffffffffffffffffffffffffffc36011261059657611552613664565b61155b336136ac565b600160075580f35b50503461030a57817ffffffffffffffffffffffffffffffffffffffffffffffffffffffffffffffffc36011261030a5760209073ffffffffffffffffffffffffffffffffffffffff601354169051908152f35b50503461030a57817ffffffffffffffffffffffffffffffffffffffffffffffffffffffffffffffffc36011261030a5760209073ffffffffffffffffffffffffffffffffffffffff601554169051908152f35b8284346105965760207ffffffffffffffffffffffffffffffffffffffffffffffffffffffffffffffffc3601126105965781610e979184358152600c602052209182549260018101549460ff60028301549160038401549301541692519586958693909594919260809360a086019786526020860152604085015260608401521515910152565b83903461030a5760207ffffffffffffffffffffffffffffffffffffffffffffffffffffffffffffffffc36011261030a576116f1906116e873ffffffffffffffffffffffffffffffffffffffff60135416331461389e565b35601254613628565b60125580f35b50503461030a57817ffffffffffffffffffffffffffffffffffffffffffffffffffffffffffffffffc36011261030a5760209060ff6005541690519015158152f35b50503461030a57817ffffffffffffffffffffffffffffffffffffffffffffffffffffffffffffffffc36011261030a576020906008549051908152f35b50503461030a57817ffffffffffffffffffffffffffffffffffffffffffffffffffffffffffffffffc36011261030a57602090600f549051908152f35b83833461030a5760607ffffffffffffffffffffffffffffffffffffffffffffffffffffffffffffffffc36011261030a576117ec612ccb565b906024359173ffffffffffffffffffffffffffffffffffffffff906118168260135416331461389e565b83156118d257601254958487106118755750611855847fb5e4f889bc9c5183de656ed513bc956edb35a92875932af60f50d28cd9bab14795969761369f565b60125561186285826137b0565b825194855260443560208601521692a280f35b60649060208551917f08c379a0000000000000000000000000000000000000000000000000000000008352820152602060248201527f496e73756666696369656e742067616d696e67207265776172647320706f6f6c6044820152fd5b60848660208551917f08c379a00000000000000000000000000000000000000000000000000000000083528201526024808201527f52657761726420616d6f756e74206d757374206265206772656174657220746860448201527f616e2030000000000000000000000000000000000000000000000000000000006064820152fd5b90503461041b5760207ffffffffffffffffffffffffffffffffffffffffffffffffffffffffffffffffc36011261041b57803591611990612f08565b603283116119a057505060085580f35b90602060649251917f08c379a0000000000000000000000000000000000000000000000000000000008352820152601460248201527f526577617264207261746520746f6f20686967680000000000000000000000006044820152fd5b90503461041b57817ffffffffffffffffffffffffffffffffffffffffffffffffffffffffffffffffc36011261041b578160209360ff92611a3c612ca3565b90358252600d865273ffffffffffffffffffffffffffffffffffffffff60088484200191168252855220541690519015158152f35b83903461030a5760207ffffffffffffffffffffffffffffffffffffffffffffffffffffffffffffffffc36011261030a5761139d903533613546565b90503461041b57817ffffffffffffffffffffffffffffffffffffffffffffffffffffffffffffffffc36011261041b57611ae5612ccb565b917f9f2df0fed2c77648de5860a4cc508cd0818c85b8b8a1ab4ceeef8d981c8956a690818552600660205280852033865260205260ff818620541615611b32578461139d602435866137b0565b6044935051917fe2517d3f00000000000000000000000000000000000000000000000000000000835233908301526024820152fd5b90503461041b57827ffffffffffffffffffffffffffffffffffffffffffffffffffffffffffffffffc36011261041b57611b9f612f08565b6005549060ff821615611bff57507f5db9ee0a495bf2e6ff9c91a7834c1ba4fdd244a5e8aa4e537bd38aeae4b073aa917fffffffffffffffffffffffffffffffffffffffffffffffffffffffffffffff006020921660055551338152a180f35b82517f8dfc202b000000000000000000000000000000000000000000000000000000008152fd5b90503461041b5760207ffffffffffffffffffffffffffffffffffffffffffffffffffffffffffffffffc36011261041b57611c5f612ccb565b90611c68612f08565b73ffffffffffffffffffffffffffffffffffffffff8216928315611ce3575050611cbb90827fffffffffffffffffffffffff00000000000000000000000000000000000000006014541617601455612f9f565b507f01db34cc1fec70288d8d48ba67dae8f2c3cfc760b51fb6d30300257d7f7911b38280a280f35b90602060649251917f08c379a0000000000000000000000000000000000000000000000000000000008352820152601660248201527f496e76616c6964206f7261636c652061646472657373000000000000000000006044820152fd5b83833461030a57807ffffffffffffffffffffffffffffffffffffffffffffffffffffffffffffffffc36011261030a57611d78612ca3565b903373ffffffffffffffffffffffffffffffffffffffff831603611da257506104179192356131fd565b8390517f6697b232000000000000000000000000000000000000000000000000000000008152fd5b83833461030a57807ffffffffffffffffffffffffffffffffffffffffffffffffffffffffffffffffc36011261030a5782359167ffffffffffffffff908184116105965736602385011215610596578385013582811161221f578351926020967fffffffffffffffffffffffffffffffffffffffffffffffffffffffffffffffe092611e5d8985601f8401160187612d4c565b80865260249736898383010111610945578186928a8c9301838a01378701015286359133855284895286852054600a805404116121c457855115612169578215158061215c575b1561210157611eb4600e54613903565b9788600e55888652600d8a5287862094898655600191828701337fffffffffffffffffffffffff0000000000000000000000000000000000000000825416179055600287019489519485116120d7575050611f0f8454612df0565b601f8111612091575b508a90601f841160011461200c5750908280611f769695949360079992611fe1575b507fffffffffffffffffffffffffffffffffffffffffffffffffffffffffffffffff91921b9260031b1c19161790555b42600584015542613628565b6006820155017fffffffffffffffffffffffffffffffffffffffffffffffffffffffffffff00008154169055827f2a37d3030fcbaa75731bde68145623378fc80f9fc53fca6b13a56a714d13a68e835186815280611fd8339589830190612cee565b0390a351908152f35b8a015191507fffffffffffffffffffffffffffffffffffffffffffffffffffffffffffffffff611f3a565b83979294959697168583528b8320925b8c82821061207d575050918391611f76969460079998969410612046575b5050811b019055611f6a565b8901517fffffffffffffffffffffffffffffffffffffffffffffffffffffffffffffffff60f88460031b161c191690558b8061203a565b8a840151855593860193928301920161201c565b8488528b8820601f850160051c8101918d86106120cd575b601f0160051c019083905b8281106120c2575050611f18565b8981550183906120b4565b90915081906120a9565b604189917f4e487b7100000000000000000000000000000000000000000000000000000000835252fd5b60648260108a8c8b51937f08c379a00000000000000000000000000000000000000000000000000000000085528401528201527f496e76616c6964206475726174696f6e000000000000000000000000000000006044820152fd5b5062093a80831115611ea4565b606482601b8a8c8b51937f08c379a00000000000000000000000000000000000000000000000000000000085528401528201527f4465736372697074696f6e2063616e6e6f7420626520656d70747900000000006044820152fd5b606482601e8a8c8b51937f08c379a00000000000000000000000000000000000000000000000000000000085528401528201527f496e73756666696369656e7420746f6b656e7320746f2070726f706f736500006044820152fd5b6024826041887f4e487b7100000000000000000000000000000000000000000000000000000000835252fd5b50503461030a57817ffffffffffffffffffffffffffffffffffffffffffffffffffffffffffffffffc36011261030a57602090516b06765c793fa10079d00000008152f35b50503461030a57817ffffffffffffffffffffffffffffffffffffffffffffffffffffffffffffffffc36011261030a5760209073ffffffffffffffffffffffffffffffffffffffff601454169051908152f35b50503461030a57817ffffffffffffffffffffffffffffffffffffffffffffffffffffffffffffffffc36011261030a576020905160128152f35b50503461030a57817ffffffffffffffffffffffffffffffffffffffffffffffffffffffffffffffffc36011261030a57602090516b033b2e3c9fd0803ce80000008152f35b9190503461041b57807ffffffffffffffffffffffffffffffffffffffffffffffffffffffffffffffffc36011261041b5761041791356123a56001610400612ca3565b613156565b9190503461041b5760207ffffffffffffffffffffffffffffffffffffffffffffffffffffffffffffffffc36011261041b578135916123e7613664565b338452600b60205281842090838254106124eb5760ff600583015416612475575b509060037f6f2d3e000c89d37446b7c0374c0125068ff316d1e3ee302336478a8cd03c233692612437336136ac565b61244285825461369f565b81556124508560105461369f565b60105561245e8533306132a0565b0154815193845260208401523392a2600160075580f35b61248760018301548284015490613628565b4210156124085760649060208451917f08c379a0000000000000000000000000000000000000000000000000000000008352820152601160248201527f546f6b656e7320617265206c6f636b65640000000000000000000000000000006044820152fd5b60649060208451917f08c379a0000000000000000000000000000000000000000000000000000000008352820152601a60248201527f496e73756666696369656e74207374616b656420616d6f756e740000000000006044820152fd5b90503461041b5760207ffffffffffffffffffffffffffffffffffffffffffffffffffffffffffffffffc36011261041b5781602093600192358152600685522001549051908152f35b50503461030a5760607ffffffffffffffffffffffffffffffffffffffffffffffffffffffffffffffffc36011261030a57602090610d806125d0612ccb565b6125d8612ca3565b604435916125e78333836133f1565b6132a0565b50503461030a57817ffffffffffffffffffffffffffffffffffffffffffffffffffffffffffffffffc36011261030a57602090600e549051908152f35b50503461030a57817ffffffffffffffffffffffffffffffffffffffffffffffffffffffffffffffffc36011261030a576020906002549051908152f35b9190503461041b576020807ffffffffffffffffffffffffffffffffffffffffffffffffffffffffffffffffc36011261291b57823592838552600d8252828520916126b383541515613930565b60068301544211156128bf57600783019384549360ff85166128635760ff8560081c166128075783600382015491015490818111156127aa57906126f691613628565b600a541161274f575050507fffffffffffffffffffffffffffffffffffffffffffffffffffffffffffffff001660011790557f712ae1383f79ac853f8d882153778e0260ef8f03b504e2866e0593e04d2b291f8280a280f35b6064935051917f08c379a0000000000000000000000000000000000000000000000000000000008352820152601260248201527f51756f72756d206e6f74207265616368656400000000000000000000000000006044820152fd5b50506064935051917f08c379a0000000000000000000000000000000000000000000000000000000008352820152601360248201527f50726f706f73616c206e6f7420706173736564000000000000000000000000006044820152fd5b506064935051917f08c379a0000000000000000000000000000000000000000000000000000000008352820152601160248201527f50726f706f73616c2063616e63656c65640000000000000000000000000000006044820152fd5b506064935051917f08c379a0000000000000000000000000000000000000000000000000000000008352820152601960248201527f50726f706f73616c20616c7265616479206578656375746564000000000000006044820152fd5b606492508351917f08c379a0000000000000000000000000000000000000000000000000000000008352820152601060248201527f566f74696e67206e6f7420656e646564000000000000000000000000000000006044820152fd5b8380fd5b90503461041b57817ffffffffffffffffffffffffffffffffffffffffffffffffffffffffffffffffc36011261041b57612957612ccb565b6024359033156129f55773ffffffffffffffffffffffffffffffffffffffff169182156129c657508083602095338152600187528181208582528752205582519081527f8c5be1e5ebec7d5bd14f71427d1e84f3dd0314c0f7b2291e5b200ac8c7c3b925843392a35160018152f35b602490858551917f94280d62000000000000000000000000000000000000000000000000000000008352820152fd5b602483868651917fe602df05000000000000000000000000000000000000000000000000000000008352820152fd5b50503461030a57817ffffffffffffffffffffffffffffffffffffffffffffffffffffffffffffffffc36011261030a5780519082600354612a6481612df0565b80855291600191808316908115612aed5750600114612a90575b505050610e8582610e97940383612d4c565b9450600385527fc2575a0e9e593c00f959f8c92f12db2869c3395a3b0502d05e2516446f71f85b5b828610612ad557505050610e85826020610e979582010194612a7e565b80546020878701810191909152909501948101612ab8565b610e97975086935060209250610e859491507fffffffffffffffffffffffffffffffffffffffffffffffffffffffffffffff001682840152151560051b82010194612a7e565b83903461030a5760207ffffffffffffffffffffffffffffffffffffffffffffffffffffffffffffffffc36011261030a57612b6c612f08565b35600a5580f35b90503461041b57817ffffffffffffffffffffffffffffffffffffffffffffffffffffffffffffffffc36011261041b578160209360ff92612bb2612ca3565b90358252600d865273ffffffffffffffffffffffffffffffffffffffff60098484200191168252855220541690519015158152f35b84913461041b5760207ffffffffffffffffffffffffffffffffffffffffffffffffffffffffffffffffc36011261041b57357fffffffff00000000000000000000000000000000000000000000000000000000811680910361041b57602092507f7965db0b000000000000000000000000000000000000000000000000000000008114908115612c79575b5015158152f35b7f01ffc9a70000000000000000000000000000000000000000000000000000000091501483612c72565b6024359073ffffffffffffffffffffffffffffffffffffffff82168203612cc657565b600080fd5b6004359073ffffffffffffffffffffffffffffffffffffffff82168203612cc657565b919082519283825260005b848110612d385750507fffffffffffffffffffffffffffffffffffffffffffffffffffffffffffffffe0601f8460006020809697860101520116010190565b602081830181015184830182015201612cf9565b90601f7fffffffffffffffffffffffffffffffffffffffffffffffffffffffffffffffe0910116810190811067ffffffffffffffff821117612d8d57604052565b7f4e487b7100000000000000000000000000000000000000000000000000000000600052604160045260246000fd5b7ffffffffffffffffffffffffffffffffffffffffffffffffffffffffffffffffc6040910112612cc6576004359060243590565b90600182811c92168015612e39575b6020831014612e0a57565b7f4e487b7100000000000000000000000000000000000000000000000000000000600052602260045260246000fd5b91607f1691612dff565b9060405191826000825492612e5784612df0565b908184526001948581169081600014612ec65750600114612e83575b5050612e8192500383612d4c565b565b9093915060005260209081600020936000915b818310612eae575050612e8193508201013880612e73565b85548884018501529485019487945091830191612e96565b9050612e819550602093507fffffffffffffffffffffffffffffffffffffffffffffffffffffffffffffff0091501682840152151560051b8201013880612e73565b3360009081527f54cdd369e4e8a8515e52ca72ec816c2101831ad1f18bf44102ed171459c9b4f8602052604081205460ff1615612f425750565b604490604051907fe2517d3f0000000000000000000000000000000000000000000000000000000082523360048301526024820152fd5b80600052600660205260406000203360005260205260ff6040600020541615612f425750565b73ffffffffffffffffffffffffffffffffffffffff1660008181527ffc10e37a5e4c2daed48b25ed9bc439e15761d622f0c26fc3ca738ea45b2f00f960205260408120549091907f482648e7878e9fa54c0a2f67ffd22d00ebc37cf7a03e060e428d2ab0cd6735cc9060ff16613078578083526006602052604083208284526020526040832060017fffffffffffffffffffffffffffffffffffffffffffffffffffffffffffffff008254161790557f2f8788117e7eff1d82e926ec794901d17c78024a50270940304540a733656f0d339380a4600190565b505090565b73ffffffffffffffffffffffffffffffffffffffff1660008181527f7ceb9c5220fc169673fcd5d384c42766ccf895d15d874112de3d0bfb8758d05c60205260408120549091907f5786d20923d975b495e0b9bf9c86e71a73430879fd73e8b5cd4cc01b7bf7b07e9060ff16613078578083526006602052604083208284526020526040832060017fffffffffffffffffffffffffffffffffffffffffffffffffffffffffffffff008254161790557f2f8788117e7eff1d82e926ec794901d17c78024a50270940304540a733656f0d339380a4600190565b90600091808352600660205273ffffffffffffffffffffffffffffffffffffffff6040842092169182845260205260ff60408420541615600014613078578083526006602052604083208284526020526040832060017fffffffffffffffffffffffffffffffffffffffffffffffffffffffffffffff008254161790557f2f8788117e7eff1d82e926ec794901d17c78024a50270940304540a733656f0d339380a4600190565b90600091808352600660205273ffffffffffffffffffffffffffffffffffffffff6040842092169182845260205260ff60408420541660001461307857808352600660205260408320828452602052604083207fffffffffffffffffffffffffffffffffffffffffffffffffffffffffffffff0081541690557ff6391f5c32d9c69d2a47ea670b442974b53935d1edc7fd64eb21e047a839171b339380a4600190565b9173ffffffffffffffffffffffffffffffffffffffff8084169283156133c0571692831561338f576132d0613995565b6132d8613995565b60009083825281602052604082205490838210613337575091604082827fddf252ad1be2c89b69c2b068fc378daa952ba7f163c4a11628f55a4df523b3ef958760209652828652038282205586815220818154019055604051908152a3565b6040517fe450d38c00000000000000000000000000000000000000000000000000000000815273ffffffffffffffffffffffffffffffffffffffff919091166004820152602481019190915260448101839052606490fd5b60246040517fec442f0500000000000000000000000000000000000000000000000000000000815260006004820152fd5b60246040517f96c6fd1e00000000000000000000000000000000000000000000000000000000815260006004820152fd5b9173ffffffffffffffffffffffffffffffffffffffff8093169160009383855260016020526040938486209183169182875260205284862054927fffffffffffffffffffffffffffffffffffffffffffffffffffffffffffffffff841061345c575b50505050505050565b8484106134f0575080156134c057811561349057855260016020528385209085526020520391205538808080808080613453565b6024868651907f94280d620000000000000000000000000000000000000000000000000000000082526004820152fd5b6024868651907fe602df050000000000000000000000000000000000000000000000000000000082526004820152fd5b85517ffb8f41b200000000000000000000000000000000000000000000000000000000815273ffffffffffffffffffffffffffffffffffffffff9190911660048201526024810184905260448101859052606490fd5b9073ffffffffffffffffffffffffffffffffffffffff82169081156133c05761356d613995565b613575613995565b600092828452836020526040842054908282106135d05750817fddf252ad1be2c89b69c2b068fc378daa952ba7f163c4a11628f55a4df523b3ef926020928587528684520360408620558060025403600255604051908152a3565b6040517fe450d38c00000000000000000000000000000000000000000000000000000000815273ffffffffffffffffffffffffffffffffffffffff919091166004820152602481019190915260448101829052606490fd5b9190820180921161363557565b7f4e487b7100000000000000000000000000000000000000000000000000000000600052601160045260246000fd5b600260075414613675576002600755565b60046040517f3ee5aeb5000000000000000000000000000000000000000000000000000000008152fd5b9190820391821161363557565b73ffffffffffffffffffffffffffffffffffffffff81169081600052600b6020526040600020805415613752576136e28261383e565b806136ee575b50505050565b613742817ffc30cddea38e2bf4d6ea7d3f9ed3b6ad7f176419f4963bd81318067a4aee73fe9484600360209601613726848254613628565b905560024291015561373a82601154613628565b6011556137b0565b604051908152a2388080806136e8565b60646040517f08c379a000000000000000000000000000000000000000000000000000000000815260206004820152601060248201527f4e6f20746f6b656e73207374616b6564000000000000000000000000000000006044820152fd5b73ffffffffffffffffffffffffffffffffffffffff1690811561338f577fddf252ad1be2c89b69c2b068fc378daa952ba7f163c4a11628f55a4df523b3ef60206000926137fb613995565b613803613995565b61380f81600254613628565b60025584845283825260408420818154019055604051908152a3565b8181029291811591840414171561363557565b73ffffffffffffffffffffffffffffffffffffffff16600052600b602052604060002080549081156138975763bbf81e009161388e61388460026138939401544261369f565b916008549061382b565b61382b565b0490565b5050600090565b156138a557565b60646040517f08c379a000000000000000000000000000000000000000000000000000000000815260206004820152601860248201527f4f6e6c792047616d696e67436f72652063616e2063616c6c00000000000000006044820152fd5b7fffffffffffffffffffffffffffffffffffffffffffffffffffffffffffffffff81146136355760010190565b1561393757565b60646040517f08c379a000000000000000000000000000000000000000000000000000000000815260206004820152601760248201527f50726f706f73616c20646f6573206e6f742065786973740000000000000000006044820152fd5b60ff600554166139a157565b60046040517fd93c0665000000000000000000000000000000000000000000000000000000008152fdfea264697066735822122096d57ed8cc859866d9b3e9c0d235038a89ce38753245c54267c88acd5915b00064736f6c634300081400332f8788117e7eff1d82e926ec794901d17c78024a50270940304540a733656f0d",
  "linkReferences": {},
  "deployedLinkReferences": {}
}