{
  "_format": "hh-sol-artifact-1",
  "contractName": "GDIToken",
  "sourceName": "contracts/GDIToken.sol",
  "abi": [
    {
      "inputs": [
        {
          "internalType": "string",
          "name": "name",
          "type": "string"
        },
        {
          "internalType": "string",
          "name": "symbol",
          "type": "string"
        },
        {
          "internalType": "address",
          "name": "initialOwner",
          "type": "address"
        },
        {
          "internalType": "address",
          "name": "_gamingCore",
          "type": "address"
        },
        {
          "internalType": "address",
          "name": "_aiOracle",
          "type": "address"
        },
        {
          "internalType": "address",
          "name": "_treasury",
          "type": "address"
        }
      ],
      "stateMutability": "nonpayable",
      "type": "constructor"
    },
    {
      "inputs": [],
      "name": "AccessControlBadConfirmation",
      "type": "error"
    },
    {
      "inputs": [
        {
          "internalType": "address",
          "name": "account",
          "type": "address"
        },
        {
          "internalType": "bytes32",
          "name": "neededRole",
          "type": "bytes32"
        }
      ],
      "name": "AccessControlUnauthorizedAccount",
      "type": "error"
    },
    {
      "inputs": [
        {
          "internalType": "address",
          "name": "spender",
          "type": "address"
        },
        {
          "internalType": "uint256",
          "name": "allowance",
          "type": "uint256"
        },
        {
          "internalType": "uint256",
          "name": "needed",
          "type": "uint256"
        }
      ],
      "name": "ERC20InsufficientAllowance",
      "type": "error"
    },
    {
      "inputs": [
        {
          "internalType": "address",
          "name": "sender",
          "type": "address"
        },
        {
          "internalType": "uint256",
          "name": "balance",
          "type": "uint256"
        },
        {
          "internalType": "uint256",
          "name": "needed",
          "type": "uint256"
        }
      ],
      "name": "ERC20InsufficientBalance",
      "type": "error"
    },
    {
      "inputs": [
        {
          "internalType": "address",
          "name": "approver",
          "type": "address"
        }
      ],
      "name": "ERC20InvalidApprover",
      "type": "error"
    },
    {
      "inputs": [
        {
          "internalType": "address",
          "name": "receiver",
          "type": "address"
        }
      ],
      "name": "ERC20InvalidReceiver",
      "type": "error"
    },
    {
      "inputs": [
        {
          "internalType": "address",
          "name": "sender",
          "type": "address"
        }
      ],
      "name": "ERC20InvalidSender",
      "type": "error"
    },
    {
      "inputs": [
        {
          "internalType": "address",
          "name": "spender",
          "type": "address"
        }
      ],
      "name": "ERC20InvalidSpender",
      "type": "error"
    },
    {
      "inputs": [],
      "name": "EnforcedPause",
      "type": "error"
    },
    {
      "inputs": [],
      "name": "ExpectedPause",
      "type": "error"
    },
    {
      "inputs": [],
      "name": "ReentrancyGuardReentrantCall",
      "type": "error"
    },
    {
      "anonymous": false,
      "inputs": [
        {
          "indexed": true,
          "internalType": "address",
          "name": "newOracle",
          "type": "address"
        }
      ],
      "name": "AIOracleUpdated",
      "type": "event"
    },
    {
      "anonymous": false,
      "inputs": [
        {
          "indexed": true,
          "internalType": "address",
          "name": "owner",
          "type": "address"
        },
        {
          "indexed": true,
          "internalType": "address",
          "name": "spender",
          "type": "address"
        },
        {
          "indexed": false,
          "internalType": "uint256",
          "name": "value",
          "type": "uint256"
        }
      ],
      "name": "Approval",
      "type": "event"
    },
    {
      "anonymous": false,
      "inputs": [
        {
          "indexed": true,
          "internalType": "address",
          "name": "newGamingCore",
          "type": "address"
        }
      ],
      "name": "GamingCoreUpdated",
      "type": "event"
    },
    {
      "anonymous": false,
      "inputs": [
        {
          "indexed": true,
          "internalType": "address",
          "name": "user",
          "type": "address"
        },
        {
          "indexed": false,
          "internalType": "uint256",
          "name": "amount",
          "type": "uint256"
        },
        {
          "indexed": false,
          "internalType": "uint256",
          "name": "gameId",
          "type": "uint256"
        }
      ],
      "name": "GamingRewardsDistributed",
      "type": "event"
    },
    {
      "anonymous": false,
      "inputs": [
        {
          "indexed": true,
          "internalType": "uint256",
          "name": "proposalId",
          "type": "uint256"
        },
        {
          "indexed": true,
          "internalType": "address",
          "name": "proposer",
          "type": "address"
        },
        {
          "indexed": false,
          "internalType": "string",
          "name": "description",
          "type": "string"
        }
      ],
      "name": "GovernanceProposalCreated",
      "type": "event"
    },
    {
      "anonymous": false,
      "inputs": [
        {
          "indexed": false,
          "internalType": "address",
          "name": "account",
          "type": "address"
        }
      ],
      "name": "Paused",
      "type": "event"
    },
    {
      "anonymous": false,
      "inputs": [
        {
          "indexed": true,
          "internalType": "uint256",
          "name": "proposalId",
          "type": "uint256"
        }
      ],
      "name": "ProposalExecuted",
      "type": "event"
    },
    {
      "anonymous": false,
      "inputs": [
        {
          "indexed": true,
          "internalType": "uint256",
          "name": "poolId",
          "type": "uint256"
        },
        {
          "indexed": false,
          "internalType": "uint256",
          "name": "totalRewards",
          "type": "uint256"
        },
        {
          "indexed": false,
          "internalType": "uint256",
          "name": "rewardRate",
          "type": "uint256"
        }
      ],
      "name": "RewardPoolCreated",
      "type": "event"
    },
    {
      "anonymous": false,
      "inputs": [
        {
          "indexed": true,
          "internalType": "address",
          "name": "user",
          "type": "address"
        },
        {
          "indexed": false,
          "internalType": "uint256",
          "name": "amount",
          "type": "uint256"
        }
      ],
      "name": "RewardsClaimed",
      "type": "event"
    },
    {
      "anonymous": false,
      "inputs": [
        {
          "indexed": true,
          "internalType": "bytes32",
          "name": "role",
          "type": "bytes32"
        },
        {
          "indexed": true,
          "internalType": "bytes32",
          "name": "previousAdminRole",
          "type": "bytes32"
        },
        {
          "indexed": true,
          "internalType": "bytes32",
          "name": "newAdminRole",
          "type": "bytes32"
        }
      ],
      "name": "RoleAdminChanged",
      "type": "event"
    },
    {
      "anonymous": false,
      "inputs": [
        {
          "indexed": true,
          "internalType": "bytes32",
          "name": "role",
          "type": "bytes32"
        },
        {
          "indexed": true,
          "internalType": "address",
          "name": "account",
          "type": "address"
        },
        {
          "indexed": true,
          "internalType": "address",
          "name": "sender",
          "type": "address"
        }
      ],
      "name": "RoleGranted",
      "type": "event"
    },
    {
      "anonymous": false,
      "inputs": [
        {
          "indexed": true,
          "internalType": "bytes32",
          "name": "role",
          "type": "bytes32"
        },
        {
          "indexed": true,
          "internalType": "address",
          "name": "account",
          "type": "address"
        },
        {
          "indexed": true,
          "internalType": "address",
          "name": "sender",
          "type": "address"
        }
      ],
      "name": "RoleRevoked",
      "type": "event"
    },
    {
      "anonymous": false,
      "inputs": [
        {
          "indexed": true,
          "internalType": "address",
          "name": "user",
          "type": "address"
        },
        {
          "indexed": false,
          "internalType": "uint256",
          "name": "amount",
          "type": "uint256"
        },
        {
          "indexed": false,
          "internalType": "uint256",
          "name": "lockPeriod",
          "type": "uint256"
        }
      ],
      "name": "TokensStaked",
      "type": "event"
    },
    {
      "anonymous": false,
      "inputs": [
        {
          "indexed": true,
          "internalType": "address",
          "name": "user",
          "type": "address"
        },
        {
          "indexed": false,
          "internalType": "uint256",
          "name": "amount",
          "type": "uint256"
        },
        {
          "indexed": false,
          "internalType": "uint256",
          "name": "rewards",
          "type": "uint256"
        }
      ],
      "name": "TokensUnstaked",
      "type": "event"
    },
    {
      "anonymous": false,
      "inputs": [
        {
          "indexed": true,
          "internalType": "address",
          "name": "from",
          "type": "address"
        },
        {
          "indexed": true,
          "internalType": "address",
          "name": "to",
          "type": "address"
        },
        {
          "indexed": false,
          "internalType": "uint256",
          "name": "value",
          "type": "uint256"
        }
      ],
      "name": "Transfer",
      "type": "event"
    },
    {
      "anonymous": false,
      "inputs": [
        {
          "indexed": false,
          "internalType": "address",
          "name": "account",
          "type": "address"
        }
      ],
      "name": "Unpaused",
      "type": "event"
    },
    {
      "anonymous": false,
      "inputs": [
        {
          "indexed": true,
          "internalType": "address",
          "name": "voter",
          "type": "address"
        },
        {
          "indexed": true,
          "internalType": "uint256",
          "name": "proposalId",
          "type": "uint256"
        },
        {
          "indexed": false,
          "internalType": "bool",
          "name": "support",
          "type": "bool"
        }
      ],
      "name": "VoteCast",
      "type": "event"
    },
    {
      "inputs": [],
      "name": "AI_ORACLE_ROLE",
      "outputs": [
        {
          "internalType": "bytes32",
          "name": "",
          "type": "bytes32"
        }
      ],
      "stateMutability": "view",
      "type": "function"
    },
    {
      "inputs": [],
      "name": "DEFAULT_ADMIN_ROLE",
      "outputs": [
        {
          "internalType": "bytes32",
          "name": "",
          "type": "bytes32"
        }
      ],
      "stateMutability": "view",
      "type": "function"
    },
    {
      "inputs": [],
      "name": "GAMING_CORE_ROLE",
      "outputs": [
        {
          "internalType": "bytes32",
          "name": "",
          "type": "bytes32"
        }
      ],
      "stateMutability": "view",
      "type": "function"
    },
    {
      "inputs": [],
      "name": "INITIAL_SUPPLY",
      "outputs": [
        {
          "internalType": "uint256",
          "name": "",
          "type": "uint256"
        }
      ],
      "stateMutability": "view",
      "type": "function"
    },
    {
      "inputs": [],
      "name": "MAX_SUPPLY",
      "outputs": [
        {
          "internalType": "uint256",
          "name": "",
          "type": "uint256"
        }
      ],
      "stateMutability": "view",
      "type": "function"
    },
    {
      "inputs": [],
      "name": "MINTER_ROLE",
      "outputs": [
        {
          "internalType": "bytes32",
          "name": "",
          "type": "bytes32"
        }
      ],
      "stateMutability": "view",
      "type": "function"
    },
    {
      "inputs": [],
      "name": "TREASURY_ROLE",
      "outputs": [
        {
          "internalType": "bytes32",
          "name": "",
          "type": "bytes32"
        }
      ],
      "stateMutability": "view",
      "type": "function"
    },
    {
      "inputs": [
        {
          "internalType": "uint256",
          "name": "amount",
          "type": "uint256"
        }
      ],
      "name": "addToGamingRewardsPool",
      "outputs": [],
      "stateMutability": "nonpayable",
      "type": "function"
    },
    {
      "inputs": [],
      "name": "aiOracle",
      "outputs": [
        {
          "internalType": "address",
          "name": "",
          "type": "address"
        }
      ],
      "stateMutability": "view",
      "type": "function"
    },
    {
      "inputs": [
        {
          "internalType": "address",
          "name": "owner",
          "type": "address"
        },
        {
          "internalType": "address",
          "name": "spender",
          "type": "address"
        }
      ],
      "name": "allowance",
      "outputs": [
        {
          "internalType": "uint256",
          "name": "",
          "type": "uint256"
        }
      ],
      "stateMutability": "view",
      "type": "function"
    },
    {
      "inputs": [
        {
          "internalType": "address",
          "name": "spender",
          "type": "address"
        },
        {
          "internalType": "uint256",
          "name": "value",
          "type": "uint256"
        }
      ],
      "name": "approve",
      "outputs": [
        {
          "internalType": "bool",
          "name": "",
          "type": "bool"
        }
      ],
      "stateMutability": "nonpayable",
      "type": "function"
    },
    {
      "inputs": [
        {
          "internalType": "address",
          "name": "account",
          "type": "address"
        }
      ],
      "name": "balanceOf",
      "outputs": [
        {
          "internalType": "uint256",
          "name": "",
          "type": "uint256"
        }
      ],
      "stateMutability": "view",
      "type": "function"
    },
    {
      "inputs": [
        {
          "internalType": "uint256",
          "name": "value",
          "type": "uint256"
        }
      ],
      "name": "burn",
      "outputs": [],
      "stateMutability": "nonpayable",
      "type": "function"
    },
    {
      "inputs": [
        {
          "internalType": "address",
          "name": "account",
          "type": "address"
        },
        {
          "internalType": "uint256",
          "name": "value",
          "type": "uint256"
        }
      ],
      "name": "burnFrom",
      "outputs": [],
      "stateMutability": "nonpayable",
      "type": "function"
    },
    {
      "inputs": [
        {
          "internalType": "address",
          "name": "user",
          "type": "address"
        }
      ],
      "name": "calculateStakingRewards",
      "outputs": [
        {
          "internalType": "uint256",
          "name": "",
          "type": "uint256"
        }
      ],
      "stateMutability": "view",
      "type": "function"
    },
    {
      "inputs": [],
      "name": "claimStakingRewards",
      "outputs": [],
      "stateMutability": "nonpayable",
      "type": "function"
    },
    {
      "inputs": [
        {
          "internalType": "string",
          "name": "description",
          "type": "string"
        },
        {
          "internalType": "uint256",
          "name": "duration",
          "type": "uint256"
        }
      ],
      "name": "createProposal",
      "outputs": [
        {
          "internalType": "uint256",
          "name": "",
          "type": "uint256"
        }
      ],
      "stateMutability": "nonpayable",
      "type": "function"
    },
    {
      "inputs": [
        {
          "internalType": "uint256",
          "name": "totalRewards",
          "type": "uint256"
        },
        {
          "internalType": "uint256",
          "name": "rewardRate",
          "type": "uint256"
        }
      ],
      "name": "createRewardPool",
      "outputs": [
        {
          "internalType": "uint256",
          "name": "",
          "type": "uint256"
        }
      ],
      "stateMutability": "nonpayable",
      "type": "function"
    },
    {
      "inputs": [],
      "name": "decimals",
      "outputs": [
        {
          "internalType": "uint8",
          "name": "",
          "type": "uint8"
        }
      ],
      "stateMutability": "view",
      "type": "function"
    },
    {
      "inputs": [
        {
          "internalType": "address",
          "name": "user",
          "type": "address"
        },
        {
          "internalType": "uint256",
          "name": "amount",
          "type": "uint256"
        },
        {
          "internalType": "uint256",
          "name": "gameId",
          "type": "uint256"
        }
      ],
      "name": "distributeGamingRewards",
      "outputs": [],
      "stateMutability": "nonpayable",
      "type": "function"
    },
    {
      "inputs": [
        {
          "internalType": "uint256",
          "name": "proposalId",
          "type": "uint256"
        }
      ],
      "name": "executeProposal",
      "outputs": [],
      "stateMutability": "nonpayable",
      "type": "function"
    },
    {
      "inputs": [],
      "name": "gamingCore",
      "outputs": [
        {
          "internalType": "address",
          "name": "",
          "type": "address"
        }
      ],
      "stateMutability": "view",
      "type": "function"
    },
    {
      "inputs": [],
      "name": "gamingRewardRate",
      "outputs": [
        {
          "internalType": "uint256",
          "name": "",
          "type": "uint256"
        }
      ],
      "stateMutability": "view",
      "type": "function"
    },
    {
      "inputs": [],
      "name": "gamingRewardsPool",
      "outputs": [
        {
          "internalType": "uint256",
          "name": "",
          "type": "uint256"
        }
      ],
      "stateMutability": "view",
      "type": "function"
    },
    {
      "inputs": [],
      "name": "getGamingRewardsPool",
      "outputs": [
        {
          "internalType": "uint256",
          "name": "",
          "type": "uint256"
        }
      ],
      "stateMutability": "view",
      "type": "function"
    },
    {
      "inputs": [
        {
          "internalType": "uint256",
          "name": "proposalId",
          "type": "uint256"
        }
      ],
      "name": "getProposal",
      "outputs": [
        {
          "internalType": "address",
          "name": "proposer",
          "type": "address"
        },
        {
          "internalType": "string",
          "name": "description",
          "type": "string"
        },
        {
          "internalType": "uint256",
          "name": "forVotes",
          "type": "uint256"
        },
        {
          "internalType": "uint256",
          "name": "againstVotes",
          "type": "uint256"
        },
        {
          "internalType": "uint256",
          "name": "startTime",
          "type": "uint256"
        },
        {
          "internalType": "uint256",
          "name": "endTime",
          "type": "uint256"
        },
        {
          "internalType": "bool",
          "name": "executed",
          "type": "bool"
        },
        {
          "internalType": "bool",
          "name": "canceled",
          "type": "bool"
        }
      ],
      "stateMutability": "view",
      "type": "function"
    },
    {
      "inputs": [
        {
          "internalType": "uint256",
          "name": "poolId",
          "type": "uint256"
        }
      ],
      "name": "getRewardPool",
      "outputs": [
        {
          "internalType": "uint256",
          "name": "totalRewards",
          "type": "uint256"
        },
        {
          "internalType": "uint256",
          "name": "distributedRewards",
          "type": "uint256"
        },
        {
          "internalType": "uint256",
          "name": "lastUpdateTime",
          "type": "uint256"
        },
        {
          "internalType": "uint256",
          "name": "rewardRate",
          "type": "uint256"
        },
        {
          "internalType": "bool",
          "name": "isActive",
          "type": "bool"
        }
      ],
      "stateMutability": "view",
      "type": "function"
    },
    {
      "inputs": [
        {
          "internalType": "bytes32",
          "name": "role",
          "type": "bytes32"
        }
      ],
      "name": "getRoleAdmin",
      "outputs": [
        {
          "internalType": "bytes32",
          "name": "",
          "type": "bytes32"
        }
      ],
      "stateMutability": "view",
      "type": "function"
    },
    {
      "inputs": [
        {
          "internalType": "address",
          "name": "user",
          "type": "address"
        }
      ],
      "name": "getStakingInfo",
      "outputs": [
        {
          "internalType": "uint256",
          "name": "amount",
          "type": "uint256"
        },
        {
          "internalType": "uint256",
          "name": "startTime",
          "type": "uint256"
        },
        {
          "internalType": "uint256",
          "name": "lastRewardTime",
          "type": "uint256"
        },
        {
          "internalType": "uint256",
          "name": "totalRewards",
          "type": "uint256"
        },
        {
          "internalType": "uint256",
          "name": "lockPeriod",
          "type": "uint256"
        },
        {
          "internalType": "bool",
          "name": "isLocked",
          "type": "bool"
        },
        {
          "internalType": "uint256",
          "name": "pendingRewards",
          "type": "uint256"
        }
      ],
      "stateMutability": "view",
      "type": "function"
    },
    {
      "inputs": [],
      "name": "getTotalProposals",
      "outputs": [
        {
          "internalType": "uint256",
          "name": "",
          "type": "uint256"
        }
      ],
      "stateMutability": "view",
      "type": "function"
    },
    {
      "inputs": [],
      "name": "getTotalRewardPools",
      "outputs": [
        {
          "internalType": "uint256",
          "name": "",
          "type": "uint256"
        }
      ],
      "stateMutability": "view",
      "type": "function"
    },
    {
      "inputs": [
        {
          "internalType": "uint256",
          "name": "proposalId",
          "type": "uint256"
        },
        {
          "internalType": "address",
          "name": "user",
          "type": "address"
        }
      ],
      "name": "getUserVote",
      "outputs": [
        {
          "internalType": "bool",
          "name": "",
          "type": "bool"
        }
      ],
      "stateMutability": "view",
      "type": "function"
    },
    {
      "inputs": [
        {
          "internalType": "uint256",
          "name": "",
          "type": "uint256"
        }
      ],
      "name": "governanceProposals",
      "outputs": [
        {
          "internalType": "uint256",
          "name": "proposalId",
          "type": "uint256"
        },
        {
          "internalType": "address",
          "name": "proposer",
          "type": "address"
        },
        {
          "internalType": "string",
          "name": "description",
          "type": "string"
        },
        {
          "internalType": "uint256",
          "name": "forVotes",
          "type": "uint256"
        },
        {
          "internalType": "uint256",
          "name": "againstVotes",
          "type": "uint256"
        },
        {
          "internalType": "uint256",
          "name": "startTime",
          "type": "uint256"
        },
        {
          "internalType": "uint256",
          "name": "endTime",
          "type": "uint256"
        },
        {
          "internalType": "bool",
          "name": "executed",
          "type": "bool"
        },
        {
          "internalType": "bool",
          "name": "canceled",
          "type": "bool"
        }
      ],
      "stateMutability": "view",
      "type": "function"
    },
    {
      "inputs": [],
      "name": "governanceQuorum",
      "outputs": [
        {
          "internalType": "uint256",
          "name": "",
          "type": "uint256"
        }
      ],
      "stateMutability": "view",
      "type": "function"
    },
    {
      "inputs": [
        {
          "internalType": "bytes32",
          "name": "role",
          "type": "bytes32"
        },
        {
          "internalType": "address",
          "name": "account",
          "type": "address"
        }
      ],
      "name": "grantRole",
      "outputs": [],
      "stateMutability": "nonpayable",
      "type": "function"
    },
    {
      "inputs": [
        {
          "internalType": "bytes32",
          "name": "role",
          "type": "bytes32"
        },
        {
          "internalType": "address",
          "name": "account",
          "type": "address"
        }
      ],
      "name": "hasRole",
      "outputs": [
        {
          "internalType": "bool",
          "name": "",
          "type": "bool"
        }
      ],
      "stateMutability": "view",
      "type": "function"
    },
    {
      "inputs": [
        {
          "internalType": "uint256",
          "name": "proposalId",
          "type": "uint256"
        },
        {
          "internalType": "address",
          "name": "user",
          "type": "address"
        }
      ],
      "name": "hasVoted",
      "outputs": [
        {
          "internalType": "bool",
          "name": "",
          "type": "bool"
        }
      ],
      "stateMutability": "view",
      "type": "function"
    },
    {
      "inputs": [],
      "name": "name",
      "outputs": [
        {
          "internalType": "string",
          "name": "",
          "type": "string"
        }
      ],
      "stateMutability": "view",
      "type": "function"
    },
    {
      "inputs": [],
      "name": "pause",
      "outputs": [],
      "stateMutability": "nonpayable",
      "type": "function"
    },
    {
      "inputs": [],
      "name": "paused",
      "outputs": [
        {
          "internalType": "bool",
          "name": "",
          "type": "bool"
        }
      ],
      "stateMutability": "view",
      "type": "function"
    },
    {
      "inputs": [
        {
          "internalType": "bytes32",
          "name": "role",
          "type": "bytes32"
        },
        {
          "internalType": "address",
          "name": "callerConfirmation",
          "type": "address"
        }
      ],
      "name": "renounceRole",
      "outputs": [],
      "stateMutability": "nonpayable",
      "type": "function"
    },
    {
      "inputs": [
        {
          "internalType": "bytes32",
          "name": "role",
          "type": "bytes32"
        },
        {
          "internalType": "address",
          "name": "account",
          "type": "address"
        }
      ],
      "name": "revokeRole",
      "outputs": [],
      "stateMutability": "nonpayable",
      "type": "function"
    },
    {
      "inputs": [
        {
          "internalType": "uint256",
          "name": "",
          "type": "uint256"
        }
      ],
      "name": "rewardPools",
      "outputs": [
        {
          "internalType": "uint256",
          "name": "totalRewards",
          "type": "uint256"
        },
        {
          "internalType": "uint256",
          "name": "distributedRewards",
          "type": "uint256"
        },
        {
          "internalType": "uint256",
          "name": "lastUpdateTime",
          "type": "uint256"
        },
        {
          "internalType": "uint256",
          "name": "rewardRate",
          "type": "uint256"
        },
        {
          "internalType": "bool",
          "name": "isActive",
          "type": "bool"
        }
      ],
      "stateMutability": "view",
      "type": "function"
    },
    {
      "inputs": [
        {
          "internalType": "uint256",
          "name": "amount",
          "type": "uint256"
        },
        {
          "internalType": "uint256",
          "name": "lockPeriod",
          "type": "uint256"
        }
      ],
      "name": "stake",
      "outputs": [],
      "stateMutability": "nonpayable",
      "type": "function"
    },
    {
      "inputs": [
        {
          "internalType": "address",
          "name": "",
          "type": "address"
        }
      ],
      "name": "stakingInfo",
      "outputs": [
        {
          "internalType": "uint256",
          "name": "amount",
          "type": "uint256"
        },
        {
          "internalType": "uint256",
          "name": "startTime",
          "type": "uint256"
        },
        {
          "internalType": "uint256",
          "name": "lastRewardTime",
          "type": "uint256"
        },
        {
          "internalType": "uint256",
          "name": "totalRewards",
          "type": "uint256"
        },
        {
          "internalType": "uint256",
          "name": "lockPeriod",
          "type": "uint256"
        },
        {
          "internalType": "bool",
          "name": "isLocked",
          "type": "bool"
        }
      ],
      "stateMutability": "view",
      "type": "function"
    },
    {
      "inputs": [],
      "name": "stakingRewardRate",
      "outputs": [
        {
          "internalType": "uint256",
          "name": "",
          "type": "uint256"
        }
      ],
      "stateMutability": "view",
      "type": "function"
    },
    {
      "inputs": [
        {
          "internalType": "bytes4",
          "name": "interfaceId",
          "type": "bytes4"
        }
      ],
      "name": "supportsInterface",
      "outputs": [
        {
          "internalType": "bool",
          "name": "",
          "type": "bool"
        }
      ],
      "stateMutability": "view",
      "type": "function"
    },
    {
      "inputs": [],
      "name": "symbol",
      "outputs": [
        {
          "internalType": "string",
          "name": "",
          "type": "string"
        }
      ],
      "stateMutability": "view",
      "type": "function"
    },
    {
      "inputs": [],
      "name": "totalRewardsDistributed",
      "outputs": [
        {
          "internalType": "uint256",
          "name": "",
          "type": "uint256"
        }
      ],
      "stateMutability": "view",
      "type": "function"
    },
    {
      "inputs": [],
      "name": "totalStaked",
      "outputs": [
        {
          "internalType": "uint256",
          "name": "",
          "type": "uint256"
        }
      ],
      "stateMutability": "view",
      "type": "function"
    },
    {
      "inputs": [],
      "name": "totalSupply",
      "outputs": [
        {
          "internalType": "uint256",
          "name": "",
          "type": "uint256"
        }
      ],
      "stateMutability": "view",
      "type": "function"
    },
    {
      "inputs": [
        {
          "internalType": "address",
          "name": "to",
          "type": "address"
        },
        {
          "internalType": "uint256",
          "name": "value",
          "type": "uint256"
        }
      ],
      "name": "transfer",
      "outputs": [
        {
          "internalType": "bool",
          "name": "",
          "type": "bool"
        }
      ],
      "stateMutability": "nonpayable",
      "type": "function"
    },
    {
      "inputs": [
        {
          "internalType": "address",
          "name": "from",
          "type": "address"
        },
        {
          "internalType": "address",
          "name": "to",
          "type": "address"
        },
        {
          "internalType": "uint256",
          "name": "value",
          "type": "uint256"
        }
      ],
      "name": "transferFrom",
      "outputs": [
        {
          "internalType": "bool",
          "name": "",
          "type": "bool"
        }
      ],
      "stateMutability": "nonpayable",
      "type": "function"
    },
    {
      "inputs": [],
      "name": "treasury",
      "outputs": [
        {
          "internalType": "address",
          "name": "",
          "type": "address"
        }
      ],
      "stateMutability": "view",
      "type": "function"
    },
    {
      "inputs": [],
      "name": "unpause",
      "outputs": [],
      "stateMutability": "nonpayable",
      "type": "function"
    },
    {
      "inputs": [
        {
          "internalType": "uint256",
          "name": "amount",
          "type": "uint256"
        }
      ],
      "name": "unstake",
      "outputs": [],
      "stateMutability": "nonpayable",
      "type": "function"
    },
    {
      "inputs": [
        {
          "internalType": "address",
          "name": "newOracle",
          "type": "address"
        }
      ],
      "name": "updateAIOracle",
      "outputs": [],
      "stateMutability": "nonpayable",
      "type": "function"
    },
    {
      "inputs": [
        {
          "internalType": "address",
          "name": "newGamingCore",
          "type": "address"
        }
      ],
      "name": "updateGamingCore",
      "outputs": [],
      "stateMutability": "nonpayable",
      "type": "function"
    },
    {
      "inputs": [
        {
          "internalType": "uint256",
          "name": "newQuorum",
          "type": "uint256"
        }
      ],
      "name": "updateGovernanceQuorum",
      "outputs": [],
      "stateMutability": "nonpayable",
      "type": "function"
    },
    {
      "inputs": [
        {
          "internalType": "uint256",
          "name": "newRate",
          "type": "uint256"
        }
      ],
      "name": "updateStakingRewardRate",
      "outputs": [],
      "stateMutability": "nonpayable",
      "type": "function"
    },
    {
      "inputs": [
        {
          "internalType": "uint256",
          "name": "proposalId",
          "type": "uint256"
        },
        {
          "internalType": "bool",
          "name": "support",
          "type": "bool"
        }
      ],
      "name": "vote",
      "outputs": [],
      "stateMutability": "nonpayable",
      "type": "function"
    }
  ],
  "bytecode": "0x604060808152346200049a57620041c6803803806200001e816200049f565b928339810160c0828203126200049a5781516001600160401b0392908381116200049a578262000050918301620004c5565b9260209283830151908282116200049a576200006e918401620004c5565b916200007c86820162000537565b946200008b6060830162000537565b90620000a860a0620000a06080860162000537565b940162000537565b93815181811162000397576003908154906001948583811c931680156200048f575b8b841014620004795781908b601f9485811162000420575b50508b90848311600114620003b957600092620003ad575b505060001982851b1c191690851b1782555b8751928311620003975760049788548581811c911680156200038c575b8b82101462000377578281116200032c575b5089918411600114620002af579280620001ec9693620001f399989693620001e596600093620002a3575b505082841b92600019911b1c19161788555b600755600a600855600560095569152d02c7e14af6800000600a55620001de60018060a01b039960018060a01b03199a8084168c60135416176013558086168c60145416176014558716809b6015541617601555620001d7816200054c565b50620005cd565b5062000670565b506200070e565b50620007ac565b5082156200028c57620002056200084a565b6200020f6200084a565b6002546b033b2e3c9fd0803ce80000009182820180921162000277575060025560008381528083528481208054830190558451918252917fddf252ad1be2c89b69c2b068fc378daa952ba7f163c4a11628f55a4df523b3ef91a35161393c90816200086a8239f35b601190634e487b7160e01b6000525260246000fd5b602490600085519163ec442f0560e01b8352820152fd5b01519150388062000166565b9190601f19841692896000528a6000209360005b8c82821062000317575050938693620001f39a9997938793620001e598620001ec9b9810620002fc575b50505050811b01885562000178565b01519060f884600019921b161c1916905538808080620002ed565b838501518755958801959384019301620002c3565b896000528a6000208380870160051c8201928d88106200036d575b0160051c019086905b828110620003605750506200013b565b6000815501869062000350565b9250819262000347565b60228a634e487b7160e01b6000525260246000fd5b90607f169062000129565b634e487b7160e01b600052604160045260246000fd5b015190503880620000fa565b60008681528d8120899550929190601f198516908f5b828210620004085750508411620003ef575b505050811b0182556200010c565b015160001983871b60f8161c19169055388080620003e1565b8385015186558b979095019493840193018f620003cf565b909192508560005284826000209181860160051c83019386106200046f575b918991869594930160051c01915b8281106200045f57508d9150620000e2565b600081558594508991016200044d565b925081926200043f565b634e487b7160e01b600052602260045260246000fd5b92607f1692620000ca565b600080fd5b6040519190601f01601f191682016001600160401b038111838210176200039757604052565b919080601f840112156200049a5782516001600160401b0381116200039757602090620004fb601f8201601f191683016200049f565b928184528282870101116200049a5760005b8181106200052357508260009394955001015290565b85810183015184820184015282016200050d565b51906001600160a01b03821682036200049a57565b6001600160a01b031660008181527f54cdd369e4e8a8515e52ca72ec816c2101831ad1f18bf44102ed171459c9b4f8602052604081205490919060ff16620005c95781805260066020526040822081835260205260408220600160ff198254161790553391600080516020620041a68339815191528180a4600190565b5090565b6001600160a01b031660008181527f3195c024b2ddd6d9b8f6c836aa52f67fe69376c8903d009b80229b3ce4425f5160205260408120549091907f9f2df0fed2c77648de5860a4cc508cd0818c85b8b8a1ab4ceeef8d981c8956a69060ff166200066b5780835260066020526040832082845260205260408320600160ff19825416179055600080516020620041a6833981519152339380a4600190565b505090565b6001600160a01b031660008181527f7ceb9c5220fc169673fcd5d384c42766ccf895d15d874112de3d0bfb8758d05c60205260408120549091907f5786d20923d975b495e0b9bf9c86e71a73430879fd73e8b5cd4cc01b7bf7b07e9060ff166200066b5780835260066020526040832082845260205260408320600160ff19825416179055600080516020620041a6833981519152339380a4600190565b6001600160a01b031660008181527ffc10e37a5e4c2daed48b25ed9bc439e15761d622f0c26fc3ca738ea45b2f00f960205260408120549091907f482648e7878e9fa54c0a2f67ffd22d00ebc37cf7a03e060e428d2ab0cd6735cc9060ff166200066b5780835260066020526040832082845260205260408320600160ff19825416179055600080516020620041a6833981519152339380a4600190565b6001600160a01b031660008181527f21b746f97e1679a3e88a18d3dec6befa7bbc6f2977a2ecb1c7917139835d6aee60205260408120549091907fe1dcbdb91df27212a29bc27177c840cf2f819ecf2187432e1fac86c2dd5dfca99060ff166200066b5780835260066020526040832082845260205260408320600160ff19825416179055600080516020620041a6833981519152339380a4600190565b60ff600554166200085757565b60405163d93c066560e01b8152600490fdfe608060408181526004918236101561001657600080fd5b600092833560e01c91826301ffc9a714612b225750816303c7881a14612aae57816304b7c1f014612a6e57816306fdde031461295f578163095ea7b31461285a5781630d61b519146125a157816318160ddd146125645781631a5007dd14612527578163219d46e61461108057816323b872dd146124cc578163248a9ca3146124835781632e17de78146122e55781632f2ff15d1461229d5781632ff2e9dc14612258578163313ce5671461221e57816331b221cd146121cb57816332cb6b0c1461218657816335facf7814611d0557816336568abe14611c7b5781633f2df4ad14611b615781633f4ba83a14611aa257816342966c6814611a6657816343859632146119f2578163456aaa3f1461194957816346abf391146115fe5781634d745f0d146117a85781634d76724a1461176b5781634f3fc2df1461172e5781635c975abb146116ec5781635ca1142a146116855781635cfa91f4146115fe57816361d027b3146115ab57816368ff1b90146115585781636b69e05b146115105781636fb15a3d146113f657816370a082311461139557816379cc6790146113445781637b0472f014611191578163817b1cd2146111545781638456cb59146110bd57816391c3a7d11461108057816391d148541461100f57816394b438be14610fd257816394eecb5014610f3557816395d89b4114610e0e5781639cccdbc614610db5578163a217fddf14610d7c578163a9059cbb14610d2d578163aa4704f314610c80578163c2bd935214610a60578163c601f7af14610a07578163c7f758a81461093e578163c9d27afe146105e7578163d11a57ec1461058e578163d35eaee8146104b8578163d47768de1461046d578163d539139314610414578163d547741f146103b257508063dd62ed3e1461033f578063ee172546146103035763f880f9de146102c457600080fd5b346102ff57817ffffffffffffffffffffffffffffffffffffffffffffffffffffffffffffffffc3601126102ff57602090600a549051908152f35b5080fd5b50346102ff57817ffffffffffffffffffffffffffffffffffffffffffffffffffffffffffffffffc3601126102ff576020906011549051908152f35b50346102ff57807ffffffffffffffffffffffffffffffffffffffffffffffffffffffffffffffffc3601126102ff578060209261037a612c06565b610382612bde565b73ffffffffffffffffffffffffffffffffffffffff91821683526001865283832091168252845220549051908152f35b9190503461041057807ffffffffffffffffffffffffffffffffffffffffffffffffffffffffffffffffc3601126104105761040c913561040760016103f5612bde565b93838752600660205286200154612eb4565b613138565b5080f35b8280fd5b5050346102ff57817ffffffffffffffffffffffffffffffffffffffffffffffffffffffffffffffffc3601126102ff57602090517f9f2df0fed2c77648de5860a4cc508cd0818c85b8b8a1ab4ceeef8d981c8956a68152f35b5050346102ff5760207ffffffffffffffffffffffffffffffffffffffffffffffffffffffffffffffffc3601126102ff576020906104b16104ac612c06565b613779565b9051908152f35b82843461058b5760207ffffffffffffffffffffffffffffffffffffffffffffffffffffffffffffffffc36011261058b57819083358152600d602052209160ff83549273ffffffffffffffffffffffffffffffffffffffff6001860154169461052360028201612d7e565b60038201549482015461055c600584015492600760068601549501549580519a8b9a8b5260208b015261012080918b0152890190612c29565b956060880152608087015260a086015260c0850152818116151560e085015260081c1615156101008301520390f35b80fd5b5050346102ff57817ffffffffffffffffffffffffffffffffffffffffffffffffffffffffffffffffc3601126102ff57602090517fe1dcbdb91df27212a29bc27177c840cf2f819ecf2187432e1fac86c2dd5dfca98152f35b839150346102ff57827ffffffffffffffffffffffffffffffffffffffffffffffffffffffffffffffffc3601126102ff578035906024908135948515159283870361093a57848652602092600d8452828720906106468254151561386b565b600582015442106108df576006820154421161088457600882019833895289865260ff858a20541661082957600783015460ff811615908161081a575b50156107bf573389528886528489205493841561076457507fd356173ae8eeea8691aee4c1be712c314a975a3d43ebc48b08ca54d0dac9122896979899338b528652848a2060017fffffffffffffffffffffffffffffffffffffffffffffffffffffffffffffff0082541617905560098301865261072e81868c209060ff7fffffffffffffffffffffffffffffffffffffffffffffffffffffffffffffff0083541691151516179055565b15610750575060036107439101918254613563565b90555b519283523392a380f35b61075d9101918254613563565b9055610746565b82600f606492898951937f08c379a00000000000000000000000000000000000000000000000000000000085528401528201527f4e6f20766f74696e6720706f77657200000000000000000000000000000000006044820152fd5b606482601386898951937f08c379a00000000000000000000000000000000000000000000000000000000085528401528201527f50726f706f73616c206e6f7420616374697665000000000000000000000000006044820152fd5b60ff915060081c16158b610683565b606482600d86898951937f08c379a00000000000000000000000000000000000000000000000000000000085528401528201527f416c726561647920766f746564000000000000000000000000000000000000006044820152fd5b606490600c84878751937f08c379a00000000000000000000000000000000000000000000000000000000085528401528201527f566f74696e6720656e64656400000000000000000000000000000000000000006044820152fd5b606490601284878751937f08c379a00000000000000000000000000000000000000000000000000000000085528401528201527f566f74696e67206e6f74207374617274656400000000000000000000000000006044820152fd5b8580fd5b82843461058b5760207ffffffffffffffffffffffffffffffffffffffffffffffffffffffffffffffffc36011261058b57819083358152600d602052209060ff73ffffffffffffffffffffffffffffffffffffffff6001840154169260038101549481015460058201546006830154916109bf600260078601549501612d7e565b976109db8751998a998a526101008060208c01528a0190612c29565b968801526060870152608086015260a0850152818116151560c085015260081c16151560e08301520390f35b5050346102ff57817ffffffffffffffffffffffffffffffffffffffffffffffffffffffffffffffffc3601126102ff57602090517f482648e7878e9fa54c0a2f67ffd22d00ebc37cf7a03e060e428d2ab0cd6735cc8152f35b82843461058b57610a7036612cf7565b7fe1dcbdb91df27212a29bc27177c840cf2f819ecf2187432e1fac86c2dd5dfca99485845260209560068752858520338652875260ff868620541615610c4a57508215610bc9578115610b47578493927febe2a9439f298ded6e2a2317aff8343fb0e8537b464bffb788523bef3d329def928592610aef600f5461383e565b97889687600f55878152600c8b52208381558260038201554260028201550160017fffffffffffffffffffffffffffffffffffffffffffffffffffffffffffffff00825416179055825191825287820152a251908152f35b608490868651917f08c379a0000000000000000000000000000000000000000000000000000000008352820152602260248201527f5265776172642072617465206d7573742062652067726561746572207468616e60448201527f20300000000000000000000000000000000000000000000000000000000000006064820152fd5b608490868651917f08c379a00000000000000000000000000000000000000000000000000000000083528201526024808201527f546f74616c2072657761726473206d757374206265206772656174657220746860448201527f616e2030000000000000000000000000000000000000000000000000000000006064820152fd5b604492508551917fe2517d3f00000000000000000000000000000000000000000000000000000000835233908301526024820152fd5b919050346104105760207ffffffffffffffffffffffffffffffffffffffffffffffffffffffffffffffffc3601126104105760e09281610cbe612c06565b9173ffffffffffffffffffffffffffffffffffffffff83168152600b60205220805493600182015493600283015490610d0760ff60056003870154958701549601541695613779565b958151978852602088015286015260608501526080840152151560a083015260c0820152f35b5050346102ff57807ffffffffffffffffffffffffffffffffffffffffffffffffffffffffffffffffc3601126102ff57602090610d75610d6b612c06565b60243590336131db565b5160018152f35b5050346102ff57817ffffffffffffffffffffffffffffffffffffffffffffffffffffffffffffffffc3601126102ff5751908152602090f35b5050346102ff57817ffffffffffffffffffffffffffffffffffffffffffffffffffffffffffffffffc3601126102ff57602090517f5786d20923d975b495e0b9bf9c86e71a73430879fd73e8b5cd4cc01b7bf7b07e8152f35b9190503461041057827ffffffffffffffffffffffffffffffffffffffffffffffffffffffffffffffffc3601126104105780519183815490610e4f82612d2b565b80865292600192808416908115610eec5750600114610e90575b610e8c8686610e7a828b0383612c87565b51918291602083526020830190612c29565b0390f35b815294507f8a35acfbc15ff81a39ae7d344fd709f28e8600b4aa8c65c6b64bfe7fe36bd19b5b828610610ed457505050610e7a826020610e8c958201019438610e69565b80546020878701810191909152909501948101610eb6565b610e8c985087945060209350610e7a9592507fffffffffffffffffffffffffffffffffffffffffffffffffffffffffffffff0091501682840152151560051b8201019438610e69565b919050346104105760207ffffffffffffffffffffffffffffffffffffffffffffffffffffffffffffffffc360112610410578060c09373ffffffffffffffffffffffffffffffffffffffff610f88612c06565b168152600b6020522080549260018201549260028301549060ff600560038601549486015495015416948151968752602087015285015260608401526080830152151560a0820152f35b5050346102ff57817ffffffffffffffffffffffffffffffffffffffffffffffffffffffffffffffffc3601126102ff576020906009549051908152f35b90503461041057817ffffffffffffffffffffffffffffffffffffffffffffffffffffffffffffffffc360112610410578160209360ff9261104e612bde565b903582526006865273ffffffffffffffffffffffffffffffffffffffff83832091168252855220541690519015158152f35b5050346102ff57817ffffffffffffffffffffffffffffffffffffffffffffffffffffffffffffffffc3601126102ff576020906012549051908152f35b5050346102ff57817ffffffffffffffffffffffffffffffffffffffffffffffffffffffffffffffffc3601126102ff5760207f62e78cea01bee320cd4e420270b5ea74000d11b0c9f74754ebdbfc544b05a25891611119612e43565b6111216138d0565b60017fffffffffffffffffffffffffffffffffffffffffffffffffffffffffffffff00600554161760055551338152a180f35b5050346102ff57817ffffffffffffffffffffffffffffffffffffffffffffffffffffffffffffffffc3601126102ff576020906010549051908152f35b91905034610410576111a236612cf7565b90926111ac61359f565b83156112e7573385528460205283838620541061128a57906112587fdd2a19c3bdd089cbe77c04f5655f83de0504d6140d12c8667646f55d0557c4dc9392338752600b6020528284882091825461127c575b6112098830336131db565b611214888454613563565b83554260018401819055600284015582015560050180547fffffffffffffffffffffffffffffffffffffffffffffffffffffffffffffff001683151560ff16179055565b61126484601054613563565b601055815193845260208401523392a2600160075580f35b611285336135e7565b6111fe565b60649060208451917f08c379a0000000000000000000000000000000000000000000000000000000008352820152601460248201527f496e73756666696369656e742062616c616e63650000000000000000000000006044820152fd5b60649060208451917f08c379a0000000000000000000000000000000000000000000000000000000008352820152601d60248201527f416d6f756e74206d7573742062652067726561746572207468616e20300000006044820152fd5b5050346102ff577ffffffffffffffffffffffffffffffffffffffffffffffffffffffffffffffffc36011261058b5761139261137e612c06565b6024359061138d82338361332c565b613481565b80f35b5050346102ff5760207ffffffffffffffffffffffffffffffffffffffffffffffffffffffffffffffffc3601126102ff578060209273ffffffffffffffffffffffffffffffffffffffff6113e7612c06565b16815280845220549051908152f35b9050346104105760207ffffffffffffffffffffffffffffffffffffffffffffffffffffffffffffffffc3601126104105761142f612c06565b90611438612e43565b73ffffffffffffffffffffffffffffffffffffffff82169283156114b357505061148b90827fffffffffffffffffffffffff00000000000000000000000000000000000000006013541617601355612fb8565b507f55625940a49f43d14f7272ac744ca4d043456c0ac89d3e889196d6ffb6d1c9f88280a280f35b90602060649251917f08c379a0000000000000000000000000000000000000000000000000000000008352820152601b60248201527f496e76616c69642067616d696e6720636f7265206164647265737300000000006044820152fd5b833461058b57807ffffffffffffffffffffffffffffffffffffffffffffffffffffffffffffffffc36011261058b5761154761359f565b611550336135e7565b600160075580f35b5050346102ff57817ffffffffffffffffffffffffffffffffffffffffffffffffffffffffffffffffc3601126102ff5760209073ffffffffffffffffffffffffffffffffffffffff601354169051908152f35b5050346102ff57817ffffffffffffffffffffffffffffffffffffffffffffffffffffffffffffffffc3601126102ff5760209073ffffffffffffffffffffffffffffffffffffffff601554169051908152f35b82843461058b5760207ffffffffffffffffffffffffffffffffffffffffffffffffffffffffffffffffc36011261058b5781610e8c9184358152600c602052209182549260018101549460ff60028301549160038401549301541692519586958693909594919260809360a086019786526020860152604085015260608401521515910152565b8390346102ff5760207ffffffffffffffffffffffffffffffffffffffffffffffffffffffffffffffffc3601126102ff576116e6906116dd73ffffffffffffffffffffffffffffffffffffffff6013541633146137d9565b35601254613563565b60125580f35b5050346102ff57817ffffffffffffffffffffffffffffffffffffffffffffffffffffffffffffffffc3601126102ff5760209060ff6005541690519015158152f35b5050346102ff57817ffffffffffffffffffffffffffffffffffffffffffffffffffffffffffffffffc3601126102ff576020906008549051908152f35b5050346102ff57817ffffffffffffffffffffffffffffffffffffffffffffffffffffffffffffffffc3601126102ff57602090600f549051908152f35b8383346102ff5760607ffffffffffffffffffffffffffffffffffffffffffffffffffffffffffffffffc3601126102ff576117e1612c06565b906024359173ffffffffffffffffffffffffffffffffffffffff9061180b826013541633146137d9565b83156118c7576012549584871061186a575061184a847fb5e4f889bc9c5183de656ed513bc956edb35a92875932af60f50d28cd9bab1479596976135da565b60125561185785826136eb565b825194855260443560208601521692a280f35b60649060208551917f08c379a0000000000000000000000000000000000000000000000000000000008352820152602060248201527f496e73756666696369656e742067616d696e67207265776172647320706f6f6c6044820152fd5b60848660208551917f08c379a00000000000000000000000000000000000000000000000000000000083528201526024808201527f52657761726420616d6f756e74206d757374206265206772656174657220746860448201527f616e2030000000000000000000000000000000000000000000000000000000006064820152fd5b9050346104105760207ffffffffffffffffffffffffffffffffffffffffffffffffffffffffffffffffc36011261041057803591611985612e43565b6032831161199557505060085580f35b90602060649251917f08c379a0000000000000000000000000000000000000000000000000000000008352820152601460248201527f526577617264207261746520746f6f20686967680000000000000000000000006044820152fd5b90503461041057817ffffffffffffffffffffffffffffffffffffffffffffffffffffffffffffffffc360112610410578160209360ff92611a31612bde565b90358252600d865273ffffffffffffffffffffffffffffffffffffffff60088484200191168252855220541690519015158152f35b8390346102ff5760207ffffffffffffffffffffffffffffffffffffffffffffffffffffffffffffffffc3601126102ff57611392903533613481565b90503461041057827ffffffffffffffffffffffffffffffffffffffffffffffffffffffffffffffffc36011261041057611ada612e43565b6005549060ff821615611b3a57507f5db9ee0a495bf2e6ff9c91a7834c1ba4fdd244a5e8aa4e537bd38aeae4b073aa917fffffffffffffffffffffffffffffffffffffffffffffffffffffffffffffff006020921660055551338152a180f35b82517f8dfc202b000000000000000000000000000000000000000000000000000000008152fd5b9050346104105760207ffffffffffffffffffffffffffffffffffffffffffffffffffffffffffffffffc36011261041057611b9a612c06565b90611ba3612e43565b73ffffffffffffffffffffffffffffffffffffffff8216928315611c1e575050611bf690827fffffffffffffffffffffffff00000000000000000000000000000000000000006014541617601455612eda565b507f01db34cc1fec70288d8d48ba67dae8f2c3cfc760b51fb6d30300257d7f7911b38280a280f35b90602060649251917f08c379a0000000000000000000000000000000000000000000000000000000008352820152601660248201527f496e76616c6964206f7261636c652061646472657373000000000000000000006044820152fd5b8383346102ff57807ffffffffffffffffffffffffffffffffffffffffffffffffffffffffffffffffc3601126102ff57611cb3612bde565b903373ffffffffffffffffffffffffffffffffffffffff831603611cdd575061040c919235613138565b8390517f6697b232000000000000000000000000000000000000000000000000000000008152fd5b8383346102ff57807ffffffffffffffffffffffffffffffffffffffffffffffffffffffffffffffffc3601126102ff5782359167ffffffffffffffff9081841161058b573660238501121561058b578385013582811161215a578351926020967fffffffffffffffffffffffffffffffffffffffffffffffffffffffffffffffe092611d988985601f8401160187612c87565b8086526024973689838301011161093a578186928a8c9301838a01378701015286359133855284895286852054600a805404116120ff578551156120a45782151580612097575b1561203c57611def600e5461383e565b9788600e55888652600d8a5287862094898655600191828701337fffffffffffffffffffffffff000000000000000000000000000000000000000082541617905560028701948951948511612012575050611e4a8454612d2b565b601f8111611fcc575b508a90601f8411600114611f475750908280611eb19695949360079992611f1c575b507fffffffffffffffffffffffffffffffffffffffffffffffffffffffffffffffff91921b9260031b1c19161790555b42600584015542613563565b6006820155017fffffffffffffffffffffffffffffffffffffffffffffffffffffffffffff00008154169055827f2a37d3030fcbaa75731bde68145623378fc80f9fc53fca6b13a56a714d13a68e835186815280611f13339589830190612c29565b0390a351908152f35b8a015191507fffffffffffffffffffffffffffffffffffffffffffffffffffffffffffffffff611e75565b83979294959697168583528b8320925b8c828210611fb8575050918391611eb1969460079998969410611f81575b5050811b019055611ea5565b8901517fffffffffffffffffffffffffffffffffffffffffffffffffffffffffffffffff60f88460031b161c191690558b80611f75565b8a8401518555938601939283019201611f57565b8488528b8820601f850160051c8101918d8610612008575b601f0160051c019083905b828110611ffd575050611e53565b898155018390611fef565b9091508190611fe4565b604189917f4e487b7100000000000000000000000000000000000000000000000000000000835252fd5b60648260108a8c8b51937f08c379a00000000000000000000000000000000000000000000000000000000085528401528201527f496e76616c6964206475726174696f6e000000000000000000000000000000006044820152fd5b5062093a80831115611ddf565b606482601b8a8c8b51937f08c379a00000000000000000000000000000000000000000000000000000000085528401528201527f4465736372697074696f6e2063616e6e6f7420626520656d70747900000000006044820152fd5b606482601e8a8c8b51937f08c379a00000000000000000000000000000000000000000000000000000000085528401528201527f496e73756666696369656e7420746f6b656e7320746f2070726f706f736500006044820152fd5b6024826041887f4e487b7100000000000000000000000000000000000000000000000000000000835252fd5b5050346102ff57817ffffffffffffffffffffffffffffffffffffffffffffffffffffffffffffffffc3601126102ff57602090516b06765c793fa10079d00000008152f35b5050346102ff57817ffffffffffffffffffffffffffffffffffffffffffffffffffffffffffffffffc3601126102ff5760209073ffffffffffffffffffffffffffffffffffffffff601454169051908152f35b5050346102ff57817ffffffffffffffffffffffffffffffffffffffffffffffffffffffffffffffffc3601126102ff576020905160128152f35b5050346102ff57817ffffffffffffffffffffffffffffffffffffffffffffffffffffffffffffffffc3601126102ff57602090516b033b2e3c9fd0803ce80000008152f35b9190503461041057807ffffffffffffffffffffffffffffffffffffffffffffffffffffffffffffffffc3601126104105761040c91356122e060016103f5612bde565b613091565b919050346104105760207ffffffffffffffffffffffffffffffffffffffffffffffffffffffffffffffffc3601126104105781359161232261359f565b338452600b60205281842090838254106124265760ff6005830154166123b0575b509060037f6f2d3e000c89d37446b7c0374c0125068ff316d1e3ee302336478a8cd03c233692612372336135e7565b61237d8582546135da565b815561238b856010546135da565b6010556123998533306131db565b0154815193845260208401523392a2600160075580f35b6123c260018301548284015490613563565b4210156123435760649060208451917f08c379a0000000000000000000000000000000000000000000000000000000008352820152601160248201527f546f6b656e7320617265206c6f636b65640000000000000000000000000000006044820152fd5b60649060208451917f08c379a0000000000000000000000000000000000000000000000000000000008352820152601a60248201527f496e73756666696369656e74207374616b656420616d6f756e740000000000006044820152fd5b9050346104105760207ffffffffffffffffffffffffffffffffffffffffffffffffffffffffffffffffc3601126104105781602093600192358152600685522001549051908152f35b5050346102ff5760607ffffffffffffffffffffffffffffffffffffffffffffffffffffffffffffffffc3601126102ff57602090610d7561250b612c06565b612513612bde565b6044359161252283338361332c565b6131db565b5050346102ff57817ffffffffffffffffffffffffffffffffffffffffffffffffffffffffffffffffc3601126102ff57602090600e549051908152f35b5050346102ff57817ffffffffffffffffffffffffffffffffffffffffffffffffffffffffffffffffc3601126102ff576020906002549051908152f35b91905034610410576020807ffffffffffffffffffffffffffffffffffffffffffffffffffffffffffffffffc36011261285657823592838552600d8252828520916125ee8354151561386b565b60068301544211156127fa57600783019384549360ff851661279e5760ff8560081c166127425783600382015491015490818111156126e5579061263191613563565b600a541161268a575050507fffffffffffffffffffffffffffffffffffffffffffffffffffffffffffffff001660011790557f712ae1383f79ac853f8d882153778e0260ef8f03b504e2866e0593e04d2b291f8280a280f35b6064935051917f08c379a0000000000000000000000000000000000000000000000000000000008352820152601260248201527f51756f72756d206e6f74207265616368656400000000000000000000000000006044820152fd5b50506064935051917f08c379a0000000000000000000000000000000000000000000000000000000008352820152601360248201527f50726f706f73616c206e6f7420706173736564000000000000000000000000006044820152fd5b506064935051917f08c379a0000000000000000000000000000000000000000000000000000000008352820152601160248201527f50726f706f73616c2063616e63656c65640000000000000000000000000000006044820152fd5b506064935051917f08c379a0000000000000000000000000000000000000000000000000000000008352820152601960248201527f50726f706f73616c20616c7265616479206578656375746564000000000000006044820152fd5b606492508351917f08c379a0000000000000000000000000000000000000000000000000000000008352820152601060248201527f566f74696e67206e6f7420656e646564000000000000000000000000000000006044820152fd5b8380fd5b90503461041057817ffffffffffffffffffffffffffffffffffffffffffffffffffffffffffffffffc36011261041057612892612c06565b6024359033156129305773ffffffffffffffffffffffffffffffffffffffff1691821561290157508083602095338152600187528181208582528752205582519081527f8c5be1e5ebec7d5bd14f71427d1e84f3dd0314c0f7b2291e5b200ac8c7c3b925843392a35160018152f35b602490858551917f94280d62000000000000000000000000000000000000000000000000000000008352820152fd5b602483868651917fe602df05000000000000000000000000000000000000000000000000000000008352820152fd5b5050346102ff57817ffffffffffffffffffffffffffffffffffffffffffffffffffffffffffffffffc3601126102ff578051908260035461299f81612d2b565b80855291600191808316908115612a2857506001146129cb575b505050610e7a82610e8c940383612c87565b9450600385527fc2575a0e9e593c00f959f8c92f12db2869c3395a3b0502d05e2516446f71f85b5b828610612a1057505050610e7a826020610e8c95820101946129b9565b805460208787018101919091529095019481016129f3565b610e8c975086935060209250610e7a9491507fffffffffffffffffffffffffffffffffffffffffffffffffffffffffffffff001682840152151560051b820101946129b9565b8390346102ff5760207ffffffffffffffffffffffffffffffffffffffffffffffffffffffffffffffffc3601126102ff57612aa7612e43565b35600a5580f35b90503461041057817ffffffffffffffffffffffffffffffffffffffffffffffffffffffffffffffffc360112610410578160209360ff92612aed612bde565b90358252600d865273ffffffffffffffffffffffffffffffffffffffff60098484200191168252855220541690519015158152f35b8491346104105760207ffffffffffffffffffffffffffffffffffffffffffffffffffffffffffffffffc36011261041057357fffffffff00000000000000000000000000000000000000000000000000000000811680910361041057602092507f7965db0b000000000000000000000000000000000000000000000000000000008114908115612bb4575b5015158152f35b7f01ffc9a70000000000000000000000000000000000000000000000000000000091501483612bad565b6024359073ffffffffffffffffffffffffffffffffffffffff82168203612c0157565b600080fd5b6004359073ffffffffffffffffffffffffffffffffffffffff82168203612c0157565b919082519283825260005b848110612c735750507fffffffffffffffffffffffffffffffffffffffffffffffffffffffffffffffe0601f8460006020809697860101520116010190565b602081830181015184830182015201612c34565b90601f7fffffffffffffffffffffffffffffffffffffffffffffffffffffffffffffffe0910116810190811067ffffffffffffffff821117612cc857604052565b7f4e487b7100000000000000000000000000000000000000000000000000000000600052604160045260246000fd5b7ffffffffffffffffffffffffffffffffffffffffffffffffffffffffffffffffc6040910112612c01576004359060243590565b90600182811c92168015612d74575b6020831014612d4557565b7f4e487b7100000000000000000000000000000000000000000000000000000000600052602260045260246000fd5b91607f1691612d3a565b9060405191826000825492612d9284612d2b565b908184526001948581169081600014612e015750600114612dbe575b5050612dbc92500383612c87565b565b9093915060005260209081600020936000915b818310612de9575050612dbc93508201013880612dae565b85548884018501529485019487945091830191612dd1565b9050612dbc9550602093507fffffffffffffffffffffffffffffffffffffffffffffffffffffffffffffff0091501682840152151560051b8201013880612dae565b3360009081527f54cdd369e4e8a8515e52ca72ec816c2101831ad1f18bf44102ed171459c9b4f8602052604081205460ff1615612e7d5750565b604490604051907fe2517d3f0000000000000000000000000000000000000000000000000000000082523360048301526024820152fd5b80600052600660205260406000203360005260205260ff6040600020541615612e7d5750565b73ffffffffffffffffffffffffffffffffffffffff1660008181527ffc10e37a5e4c2daed48b25ed9bc439e15761d622f0c26fc3ca738ea45b2f00f960205260408120549091907f482648e7878e9fa54c0a2f67ffd22d00ebc37cf7a03e060e428d2ab0cd6735cc9060ff16612fb3578083526006602052604083208284526020526040832060017fffffffffffffffffffffffffffffffffffffffffffffffffffffffffffffff008254161790557f2f8788117e7eff1d82e926ec794901d17c78024a50270940304540a733656f0d339380a4600190565b505090565b73ffffffffffffffffffffffffffffffffffffffff1660008181527f7ceb9c5220fc169673fcd5d384c42766ccf895d15d874112de3d0bfb8758d05c60205260408120549091907f5786d20923d975b495e0b9bf9c86e71a73430879fd73e8b5cd4cc01b7bf7b07e9060ff16612fb3578083526006602052604083208284526020526040832060017fffffffffffffffffffffffffffffffffffffffffffffffffffffffffffffff008254161790557f2f8788117e7eff1d82e926ec794901d17c78024a50270940304540a733656f0d339380a4600190565b90600091808352600660205273ffffffffffffffffffffffffffffffffffffffff6040842092169182845260205260ff60408420541615600014612fb3578083526006602052604083208284526020526040832060017fffffffffffffffffffffffffffffffffffffffffffffffffffffffffffffff008254161790557f2f8788117e7eff1d82e926ec794901d17c78024a50270940304540a733656f0d339380a4600190565b90600091808352600660205273ffffffffffffffffffffffffffffffffffffffff6040842092169182845260205260ff604084205416600014612fb357808352600660205260408320828452602052604083207fffffffffffffffffffffffffffffffffffffffffffffffffffffffffffffff0081541690557ff6391f5c32d9c69d2a47ea670b442974b53935d1edc7fd64eb21e047a839171b339380a4600190565b9173ffffffffffffffffffffffffffffffffffffffff8084169283156132fb57169283156132ca5761320b6138d0565b6132136138d0565b60009083825281602052604082205490838210613272575091604082827fddf252ad1be2c89b69c2b068fc378daa952ba7f163c4a11628f55a4df523b3ef958760209652828652038282205586815220818154019055604051908152a3565b6040517fe450d38c00000000000000000000000000000000000000000000000000000000815273ffffffffffffffffffffffffffffffffffffffff919091166004820152602481019190915260448101839052606490fd5b60246040517fec442f0500000000000000000000000000000000000000000000000000000000815260006004820152fd5b60246040517f96c6fd1e00000000000000000000000000000000000000000000000000000000815260006004820152fd5b9173ffffffffffffffffffffffffffffffffffffffff8093169160009383855260016020526040938486209183169182875260205284862054927fffffffffffffffffffffffffffffffffffffffffffffffffffffffffffffffff8410613397575b50505050505050565b84841061342b575080156133fb5781156133cb5785526001602052838520908552602052039120553880808080808061338e565b6024868651907f94280d620000000000000000000000000000000000000000000000000000000082526004820152fd5b6024868651907fe602df050000000000000000000000000000000000000000000000000000000082526004820152fd5b85517ffb8f41b200000000000000000000000000000000000000000000000000000000815273ffffffffffffffffffffffffffffffffffffffff9190911660048201526024810184905260448101859052606490fd5b9073ffffffffffffffffffffffffffffffffffffffff82169081156132fb576134a86138d0565b6134b06138d0565b6000928284528360205260408420549082821061350b5750817fddf252ad1be2c89b69c2b068fc378daa952ba7f163c4a11628f55a4df523b3ef926020928587528684520360408620558060025403600255604051908152a3565b6040517fe450d38c00000000000000000000000000000000000000000000000000000000815273ffffffffffffffffffffffffffffffffffffffff919091166004820152602481019190915260448101829052606490fd5b9190820180921161357057565b7f4e487b7100000000000000000000000000000000000000000000000000000000600052601160045260246000fd5b6002600754146135b0576002600755565b60046040517f3ee5aeb5000000000000000000000000000000000000000000000000000000008152fd5b9190820391821161357057565b73ffffffffffffffffffffffffffffffffffffffff81169081600052600b602052604060002080541561368d5761361d82613779565b80613629575b50505050565b61367d817ffc30cddea38e2bf4d6ea7d3f9ed3b6ad7f176419f4963bd81318067a4aee73fe9484600360209601613661848254613563565b905560024291015561367582601154613563565b6011556136eb565b604051908152a238808080613623565b60646040517f08c379a000000000000000000000000000000000000000000000000000000000815260206004820152601060248201527f4e6f20746f6b656e73207374616b6564000000000000000000000000000000006044820152fd5b73ffffffffffffffffffffffffffffffffffffffff169081156132ca577fddf252ad1be2c89b69c2b068fc378daa952ba7f163c4a11628f55a4df523b3ef60206000926137366138d0565b61373e6138d0565b61374a81600254613563565b60025584845283825260408420818154019055604051908152a3565b8181029291811591840414171561357057565b73ffffffffffffffffffffffffffffffffffffffff16600052600b602052604060002080549081156137d25763bbf81e00916137c96137bf60026137ce940154426135da565b9160085490613766565b613766565b0490565b5050600090565b156137e057565b60646040517f08c379a000000000000000000000000000000000000000000000000000000000815260206004820152601860248201527f4f6e6c792047616d696e67436f72652063616e2063616c6c00000000000000006044820152fd5b7fffffffffffffffffffffffffffffffffffffffffffffffffffffffffffffffff81146135705760010190565b1561387257565b60646040517f08c379a000000000000000000000000000000000000000000000000000000000815260206004820152601760248201527f50726f706f73616c20646f6573206e6f742065786973740000000000000000006044820152fd5b60ff600554166138dc57565b60046040517fd93c0665000000000000000000000000000000000000000000000000000000008152fdfea2646970667358221220520a3f2fbd9ddb34f7011f29fc07a3a2432a280087946733b24d8a505730524964736f6c634300081400332f8788117e7eff1d82e926ec794901d17c78024a50270940304540a733656f0d",
  "linkReferences": {},
  "deployedLinkReferences": {}
}