{
  "_format": "hh-sol-artifact-1",
  "contractName": "GameDinL3Bridge",
  "sourceName": "contracts/GameDinL3Bridge.sol",
  "abi": [
    {
      "inputs": [
        {
          "internalType": "address",
          "name": "_settlementContract",
          "type": "address"
        }
      ],
      "stateMutability": "nonpayable",
      "type": "constructor"
    },
    {
      "inputs": [],
      "name": "AccessControlBadConfirmation",
      "type": "error"
    },
    {
      "inputs": [
        {
          "internalType": "address",
          "name": "account",
          "type": "address"
        },
        {
          "internalType": "bytes32",
          "name": "neededRole",
          "type": "bytes32"
        }
      ],
      "name": "AccessControlUnauthorizedAccount",
      "type": "error"
    },
    {
      "inputs": [],
      "name": "EnforcedPause",
      "type": "error"
    },
    {
      "inputs": [],
      "name": "ExpectedPause",
      "type": "error"
    },
    {
      "inputs": [],
      "name": "ReentrancyGuardReentrantCall",
      "type": "error"
    },
    {
      "anonymous": false,
      "inputs": [
        {
          "indexed": false,
          "internalType": "uint256",
          "name": "oldFee",
          "type": "uint256"
        },
        {
          "indexed": false,
          "internalType": "uint256",
          "name": "newFee",
          "type": "uint256"
        }
      ],
      "name": "BridgeFeeUpdated",
      "type": "event"
    },
    {
      "anonymous": false,
      "inputs": [
        {
          "indexed": true,
          "internalType": "uint256",
          "name": "requestId",
          "type": "uint256"
        },
        {
          "indexed": true,
          "internalType": "address",
          "name": "recipient",
          "type": "address"
        },
        {
          "indexed": false,
          "internalType": "uint256",
          "name": "amount",
          "type": "uint256"
        },
        {
          "indexed": false,
          "internalType": "uint256",
          "name": "timestamp",
          "type": "uint256"
        }
      ],
      "name": "BridgeRequestCompleted",
      "type": "event"
    },
    {
      "anonymous": false,
      "inputs": [
        {
          "indexed": true,
          "internalType": "uint256",
          "name": "requestId",
          "type": "uint256"
        },
        {
          "indexed": true,
          "internalType": "address",
          "name": "sender",
          "type": "address"
        },
        {
          "indexed": true,
          "internalType": "address",
          "name": "recipient",
          "type": "address"
        },
        {
          "indexed": false,
          "internalType": "enum GameDinL3Bridge.AssetType",
          "name": "assetType",
          "type": "uint8"
        },
        {
          "indexed": false,
          "internalType": "address",
          "name": "assetAddress",
          "type": "address"
        },
        {
          "indexed": false,
          "internalType": "uint256",
          "name": "amount",
          "type": "uint256"
        },
        {
          "indexed": false,
          "internalType": "uint256",
          "name": "tokenId",
          "type": "uint256"
        },
        {
          "indexed": false,
          "internalType": "bool",
          "name": "isL3ToL2",
          "type": "bool"
        },
        {
          "indexed": false,
          "internalType": "uint256",
          "name": "timestamp",
          "type": "uint256"
        }
      ],
      "name": "BridgeRequestCreated",
      "type": "event"
    },
    {
      "anonymous": false,
      "inputs": [
        {
          "indexed": true,
          "internalType": "uint256",
          "name": "requestId",
          "type": "uint256"
        },
        {
          "indexed": true,
          "internalType": "address",
          "name": "validator",
          "type": "address"
        },
        {
          "indexed": false,
          "internalType": "enum GameDinL3Bridge.BridgeStatus",
          "name": "status",
          "type": "uint8"
        },
        {
          "indexed": false,
          "internalType": "string",
          "name": "l3TransactionHash",
          "type": "string"
        },
        {
          "indexed": false,
          "internalType": "uint256",
          "name": "timestamp",
          "type": "uint256"
        }
      ],
      "name": "BridgeRequestProcessed",
      "type": "event"
    },
    {
      "anonymous": false,
      "inputs": [
        {
          "indexed": false,
          "internalType": "address",
          "name": "account",
          "type": "address"
        }
      ],
      "name": "Paused",
      "type": "event"
    },
    {
      "anonymous": false,
      "inputs": [
        {
          "indexed": true,
          "internalType": "bytes32",
          "name": "role",
          "type": "bytes32"
        },
        {
          "indexed": true,
          "internalType": "bytes32",
          "name": "previousAdminRole",
          "type": "bytes32"
        },
        {
          "indexed": true,
          "internalType": "bytes32",
          "name": "newAdminRole",
          "type": "bytes32"
        }
      ],
      "name": "RoleAdminChanged",
      "type": "event"
    },
    {
      "anonymous": false,
      "inputs": [
        {
          "indexed": true,
          "internalType": "bytes32",
          "name": "role",
          "type": "bytes32"
        },
        {
          "indexed": true,
          "internalType": "address",
          "name": "account",
          "type": "address"
        },
        {
          "indexed": true,
          "internalType": "address",
          "name": "sender",
          "type": "address"
        }
      ],
      "name": "RoleGranted",
      "type": "event"
    },
    {
      "anonymous": false,
      "inputs": [
        {
          "indexed": true,
          "internalType": "bytes32",
          "name": "role",
          "type": "bytes32"
        },
        {
          "indexed": true,
          "internalType": "address",
          "name": "account",
          "type": "address"
        },
        {
          "indexed": true,
          "internalType": "address",
          "name": "sender",
          "type": "address"
        }
      ],
      "name": "RoleRevoked",
      "type": "event"
    },
    {
      "anonymous": false,
      "inputs": [
        {
          "indexed": false,
          "internalType": "address",
          "name": "account",
          "type": "address"
        }
      ],
      "name": "Unpaused",
      "type": "event"
    },
    {
      "anonymous": false,
      "inputs": [
        {
          "indexed": true,
          "internalType": "address",
          "name": "validator",
          "type": "address"
        },
        {
          "indexed": false,
          "internalType": "uint256",
          "name": "stake",
          "type": "uint256"
        },
        {
          "indexed": false,
          "internalType": "uint256",
          "name": "timestamp",
          "type": "uint256"
        }
      ],
      "name": "ValidatorRegistered",
      "type": "event"
    },
    {
      "anonymous": false,
      "inputs": [
        {
          "indexed": true,
          "internalType": "address",
          "name": "validator",
          "type": "address"
        },
        {
          "indexed": false,
          "internalType": "uint256",
          "name": "oldStake",
          "type": "uint256"
        },
        {
          "indexed": false,
          "internalType": "uint256",
          "name": "newStake",
          "type": "uint256"
        }
      ],
      "name": "ValidatorStakeUpdated",
      "type": "event"
    },
    {
      "anonymous": false,
      "inputs": [
        {
          "indexed": false,
          "internalType": "uint256",
          "name": "oldStake",
          "type": "uint256"
        },
        {
          "indexed": false,
          "internalType": "uint256",
          "name": "newStake",
          "type": "uint256"
        }
      ],
      "name": "ValidatorStakeUpdated",
      "type": "event"
    },
    {
      "inputs": [],
      "name": "BRIDGE_OPERATOR_ROLE",
      "outputs": [
        {
          "internalType": "bytes32",
          "name": "",
          "type": "bytes32"
        }
      ],
      "stateMutability": "view",
      "type": "function"
    },
    {
      "inputs": [],
      "name": "BRIDGE_TIMEOUT",
      "outputs": [
        {
          "internalType": "uint256",
          "name": "",
          "type": "uint256"
        }
      ],
      "stateMutability": "view",
      "type": "function"
    },
    {
      "inputs": [],
      "name": "DEFAULT_ADMIN_ROLE",
      "outputs": [
        {
          "internalType": "bytes32",
          "name": "",
          "type": "bytes32"
        }
      ],
      "stateMutability": "view",
      "type": "function"
    },
    {
      "inputs": [],
      "name": "EMERGENCY_ROLE",
      "outputs": [
        {
          "internalType": "bytes32",
          "name": "",
          "type": "bytes32"
        }
      ],
      "stateMutability": "view",
      "type": "function"
    },
    {
      "inputs": [],
      "name": "MAX_BRIDGE_AMOUNT",
      "outputs": [
        {
          "internalType": "uint256",
          "name": "",
          "type": "uint256"
        }
      ],
      "stateMutability": "view",
      "type": "function"
    },
    {
      "inputs": [],
      "name": "MIN_BRIDGE_AMOUNT",
      "outputs": [
        {
          "internalType": "uint256",
          "name": "",
          "type": "uint256"
        }
      ],
      "stateMutability": "view",
      "type": "function"
    },
    {
      "inputs": [],
      "name": "VALIDATOR_ROLE",
      "outputs": [
        {
          "internalType": "bytes32",
          "name": "",
          "type": "bytes32"
        }
      ],
      "stateMutability": "view",
      "type": "function"
    },
    {
      "inputs": [
        {
          "internalType": "address",
          "name": "",
          "type": "address"
        }
      ],
      "name": "bridgeConfigs",
      "outputs": [
        {
          "internalType": "bool",
          "name": "isActive",
          "type": "bool"
        },
        {
          "internalType": "uint256",
          "name": "minConfirmations",
          "type": "uint256"
        },
        {
          "internalType": "uint256",
          "name": "maxAmount",
          "type": "uint256"
        },
        {
          "internalType": "uint256",
          "name": "fee",
          "type": "uint256"
        },
        {
          "internalType": "uint256",
          "name": "timeout",
          "type": "uint256"
        }
      ],
      "stateMutability": "view",
      "type": "function"
    },
    {
      "inputs": [],
      "name": "bridgeFee",
      "outputs": [
        {
          "internalType": "uint256",
          "name": "",
          "type": "uint256"
        }
      ],
      "stateMutability": "view",
      "type": "function"
    },
    {
      "inputs": [
        {
          "internalType": "uint256",
          "name": "",
          "type": "uint256"
        }
      ],
      "name": "bridgeRequests",
      "outputs": [
        {
          "internalType": "uint256",
          "name": "requestId",
          "type": "uint256"
        },
        {
          "internalType": "address",
          "name": "sender",
          "type": "address"
        },
        {
          "internalType": "address",
          "name": "recipient",
          "type": "address"
        },
        {
          "internalType": "enum GameDinL3Bridge.AssetType",
          "name": "assetType",
          "type": "uint8"
        },
        {
          "internalType": "address",
          "name": "assetAddress",
          "type": "address"
        },
        {
          "internalType": "uint256",
          "name": "amount",
          "type": "uint256"
        },
        {
          "internalType": "uint256",
          "name": "tokenId",
          "type": "uint256"
        },
        {
          "internalType": "enum GameDinL3Bridge.BridgeStatus",
          "name": "status",
          "type": "uint8"
        },
        {
          "internalType": "uint256",
          "name": "timestamp",
          "type": "uint256"
        },
        {
          "internalType": "uint256",
          "name": "deadline",
          "type": "uint256"
        },
        {
          "internalType": "bytes32",
          "name": "merkleRoot",
          "type": "bytes32"
        },
        {
          "internalType": "string",
          "name": "l3TransactionHash",
          "type": "string"
        },
        {
          "internalType": "address",
          "name": "validator",
          "type": "address"
        },
        {
          "internalType": "bool",
          "name": "isL3ToL2",
          "type": "bool"
        }
      ],
      "stateMutability": "view",
      "type": "function"
    },
    {
      "inputs": [
        {
          "internalType": "address",
          "name": "recipient",
          "type": "address"
        },
        {
          "internalType": "enum GameDinL3Bridge.AssetType",
          "name": "assetType",
          "type": "uint8"
        },
        {
          "internalType": "address",
          "name": "assetAddress",
          "type": "address"
        },
        {
          "internalType": "uint256",
          "name": "amount",
          "type": "uint256"
        },
        {
          "internalType": "uint256",
          "name": "tokenId",
          "type": "uint256"
        }
      ],
      "name": "bridgeToL3",
      "outputs": [],
      "stateMutability": "payable",
      "type": "function"
    },
    {
      "inputs": [
        {
          "internalType": "uint256",
          "name": "requestId",
          "type": "uint256"
        }
      ],
      "name": "completeL2ToL3Request",
      "outputs": [],
      "stateMutability": "nonpayable",
      "type": "function"
    },
    {
      "inputs": [],
      "name": "emergencyWithdrawETH",
      "outputs": [],
      "stateMutability": "nonpayable",
      "type": "function"
    },
    {
      "inputs": [
        {
          "internalType": "address",
          "name": "token",
          "type": "address"
        },
        {
          "internalType": "uint256",
          "name": "amount",
          "type": "uint256"
        }
      ],
      "name": "emergencyWithdrawTokens",
      "outputs": [],
      "stateMutability": "nonpayable",
      "type": "function"
    },
    {
      "inputs": [
        {
          "internalType": "uint256",
          "name": "requestId",
          "type": "uint256"
        }
      ],
      "name": "getBridgeRequest",
      "outputs": [
        {
          "internalType": "uint256",
          "name": "id",
          "type": "uint256"
        },
        {
          "internalType": "address",
          "name": "sender",
          "type": "address"
        },
        {
          "internalType": "address",
          "name": "recipient",
          "type": "address"
        },
        {
          "internalType": "enum GameDinL3Bridge.AssetType",
          "name": "assetType",
          "type": "uint8"
        },
        {
          "internalType": "address",
          "name": "assetAddress",
          "type": "address"
        },
        {
          "internalType": "uint256",
          "name": "amount",
          "type": "uint256"
        },
        {
          "internalType": "uint256",
          "name": "tokenId",
          "type": "uint256"
        },
        {
          "internalType": "enum GameDinL3Bridge.BridgeStatus",
          "name": "status",
          "type": "uint8"
        },
        {
          "internalType": "uint256",
          "name": "timestamp",
          "type": "uint256"
        },
        {
          "internalType": "uint256",
          "name": "deadline",
          "type": "uint256"
        },
        {
          "internalType": "bytes32",
          "name": "merkleRoot",
          "type": "bytes32"
        },
        {
          "internalType": "string",
          "name": "l3TransactionHash",
          "type": "string"
        },
        {
          "internalType": "address",
          "name": "validator",
          "type": "address"
        },
        {
          "internalType": "bool",
          "name": "isL3ToL2",
          "type": "bool"
        }
      ],
      "stateMutability": "view",
      "type": "function"
    },
    {
      "inputs": [
        {
          "internalType": "bytes32",
          "name": "role",
          "type": "bytes32"
        }
      ],
      "name": "getRoleAdmin",
      "outputs": [
        {
          "internalType": "bytes32",
          "name": "",
          "type": "bytes32"
        }
      ],
      "stateMutability": "view",
      "type": "function"
    },
    {
      "inputs": [
        {
          "internalType": "address",
          "name": "user",
          "type": "address"
        }
      ],
      "name": "getUserRequests",
      "outputs": [
        {
          "internalType": "uint256[]",
          "name": "",
          "type": "uint256[]"
        }
      ],
      "stateMutability": "view",
      "type": "function"
    },
    {
      "inputs": [
        {
          "internalType": "address",
          "name": "validator",
          "type": "address"
        }
      ],
      "name": "getValidatorInfo",
      "outputs": [
        {
          "internalType": "bool",
          "name": "isActive",
          "type": "bool"
        },
        {
          "internalType": "uint256",
          "name": "totalProcessed",
          "type": "uint256"
        },
        {
          "internalType": "uint256",
          "name": "successRate",
          "type": "uint256"
        },
        {
          "internalType": "uint256",
          "name": "lastActivity",
          "type": "uint256"
        },
        {
          "internalType": "uint256",
          "name": "stake",
          "type": "uint256"
        }
      ],
      "stateMutability": "view",
      "type": "function"
    },
    {
      "inputs": [
        {
          "internalType": "bytes32",
          "name": "role",
          "type": "bytes32"
        },
        {
          "internalType": "address",
          "name": "account",
          "type": "address"
        }
      ],
      "name": "grantRole",
      "outputs": [],
      "stateMutability": "nonpayable",
      "type": "function"
    },
    {
      "inputs": [
        {
          "internalType": "bytes32",
          "name": "role",
          "type": "bytes32"
        },
        {
          "internalType": "address",
          "name": "account",
          "type": "address"
        }
      ],
      "name": "hasRole",
      "outputs": [
        {
          "internalType": "bool",
          "name": "",
          "type": "bool"
        }
      ],
      "stateMutability": "view",
      "type": "function"
    },
    {
      "inputs": [],
      "name": "pause",
      "outputs": [],
      "stateMutability": "nonpayable",
      "type": "function"
    },
    {
      "inputs": [],
      "name": "paused",
      "outputs": [
        {
          "internalType": "bool",
          "name": "",
          "type": "bool"
        }
      ],
      "stateMutability": "view",
      "type": "function"
    },
    {
      "inputs": [
        {
          "internalType": "uint256",
          "name": "requestId",
          "type": "uint256"
        },
        {
          "internalType": "string",
          "name": "l3TransactionHash",
          "type": "string"
        },
        {
          "internalType": "bytes32",
          "name": "merkleRoot",
          "type": "bytes32"
        }
      ],
      "name": "processL2ToL3Request",
      "outputs": [],
      "stateMutability": "nonpayable",
      "type": "function"
    },
    {
      "inputs": [
        {
          "internalType": "address",
          "name": "sender",
          "type": "address"
        },
        {
          "internalType": "address",
          "name": "recipient",
          "type": "address"
        },
        {
          "internalType": "enum GameDinL3Bridge.AssetType",
          "name": "assetType",
          "type": "uint8"
        },
        {
          "internalType": "address",
          "name": "assetAddress",
          "type": "address"
        },
        {
          "internalType": "uint256",
          "name": "amount",
          "type": "uint256"
        },
        {
          "internalType": "uint256",
          "name": "tokenId",
          "type": "uint256"
        },
        {
          "internalType": "string",
          "name": "l3TransactionHash",
          "type": "string"
        },
        {
          "internalType": "bytes32",
          "name": "merkleRoot",
          "type": "bytes32"
        }
      ],
      "name": "processL3ToL2Request",
      "outputs": [],
      "stateMutability": "nonpayable",
      "type": "function"
    },
    {
      "inputs": [
        {
          "internalType": "bytes32",
          "name": "",
          "type": "bytes32"
        }
      ],
      "name": "processedTransactions",
      "outputs": [
        {
          "internalType": "bool",
          "name": "",
          "type": "bool"
        }
      ],
      "stateMutability": "view",
      "type": "function"
    },
    {
      "inputs": [],
      "name": "registerValidator",
      "outputs": [],
      "stateMutability": "nonpayable",
      "type": "function"
    },
    {
      "inputs": [
        {
          "internalType": "bytes32",
          "name": "role",
          "type": "bytes32"
        },
        {
          "internalType": "address",
          "name": "callerConfirmation",
          "type": "address"
        }
      ],
      "name": "renounceRole",
      "outputs": [],
      "stateMutability": "nonpayable",
      "type": "function"
    },
    {
      "inputs": [],
      "name": "requestCounter",
      "outputs": [
        {
          "internalType": "uint256",
          "name": "",
          "type": "uint256"
        }
      ],
      "stateMutability": "view",
      "type": "function"
    },
    {
      "inputs": [
        {
          "internalType": "bytes32",
          "name": "role",
          "type": "bytes32"
        },
        {
          "internalType": "address",
          "name": "account",
          "type": "address"
        }
      ],
      "name": "revokeRole",
      "outputs": [],
      "stateMutability": "nonpayable",
      "type": "function"
    },
    {
      "inputs": [],
      "name": "settlementContract",
      "outputs": [
        {
          "internalType": "address",
          "name": "",
          "type": "address"
        }
      ],
      "stateMutability": "view",
      "type": "function"
    },
    {
      "inputs": [
        {
          "internalType": "bytes4",
          "name": "interfaceId",
          "type": "bytes4"
        }
      ],
      "name": "supportsInterface",
      "outputs": [
        {
          "internalType": "bool",
          "name": "",
          "type": "bool"
        }
      ],
      "stateMutability": "view",
      "type": "function"
    },
    {
      "inputs": [],
      "name": "totalRequests",
      "outputs": [
        {
          "internalType": "uint256",
          "name": "",
          "type": "uint256"
        }
      ],
      "stateMutability": "view",
      "type": "function"
    },
    {
      "inputs": [],
      "name": "totalVolume",
      "outputs": [
        {
          "internalType": "uint256",
          "name": "",
          "type": "uint256"
        }
      ],
      "stateMutability": "view",
      "type": "function"
    },
    {
      "inputs": [],
      "name": "unpause",
      "outputs": [],
      "stateMutability": "nonpayable",
      "type": "function"
    },
    {
      "inputs": [],
      "name": "unregisterValidator",
      "outputs": [],
      "stateMutability": "nonpayable",
      "type": "function"
    },
    {
      "inputs": [
        {
          "internalType": "uint256",
          "name": "newFee",
          "type": "uint256"
        }
      ],
      "name": "updateBridgeFee",
      "outputs": [],
      "stateMutability": "nonpayable",
      "type": "function"
    },
    {
      "inputs": [
        {
          "internalType": "address",
          "name": "newSettlement",
          "type": "address"
        }
      ],
      "name": "updateSettlementContract",
      "outputs": [],
      "stateMutability": "nonpayable",
      "type": "function"
    },
    {
      "inputs": [
        {
          "internalType": "uint256",
          "name": "newStake",
          "type": "uint256"
        }
      ],
      "name": "updateValidatorStake",
      "outputs": [],
      "stateMutability": "nonpayable",
      "type": "function"
    },
    {
      "inputs": [
        {
          "internalType": "address",
          "name": "",
          "type": "address"
        },
        {
          "internalType": "uint256",
          "name": "",
          "type": "uint256"
        }
      ],
      "name": "userRequests",
      "outputs": [
        {
          "internalType": "uint256",
          "name": "",
          "type": "uint256"
        }
      ],
      "stateMutability": "view",
      "type": "function"
    },
    {
      "inputs": [],
      "name": "validatorStake",
      "outputs": [
        {
          "internalType": "uint256",
          "name": "",
          "type": "uint256"
        }
      ],
      "stateMutability": "view",
      "type": "function"
    },
    {
      "inputs": [
        {
          "internalType": "address",
          "name": "",
          "type": "address"
        }
      ],
      "name": "validators",
      "outputs": [
        {
          "internalType": "bool",
          "name": "isActive",
          "type": "bool"
        },
        {
          "internalType": "uint256",
          "name": "totalProcessed",
          "type": "uint256"
        },
        {
          "internalType": "uint256",
          "name": "successRate",
          "type": "uint256"
        },
        {
          "internalType": "uint256",
          "name": "lastActivity",
          "type": "uint256"
        },
        {
          "internalType": "uint256",
          "name": "stake",
          "type": "uint256"
        }
      ],
      "stateMutability": "view",
      "type": "function"
    },
    {
      "stateMutability": "payable",
      "type": "receive"
    }
  ],
  "bytecode": "0x6080346200012157601f6200381538819003918201601f19168301916001600160401b0383118484101762000126578084926020946040528339810103126200012157516001600160a01b03811680820362000121576001805566038d7ea4c68000600655683635c9adc5dea0000060075515620000dc5760028054610100600160a81b03191660089290921b610100600160a81b0316919091179055620000a7336200013c565b50620000b333620001bc565b50620000bf336200025e565b50620000cb33620002fb565b5060405161345c9081620003998239f35b60405162461bcd60e51b815260206004820152601b60248201527f496e76616c696420736574746c656d656e7420636f6e747261637400000000006044820152606490fd5b600080fd5b634e487b7160e01b600052604160045260246000fd5b6001600160a01b031660008181527fad3228b676f7d3cd4284a5443f17f1962b36e491b30a40b2405849e597ba5fb5602052604081205490919060ff16620001b857818052816020526040822081835260205260408220600160ff198254161790553391600080516020620037f58339815191528180a4600190565b5090565b6001600160a01b031660008181527f0d4654aaffc87c2c9a3fd6a99770bc308fad799420104834ddcca8973d00903960205260408120549091907f7045adfe67d5f94dbfddcdb901e44bef55baacabb398c7cddda1bfd7620b15689060ff166200025957808352826020526040832082845260205260408320600160ff19825416179055600080516020620037f5833981519152339380a4600190565b505090565b6001600160a01b031660008181527f5111aeae4aa79889928e72f88b5872109754de9d419ea9a4e3df5fba21d4d46f60205260408120549091907f21702c8af46127c7fa207f89d0b0a8441bb32959a0ac7df790e9ab1a25c989269060ff166200025957808352826020526040832082845260205260408320600160ff19825416179055600080516020620037f5833981519152339380a4600190565b6001600160a01b031660008181527f3c1b1854ab1360abbb06c8d4c6b2672d4b8cedc5eff522ab19e51d5cb8fdbd4660205260408120549091907fbf233dd2aafeb4d50879c4aa5c81e96d92f6e6945c906a58f9f2d1c1631b4b269060ff166200025957808352826020526040832082845260205260408320600160ff19825416179055600080516020620037f5833981519152339380a460019056fe608080604052600436101561001d575b50361561001b57600080fd5b005b600090813560e01c90816301ffc9a7146127a0575080630f5093d01461255257806320df4359146124f9578063248a9ca3146124af578063263cb6b61461242e5780632f2ff15d146123d35780633008afed1461230b57806336568abe146122805780633de739e714611e595780633f4ba83a14611d9a578063427ac0ca14611cf55780634be40fd114611c9c57806358e312c414611c605780635a1c036614611bec5780635c975abb14611bab5780635f81a57c14611b6f5780636ca56267146119ce5780636fa50dc01461113b5780637fce0002146110f857806382b12dd7146110bc57806384536017146110585780638456cb5914610fc1578063886688c114610f805780638a11d7c914610f305780638aea61dc14610ef4578063917bb99814610e2b57806391d1485414610db4578063973a814e14610d785780639a7c91d914610d3c5780639f89c8a214610c73578063a217fddf14610c39578063ac2e493614610bec578063b337cf7414610b0f578063bcc6587f14610934578063c332226e14610832578063c49baebe146107d9578063c7f18fe514610765578063d547741f14610706578063e91a8b08146102e9578063ea42418b146102945763fa52c7d80361000f57346102915760207ffffffffffffffffffffffffffffffffffffffffffffffffffffffffffffffffc3601126102915760409073ffffffffffffffffffffffffffffffffffffffff61023861285e565b168152600a6020522060ff81541661028d6001830154926002810154906004600382015491015491604051958695869192608093969594919660a0840197151584526020840152604083015260608201520152565b0390f35b80fd5b503461029157807ffffffffffffffffffffffffffffffffffffffffffffffffffffffffffffffffc36011261029157602073ffffffffffffffffffffffffffffffffffffffff60025460081c16604051908152f35b50346102915760607ffffffffffffffffffffffffffffffffffffffffffffffffffffffffffffffffc3601126102915767ffffffffffffffff906004356024358381116107025761033e903690600401612aaf565b610346612c3c565b61034e6132da565b8183526020600881526040842061036781541515613310565b600681019081549660ff881660058110156106d55761067757600b82019261039660ff855460a01c1615613375565b60088301544211610619577fffffffffffffffffffffffffffffffffffffffffffffffffffffffffffffff009798600198899116179055600a82019085519081116105ec576103e58254612b24565b601f81116105a5575b5084601f82116001146104de57926104c39592827f11e030ca8ba35e719c03c56fa4f16240dcc98aa67832e96db65c3538a92126ec9896936060968d916104d3575b507fffffffffffffffffffffffffffffffffffffffffffffffffffffffffffffffff828d1b9260031b1c19161790555b6009604435910155337fffffffffffffffffffffffff0000000000000000000000000000000000000000825416179055338852600a8152604088208781016104a881546131b3565b9055600342910155604051968752860152606085019061294a565b924260408201528033940390a380f35b905087015138610430565b828a52858a208992917fffffffffffffffffffffffffffffffffffffffffffffffffffffffffffffffe083168c5b81811061058e5750926104c39895927f11e030ca8ba35e719c03c56fa4f16240dcc98aa67832e96db65c3538a92126ec9a989592826060999610610557575b5050811b019055610460565b8901517fffffffffffffffffffffffffffffffffffffffffffffffffffffffffffffffff60f88460031b161c19169055388061054b565b8a83015184558c959093019291890191890161050c565b828a52858a20601f830160051c8101918784106105e2575b601f0160051c019089905b8281106105d65750506103ee565b600081550189906105c8565b90915081906105bd565b6024897f4e487b710000000000000000000000000000000000000000000000000000000081526041600452fd5b606485604051907f08c379a00000000000000000000000000000000000000000000000000000000082526004820152600f60248201527f52657175657374206578706972656400000000000000000000000000000000006044820152fd5b606484604051907f08c379a00000000000000000000000000000000000000000000000000000000082526004820152601360248201527f52657175657374206e6f742070656e64696e67000000000000000000000000006044820152fd5b6024887f4e487b710000000000000000000000000000000000000000000000000000000081526021600452fd5b8280fd5b50346102915760407ffffffffffffffffffffffffffffffffffffffffffffffffffffffffffffffffc36011261029157610761600435610744612881565b908084528360205261075c6001604086200154612d65565b612fe3565b5080f35b50346102915760207ffffffffffffffffffffffffffffffffffffffffffffffffffffffffffffffffc360112610291577f1093db028025d2405a1aea589a8652d1f919bd517e7c7e858e0af317584d191360406004356107c3612d2b565b600754908060075582519182526020820152a180f35b503461029157807ffffffffffffffffffffffffffffffffffffffffffffffffffffffffffffffffc3601126102915760206040517f21702c8af46127c7fa207f89d0b0a8441bb32959a0ac7df790e9ab1a25c989268152f35b50346102915760207ffffffffffffffffffffffffffffffffffffffffffffffffffffffffffffffffc3601126102915761086a61285e565b610872612d2b565b73ffffffffffffffffffffffffffffffffffffffff8116156108d6577fffffffffffffffffffffff0000000000000000000000000000000000000000ff74ffffffffffffffffffffffffffffffffffffffff006002549260081b1691161760025580f35b60646040517f08c379a000000000000000000000000000000000000000000000000000000000815260206004820152601b60248201527f496e76616c696420736574746c656d656e7420636f6e747261637400000000006044820152fd5b503461029157807ffffffffffffffffffffffffffffffffffffffffffffffffffffffffffffffffc3601126102915761096b6132da565b3381526020600a815260ff604083205416610ab1576002546007546040517f23b872dd0000000000000000000000000000000000000000000000000000000081523360048201523060248201526044810191909152908290829060081c73ffffffffffffffffffffffffffffffffffffffff168186816064810103925af18015610aa657610a79575b50338252600a81526040822060017fffffffffffffffffffffffffffffffffffffffffffffffffffffffffffffff008254161781556007546004820155600342910155610a4033612d8b565b506007549060405191825242908201527f4fedf9289a156b214915bd5c2db58d3ee16acc185e80df66ee404e4573c821e160403392a280f35b610a9890823d8411610a9f575b610a908183612a6e565b8101906132c2565b50386109f4565b503d610a86565b6040513d85823e3d90fd5b606490604051907f08c379a00000000000000000000000000000000000000000000000000000000082526004820152601260248201527f416c7265616479207265676973746572656400000000000000000000000000006044820152fd5b5034610291576020807ffffffffffffffffffffffffffffffffffffffffffffffffffffffffffffffffc360112610be85773ffffffffffffffffffffffffffffffffffffffff610b5d61285e565b168252600981526040822060405192838383549182815201908193835284832090835b818110610bd45750505084610b96910385612a6e565b60405193838594850191818652518092526040850193925b828110610bbd57505050500390f35b835185528695509381019392810192600101610bae565b825484529286019260019283019201610b80565b5080fd5b50346102915760207ffffffffffffffffffffffffffffffffffffffffffffffffffffffffffffffffc3601126102915760ff60406020926004358152600b84522054166040519015158152f35b503461029157807ffffffffffffffffffffffffffffffffffffffffffffffffffffffffffffffffc36011261029157602090604051908152f35b50346102915760207ffffffffffffffffffffffffffffffffffffffffffffffffffffffffffffffffc360112610291576004358152600860205260409020805473ffffffffffffffffffffffffffffffffffffffff918260018201541690600281015493806003830154169160048101546005820154600683015460ff16600784015490600885015492600986015494600a8701610d1090612b77565b96600b0154986040519c8d9c8d9c8b8d60a01c60ff169d169b8360a01c60ff1693169161028d9e61298d565b503461029157807ffffffffffffffffffffffffffffffffffffffffffffffffffffffffffffffffc360112610291576020604051620151808152f35b503461029157807ffffffffffffffffffffffffffffffffffffffffffffffffffffffffffffffffc360112610291576020600354604051908152f35b50346102915760407ffffffffffffffffffffffffffffffffffffffffffffffffffffffffffffffffc3601126102915773ffffffffffffffffffffffffffffffffffffffff6040610e03612881565b92600435815280602052209116600052602052602060ff604060002054166040519015158152f35b50346102915760407ffffffffffffffffffffffffffffffffffffffffffffffffffffffffffffffffc36011261029157610e6361285e565b610e6b612ccf565b6040517fa9059cbb00000000000000000000000000000000000000000000000000000000815233600482015260248035908201529060209082906044908290869073ffffffffffffffffffffffffffffffffffffffff165af18015610ee957610ed2575080f35b6107619060203d8111610a9f57610a908183612a6e565b6040513d84823e3d90fd5b503461029157807ffffffffffffffffffffffffffffffffffffffffffffffffffffffffffffffffc360112610291576020600454604051908152f35b50346102915760207ffffffffffffffffffffffffffffffffffffffffffffffffffffffffffffffffc3601126102915760409073ffffffffffffffffffffffffffffffffffffffff61023861285e565b503461029157807ffffffffffffffffffffffffffffffffffffffffffffffffffffffffffffffffc360112610291576020604051670de0b6b3a76400008152f35b503461029157807ffffffffffffffffffffffffffffffffffffffffffffffffffffffffffffffffc36011261029157610ff8612ccf565b6110006132da565b60017fffffffffffffffffffffffffffffffffffffffffffffffffffffffffffffff0060025416176002557f62e78cea01bee320cd4e420270b5ea74000d11b0c9f74754ebdbfc544b05a2586020604051338152a180f35b503461029157807ffffffffffffffffffffffffffffffffffffffffffffffffffffffffffffffffc3601126102915761108f612ccf565b80808080478181156110b3575b3390f1156110a75780f35b604051903d90823e3d90fd5b506108fc61109c565b503461029157807ffffffffffffffffffffffffffffffffffffffffffffffffffffffffffffffffc360112610291576020600654604051908152f35b503461029157807ffffffffffffffffffffffffffffffffffffffffffffffffffffffffffffffffc36011261029157602060405169152d02c7e14af68000008152f35b5034610291576101007ffffffffffffffffffffffffffffffffffffffffffffffffffffffffffffffffc3601126102915761117461285e565b61117c612881565b9060036044351015610702576064359073ffffffffffffffffffffffffffffffffffffffff9081831683036119c95767ffffffffffffffff9260c43584811161175d576111cd903690600401612aaf565b936111d6612c3c565b6111de6132da565b8383161561196b576111f38487161515613084565b611209670de0b6b3a764000060843510156130e9565b61122169152d02c7e14af6800000608435111561314e565b84511561190d576040516020810190611254602082816112478b87815193849201612927565b8101038084520182612a6e565b5190208752600b60205260ff6040882054166118af576112756003546131b3565b948560035585885260086020526040882091868355600183017fffffffffffffffffffffffff000000000000000000000000000000000000000090878716828254161790556112d460028501888b16838254161781556044359061320f565b600384019087861690825416179055608435600484015560a435600584015560017fffffffffffffffffffffffffffffffffffffffffffffffffffffffffffffff0060068501541617600684015542600784015562015180420180421161164257600884015581519081116105ec57611350600a840154612b24565b601f811161186a575b50806020601f82116001146117a6578a9161179b575b507fffffffffffffffffffffffffffffffffffffffffffffffffffffffffffffffff8260011b9260031b1c191617600a8301555b60e4356009830155600b82017401000000000000000000000000000000000000000081547fffffffffffffffffffffff0000000000000000000000000000000000000000007fffffffffffffffffffffff00ffffffffffffffffffffffffffffffffffffffff3316911617179055848716885260096020526114288660408a2061326b565b6114336004546131b3565b60045561144460843560055461325e565b600555604051611464602082816112478183019687815193849201612927565b5190208752600b6020526040872080547fffffffffffffffffffffffffffffffffffffffffffffffffffffffffffffff001660011790556044356116c6576040517fa9059cbb00000000000000000000000000000000000000000000000000000000815273ffffffffffffffffffffffffffffffffffffffff8716600482015260843560248201526020816044818b878a165af180156116bb5761169c575b505b60060180547fffffffffffffffffffffffffffffffffffffffffffffffffffffffffffffff00166002179055338652600a6020526040862060018101805461154c906131b3565b809155600282019081547fffffffffffffffffffffffffffffffffffffffffffffffffffffffffffffffff82019082821161166f579061158b916133da565b6064810180911161164257916115c860409694927f02b57eecd372ee1f8bd796bedf6d87ea0da0834f5cdf5391efa26398ef2c0bc09896946133ed565b9055600342910155828451916115e0836044356128eb565b1660208201526084358482015260a4356060820152600160808201524260a0820152857f324d1b6cc60ec8b0b60854da81f895de35042fc8a80cc1ac5b8c8f90a4740e3060c085808b16951693a481519460843586524260208701521693a380f35b60248a7f4e487b710000000000000000000000000000000000000000000000000000000081526011600452fd5b60248b7f4e487b710000000000000000000000000000000000000000000000000000000081526011600452fd5b6116b49060203d602011610a9f57610a908183612a6e565b5038611503565b6040513d8a823e3d90fd5b604435600103611761578382163b1561175d576040517f23b872dd00000000000000000000000000000000000000000000000000000000815230600482015273ffffffffffffffffffffffffffffffffffffffff8716602482015260a43560448201528790818160648183888b165af18015610ee957611749575b50505b611505565b61175290612a2b565b61175d578638611741565b8680fd5b60026044350361150557868060843515611792575b8180809260843590898c1690f1611744576040513d88823e3d90fd5b506108fc611776565b90508201513861136f565b9150600a84018a5260208a208a925b7fffffffffffffffffffffffffffffffffffffffffffffffffffffffffffffffe0831684106118525760019350827fffffffffffffffffffffffffffffffffffffffffffffffffffffffffffffffe081161061181b575b5050811b01600a8301556113a3565b8401517fffffffffffffffffffffffffffffffffffffffffffffffffffffffffffffffff60f88460031b161c19169055388061180c565b848101518255602093840193600190920191016117b5565b600a84018a5260208a20601f830160051c8101602084106118a8575b601f830160051c8201811061189c575050611359565b60008155600101611886565b5080611886565b60646040517f08c379a000000000000000000000000000000000000000000000000000000000815260206004820152601d60248201527f5472616e73616374696f6e20616c72656164792070726f6365737365640000006044820152fd5b60646040517f08c379a000000000000000000000000000000000000000000000000000000000815260206004820152601b60248201527f496e76616c6964204c33207472616e73616374696f6e206861736800000000006044820152fd5b60646040517f08c379a000000000000000000000000000000000000000000000000000000000815260206004820152600e60248201527f496e76616c69642073656e6465720000000000000000000000000000000000006044820152fd5b600080fd5b503461029157807ffffffffffffffffffffffffffffffffffffffffffffffffffffffffffffffffc36011261029157611a056132da565b3381526020600a815260408220805460ff811615611b11577fffffffffffffffffffffffffffffffffffffffffffffffffffffffffffffff00168155600254600491820180546040517fa9059cbb00000000000000000000000000000000000000000000000000000000815233948101949094526024840152849290918490829060081c73ffffffffffffffffffffffffffffffffffffffff168186816044810103925af18015610aa657611af4575b50611abf33612f0d565b5054916040519283528201527fcdc86a7bd23991b72015ea60a4080fb4ade4360c5536444ba006509fd0f8c98c60403392a280f35b611b0a90843d8611610a9f57610a908183612a6e565b5038611ab5565b606483604051907f08c379a00000000000000000000000000000000000000000000000000000000082526004820152600e60248201527f4e6f7420726567697374657265640000000000000000000000000000000000006044820152fd5b503461029157807ffffffffffffffffffffffffffffffffffffffffffffffffffffffffffffffffc360112610291576020600554604051908152f35b503461029157807ffffffffffffffffffffffffffffffffffffffffffffffffffffffffffffffffc36011261029157602060ff600254166040519015158152f35b50346102915760207ffffffffffffffffffffffffffffffffffffffffffffffffffffffffffffffffc360112610291577f3e7af433b010df0902f945628a14ef63c63e1e5e8306127bde522445a470588f6040600435611c4a612d2b565b600654908060065582519182526020820152a180f35b503461029157807ffffffffffffffffffffffffffffffffffffffffffffffffffffffffffffffffc360112610291576020600754604051908152f35b503461029157807ffffffffffffffffffffffffffffffffffffffffffffffffffffffffffffffffc3601126102915760206040517f7045adfe67d5f94dbfddcdb901e44bef55baacabb398c7cddda1bfd7620b15688152f35b50346102915760207ffffffffffffffffffffffffffffffffffffffffffffffffffffffffffffffffc3601126102915760409073ffffffffffffffffffffffffffffffffffffffff611d4561285e565b168152600c6020522060ff81541661028d6001830154926002810154906004600382015491015491604051958695869192608093969594919660a0840197151584526020840152604083015260608201520152565b503461029157807ffffffffffffffffffffffffffffffffffffffffffffffffffffffffffffffffc36011261029157611dd1612ccf565b60025460ff811615611e2f577fffffffffffffffffffffffffffffffffffffffffffffffffffffffffffffff00166002557f5db9ee0a495bf2e6ff9c91a7834c1ba4fdd244a5e8aa4e537bd38aeae4b073aa6020604051338152a180f35b60046040517f8dfc202b000000000000000000000000000000000000000000000000000000008152fd5b5060a07ffffffffffffffffffffffffffffffffffffffffffffffffffffffffffffffffc36011261029157611e8c61285e565b6024356003811015610702576044359073ffffffffffffffffffffffffffffffffffffffff9182811680910361227c576064359260843590611ecc6132da565b600195600287541461225257600287551693611ee9851515613084565b611efd670de0b6b3a76400008210156130e9565b611f1369152d02c7e14af680000082111561314e565b60065434106121f457611f276003546131b3565b9283600355838852602060088152604089208581558881017fffffffffffffffffffffffff0000000000000000000000000000000000000000903382825416179055611f7e88600284018b8482541617815561320f565b836003830191825416179055836004820155846005820155600681017fffffffffffffffffffffffffffffffffffffffffffffffffffffffffffffff00815416905542600782015562015180420180421161166f5790600b916008820155017fffffffffffffffffffffff00ffffffffffffffffffffffffffffffffffffffff8154169055338952600981526120178560408b2061326b565b6120226004546131b3565b6004556120318360055461325e565b60055585612102576040517f23b872dd0000000000000000000000000000000000000000000000000000000081523360048201523060248201526044810184905281816064818d875af180156120f7576120da575b505b61209560405180976128eb565b85015260408401526060830152600060808301524260a08301527f324d1b6cc60ec8b0b60854da81f895de35042fc8a80cc1ac5b8c8f90a4740e3060c03393a4805580f35b6120f090823d8411610a9f57610a908183612a6e565b5038612086565b6040513d8c823e3d90fd5b85880361217b57813b15612177576040517f23b872dd00000000000000000000000000000000000000000000000000000000815233600482015230602482015260448101859052898160648183875af180156120f757612164575b505b612088565b61217090999199612a2b565b973861215d565b8880fd5b600286036120885761218f6006548461325e565b34101561215f57606490604051907f08c379a00000000000000000000000000000000000000000000000000000000082526004820152601060248201527f496e73756666696369656e7420455448000000000000000000000000000000006044820152fd5b60646040517f08c379a000000000000000000000000000000000000000000000000000000000815260206004820152601760248201527f496e73756666696369656e7420627269646765206665650000000000000000006044820152fd5b60046040517f3ee5aeb5000000000000000000000000000000000000000000000000000000008152fd5b8480fd5b50346102915760407ffffffffffffffffffffffffffffffffffffffffffffffffffffffffffffffffc360112610291576122b8612881565b3373ffffffffffffffffffffffffffffffffffffffff8216036122e15761076190600435612fe3565b60046040517f6697b232000000000000000000000000000000000000000000000000000000008152fd5b50346102915760207ffffffffffffffffffffffffffffffffffffffffffffffffffffffffffffffffc360112610291576004358152600860205260409020805473ffffffffffffffffffffffffffffffffffffffff9182600182015416906002810154938060038301541660048301546005840154600685015460ff16600786015490600887015492600988015494600b89015498600a016123ac90612b77565b966040519c8d9c8d9c8b8d60a01c60ff169d169b8360a01c60ff1693169161028d9e61298d565b50346102915760407ffffffffffffffffffffffffffffffffffffffffffffffffffffffffffffffffc36011261029157610761600435612411612881565b90808452836020526124296001604086200154612d65565b612e68565b50346102915760407ffffffffffffffffffffffffffffffffffffffffffffffffffffffffffffffffc3601126102915761246661285e565b73ffffffffffffffffffffffffffffffffffffffff168152600960205260408120805460243592908310156102915760206124a184846128a4565b90546040519160031b1c8152f35b50346102915760207ffffffffffffffffffffffffffffffffffffffffffffffffffffffffffffffffc36011261029157600160406020926004358152808452200154604051908152f35b503461029157807ffffffffffffffffffffffffffffffffffffffffffffffffffffffffffffffffc3601126102915760206040517fbf233dd2aafeb4d50879c4aa5c81e96d92f6e6945c906a58f9f2d1c1631b4b268152f35b50346102915760207ffffffffffffffffffffffffffffffffffffffffffffffffffffffffffffffffc3601126102915760043561258d612c3c565b6125956132da565b808252600860205260408220906125ae82541515613310565b60068201805460ff8116600581101561277357600103612715577fffffffffffffffffffffffffffffffffffffffffffffffffffffffffffffff0060029161260060ff600b88015460a01c1615613375565b16179055338352600a60205260408320600281019060018254910154907fffffffffffffffffffffffffffffffffffffffffffffffffffffffffffffffff8201908282116126e85790612652916133da565b606481018091116126bb5790612667916133ed565b90557f02b57eecd372ee1f8bd796bedf6d87ea0da0834f5cdf5391efa26398ef2c0bc06040600473ffffffffffffffffffffffffffffffffffffffff6002860154169401548151908152426020820152a380f35b6024867f4e487b710000000000000000000000000000000000000000000000000000000081526011600452fd5b6024877f4e487b710000000000000000000000000000000000000000000000000000000081526011600452fd5b60646040517f08c379a000000000000000000000000000000000000000000000000000000000815260206004820152601660248201527f52657175657374206e6f742070726f63657373696e67000000000000000000006044820152fd5b6024867f4e487b710000000000000000000000000000000000000000000000000000000081526021600452fd5b905034610be85760207ffffffffffffffffffffffffffffffffffffffffffffffffffffffffffffffffc360112610be8576004357fffffffff00000000000000000000000000000000000000000000000000000000811680910361070257602092507f7965db0b000000000000000000000000000000000000000000000000000000008114908115612834575b5015158152f35b7f01ffc9a7000000000000000000000000000000000000000000000000000000009150143861282d565b6004359073ffffffffffffffffffffffffffffffffffffffff821682036119c957565b6024359073ffffffffffffffffffffffffffffffffffffffff821682036119c957565b80548210156128bc5760005260206000200190600090565b7f4e487b7100000000000000000000000000000000000000000000000000000000600052603260045260246000fd5b9060038210156128f85752565b7f4e487b7100000000000000000000000000000000000000000000000000000000600052602160045260246000fd5b60005b83811061293a5750506000910152565b818101518382015260200161292a565b907fffffffffffffffffffffffffffffffffffffffffffffffffffffffffffffffe0601f60209361298681518092818752878088019101612927565b0116010190565b9c9e9d9a9694919299959360608e6129d2939e9a9b9e815273ffffffffffffffffffffffffffffffffffffffff809d81809816602084015216604082015201906128eb565b1660808b015260a08a015260c089015260058410156128f8576101a096612a1c9460e08a01526101008901526101208801526101408701526101c08061016088015286019061294a565b95166101808401521515910152565b67ffffffffffffffff8111612a3f57604052565b7f4e487b7100000000000000000000000000000000000000000000000000000000600052604160045260246000fd5b90601f7fffffffffffffffffffffffffffffffffffffffffffffffffffffffffffffffe0910116810190811067ffffffffffffffff821117612a3f57604052565b81601f820112156119c95780359067ffffffffffffffff8211612a3f5760405192612b0260207fffffffffffffffffffffffffffffffffffffffffffffffffffffffffffffffe0601f8601160185612a6e565b828452602083830101116119c957816000926020809301838601378301015290565b90600182811c92168015612b6d575b6020831014612b3e57565b7f4e487b7100000000000000000000000000000000000000000000000000000000600052602260045260246000fd5b91607f1691612b33565b9060405191826000825492612b8b84612b24565b908184526001948581169081600014612bfa5750600114612bb7575b5050612bb592500383612a6e565b565b9093915060005260209081600020936000915b818310612be2575050612bb593508201013880612ba7565b85548884018501529485019487945091830191612bca565b9050612bb59550602093507fffffffffffffffffffffffffffffffffffffffffffffffffffffffffffffff0091501682840152151560051b8201013880612ba7565b3360009081527f5111aeae4aa79889928e72f88b5872109754de9d419ea9a4e3df5fba21d4d46f60205260409020547f21702c8af46127c7fa207f89d0b0a8441bb32959a0ac7df790e9ab1a25c989269060ff1615612c985750565b604490604051907fe2517d3f0000000000000000000000000000000000000000000000000000000082523360048301526024820152fd5b3360009081527f3c1b1854ab1360abbb06c8d4c6b2672d4b8cedc5eff522ab19e51d5cb8fdbd4660205260409020547fbf233dd2aafeb4d50879c4aa5c81e96d92f6e6945c906a58f9f2d1c1631b4b269060ff1615612c985750565b3360009081527fad3228b676f7d3cd4284a5443f17f1962b36e491b30a40b2405849e597ba5fb5602052604081205460ff1615612c985750565b80600052600060205260406000203360005260205260ff6040600020541615612c985750565b73ffffffffffffffffffffffffffffffffffffffff1660008181527f5111aeae4aa79889928e72f88b5872109754de9d419ea9a4e3df5fba21d4d46f60205260408120549091907f21702c8af46127c7fa207f89d0b0a8441bb32959a0ac7df790e9ab1a25c989269060ff16612e635780835282602052604083208284526020526040832060017fffffffffffffffffffffffffffffffffffffffffffffffffffffffffffffff008254161790557f2f8788117e7eff1d82e926ec794901d17c78024a50270940304540a733656f0d339380a4600190565b505090565b906000918083528260205273ffffffffffffffffffffffffffffffffffffffff6040842092169182845260205260ff60408420541615600014612e635780835282602052604083208284526020526040832060017fffffffffffffffffffffffffffffffffffffffffffffffffffffffffffffff008254161790557f2f8788117e7eff1d82e926ec794901d17c78024a50270940304540a733656f0d339380a4600190565b73ffffffffffffffffffffffffffffffffffffffff1660008181527f5111aeae4aa79889928e72f88b5872109754de9d419ea9a4e3df5fba21d4d46f60205260408120549091907f21702c8af46127c7fa207f89d0b0a8441bb32959a0ac7df790e9ab1a25c989269060ff1615612e63578083528260205260408320828452602052604083207fffffffffffffffffffffffffffffffffffffffffffffffffffffffffffffff0081541690557ff6391f5c32d9c69d2a47ea670b442974b53935d1edc7fd64eb21e047a839171b339380a4600190565b906000918083528260205273ffffffffffffffffffffffffffffffffffffffff6040842092169182845260205260ff604084205416600014612e63578083528260205260408320828452602052604083207fffffffffffffffffffffffffffffffffffffffffffffffffffffffffffffff0081541690557ff6391f5c32d9c69d2a47ea670b442974b53935d1edc7fd64eb21e047a839171b339380a4600190565b1561308b57565b60646040517f08c379a000000000000000000000000000000000000000000000000000000000815260206004820152601160248201527f496e76616c696420726563697069656e740000000000000000000000000000006044820152fd5b156130f057565b60646040517f08c379a000000000000000000000000000000000000000000000000000000000815260206004820152601060248201527f416d6f756e7420746f6f20736d616c6c000000000000000000000000000000006044820152fd5b1561315557565b60646040517f08c379a000000000000000000000000000000000000000000000000000000000815260206004820152601060248201527f416d6f756e7420746f6f206c61726765000000000000000000000000000000006044820152fd5b7fffffffffffffffffffffffffffffffffffffffffffffffffffffffffffffffff81146131e05760010190565b7f4e487b7100000000000000000000000000000000000000000000000000000000600052601160045260246000fd5b9060038110156128f8577fffffffffffffffffffffff00ffffffffffffffffffffffffffffffffffffffff74ff000000000000000000000000000000000000000083549260a01b169116179055565b919082018092116131e057565b805468010000000000000000811015612a3f5761328d916001820181556128a4565b7fffffffffffffffffffffffffffffffffffffffffffffffffffffffffffffffff829392549160031b92831b921b1916179055565b908160209103126119c9575180151581036119c95790565b60ff600254166132e657565b60046040517fd93c0665000000000000000000000000000000000000000000000000000000008152fd5b1561331757565b60646040517f08c379a000000000000000000000000000000000000000000000000000000000815260206004820152601660248201527f5265717565737420646f6573206e6f74206578697374000000000000000000006044820152fd5b1561337c57565b60646040517f08c379a000000000000000000000000000000000000000000000000000000000815260206004820152601960248201527f496e76616c6964207265717565737420646972656374696f6e000000000000006044820152fd5b818102929181159184041417156131e057565b81156133f7570490565b7f4e487b7100000000000000000000000000000000000000000000000000000000600052601260045260246000fdfea264697066735822122073c49787b276b02aabdf2f70305ebfd6414ffc9a24284a46e7e2d446147f43cd64736f6c634300081400332f8788117e7eff1d82e926ec794901d17c78024a50270940304540a733656f0d",
  "linkReferences": {},
  "deployedLinkReferences": {}
}