{
  "_format": "hh-sol-artifact-1",
  "contractName": "Bridge",
  "sourceName": "contracts/Bridge.sol",
  "abi": [
    {
      "inputs": [
        {
          "internalType": "address",
          "name": "initialOwner",
          "type": "address"
        }
      ],
      "stateMutability": "nonpayable",
      "type": "constructor"
    },
    {
      "inputs": [],
      "name": "EnforcedPause",
      "type": "error"
    },
    {
      "inputs": [],
      "name": "ExpectedPause",
      "type": "error"
    },
    {
      "inputs": [
        {
          "internalType": "address",
          "name": "owner",
          "type": "address"
        }
      ],
      "name": "OwnableInvalidOwner",
      "type": "error"
    },
    {
      "inputs": [
        {
          "internalType": "address",
          "name": "account",
          "type": "address"
        }
      ],
      "name": "OwnableUnauthorizedAccount",
      "type": "error"
    },
    {
      "inputs": [],
      "name": "ReentrancyGuardReentrantCall",
      "type": "error"
    },
    {
      "anonymous": false,
      "inputs": [
        {
          "indexed": false,
          "internalType": "uint256",
          "name": "newFee",
          "type": "uint256"
        }
      ],
      "name": "BridgeFeeUpdated",
      "type": "event"
    },
    {
      "anonymous": false,
      "inputs": [
        {
          "indexed": true,
          "internalType": "uint256",
          "name": "requestId",
          "type": "uint256"
        },
        {
          "indexed": true,
          "internalType": "address",
          "name": "sender",
          "type": "address"
        },
        {
          "indexed": true,
          "internalType": "address",
          "name": "recipient",
          "type": "address"
        },
        {
          "indexed": false,
          "internalType": "uint256",
          "name": "sourceChainId",
          "type": "uint256"
        },
        {
          "indexed": false,
          "internalType": "uint256",
          "name": "destinationChainId",
          "type": "uint256"
        },
        {
          "indexed": false,
          "internalType": "enum Bridge.BridgeAssetType",
          "name": "assetType",
          "type": "uint8"
        },
        {
          "indexed": false,
          "internalType": "uint256",
          "name": "amount",
          "type": "uint256"
        },
        {
          "indexed": false,
          "internalType": "bytes32",
          "name": "hash",
          "type": "bytes32"
        }
      ],
      "name": "BridgeRequestCreated",
      "type": "event"
    },
    {
      "anonymous": false,
      "inputs": [
        {
          "indexed": true,
          "internalType": "uint256",
          "name": "requestId",
          "type": "uint256"
        },
        {
          "indexed": true,
          "internalType": "address",
          "name": "relayer",
          "type": "address"
        },
        {
          "indexed": false,
          "internalType": "enum Bridge.BridgeStatus",
          "name": "status",
          "type": "uint8"
        },
        {
          "indexed": false,
          "internalType": "uint256",
          "name": "timestamp",
          "type": "uint256"
        }
      ],
      "name": "BridgeRequestProcessed",
      "type": "event"
    },
    {
      "anonymous": false,
      "inputs": [
        {
          "indexed": true,
          "internalType": "uint256",
          "name": "chainId",
          "type": "uint256"
        },
        {
          "indexed": false,
          "internalType": "uint256",
          "name": "minConfirmations",
          "type": "uint256"
        },
        {
          "indexed": false,
          "internalType": "uint256",
          "name": "bridgeFee",
          "type": "uint256"
        }
      ],
      "name": "ChainAdded",
      "type": "event"
    },
    {
      "anonymous": false,
      "inputs": [
        {
          "indexed": true,
          "internalType": "uint256",
          "name": "chainId",
          "type": "uint256"
        },
        {
          "indexed": false,
          "internalType": "bool",
          "name": "isActive",
          "type": "bool"
        }
      ],
      "name": "ChainUpdated",
      "type": "event"
    },
    {
      "anonymous": false,
      "inputs": [
        {
          "indexed": false,
          "internalType": "uint256",
          "name": "newAmount",
          "type": "uint256"
        }
      ],
      "name": "MaxBridgeAmountUpdated",
      "type": "event"
    },
    {
      "anonymous": false,
      "inputs": [
        {
          "indexed": true,
          "internalType": "address",
          "name": "previousOwner",
          "type": "address"
        },
        {
          "indexed": true,
          "internalType": "address",
          "name": "newOwner",
          "type": "address"
        }
      ],
      "name": "OwnershipTransferred",
      "type": "event"
    },
    {
      "anonymous": false,
      "inputs": [
        {
          "indexed": false,
          "internalType": "address",
          "name": "account",
          "type": "address"
        }
      ],
      "name": "Paused",
      "type": "event"
    },
    {
      "anonymous": false,
      "inputs": [
        {
          "indexed": true,
          "internalType": "address",
          "name": "relayer",
          "type": "address"
        },
        {
          "indexed": false,
          "internalType": "uint256",
          "name": "stake",
          "type": "uint256"
        }
      ],
      "name": "RelayerRegistered",
      "type": "event"
    },
    {
      "anonymous": false,
      "inputs": [
        {
          "indexed": true,
          "internalType": "address",
          "name": "relayer",
          "type": "address"
        },
        {
          "indexed": false,
          "internalType": "uint256",
          "name": "newStake",
          "type": "uint256"
        }
      ],
      "name": "RelayerStakeUpdated",
      "type": "event"
    },
    {
      "anonymous": false,
      "inputs": [
        {
          "indexed": false,
          "internalType": "address",
          "name": "account",
          "type": "address"
        }
      ],
      "name": "Unpaused",
      "type": "event"
    },
    {
      "inputs": [
        {
          "internalType": "uint256",
          "name": "_chainId",
          "type": "uint256"
        },
        {
          "internalType": "uint256",
          "name": "minConfirmations",
          "type": "uint256"
        },
        {
          "internalType": "uint256",
          "name": "_bridgeFee",
          "type": "uint256"
        }
      ],
      "name": "addSupportedChain",
      "outputs": [],
      "stateMutability": "nonpayable",
      "type": "function"
    },
    {
      "inputs": [
        {
          "internalType": "address",
          "name": "",
          "type": "address"
        }
      ],
      "name": "authorizedRelayers",
      "outputs": [
        {
          "internalType": "bool",
          "name": "",
          "type": "bool"
        }
      ],
      "stateMutability": "view",
      "type": "function"
    },
    {
      "inputs": [],
      "name": "bridgeFee",
      "outputs": [
        {
          "internalType": "uint256",
          "name": "",
          "type": "uint256"
        }
      ],
      "stateMutability": "view",
      "type": "function"
    },
    {
      "inputs": [
        {
          "internalType": "address",
          "name": "recipient",
          "type": "address"
        },
        {
          "internalType": "uint256",
          "name": "destinationChainId",
          "type": "uint256"
        },
        {
          "internalType": "address",
          "name": "assetAddress",
          "type": "address"
        },
        {
          "internalType": "uint256",
          "name": "amount",
          "type": "uint256"
        }
      ],
      "name": "bridgeGamingAsset",
      "outputs": [],
      "stateMutability": "payable",
      "type": "function"
    },
    {
      "inputs": [
        {
          "internalType": "address",
          "name": "recipient",
          "type": "address"
        },
        {
          "internalType": "uint256",
          "name": "destinationChainId",
          "type": "uint256"
        },
        {
          "internalType": "address",
          "name": "assetAddress",
          "type": "address"
        },
        {
          "internalType": "uint256",
          "name": "tokenId",
          "type": "uint256"
        }
      ],
      "name": "bridgeNFT",
      "outputs": [],
      "stateMutability": "payable",
      "type": "function"
    },
    {
      "inputs": [
        {
          "internalType": "uint256",
          "name": "",
          "type": "uint256"
        }
      ],
      "name": "bridgeRequests",
      "outputs": [
        {
          "internalType": "uint256",
          "name": "requestId",
          "type": "uint256"
        },
        {
          "internalType": "address",
          "name": "sender",
          "type": "address"
        },
        {
          "internalType": "address",
          "name": "recipient",
          "type": "address"
        },
        {
          "internalType": "uint256",
          "name": "sourceChainId",
          "type": "uint256"
        },
        {
          "internalType": "uint256",
          "name": "destinationChainId",
          "type": "uint256"
        },
        {
          "internalType": "enum Bridge.BridgeAssetType",
          "name": "assetType",
          "type": "uint8"
        },
        {
          "internalType": "address",
          "name": "assetAddress",
          "type": "address"
        },
        {
          "internalType": "uint256",
          "name": "amount",
          "type": "uint256"
        },
        {
          "internalType": "uint256",
          "name": "tokenId",
          "type": "uint256"
        },
        {
          "internalType": "bytes32",
          "name": "hash",
          "type": "bytes32"
        },
        {
          "internalType": "enum Bridge.BridgeStatus",
          "name": "status",
          "type": "uint8"
        },
        {
          "internalType": "uint256",
          "name": "timestamp",
          "type": "uint256"
        },
        {
          "internalType": "uint256",
          "name": "processedAt",
          "type": "uint256"
        },
        {
          "internalType": "address",
          "name": "relayer",
          "type": "address"
        }
      ],
      "stateMutability": "view",
      "type": "function"
    },
    {
      "inputs": [
        {
          "internalType": "address",
          "name": "recipient",
          "type": "address"
        },
        {
          "internalType": "uint256",
          "name": "destinationChainId",
          "type": "uint256"
        },
        {
          "internalType": "address",
          "name": "assetAddress",
          "type": "address"
        },
        {
          "internalType": "uint256",
          "name": "amount",
          "type": "uint256"
        }
      ],
      "name": "bridgeTokens",
      "outputs": [],
      "stateMutability": "payable",
      "type": "function"
    },
    {
      "inputs": [
        {
          "internalType": "uint256",
          "name": "requestId",
          "type": "uint256"
        }
      ],
      "name": "cancelBridgeRequest",
      "outputs": [],
      "stateMutability": "nonpayable",
      "type": "function"
    },
    {
      "inputs": [],
      "name": "chainId",
      "outputs": [
        {
          "internalType": "uint256",
          "name": "",
          "type": "uint256"
        }
      ],
      "stateMutability": "view",
      "type": "function"
    },
    {
      "inputs": [],
      "name": "emergencyWithdraw",
      "outputs": [],
      "stateMutability": "nonpayable",
      "type": "function"
    },
    {
      "inputs": [],
      "name": "gamingCore",
      "outputs": [
        {
          "internalType": "address",
          "name": "",
          "type": "address"
        }
      ],
      "stateMutability": "view",
      "type": "function"
    },
    {
      "inputs": [],
      "name": "gdiToken",
      "outputs": [
        {
          "internalType": "address",
          "name": "",
          "type": "address"
        }
      ],
      "stateMutability": "view",
      "type": "function"
    },
    {
      "inputs": [
        {
          "internalType": "uint256",
          "name": "requestId",
          "type": "uint256"
        }
      ],
      "name": "getBridgeRequest",
      "outputs": [
        {
          "internalType": "address",
          "name": "sender",
          "type": "address"
        },
        {
          "internalType": "address",
          "name": "recipient",
          "type": "address"
        },
        {
          "internalType": "uint256",
          "name": "sourceChainId",
          "type": "uint256"
        },
        {
          "internalType": "uint256",
          "name": "destinationChainId",
          "type": "uint256"
        },
        {
          "internalType": "enum Bridge.BridgeAssetType",
          "name": "assetType",
          "type": "uint8"
        },
        {
          "internalType": "address",
          "name": "assetAddress",
          "type": "address"
        },
        {
          "internalType": "uint256",
          "name": "amount",
          "type": "uint256"
        },
        {
          "internalType": "uint256",
          "name": "tokenId",
          "type": "uint256"
        },
        {
          "internalType": "enum Bridge.BridgeStatus",
          "name": "status",
          "type": "uint8"
        },
        {
          "internalType": "uint256",
          "name": "timestamp",
          "type": "uint256"
        },
        {
          "internalType": "uint256",
          "name": "processedAt",
          "type": "uint256"
        },
        {
          "internalType": "address",
          "name": "relayer",
          "type": "address"
        }
      ],
      "stateMutability": "view",
      "type": "function"
    },
    {
      "inputs": [
        {
          "internalType": "uint256",
          "name": "_chainId",
          "type": "uint256"
        }
      ],
      "name": "getChainConfig",
      "outputs": [
        {
          "internalType": "bool",
          "name": "isSupported",
          "type": "bool"
        },
        {
          "internalType": "uint256",
          "name": "minConfirmations",
          "type": "uint256"
        },
        {
          "internalType": "uint256",
          "name": "maxGasLimit",
          "type": "uint256"
        },
        {
          "internalType": "uint256",
          "name": "bridgeFee",
          "type": "uint256"
        },
        {
          "internalType": "bool",
          "name": "isActive",
          "type": "bool"
        }
      ],
      "stateMutability": "view",
      "type": "function"
    },
    {
      "inputs": [
        {
          "internalType": "uint256",
          "name": "_chainId",
          "type": "uint256"
        }
      ],
      "name": "getPendingRequests",
      "outputs": [
        {
          "internalType": "uint256[]",
          "name": "",
          "type": "uint256[]"
        }
      ],
      "stateMutability": "view",
      "type": "function"
    },
    {
      "inputs": [
        {
          "internalType": "address",
          "name": "relayer",
          "type": "address"
        }
      ],
      "name": "getRelayerInfo",
      "outputs": [
        {
          "internalType": "uint256",
          "name": "totalProcessed",
          "type": "uint256"
        },
        {
          "internalType": "uint256",
          "name": "totalVolume",
          "type": "uint256"
        },
        {
          "internalType": "uint256",
          "name": "lastActivity",
          "type": "uint256"
        },
        {
          "internalType": "bool",
          "name": "isActive",
          "type": "bool"
        },
        {
          "internalType": "uint256",
          "name": "stake",
          "type": "uint256"
        }
      ],
      "stateMutability": "view",
      "type": "function"
    },
    {
      "inputs": [],
      "name": "getTotalRequests",
      "outputs": [
        {
          "internalType": "uint256",
          "name": "",
          "type": "uint256"
        }
      ],
      "stateMutability": "view",
      "type": "function"
    },
    {
      "inputs": [
        {
          "internalType": "address",
          "name": "relayer",
          "type": "address"
        }
      ],
      "name": "isAuthorizedRelayer",
      "outputs": [
        {
          "internalType": "bool",
          "name": "",
          "type": "bool"
        }
      ],
      "stateMutability": "view",
      "type": "function"
    },
    {
      "inputs": [],
      "name": "maxBridgeAmount",
      "outputs": [
        {
          "internalType": "uint256",
          "name": "",
          "type": "uint256"
        }
      ],
      "stateMutability": "view",
      "type": "function"
    },
    {
      "inputs": [],
      "name": "minRelayerStake",
      "outputs": [
        {
          "internalType": "uint256",
          "name": "",
          "type": "uint256"
        }
      ],
      "stateMutability": "view",
      "type": "function"
    },
    {
      "inputs": [],
      "name": "owner",
      "outputs": [
        {
          "internalType": "address",
          "name": "",
          "type": "address"
        }
      ],
      "stateMutability": "view",
      "type": "function"
    },
    {
      "inputs": [],
      "name": "pause",
      "outputs": [],
      "stateMutability": "nonpayable",
      "type": "function"
    },
    {
      "inputs": [],
      "name": "paused",
      "outputs": [
        {
          "internalType": "bool",
          "name": "",
          "type": "bool"
        }
      ],
      "stateMutability": "view",
      "type": "function"
    },
    {
      "inputs": [
        {
          "internalType": "uint256",
          "name": "requestId",
          "type": "uint256"
        },
        {
          "internalType": "bool",
          "name": "success",
          "type": "bool"
        }
      ],
      "name": "processBridgeRequest",
      "outputs": [],
      "stateMutability": "nonpayable",
      "type": "function"
    },
    {
      "inputs": [
        {
          "internalType": "bytes32",
          "name": "",
          "type": "bytes32"
        }
      ],
      "name": "processedHashes",
      "outputs": [
        {
          "internalType": "bool",
          "name": "",
          "type": "bool"
        }
      ],
      "stateMutability": "view",
      "type": "function"
    },
    {
      "inputs": [],
      "name": "registerRelayer",
      "outputs": [],
      "stateMutability": "payable",
      "type": "function"
    },
    {
      "inputs": [
        {
          "internalType": "address",
          "name": "",
          "type": "address"
        }
      ],
      "name": "relayers",
      "outputs": [
        {
          "internalType": "address",
          "name": "relayer",
          "type": "address"
        },
        {
          "internalType": "uint256",
          "name": "totalProcessed",
          "type": "uint256"
        },
        {
          "internalType": "uint256",
          "name": "totalVolume",
          "type": "uint256"
        },
        {
          "internalType": "uint256",
          "name": "lastActivity",
          "type": "uint256"
        },
        {
          "internalType": "bool",
          "name": "isActive",
          "type": "bool"
        },
        {
          "internalType": "uint256",
          "name": "stake",
          "type": "uint256"
        }
      ],
      "stateMutability": "view",
      "type": "function"
    },
    {
      "inputs": [],
      "name": "renounceOwnership",
      "outputs": [],
      "stateMutability": "nonpayable",
      "type": "function"
    },
    {
      "inputs": [
        {
          "internalType": "uint256",
          "name": "",
          "type": "uint256"
        }
      ],
      "name": "supportedChains",
      "outputs": [
        {
          "internalType": "bool",
          "name": "isSupported",
          "type": "bool"
        },
        {
          "internalType": "uint256",
          "name": "minConfirmations",
          "type": "uint256"
        },
        {
          "internalType": "uint256",
          "name": "maxGasLimit",
          "type": "uint256"
        },
        {
          "internalType": "uint256",
          "name": "bridgeFee",
          "type": "uint256"
        },
        {
          "internalType": "bool",
          "name": "isActive",
          "type": "bool"
        }
      ],
      "stateMutability": "view",
      "type": "function"
    },
    {
      "inputs": [],
      "name": "totalRequests",
      "outputs": [
        {
          "internalType": "uint256",
          "name": "",
          "type": "uint256"
        }
      ],
      "stateMutability": "view",
      "type": "function"
    },
    {
      "inputs": [],
      "name": "totalVolume",
      "outputs": [
        {
          "internalType": "uint256",
          "name": "",
          "type": "uint256"
        }
      ],
      "stateMutability": "view",
      "type": "function"
    },
    {
      "inputs": [
        {
          "internalType": "address",
          "name": "newOwner",
          "type": "address"
        }
      ],
      "name": "transferOwnership",
      "outputs": [],
      "stateMutability": "nonpayable",
      "type": "function"
    },
    {
      "inputs": [],
      "name": "unpause",
      "outputs": [],
      "stateMutability": "nonpayable",
      "type": "function"
    },
    {
      "inputs": [
        {
          "internalType": "uint256",
          "name": "newFee",
          "type": "uint256"
        }
      ],
      "name": "updateBridgeFee",
      "outputs": [],
      "stateMutability": "nonpayable",
      "type": "function"
    },
    {
      "inputs": [
        {
          "internalType": "uint256",
          "name": "_chainId",
          "type": "uint256"
        },
        {
          "internalType": "bool",
          "name": "isActive",
          "type": "bool"
        }
      ],
      "name": "updateChainStatus",
      "outputs": [],
      "stateMutability": "nonpayable",
      "type": "function"
    },
    {
      "inputs": [
        {
          "internalType": "uint256",
          "name": "newAmount",
          "type": "uint256"
        }
      ],
      "name": "updateMaxBridgeAmount",
      "outputs": [],
      "stateMutability": "nonpayable",
      "type": "function"
    },
    {
      "inputs": [
        {
          "internalType": "uint256",
          "name": "newStake",
          "type": "uint256"
        }
      ],
      "name": "updateMinRelayerStake",
      "outputs": [],
      "stateMutability": "nonpayable",
      "type": "function"
    },
    {
      "inputs": [],
      "name": "updateRelayerStake",
      "outputs": [],
      "stateMutability": "payable",
      "type": "function"
    },
    {
      "inputs": [
        {
          "internalType": "uint256",
          "name": "amount",
          "type": "uint256"
        }
      ],
      "name": "withdrawFees",
      "outputs": [],
      "stateMutability": "nonpayable",
      "type": "function"
    },
    {
      "inputs": [
        {
          "internalType": "uint256",
          "name": "amount",
          "type": "uint256"
        }
      ],
      "name": "withdrawRelayerStake",
      "outputs": [],
      "stateMutability": "nonpayable",
      "type": "function"
    },
    {
      "stateMutability": "payable",
      "type": "receive"
    }
  ],
  "bytecode": "0x608034620000ee57601f620035ea38819003918201601f19168301916001600160401b03831184841017620000f357808492602094604052833981010312620000ee57516001600160a01b039081811690819003620000ee5760016000558015620000d557600180546001600160a01b03198116831790915560405192167f8be0079c531659141344cd1fd0a4f28419497f9722a3daafe3b4186f6b6457e0600080a3683635c9adc5dea0000060095566038d7ea4c68000600a5569152d02c7e14af6800000600b556134e090816200010a8239f35b604051631e4fbdf760e01b815260006004820152602490fd5b600080fd5b634e487b7160e01b600052604160045260246000fdfe60806040818152600480361015610021575b505050361561001f57600080fd5b005b600092833560e01c90816306bfd20b14612d085750806307d9c53414612cbe5780630bcb8efc14612c535780630f3f6b5b14612bb757806312b885ef14612b7a57806319ed16dc1461221a57806324a4dc6014612a3357806329d37dfe146128d557806329e295c5146107c15780632f99492f146125da5780633008afed146124e457806338bd1bc1146124915780633f4ba83a146123d057806341fe0275146123385780635300f84114612298578063548d496f1461221a5780635a1c0366146121af5780635c975abb1461216a5780635e318e071461209b5780635f81a57c1461205e57806360132c9c1461202157806368ff1b9014611fce578063715018a614611f3057806381e8f91c14611ef057806382b12dd714611eb35780638456cb5914611e085780638aea61dc14611dcb5780638da5cb5b14611d78578063965d273d146114c95780639a8a05921461148c5780639cbdf5931461124e5780639f89c8a21461113e578063b325732b14610dff578063cd1b006814610aeb578063ce384d9d146108a4578063db2e21bc14610828578063e0f324d9146107c1578063eecfb1531461030b578063f0e22d52146102ca5763f2fde38b0361001157346102c65760207ffffffffffffffffffffffffffffffffffffffffffffffffffffffffffffffffc3601126102c657610219612d9b565b90610222612eac565b73ffffffffffffffffffffffffffffffffffffffff809216928315610297575050600154827fffffffffffffffffffffffff0000000000000000000000000000000000000000821617600155167f8be0079c531659141344cd1fd0a4f28419497f9722a3daafe3b4186f6b6457e0600080a380f35b908460249251917f1e4fbdf7000000000000000000000000000000000000000000000000000000008352820152fd5b8280fd5b50503461030757817ffffffffffffffffffffffffffffffffffffffffffffffffffffffffffffffffc360112610307576020906002549051908152f35b5080fd5b5091903461030757602090817ffffffffffffffffffffffffffffffffffffffffffffffffffffffffffffffffc3601126102c65783359061034a61324d565b8184526003835280842094610361865415156132f1565b600186019373ffffffffffffffffffffffffffffffffffffffff9687865416973389036107655760098201805460ff811660058110156106dd576103a59015613356565b600384015460085403610709577fffffffffffffffffffffffffffffffffffffffffffffffffffffffffffffff00168517905542600b83015560058201805460ff81169a60038c10156106dd578b8b9c9b9a9b156000146104f057505050976006828594936104719b5460081c1692541692015491888751809b819582947fa9059cbb0000000000000000000000000000000000000000000000000000000084528a84016020909392919373ffffffffffffffffffffffffffffffffffffffff60408201951681520152565b03925af19586156104e6577f87d5c61d4f32fd2e04e0138cf13cf5234d1e89040785f2616ff155397c0c08379495966104b9575b505b82519182524290820152a36001815580f35b6104d890823d84116104df575b6104d081836131bb565b8101906131fc565b50386104a5565b503d6104c6565b83513d87823e3d90fd5b6001819c979a9b9c146000146105db5750505090806007925460081c16935416910154823b156105d75784517f23b872dd0000000000000000000000000000000000000000000000000000000081523085820190815273ffffffffffffffffffffffffffffffffffffffff9093166020840152604083019190915291879183919082908490829060600103925af180156105cd579086916105b5575b50507f87d5c61d4f32fd2e04e0138cf13cf5234d1e89040785f2616ff155397c0c0837926104a7565b6105be9061315b565b6105c957843861058c565b8480fd5b83513d88823e3d90fd5b8780fd5b90939a999895506002919492501461061b575b5050507f87d5c61d4f32fd2e04e0138cf13cf5234d1e89040785f2616ff155397c0c0837939495506104a7565b9161067f989188600686950154938851809c819682957fa9059cbb0000000000000000000000000000000000000000000000000000000084528b84016020909392919373ffffffffffffffffffffffffffffffffffffffff60408201951681520152565b039360081c165af19586156104e6577f87d5c61d4f32fd2e04e0138cf13cf5234d1e89040785f2616ff155397c0c08379495966106c0575b869594816105ee565b6106d690823d84116104df576104d081836131bb565b50386106b7565b60248b6021897f4e487b7100000000000000000000000000000000000000000000000000000000835252fd5b606486868951917f08c379a0000000000000000000000000000000000000000000000000000000008352820152601260248201527f57726f6e6720736f7572636520636861696e00000000000000000000000000006044820152fd5b505060649251917f08c379a0000000000000000000000000000000000000000000000000000000008352820152601660248201527f4f6e6c792073656e6465722063616e2063616e63656c000000000000000000006044820152fd5b5050346103075760207ffffffffffffffffffffffffffffffffffffffffffffffffffffffffffffffffc3601126103075760ff8160209373ffffffffffffffffffffffffffffffffffffffff610815612d9b565b1681526007855220541690519015158152f35b50503461030757817ffffffffffffffffffffffffffffffffffffffffffffffffffffffffffffffffc36011261030757610860612eac565b8180808073ffffffffffffffffffffffffffffffffffffffff60015416479082821561089b575bf115610891575080f35b51903d90823e3d90fd5b506108fc610887565b509190346103075760607ffffffffffffffffffffffffffffffffffffffffffffffffffffffffffffffffc360112610307578235906024356044356108e7612eac565b6008548414610a8e578385528560205260ff8386205416610a3157825160a0810181811067ffffffffffffffff821117610a0357907f5acc0f12d6544a46007aeaf7ea1e9fb6f658da9f7df336bb6c10b3041774c3a89596976109f592865260018252878960208401878152888501906207a12082526109ae8a60608801948a86526080890196600188528152876020522096511515879060ff7fffffffffffffffffffffffffffffffffffffffffffffffffffffffffffffff0083541691151516179055565b51600186015551600285015551600384015551151591019060ff7fffffffffffffffffffffffffffffffffffffffffffffffffffffffffffffff0083541691151516179055565b82519182526020820152a280f35b6041887f4e487b71000000000000000000000000000000000000000000000000000000006000525260246000fd5b60648660208551917f08c379a0000000000000000000000000000000000000000000000000000000008352820152601760248201527f436861696e20616c726561647920737570706f727465640000000000000000006044820152fd5b60648660208551917f08c379a0000000000000000000000000000000000000000000000000000000008352820152601860248201527f43616e6e6f74206164642063757272656e7420636861696e00000000000000006044820152fd5b5090610af636612e00565b909193610b0161324d565b610b09613214565b848752602094868652610b2160ff838a205416612efd565b808852868652610b3860ff88848b20015416612f62565b610b43831515612fc7565b73ffffffffffffffffffffffffffffffffffffffff80861697610b6789151561302c565b600891610b778354851415613091565b610b85600a543410156130f6565b84517f23b872dd000000000000000000000000000000000000000000000000000000008152338382019081523060208201526040810188905290918a9183919082908f90829060600103928c165af18015610df5579060029594939291610dd8575b50610bf28554613288565b978886558254908551908b8201928b84527fffffffffffffffffffffffffffffffffffffffff0000000000000000000000008092813360601b168a86015260601b16605484015260688301528560888301527f020000000000000000000000000000000000000000000000000000000000000060a88301528960601b1660a98201528760bd820152600060dd8201524260fd82015260fd8152610c948161319e565b519020968860005260038a528385600020928a8455600184017fffffffffffffffffffffffff00000000000000000000000000000000000000009033828254161790558d89860191825416179055845460038501558301558560058301917fffffffffffffffffffffff00000000000000000000000000000000000000000074ffffffffffffffffffffffffffffffffffffffff00845492871b16911617179055856006820155600060078201558682820155600981017fffffffffffffffffffffffffffffffffffffffffffffffffffffffffffffff008154169055600a42910155610d82600d54613288565b600d55610d9185600c546132e4565b600c5554968251978852870152850152606084015260808301527fe9e9bb1ba7ffaf872e854d3488dc2e6d28f8c17223c14819fd2e225b1c2dd9c060a03393a46001815580f35b610dee908a3d8c116104df576104d081836131bb565b5038610be7565b85513d8d823e3d90fd5b50610e0936612e00565b90919294610e1561324d565b610e1d613214565b83875284602052610e3360ff8289205416612efd565b83875284602052610e4b60ff86838a20015416612f62565b73ffffffffffffffffffffffffffffffffffffffff80871695610e6f87151561302c565b88600892610e808454891415613091565b610e8e600a543410156130f6565b8616803b156103075784517f23b872dd00000000000000000000000000000000000000000000000000000000815233848201908152306020820152604081018890529091839183919082908490829060600103925af180156111345761111c575b5050610efc600254613288565b9485600255825484519960208b01918883527fffffffffffffffffffffffffffffffffffffffff00000000000000000000000080928d89833360601b1691015260601b1660548d015260688c01528860888c01527f010000000000000000000000000000000000000000000000000000000000000060a88c01528260601b1660a98b01526001998a60bd8201528660dd8201524260fd82015260fd8152610fa28161319e565b5190209486600052600360205284600020918783558a83017fffffffffffffffffffffffff00000000000000000000000000000000000000009033828254161790558a60028501918254161790558454600384015588848401558a60058401917fffffffffffffffffffffff00000000000000000000000000000000000000000074ffffffffffffffffffffffffffffffffffffffff00845492891b1691161717905589600683015560078201558483820155600981017fffffffffffffffffffffffffffffffffffffffffffffffffffffffffffffff008154169055600a42910155611090600d54613288565b600d55600c54908882018092116110ee575090879291600c5554948151958652602086015284015284606084015260808301527fe9e9bb1ba7ffaf872e854d3488dc2e6d28f8c17223c14819fd2e225b1c2dd9c060a03393a4815580f35b6011907f4e487b71000000000000000000000000000000000000000000000000000000006000525260246000fd5b6111259061315b565b611130578838610eef565b8880fd5b85513d84823e3d90fd5b50823461124b5760207ffffffffffffffffffffffffffffffffffffffffffffffffffffffffffffffffc36011261124b5782908235815260036020522080549273ffffffffffffffffffffffffffffffffffffffff806001840154169381600285015416916003850154918501549060058601549060068701549160078801549360088901549560098a015460ff1697600a8b01549985600b8d01549c600c0154169c81519e8f908152602001528d015260608c015260808b015260a08a0160ff82169061120b91612e63565b60081c1660c089015260e0880152610100870152610120860152610140850161123391612e9f565b6101608401526101808301526101a08201526101c090f35b80fd5b50913461124b57602090817ffffffffffffffffffffffffffffffffffffffffffffffffffffffffffffffffc36011261124b578391933593819060025493600194855b818111156113fa57506112bb6112a685613492565b946112b3895196876131bb565b808652613492565b977fffffffffffffffffffffffffffffffffffffffffffffffffffffffffffffffe08486019901368a378590875b838111156113295750505050508451948186019282875251809352850195925b8281106113165785870386f35b8351875295810195928101928401611309565b80889697989b999b526003875289862082868201541490816113b5575b50611361575b61135590613288565b999799969594966112e9565b918751811015611389576113818184896113559460051b8c010152613288565b92905061134c565b6024866032877f4e487b7100000000000000000000000000000000000000000000000000000000835252fd5b60ff9150600901541660058110156113ce571538611346565b6024876021887f4e487b7100000000000000000000000000000000000000000000000000000000835252fd5b808694959699979952600385528784208784820154149081611447575b50611432575b61142690613288565b97959794939294611291565b9461143f61142691613288565b95905061141d565b60ff915060090154166005811015611460571538611417565b6024856021867f4e487b7100000000000000000000000000000000000000000000000000000000835252fd5b50503461030757817ffffffffffffffffffffffffffffffffffffffffffffffffffffffffffffffffc360112610307576020906008549051908152f35b5090346102c6576114d936612dc3565b91903385526020916007835260ff80828820541615611d1c576114fa61324d565b611502613214565b82875260038452818720611518815415156132f1565b60098101908154968388166005811015611cf0576115369015613356565b8882015497600898895403611c94578115611c8d5760025b6005811015611c6157857fffffffffffffffffffffffffffffffffffffffffffffffffffffffffffffff009116911617835542600b830155600c8201337fffffffffffffffffffffffff0000000000000000000000000000000000000000825416179055338a5260058752848a20976001988981016115cd8154613288565b905560068401928354916002926115e88483019182546132e4565b90556003429101556000146119275760058401805487811660038110156118fa578e9493929190806116f357505054940154925487517fa9059cbb00000000000000000000000000000000000000000000000000000000815273ffffffffffffffffffffffffffffffffffffffff9485169c81019c8d5260208d01919091529a89948c94921c909116918391829060400103925af19687156116e9577f87d5c61d4f32fd2e04e0138cf13cf5234d1e89040785f2616ff155397c0c0837949596976116cc575b505b5416936116bf82518096612e9f565b42908501523393a3815580f35b6116e290873d89116104df576104d081836131bb565b50386116ae565b83513d8a823e3d90fd5b8d9e96929395989b9c9d81146000146117f2575050509060079173ffffffffffffffffffffffffffffffffffffffff91829154901c16928501541693015490803b156105c95786517f23b872dd0000000000000000000000000000000000000000000000000000000081523093810193845273ffffffffffffffffffffffffffffffffffffffff90941660208401526040830191909152839183919082908490829060600103925af180156117e8576117d0575b50507f87d5c61d4f32fd2e04e0138cf13cf5234d1e89040785f2616ff155397c0c0837926116b0565b6117d99061315b565b6117e45786386117a7565b8680fd5b84513d84823e3d90fd5b85949792969e9d9c9b989591935014611837575b5050505050507f87d5c61d4f32fd2e04e0138cf13cf5234d1e89040785f2616ff155397c0c083793949596506116b0565b9190910154925487517fa9059cbb00000000000000000000000000000000000000000000000000000000815273ffffffffffffffffffffffffffffffffffffffff9485169c81019c8d5260208d01919091529a89948c94909385939092849060400103941c165af19687156116e9577f87d5c61d4f32fd2e04e0138cf13cf5234d1e89040785f2616ff155397c0c0837949596976118dd575b8796959489828080611806565b6118f390873d89116104df576104d081836131bb565b50386118d0565b5060248e60218f7f4e487b7100000000000000000000000000000000000000000000000000000000835252fd5b600584939b9401908154908782166003811015611c35578e949392919080611a085750509054938b01549b5488517fa9059cbb00000000000000000000000000000000000000000000000000000000815273ffffffffffffffffffffffffffffffffffffffff9d8e1696810196875260208701919091529b8a958d95908690036040019486949093501c165af19687156116e9577f87d5c61d4f32fd2e04e0138cf13cf5234d1e89040785f2616ff155397c0c0837949596976119eb575b506116b0565b611a0190873d89116104df576104d081836131bb565b50386119e5565b8d9e9394959798999a9b9c9d8114600014611b2e575050505060079073ffffffffffffffffffffffffffffffffffffffff92839154901c16918b8401541692015491813b15611b2a5787517f23b872dd0000000000000000000000000000000000000000000000000000000081523095810195865273ffffffffffffffffffffffffffffffffffffffff90911660208601526040850192909252909283919082908490829060600103925af18015611b2057611ae9575b50907f87d5c61d4f32fd2e04e0138cf13cf5234d1e89040785f2616ff155397c0c083792916116b0565b96611b177f87d5c61d4f32fd2e04e0138cf13cf5234d1e89040785f2616ff155397c0c08379493929861315b565b96909192611abf565b84513d8a823e3d90fd5b8380fd5b979d9c9b9a99989794969295929491935014611b75575b50505050507f87d5c61d4f32fd2e04e0138cf13cf5234d1e89040785f2616ff155397c0c083793949596506116b0565b8a0154925487517fa9059cbb00000000000000000000000000000000000000000000000000000000815273ffffffffffffffffffffffffffffffffffffffff9485169c81019c8d5260208d01919091529a89948c94909385939092849060400103941c165af19687156116e9577f87d5c61d4f32fd2e04e0138cf13cf5234d1e89040785f2616ff155397c0c083794959697611c18575b87969594898280611b45565b611c2e90873d89116104df576104d081836131bb565b5038611c0c565b60248f6021897f4e487b7100000000000000000000000000000000000000000000000000000000835252fd5b60248c60218d7f4e487b7100000000000000000000000000000000000000000000000000000000835252fd5b600361154e565b60648a898851917f08c379a0000000000000000000000000000000000000000000000000000000008352820152601760248201527f57726f6e672064657374696e6174696f6e20636861696e0000000000000000006044820152fd5b60248b60218c7f4e487b7100000000000000000000000000000000000000000000000000000000835252fd5b606486858451917f08c379a0000000000000000000000000000000000000000000000000000000008352820152601860248201527f4f6e6c7920617574686f72697a65642072656c617965727300000000000000006044820152fd5b50503461030757817ffffffffffffffffffffffffffffffffffffffffffffffffffffffffffffffffc3601126103075760209073ffffffffffffffffffffffffffffffffffffffff600154169051908152f35b50503461030757817ffffffffffffffffffffffffffffffffffffffffffffffffffffffffffffffffc36011261030757602090600d549051908152f35b50503461030757817ffffffffffffffffffffffffffffffffffffffffffffffffffffffffffffffffc3601126103075760207f62e78cea01bee320cd4e420270b5ea74000d11b0c9f74754ebdbfc544b05a25891611e64612eac565b611e6c613214565b740100000000000000000000000000000000000000007fffffffffffffffffffffff00ffffffffffffffffffffffffffffffffffffffff600154161760015551338152a180f35b50503461030757817ffffffffffffffffffffffffffffffffffffffffffffffffffffffffffffffffc36011261030757602090600a549051908152f35b8382346103075760207ffffffffffffffffffffffffffffffffffffffffffffffffffffffffffffffffc36011261030757611f29612eac565b3560095580f35b833461124b57807ffffffffffffffffffffffffffffffffffffffffffffffffffffffffffffffffc36011261124b57611f67612eac565b8073ffffffffffffffffffffffffffffffffffffffff6001547fffffffffffffffffffffffff00000000000000000000000000000000000000008116600155167f8be0079c531659141344cd1fd0a4f28419497f9722a3daafe3b4186f6b6457e08280a380f35b50503461030757817ffffffffffffffffffffffffffffffffffffffffffffffffffffffffffffffffc3601126103075760209073ffffffffffffffffffffffffffffffffffffffff600f54169051908152f35b50503461030757817ffffffffffffffffffffffffffffffffffffffffffffffffffffffffffffffffc36011261030757602090600b549051908152f35b50503461030757817ffffffffffffffffffffffffffffffffffffffffffffffffffffffffffffffffc36011261030757602090600c549051908152f35b50346102c65760207ffffffffffffffffffffffffffffffffffffffffffffffffffffffffffffffffc3601126102c6578035906120d6612eac565b47821161210d5750828080809373ffffffffffffffffffffffffffffffffffffffff6001541682821561089b57f115610891575080f35b60649060208451917f08c379a0000000000000000000000000000000000000000000000000000000008352820152601460248201527f496e73756666696369656e742062616c616e63650000000000000000000000006044820152fd5b50503461030757817ffffffffffffffffffffffffffffffffffffffffffffffffffffffffffffffffc3601126103075760209060ff60015460a01c1690519015158152f35b50346102c65760207ffffffffffffffffffffffffffffffffffffffffffffffffffffffffffffffffc3601126102c6577f42dfb00d085d601e55327921154ae76c1b24270b026c5a0c51caee18eb4c401f91602091359061220e612eac565b81600a5551908152a180f35b50913461124b5760207ffffffffffffffffffffffffffffffffffffffffffffffffffffffffffffffffc36011261124b578235815260208381529082902080546001820154600283015460038401549390960154945160ff92831615158152938401526040830194909452606082015291161515608082015260a090f35b5090346102c65760207ffffffffffffffffffffffffffffffffffffffffffffffffffffffffffffffffc3601126102c65760c0928173ffffffffffffffffffffffffffffffffffffffff91826122ec612d9b565b1681526005602052209081541692600182015492600283015490600560ff60038601549486015416940154948151968752602087015285015260608401521515608083015260a0820152f35b5050817ffffffffffffffffffffffffffffffffffffffffffffffffffffffffffffffffc3601126103075761236b61324d565b338252600760205261238260ff8284205416613420565b33825260056020526005818320019061239c3483546132e4565b809255519081527fba769bac59249eeaac9b10e55d3523a94e1a39ba9bf9058cd2bdefc61509122560203392a26001815580f35b50346102c657827ffffffffffffffffffffffffffffffffffffffffffffffffffffffffffffffffc3601126102c657612407612eac565b6001549060ff8260a01c161561246a57507f5db9ee0a495bf2e6ff9c91a7834c1ba4fdd244a5e8aa4e537bd38aeae4b073aa917fffffffffffffffffffffff00ffffffffffffffffffffffffffffffffffffffff6020921660015551338152a180f35b82517f8dfc202b000000000000000000000000000000000000000000000000000000008152fd5b50503461030757817ffffffffffffffffffffffffffffffffffffffffffffffffffffffffffffffffc3601126103075760209073ffffffffffffffffffffffffffffffffffffffff600e54169051908152f35b5090346102c65760207ffffffffffffffffffffffffffffffffffffffffffffffffffffffffffffffffc3601126102c65780610180938335815260036020522073ffffffffffffffffffffffffffffffffffffffff916125c6836001840154169484600285015416946003850154918501549060058601549060068701549160078801549360ff60098a01541695600a8a01549884600c600b8d01549c0154169b602082519e8f90815201528c015260608b01526125a860808b0160ff8316612e63565b60081c1660a089015260c088015260e0870152610100860190612e9f565b610120840152610140830152610160820152f35b50906125e536612e00565b9091936125f061324d565b6125f8613214565b84875260209486865261261060ff838a205416612efd565b80885286865261262760ff88848b20015416612f62565b612632831515612fc7565b600b5483116128795790879173ffffffffffffffffffffffffffffffffffffffff808716986126628a151561302c565b6008916126728354851415613091565b612680600a543410156130f6565b84517f23b872dd000000000000000000000000000000000000000000000000000000008152338382019081523060208201526040810189905290918b9183919082908a90829060600103928d165af1801561286f57612852575b506126e6600254613288565b97886002558254908551908b8201928b84527fffffffffffffffffffffffffffffffffffffffff0000000000000000000000008092813360601b168a86015260601b16605484015260688301528560888301528760a88301528960601b1660a98201528760bd8201528660dd8201524260fd82015260fd81526127688161319e565b5190209688865260038a5283858720928a8455600184017fffffffffffffffffffffffff00000000000000000000000000000000000000009033828254161790558d60028601918254161790558454600385015583015560058201907fffffffffffffffffffffff00000000000000000000000000000000000000000074ffffffffffffffffffffffffffffffffffffffff00835492861b1691161790558560068201558460078201558682820155600981017fffffffffffffffffffffffffffffffffffffffffffffffffffffffffffffff008154169055600a42910155610d82600d54613288565b612868908a3d8c116104df576104d081836131bb565b50386126da565b85513d88823e3d90fd5b606487878451917f08c379a0000000000000000000000000000000000000000000000000000000008352820152601660248201527f416d6f756e742065786365656473206d6178696d756d000000000000000000006044820152fd5b50827ffffffffffffffffffffffffffffffffffffffffffffffffffffffffffffffffc3601126102c65761290761324d565b6129156009543410156133bb565b338352600760205260ff82842054166129d75733835260076020528183207fffffffffffffffffffffffffffffffffffffffffffffffffffffffffffffff00906001828254161790556005602052600183852092337fffffffffffffffffffffffff0000000000000000000000000000000000000000855416178455346005850155830191825416179055600342910155513481527f193a79fd17752d71da6eaba98e99be182b006d3e3178dd96b26a52f905e23e7d60203392a26001815580f35b602060649251917f08c379a0000000000000000000000000000000000000000000000000000000008352820152601260248201527f416c7265616479207265676973746572656400000000000000000000000000006044820152fd5b50346102c65760207ffffffffffffffffffffffffffffffffffffffffffffffffffffffffffffffffc3601126102c6578035612a6d61324d565b3384526007602052612a8460ff8486205416613420565b338452600560205260058385200191825490612aa2838310156133bb565b612aac8383613485565b60095411612b1d5750848083612ac482958395613485565b8655818115612b14575b3390f115612b09575490519081527fba769bac59249eeaac9b10e55d3523a94e1a39ba9bf9058cd2bdefc61509122560203392a26001815580f35b5051903d90823e3d90fd5b506108fc612ace565b60649060208651917f08c379a0000000000000000000000000000000000000000000000000000000008352820152601360248201527f5374616b652062656c6f77206d696e696d756d000000000000000000000000006044820152fd5b50503461030757817ffffffffffffffffffffffffffffffffffffffffffffffffffffffffffffffffc360112610307576020906009549051908152f35b5090346102c6576020612c497f87634784dcd711c95eeada7ac1b47534172532618b7c1938b456431c04dad21492612bee36612dc3565b80939196612bfa612eac565b878952808652612c0f60ff858b205416612efd565b878952808652838920019060ff7fffffffffffffffffffffffffffffffffffffffffffffffffffffffffffffff0083541691151516179055565b519015158152a280f35b50346102c65760207ffffffffffffffffffffffffffffffffffffffffffffffffffffffffffffffffc3601126102c6577f61f826fd5f5541dc947a43f59f3bffc0a62554a95c7a1fba5556eefedaa694f1916020913590612cb2612eac565b81600b5551908152a180f35b50346102c65760207ffffffffffffffffffffffffffffffffffffffffffffffffffffffffffffffffc3601126102c6578160209360ff923581526006855220541690519015158152f35b9291905034611b2a5760207ffffffffffffffffffffffffffffffffffffffffffffffffffffffffffffffffc360112611b2a578160a09473ffffffffffffffffffffffffffffffffffffffff612d5c612d9b565b168152600560205220906001820154926002830154600560ff600386015494860154169401549486526020860152840152151560608301526080820152f35b6004359073ffffffffffffffffffffffffffffffffffffffff82168203612dbe57565b600080fd5b7ffffffffffffffffffffffffffffffffffffffffffffffffffffffffffffffffc6040910112612dbe57600435906024358015158103612dbe5790565b7ffffffffffffffffffffffffffffffffffffffffffffffffffffffffffffffffc6080910112612dbe5773ffffffffffffffffffffffffffffffffffffffff6004358181168103612dbe5791602435916044359081168103612dbe579060643590565b906003821015612e705752565b7f4e487b7100000000000000000000000000000000000000000000000000000000600052602160045260246000fd5b906005821015612e705752565b73ffffffffffffffffffffffffffffffffffffffff600154163303612ecd57565b60246040517f118cdaa7000000000000000000000000000000000000000000000000000000008152336004820152fd5b15612f0457565b60646040517f08c379a000000000000000000000000000000000000000000000000000000000815260206004820152601360248201527f436861696e206e6f7420737570706f72746564000000000000000000000000006044820152fd5b15612f6957565b60646040517f08c379a000000000000000000000000000000000000000000000000000000000815260206004820152601060248201527f436861696e206e6f7420616374697665000000000000000000000000000000006044820152fd5b15612fce57565b60646040517f08c379a000000000000000000000000000000000000000000000000000000000815260206004820152601d60248201527f416d6f756e74206d7573742062652067726561746572207468616e20300000006044820152fd5b1561303357565b60646040517f08c379a000000000000000000000000000000000000000000000000000000000815260206004820152601160248201527f496e76616c696420726563697069656e740000000000000000000000000000006044820152fd5b1561309857565b60646040517f08c379a000000000000000000000000000000000000000000000000000000000815260206004820152601b60248201527f43616e6e6f742062726964676520746f2073616d6520636861696e00000000006044820152fd5b156130fd57565b60646040517f08c379a000000000000000000000000000000000000000000000000000000000815260206004820152601760248201527f496e73756666696369656e7420627269646765206665650000000000000000006044820152fd5b67ffffffffffffffff811161316f57604052565b7f4e487b7100000000000000000000000000000000000000000000000000000000600052604160045260246000fd5b610120810190811067ffffffffffffffff82111761316f57604052565b90601f7fffffffffffffffffffffffffffffffffffffffffffffffffffffffffffffffe0910116810190811067ffffffffffffffff82111761316f57604052565b90816020910312612dbe57518015158103612dbe5790565b60ff60015460a01c1661322357565b60046040517fd93c0665000000000000000000000000000000000000000000000000000000008152fd5b60026000541461325e576002600055565b60046040517f3ee5aeb5000000000000000000000000000000000000000000000000000000008152fd5b7fffffffffffffffffffffffffffffffffffffffffffffffffffffffffffffffff81146132b55760010190565b7f4e487b7100000000000000000000000000000000000000000000000000000000600052601160045260246000fd5b919082018092116132b557565b156132f857565b60646040517f08c379a000000000000000000000000000000000000000000000000000000000815260206004820152601660248201527f5265717565737420646f6573206e6f74206578697374000000000000000000006044820152fd5b1561335d57565b60646040517f08c379a000000000000000000000000000000000000000000000000000000000815260206004820152601360248201527f52657175657374206e6f742070656e64696e67000000000000000000000000006044820152fd5b156133c257565b60646040517f08c379a000000000000000000000000000000000000000000000000000000000815260206004820152601260248201527f496e73756666696369656e74207374616b6500000000000000000000000000006044820152fd5b1561342757565b60646040517f08c379a000000000000000000000000000000000000000000000000000000000815260206004820152600d60248201527f4e6f7420612072656c61796572000000000000000000000000000000000000006044820152fd5b919082039182116132b557565b67ffffffffffffffff811161316f5760051b6020019056fea26469706673582212206193b584252ffa059ec2d4c3a1fb983166855e3fa6b090b494753a3ca91d6cb264736f6c63430008140033",
  "linkReferences": {},
  "deployedLinkReferences": {}
}