{
  "_format": "hh-sol-artifact-1",
  "contractName": "GameDinSettlement",
  "sourceName": "contracts/GameDinSettlement.sol",
  "abi": [
    {
      "inputs": [
        {
          "internalType": "address",
          "name": "initialOwner",
          "type": "address"
        },
        {
          "internalType": "uint256",
          "name": "initialSupply",
          "type": "uint256"
        }
      ],
      "stateMutability": "nonpayable",
      "type": "constructor"
    },
    {
      "inputs": [],
      "name": "AccessControlBadConfirmation",
      "type": "error"
    },
    {
      "inputs": [
        {
          "internalType": "address",
          "name": "account",
          "type": "address"
        },
        {
          "internalType": "bytes32",
          "name": "neededRole",
          "type": "bytes32"
        }
      ],
      "name": "AccessControlUnauthorizedAccount",
      "type": "error"
    },
    {
      "inputs": [
        {
          "internalType": "address",
          "name": "spender",
          "type": "address"
        },
        {
          "internalType": "uint256",
          "name": "allowance",
          "type": "uint256"
        },
        {
          "internalType": "uint256",
          "name": "needed",
          "type": "uint256"
        }
      ],
      "name": "ERC20InsufficientAllowance",
      "type": "error"
    },
    {
      "inputs": [
        {
          "internalType": "address",
          "name": "sender",
          "type": "address"
        },
        {
          "internalType": "uint256",
          "name": "balance",
          "type": "uint256"
        },
        {
          "internalType": "uint256",
          "name": "needed",
          "type": "uint256"
        }
      ],
      "name": "ERC20InsufficientBalance",
      "type": "error"
    },
    {
      "inputs": [
        {
          "internalType": "address",
          "name": "approver",
          "type": "address"
        }
      ],
      "name": "ERC20InvalidApprover",
      "type": "error"
    },
    {
      "inputs": [
        {
          "internalType": "address",
          "name": "receiver",
          "type": "address"
        }
      ],
      "name": "ERC20InvalidReceiver",
      "type": "error"
    },
    {
      "inputs": [
        {
          "internalType": "address",
          "name": "sender",
          "type": "address"
        }
      ],
      "name": "ERC20InvalidSender",
      "type": "error"
    },
    {
      "inputs": [
        {
          "internalType": "address",
          "name": "spender",
          "type": "address"
        }
      ],
      "name": "ERC20InvalidSpender",
      "type": "error"
    },
    {
      "inputs": [],
      "name": "EnforcedPause",
      "type": "error"
    },
    {
      "inputs": [],
      "name": "ExpectedPause",
      "type": "error"
    },
    {
      "inputs": [],
      "name": "ReentrancyGuardReentrantCall",
      "type": "error"
    },
    {
      "anonymous": false,
      "inputs": [
        {
          "indexed": true,
          "internalType": "address",
          "name": "owner",
          "type": "address"
        },
        {
          "indexed": true,
          "internalType": "address",
          "name": "spender",
          "type": "address"
        },
        {
          "indexed": false,
          "internalType": "uint256",
          "name": "value",
          "type": "uint256"
        }
      ],
      "name": "Approval",
      "type": "event"
    },
    {
      "anonymous": false,
      "inputs": [
        {
          "indexed": true,
          "internalType": "address",
          "name": "bridgeAddress",
          "type": "address"
        },
        {
          "indexed": false,
          "internalType": "bool",
          "name": "isActive",
          "type": "bool"
        },
        {
          "indexed": false,
          "internalType": "uint256",
          "name": "minConfirmations",
          "type": "uint256"
        },
        {
          "indexed": false,
          "internalType": "uint256",
          "name": "maxAmount",
          "type": "uint256"
        },
        {
          "indexed": false,
          "internalType": "uint256",
          "name": "fee",
          "type": "uint256"
        }
      ],
      "name": "BridgeConfigUpdated",
      "type": "event"
    },
    {
      "anonymous": false,
      "inputs": [
        {
          "indexed": false,
          "internalType": "uint256",
          "name": "oldFee",
          "type": "uint256"
        },
        {
          "indexed": false,
          "internalType": "uint256",
          "name": "newFee",
          "type": "uint256"
        }
      ],
      "name": "DisputeFeeUpdated",
      "type": "event"
    },
    {
      "anonymous": false,
      "inputs": [
        {
          "indexed": true,
          "internalType": "uint256",
          "name": "settlementId",
          "type": "uint256"
        },
        {
          "indexed": true,
          "internalType": "address",
          "name": "resolver",
          "type": "address"
        },
        {
          "indexed": false,
          "internalType": "string",
          "name": "resolution",
          "type": "string"
        },
        {
          "indexed": false,
          "internalType": "uint256",
          "name": "timestamp",
          "type": "uint256"
        }
      ],
      "name": "DisputeResolved",
      "type": "event"
    },
    {
      "anonymous": false,
      "inputs": [
        {
          "indexed": false,
          "internalType": "address",
          "name": "account",
          "type": "address"
        }
      ],
      "name": "Paused",
      "type": "event"
    },
    {
      "anonymous": false,
      "inputs": [
        {
          "indexed": true,
          "internalType": "bytes32",
          "name": "role",
          "type": "bytes32"
        },
        {
          "indexed": true,
          "internalType": "bytes32",
          "name": "previousAdminRole",
          "type": "bytes32"
        },
        {
          "indexed": true,
          "internalType": "bytes32",
          "name": "newAdminRole",
          "type": "bytes32"
        }
      ],
      "name": "RoleAdminChanged",
      "type": "event"
    },
    {
      "anonymous": false,
      "inputs": [
        {
          "indexed": true,
          "internalType": "bytes32",
          "name": "role",
          "type": "bytes32"
        },
        {
          "indexed": true,
          "internalType": "address",
          "name": "account",
          "type": "address"
        },
        {
          "indexed": true,
          "internalType": "address",
          "name": "sender",
          "type": "address"
        }
      ],
      "name": "RoleGranted",
      "type": "event"
    },
    {
      "anonymous": false,
      "inputs": [
        {
          "indexed": true,
          "internalType": "bytes32",
          "name": "role",
          "type": "bytes32"
        },
        {
          "indexed": true,
          "internalType": "address",
          "name": "account",
          "type": "address"
        },
        {
          "indexed": true,
          "internalType": "address",
          "name": "sender",
          "type": "address"
        }
      ],
      "name": "RoleRevoked",
      "type": "event"
    },
    {
      "anonymous": false,
      "inputs": [
        {
          "indexed": true,
          "internalType": "uint256",
          "name": "settlementId",
          "type": "uint256"
        },
        {
          "indexed": true,
          "internalType": "address",
          "name": "confirmer",
          "type": "address"
        },
        {
          "indexed": false,
          "internalType": "uint256",
          "name": "timestamp",
          "type": "uint256"
        }
      ],
      "name": "SettlementConfirmed",
      "type": "event"
    },
    {
      "anonymous": false,
      "inputs": [
        {
          "indexed": true,
          "internalType": "uint256",
          "name": "settlementId",
          "type": "uint256"
        },
        {
          "indexed": true,
          "internalType": "address",
          "name": "from",
          "type": "address"
        },
        {
          "indexed": true,
          "internalType": "address",
          "name": "to",
          "type": "address"
        },
        {
          "indexed": false,
          "internalType": "uint256",
          "name": "amount",
          "type": "uint256"
        },
        {
          "indexed": false,
          "internalType": "string",
          "name": "l3TransactionHash",
          "type": "string"
        },
        {
          "indexed": false,
          "internalType": "uint256",
          "name": "timestamp",
          "type": "uint256"
        }
      ],
      "name": "SettlementCreated",
      "type": "event"
    },
    {
      "anonymous": false,
      "inputs": [
        {
          "indexed": true,
          "internalType": "uint256",
          "name": "settlementId",
          "type": "uint256"
        },
        {
          "indexed": true,
          "internalType": "address",
          "name": "initiator",
          "type": "address"
        },
        {
          "indexed": false,
          "internalType": "enum GameDinSettlement.DisputeReason",
          "name": "reason",
          "type": "uint8"
        },
        {
          "indexed": false,
          "internalType": "string",
          "name": "details",
          "type": "string"
        },
        {
          "indexed": false,
          "internalType": "uint256",
          "name": "timestamp",
          "type": "uint256"
        }
      ],
      "name": "SettlementDisputed",
      "type": "event"
    },
    {
      "anonymous": false,
      "inputs": [
        {
          "indexed": false,
          "internalType": "uint256",
          "name": "oldFee",
          "type": "uint256"
        },
        {
          "indexed": false,
          "internalType": "uint256",
          "name": "newFee",
          "type": "uint256"
        }
      ],
      "name": "SettlementFeeUpdated",
      "type": "event"
    },
    {
      "anonymous": false,
      "inputs": [
        {
          "indexed": true,
          "internalType": "address",
          "name": "from",
          "type": "address"
        },
        {
          "indexed": true,
          "internalType": "address",
          "name": "to",
          "type": "address"
        },
        {
          "indexed": false,
          "internalType": "uint256",
          "name": "value",
          "type": "uint256"
        }
      ],
      "name": "Transfer",
      "type": "event"
    },
    {
      "anonymous": false,
      "inputs": [
        {
          "indexed": false,
          "internalType": "address",
          "name": "account",
          "type": "address"
        }
      ],
      "name": "Unpaused",
      "type": "event"
    },
    {
      "inputs": [],
      "name": "BRIDGE_ROLE",
      "outputs": [
        {
          "internalType": "bytes32",
          "name": "",
          "type": "bytes32"
        }
      ],
      "stateMutability": "view",
      "type": "function"
    },
    {
      "inputs": [],
      "name": "DEFAULT_ADMIN_ROLE",
      "outputs": [
        {
          "internalType": "bytes32",
          "name": "",
          "type": "bytes32"
        }
      ],
      "stateMutability": "view",
      "type": "function"
    },
    {
      "inputs": [],
      "name": "DISPUTE_RESOLVER_ROLE",
      "outputs": [
        {
          "internalType": "bytes32",
          "name": "",
          "type": "bytes32"
        }
      ],
      "stateMutability": "view",
      "type": "function"
    },
    {
      "inputs": [],
      "name": "DISPUTE_WINDOW",
      "outputs": [
        {
          "internalType": "uint256",
          "name": "",
          "type": "uint256"
        }
      ],
      "stateMutability": "view",
      "type": "function"
    },
    {
      "inputs": [],
      "name": "EMERGENCY_ROLE",
      "outputs": [
        {
          "internalType": "bytes32",
          "name": "",
          "type": "bytes32"
        }
      ],
      "stateMutability": "view",
      "type": "function"
    },
    {
      "inputs": [],
      "name": "MAX_SETTLEMENT_AMOUNT",
      "outputs": [
        {
          "internalType": "uint256",
          "name": "",
          "type": "uint256"
        }
      ],
      "stateMutability": "view",
      "type": "function"
    },
    {
      "inputs": [],
      "name": "SETTLEMENT_ROLE",
      "outputs": [
        {
          "internalType": "bytes32",
          "name": "",
          "type": "bytes32"
        }
      ],
      "stateMutability": "view",
      "type": "function"
    },
    {
      "inputs": [],
      "name": "SETTLEMENT_TIMEOUT",
      "outputs": [
        {
          "internalType": "uint256",
          "name": "",
          "type": "uint256"
        }
      ],
      "stateMutability": "view",
      "type": "function"
    },
    {
      "inputs": [
        {
          "internalType": "address",
          "name": "owner",
          "type": "address"
        },
        {
          "internalType": "address",
          "name": "spender",
          "type": "address"
        }
      ],
      "name": "allowance",
      "outputs": [
        {
          "internalType": "uint256",
          "name": "",
          "type": "uint256"
        }
      ],
      "stateMutability": "view",
      "type": "function"
    },
    {
      "inputs": [
        {
          "internalType": "address",
          "name": "spender",
          "type": "address"
        },
        {
          "internalType": "uint256",
          "name": "value",
          "type": "uint256"
        }
      ],
      "name": "approve",
      "outputs": [
        {
          "internalType": "bool",
          "name": "",
          "type": "bool"
        }
      ],
      "stateMutability": "nonpayable",
      "type": "function"
    },
    {
      "inputs": [
        {
          "internalType": "address",
          "name": "account",
          "type": "address"
        }
      ],
      "name": "balanceOf",
      "outputs": [
        {
          "internalType": "uint256",
          "name": "",
          "type": "uint256"
        }
      ],
      "stateMutability": "view",
      "type": "function"
    },
    {
      "inputs": [
        {
          "internalType": "address",
          "name": "",
          "type": "address"
        }
      ],
      "name": "bridgeConfigs",
      "outputs": [
        {
          "internalType": "address",
          "name": "bridgeAddress",
          "type": "address"
        },
        {
          "internalType": "bool",
          "name": "isActive",
          "type": "bool"
        },
        {
          "internalType": "uint256",
          "name": "minConfirmations",
          "type": "uint256"
        },
        {
          "internalType": "uint256",
          "name": "maxAmount",
          "type": "uint256"
        },
        {
          "internalType": "uint256",
          "name": "fee",
          "type": "uint256"
        }
      ],
      "stateMutability": "view",
      "type": "function"
    },
    {
      "inputs": [
        {
          "internalType": "address",
          "name": "bridgeAddress",
          "type": "address"
        },
        {
          "internalType": "bool",
          "name": "isActive",
          "type": "bool"
        },
        {
          "internalType": "uint256",
          "name": "minConfirmations",
          "type": "uint256"
        },
        {
          "internalType": "uint256",
          "name": "maxAmount",
          "type": "uint256"
        },
        {
          "internalType": "uint256",
          "name": "fee",
          "type": "uint256"
        }
      ],
      "name": "configureBridge",
      "outputs": [],
      "stateMutability": "nonpayable",
      "type": "function"
    },
    {
      "inputs": [
        {
          "internalType": "uint256",
          "name": "settlementId",
          "type": "uint256"
        }
      ],
      "name": "confirmSettlement",
      "outputs": [],
      "stateMutability": "nonpayable",
      "type": "function"
    },
    {
      "inputs": [
        {
          "internalType": "address",
          "name": "to",
          "type": "address"
        },
        {
          "internalType": "uint256",
          "name": "amount",
          "type": "uint256"
        },
        {
          "internalType": "string",
          "name": "l3TransactionHash",
          "type": "string"
        },
        {
          "internalType": "bytes32",
          "name": "merkleRoot",
          "type": "bytes32"
        }
      ],
      "name": "createSettlement",
      "outputs": [],
      "stateMutability": "nonpayable",
      "type": "function"
    },
    {
      "inputs": [],
      "name": "decimals",
      "outputs": [
        {
          "internalType": "uint8",
          "name": "",
          "type": "uint8"
        }
      ],
      "stateMutability": "view",
      "type": "function"
    },
    {
      "inputs": [],
      "name": "disputeFee",
      "outputs": [
        {
          "internalType": "uint256",
          "name": "",
          "type": "uint256"
        }
      ],
      "stateMutability": "view",
      "type": "function"
    },
    {
      "inputs": [
        {
          "internalType": "uint256",
          "name": "",
          "type": "uint256"
        }
      ],
      "name": "disputes",
      "outputs": [
        {
          "internalType": "uint256",
          "name": "settlementId",
          "type": "uint256"
        },
        {
          "internalType": "address",
          "name": "initiator",
          "type": "address"
        },
        {
          "internalType": "enum GameDinSettlement.DisputeReason",
          "name": "reason",
          "type": "uint8"
        },
        {
          "internalType": "string",
          "name": "details",
          "type": "string"
        },
        {
          "internalType": "uint256",
          "name": "timestamp",
          "type": "uint256"
        },
        {
          "internalType": "bool",
          "name": "resolved",
          "type": "bool"
        },
        {
          "internalType": "address",
          "name": "resolver",
          "type": "address"
        },
        {
          "internalType": "string",
          "name": "resolution",
          "type": "string"
        }
      ],
      "stateMutability": "view",
      "type": "function"
    },
    {
      "inputs": [],
      "name": "emergencyWithdrawETH",
      "outputs": [],
      "stateMutability": "nonpayable",
      "type": "function"
    },
    {
      "inputs": [
        {
          "internalType": "address",
          "name": "token",
          "type": "address"
        },
        {
          "internalType": "uint256",
          "name": "amount",
          "type": "uint256"
        }
      ],
      "name": "emergencyWithdrawTokens",
      "outputs": [],
      "stateMutability": "nonpayable",
      "type": "function"
    },
    {
      "inputs": [
        {
          "internalType": "address",
          "name": "bridgeAddress",
          "type": "address"
        }
      ],
      "name": "getBridgeConfig",
      "outputs": [
        {
          "internalType": "address",
          "name": "bridge",
          "type": "address"
        },
        {
          "internalType": "bool",
          "name": "isActive",
          "type": "bool"
        },
        {
          "internalType": "uint256",
          "name": "minConfirmations",
          "type": "uint256"
        },
        {
          "internalType": "uint256",
          "name": "maxAmount",
          "type": "uint256"
        },
        {
          "internalType": "uint256",
          "name": "fee",
          "type": "uint256"
        }
      ],
      "stateMutability": "view",
      "type": "function"
    },
    {
      "inputs": [
        {
          "internalType": "uint256",
          "name": "settlementId",
          "type": "uint256"
        }
      ],
      "name": "getDispute",
      "outputs": [
        {
          "internalType": "uint256",
          "name": "id",
          "type": "uint256"
        },
        {
          "internalType": "address",
          "name": "initiator",
          "type": "address"
        },
        {
          "internalType": "enum GameDinSettlement.DisputeReason",
          "name": "reason",
          "type": "uint8"
        },
        {
          "internalType": "string",
          "name": "details",
          "type": "string"
        },
        {
          "internalType": "uint256",
          "name": "timestamp",
          "type": "uint256"
        },
        {
          "internalType": "bool",
          "name": "resolved",
          "type": "bool"
        },
        {
          "internalType": "address",
          "name": "resolver",
          "type": "address"
        },
        {
          "internalType": "string",
          "name": "resolution",
          "type": "string"
        }
      ],
      "stateMutability": "view",
      "type": "function"
    },
    {
      "inputs": [
        {
          "internalType": "bytes32",
          "name": "role",
          "type": "bytes32"
        }
      ],
      "name": "getRoleAdmin",
      "outputs": [
        {
          "internalType": "bytes32",
          "name": "",
          "type": "bytes32"
        }
      ],
      "stateMutability": "view",
      "type": "function"
    },
    {
      "inputs": [
        {
          "internalType": "uint256",
          "name": "settlementId",
          "type": "uint256"
        }
      ],
      "name": "getSettlement",
      "outputs": [
        {
          "internalType": "uint256",
          "name": "id",
          "type": "uint256"
        },
        {
          "internalType": "address",
          "name": "from",
          "type": "address"
        },
        {
          "internalType": "address",
          "name": "to",
          "type": "address"
        },
        {
          "internalType": "uint256",
          "name": "amount",
          "type": "uint256"
        },
        {
          "internalType": "uint256",
          "name": "timestamp",
          "type": "uint256"
        },
        {
          "internalType": "enum GameDinSettlement.SettlementStatus",
          "name": "status",
          "type": "uint8"
        },
        {
          "internalType": "string",
          "name": "l3TransactionHash",
          "type": "string"
        },
        {
          "internalType": "bytes32",
          "name": "merkleRoot",
          "type": "bytes32"
        },
        {
          "internalType": "uint256",
          "name": "disputeDeadline",
          "type": "uint256"
        },
        {
          "internalType": "address",
          "name": "disputeInitiator",
          "type": "address"
        },
        {
          "internalType": "enum GameDinSettlement.DisputeReason",
          "name": "disputeReason",
          "type": "uint8"
        },
        {
          "internalType": "string",
          "name": "disputeDetails",
          "type": "string"
        }
      ],
      "stateMutability": "view",
      "type": "function"
    },
    {
      "inputs": [
        {
          "internalType": "address",
          "name": "user",
          "type": "address"
        }
      ],
      "name": "getUserSettlements",
      "outputs": [
        {
          "internalType": "uint256[]",
          "name": "",
          "type": "uint256[]"
        }
      ],
      "stateMutability": "view",
      "type": "function"
    },
    {
      "inputs": [
        {
          "internalType": "bytes32",
          "name": "role",
          "type": "bytes32"
        },
        {
          "internalType": "address",
          "name": "account",
          "type": "address"
        }
      ],
      "name": "grantRole",
      "outputs": [],
      "stateMutability": "nonpayable",
      "type": "function"
    },
    {
      "inputs": [
        {
          "internalType": "bytes32",
          "name": "role",
          "type": "bytes32"
        },
        {
          "internalType": "address",
          "name": "account",
          "type": "address"
        }
      ],
      "name": "hasRole",
      "outputs": [
        {
          "internalType": "bool",
          "name": "",
          "type": "bool"
        }
      ],
      "stateMutability": "view",
      "type": "function"
    },
    {
      "inputs": [
        {
          "internalType": "uint256",
          "name": "settlementId",
          "type": "uint256"
        },
        {
          "internalType": "enum GameDinSettlement.DisputeReason",
          "name": "reason",
          "type": "uint8"
        },
        {
          "internalType": "string",
          "name": "details",
          "type": "string"
        }
      ],
      "name": "initiateDispute",
      "outputs": [],
      "stateMutability": "payable",
      "type": "function"
    },
    {
      "inputs": [],
      "name": "name",
      "outputs": [
        {
          "internalType": "string",
          "name": "",
          "type": "string"
        }
      ],
      "stateMutability": "view",
      "type": "function"
    },
    {
      "inputs": [],
      "name": "pause",
      "outputs": [],
      "stateMutability": "nonpayable",
      "type": "function"
    },
    {
      "inputs": [],
      "name": "paused",
      "outputs": [
        {
          "internalType": "bool",
          "name": "",
          "type": "bool"
        }
      ],
      "stateMutability": "view",
      "type": "function"
    },
    {
      "inputs": [
        {
          "internalType": "address",
          "name": "from",
          "type": "address"
        },
        {
          "internalType": "address",
          "name": "to",
          "type": "address"
        },
        {
          "internalType": "uint256",
          "name": "amount",
          "type": "uint256"
        },
        {
          "internalType": "address",
          "name": "bridgeAddress",
          "type": "address"
        }
      ],
      "name": "processBridgeTransaction",
      "outputs": [],
      "stateMutability": "nonpayable",
      "type": "function"
    },
    {
      "inputs": [
        {
          "internalType": "bytes32",
          "name": "",
          "type": "bytes32"
        }
      ],
      "name": "processedL3Transactions",
      "outputs": [
        {
          "internalType": "bool",
          "name": "",
          "type": "bool"
        }
      ],
      "stateMutability": "view",
      "type": "function"
    },
    {
      "inputs": [
        {
          "internalType": "bytes32",
          "name": "role",
          "type": "bytes32"
        },
        {
          "internalType": "address",
          "name": "callerConfirmation",
          "type": "address"
        }
      ],
      "name": "renounceRole",
      "outputs": [],
      "stateMutability": "nonpayable",
      "type": "function"
    },
    {
      "inputs": [
        {
          "internalType": "uint256",
          "name": "settlementId",
          "type": "uint256"
        },
        {
          "internalType": "string",
          "name": "resolution",
          "type": "string"
        },
        {
          "internalType": "bool",
          "name": "approveSettlement",
          "type": "bool"
        }
      ],
      "name": "resolveDispute",
      "outputs": [],
      "stateMutability": "nonpayable",
      "type": "function"
    },
    {
      "inputs": [
        {
          "internalType": "bytes32",
          "name": "role",
          "type": "bytes32"
        },
        {
          "internalType": "address",
          "name": "account",
          "type": "address"
        }
      ],
      "name": "revokeRole",
      "outputs": [],
      "stateMutability": "nonpayable",
      "type": "function"
    },
    {
      "inputs": [],
      "name": "settlementCounter",
      "outputs": [
        {
          "internalType": "uint256",
          "name": "",
          "type": "uint256"
        }
      ],
      "stateMutability": "view",
      "type": "function"
    },
    {
      "inputs": [],
      "name": "settlementFee",
      "outputs": [
        {
          "internalType": "uint256",
          "name": "",
          "type": "uint256"
        }
      ],
      "stateMutability": "view",
      "type": "function"
    },
    {
      "inputs": [
        {
          "internalType": "uint256",
          "name": "",
          "type": "uint256"
        }
      ],
      "name": "settlements",
      "outputs": [
        {
          "internalType": "uint256",
          "name": "settlementId",
          "type": "uint256"
        },
        {
          "internalType": "address",
          "name": "from",
          "type": "address"
        },
        {
          "internalType": "address",
          "name": "to",
          "type": "address"
        },
        {
          "internalType": "uint256",
          "name": "amount",
          "type": "uint256"
        },
        {
          "internalType": "uint256",
          "name": "timestamp",
          "type": "uint256"
        },
        {
          "internalType": "enum GameDinSettlement.SettlementStatus",
          "name": "status",
          "type": "uint8"
        },
        {
          "internalType": "string",
          "name": "l3TransactionHash",
          "type": "string"
        },
        {
          "internalType": "bytes32",
          "name": "merkleRoot",
          "type": "bytes32"
        },
        {
          "internalType": "uint256",
          "name": "disputeDeadline",
          "type": "uint256"
        },
        {
          "internalType": "address",
          "name": "disputeInitiator",
          "type": "address"
        },
        {
          "internalType": "enum GameDinSettlement.DisputeReason",
          "name": "disputeReason",
          "type": "uint8"
        },
        {
          "internalType": "string",
          "name": "disputeDetails",
          "type": "string"
        }
      ],
      "stateMutability": "view",
      "type": "function"
    },
    {
      "inputs": [
        {
          "internalType": "bytes4",
          "name": "interfaceId",
          "type": "bytes4"
        }
      ],
      "name": "supportsInterface",
      "outputs": [
        {
          "internalType": "bool",
          "name": "",
          "type": "bool"
        }
      ],
      "stateMutability": "view",
      "type": "function"
    },
    {
      "inputs": [],
      "name": "symbol",
      "outputs": [
        {
          "internalType": "string",
          "name": "",
          "type": "string"
        }
      ],
      "stateMutability": "view",
      "type": "function"
    },
    {
      "inputs": [],
      "name": "totalDisputes",
      "outputs": [
        {
          "internalType": "uint256",
          "name": "",
          "type": "uint256"
        }
      ],
      "stateMutability": "view",
      "type": "function"
    },
    {
      "inputs": [],
      "name": "totalSettlements",
      "outputs": [
        {
          "internalType": "uint256",
          "name": "",
          "type": "uint256"
        }
      ],
      "stateMutability": "view",
      "type": "function"
    },
    {
      "inputs": [],
      "name": "totalSupply",
      "outputs": [
        {
          "internalType": "uint256",
          "name": "",
          "type": "uint256"
        }
      ],
      "stateMutability": "view",
      "type": "function"
    },
    {
      "inputs": [
        {
          "internalType": "address",
          "name": "to",
          "type": "address"
        },
        {
          "internalType": "uint256",
          "name": "value",
          "type": "uint256"
        }
      ],
      "name": "transfer",
      "outputs": [
        {
          "internalType": "bool",
          "name": "",
          "type": "bool"
        }
      ],
      "stateMutability": "nonpayable",
      "type": "function"
    },
    {
      "inputs": [
        {
          "internalType": "address",
          "name": "from",
          "type": "address"
        },
        {
          "internalType": "address",
          "name": "to",
          "type": "address"
        },
        {
          "internalType": "uint256",
          "name": "value",
          "type": "uint256"
        }
      ],
      "name": "transferFrom",
      "outputs": [
        {
          "internalType": "bool",
          "name": "",
          "type": "bool"
        }
      ],
      "stateMutability": "nonpayable",
      "type": "function"
    },
    {
      "inputs": [],
      "name": "unpause",
      "outputs": [],
      "stateMutability": "nonpayable",
      "type": "function"
    },
    {
      "inputs": [
        {
          "internalType": "uint256",
          "name": "newFee",
          "type": "uint256"
        }
      ],
      "name": "updateDisputeFee",
      "outputs": [],
      "stateMutability": "nonpayable",
      "type": "function"
    },
    {
      "inputs": [
        {
          "internalType": "uint256",
          "name": "newFee",
          "type": "uint256"
        }
      ],
      "name": "updateSettlementFee",
      "outputs": [],
      "stateMutability": "nonpayable",
      "type": "function"
    },
    {
      "inputs": [
        {
          "internalType": "address",
          "name": "",
          "type": "address"
        },
        {
          "internalType": "uint256",
          "name": "",
          "type": "uint256"
        }
      ],
      "name": "userSettlements",
      "outputs": [
        {
          "internalType": "uint256",
          "name": "",
          "type": "uint256"
        }
      ],
      "stateMutability": "view",
      "type": "function"
    },
    {
      "stateMutability": "payable",
      "type": "receive"
    }
  ],
  "bytecode": "0x608034620004585762003e1d90601f19906001600160401b03601f388590038181018516840190838211858310176200045d5780859160409889948552833981010312620004585782516001600160a01b03811694908581036200045857602080950151936200006e62000473565b90601882527f47616d6544696e20536574746c656d656e7420546f6b656e000000000000000087830152620000a262000473565b93600495868652634744495360e01b898701528351918383116200034f576003928354956001968781811c911680156200044d575b8d8210146200043857908c8286859411620003df575b50508c90858311600114620003705760009262000364575b505060001982861b1c191690861b1783555b86519384116200034f5787548581811c9116801562000344575b8b8210146200032f57828111620002e4575b5089918411600114620002725750908291620001c39660009362000266575b505082841b92600019911b1c19161784555b60075566038d7ea4c68000600b55662386f26fc10000600c55620001988162000493565b50620001a48162000514565b50620001b081620005b7565b50620001bc8162000655565b50620006f3565b5083156200024f57620001d562000791565b620001df62000791565b600254908282018092116200023a575060025560008381528083528481208054830190558451918252917fddf252ad1be2c89b69c2b068fc378daa952ba7f163c4a11628f55a4df523b3ef91a35161364c9081620007b18239f35b601190634e487b7160e01b6000525260246000fd5b602490600086519163ec442f0560e01b8352820152fd5b01519150388062000162565b8394959693169287600052896000209360005b8b828210620002cf575050918593918796620001c39998969410620002b4575b50505050811b01845562000174565b01519060f884600019921b161c1916905538808080620002a5565b83850151875595880195938401930162000285565b886000528a6000208380870160051c8201928d881062000325575b0160051c019086905b8281106200031857505062000143565b6000815501869062000308565b92508192620002ff565b602289634e487b7160e01b6000525260246000fd5b90607f169062000131565b604188634e487b7160e01b6000525260246000fd5b01519050388062000105565b908d91858a95168860005283600020936000905b828210620003bd5750508411620003a4575b505050811b01835562000117565b015160001983881b60f8161c1916905538808062000396565b91929395968291958786015181550195019301908f918b969594939262000384565b909192508660005285826000209181860160051c83019386106200042e575b918a91869594930160051c01915b8281106200041e57508e9150620000ed565b600081558594508a91016200040c565b92508192620003fe565b60228b634e487b7160e01b6000525260246000fd5b90607f1690620000d7565b600080fd5b634e487b7160e01b600052604160045260246000fd5b60408051919082016001600160401b038111838210176200045d57604052565b6001600160a01b031660008181527f54cdd369e4e8a8515e52ca72ec816c2101831ad1f18bf44102ed171459c9b4f8602052604081205490919060ff16620005105781805260066020526040822081835260205260408220600160ff19825416179055339160008051602062003dfd8339815191528180a4600190565b5090565b6001600160a01b031660008181527f44017833178cb959064128715f4ace9a64bbfc45712d4670fcace3e0c4a1693b60205260408120549091907f300f9ae985dc711960f7a4d1dd013f9c19ecf40bff149522ab7523b2187a38469060ff16620005b25780835260066020526040832082845260205260408320600160ff1982541617905560008051602062003dfd833981519152339380a4600190565b505090565b6001600160a01b031660008181527f866532df3c7b8a8304a854a94071efe99d9f2c853d9869138b5fbc8a8598b93760205260408120549091907f52ba824bfabc2bcfcdf7f0edbb486ebb05e1836c90e78047efeb949990f72e5f9060ff16620005b25780835260066020526040832082845260205260408320600160ff1982541617905560008051602062003dfd833981519152339380a4600190565b6001600160a01b031660008181527fc05ecb62b3da283f41a58bfabb0641c07f50e632bc46342d8a4c0cc10b5006ff60205260408120549091907f7b8bb8356a3f32f5c111ff23f050d97f08988e0883529ea7bff3b918887a6e0e9060ff16620005b25780835260066020526040832082845260205260408320600160ff1982541617905560008051602062003dfd833981519152339380a4600190565b6001600160a01b031660008181527f7aca5d7f7c0d5c6c775e2a7e40239a4d6963361b3df3b07df46432786460eb5760205260408120549091907fbf233dd2aafeb4d50879c4aa5c81e96d92f6e6945c906a58f9f2d1c1631b4b269060ff16620005b25780835260066020526040832082845260205260408320600160ff1982541617905560008051602062003dfd833981519152339380a4600190565b60ff600554166200079e57565b60405163d93c066560e01b8152600490fdfe608080604052600436101561001d575b50361561001b57600080fd5b005b60003560e01c90816301ffc9a714612b6657508063068d04d014612a0957806306fdde031461294557806308df7dc81461289f578063095ea7b3146127ee57806318160ddd146127b257806320df43591461275957806323b872dd146125d4578063248a9ca314612587578063267f2098146120e85780632f2ff15d1461208b578063313ce5671461205157806336568abe14611fc75780633c0a6e3814611f8b5780633f4ba83a14611ecd578063427ac0ca1461114c57806343b255ac14611d5a5780634c58238014611c9a578063564a565d14611c2c5780635c975abb14611beb57806370a0823114611b8657806376e8a88b14611b055780637d1d7fb814611ac95780638453601714611a715780638456cb59146119db57806384b971a51461199f57806388dae6a814611963578063899c45da146118f1578063917bb9981461181057806391d1485414611797578063933367a81461175457806395d89b41146116365780639de2e9d7146115c45780639e924eb5146114ba578063a217fddf14611480578063a9059cbb14611431578063b5bfddea146113d8578063b9ce896b1461139c578063ba9cf01d14611343578063bfcb704014611264578063bfe42a371461120b578063c4fc45a81461114c578063c5e4ccc414611110578063d0b1149c14610b4a578063d1d50fe614610464578063d547741f14610407578063dd62ed3e1461038a578063e3a96cbd146102e0578063f585dc57146102a45763fc1e29b614610250573861000f565b3461029f5760207ffffffffffffffffffffffffffffffffffffffffffffffffffffffffffffffffc36011261029f576004356000526010602052602060ff604060002054166040519015158152f35b600080fd5b3461029f5760007ffffffffffffffffffffffffffffffffffffffffffffffffffffffffffffffffc36011261029f5760206040516203f4808152f35b3461029f5760207ffffffffffffffffffffffffffffffffffffffffffffffffffffffffffffffffc36011261029f57600435600052600e6020526040600020805461038660018301549160038401549060048501549061034e600561034760028901612d62565b9701612d62565b9260405196879673ffffffffffffffffffffffffffffffffffffffff9360ff858760081c1696169460ff8360a01c1692169089612f6d565b0390f35b3461029f5760407ffffffffffffffffffffffffffffffffffffffffffffffffffffffffffffffffc36011261029f576103c1612c22565b6103c9612c45565b9073ffffffffffffffffffffffffffffffffffffffff8091166000526001602052604060002091166000526020526020604060002054604051908152f35b3461029f5760407ffffffffffffffffffffffffffffffffffffffffffffffffffffffffffffffffc36011261029f5761001b600435610444612c45565b9080600052600660205261045f60016040600020015461316f565b613241565b3461029f5760807ffffffffffffffffffffffffffffffffffffffffffffffffffffffffffffffffc36011261029f5761049b612c22565b60449067ffffffffffffffff823581811161029f576104be903690600401612ef8565b926104c7613113565b6104cf613462565b600260075414610b2057600260075573ffffffffffffffffffffffffffffffffffffffff831615610ac25760243515610a645769d3c21bcecceda100000060243511610a06578351156109a857604051602081019061054660208288516105398187858d01612c68565b8101038084520182612d21565b519020600052601060205260ff6040600020541661094a575061056a600854613435565b908160085581600052600d602052604060002090828255600182017fffffffffffffffffffffffff0000000000000000000000000000000000000000903382825416179055600283019073ffffffffffffffffffffffffffffffffffffffff8616908254161790556024356003830155426004830155600582017fffffffffffffffffffffffffffffffffffffffffffffffffffffffffffffff00815416905584519081116107d3576106206006830154612cce565b601f8111610903575b50806020601f821160011461083c57600091610831575b507fffffffffffffffffffffffffffffffffffffffffffffffffffffffffffffffff8260011b9260031b1c19161760068201555b60643560078201556203f480420190814211610802576008015573ffffffffffffffffffffffffffffffffffffffff8216600052600f60205260406000208054680100000000000000008110156107d3576106d491600182018155612fda565b81549060031b907fffffffffffffffffffffffffffffffffffffffffffffffffffffffffffffffff84831b921b1916179055604051602081019061072360208287516105398187858c01612c68565b5190206000526010602052604060002060017fffffffffffffffffffffffffffffffffffffffffffffffffffffffffffffff00825416179055610767600954613435565b6009557f4c38254f7b8b72b1565c14ad4825e3be334f5cdf32b2bdb7560016407004f05173ffffffffffffffffffffffffffffffffffffffff6107bd604051956024358752606060208801526060870190612c8b565b9342604087015216938033940390a46001600755005b7f4e487b7100000000000000000000000000000000000000000000000000000000600052604160045260246000fd5b7f4e487b7100000000000000000000000000000000000000000000000000000000600052601160045260246000fd5b905085015186610640565b91506006830160005260206000206000925b7fffffffffffffffffffffffffffffffffffffffffffffffffffffffffffffffe0831684106108eb5760019350827fffffffffffffffffffffffffffffffffffffffffffffffffffffffffffffffe08116106108b4575b5050811b016006820155610674565b8701517fffffffffffffffffffffffffffffffffffffffffffffffffffffffffffffffff60f88460031b161c1916905586806108a5565b8781015182556020938401936001909201910161084e565b600683016000526020600020601f830160051c810160208410610943575b601f830160051c82018110610937575050610629565b60008155600101610921565b5080610921565b6064907f4c33207472616e73616374696f6e20616c72656164792070726f636573736564604051917f08c379a00000000000000000000000000000000000000000000000000000000083526020600484015260206024840152820152fd5b6064907f496e76616c6964204c33207472616e73616374696f6e20686173680000000000604051917f08c379a000000000000000000000000000000000000000000000000000000000835260206004840152601b6024840152820152fd5b6064907f416d6f756e742065786365656473206d6178696d756d00000000000000000000604051917f08c379a00000000000000000000000000000000000000000000000000000000083526020600484015260166024840152820152fd5b6064907f416d6f756e74206d7573742062652067726561746572207468616e2030000000604051917f08c379a000000000000000000000000000000000000000000000000000000000835260206004840152601d6024840152820152fd5b6064907f496e76616c696420726563697069656e74000000000000000000000000000000604051917f08c379a00000000000000000000000000000000000000000000000000000000083526020600484015260116024840152820152fd5b60046040517f3ee5aeb5000000000000000000000000000000000000000000000000000000008152fd5b60607ffffffffffffffffffffffffffffffffffffffffffffffffffffffffffffffffc36011261029f57602435600435600582101561029f5767ffffffffffffffff60443581811161029f57610ba4903690600401612ef8565b90610bad613462565b600c5434106110b25782600052602090600d8252604060002090610bd382541515613498565b600582018054610bef60ff8216610be981612e27565b156134fd565b610bff6008850154421115613562565b73ffffffffffffffffffffffffffffffffffffffff60028501541633148015611070575b15611012577fffffffffffffffffffffffffffffffffffffffffffffffffffffffffffffff0060029116179055600a6009830192610c8a887fffffffffffffffffffffffff00000000000000000000000000000000000000009533878254161781556135c7565b01908451918183116107d357610ca08154612cce565b92601f93848111610fcf575b508086858211600114610f3157600091610f26575b507fffffffffffffffffffffffffffffffffffffffffffffffffffffffffffffffff8260011b9260031b1c19161790555b610cfd600a54613435565b600a5585600052600e8452604060002092868455610d29886001928387019033908254161781556135c7565b600284019286519283116107d357610d418454612cce565b818111610ee0575b5085908311600114610e185792827fc5a6bd89289814765f8743687ea51d3bb3deb2c8f1cff09b1a479fb94166652c97959281610dde9895606097600092610ded575b507fffffffffffffffffffffffffffffffffffffffffffffffffffffffffffffffff91921b9260031b1c19161790555b60034291015560405196610dcf81612e27565b87528601526060850190612c8b565b924260408201528033940390a3005b89015191507fffffffffffffffffffffffffffffffffffffffffffffffffffffffffffffffff610d8c565b7fffffffffffffffffffffffffffffffffffffffffffffffffffffffffffffffe0839293169084600052866000209160005b818110610ecb57509260609592610dde989592827fc5a6bd89289814765f8743687ea51d3bb3deb2c8f1cff09b1a479fb94166652c9b999610610e94575b5050811b019055610dbc565b8801517fffffffffffffffffffffffffffffffffffffffffffffffffffffffffffffffff60f88460031b161c191690558b80610e88565b89830151845592850192918801918801610e4a565b84600052866000208280860160051c820192898710610f1d575b0160051c019083905b828110610f11575050610d49565b60008155018390610f03565b92508192610efa565b90508701518a610cc1565b6000848152888120927fffffffffffffffffffffffffffffffffffffffffffffffffffffffffffffffe016905b898b838310610fba575050509083600194939210610f83575b5050811b019055610cf2565b8901517fffffffffffffffffffffffffffffffffffffffffffffffffffffffffffffffff60f88460031b161c191690558a80610f77565b84015185556001909401939283019201610f5e565b82600052866000208580840160051c820192898510611009575b0160051c01905b818110610ffd5750610cac565b60008155600101610ff0565b92508192610fe9565b606485604051907f08c379a00000000000000000000000000000000000000000000000000000000082526004820152601960248201527f4e6f7420617574686f72697a656420746f2064697370757465000000000000006044820152fd5b507f7b8bb8356a3f32f5c111ff23f050d97f08988e0883529ea7bff3b918887a6e0e60005260068552604060002033600052855260ff60406000205416610c23565b60646040517f08c379a000000000000000000000000000000000000000000000000000000000815260206004820152601860248201527f496e73756666696369656e7420646973707574652066656500000000000000006044820152fd5b3461029f5760007ffffffffffffffffffffffffffffffffffffffffffffffffffffffffffffffffc36011261029f576020600a54604051908152f35b3461029f5760207ffffffffffffffffffffffffffffffffffffffffffffffffffffffffffffffffc36011261029f5773ffffffffffffffffffffffffffffffffffffffff80611199612c22565b166000526011602052604060002090610386825492600181015490600360028201549101549160405195869560ff8260a01c169116869192608093969594919673ffffffffffffffffffffffffffffffffffffffff60a085019816845215156020840152604083015260608201520152565b3461029f5760007ffffffffffffffffffffffffffffffffffffffffffffffffffffffffffffffffc36011261029f5760206040517f7b8bb8356a3f32f5c111ff23f050d97f08988e0883529ea7bff3b918887a6e0e8152f35b3461029f576020807ffffffffffffffffffffffffffffffffffffffffffffffffffffffffffffffffc36011261029f5773ffffffffffffffffffffffffffffffffffffffff6112b1612c22565b16600052600f8152604060002060405190818382549182815201908192600052846000209060005b8682821061132f5786866112ef82880383612d21565b604051928392818401908285525180915260408401929160005b82811061131857505050500390f35b835185528695509381019392810192600101611309565b8354855290930192600192830192016112d9565b3461029f5760007ffffffffffffffffffffffffffffffffffffffffffffffffffffffffffffffffc36011261029f5760206040517f300f9ae985dc711960f7a4d1dd013f9c19ecf40bff149522ab7523b2187a38468152f35b3461029f5760007ffffffffffffffffffffffffffffffffffffffffffffffffffffffffffffffffc36011261029f576020600c54604051908152f35b3461029f5760007ffffffffffffffffffffffffffffffffffffffffffffffffffffffffffffffffc36011261029f5760206040517f52ba824bfabc2bcfcdf7f0edbb486ebb05e1836c90e78047efeb949990f72e5f8152f35b3461029f5760407ffffffffffffffffffffffffffffffffffffffffffffffffffffffffffffffffc36011261029f5761147561146b612c22565b60243590336132e4565b602060405160018152f35b3461029f5760007ffffffffffffffffffffffffffffffffffffffffffffffffffffffffffffffffc36011261029f57602060405160008152f35b3461029f5760207ffffffffffffffffffffffffffffffffffffffffffffffffffffffffffffffffc36011261029f576004356114f4613113565b6114fc613462565b80600052600d602052611595604060002061151981541515613498565b6005810160017fffffffffffffffffffffffffffffffffffffffffffffffffffffffffffffff00825461155260ff8216610be981612e27565b6115626008860154421115613562565b1617905573ffffffffffffffffffffffffffffffffffffffff9060038260018301541692600283015416910154916132e4565b604051904282527f1a87470a87e2fff176d778a6e7f91d53b96b4cbb4d856f40abc582586d51850a60203393a3005b3461029f5760207ffffffffffffffffffffffffffffffffffffffffffffffffffffffffffffffffc36011261029f577fe8fc23e21608aa8e92faee11af5686b6aa7531796f68f2f943bb0d893c4312c960406004356116216130d9565b600c549080600c5582519182526020820152a1005b3461029f5760007ffffffffffffffffffffffffffffffffffffffffffffffffffffffffffffffffc36011261029f57604051600060045461167681612cce565b8084529060019081811690811561170f57506001146116b4575b610386846116a081860382612d21565b604051918291602083526020830190612c8b565b6004600090815292507f8a35acfbc15ff81a39ae7d344fd709f28e8600b4aa8c65c6b64bfe7fe36bd19b5b8284106116f75750505081016020016116a082611690565b805460208587018101919091529093019281016116df565b7fffffffffffffffffffffffffffffffffffffffffffffffffffffffffffffff001660208087019190915292151560051b850190920192506116a09150839050611690565b3461029f5760007ffffffffffffffffffffffffffffffffffffffffffffffffffffffffffffffffc36011261029f57602060405169d3c21bcecceda10000008152f35b3461029f5760407ffffffffffffffffffffffffffffffffffffffffffffffffffffffffffffffffc36011261029f576117ce612c45565b600435600052600660205273ffffffffffffffffffffffffffffffffffffffff60406000209116600052602052602060ff604060002054166040519015158152f35b3461029f5760407ffffffffffffffffffffffffffffffffffffffffffffffffffffffffffffffffc36011261029f576000602073ffffffffffffffffffffffffffffffffffffffff6044611862612c22565b61186a61307d565b60405194859384927fa9059cbb0000000000000000000000000000000000000000000000000000000084523360048501526024356024850152165af180156118e5576118b257005b6020813d82116118dd575b816118ca60209383612d21565b8101031261029f57518015150361029f57005b3d91506118bd565b6040513d6000823e3d90fd5b3461029f5760207ffffffffffffffffffffffffffffffffffffffffffffffffffffffffffffffffc36011261029f577f9351be7c0f6091e3a280467d38e8ecfd5a4529968cdfaee0e0dbcceaee6765c7604060043561194e6130d9565b600b549080600b5582519182526020820152a1005b3461029f5760007ffffffffffffffffffffffffffffffffffffffffffffffffffffffffffffffffc36011261029f576020600954604051908152f35b3461029f5760007ffffffffffffffffffffffffffffffffffffffffffffffffffffffffffffffffc36011261029f576020600854604051908152f35b3461029f5760007ffffffffffffffffffffffffffffffffffffffffffffffffffffffffffffffffc36011261029f57611a1261307d565b611a1a613462565b60017fffffffffffffffffffffffffffffffffffffffffffffffffffffffffffffff0060055416176005557f62e78cea01bee320cd4e420270b5ea74000d11b0c9f74754ebdbfc544b05a2586020604051338152a1005b3461029f5760007ffffffffffffffffffffffffffffffffffffffffffffffffffffffffffffffffc36011261029f57611aa861307d565b600080808047818115611ac0575b3390f1156118e557005b506108fc611ab6565b3461029f5760007ffffffffffffffffffffffffffffffffffffffffffffffffffffffffffffffffc36011261029f576020600b54604051908152f35b3461029f5760407ffffffffffffffffffffffffffffffffffffffffffffffffffffffffffffffffc36011261029f57611b3c612c22565b73ffffffffffffffffffffffffffffffffffffffff6024359116600052600f6020526040600020805482101561029f57602091611b7891612fda565b90546040519160031b1c8152f35b3461029f5760207ffffffffffffffffffffffffffffffffffffffffffffffffffffffffffffffffc36011261029f5773ffffffffffffffffffffffffffffffffffffffff611bd2612c22565b1660005260006020526020604060002054604051908152f35b3461029f5760007ffffffffffffffffffffffffffffffffffffffffffffffffffffffffffffffffc36011261029f57602060ff600554166040519015158152f35b3461029f5760207ffffffffffffffffffffffffffffffffffffffffffffffffffffffffffffffffc36011261029f57600435600052600e60205260406000208054610386600183015491611c8260028501612d62565b9360038101549161034e600560048401549301612d62565b3461029f5760207ffffffffffffffffffffffffffffffffffffffffffffffffffffffffffffffffc36011261029f57600435600052600d6020526040600020805461038673ffffffffffffffffffffffffffffffffffffffff918260018501541693836002820154169160038201549160048101549060ff60058201541690600781015491600882015493600983015496611d43600a611d3c60068701612d62565b9501612d62565b986040519c8d9c60ff8b60a01c169a16988d612e60565b3461029f5760a07ffffffffffffffffffffffffffffffffffffffffffffffffffffffffffffffffc36011261029f57611d91612c22565b60243580151580910361029f576044356064359173ffffffffffffffffffffffffffffffffffffffff60843594611dc6613021565b16938415611e6f577f762b38f99548d8913199a63ae95b09259e584b25129ca98ee5317f088d487bf593608093866000526011602052826003604060002080548a7fffffffffffffffffffffff00000000000000000000000000000000000000000074ff00000000000000000000000000000000000000008a60a01b169216171781558360018201558460028201550155604051938452602084015260408301526060820152a2005b60646040517f08c379a000000000000000000000000000000000000000000000000000000000815260206004820152601660248201527f496e76616c6964206272696467652061646472657373000000000000000000006044820152fd5b3461029f5760007ffffffffffffffffffffffffffffffffffffffffffffffffffffffffffffffffc36011261029f57611f0461307d565b60055460ff811615611f61577fffffffffffffffffffffffffffffffffffffffffffffffffffffffffffffff00166005557f5db9ee0a495bf2e6ff9c91a7834c1ba4fdd244a5e8aa4e537bd38aeae4b073aa6020604051338152a1005b60046040517f8dfc202b000000000000000000000000000000000000000000000000000000008152fd5b3461029f5760007ffffffffffffffffffffffffffffffffffffffffffffffffffffffffffffffffc36011261029f57602060405162093a808152f35b3461029f5760407ffffffffffffffffffffffffffffffffffffffffffffffffffffffffffffffffc36011261029f57611ffe612c45565b3373ffffffffffffffffffffffffffffffffffffffff8216036120275761001b90600435613241565b60046040517f6697b232000000000000000000000000000000000000000000000000000000008152fd5b3461029f5760007ffffffffffffffffffffffffffffffffffffffffffffffffffffffffffffffffc36011261029f57602060405160128152f35b3461029f5760407ffffffffffffffffffffffffffffffffffffffffffffffffffffffffffffffffc36011261029f5761001b6004356120c8612c45565b908060005260066020526120e360016040600020015461316f565b613195565b3461029f5760607ffffffffffffffffffffffffffffffffffffffffffffffffffffffffffffffffc36011261029f5760043567ffffffffffffffff60243581811161029f5761213b903690600401612ef8565b9160443592831515840361029f573360009081527fc05ecb62b3da283f41a58bfabb0641c07f50e632bc46342d8a4c0cc10b5006ff60209081526040909120549094907f7b8bb8356a3f32f5c111ff23f050d97f08988e0883529ea7bff3b918887a6e0e9060ff161561255057506121b1613462565b82600052600d85526040600020600e86526040600020906121d481541515613498565b6005810192600260ff8554166121e981612e27565b036124f257600483019283549360ff85166124945790600591600180967fffffffffffffffffffffff00000000000000000000000000000000000000000074ffffffffffffffffffffffffffffffffffffffff003360081b169116171790550185519788116107d35761225c8154612cce565b601f811161244b575b5088601f891160011461238c5797807faf22c8b9970a1e934469d4910ba635081d805cf60a06f96c00d501bd873796639899600091612381575b507fffffffffffffffffffffffffffffffffffffffffffffffffffffffffffffffff82871b9260031b1c19161790555b15612351578260037fffffffffffffffffffffffffffffffffffffffffffffffffffffffffffffff0061232e955416179055600373ffffffffffffffffffffffffffffffffffffffff80938301541692600283015416910154916132e4565b61234360405191604083526040830190612c8b565b9342908201528033940390a3005b505060047fffffffffffffffffffffffffffffffffffffffffffffffffffffffffffffff0082541617905561232e565b90508701518b61229f565b7fffffffffffffffffffffffffffffffffffffffffffffffffffffffffffffffe0891690826000528a6000209160005b8c828210612437575050918a917faf22c8b9970a1e934469d4910ba635081d805cf60a06f96c00d501bd873796639a9b889410612400575b5050811b0190556122cf565b8901517fffffffffffffffffffffffffffffffffffffffffffffffffffffffffffffffff60f88460031b161c191690558b806123f4565b8a84015185559388019392830192016123bc565b8160005289600020601f8a0160051c8101918b8b1061248a575b601f0160051c019085905b82811061247e575050612265565b60008155018590612470565b9091508190612465565b60648a604051907f08c379a00000000000000000000000000000000000000000000000000000000082526004820152601860248201527f4469737075746520616c7265616479207265736f6c76656400000000000000006044820152fd5b606488604051907f08c379a00000000000000000000000000000000000000000000000000000000082526004820152601760248201527f536574746c656d656e74206e6f742064697370757465640000000000000000006044820152fd5b604490604051907fe2517d3f0000000000000000000000000000000000000000000000000000000082523360048301526024820152fd5b3461029f5760207ffffffffffffffffffffffffffffffffffffffffffffffffffffffffffffffffc36011261029f5760043560005260066020526020600160406000200154604051908152f35b3461029f5760607ffffffffffffffffffffffffffffffffffffffffffffffffffffffffffffffffc36011261029f5761260b612c22565b612613612c45565b6044359073ffffffffffffffffffffffffffffffffffffffff831692836000526001602052604060002033600052602052604060002054937fffffffffffffffffffffffffffffffffffffffffffffffffffffffffffffffff851061267e575b5061147593506132e4565b83851061271a5780156126e95733156126b85761147594849160005260016020526040600020336000526020520360406000205584612673565b60246040517f94280d6200000000000000000000000000000000000000000000000000000000815260006004820152fd5b60246040517fe602df0500000000000000000000000000000000000000000000000000000000815260006004820152fd5b6040517ffb8f41b20000000000000000000000000000000000000000000000000000000081523360048201526024810186905260448101859052606490fd5b3461029f5760007ffffffffffffffffffffffffffffffffffffffffffffffffffffffffffffffffc36011261029f5760206040517fbf233dd2aafeb4d50879c4aa5c81e96d92f6e6945c906a58f9f2d1c1631b4b268152f35b3461029f5760007ffffffffffffffffffffffffffffffffffffffffffffffffffffffffffffffffc36011261029f576020600254604051908152f35b3461029f5760407ffffffffffffffffffffffffffffffffffffffffffffffffffffffffffffffffc36011261029f57612825612c22565b6024359033156126e95773ffffffffffffffffffffffffffffffffffffffff169081156126b857336000526001602052604060002082600052602052806040600020556040519081527f8c5be1e5ebec7d5bd14f71427d1e84f3dd0314c0f7b2291e5b200ac8c7c3b92560203392a3602060405160018152f35b3461029f5760207ffffffffffffffffffffffffffffffffffffffffffffffffffffffffffffffffc36011261029f57600435600052600d6020526040600020805461038673ffffffffffffffffffffffffffffffffffffffff91826001850154169383600282015416916003820154600483015460ff60058501541661292760068601612d62565b90600786015492600887015494611d43600a60098a01549901612d62565b3461029f5760007ffffffffffffffffffffffffffffffffffffffffffffffffffffffffffffffffc36011261029f57604051600060035461298581612cce565b8084529060019081811690811561170f57506001146129ae57610386846116a081860382612d21565b6003600090815292507fc2575a0e9e593c00f959f8c92f12db2869c3395a3b0502d05e2516446f71f85b5b8284106129f15750505081016020016116a082611690565b805460208587018101919091529093019281016129d9565b3461029f5760807ffffffffffffffffffffffffffffffffffffffffffffffffffffffffffffffffc36011261029f57612a40612c22565b612a48612c45565b6044359060643573ffffffffffffffffffffffffffffffffffffffff811680910361029f57612a75613021565b612a7d613462565b6000526011602052604060002060ff815460a01c1615612b0857600201548211612aaa5761001b926132e4565b60646040517f08c379a000000000000000000000000000000000000000000000000000000000815260206004820152601b60248201527f416d6f756e74206578636565647320627269646765206c696d697400000000006044820152fd5b60646040517f08c379a000000000000000000000000000000000000000000000000000000000815260206004820152601160248201527f427269646765206e6f74206163746976650000000000000000000000000000006044820152fd5b3461029f5760207ffffffffffffffffffffffffffffffffffffffffffffffffffffffffffffffffc36011261029f57600435907fffffffff00000000000000000000000000000000000000000000000000000000821680920361029f57817f7965db0b0000000000000000000000000000000000000000000000000000000060209314908115612bf8575b5015158152f35b7f01ffc9a70000000000000000000000000000000000000000000000000000000091501483612bf1565b6004359073ffffffffffffffffffffffffffffffffffffffff8216820361029f57565b6024359073ffffffffffffffffffffffffffffffffffffffff8216820361029f57565b60005b838110612c7b5750506000910152565b8181015183820152602001612c6b565b907fffffffffffffffffffffffffffffffffffffffffffffffffffffffffffffffe0601f602093612cc781518092818752878088019101612c68565b0116010190565b90600182811c92168015612d17575b6020831014612ce857565b7f4e487b7100000000000000000000000000000000000000000000000000000000600052602260045260246000fd5b91607f1691612cdd565b90601f7fffffffffffffffffffffffffffffffffffffffffffffffffffffffffffffffe0910116810190811067ffffffffffffffff8211176107d357604052565b9060405191826000825492612d7684612cce565b908184526001948581169081600014612de55750600114612da2575b5050612da092500383612d21565b565b9093915060005260209081600020936000915b818310612dcd575050612da093508201013880612d92565b85548884018501529485019487945091830191612db5565b9050612da09550602093507fffffffffffffffffffffffffffffffffffffffffffffffffffffffffffffff0091501682840152151560051b8201013880612d92565b60051115612e3157565b7f4e487b7100000000000000000000000000000000000000000000000000000000600052602160045260246000fd5b98949093612ef59c9a9692612ec5959c999c9894988b5273ffffffffffffffffffffffffffffffffffffffff988980921660208d01521660408b015260608a01526080890152612eaf81612e27565b60a08801526101808060c0890152870190612c8b565b9660e086015261010085015216610120830152612ee181612e27565b610140820152610160818403910152612c8b565b90565b81601f8201121561029f5780359067ffffffffffffffff82116107d35760405192612f4b60207fffffffffffffffffffffffffffffffffffffffffffffffffffffffffffffffe0601f8601160185612d21565b8284526020838301011161029f57816000926020809301838601378301015290565b94969293612ef598969294612fba92875273ffffffffffffffffffffffffffffffffffffffff8096166020880152612fa481612e27565b6040870152610100806060880152860190612c8b565b956080850152151560a08401521660c082015260e0818403910152612c8b565b8054821015612ff25760005260206000200190600090565b7f4e487b7100000000000000000000000000000000000000000000000000000000600052603260045260246000fd5b3360009081527f866532df3c7b8a8304a854a94071efe99d9f2c853d9869138b5fbc8a8598b93760205260409020547f52ba824bfabc2bcfcdf7f0edbb486ebb05e1836c90e78047efeb949990f72e5f9060ff16156125505750565b3360009081527f7aca5d7f7c0d5c6c775e2a7e40239a4d6963361b3df3b07df46432786460eb5760205260409020547fbf233dd2aafeb4d50879c4aa5c81e96d92f6e6945c906a58f9f2d1c1631b4b269060ff16156125505750565b3360009081527f54cdd369e4e8a8515e52ca72ec816c2101831ad1f18bf44102ed171459c9b4f8602052604081205460ff16156125505750565b3360009081527f44017833178cb959064128715f4ace9a64bbfc45712d4670fcace3e0c4a1693b60205260409020547f300f9ae985dc711960f7a4d1dd013f9c19ecf40bff149522ab7523b2187a38469060ff16156125505750565b80600052600660205260406000203360005260205260ff60406000205416156125505750565b90600091808352600660205273ffffffffffffffffffffffffffffffffffffffff6040842092169182845260205260ff6040842054161560001461323c578083526006602052604083208284526020526040832060017fffffffffffffffffffffffffffffffffffffffffffffffffffffffffffffff008254161790557f2f8788117e7eff1d82e926ec794901d17c78024a50270940304540a733656f0d339380a4600190565b505090565b90600091808352600660205273ffffffffffffffffffffffffffffffffffffffff6040842092169182845260205260ff60408420541660001461323c57808352600660205260408320828452602052604083207fffffffffffffffffffffffffffffffffffffffffffffffffffffffffffffff0081541690557ff6391f5c32d9c69d2a47ea670b442974b53935d1edc7fd64eb21e047a839171b339380a4600190565b9173ffffffffffffffffffffffffffffffffffffffff80841692831561340457169283156133d357613314613462565b61331c613462565b6000908382528160205260408220549083821061337b575091604082827fddf252ad1be2c89b69c2b068fc378daa952ba7f163c4a11628f55a4df523b3ef958760209652828652038282205586815220818154019055604051908152a3565b6040517fe450d38c00000000000000000000000000000000000000000000000000000000815273ffffffffffffffffffffffffffffffffffffffff919091166004820152602481019190915260448101839052606490fd5b60246040517fec442f0500000000000000000000000000000000000000000000000000000000815260006004820152fd5b60246040517f96c6fd1e00000000000000000000000000000000000000000000000000000000815260006004820152fd5b7fffffffffffffffffffffffffffffffffffffffffffffffffffffffffffffffff81146108025760010190565b60ff6005541661346e57565b60046040517fd93c0665000000000000000000000000000000000000000000000000000000008152fd5b1561349f57565b60646040517f08c379a000000000000000000000000000000000000000000000000000000000815260206004820152601960248201527f536574746c656d656e7420646f6573206e6f74206578697374000000000000006044820152fd5b1561350457565b60646040517f08c379a000000000000000000000000000000000000000000000000000000000815260206004820152601660248201527f536574746c656d656e74206e6f742070656e64696e67000000000000000000006044820152fd5b1561356957565b60646040517f08c379a000000000000000000000000000000000000000000000000000000000815260206004820152601660248201527f446973707574652077696e646f772065787069726564000000000000000000006044820152fd5b906135d181612e27565b7fffffffffffffffffffffff00ffffffffffffffffffffffffffffffffffffffff74ff000000000000000000000000000000000000000083549260a01b16911617905556fea26469706673582212207e021e4b6059413d6589ce4e9565fb731c8314346703f3fd30f984144dc6998364736f6c634300081400332f8788117e7eff1d82e926ec794901d17c78024a50270940304540a733656f0d",
  "linkReferences": {},
  "deployedLinkReferences": {}
}