{
  "_format": "hh-sol-artifact-1",
  "contractName": "AIOracle",
  "sourceName": "contracts/AIOracle.sol",
  "abi": [
    {
      "inputs": [
        {
          "internalType": "address",
          "name": "initialOwner",
          "type": "address"
        },
        {
          "internalType": "address",
          "name": "_gamingCore",
          "type": "address"
        },
        {
          "internalType": "address",
          "name": "_novaSanctumService",
          "type": "address"
        },
        {
          "internalType": "address",
          "name": "_athenaMistService",
          "type": "address"
        },
        {
          "internalType": "address",
          "name": "_chainlinkOracle",
          "type": "address"
        }
      ],
      "stateMutability": "nonpayable",
      "type": "constructor"
    },
    {
      "inputs": [
        {
          "internalType": "address",
          "name": "owner",
          "type": "address"
        }
      ],
      "name": "OwnableInvalidOwner",
      "type": "error"
    },
    {
      "inputs": [
        {
          "internalType": "address",
          "name": "account",
          "type": "address"
        }
      ],
      "name": "OwnableUnauthorizedAccount",
      "type": "error"
    },
    {
      "inputs": [],
      "name": "ReentrancyGuardReentrantCall",
      "type": "error"
    },
    {
      "anonymous": false,
      "inputs": [
        {
          "indexed": true,
          "internalType": "uint256",
          "name": "requestId",
          "type": "uint256"
        },
        {
          "indexed": true,
          "internalType": "address",
          "name": "player",
          "type": "address"
        },
        {
          "indexed": true,
          "internalType": "uint256",
          "name": "gameId",
          "type": "uint256"
        },
        {
          "indexed": false,
          "internalType": "enum AIOracle.AIRequestType",
          "name": "requestType",
          "type": "uint8"
        },
        {
          "indexed": false,
          "internalType": "uint256",
          "name": "timestamp",
          "type": "uint256"
        }
      ],
      "name": "AIRequestCreated",
      "type": "event"
    },
    {
      "anonymous": false,
      "inputs": [
        {
          "indexed": true,
          "internalType": "uint256",
          "name": "requestId",
          "type": "uint256"
        },
        {
          "indexed": true,
          "internalType": "address",
          "name": "player",
          "type": "address"
        },
        {
          "indexed": false,
          "internalType": "uint256",
          "name": "fraudScore",
          "type": "uint256"
        },
        {
          "indexed": false,
          "internalType": "uint256",
          "name": "skillLevel",
          "type": "uint256"
        },
        {
          "indexed": false,
          "internalType": "uint256",
          "name": "confidence",
          "type": "uint256"
        },
        {
          "indexed": false,
          "internalType": "uint256",
          "name": "responseTime",
          "type": "uint256"
        }
      ],
      "name": "AIResponseReceived",
      "type": "event"
    },
    {
      "anonymous": false,
      "inputs": [
        {
          "indexed": true,
          "internalType": "enum AIOracle.AIServiceType",
          "name": "serviceType",
          "type": "uint8"
        },
        {
          "indexed": false,
          "internalType": "string",
          "name": "serviceName",
          "type": "string"
        },
        {
          "indexed": false,
          "internalType": "address",
          "name": "serviceAddress",
          "type": "address"
        },
        {
          "indexed": false,
          "internalType": "bool",
          "name": "isActive",
          "type": "bool"
        }
      ],
      "name": "AIServiceUpdated",
      "type": "event"
    },
    {
      "anonymous": false,
      "inputs": [
        {
          "indexed": false,
          "internalType": "bool",
          "name": "enabled",
          "type": "bool"
        }
      ],
      "name": "EmergencyModeToggled",
      "type": "event"
    },
    {
      "anonymous": false,
      "inputs": [
        {
          "indexed": true,
          "internalType": "address",
          "name": "previousOwner",
          "type": "address"
        },
        {
          "indexed": true,
          "internalType": "address",
          "name": "newOwner",
          "type": "address"
        }
      ],
      "name": "OwnershipTransferred",
      "type": "event"
    },
    {
      "anonymous": false,
      "inputs": [
        {
          "indexed": true,
          "internalType": "address",
          "name": "player",
          "type": "address"
        },
        {
          "indexed": false,
          "internalType": "uint256",
          "name": "fraudScore",
          "type": "uint256"
        },
        {
          "indexed": false,
          "internalType": "uint256",
          "name": "skillLevel",
          "type": "uint256"
        },
        {
          "indexed": false,
          "internalType": "uint256",
          "name": "riskLevel",
          "type": "uint256"
        },
        {
          "indexed": false,
          "internalType": "bool",
          "name": "isFlagged",
          "type": "bool"
        }
      ],
      "name": "PlayerAnalyticsUpdated",
      "type": "event"
    },
    {
      "anonymous": false,
      "inputs": [
        {
          "indexed": false,
          "internalType": "uint256",
          "name": "newFee",
          "type": "uint256"
        }
      ],
      "name": "RequestFeeUpdated",
      "type": "event"
    },
    {
      "anonymous": false,
      "inputs": [
        {
          "indexed": false,
          "internalType": "uint256",
          "name": "newTimeout",
          "type": "uint256"
        }
      ],
      "name": "ResponseTimeoutUpdated",
      "type": "event"
    },
    {
      "inputs": [
        {
          "internalType": "uint256",
          "name": "",
          "type": "uint256"
        }
      ],
      "name": "aiRequests",
      "outputs": [
        {
          "internalType": "uint256",
          "name": "requestId",
          "type": "uint256"
        },
        {
          "internalType": "address",
          "name": "player",
          "type": "address"
        },
        {
          "internalType": "uint256",
          "name": "gameId",
          "type": "uint256"
        },
        {
          "internalType": "enum AIOracle.AIRequestType",
          "name": "requestType",
          "type": "uint8"
        },
        {
          "internalType": "uint256",
          "name": "timestamp",
          "type": "uint256"
        },
        {
          "internalType": "bool",
          "name": "isProcessed",
          "type": "bool"
        },
        {
          "components": [
            {
              "internalType": "uint256",
              "name": "fraudScore",
              "type": "uint256"
            },
            {
              "internalType": "uint256",
              "name": "skillLevel",
              "type": "uint256"
            },
            {
              "internalType": "uint256",
              "name": "riskAssessment",
              "type": "uint256"
            },
            {
              "internalType": "uint256",
              "name": "predictedOutcome",
              "type": "uint256"
            },
            {
              "internalType": "uint256",
              "name": "confidence",
              "type": "uint256"
            },
            {
              "internalType": "uint256[]",
              "name": "behaviorPatterns",
              "type": "uint256[]"
            },
            {
              "internalType": "string",
              "name": "analysisHash",
              "type": "string"
            },
            {
              "internalType": "uint256",
              "name": "responseTime",
              "type": "uint256"
            }
          ],
          "internalType": "struct AIOracle.AIResponse",
          "name": "response",
          "type": "tuple"
        },
        {
          "internalType": "uint256",
          "name": "gasUsed",
          "type": "uint256"
        }
      ],
      "stateMutability": "view",
      "type": "function"
    },
    {
      "inputs": [
        {
          "internalType": "enum AIOracle.AIServiceType",
          "name": "",
          "type": "uint8"
        }
      ],
      "name": "aiServices",
      "outputs": [
        {
          "internalType": "string",
          "name": "serviceName",
          "type": "string"
        },
        {
          "internalType": "address",
          "name": "serviceAddress",
          "type": "address"
        },
        {
          "internalType": "bool",
          "name": "isActive",
          "type": "bool"
        },
        {
          "internalType": "uint256",
          "name": "successRate",
          "type": "uint256"
        },
        {
          "internalType": "uint256",
          "name": "totalRequests",
          "type": "uint256"
        },
        {
          "internalType": "uint256",
          "name": "lastUpdate",
          "type": "uint256"
        },
        {
          "internalType": "uint256",
          "name": "fee",
          "type": "uint256"
        }
      ],
      "stateMutability": "view",
      "type": "function"
    },
    {
      "inputs": [],
      "name": "athenaMistService",
      "outputs": [
        {
          "internalType": "address",
          "name": "",
          "type": "address"
        }
      ],
      "stateMutability": "view",
      "type": "function"
    },
    {
      "inputs": [],
      "name": "chainlinkOracle",
      "outputs": [
        {
          "internalType": "address",
          "name": "",
          "type": "address"
        }
      ],
      "stateMutability": "view",
      "type": "function"
    },
    {
      "inputs": [],
      "name": "emergencyMode",
      "outputs": [
        {
          "internalType": "bool",
          "name": "",
          "type": "bool"
        }
      ],
      "stateMutability": "view",
      "type": "function"
    },
    {
      "inputs": [],
      "name": "emergencyWithdraw",
      "outputs": [],
      "stateMutability": "nonpayable",
      "type": "function"
    },
    {
      "inputs": [],
      "name": "gamingCore",
      "outputs": [
        {
          "internalType": "address",
          "name": "",
          "type": "address"
        }
      ],
      "stateMutability": "view",
      "type": "function"
    },
    {
      "inputs": [
        {
          "internalType": "uint256",
          "name": "requestId",
          "type": "uint256"
        }
      ],
      "name": "getAIRequest",
      "outputs": [
        {
          "internalType": "uint256",
          "name": "id",
          "type": "uint256"
        },
        {
          "internalType": "address",
          "name": "player",
          "type": "address"
        },
        {
          "internalType": "uint256",
          "name": "gameId",
          "type": "uint256"
        },
        {
          "internalType": "enum AIOracle.AIRequestType",
          "name": "requestType",
          "type": "uint8"
        },
        {
          "internalType": "uint256",
          "name": "timestamp",
          "type": "uint256"
        },
        {
          "internalType": "bool",
          "name": "isProcessed",
          "type": "bool"
        },
        {
          "internalType": "uint256",
          "name": "fraudScore",
          "type": "uint256"
        },
        {
          "internalType": "uint256",
          "name": "skillLevel",
          "type": "uint256"
        },
        {
          "internalType": "uint256",
          "name": "confidence",
          "type": "uint256"
        }
      ],
      "stateMutability": "view",
      "type": "function"
    },
    {
      "inputs": [
        {
          "internalType": "enum AIOracle.AIServiceType",
          "name": "serviceType",
          "type": "uint8"
        }
      ],
      "name": "getAIService",
      "outputs": [
        {
          "internalType": "string",
          "name": "serviceName",
          "type": "string"
        },
        {
          "internalType": "address",
          "name": "serviceAddress",
          "type": "address"
        },
        {
          "internalType": "bool",
          "name": "isActive",
          "type": "bool"
        },
        {
          "internalType": "uint256",
          "name": "successRate",
          "type": "uint256"
        },
        {
          "internalType": "uint256",
          "name": "totalRequests",
          "type": "uint256"
        },
        {
          "internalType": "uint256",
          "name": "lastUpdate",
          "type": "uint256"
        },
        {
          "internalType": "uint256",
          "name": "fee",
          "type": "uint256"
        }
      ],
      "stateMutability": "view",
      "type": "function"
    },
    {
      "inputs": [
        {
          "internalType": "address",
          "name": "player",
          "type": "address"
        }
      ],
      "name": "getPlayerAnalytics",
      "outputs": [
        {
          "internalType": "uint256",
          "name": "totalGames",
          "type": "uint256"
        },
        {
          "internalType": "uint256",
          "name": "averageScore",
          "type": "uint256"
        },
        {
          "internalType": "uint256",
          "name": "winRate",
          "type": "uint256"
        },
        {
          "internalType": "uint256",
          "name": "fraudScore",
          "type": "uint256"
        },
        {
          "internalType": "uint256",
          "name": "skillLevel",
          "type": "uint256"
        },
        {
          "internalType": "uint256",
          "name": "riskLevel",
          "type": "uint256"
        },
        {
          "internalType": "bool",
          "name": "isFlagged",
          "type": "bool"
        },
        {
          "internalType": "string",
          "name": "flagReason",
          "type": "string"
        }
      ],
      "stateMutability": "view",
      "type": "function"
    },
    {
      "inputs": [],
      "name": "getTotalRequests",
      "outputs": [
        {
          "internalType": "uint256",
          "name": "",
          "type": "uint256"
        }
      ],
      "stateMutability": "view",
      "type": "function"
    },
    {
      "inputs": [],
      "name": "maxGasLimit",
      "outputs": [
        {
          "internalType": "uint256",
          "name": "",
          "type": "uint256"
        }
      ],
      "stateMutability": "view",
      "type": "function"
    },
    {
      "inputs": [],
      "name": "minConfidence",
      "outputs": [
        {
          "internalType": "uint256",
          "name": "",
          "type": "uint256"
        }
      ],
      "stateMutability": "view",
      "type": "function"
    },
    {
      "inputs": [],
      "name": "novaSanctumService",
      "outputs": [
        {
          "internalType": "address",
          "name": "",
          "type": "address"
        }
      ],
      "stateMutability": "view",
      "type": "function"
    },
    {
      "inputs": [],
      "name": "owner",
      "outputs": [
        {
          "internalType": "address",
          "name": "",
          "type": "address"
        }
      ],
      "stateMutability": "view",
      "type": "function"
    },
    {
      "inputs": [
        {
          "internalType": "address",
          "name": "",
          "type": "address"
        }
      ],
      "name": "playerAnalytics",
      "outputs": [
        {
          "internalType": "uint256",
          "name": "totalGames",
          "type": "uint256"
        },
        {
          "internalType": "uint256",
          "name": "averageScore",
          "type": "uint256"
        },
        {
          "internalType": "uint256",
          "name": "winRate",
          "type": "uint256"
        },
        {
          "internalType": "uint256",
          "name": "fraudScore",
          "type": "uint256"
        },
        {
          "internalType": "uint256",
          "name": "skillLevel",
          "type": "uint256"
        },
        {
          "internalType": "uint256",
          "name": "riskLevel",
          "type": "uint256"
        },
        {
          "internalType": "uint256",
          "name": "lastUpdate",
          "type": "uint256"
        },
        {
          "internalType": "bool",
          "name": "isFlagged",
          "type": "bool"
        },
        {
          "internalType": "string",
          "name": "flagReason",
          "type": "string"
        }
      ],
      "stateMutability": "view",
      "type": "function"
    },
    {
      "inputs": [],
      "name": "renounceOwnership",
      "outputs": [],
      "stateMutability": "nonpayable",
      "type": "function"
    },
    {
      "inputs": [
        {
          "internalType": "address",
          "name": "player",
          "type": "address"
        },
        {
          "internalType": "uint256",
          "name": "gameId",
          "type": "uint256"
        },
        {
          "internalType": "enum AIOracle.AIRequestType",
          "name": "requestType",
          "type": "uint8"
        },
        {
          "internalType": "enum AIOracle.AIServiceType",
          "name": "serviceType",
          "type": "uint8"
        }
      ],
      "name": "requestAIAnalysis",
      "outputs": [
        {
          "internalType": "uint256",
          "name": "",
          "type": "uint256"
        }
      ],
      "stateMutability": "payable",
      "type": "function"
    },
    {
      "inputs": [],
      "name": "requestFee",
      "outputs": [
        {
          "internalType": "uint256",
          "name": "",
          "type": "uint256"
        }
      ],
      "stateMutability": "view",
      "type": "function"
    },
    {
      "inputs": [],
      "name": "responseTimeout",
      "outputs": [
        {
          "internalType": "uint256",
          "name": "",
          "type": "uint256"
        }
      ],
      "stateMutability": "view",
      "type": "function"
    },
    {
      "inputs": [
        {
          "internalType": "address",
          "name": "",
          "type": "address"
        }
      ],
      "name": "serviceBalances",
      "outputs": [
        {
          "internalType": "uint256",
          "name": "",
          "type": "uint256"
        }
      ],
      "stateMutability": "view",
      "type": "function"
    },
    {
      "inputs": [],
      "name": "toggleEmergencyMode",
      "outputs": [],
      "stateMutability": "nonpayable",
      "type": "function"
    },
    {
      "inputs": [
        {
          "internalType": "address",
          "name": "newOwner",
          "type": "address"
        }
      ],
      "name": "transferOwnership",
      "outputs": [],
      "stateMutability": "nonpayable",
      "type": "function"
    },
    {
      "inputs": [
        {
          "internalType": "enum AIOracle.AIServiceType",
          "name": "serviceType",
          "type": "uint8"
        },
        {
          "internalType": "string",
          "name": "serviceName",
          "type": "string"
        },
        {
          "internalType": "address",
          "name": "serviceAddress",
          "type": "address"
        },
        {
          "internalType": "bool",
          "name": "isActive",
          "type": "bool"
        }
      ],
      "name": "updateAIService",
      "outputs": [],
      "stateMutability": "nonpayable",
      "type": "function"
    },
    {
      "inputs": [
        {
          "internalType": "uint256",
          "name": "newFee",
          "type": "uint256"
        }
      ],
      "name": "updateRequestFee",
      "outputs": [],
      "stateMutability": "nonpayable",
      "type": "function"
    },
    {
      "inputs": [
        {
          "internalType": "uint256",
          "name": "newTimeout",
          "type": "uint256"
        }
      ],
      "name": "updateResponseTimeout",
      "outputs": [],
      "stateMutability": "nonpayable",
      "type": "function"
    },
    {
      "inputs": [
        {
          "internalType": "uint256",
          "name": "amount",
          "type": "uint256"
        }
      ],
      "name": "withdrawFees",
      "outputs": [],
      "stateMutability": "nonpayable",
      "type": "function"
    },
    {
      "stateMutability": "payable",
      "type": "receive"
    }
  ],
  "bytecode": "0x608034620007ea57601f620034b138819003918201601f19168301916001600160401b03831184841017620006135780849260a094604052833981010312620007ea576200004d816200082f565b6200005b602083016200082f565b906200006a604084016200082f565b916200008760806200007f606087016200082f565b95016200082f565b916001600160a01b03168015620007d157600080546001600160a01b03198116831782556001600160a01b0316907f8be0079c531659141344cd1fd0a4f28419497f9722a3daafe3b4186f6b6457e09080a36001805566038d7ea4c68000600b5561012c600c556207a120600d556046600e55600f805460ff19169055600780546001600160a01b03199081166001600160a01b0393841617909155600880548216858416179055600980548216868416179055600a80549091169290911691909117905562000156620007ef565b90620001616200080f565b600b81526a4e6f766153616e6374756d60a81b6020808301919091529083526001600160a01b03919091168282015260016040830152605f60608301526000608083018190524260a08401526601c6bf5263400060c0840152805260059052805180517f05b8ccbb9d4d8fb16ea74ce3c29a41f1b461fbdaff4714a0d9a8eb05499746bc92916001600160401b03821162000613578354600181811c91168015620007c6575b6020821014620005f257601f81116200077d575b50602090601f8311600114620007095791806005949260c094600092620006fd575b50508160011b916000199060031b1c19161784555b602081015160018501805460408401516001600160a81b03199091166001600160a01b03939093169290921791151560a090811b60ff60a01b16929092179055606082015160028601556080820151600386015581015160048501550151910155620002bd620007ef565b90620002c86200080f565b600a815269105d1a195b98535a5cdd60b21b6020820152825260018060a01b0316602082015260016040820152605c6060820152600060808201524260a08201526601c6bf5263400060c082015260016000526005602052604060002090805180519060018060401b03821162000613578354600181811c91168015620006f2575b6020821014620005f257601f8111620006a9575b50602090601f8311600114620006355791806005949260c09460009262000629575b50508160011b916000199060031b1c19161784555b6001840160018060a01b0360208301511681549060ff60a01b6040850151151560a01b169160018060a81b03191617179055606081015160028501556080810151600385015560a081015160048501550151910155620003f4620007ef565b620003fe6200080f565b600a815269556e696669656420414960b01b602082015281523060208201526001604082015260626060820152600060808201524260a082015266038d7ea4c6800060c082015260026000526005602052604060002090805180519060018060401b03821162000613578354600181811c9116801562000608575b6020821014620005f257601f8111620005a9575b50602090601f8311600114620005355791806005949260c09460009262000529575b50508160011b916000199060031b1c19161784555b6001840160018060a01b0360208301511681549060ff60a01b6040850151151560a01b169160018060a81b03191617179055606081015160028501556080810151600385015560a081015160048501550151910155604051612c6c9081620008458239f35b015190503880620004af565b908460005260206000209160005b601f1985168110620005905750926005949260019260c09583601f1981161062000576575b505050811b018455620004c4565b015160001960f88460031b161c1916905538808062000568565b9192602060018192868501518155019401920162000543565b846000526020600020601f840160051c810160208510620005ea575b601f830160051c82018110620005dd5750506200048d565b60008155600101620005c5565b5080620005c5565b634e487b7160e01b600052602260045260246000fd5b90607f169062000479565b634e487b7160e01b600052604160045260246000fd5b01519050388062000380565b908460005260206000209160005b601f1985168110620006905750926005949260019260c09583601f1981161062000676575b505050811b01845562000395565b015160001960f88460031b161c1916905538808062000668565b9192602060018192868501518155019401920162000643565b846000526020600020601f840160051c810160208510620006ea575b601f830160051c82018110620006dd5750506200035e565b60008155600101620006c5565b5080620006c5565b90607f16906200034a565b0151905038806200023d565b908460005260206000209160005b601f1985168110620007645750926005949260019260c09583601f198116106200074a575b505050811b01845562000252565b015160001960f88460031b161c191690553880806200073c565b9192602060018192868501518155019401920162000717565b846000526020600020601f840160051c810160208510620007be575b601f830160051c82018110620007b15750506200021b565b6000815560010162000799565b508062000799565b90607f169062000207565b604051631e4fbdf760e01b815260006004820152602490fd5b600080fd5b6040519060e082016001600160401b038111838210176200061357604052565b60408051919082016001600160401b038111838210176200061357604052565b51906001600160a01b0382168203620007ea5756fe608080604052600436101561001d575b50361561001b57600080fd5b005b60003560e01c9081630905f560146119f857508063103cd6c81461198e57806329530ea1146118f65780633f82d47e1461108a5780634c17b53014610ff2578063509f6db914610cd15780635e318e0714610c055780635e45da2314610bc95780635ff45fec14610b01578063689873e914610a2c57806368ff1b90146109da578063715018a61461093e57806371bc6b8d146108d55780638ca09bf2146106b65780638da5cb5b14610664578063a05a11501461059b578063a17ed96c1461055f578063c2596a50146104fa578063c5556cd31461045f578063d52b7a1414610423578063db2e21bc146103a8578063e8faf3f414610356578063eb2e578b1461031a578063ec9fc637146102c8578063ef06e72c14610276578063f0e22d521461023a5763f2fde38b14610153573861000f565b346102355760207ffffffffffffffffffffffffffffffffffffffffffffffffffffffffffffffffc3601126102355761018a611ae6565b610192611d46565b73ffffffffffffffffffffffffffffffffffffffff80911690811561020457600054827fffffffffffffffffffffffff0000000000000000000000000000000000000000821617600055167f8be0079c531659141344cd1fd0a4f28419497f9722a3daafe3b4186f6b6457e0600080a3005b60246040517f1e4fbdf700000000000000000000000000000000000000000000000000000000815260006004820152fd5b600080fd5b346102355760007ffffffffffffffffffffffffffffffffffffffffffffffffffffffffffffffffc360112610235576020600254604051908152f35b346102355760007ffffffffffffffffffffffffffffffffffffffffffffffffffffffffffffffffc36011261023557602073ffffffffffffffffffffffffffffffffffffffff600a5416604051908152f35b346102355760007ffffffffffffffffffffffffffffffffffffffffffffffffffffffffffffffffc36011261023557602073ffffffffffffffffffffffffffffffffffffffff60085416604051908152f35b346102355760007ffffffffffffffffffffffffffffffffffffffffffffffffffffffffffffffffc360112610235576020600b54604051908152f35b346102355760007ffffffffffffffffffffffffffffffffffffffffffffffffffffffffffffffffc36011261023557602073ffffffffffffffffffffffffffffffffffffffff60095416604051908152f35b346102355760007ffffffffffffffffffffffffffffffffffffffffffffffffffffffffffffffffc360112610235576103df611d46565b600080808073ffffffffffffffffffffffffffffffffffffffff815416479082821561041a575bf11561040e57005b6040513d6000823e3d90fd5b506108fc610406565b346102355760007ffffffffffffffffffffffffffffffffffffffffffffffffffffffffffffffffc360112610235576020600e54604051908152f35b346102355760207ffffffffffffffffffffffffffffffffffffffffffffffffffffffffffffffffc360112610235576004356003811015610235576104a390611d2d565b6104ac81611c68565b6104f66001830154926002810154906003810154600560048301549201549260405196879673ffffffffffffffffffffffffffffffffffffffff60ff8360a01c1692169088611a94565b0390f35b346102355760207ffffffffffffffffffffffffffffffffffffffffffffffffffffffffffffffffc3601126102355773ffffffffffffffffffffffffffffffffffffffff610546611ae6565b1660005260066020526020604060002054604051908152f35b346102355760007ffffffffffffffffffffffffffffffffffffffffffffffffffffffffffffffffc360112610235576020600c54604051908152f35b346102355760207ffffffffffffffffffffffffffffffffffffffffffffffffffffffffffffffffc3601126102355773ffffffffffffffffffffffffffffffffffffffff6105e7611ae6565b166000526004602052604060002080546104f66001830154926002810154906003810154600482015460058301549161062a600960ff6008870154169501611c68565b946040519889988952602089015260408801526060870152608086015260a0850152151560c08401526101008060e0850152830190611a36565b346102355760007ffffffffffffffffffffffffffffffffffffffffffffffffffffffffffffffffc36011261023557602073ffffffffffffffffffffffffffffffffffffffff60005416604051908152f35b346102355760207ffffffffffffffffffffffffffffffffffffffffffffffffffffffffffffffffc3601126102355760043560005260036020526040600020805473ffffffffffffffffffffffffffffffffffffffff60018301541691600281015460ff60038301541660048301549060ff600585015416926040519461073c86611b09565b60068101548652600781015460208701526008810154604087015260098101546060870152600a8101546080870152600b810160405190816020825491828152019160005260206000209060005b8181106108bf5750505091816107a9600e936107e69796950382611b5e565b60a08901526107ba600c8201611c68565b60c0890152600d81015460e0890152015497604051978852602088015260408701526060860190611bd9565b6080840152151560a0830152610100928360c08401526102008301825185850152602083015161012085015260408301516101408501526060830151610160850152608083015161018085015260a0830151946101a085015284518091526020610220850195019060005b8181106108a95750505060e0610897849560c08501517fffffffffffffffffffffffffffffffffffffffffffffffffffffffffffffff00878303016101c0880152611a36565b9201516101e084015260e08301520390f35b8251875260209687019690920191600101610851565b825484526020909301926001928301920161078a565b346102355760207ffffffffffffffffffffffffffffffffffffffffffffffffffffffffffffffffc360112610235577e24003e28adbea6e91a8c9e7b647b31ce22e006403b2d8f2ce1680453f6caec6020600435610931611d46565b80600c55604051908152a1005b346102355760007ffffffffffffffffffffffffffffffffffffffffffffffffffffffffffffffffc36011261023557610975611d46565b600073ffffffffffffffffffffffffffffffffffffffff81547fffffffffffffffffffffffff000000000000000000000000000000000000000081168355167f8be0079c531659141344cd1fd0a4f28419497f9722a3daafe3b4186f6b6457e08280a3005b346102355760007ffffffffffffffffffffffffffffffffffffffffffffffffffffffffffffffffc36011261023557602073ffffffffffffffffffffffffffffffffffffffff60075416604051908152f35b346102355760207ffffffffffffffffffffffffffffffffffffffffffffffffffffffffffffffffc3601126102355773ffffffffffffffffffffffffffffffffffffffff610a78611ae6565b166000526004602052604060002080546104f660018301549260028101549060038101546004820154600583015490600784015492610ac1600960ff6008880154169601611c68565b95604051998a998a5260208a015260408901526060880152608087015260a086015260c0850152151560e084015261012080610100850152830190611a36565b346102355760207ffffffffffffffffffffffffffffffffffffffffffffffffffffffffffffffffc360112610235576004356000526003602052610120604060002080549073ffffffffffffffffffffffffffffffffffffffff60018201541690600281015460ff6003830154166004830154610bab60ff60058601541692600686015494600a600788015497015497604051998a5260208a015260408901526060880190611bd9565b6080860152151560a085015260c084015260e0830152610100820152f35b346102355760007ffffffffffffffffffffffffffffffffffffffffffffffffffffffffffffffffc360112610235576020600d54604051908152f35b346102355760207ffffffffffffffffffffffffffffffffffffffffffffffffffffffffffffffffc36011261023557600435610c3f611d46565b478111610c735760008080809373ffffffffffffffffffffffffffffffffffffffff82541682821561041a57f11561040e57005b60646040517f08c379a000000000000000000000000000000000000000000000000000000000815260206004820152601460248201527f496e73756666696369656e742062616c616e63650000000000000000000000006044820152fd5b346102355760807ffffffffffffffffffffffffffffffffffffffffffffffffffffffffffffffffc3601126102355760043560038110156102355767ffffffffffffffff90602435828111610235573660238201121561023557806004013592610d3a84611b9f565b93610d486040519586611b5e565b80855236602482850101116102355760249281600092602095869301838901378601015260443573ffffffffffffffffffffffffffffffffffffffff8116809103610235576064359182151580930361023557610da3611d46565b610dac85611d2d565b908651908111610fc357610dca81610dc48454611c15565b84611e10565b84601f8211600114610efa579181610ee19694927ff4221482844f235ece9c81bbaeedf22006d94c9d72ca065e1143796512c8566298999694600091610eef575b507fffffffffffffffffffffffffffffffffffffffffffffffffffffffffffffffff8260011b9260031b1c19161790555b6001610e4788611d2d565b01817fffffffffffffffffffffffff00000000000000000000000000000000000000008254161790556001610e7b88611d2d565b0180547fffffffffffffffffffffff00ffffffffffffffffffffffffffffffffffffffff74ff00000000000000000000000000000000000000008560a01b169116179055426004610ecb89611d2d565b0155604051948594606086526060860190611a36565b9284015260408301520390a2005b90508601518a610e0b565b7fffffffffffffffffffffffffffffffffffffffffffffffffffffffffffffffe082169083600052866000209160005b818110610fac5750927ff4221482844f235ece9c81bbaeedf22006d94c9d72ca065e1143796512c85662989996949260019282610ee19a989610610f75575b5050811b019055610e3c565b8801517fffffffffffffffffffffffffffffffffffffffffffffffffffffffffffffffff60f88460031b161c191690558a80610f69565b91928860018192868e015181550194019201610f2a565b7f4e487b7100000000000000000000000000000000000000000000000000000000600052604160045260246000fd5b346102355760007ffffffffffffffffffffffffffffffffffffffffffffffffffffffffffffffffc36011261023557611029611d46565b7fb8a34678623c94d0d3977ce6d4db867e7e96ffd365f2c0f677563f8dddd4c84060207fffffffffffffffffffffffffffffffffffffffffffffffffffffffffffffff00600f5460ff80821615169182911617600f556040519015158152a1005b60807ffffffffffffffffffffffffffffffffffffffffffffffffffffffffffffffffc360112610235576110bc611ae6565b60066044351015610235576003606435101561023557600280600154146118cc578060015560ff600f541661186e57600b5434106118105760ff6001611103606435611d2d565b015460a01c16156117b25773ffffffffffffffffffffffffffffffffffffffff821615611754576111348154611d97565b908181558160005260036020526000600e604082208481556001810173ffffffffffffffffffffffffffffffffffffffff87167fffffffffffffffffffffffff000000000000000000000000000000000000000082541617905560243584820155600381017fffffffffffffffffffffffffffffffffffffffffffffffffffffffffffffff00908181541660ff6044351617905542600483015560058201908154169055015560036111e7606435611d2d565b016111f28154611d97565b9055426004611202606435611d2d565b015560405161121381604435611bd9565b42602082015260243590837f1513f3ec5dccd8fcba63cbb36c98f209e3966e97dc534d3f10bedd25532d1ac6604073ffffffffffffffffffffffffffffffffffffffff881693a46064356113a8575061126e60243583612327565b6112778361243e565b9061128184612598565b9161128b856126dc565b94600f4206605501806055116113795760209661136d95611334604051946112b286611b42565b6005865260a0368c8801376040517fffffffffffffffffffffffffffffffffffffffff0000000000000000000000008c82019260601b16825260243560348201524260548201527f6e6f76610000000000000000000000000000000000000000000000000000000060748201526058815261132c81611b26565b519020612b0b565b946040519661134288611b09565b87528987015260408601526060850152608084015260a083015260c08201524260e082015282611e55565b60018055604051908152f35b7f4e487b7100000000000000000000000000000000000000000000000000000000600052601160045260246000fd5b60643560010361156857506113bf602435836123a4565b6113c8836124a6565b6113d184612627565b6113da85612764565b600c420660580160581161137957604051916113f583611b42565b6005835260a036602085013760005b600581106114cf5750906114ca9493929161148a6020986040517fffffffffffffffffffffffffffffffffffffffff0000000000000000000000008b82019260601b16825260243560348201524260548201527f617468656e6100000000000000000000000000000000000000000000000000006074820152605a815261132c81611b26565b936040519561149887611b09565b86528886015260408501526060840152600c4206605801608084015260a083015260c08201524260e082015282611e55565b61136d565b6115639060648960405161154f81611523602082019487429187917fffffffffffffffffffffffffffffffffffffffff0000000000000000000000006054949260601b168352601483015260348201520190565b037fffffffffffffffffffffffffffffffffffffffffffffffffffffffffffffffe08101835282611b5e565b5190200661155d8287612ae6565b52611d97565b611404565b6064351461157a575b6020915061136d565b61159b61158960243584612327565b611595602435856123a4565b90611dc4565b60011c6115b36115aa8461243e565b611595856124a6565b60011c6115cb6115c285612598565b61159586612627565b60011c6115e36115da866126dc565b61159587612764565b60011c60054206605f01605f11611379576040519161160183611b09565b6007835260e036602085013760005b600781106116db5750906116d6949392916116966020986040517fffffffffffffffffffffffffffffffffffffffff0000000000000000000000008b82019260601b16825260243560348201524260548201527f756e6966696564000000000000000000000000000000000000000000000000006074820152605b815261132c81611b26565b93604051956116a487611b09565b8652888601526040850152606084015260054206605f01608084015260a083015260c08201524260e082015282611e55565b611571565b61174f90606460405160208101907fffffffffffffffffffffffffffffffffffffffff0000000000000000000000008c60601b1682527f756e696669656400000000000000000000000000000000000000000000000000603482015283603b820152605b4281830152815261154f81611b26565b611610565b60646040517f08c379a000000000000000000000000000000000000000000000000000000000815260206004820152601660248201527f496e76616c696420706c617965722061646472657373000000000000000000006044820152fd5b60646040517f08c379a000000000000000000000000000000000000000000000000000000000815260206004820152601560248201527f41492073657276696365206e6f742061637469766500000000000000000000006044820152fd5b60646040517f08c379a000000000000000000000000000000000000000000000000000000000815260206004820152601060248201527f496e73756666696369656e7420666565000000000000000000000000000000006044820152fd5b60646040517f08c379a000000000000000000000000000000000000000000000000000000000815260206004820152601560248201527f456d657267656e6379206d6f64652061637469766500000000000000000000006044820152fd5b60046040517f3ee5aeb5000000000000000000000000000000000000000000000000000000008152fd5b346102355760207ffffffffffffffffffffffffffffffffffffffffffffffffffffffffffffffffc3601126102355760043560038110156102355761193a90611d2d565b6001810154906104f66002820154916003810154600482015490611962600584015493611c68565b9460405196879673ffffffffffffffffffffffffffffffffffffffff60ff8360a01c1692169088611a94565b346102355760207ffffffffffffffffffffffffffffffffffffffffffffffffffffffffffffffffc360112610235577f07695b29775442d5e4836f94223aa3460d93774d5cb9e03119815f418e2a61c460206004356119eb611d46565b80600b55604051908152a1005b346102355760007ffffffffffffffffffffffffffffffffffffffffffffffffffffffffffffffffc3601126102355760209060ff600f541615158152f35b919082519283825260005b848110611a805750507fffffffffffffffffffffffffffffffffffffffffffffffffffffffffffffffe0601f8460006020809697860101520116010190565b602081830181015184830182015201611a41565b93909273ffffffffffffffffffffffffffffffffffffffff611ac560c097949a99989560e0885260e0880190611a36565b99166020860152151560408501526060840152608083015260a08201520152565b6004359073ffffffffffffffffffffffffffffffffffffffff8216820361023557565b610100810190811067ffffffffffffffff821117610fc357604052565b6080810190811067ffffffffffffffff821117610fc357604052565b60c0810190811067ffffffffffffffff821117610fc357604052565b90601f7fffffffffffffffffffffffffffffffffffffffffffffffffffffffffffffffe0910116810190811067ffffffffffffffff821117610fc357604052565b67ffffffffffffffff8111610fc357601f017fffffffffffffffffffffffffffffffffffffffffffffffffffffffffffffffe01660200190565b906006821015611be65752565b7f4e487b7100000000000000000000000000000000000000000000000000000000600052602160045260246000fd5b90600182811c92168015611c5e575b6020831014611c2f57565b7f4e487b7100000000000000000000000000000000000000000000000000000000600052602260045260246000fd5b91607f1691611c24565b9060405191826000825492611c7c84611c15565b908184526001948581169081600014611ceb5750600114611ca8575b5050611ca692500383611b5e565b565b9093915060005260209081600020936000915b818310611cd3575050611ca693508201013880611c98565b85548884018501529485019487945091830191611cbb565b9050611ca69550602093507fffffffffffffffffffffffffffffffffffffffffffffffffffffffffffffff0091501682840152151560051b8201013880611c98565b6003811015611be6576000526005602052604060002090565b73ffffffffffffffffffffffffffffffffffffffff600054163303611d6757565b60246040517f118cdaa7000000000000000000000000000000000000000000000000000000008152336004820152fd5b7fffffffffffffffffffffffffffffffffffffffffffffffffffffffffffffffff81146113795760010190565b9190820180921161137957565b818110611ddc575050565b60008155600101611dd1565b90601f8111611df5575050565b611ca691600052601f6020600020910160051c810190611dd1565b9190601f8111611e1f57505050565b611ca6926000526020600020906020601f840160051c83019310611e4b575b601f0160051c0190611dd1565b9091508190611e3e565b80600052600360205260406000206005810160017fffffffffffffffffffffffffffffffffffffffffffffffffffffffffffffff00825416179055825160068201556020830151600782015560408301516008820155606083015160098201556080830151600a820155600b810160a08401519081519067ffffffffffffffff92838311610fc357680100000000000000008311610fc35760209082548484558085106122fd575b500190600052602060002060005b8381106122e9575050505060c08401518051918211610fc357611f3e82611f35600c860154611c15565b600c8601611e10565b602090601f83116001146121e5577f7b191e3ec099d3486501f60b5584f2375803f498aa6359a9a8c8c807d1b8f2c0938360809473ffffffffffffffffffffffffffffffffffffffff946001946000926121da575b50507fffffffffffffffffffffffffffffffffffffffffffffffffffffffffffffffff82851b9260031b1c191617600c8201555b60e0870151600d8201558282820154168060005260046020527ffa2b86acdeb1308e724e3750c44ed9f4facdef8a5d1b8a15bbce8dd6236f4ba78560406000208a5180600383015560208c01516004830155605060408d015191826005850155426007850155116000146120fb575060088101867fffffffffffffffffffffffffffffffffffffffffffffffffffffffffffffff00825416179055600981016120796120738254611c15565b82611de8565b7f486967682066726175642073636f72652064657465637465640000000000003290555b8a80519160ff60086040602085015194015192015416916040519384526020840152604083015215156060820152a20154169380519060208101519060e08482015191015191604051938452602084015260408301526060820152a3565b605510156121685760088101867fffffffffffffffffffffffffffffffffffffffffffffffffffffffffffffff00825416179055600981016121406120738254611c15565b7f48696768207269736b206265686176696f722064657465637465640000000036905561209d565b600881017fffffffffffffffffffffffffffffffffffffffffffffffffffffffffffffff00815416905561219f6009820154611c15565b601f81116121b5575b506000600982015561209d565b6121d49060098301600052601f6020600020910160051c810190611dd1565b386121a8565b015190503880611f93565b90600c840160005260206000209160005b7fffffffffffffffffffffffffffffffffffffffffffffffffffffffffffffffe0851681106122d157509360018473ffffffffffffffffffffffffffffffffffffffff9482947f7b191e3ec099d3486501f60b5584f2375803f498aa6359a9a8c8c807d1b8f2c098837fffffffffffffffffffffffffffffffffffffffffffffffffffffffffffffffe060809a161061229a575b505050811b01600c820155611fc7565b01517fffffffffffffffffffffffffffffffffffffffffffffffffffffffffffffffff60f88460031b161c1916905538808061228a565b919260206001819286850151815501940192016121f6565b600190602084519401938184015501611f0b565b612314908460005285846000209182019101611dd1565b38611efd565b9190820391821161137957565b60405160609190911b7fffffffffffffffffffffffffffffffffffffffff00000000000000000000000016602082019081526034820192909252426054820152606491906123788160748101611523565b51902006604681111561239657612393906014420690611dc4565b90565b61239390600f42069061231a565b606491604051907fffffffffffffffffffffffffffffffffffffffff000000000000000000000000602083019360601b16835260348201527f617468656e610000000000000000000000000000000000000000000000000000605482015242605a820152605a815261241581611b26565b51902006604b81111561243057612393906019420690611dc4565b61239390601442069061231a565b73ffffffffffffffffffffffffffffffffffffffff16600052600460205260406000208054156124a0576002810154601e810290808204601e149015171561137957600a60016124919301540490611dc4565b60648111156123935750606490565b50603290565b60009073ffffffffffffffffffffffffffffffffffffffff8116825260046020526040822090815415612590576124dc906128e3565b906002810154906019820291808304601914901517156125635790600161250892015460031c90611dc4565b8160011b9180830460021490151715612536579061252591611dc4565b905060648111156123935750606490565b6024837f4e487b710000000000000000000000000000000000000000000000000000000081526011600452fd5b6024847f4e487b710000000000000000000000000000000000000000000000000000000081526011600452fd5b505050603290565b73ffffffffffffffffffffffffffffffffffffffff1660005260046020526040600020601e90604660038201541161261e575b60059054106125e35760648111156123935750606490565b6014810180911115612491577f4e487b7100000000000000000000000000000000000000000000000000000000600052601160045260246000fd5b604691506125cb565b73ffffffffffffffffffffffffffffffffffffffff6000911681526004602052604081209060199160416003820154116126d3575b600a8154106126c1575b6008015460ff16612682575b5060648111156123935750606490565b90601e81018091116126945790612672565b6024827f4e487b710000000000000000000000000000000000000000000000000000000081526011600452fd5b91601981018091116126945791612666565b6046925061265c565b73ffffffffffffffffffffffffffffffffffffffff60009116815260046020526040812080541561275d57600281015460288102908082046028149015171561253657600482015490601e820291808304601e14901517156125635760059161274491611dc4565b910154601e0390601e8211612536579061252591611dc4565b5050603290565b60009073ffffffffffffffffffffffffffffffffffffffff811682526004908160205260408320908154156128935761279c906128e3565b600282015460238102908082046023149015171561283b57838301549060198202918083046019149015171561286757906127d691611dc4565b60148202918083046014149015171561283b576005916127f591611dc4565b910154601903916019831161280f57509061252591611dc4565b8360116024927f4e487b7100000000000000000000000000000000000000000000000000000000835252fd5b6024856011867f4e487b7100000000000000000000000000000000000000000000000000000000835252fd5b6024866011877f4e487b7100000000000000000000000000000000000000000000000000000000835252fd5b50505050603290565b80548210156128b45760005260206000200190600090565b7f4e487b7100000000000000000000000000000000000000000000000000000000600052603260045260246000fd5b73ffffffffffffffffffffffffffffffffffffffff60009116815260049081602052600660408220018054906003808310612adc579083916001915b848310612a00575050507fffffffffffffffffffffffffffffffffffffffffffffffffffffffffffffffff82019182116129d45781156129a85704600a81101561296b57505050605a90565b606403916064831161297c57505090565b9060116024927f4e487b7100000000000000000000000000000000000000000000000000000000835252fd5b6024836012867f4e487b7100000000000000000000000000000000000000000000000000000000835252fd5b6024836011867f4e487b7100000000000000000000000000000000000000000000000000000000835252fd5b909192612a0d848361289c565b90547fffffffffffffffffffffffffffffffffffffffffffffffffffffffffffffffff860191851b1c858211612ab0579181612a8c93612a50612a86948761289c565b905490881b1c1015612a935761159590612a7a612a6d898861289c565b905490891b1c918761289c565b905490881b1c9061231a565b93611d97565b919061291f565b612aa0611595918661289c565b905490871b1c612a7a888761289c565b60248860118b7f4e487b7100000000000000000000000000000000000000000000000000000000835252fd5b5050505050603290565b80518210156128b45760209160051b010190565b60ff1660ff81146113795760010190565b9060005b60ff8116602081109081612c00575b5015612b3257612b2d90612afa565b612b0f565b9060ff809216907fffffffffffffffffffffffffffffffffffffffffffffffffffffffffffffffe0612b7c612b6684611b9f565b93612b746040519586611b5e565b808552611b9f565b0190602091368385013760005b808516908382108080612bcc575b15612bc157156128b45784518210156128b457818488612bbc941a9187010153612afa565b612b89565b505050935050905090565b156128b4577fff0000000000000000000000000000000000000000000000000000000000000088841a60f81b161515612b97565b90156128b457837fff00000000000000000000000000000000000000000000000000000000000000911a60f81b16151538612b1e56fea26469706673582212205522889d45ec6d7f522dfc5db9ba7378c336b94abcd48520c98e8458879ed66864736f6c63430008140033",
  "linkReferences": {},
  "deployedLinkReferences": {}
}