{
  "_format": "hh-sol-artifact-1",
  "contractName": "GamingCore",
  "sourceName": "contracts/GamingCore.sol",
  "abi": [
    {
      "inputs": [
        {
          "internalType": "address",
          "name": "initialOwner",
          "type": "address"
        }
      ],
      "stateMutability": "nonpayable",
      "type": "constructor"
    },
    {
      "inputs": [
        {
          "internalType": "address",
          "name": "owner",
          "type": "address"
        }
      ],
      "name": "OwnableInvalidOwner",
      "type": "error"
    },
    {
      "inputs": [
        {
          "internalType": "address",
          "name": "account",
          "type": "address"
        }
      ],
      "name": "OwnableUnauthorizedAccount",
      "type": "error"
    },
    {
      "inputs": [],
      "name": "ReentrancyGuardReentrantCall",
      "type": "error"
    },
    {
      "anonymous": false,
      "inputs": [
        {
          "indexed": true,
          "internalType": "address",
          "name": "player",
          "type": "address"
        },
        {
          "indexed": false,
          "internalType": "uint256",
          "name": "fraudScore",
          "type": "uint256"
        },
        {
          "indexed": false,
          "internalType": "uint256",
          "name": "skillLevel",
          "type": "uint256"
        }
      ],
      "name": "AIAnalysisUpdated",
      "type": "event"
    },
    {
      "anonymous": false,
      "inputs": [
        {
          "indexed": false,
          "internalType": "address",
          "name": "newOracle",
          "type": "address"
        }
      ],
      "name": "AIOracleUpdated",
      "type": "event"
    },
    {
      "anonymous": false,
      "inputs": [
        {
          "indexed": true,
          "internalType": "address",
          "name": "player",
          "type": "address"
        },
        {
          "indexed": false,
          "internalType": "uint256",
          "name": "newBalance",
          "type": "uint256"
        }
      ],
      "name": "BalanceUpdated",
      "type": "event"
    },
    {
      "anonymous": false,
      "inputs": [
        {
          "indexed": true,
          "internalType": "uint256",
          "name": "gameId",
          "type": "uint256"
        },
        {
          "indexed": false,
          "internalType": "string",
          "name": "gameType",
          "type": "string"
        },
        {
          "indexed": false,
          "internalType": "uint256",
          "name": "minStake",
          "type": "uint256"
        },
        {
          "indexed": false,
          "internalType": "uint256",
          "name": "maxPlayers",
          "type": "uint256"
        }
      ],
      "name": "GameCreated",
      "type": "event"
    },
    {
      "anonymous": false,
      "inputs": [
        {
          "indexed": true,
          "internalType": "uint256",
          "name": "gameId",
          "type": "uint256"
        },
        {
          "indexed": true,
          "internalType": "address",
          "name": "winner",
          "type": "address"
        },
        {
          "indexed": false,
          "internalType": "uint256",
          "name": "prize",
          "type": "uint256"
        }
      ],
      "name": "GameFinished",
      "type": "event"
    },
    {
      "anonymous": false,
      "inputs": [
        {
          "indexed": true,
          "internalType": "uint256",
          "name": "gameId",
          "type": "uint256"
        },
        {
          "indexed": false,
          "internalType": "uint256",
          "name": "startTime",
          "type": "uint256"
        }
      ],
      "name": "GameStarted",
      "type": "event"
    },
    {
      "anonymous": false,
      "inputs": [
        {
          "indexed": true,
          "internalType": "address",
          "name": "previousOwner",
          "type": "address"
        },
        {
          "indexed": true,
          "internalType": "address",
          "name": "newOwner",
          "type": "address"
        }
      ],
      "name": "OwnershipTransferred",
      "type": "event"
    },
    {
      "anonymous": false,
      "inputs": [
        {
          "indexed": false,
          "internalType": "uint256",
          "name": "newFee",
          "type": "uint256"
        }
      ],
      "name": "PlatformFeeUpdated",
      "type": "event"
    },
    {
      "anonymous": false,
      "inputs": [
        {
          "indexed": true,
          "internalType": "uint256",
          "name": "gameId",
          "type": "uint256"
        },
        {
          "indexed": true,
          "internalType": "address",
          "name": "player",
          "type": "address"
        },
        {
          "indexed": false,
          "internalType": "string",
          "name": "action",
          "type": "string"
        },
        {
          "indexed": false,
          "internalType": "uint256",
          "name": "score",
          "type": "uint256"
        }
      ],
      "name": "PlayerAction",
      "type": "event"
    },
    {
      "anonymous": false,
      "inputs": [
        {
          "indexed": true,
          "internalType": "uint256",
          "name": "gameId",
          "type": "uint256"
        },
        {
          "indexed": true,
          "internalType": "address",
          "name": "player",
          "type": "address"
        },
        {
          "indexed": false,
          "internalType": "uint256",
          "name": "stake",
          "type": "uint256"
        }
      ],
      "name": "PlayerJoined",
      "type": "event"
    },
    {
      "inputs": [
        {
          "internalType": "address",
          "name": "",
          "type": "address"
        }
      ],
      "name": "aiAnalytics",
      "outputs": [
        {
          "internalType": "uint256",
          "name": "fraudScore",
          "type": "uint256"
        },
        {
          "internalType": "uint256",
          "name": "skillLevel",
          "type": "uint256"
        },
        {
          "internalType": "uint256",
          "name": "riskAssessment",
          "type": "uint256"
        },
        {
          "internalType": "uint256",
          "name": "predictedOutcome",
          "type": "uint256"
        }
      ],
      "stateMutability": "view",
      "type": "function"
    },
    {
      "inputs": [],
      "name": "aiOracle",
      "outputs": [
        {
          "internalType": "address",
          "name": "",
          "type": "address"
        }
      ],
      "stateMutability": "view",
      "type": "function"
    },
    {
      "inputs": [],
      "name": "aiServiceFee",
      "outputs": [
        {
          "internalType": "uint256",
          "name": "",
          "type": "uint256"
        }
      ],
      "stateMutability": "view",
      "type": "function"
    },
    {
      "inputs": [
        {
          "internalType": "string",
          "name": "gameType",
          "type": "string"
        },
        {
          "internalType": "uint256",
          "name": "minStake",
          "type": "uint256"
        },
        {
          "internalType": "uint256",
          "name": "maxStake",
          "type": "uint256"
        },
        {
          "internalType": "uint256",
          "name": "maxPlayers",
          "type": "uint256"
        },
        {
          "internalType": "uint256",
          "name": "duration",
          "type": "uint256"
        }
      ],
      "name": "createGame",
      "outputs": [
        {
          "internalType": "uint256",
          "name": "",
          "type": "uint256"
        }
      ],
      "stateMutability": "nonpayable",
      "type": "function"
    },
    {
      "inputs": [
        {
          "internalType": "address",
          "name": "token",
          "type": "address"
        },
        {
          "internalType": "uint256",
          "name": "amount",
          "type": "uint256"
        }
      ],
      "name": "emergencyWithdraw",
      "outputs": [],
      "stateMutability": "nonpayable",
      "type": "function"
    },
    {
      "inputs": [
        {
          "internalType": "uint256",
          "name": "gameId",
          "type": "uint256"
        }
      ],
      "name": "finishGame",
      "outputs": [],
      "stateMutability": "nonpayable",
      "type": "function"
    },
    {
      "inputs": [
        {
          "internalType": "uint256",
          "name": "",
          "type": "uint256"
        }
      ],
      "name": "games",
      "outputs": [
        {
          "internalType": "uint256",
          "name": "gameId",
          "type": "uint256"
        },
        {
          "internalType": "string",
          "name": "gameType",
          "type": "string"
        },
        {
          "internalType": "uint256",
          "name": "minStake",
          "type": "uint256"
        },
        {
          "internalType": "uint256",
          "name": "maxStake",
          "type": "uint256"
        },
        {
          "internalType": "uint256",
          "name": "maxPlayers",
          "type": "uint256"
        },
        {
          "internalType": "uint256",
          "name": "currentPlayers",
          "type": "uint256"
        },
        {
          "internalType": "enum GamingCore.GameState",
          "name": "state",
          "type": "uint8"
        },
        {
          "internalType": "uint256",
          "name": "startTime",
          "type": "uint256"
        },
        {
          "internalType": "uint256",
          "name": "endTime",
          "type": "uint256"
        },
        {
          "internalType": "uint256",
          "name": "totalPot",
          "type": "uint256"
        }
      ],
      "stateMutability": "view",
      "type": "function"
    },
    {
      "inputs": [],
      "name": "gdiToken",
      "outputs": [
        {
          "internalType": "address",
          "name": "",
          "type": "address"
        }
      ],
      "stateMutability": "view",
      "type": "function"
    },
    {
      "inputs": [
        {
          "internalType": "address",
          "name": "player",
          "type": "address"
        }
      ],
      "name": "getAIAnalytics",
      "outputs": [
        {
          "internalType": "uint256",
          "name": "fraudScore",
          "type": "uint256"
        },
        {
          "internalType": "uint256",
          "name": "skillLevel",
          "type": "uint256"
        },
        {
          "internalType": "uint256",
          "name": "riskAssessment",
          "type": "uint256"
        },
        {
          "internalType": "uint256",
          "name": "predictedOutcome",
          "type": "uint256"
        }
      ],
      "stateMutability": "view",
      "type": "function"
    },
    {
      "inputs": [
        {
          "internalType": "uint256",
          "name": "gameId",
          "type": "uint256"
        }
      ],
      "name": "getGame",
      "outputs": [
        {
          "internalType": "uint256",
          "name": "id",
          "type": "uint256"
        },
        {
          "internalType": "string",
          "name": "gameType",
          "type": "string"
        },
        {
          "internalType": "uint256",
          "name": "minStake",
          "type": "uint256"
        },
        {
          "internalType": "uint256",
          "name": "maxStake",
          "type": "uint256"
        },
        {
          "internalType": "uint256",
          "name": "maxPlayers",
          "type": "uint256"
        },
        {
          "internalType": "uint256",
          "name": "currentPlayers",
          "type": "uint256"
        },
        {
          "internalType": "enum GamingCore.GameState",
          "name": "state",
          "type": "uint8"
        },
        {
          "internalType": "uint256",
          "name": "startTime",
          "type": "uint256"
        },
        {
          "internalType": "uint256",
          "name": "endTime",
          "type": "uint256"
        },
        {
          "internalType": "uint256",
          "name": "totalPot",
          "type": "uint256"
        }
      ],
      "stateMutability": "view",
      "type": "function"
    },
    {
      "inputs": [
        {
          "internalType": "address",
          "name": "player",
          "type": "address"
        }
      ],
      "name": "getPlayerBalance",
      "outputs": [
        {
          "internalType": "uint256",
          "name": "",
          "type": "uint256"
        }
      ],
      "stateMutability": "view",
      "type": "function"
    },
    {
      "inputs": [
        {
          "internalType": "uint256",
          "name": "gameId",
          "type": "uint256"
        },
        {
          "internalType": "address",
          "name": "player",
          "type": "address"
        }
      ],
      "name": "getPlayerInGame",
      "outputs": [
        {
          "internalType": "address",
          "name": "playerAddress",
          "type": "address"
        },
        {
          "internalType": "uint256",
          "name": "stake",
          "type": "uint256"
        },
        {
          "internalType": "uint256",
          "name": "score",
          "type": "uint256"
        },
        {
          "internalType": "uint256",
          "name": "rank",
          "type": "uint256"
        },
        {
          "internalType": "bool",
          "name": "isActive",
          "type": "bool"
        },
        {
          "internalType": "uint256",
          "name": "joinTime",
          "type": "uint256"
        },
        {
          "internalType": "uint256",
          "name": "lastActionTime",
          "type": "uint256"
        }
      ],
      "stateMutability": "view",
      "type": "function"
    },
    {
      "inputs": [
        {
          "internalType": "address",
          "name": "player",
          "type": "address"
        }
      ],
      "name": "getPlayerStats",
      "outputs": [
        {
          "internalType": "uint256",
          "name": "gamesPlayed",
          "type": "uint256"
        },
        {
          "internalType": "uint256",
          "name": "gamesWon",
          "type": "uint256"
        },
        {
          "internalType": "uint256",
          "name": "totalEarnings",
          "type": "uint256"
        },
        {
          "internalType": "uint256",
          "name": "totalStaked",
          "type": "uint256"
        },
        {
          "internalType": "uint256",
          "name": "winRate",
          "type": "uint256"
        },
        {
          "internalType": "uint256",
          "name": "averageScore",
          "type": "uint256"
        },
        {
          "internalType": "uint256",
          "name": "lastGameTime",
          "type": "uint256"
        }
      ],
      "stateMutability": "view",
      "type": "function"
    },
    {
      "inputs": [],
      "name": "getTotalGames",
      "outputs": [
        {
          "internalType": "uint256",
          "name": "",
          "type": "uint256"
        }
      ],
      "stateMutability": "view",
      "type": "function"
    },
    {
      "inputs": [
        {
          "internalType": "uint256",
          "name": "gameId",
          "type": "uint256"
        },
        {
          "internalType": "uint256",
          "name": "stake",
          "type": "uint256"
        }
      ],
      "name": "joinGame",
      "outputs": [],
      "stateMutability": "nonpayable",
      "type": "function"
    },
    {
      "inputs": [],
      "name": "maxGameDuration",
      "outputs": [
        {
          "internalType": "uint256",
          "name": "",
          "type": "uint256"
        }
      ],
      "stateMutability": "view",
      "type": "function"
    },
    {
      "inputs": [],
      "name": "minGameDuration",
      "outputs": [
        {
          "internalType": "uint256",
          "name": "",
          "type": "uint256"
        }
      ],
      "stateMutability": "view",
      "type": "function"
    },
    {
      "inputs": [],
      "name": "owner",
      "outputs": [
        {
          "internalType": "address",
          "name": "",
          "type": "address"
        }
      ],
      "stateMutability": "view",
      "type": "function"
    },
    {
      "inputs": [],
      "name": "platformFee",
      "outputs": [
        {
          "internalType": "uint256",
          "name": "",
          "type": "uint256"
        }
      ],
      "stateMutability": "view",
      "type": "function"
    },
    {
      "inputs": [
        {
          "internalType": "address",
          "name": "",
          "type": "address"
        }
      ],
      "name": "playerBalances",
      "outputs": [
        {
          "internalType": "uint256",
          "name": "",
          "type": "uint256"
        }
      ],
      "stateMutability": "view",
      "type": "function"
    },
    {
      "inputs": [
        {
          "internalType": "address",
          "name": "",
          "type": "address"
        }
      ],
      "name": "playerStats",
      "outputs": [
        {
          "internalType": "uint256",
          "name": "gamesPlayed",
          "type": "uint256"
        },
        {
          "internalType": "uint256",
          "name": "gamesWon",
          "type": "uint256"
        },
        {
          "internalType": "uint256",
          "name": "totalEarnings",
          "type": "uint256"
        },
        {
          "internalType": "uint256",
          "name": "totalStaked",
          "type": "uint256"
        },
        {
          "internalType": "uint256",
          "name": "winRate",
          "type": "uint256"
        },
        {
          "internalType": "uint256",
          "name": "averageScore",
          "type": "uint256"
        },
        {
          "internalType": "uint256",
          "name": "lastGameTime",
          "type": "uint256"
        }
      ],
      "stateMutability": "view",
      "type": "function"
    },
    {
      "inputs": [],
      "name": "renounceOwnership",
      "outputs": [],
      "stateMutability": "nonpayable",
      "type": "function"
    },
    {
      "inputs": [
        {
          "internalType": "uint256",
          "name": "gameId",
          "type": "uint256"
        }
      ],
      "name": "startGame",
      "outputs": [],
      "stateMutability": "nonpayable",
      "type": "function"
    },
    {
      "inputs": [
        {
          "internalType": "uint256",
          "name": "gameId",
          "type": "uint256"
        },
        {
          "internalType": "string",
          "name": "action",
          "type": "string"
        },
        {
          "internalType": "uint256",
          "name": "score",
          "type": "uint256"
        }
      ],
      "name": "submitAction",
      "outputs": [],
      "stateMutability": "nonpayable",
      "type": "function"
    },
    {
      "inputs": [
        {
          "internalType": "address",
          "name": "newOwner",
          "type": "address"
        }
      ],
      "name": "transferOwnership",
      "outputs": [],
      "stateMutability": "nonpayable",
      "type": "function"
    },
    {
      "inputs": [],
      "name": "treasury",
      "outputs": [
        {
          "internalType": "address",
          "name": "",
          "type": "address"
        }
      ],
      "stateMutability": "view",
      "type": "function"
    },
    {
      "inputs": [
        {
          "internalType": "address",
          "name": "player",
          "type": "address"
        },
        {
          "internalType": "uint256",
          "name": "fraudScore",
          "type": "uint256"
        },
        {
          "internalType": "uint256",
          "name": "skillLevel",
          "type": "uint256"
        },
        {
          "internalType": "uint256",
          "name": "riskAssessment",
          "type": "uint256"
        },
        {
          "internalType": "uint256",
          "name": "predictedOutcome",
          "type": "uint256"
        }
      ],
      "name": "updateAIAnalytics",
      "outputs": [],
      "stateMutability": "nonpayable",
      "type": "function"
    },
    {
      "inputs": [
        {
          "internalType": "address",
          "name": "newOracle",
          "type": "address"
        }
      ],
      "name": "updateAIOracle",
      "outputs": [],
      "stateMutability": "nonpayable",
      "type": "function"
    },
    {
      "inputs": [
        {
          "internalType": "uint256",
          "name": "newFee",
          "type": "uint256"
        }
      ],
      "name": "updatePlatformFee",
      "outputs": [],
      "stateMutability": "nonpayable",
      "type": "function"
    },
    {
      "inputs": [
        {
          "internalType": "uint256",
          "name": "amount",
          "type": "uint256"
        }
      ],
      "name": "withdrawBalance",
      "outputs": [],
      "stateMutability": "nonpayable",
      "type": "function"
    }
  ],
  "bytecode": "0x6080346100d957601f6200278038819003918201601f19168301916001600160401b038311848410176100de578084926020946040528339810103126100d957516001600160a01b0390818116908190036100d957600160005580156100c057600180546001600160a01b03198116831790915560405192167f8be0079c531659141344cd1fd0a4f28419497f9722a3daafe3b4186f6b6457e0600080a36019600855600f60095561012c600a55610e10600b5561268b9081620000f58239f35b604051631e4fbdf760e01b815260006004820152602490fd5b600080fd5b634e487b7160e01b600052604160045260246000fdfe6080604052600436101561001257600080fd5b60003560e01c80630c71c8e114611c3d5780630decfc1514611a90578063117a5b9014611a0457806326232a2e146119c857806331b221cd1461197657806338bd1bc1146119245780633f2df4ad1461181457806342b526021461135c5780634e89e1ed146110555780634fd66eae146105d05780635bd4349b146113205780635cfd85351461120957806361d027b3146111b757806364e0fa981461117b578063715018a6146110dd5780637b38314c14610379578063843deb03146110555780638da5cb5b1461100357806394ec2a1714610fc757806395ccea6714610f06578063a2f77bcc14610e61578063aa0b598814610d8f578063b60b9fcb146106c6578063b64ea8c61461068a578063cdafbbb6146105d0578063cfe186b21461054a578063da76d5cd146103de578063e2734c9314610379578063e5ed1d591461024d5763f2fde38b1461016657600080fd5b346102485760207ffffffffffffffffffffffffffffffffffffffffffffffffffffffffffffffffc3601126102485761019d611d1b565b6101a5611fc1565b73ffffffffffffffffffffffffffffffffffffffff80911690811561021757600154827fffffffffffffffffffffffff0000000000000000000000000000000000000000821617600155167f8be0079c531659141344cd1fd0a4f28419497f9722a3daafe3b4186f6b6457e0600080a3005b60246040517f1e4fbdf700000000000000000000000000000000000000000000000000000000815260006004820152fd5b600080fd5b346102485760207ffffffffffffffffffffffffffffffffffffffffffffffffffffffffffffffffc36011261024857600435610287611fc1565b8060005260046020526102a06040600020541515612085565b80600052600460205260ff60066040600020015416600481101561034a576102c890156120ea565b8060005260046020526002600560406000200154106102ec576102ea9061226e565b005b60646040517f08c379a000000000000000000000000000000000000000000000000000000000815260206004820152601760248201527f4e656564206174206c65617374203220706c61796572730000000000000000006044820152fd5b7f4e487b7100000000000000000000000000000000000000000000000000000000600052602160045260246000fd5b346102485760207ffffffffffffffffffffffffffffffffffffffffffffffffffffffffffffffffc3601126102485773ffffffffffffffffffffffffffffffffffffffff6103c5611d1b565b1660005260076020526020604060002054604051908152f35b34610248576020807ffffffffffffffffffffffffffffffffffffffffffffffffffffffffffffffffc360112610248576000816104c160043561041f612233565b33845260078352610436816040862054101561214f565b338452600783526040842061044c8282546122ec565b905573ffffffffffffffffffffffffffffffffffffffff600c5416906040519485809481937fa9059cbb00000000000000000000000000000000000000000000000000000000835233600484016020909392919373ffffffffffffffffffffffffffffffffffffffff60408201951681520152565b03925af1801561053e57610511575b5033600052600781527f8ad64a0ac7700dd8425ab0499f107cb6e2cd1581d803c5b8c1c79dcb8190b1af604060002054916040519283523392a26001600055005b61053090823d8411610537575b6105288183611d3e565b8101906121b4565b50816104d0565b503d61051e565b6040513d6000823e3d90fd5b346102485760207ffffffffffffffffffffffffffffffffffffffffffffffffffffffffffffffffc36011261024857600435610584611fc1565b80600052600460205261059d6040600020541515612085565b80600052600460205260ff6006604060002001541690600482101561034a576105cb60016102ea93146120ea565b6122f9565b346102485760207ffffffffffffffffffffffffffffffffffffffffffffffffffffffffffffffffc3601126102485773ffffffffffffffffffffffffffffffffffffffff61061c611d1b565b16600052600560205260406000208054610686600183015492600281015490600381015460048201549060066005840154930154936040519788978893909796959260c0959260e08601998652602086015260408501526060840152608083015260a08201520152565b0390f35b346102485760007ffffffffffffffffffffffffffffffffffffffffffffffffffffffffffffffffc360112610248576020600b54604051908152f35b346102485760407ffffffffffffffffffffffffffffffffffffffffffffffffffffffffffffffffc360112610248576106fd612233565b60043560005260046020526107186040600020541515612085565b600435600052600460205260ff60066040600020015416600481101561034a5761074290156120ea565b600435600052600460205260406000206002810154602435101580610d7f575b15610d2157600581015460048201541115610cc35733600052600a810160205260ff60046040600020015416610c655773ffffffffffffffffffffffffffffffffffffffff600c54166040517f70a08231000000000000000000000000000000000000000000000000000000008152336004820152602081602481855afa90811561053e57600091610c32575b50600091610803602092602435111561214f565b6064604051809481937f23b872dd00000000000000000000000000000000000000000000000000000000835233600484015230602484015260243560448401525af1801561053e57610c13575b506040516020810181811067ffffffffffffffff821117610bb057604052600081523360005260056020526040600020604051918261012081011067ffffffffffffffff61012085011117610bb057610120830160405233835260243560208401526000604084015260006060840152600160808401524260a08401524260c084015260e0830152604051908160e081011067ffffffffffffffff60e084011117610bb05760069060e083016040528054835260018101546020840152600281015460408401526003810154606084015260048101546080840152600581015460a0840152015460c082015261010082015233600052600a820160205260406000209073ffffffffffffffffffffffffffffffffffffffff8151167fffffffffffffffffffffffff0000000000000000000000000000000000000000835416178255602081015160018301556040810151600283015560608101516003830155600482016080820151151560ff7fffffffffffffffffffffffffffffffffffffffffffffffffffffffffffffff00835416911617905560a0810151600583015560c0810151600683015560e081015180519067ffffffffffffffff8211610bb057680100000000000000008211610bb0576020906007850154836007870155808410610bf3575b500160078401600052602060002060005b838110610bdf578686600e60c061010089015180516008850155602081015160098501556040810151600a8501556060810151600b8501556080810151600c85015560a0810151600d8501550151910155600b8101805468010000000000000000811015610bb057610abf916001820181556121df565b81549060031b9073ffffffffffffffffffffffffffffffffffffffff33831b921b1916179055610af26005820154612012565b600582015560098101610b086024358254612226565b90553360005260056020526040600020610b228154612012565b90553360005260056020526003604060002001610b426024358254612226565b905533600052600560205242600660406000200155604051602435815233907f03dfbe1fcb4e2d61f3b4a0c93d8f814c92250618b3387f396cc9fc9fafe2c203602060043592a36004600582015491015414610ba0575b6001600055005b610bab60043561226e565b610b99565b7f4e487b7100000000000000000000000000000000000000000000000000000000600052604160045260246000fd5b600190602084519401938184015501610a48565b610c0d90600787016000528484600020918201910161206e565b86610a37565b610c2b9060203d602011610537576105288183611d3e565b5081610850565b90506020813d602011610c5d575b81610c4d60209383611d3e565b81010312610248575160006107ef565b3d9150610c40565b60646040517f08c379a000000000000000000000000000000000000000000000000000000000815260206004820152600f60248201527f416c726561647920696e2067616d6500000000000000000000000000000000006044820152fd5b60646040517f08c379a000000000000000000000000000000000000000000000000000000000815260206004820152600c60248201527f47616d652069732066756c6c00000000000000000000000000000000000000006044820152fd5b60646040517f08c379a000000000000000000000000000000000000000000000000000000000815260206004820152601460248201527f496e76616c6964207374616b6520616d6f756e740000000000000000000000006044820152fd5b5060038101546024351115610762565b346102485760207ffffffffffffffffffffffffffffffffffffffffffffffffffffffffffffffffc36011261024857600435610dc9611fc1565b6101f48111610e03576020817f45610d581145924dd7090a5017e5f2b1d6f42213bb2e95707ff86846bbfcb1ca92600855604051908152a1005b60646040517f08c379a000000000000000000000000000000000000000000000000000000000815260206004820152600c60248201527f46656520746f6f206869676800000000000000000000000000000000000000006044820152fd5b346102485760207ffffffffffffffffffffffffffffffffffffffffffffffffffffffffffffffffc36011261024857600435806000526004602052610eac6040600020541515612085565b60005260046020526040600020805461068660028301549260038101546004820154600583015460ff60068501541690600785015492600886015494610ef9600160098901549801611e47565b996040519a8b9a8b611f6a565b346102485760407ffffffffffffffffffffffffffffffffffffffffffffffffffffffffffffffffc36011261024857610f3d611d1b565b610f45611fc1565b6001546040517fa9059cbb00000000000000000000000000000000000000000000000000000000815273ffffffffffffffffffffffffffffffffffffffff918216600482015260248035908201529160209183916044918391600091165af1801561053e57610fb057005b6102ea9060203d8111610537576105288183611d3e565b346102485760007ffffffffffffffffffffffffffffffffffffffffffffffffffffffffffffffffc360112610248576020600954604051908152f35b346102485760007ffffffffffffffffffffffffffffffffffffffffffffffffffffffffffffffffc36011261024857602073ffffffffffffffffffffffffffffffffffffffff60015416604051908152f35b346102485760207ffffffffffffffffffffffffffffffffffffffffffffffffffffffffffffffffc3601126102485773ffffffffffffffffffffffffffffffffffffffff6110a1611d1b565b16600090815260066020908152604091829020805460018201546002830154600390930154855192835293820152928301526060820152608090f35b346102485760007ffffffffffffffffffffffffffffffffffffffffffffffffffffffffffffffffc36011261024857611114611fc1565b600073ffffffffffffffffffffffffffffffffffffffff6001547fffffffffffffffffffffffff00000000000000000000000000000000000000008116600155167f8be0079c531659141344cd1fd0a4f28419497f9722a3daafe3b4186f6b6457e08280a3005b346102485760007ffffffffffffffffffffffffffffffffffffffffffffffffffffffffffffffffc360112610248576020600a54604051908152f35b346102485760007ffffffffffffffffffffffffffffffffffffffffffffffffffffffffffffffffc36011261024857602073ffffffffffffffffffffffffffffffffffffffff600e5416604051908152f35b346102485760a07ffffffffffffffffffffffffffffffffffffffffffffffffffffffffffffffffc36011261024857611240611d1b565b6024356044359173ffffffffffffffffffffffffffffffffffffffff9182600d541633036112c2577f6f2a7d33fb40655371ff2f82cf8b4abc9671d4eda08c46066ed9889290dd3fd7926040921693846000526006602052826000208281558160018201556064356002820155600360843591015582519182526020820152a2005b60646040517f08c379a000000000000000000000000000000000000000000000000000000000815260206004820152601760248201527f4f6e6c79204149204f7261636c652063616e2063616c6c0000000000000000006044820152fd5b346102485760007ffffffffffffffffffffffffffffffffffffffffffffffffffffffffffffffffc360112610248576020600254604051908152f35b346102485760a07ffffffffffffffffffffffffffffffffffffffffffffffffffffffffffffffffc3601126102485767ffffffffffffffff600435818111610248576113ac903690600401611d7f565b608435906113b8611fc1565b6024928335156117b757833560443510611759576001928360643511156116fb57600a5481101590816116ee575b5015611690576113f7600254612012565b9283600255836000526004602052604060002091848355835190811161166257918185949361142b60209894840154611df4565b601f8111611625575b5087601f8211600114611536577f7f7dedcb30d262cb0cbf924e0f6afd58e212a01bd4627e8b1fd265dee8065d5f9593611512959383600094600994869161152b575b507fffffffffffffffffffffffffffffffffffffffffffffffffffffffffffffffff82841b9260031b1c191617908201555b8335600282015560443560038201556064356004820155826005820155600681017fffffffffffffffffffffffffffffffffffffffffffffffffffffffffffffff0081541690558260078201558260088201550155604051928392606084526060840190611f0c565b90358783015260643560408301520390a2604051908152f35b90508701518d611477565b828401600052886000209060005b7fffffffffffffffffffffffffffffffffffffffffffffffffffffffffffffffe08416811061160d575093836115129694846009947f7f7dedcb30d262cb0cbf924e0f6afd58e212a01bd4627e8b1fd265dee8065d5f9a98827fffffffffffffffffffffffffffffffffffffffffffffffffffffffffffffffe060009916106115d6575b5050811b01908201556114a9565b8901517fffffffffffffffffffffffffffffffffffffffffffffffffffffffffffffffff60f88460031b161c191690558d806115c8565b81880151835589985091840191908a01908a01611544565b6116529083850160005289600020601f840160051c8101918b8510611658575b601f0160051c019061206e565b88611434565b9091508190611645565b857f4e487b710000000000000000000000000000000000000000000000000000000060005260416004526000fd5b6064846010604051917f08c379a0000000000000000000000000000000000000000000000000000000008352602060048401528201527f496e76616c6964206475726174696f6e000000000000000000000000000000006044820152fd5b9050600b541015856113e6565b6064856017604051917f08c379a0000000000000000000000000000000000000000000000000000000008352602060048401528201527f4d617820706c6179657273206d757374206265203e20310000000000000000006044820152fd5b606484601e604051917f08c379a0000000000000000000000000000000000000000000000000000000008352602060048401528201527f4d6178207374616b65206d757374206265203e3d206d696e207374616b6500006044820152fd5b6064846020604051917f08c379a00000000000000000000000000000000000000000000000000000000083528160048401528201527f4d696e207374616b65206d7573742062652067726561746572207468616e20306044820152fd5b346102485760207ffffffffffffffffffffffffffffffffffffffffffffffffffffffffffffffffc3601126102485773ffffffffffffffffffffffffffffffffffffffff611860611d1b565b611868611fc1565b1680156118c6576020817f01db34cc1fec70288d8d48ba67dae8f2c3cfc760b51fb6d30300257d7f7911b3927fffffffffffffffffffffffff0000000000000000000000000000000000000000600d541617600d55604051908152a1005b60646040517f08c379a000000000000000000000000000000000000000000000000000000000815260206004820152601660248201527f496e76616c6964206f7261636c652061646472657373000000000000000000006044820152fd5b346102485760007ffffffffffffffffffffffffffffffffffffffffffffffffffffffffffffffffc36011261024857602073ffffffffffffffffffffffffffffffffffffffff600c5416604051908152f35b346102485760007ffffffffffffffffffffffffffffffffffffffffffffffffffffffffffffffffc36011261024857602073ffffffffffffffffffffffffffffffffffffffff600d5416604051908152f35b346102485760007ffffffffffffffffffffffffffffffffffffffffffffffffffffffffffffffffc360112610248576020600854604051908152f35b346102485760207ffffffffffffffffffffffffffffffffffffffffffffffffffffffffffffffffc36011261024857600435600052600460205260406000208054610686611a5460018401611e47565b9260028101549060038101546004820154600583015460ff6006850154169160078501549360096008870154960154966040519a8b9a8b611f6a565b346102485760607ffffffffffffffffffffffffffffffffffffffffffffffffffffffffffffffffc3601126102485760043560243567ffffffffffffffff811161024857611ae2903690600401611d7f565b906044358160005260209260048452611b016040600020541515612085565b826000526004845260ff60066040600020015416600481101561034a576001611b2a91146120ea565b8260005260048452600a60406000200133600052845260ff6004604060002001541615611bdf5792827ff3d4f57e05aae06b4017c0b2ed81f62aa6f19deef046d6a78ad2a4223858c4f081956008956000526004845260406000209433600052600a86018552604060002060028101611ba4838254612226565b9055600642910155611bc160405192604084526040840190611f0c565b948201528033940390a30154421015611bd657005b6102ea906122f9565b606484604051907f08c379a00000000000000000000000000000000000000000000000000000000082526004820152601260248201527f506c61796572206e6f7420696e2067616d6500000000000000000000000000006044820152fd5b346102485760407ffffffffffffffffffffffffffffffffffffffffffffffffffffffffffffffffc3601126102485760043560243573ffffffffffffffffffffffffffffffffffffffff90818116809103610248578260e0936000526004602052611cae6040600020541515612085565b6000526004602052600a60406000200190600052602052604060002090815416906001810154906002810154600382015460ff6004840154169160066005850154940154946040519687526020870152604086015260608501521515608084015260a083015260c0820152f35b6004359073ffffffffffffffffffffffffffffffffffffffff8216820361024857565b90601f7fffffffffffffffffffffffffffffffffffffffffffffffffffffffffffffffe0910116810190811067ffffffffffffffff821117610bb057604052565b81601f820112156102485780359067ffffffffffffffff8211610bb05760405192611dd260207fffffffffffffffffffffffffffffffffffffffffffffffffffffffffffffffe0601f8601160185611d3e565b8284526020838301011161024857816000926020809301838601378301015290565b90600182811c92168015611e3d575b6020831014611e0e57565b7f4e487b7100000000000000000000000000000000000000000000000000000000600052602260045260246000fd5b91607f1691611e03565b9060405191826000825492611e5b84611df4565b908184526001948581169081600014611eca5750600114611e87575b5050611e8592500383611d3e565b565b9093915060005260209081600020936000915b818310611eb2575050611e8593508201013880611e77565b85548884018501529485019487945091830191611e9a565b9050611e859550602093507fffffffffffffffffffffffffffffffffffffffffffffffffffffffffffffff0091501682840152151560051b8201013880611e77565b919082519283825260005b848110611f565750507fffffffffffffffffffffffffffffffffffffffffffffffffffffffffffffffe0601f8460006020809697860101520116010190565b602081830181015184830182015201611f17565b969794929a9998959391611f8b9188526101408060208a0152880190611f0c565b9960408701526060860152608085015260a0840152600484101561034a576101209360c084015260e08301526101008201520152565b73ffffffffffffffffffffffffffffffffffffffff600154163303611fe257565b60246040517f118cdaa7000000000000000000000000000000000000000000000000000000008152336004820152fd5b7fffffffffffffffffffffffffffffffffffffffffffffffffffffffffffffffff811461203f5760010190565b7f4e487b7100000000000000000000000000000000000000000000000000000000600052601160045260246000fd5b818110612079575050565b6000815560010161206e565b1561208c57565b60646040517f08c379a000000000000000000000000000000000000000000000000000000000815260206004820152601360248201527f47616d6520646f6573206e6f74206578697374000000000000000000000000006044820152fd5b156120f157565b60646040517f08c379a000000000000000000000000000000000000000000000000000000000815260206004820152601260248201527f496e76616c69642067616d6520737461746500000000000000000000000000006044820152fd5b1561215657565b60646040517f08c379a000000000000000000000000000000000000000000000000000000000815260206004820152601460248201527f496e73756666696369656e742062616c616e63650000000000000000000000006044820152fd5b90816020910312610248575180151581036102485790565b8181029291811591840414171561203f57565b80548210156121f75760005260206000200190600090565b7f4e487b7100000000000000000000000000000000000000000000000000000000600052603260045260246000fd5b9190820180921161203f57565b600260005414612244576002600055565b60046040517f3ee5aeb5000000000000000000000000000000000000000000000000000000008152fd5b80600052600460205260406000206006810160017fffffffffffffffffffffffffffffffffffffffffffffffffffffffffffffff00825416179055426007820155610e1042019081421161203f57600801557fa2dfaa3573b86004ec9d4d4abe5068d942579c59da4da8cd0d9e45e71a393bc16020604051428152a2565b9190820391821161203f57565b9060009180835260049060208281526040928386209361237b6006860195600296877fffffffffffffffffffffffffffffffffffffffffffffffffffffffffffffff008254161790554260088201556009810154906123806127109283612362600854836121cc565b04948594612372600954846121cc565b049586926122ec565b6122ec565b948a918b8c8b818b600b8601928b600a85549801955b8885106125fa5750505050505050505073ffffffffffffffffffffffffffffffffffffffff8092169889612513575b508a8761242e84600c541685600e54169689519485809481937fa9059cbb000000000000000000000000000000000000000000000000000000009b8c84528a84016020909392919373ffffffffffffffffffffffffffffffffffffffff60408201951681520152565b03925af18015612509579088949392916124ec575b508b82600c541692600d541693612488885197889687958694855284016020909392919373ffffffffffffffffffffffffffffffffffffffff60408201951681520152565b03925af180156124e2577ff5d92df6ae1a0b46d0a0c57c2e1da0d75d7591d2804ad086cb1e27ba67de7aaf95969798506124c5575b5051908152a3565b6124db90843d8611610537576105288183611d3e565b50386124bd565b82513d8a823e3d90fd5b61250290853d8711610537576105288183611d3e565b5038612443565b86513d8e823e3d90fd5b898c5260078852858c20612528888254612226565b9055898c52600588526001868d20016125418154612012565b9055898c5260058852858c2001612559878254612226565b9055888b52600587526001858c2001546064810290808204606414901517156125ce57898c5260058852858c20549081156125a2578a8d52600589520481868d200155386123c5565b60248d6012857f4e487b7100000000000000000000000000000000000000000000000000000000835252fd5b60248c6011847f4e487b7100000000000000000000000000000000000000000000000000000000835252fd5b8673ffffffffffffffffffffffffffffffffffffffff61261a87896121df565b90549060031b1c169485835252200154858111612647575b505061263d90612012565b8f8e8b8e92612396565b909750935061263d3861263256fea2646970667358221220a192633f00680b96f0bb254ed41bacb51ede1dac24552ff70fa3f3f7a4bc181764736f6c63430008140033",
  "linkReferences": {},
  "deployedLinkReferences": {}
}